{
  "_format": "hh-sol-artifact-1",
  "contractName": "OurCurve",
  "sourceName": "contracts/OurCurve.sol",
  "abi": [
    {
      "inputs": [
        {
          "internalType": "uint256",
          "name": "_supply",
          "type": "uint256"
        },
        {
          "internalType": "uint256",
          "name": "_tokensToMint",
          "type": "uint256"
        }
      ],
      "name": "calcPriceForTokenMint",
      "outputs": [
        {
          "internalType": "uint256",
          "name": "",
          "type": "uint256"
        }
      ],
      "stateMutability": "view",
      "type": "function"
    },
    {
      "inputs": [
        {
          "internalType": "uint256",
          "name": "_supply",
          "type": "uint256"
        },
        {
          "internalType": "uint256",
          "name": "_tokensToBurn",
          "type": "uint256"
        }
      ],
      "name": "calcReturnForTokenBurn",
      "outputs": [
        {
          "internalType": "uint256",
          "name": "",
          "type": "uint256"
        }
      ],
      "stateMutability": "view",
      "type": "function"
    }
  ],
  "bytecode": "0x6080604052670de0b6b3a764000060005534801561001c57600080fd5b506107ed8061002c6000396000f3fe608060405234801561001057600080fd5b50600436106100365760003560e01c8063e4bbe7eb1461003b578063e8e6f9ad1461006b575b600080fd5b6100556004803603810190610050919061037a565b61009b565b6040516100629190610484565b60405180910390f35b6100856004803603810190610080919061037a565b610198565b6040516100929190610484565b60405180910390f35b600080831180156100ac5750600082115b80156100b757508183115b6100f6576040517f08c379a00000000000000000000000000000000000000000000000000000000081526004016100ed90610444565b60405180910390fd5b6000828461010491906105cc565b9050600084856101149190610572565b9050600082836101249190610572565b90506000818361013491906105cc565b905060008054826101459190610572565b90506000620c3500826101589190610541565b90506000662386f26fc10000905060008183610174919061063d565b90506000818461018491906105cc565b905080995050505050505050505092915050565b60008082116101dc576040517f08c379a00000000000000000000000000000000000000000000000000000000081526004016101d390610464565b60405180910390fd5b6101fe83604051806060016040528060258152602001610793602591396102a0565b6000838461020c9190610572565b90506000838561021c91906104eb565b90506000818261022c9190610572565b90506000838261023c91906105cc565b9050600080548261024d9190610572565b90506000620c3500826102609190610541565b90506000662386f26fc1000090506000818361027c919061063d565b90506000818461028c91906105cc565b905080995050505050505050505092915050565b61033882826040516024016102b692919061049f565b6040516020818303038152906040527f0fa3f345000000000000000000000000000000000000000000000000000000007bffffffffffffffffffffffffffffffffffffffffffffffffffffffff19166020820180517bffffffffffffffffffffffffffffffffffffffffffffffffffffffff838183161783525050505061033c565b5050565b60008151905060006a636f6e736f6c652e6c6f679050602083016000808483855afa5050505050565b6000813590506103748161077b565b92915050565b6000806040838503121561038d57600080fd5b600061039b85828601610365565b92505060206103ac85828601610365565b9150509250929050565b60006103c1826104cf565b6103cb81856104da565b93506103db81856020860161060a565b6103e4816106cc565b840191505092915050565b60006103fc602c836104da565b9150610407826106dd565b604082019050919050565b600061041f6026836104da565b915061042a8261072c565b604082019050919050565b61043e81610600565b82525050565b6000602082019050818103600083015261045d816103ef565b9050919050565b6000602082019050818103600083015261047d81610412565b9050919050565b60006020820190506104996000830184610435565b92915050565b60006040820190506104b46000830185610435565b81810360208301526104c681846103b6565b90509392505050565b600081519050919050565b600082825260208201905092915050565b60006104f682610600565b915061050183610600565b9250827fffffffffffffffffffffffffffffffffffffffffffffffffffffffffffffffff038211156105365761053561066e565b5b828201905092915050565b600061054c82610600565b915061055783610600565b9250826105675761056661069d565b5b828204905092915050565b600061057d82610600565b915061058883610600565b9250817fffffffffffffffffffffffffffffffffffffffffffffffffffffffffffffffff04831182151516156105c1576105c061066e565b5b828202905092915050565b60006105d782610600565b91506105e283610600565b9250828210156105f5576105f461066e565b5b828203905092915050565b6000819050919050565b60005b8381101561062857808201518184015260208101905061060d565b83811115610637576000848401525b50505050565b600061064882610600565b915061065383610600565b9250826106635761066261069d565b5b828206905092915050565b7f4e487b7100000000000000000000000000000000000000000000000000000000600052601160045260246000fd5b7f4e487b7100000000000000000000000000000000000000000000000000000000600052601260045260246000fd5b6000601f19601f8301169050919050565b7f4f757243757276653a2053656e64696e672061726773206d757374206265206c60008201527f6172676572207468616e20300000000000000000000000000000000000000000602082015250565b7f4f757243757276653a204d757374206d696e74206d6f7265207468616e20302060008201527f746f6b656e730000000000000000000000000000000000000000000000000000602082015250565b61078481610600565b811461078f57600080fd5b5056fe205f737570706c7920696e204f432c2063616c635072696365466f72546f6b656e4d696e74a264697066735822122005e7af69488de3d2fb55e9fab8bbcab9fdf760113a45f261042539d7a5784a5264736f6c63430008040033",
  "linkReferences": {},
  "deployedLinkReferences": {}
}