{
  "_format": "hh-sol-artifact-1",
  "contractName": "OurToken",
  "sourceName": "contracts/OurToken.sol",
  "abi": [
    {
      "inputs": [
        {
          "internalType": "address",
          "name": "_mockUSDCTokenAddress",
          "type": "address"
        },
        {
          "internalType": "address",
          "name": "_feeReceiver",
          "type": "address"
        }
      ],
      "stateMutability": "nonpayable",
      "type": "constructor"
    },
    {
      "anonymous": false,
      "inputs": [
        {
          "indexed": true,
          "internalType": "address",
          "name": "owner",
          "type": "address"
        },
        {
          "indexed": true,
          "internalType": "address",
          "name": "spender",
          "type": "address"
        },
        {
          "indexed": false,
          "internalType": "uint256",
          "name": "value",
          "type": "uint256"
        }
      ],
      "name": "Approval",
      "type": "event"
    },
    {
      "anonymous": false,
      "inputs": [
        {
          "indexed": true,
          "internalType": "address",
          "name": "previousOwner",
          "type": "address"
        },
        {
          "indexed": true,
          "internalType": "address",
          "name": "newOwner",
          "type": "address"
        }
      ],
      "name": "OwnershipTransferred",
      "type": "event"
    },
    {
      "anonymous": false,
      "inputs": [
        {
          "indexed": false,
          "internalType": "address",
          "name": "account",
          "type": "address"
        }
      ],
      "name": "Paused",
      "type": "event"
    },
    {
      "anonymous": false,
      "inputs": [
        {
          "indexed": false,
          "internalType": "address",
          "name": "sender",
          "type": "address"
        },
        {
          "indexed": false,
          "internalType": "uint256",
          "name": "tokenAmount",
          "type": "uint256"
        },
        {
          "indexed": false,
          "internalType": "uint256",
          "name": "returnForBurning",
          "type": "uint256"
        }
      ],
      "name": "SpecifiedBurnEvent",
      "type": "event"
    },
    {
      "anonymous": false,
      "inputs": [
        {
          "indexed": false,
          "internalType": "address",
          "name": "sender",
          "type": "address"
        },
        {
          "indexed": false,
          "internalType": "uint256",
          "name": "tokenAmount",
          "type": "uint256"
        },
        {
          "indexed": false,
          "internalType": "uint256",
          "name": "priceForMinting",
          "type": "uint256"
        }
      ],
      "name": "SpecifiedMintEvent",
      "type": "event"
    },
    {
      "anonymous": false,
      "inputs": [
        {
          "indexed": true,
          "internalType": "address",
          "name": "from",
          "type": "address"
        },
        {
          "indexed": true,
          "internalType": "address",
          "name": "to",
          "type": "address"
        },
        {
          "indexed": false,
          "internalType": "uint256",
          "name": "value",
          "type": "uint256"
        }
      ],
      "name": "Transfer",
      "type": "event"
    },
    {
      "anonymous": false,
      "inputs": [
        {
          "indexed": false,
          "internalType": "address",
          "name": "account",
          "type": "address"
        }
      ],
      "name": "Unpaused",
      "type": "event"
    },
    {
      "inputs": [
        {
          "internalType": "address",
          "name": "owner",
          "type": "address"
        },
        {
          "internalType": "address",
          "name": "spender",
          "type": "address"
        }
      ],
      "name": "allowance",
      "outputs": [
        {
          "internalType": "uint256",
          "name": "",
          "type": "uint256"
        }
      ],
      "stateMutability": "view",
      "type": "function"
    },
    {
      "inputs": [
        {
          "internalType": "address",
          "name": "spender",
          "type": "address"
        },
        {
          "internalType": "uint256",
          "name": "amount",
          "type": "uint256"
        }
      ],
      "name": "approve",
      "outputs": [
        {
          "internalType": "bool",
          "name": "",
          "type": "bool"
        }
      ],
      "stateMutability": "nonpayable",
      "type": "function"
    },
    {
      "inputs": [
        {
          "internalType": "address",
          "name": "account",
          "type": "address"
        }
      ],
      "name": "balanceOf",
      "outputs": [
        {
          "internalType": "uint256",
          "name": "",
          "type": "uint256"
        }
      ],
      "stateMutability": "view",
      "type": "function"
    },
    {
      "inputs": [
        {
          "internalType": "uint256",
          "name": "_supply",
          "type": "uint256"
        },
        {
          "internalType": "uint256",
          "name": "_tokensToMint",
          "type": "uint256"
        }
      ],
      "name": "calcPriceForTokenMint",
      "outputs": [
        {
          "internalType": "uint256",
          "name": "",
          "type": "uint256"
        }
      ],
      "stateMutability": "view",
      "type": "function"
    },
    {
      "inputs": [
        {
          "internalType": "uint256",
          "name": "_supply",
          "type": "uint256"
        },
        {
          "internalType": "uint256",
          "name": "_tokensToBurn",
          "type": "uint256"
        }
      ],
      "name": "calcReturnForTokenBurn",
      "outputs": [
        {
          "internalType": "uint256",
          "name": "",
          "type": "uint256"
        }
      ],
      "stateMutability": "view",
      "type": "function"
    },
    {
      "inputs": [
        {
          "internalType": "uint256",
          "name": "_amount",
          "type": "uint256"
        }
      ],
      "name": "calcSpecBurnReturn",
      "outputs": [
        {
          "internalType": "uint256",
          "name": "burnReturn",
          "type": "uint256"
        }
      ],
      "stateMutability": "view",
      "type": "function"
    },
    {
      "inputs": [
        {
          "internalType": "uint256",
          "name": "_amount",
          "type": "uint256"
        }
      ],
      "name": "calcSpecMintReturn",
      "outputs": [
        {
          "internalType": "uint256",
          "name": "mintPrice",
          "type": "uint256"
        }
      ],
      "stateMutability": "view",
      "type": "function"
    },
    {
      "inputs": [],
      "name": "decimals",
      "outputs": [
        {
          "internalType": "uint8",
          "name": "",
          "type": "uint8"
        }
      ],
      "stateMutability": "pure",
      "type": "function"
    },
    {
      "inputs": [
        {
          "internalType": "address",
          "name": "spender",
          "type": "address"
        },
        {
          "internalType": "uint256",
          "name": "subtractedValue",
          "type": "uint256"
        }
      ],
      "name": "decreaseAllowance",
      "outputs": [
        {
          "internalType": "bool",
          "name": "",
          "type": "bool"
        }
      ],
      "stateMutability": "nonpayable",
      "type": "function"
    },
    {
      "inputs": [
        {
          "internalType": "address",
          "name": "spender",
          "type": "address"
        },
        {
          "internalType": "uint256",
          "name": "addedValue",
          "type": "uint256"
        }
      ],
      "name": "increaseAllowance",
      "outputs": [
        {
          "internalType": "bool",
          "name": "",
          "type": "bool"
        }
      ],
      "stateMutability": "nonpayable",
      "type": "function"
    },
    {
      "inputs": [],
      "name": "mockUSDCToken",
      "outputs": [
        {
          "internalType": "contract IERC20",
          "name": "",
          "type": "address"
        }
      ],
      "stateMutability": "view",
      "type": "function"
    },
    {
      "inputs": [],
      "name": "name",
      "outputs": [
        {
          "internalType": "string",
          "name": "",
          "type": "string"
        }
      ],
      "stateMutability": "view",
      "type": "function"
    },
    {
      "inputs": [],
      "name": "owner",
      "outputs": [
        {
          "internalType": "address",
          "name": "",
          "type": "address"
        }
      ],
      "stateMutability": "view",
      "type": "function"
    },
    {
      "inputs": [],
      "name": "pause",
      "outputs": [],
      "stateMutability": "nonpayable",
      "type": "function"
    },
    {
      "inputs": [],
      "name": "paused",
      "outputs": [
        {
          "internalType": "bool",
          "name": "",
          "type": "bool"
        }
      ],
      "stateMutability": "view",
      "type": "function"
    },
    {
      "inputs": [],
      "name": "renounceOwnership",
      "outputs": [],
      "stateMutability": "nonpayable",
      "type": "function"
    },
    {
      "inputs": [
        {
          "internalType": "uint256",
          "name": "_tokenAmountToBurn",
          "type": "uint256"
        }
      ],
      "name": "specifiedBurn",
      "outputs": [],
      "stateMutability": "payable",
      "type": "function"
    },
    {
      "inputs": [
        {
          "internalType": "uint256",
          "name": "_tokenAmountToMint",
          "type": "uint256"
        }
      ],
      "name": "specifiedMint",
      "outputs": [],
      "stateMutability": "nonpayable",
      "type": "function"
    },
    {
      "inputs": [],
      "name": "symbol",
      "outputs": [
        {
          "internalType": "string",
          "name": "",
          "type": "string"
        }
      ],
      "stateMutability": "view",
      "type": "function"
    },
    {
      "inputs": [],
      "name": "totalSupply",
      "outputs": [
        {
          "internalType": "uint256",
          "name": "",
          "type": "uint256"
        }
      ],
      "stateMutability": "view",
      "type": "function"
    },
    {
      "inputs": [
        {
          "internalType": "address",
          "name": "recipient",
          "type": "address"
        },
        {
          "internalType": "uint256",
          "name": "amount",
          "type": "uint256"
        }
      ],
      "name": "transfer",
      "outputs": [
        {
          "internalType": "bool",
          "name": "",
          "type": "bool"
        }
      ],
      "stateMutability": "nonpayable",
      "type": "function"
    },
    {
      "inputs": [
        {
          "internalType": "address",
          "name": "sender",
          "type": "address"
        },
        {
          "internalType": "address",
          "name": "recipient",
          "type": "address"
        },
        {
          "internalType": "uint256",
          "name": "amount",
          "type": "uint256"
        }
      ],
      "name": "transferFrom",
      "outputs": [
        {
          "internalType": "bool",
          "name": "",
          "type": "bool"
        }
      ],
      "stateMutability": "nonpayable",
      "type": "function"
    },
    {
      "inputs": [
        {
          "internalType": "address",
          "name": "newOwner",
          "type": "address"
        }
      ],
      "name": "transferOwnership",
      "outputs": [],
      "stateMutability": "nonpayable",
      "type": "function"
    },
    {
      "inputs": [],
      "name": "unpause",
      "outputs": [],
      "stateMutability": "nonpayable",
      "type": "function"
    },
    {
      "stateMutability": "payable",
      "type": "receive"
    }
  ],
  "bytecode": "0x6080604052670de0b6b3a76400006000553480156200001d57600080fd5b5060405162003cb538038062003cb583398181016040528101906200004391906200039a565b6040518060400160405280600881526020017f4f7572546f6b656e0000000000000000000000000000000000000000000000008152506040518060400160405280600381526020017f4f544b0000000000000000000000000000000000000000000000000000000000815250620000cf620000c36200020560201b60201c565b6200020d60201b60201c565b8160059080519060200190620000e7929190620002d3565b50806006908051906020019062000100929190620002d3565b5050506000600760006101000a81548160ff0219169083151502179055506000600960146101000a81548160ff021916908360ff16021790555081600760016101000a81548173ffffffffffffffffffffffffffffffffffffffff021916908373ffffffffffffffffffffffffffffffffffffffff16021790555030600860006101000a81548173ffffffffffffffffffffffffffffffffffffffff021916908373ffffffffffffffffffffffffffffffffffffffff16021790555080600960006101000a81548173ffffffffffffffffffffffffffffffffffffffff021916908373ffffffffffffffffffffffffffffffffffffffff16021790555050506200048e565b600033905090565b6000600160009054906101000a900473ffffffffffffffffffffffffffffffffffffffff16905081600160006101000a81548173ffffffffffffffffffffffffffffffffffffffff021916908373ffffffffffffffffffffffffffffffffffffffff1602179055508173ffffffffffffffffffffffffffffffffffffffff168173ffffffffffffffffffffffffffffffffffffffff167f8be0079c531659141344cd1fd0a4f28419497f9722a3daafe3b4186f6b6457e060405160405180910390a35050565b828054620002e1906200040f565b90600052602060002090601f01602090048101928262000305576000855562000351565b82601f106200032057805160ff191683800117855562000351565b8280016001018555821562000351579182015b828111156200035057825182559160200191906001019062000333565b5b50905062000360919062000364565b5090565b5b808211156200037f57600081600090555060010162000365565b5090565b600081519050620003948162000474565b92915050565b60008060408385031215620003ae57600080fd5b6000620003be8582860162000383565b9250506020620003d18582860162000383565b9150509250929050565b6000620003e882620003ef565b9050919050565b600073ffffffffffffffffffffffffffffffffffffffff82169050919050565b600060028204905060018216806200042857607f821691505b602082108114156200043f576200043e62000445565b5b50919050565b7f4e487b7100000000000000000000000000000000000000000000000000000000600052602260045260246000fd5b6200047f81620003db565b81146200048b57600080fd5b50565b613817806200049e6000396000f3fe60806040526004361061014e5760003560e01c80638456cb59116100b6578063b5b16c051161006f578063b5b16c05146104a0578063c346e980146104bc578063dd62ed3e146104f9578063e4bbe7eb14610536578063e8e6f9ad14610573578063f2fde38b146105b057610155565b80638456cb59146103905780638da5cb5b146103a7578063947ce768146103d257806395d89b41146103fb578063a457c2d714610426578063a9059cbb1461046357610155565b8063395093511161010857806339509351146102805780633f4ba83a146102bd5780635c975abb146102d45780635f03e644146102ff57806370a082311461033c578063715018a61461037957610155565b8062f2bb7f1461015a57806306fdde0314610185578063095ea7b3146101b057806318160ddd146101ed57806323b872dd14610218578063313ce5671461025557610155565b3661015557005b600080fd5b34801561016657600080fd5b5061016f6105d9565b60405161017c9190612ab1565b60405180910390f35b34801561019157600080fd5b5061019a6105ff565b6040516101a79190612acc565b60405180910390f35b3480156101bc57600080fd5b506101d760048036038101906101d29190612542565b610691565b6040516101e49190612a96565b60405180910390f35b3480156101f957600080fd5b506102026106af565b60405161020f9190612dae565b60405180910390f35b34801561022457600080fd5b5061023f600480360381019061023a91906124f3565b6106b9565b60405161024c9190612a96565b60405180910390f35b34801561026157600080fd5b5061026a6107b1565b6040516102779190612df9565b60405180910390f35b34801561028c57600080fd5b506102a760048036038101906102a29190612542565b6107b6565b6040516102b49190612a96565b60405180910390f35b3480156102c957600080fd5b506102d2610862565b005b3480156102e057600080fd5b506102e96108e8565b6040516102f69190612a96565b60405180910390f35b34801561030b57600080fd5b50610326600480360381019061032191906125a7565b6108ff565b6040516103339190612dae565b60405180910390f35b34801561034857600080fd5b50610363600480360381019061035e919061248e565b610961565b6040516103709190612dae565b60405180910390f35b34801561038557600080fd5b5061038e6109aa565b005b34801561039c57600080fd5b506103a5610a32565b005b3480156103b357600080fd5b506103bc610ab8565b6040516103c991906129bb565b60405180910390f35b3480156103de57600080fd5b506103f960048036038101906103f491906125a7565b610ae2565b005b34801561040757600080fd5b50610410610b37565b60405161041d9190612acc565b60405180910390f35b34801561043257600080fd5b5061044d60048036038101906104489190612542565b610bc9565b60405161045a9190612a96565b60405180910390f35b34801561046f57600080fd5b5061048a60048036038101906104859190612542565b610cb4565b6040516104979190612a96565b60405180910390f35b6104ba60048036038101906104b591906125a7565b610cd2565b005b3480156104c857600080fd5b506104e360048036038101906104de91906125a7565b610d27565b6040516104f09190612dae565b60405180910390f35b34801561050557600080fd5b50610520600480360381019061051b91906124b7565b610d89565b60405161052d9190612dae565b60405180910390f35b34801561054257600080fd5b5061055d600480360381019061055891906125f9565b610e10565b60405161056a9190612dae565b60405180910390f35b34801561057f57600080fd5b5061059a600480360381019061059591906125f9565b610f0d565b6040516105a79190612dae565b60405180910390f35b3480156105bc57600080fd5b506105d760048036038101906105d2919061248e565b611015565b005b600760019054906101000a900473ffffffffffffffffffffffffffffffffffffffff1681565b60606005805461060e90612ff1565b80601f016020809104026020016040519081016040528092919081815260200182805461063a90612ff1565b80156106875780601f1061065c57610100808354040283529160200191610687565b820191906000526020600020905b81548152906001019060200180831161066a57829003601f168201915b5050505050905090565b60006106a561069e61110d565b8484611115565b6001905092915050565b6000600454905090565b60006106c68484846112e0565b6000600360008673ffffffffffffffffffffffffffffffffffffffff1673ffffffffffffffffffffffffffffffffffffffff168152602001908152602001600020600061071161110d565b73ffffffffffffffffffffffffffffffffffffffff1673ffffffffffffffffffffffffffffffffffffffff16815260200190815260200160002054905082811015610791576040517f08c379a000000000000000000000000000000000000000000000000000000000815260040161078890612c2e565b60405180910390fd5b6107a58561079d61110d565b858403611115565b60019150509392505050565b600090565b60006108586107c361110d565b8484600360006107d161110d565b73ffffffffffffffffffffffffffffffffffffffff1673ffffffffffffffffffffffffffffffffffffffff16815260200190815260200160002060008873ffffffffffffffffffffffffffffffffffffffff1673ffffffffffffffffffffffffffffffffffffffff168152602001908152602001600020546108539190612e30565b611115565b6001905092915050565b61086a61110d565b73ffffffffffffffffffffffffffffffffffffffff16610888610ab8565b73ffffffffffffffffffffffffffffffffffffffff16146108de576040517f08c379a00000000000000000000000000000000000000000000000000000000081526004016108d590612c4e565b60405180910390fd5b6108e6611564565b565b6000600760009054906101000a900460ff16905090565b60006109096108e8565b15610949576040517f08c379a000000000000000000000000000000000000000000000000000000000815260040161094090612bee565b60405180910390fd5b61095a6109546106af565b83610f0d565b9050919050565b6000600260008373ffffffffffffffffffffffffffffffffffffffff1673ffffffffffffffffffffffffffffffffffffffff168152602001908152602001600020549050919050565b6109b261110d565b73ffffffffffffffffffffffffffffffffffffffff166109d0610ab8565b73ffffffffffffffffffffffffffffffffffffffff1614610a26576040517f08c379a0000000000000000000000000000000000000000000000000000000008152600401610a1d90612c4e565b60405180910390fd5b610a306000611606565b565b610a3a61110d565b73ffffffffffffffffffffffffffffffffffffffff16610a58610ab8565b73ffffffffffffffffffffffffffffffffffffffff1614610aae576040517f08c379a0000000000000000000000000000000000000000000000000000000008152600401610aa590612c4e565b60405180910390fd5b610ab66116cc565b565b6000600160009054906101000a900473ffffffffffffffffffffffffffffffffffffffff16905090565b610aea6108e8565b15610b2a576040517f08c379a0000000000000000000000000000000000000000000000000000000008152600401610b2190612bee565b60405180910390fd5b610b338161176f565b5050565b606060068054610b4690612ff1565b80601f0160208091040260200160405190810160405280929190818152602001828054610b7290612ff1565b8015610bbf5780601f10610b9457610100808354040283529160200191610bbf565b820191906000526020600020905b815481529060010190602001808311610ba257829003601f168201915b5050505050905090565b60008060036000610bd861110d565b73ffffffffffffffffffffffffffffffffffffffff1673ffffffffffffffffffffffffffffffffffffffff16815260200190815260200160002060008573ffffffffffffffffffffffffffffffffffffffff1673ffffffffffffffffffffffffffffffffffffffff16815260200190815260200160002054905082811015610c95576040517f08c379a0000000000000000000000000000000000000000000000000000000008152600401610c8c90612d2e565b60405180910390fd5b610ca9610ca061110d565b85858403611115565b600191505092915050565b6000610cc8610cc161110d565b84846112e0565b6001905092915050565b610cda6108e8565b15610d1a576040517f08c379a0000000000000000000000000000000000000000000000000000000008152600401610d1190612bee565b60405180910390fd5b610d2381611d0e565b5050565b6000610d316108e8565b15610d71576040517f08c379a0000000000000000000000000000000000000000000000000000000008152600401610d6890612bee565b60405180910390fd5b610d82610d7c6106af565b83610e10565b9050919050565b6000600360008473ffffffffffffffffffffffffffffffffffffffff1673ffffffffffffffffffffffffffffffffffffffff16815260200190815260200160002060008373ffffffffffffffffffffffffffffffffffffffff1673ffffffffffffffffffffffffffffffffffffffff16815260200190815260200160002054905092915050565b60008083118015610e215750600082115b8015610e2c57508183115b610e6b576040517f08c379a0000000000000000000000000000000000000000000000000000000008152600401610e6290612c0e565b60405180910390fd5b60008284610e799190612f11565b905060008485610e899190612eb7565b905060008283610e999190612eb7565b905060008183610ea99190612f11565b90506000805482610eba9190612eb7565b90506000620c350082610ecd9190612e86565b90506000662386f26fc10000905060008183610ee99190613023565b905060008184610ef99190612f11565b905080995050505050505050505092915050565b6000808211610f51576040517f08c379a0000000000000000000000000000000000000000000000000000000008152600401610f4890612cee565b60405180910390fd5b610f738360405180606001604052806025815260200161376a60259139612031565b60008384610f819190612eb7565b905060008385610f919190612e30565b905060008182610fa19190612eb7565b905060008382610fb19190612f11565b90506000805482610fc29190612eb7565b90506000620c350082610fd59190612e86565b90506000662386f26fc10000905060008183610ff19190613023565b9050600081846110019190612f11565b905080995050505050505050505092915050565b61101d61110d565b73ffffffffffffffffffffffffffffffffffffffff1661103b610ab8565b73ffffffffffffffffffffffffffffffffffffffff1614611091576040517f08c379a000000000000000000000000000000000000000000000000000000000815260040161108890612c4e565b60405180910390fd5b600073ffffffffffffffffffffffffffffffffffffffff168173ffffffffffffffffffffffffffffffffffffffff161415611101576040517f08c379a00000000000000000000000000000000000000000000000000000000081526004016110f890612b4e565b60405180910390fd5b61110a81611606565b50565b600033905090565b600073ffffffffffffffffffffffffffffffffffffffff168373ffffffffffffffffffffffffffffffffffffffff161415611185576040517f08c379a000000000000000000000000000000000000000000000000000000000815260040161117c90612cce565b60405180910390fd5b600073ffffffffffffffffffffffffffffffffffffffff168273ffffffffffffffffffffffffffffffffffffffff1614156111f5576040517f08c379a00000000000000000000000000000000000000000000000000000000081526004016111ec90612b6e565b60405180910390fd5b80600360008573ffffffffffffffffffffffffffffffffffffffff1673ffffffffffffffffffffffffffffffffffffffff16815260200190815260200160002060008473ffffffffffffffffffffffffffffffffffffffff1673ffffffffffffffffffffffffffffffffffffffff168152602001908152602001600020819055508173ffffffffffffffffffffffffffffffffffffffff168373ffffffffffffffffffffffffffffffffffffffff167f8c5be1e5ebec7d5bd14f71427d1e84f3dd0314c0f7b2291e5b200ac8c7c3b925836040516112d39190612dae565b60405180910390a3505050565b600073ffffffffffffffffffffffffffffffffffffffff168373ffffffffffffffffffffffffffffffffffffffff161415611350576040517f08c379a000000000000000000000000000000000000000000000000000000000815260040161134790612c8e565b60405180910390fd5b600073ffffffffffffffffffffffffffffffffffffffff168273ffffffffffffffffffffffffffffffffffffffff1614156113c0576040517f08c379a00000000000000000000000000000000000000000000000000000000081526004016113b790612aee565b60405180910390fd5b6113cb8383836120cd565b6000600260008573ffffffffffffffffffffffffffffffffffffffff1673ffffffffffffffffffffffffffffffffffffffff16815260200190815260200160002054905081811015611452576040517f08c379a000000000000000000000000000000000000000000000000000000000815260040161144990612b8e565b60405180910390fd5b818103600260008673ffffffffffffffffffffffffffffffffffffffff1673ffffffffffffffffffffffffffffffffffffffff1681526020019081526020016000208190555081600260008573ffffffffffffffffffffffffffffffffffffffff1673ffffffffffffffffffffffffffffffffffffffff16815260200190815260200160002060008282546114e79190612e30565b925050819055508273ffffffffffffffffffffffffffffffffffffffff168473ffffffffffffffffffffffffffffffffffffffff167fddf252ad1be2c89b69c2b068fc378daa952ba7f163c4a11628f55a4df523b3ef8460405161154b9190612dae565b60405180910390a361155e8484846120d2565b50505050565b61156c6108e8565b6115ab576040517f08c379a00000000000000000000000000000000000000000000000000000000081526004016115a290612b0e565b60405180910390fd5b6000600760006101000a81548160ff0219169083151502179055507f5db9ee0a495bf2e6ff9c91a7834c1ba4fdd244a5e8aa4e537bd38aeae4b073aa6115ef61110d565b6040516115fc91906129bb565b60405180910390a1565b6000600160009054906101000a900473ffffffffffffffffffffffffffffffffffffffff16905081600160006101000a81548173ffffffffffffffffffffffffffffffffffffffff021916908373ffffffffffffffffffffffffffffffffffffffff1602179055508173ffffffffffffffffffffffffffffffffffffffff168173ffffffffffffffffffffffffffffffffffffffff167f8be0079c531659141344cd1fd0a4f28419497f9722a3daafe3b4186f6b6457e060405160405180910390a35050565b6116d46108e8565b15611714576040517f08c379a000000000000000000000000000000000000000000000000000000000815260040161170b90612bee565b60405180910390fd5b6001600760006101000a81548160ff0219169083151502179055507f62e78cea01bee320cd4e420270b5ea74000d11b0c9f74754ebdbfc544b05a25861175861110d565b60405161176591906129bb565b60405180910390a1565b60006117796108e8565b156117b9576040517f08c379a00000000000000000000000000000000000000000000000000000000081526004016117b090612bee565b60405180910390fd5b600082116117fc576040517f08c379a00000000000000000000000000000000000000000000000000000000081526004016117f390612bce565b60405180910390fd5b6000611807836108ff565b905060006064826118189190612e86565b90506000662386f26fc100008261182f9190613023565b90506000818361183f9190612f11565b90506000818561184f9190612e30565b9050611873816040518060600160405280602581526020016137bd60259139612031565b6000600760019054906101000a900473ffffffffffffffffffffffffffffffffffffffff1673ffffffffffffffffffffffffffffffffffffffff166370a082316118bb61110d565b6040518263ffffffff1660e01b81526004016118d791906129bb565b60206040518083038186803b1580156118ef57600080fd5b505afa158015611903573d6000803e3d6000fd5b505050506040513d601f19601f8201168201806040525081019061192791906125d0565b90506000600760019054906101000a900473ffffffffffffffffffffffffffffffffffffffff1673ffffffffffffffffffffffffffffffffffffffff1663dd62ed3e61197161110d565b600860009054906101000a900473ffffffffffffffffffffffffffffffffffffffff166040518363ffffffff1660e01b81526004016119b19291906129d6565b60206040518083038186803b1580156119c957600080fd5b505afa1580156119dd573d6000803e3d6000fd5b505050506040513d601f19601f82011682018060405250810190611a0191906125d0565b9050611a25816040518060600160405280602e815260200161378f602e9139612031565b81831115611a68576040517f08c379a0000000000000000000000000000000000000000000000000000000008152600401611a5f90612cae565b60405180910390fd5b80831115611aab576040517f08c379a0000000000000000000000000000000000000000000000000000000008152600401611aa290612d6e565b60405180910390fd5b674563918244f40000871015611af6576040517f08c379a0000000000000000000000000000000000000000000000000000000008152600401611aed90612d0e565b60405180910390fd5b600760019054906101000a900473ffffffffffffffffffffffffffffffffffffffff1673ffffffffffffffffffffffffffffffffffffffff166323b872dd611b3c61110d565b600960009054906101000a900473ffffffffffffffffffffffffffffffffffffffff16876040518463ffffffff1660e01b8152600401611b7e939291906129ff565b602060405180830381600087803b158015611b9857600080fd5b505af1158015611bac573d6000803e3d6000fd5b505050506040513d601f19601f82011682018060405250810190611bd0919061257e565b50600760019054906101000a900473ffffffffffffffffffffffffffffffffffffffff1673ffffffffffffffffffffffffffffffffffffffff166323b872dd611c1761110d565b600860009054906101000a900473ffffffffffffffffffffffffffffffffffffffff168a6040518463ffffffff1660e01b8152600401611c59939291906129ff565b602060405180830381600087803b158015611c7357600080fd5b505af1158015611c87573d6000803e3d6000fd5b505050506040513d601f19601f82011682018060405250810190611cab919061257e565b50611cbd611cb761110d565b8a6120d7565b7f540b5e46f5323b77eef3b40f9b1bdf436e1b79c3984d271ad7a9b1019c295a8f611ce661110d565b8a89604051611cf793929190612a5f565b60405180910390a186975050505050505050919050565b6000611d186108e8565b15611d58576040517f08c379a0000000000000000000000000000000000000000000000000000000008152600401611d4f90612bee565b60405180910390fd5b6000611d6a611d6561110d565b610961565b905060008311611daf576040517f08c379a0000000000000000000000000000000000000000000000000000000008152600401611da690612d8e565b60405180910390fd5b82811015611df2576040517f08c379a0000000000000000000000000000000000000000000000000000000008152600401611de990612bae565b60405180910390fd5b6000611dfd84610d27565b90506000606482611e0e9190612e86565b90506000662386f26fc1000082611e259190613023565b905060008183611e359190612f11565b905060008185611e459190612f11565b9050611e58611e5261110d565b89612238565b600760019054906101000a900473ffffffffffffffffffffffffffffffffffffffff1673ffffffffffffffffffffffffffffffffffffffff1663a9059cbb600960009054906101000a900473ffffffffffffffffffffffffffffffffffffffff16846040518363ffffffff1660e01b8152600401611ed7929190612a36565b602060405180830381600087803b158015611ef157600080fd5b505af1158015611f05573d6000803e3d6000fd5b505050506040513d601f19601f82011682018060405250810190611f29919061257e565b50600760019054906101000a900473ffffffffffffffffffffffffffffffffffffffff1673ffffffffffffffffffffffffffffffffffffffff1663a9059cbb611f7061110d565b836040518363ffffffff1660e01b8152600401611f8e929190612a36565b602060405180830381600087803b158015611fa857600080fd5b505af1158015611fbc573d6000803e3d6000fd5b505050506040513d601f19601f82011682018060405250810190611fe0919061257e565b507fdbba09fffb965fc22fc44dbcfae24c5fa3c095c5e59ad4934a8d71c2980eeda761200a61110d565b898760405161201b93929190612a5f565b60405180910390a1849650505050505050919050565b6120c98282604051602401612047929190612dc9565b6040516020818303038152906040527f0fa3f345000000000000000000000000000000000000000000000000000000007bffffffffffffffffffffffffffffffffffffffffffffffffffffffff19166020820180517bffffffffffffffffffffffffffffffffffffffffffffffffffffffff8381831617835250505050612411565b5050565b505050565b505050565b600073ffffffffffffffffffffffffffffffffffffffff168273ffffffffffffffffffffffffffffffffffffffff161415612147576040517f08c379a000000000000000000000000000000000000000000000000000000000815260040161213e90612d4e565b60405180910390fd5b612153600083836120cd565b80600460008282546121659190612e30565b9250508190555080600260008473ffffffffffffffffffffffffffffffffffffffff1673ffffffffffffffffffffffffffffffffffffffff16815260200190815260200160002060008282546121bb9190612e30565b925050819055508173ffffffffffffffffffffffffffffffffffffffff16600073ffffffffffffffffffffffffffffffffffffffff167fddf252ad1be2c89b69c2b068fc378daa952ba7f163c4a11628f55a4df523b3ef836040516122209190612dae565b60405180910390a3612234600083836120d2565b5050565b600073ffffffffffffffffffffffffffffffffffffffff168273ffffffffffffffffffffffffffffffffffffffff1614156122a8576040517f08c379a000000000000000000000000000000000000000000000000000000000815260040161229f90612c6e565b60405180910390fd5b6122b4826000836120cd565b6000600260008473ffffffffffffffffffffffffffffffffffffffff1673ffffffffffffffffffffffffffffffffffffffff1681526020019081526020016000205490508181101561233b576040517f08c379a000000000000000000000000000000000000000000000000000000000815260040161233290612b2e565b60405180910390fd5b818103600260008573ffffffffffffffffffffffffffffffffffffffff1673ffffffffffffffffffffffffffffffffffffffff1681526020019081526020016000208190555081600460008282546123939190612f11565b92505081905550600073ffffffffffffffffffffffffffffffffffffffff168373ffffffffffffffffffffffffffffffffffffffff167fddf252ad1be2c89b69c2b068fc378daa952ba7f163c4a11628f55a4df523b3ef846040516123f89190612dae565b60405180910390a361240c836000846120d2565b505050565b60008151905060006a636f6e736f6c652e6c6f679050602083016000808483855afa5050505050565b60008135905061244981613724565b92915050565b60008151905061245e8161373b565b92915050565b60008135905061247381613752565b92915050565b60008151905061248881613752565b92915050565b6000602082840312156124a057600080fd5b60006124ae8482850161243a565b91505092915050565b600080604083850312156124ca57600080fd5b60006124d88582860161243a565b92505060206124e98582860161243a565b9150509250929050565b60008060006060848603121561250857600080fd5b60006125168682870161243a565b93505060206125278682870161243a565b925050604061253886828701612464565b9150509250925092565b6000806040838503121561255557600080fd5b60006125638582860161243a565b925050602061257485828601612464565b9150509250929050565b60006020828403121561259057600080fd5b600061259e8482850161244f565b91505092915050565b6000602082840312156125b957600080fd5b60006125c784828501612464565b91505092915050565b6000602082840312156125e257600080fd5b60006125f084828501612479565b91505092915050565b6000806040838503121561260c57600080fd5b600061261a85828601612464565b925050602061262b85828601612464565b9150509250929050565b61263e81612f45565b82525050565b61264d81612f57565b82525050565b61265c81612f9a565b82525050565b600061266d82612e14565b6126778185612e1f565b9350612687818560208601612fbe565b612690816130e1565b840191505092915050565b60006126a8602383612e1f565b91506126b3826130f2565b604082019050919050565b60006126cb601483612e1f565b91506126d682613141565b602082019050919050565b60006126ee602283612e1f565b91506126f98261316a565b604082019050919050565b6000612711602683612e1f565b915061271c826131b9565b604082019050919050565b6000612734602283612e1f565b915061273f82613208565b604082019050919050565b6000612757602683612e1f565b915061276282613257565b604082019050919050565b600061277a604083612e1f565b9150612785826132a6565b604082019050919050565b600061279d601e83612e1f565b91506127a8826132f5565b602082019050919050565b60006127c0601083612e1f565b91506127cb8261331e565b602082019050919050565b60006127e3602c83612e1f565b91506127ee82613347565b604082019050919050565b6000612806602883612e1f565b915061281182613396565b604082019050919050565b6000612829602083612e1f565b9150612834826133e5565b602082019050919050565b600061284c602183612e1f565b91506128578261340e565b604082019050919050565b600061286f602583612e1f565b915061287a8261345d565b604082019050919050565b6000612892602e83612e1f565b915061289d826134ac565b604082019050919050565b60006128b5602483612e1f565b91506128c0826134fb565b604082019050919050565b60006128d8602683612e1f565b91506128e38261354a565b604082019050919050565b60006128fb603b83612e1f565b915061290682613599565b604082019050919050565b600061291e602583612e1f565b9150612929826135e8565b604082019050919050565b6000612941601f83612e1f565b915061294c82613637565b602082019050919050565b6000612964604783612e1f565b915061296f82613660565b606082019050919050565b6000612987602683612e1f565b9150612992826136d5565b604082019050919050565b6129a681612f83565b82525050565b6129b581612f8d565b82525050565b60006020820190506129d06000830184612635565b92915050565b60006040820190506129eb6000830185612635565b6129f86020830184612635565b9392505050565b6000606082019050612a146000830186612635565b612a216020830185612635565b612a2e604083018461299d565b949350505050565b6000604082019050612a4b6000830185612635565b612a58602083018461299d565b9392505050565b6000606082019050612a746000830186612635565b612a81602083018561299d565b612a8e604083018461299d565b949350505050565b6000602082019050612aab6000830184612644565b92915050565b6000602082019050612ac66000830184612653565b92915050565b60006020820190508181036000830152612ae68184612662565b905092915050565b60006020820190508181036000830152612b078161269b565b9050919050565b60006020820190508181036000830152612b27816126be565b9050919050565b60006020820190508181036000830152612b47816126e1565b9050919050565b60006020820190508181036000830152612b6781612704565b9050919050565b60006020820190508181036000830152612b8781612727565b9050919050565b60006020820190508181036000830152612ba78161274a565b9050919050565b60006020820190508181036000830152612bc78161276d565b9050919050565b60006020820190508181036000830152612be781612790565b9050919050565b60006020820190508181036000830152612c07816127b3565b9050919050565b60006020820190508181036000830152612c27816127d6565b9050919050565b60006020820190508181036000830152612c47816127f9565b9050919050565b60006020820190508181036000830152612c678161281c565b9050919050565b60006020820190508181036000830152612c878161283f565b9050919050565b60006020820190508181036000830152612ca781612862565b9050919050565b60006020820190508181036000830152612cc781612885565b9050919050565b60006020820190508181036000830152612ce7816128a8565b9050919050565b60006020820190508181036000830152612d07816128cb565b9050919050565b60006020820190508181036000830152612d27816128ee565b9050919050565b60006020820190508181036000830152612d4781612911565b9050919050565b60006020820190508181036000830152612d6781612934565b9050919050565b60006020820190508181036000830152612d8781612957565b9050919050565b60006020820190508181036000830152612da78161297a565b9050919050565b6000602082019050612dc3600083018461299d565b92915050565b6000604082019050612dde600083018561299d565b8181036020830152612df08184612662565b90509392505050565b6000602082019050612e0e60008301846129ac565b92915050565b600081519050919050565b600082825260208201905092915050565b6000612e3b82612f83565b9150612e4683612f83565b9250827fffffffffffffffffffffffffffffffffffffffffffffffffffffffffffffffff03821115612e7b57612e7a613054565b5b828201905092915050565b6000612e9182612f83565b9150612e9c83612f83565b925082612eac57612eab613083565b5b828204905092915050565b6000612ec282612f83565b9150612ecd83612f83565b9250817fffffffffffffffffffffffffffffffffffffffffffffffffffffffffffffffff0483118215151615612f0657612f05613054565b5b828202905092915050565b6000612f1c82612f83565b9150612f2783612f83565b925082821015612f3a57612f39613054565b5b828203905092915050565b6000612f5082612f63565b9050919050565b60008115159050919050565b600073ffffffffffffffffffffffffffffffffffffffff82169050919050565b6000819050919050565b600060ff82169050919050565b6000612fa582612fac565b9050919050565b6000612fb782612f63565b9050919050565b60005b83811015612fdc578082015181840152602081019050612fc1565b83811115612feb576000848401525b50505050565b6000600282049050600182168061300957607f821691505b6020821081141561301d5761301c6130b2565b5b50919050565b600061302e82612f83565b915061303983612f83565b92508261304957613048613083565b5b828206905092915050565b7f4e487b7100000000000000000000000000000000000000000000000000000000600052601160045260246000fd5b7f4e487b7100000000000000000000000000000000000000000000000000000000600052601260045260246000fd5b7f4e487b7100000000000000000000000000000000000000000000000000000000600052602260045260246000fd5b6000601f19601f8301169050919050565b7f45524332303a207472616e7366657220746f20746865207a65726f206164647260008201527f6573730000000000000000000000000000000000000000000000000000000000602082015250565b7f5061757361626c653a206e6f7420706175736564000000000000000000000000600082015250565b7f45524332303a206275726e20616d6f756e7420657863656564732062616c616e60008201527f6365000000000000000000000000000000000000000000000000000000000000602082015250565b7f4f776e61626c653a206e6577206f776e657220697320746865207a65726f206160008201527f6464726573730000000000000000000000000000000000000000000000000000602082015250565b7f45524332303a20617070726f766520746f20746865207a65726f20616464726560008201527f7373000000000000000000000000000000000000000000000000000000000000602082015250565b7f45524332303a207472616e7366657220616d6f756e742065786365656473206260008201527f616c616e63650000000000000000000000000000000000000000000000000000602082015250565b7f557365727320746f6b656e42616c616e6365206d75737420626520657175616c60008201527f20746f206f72206d6f7265207468616e20616d6f756e7420746f206275726e2e602082015250565b7f416d6f756e74206d757374206265206d6f7265207468616e207a65726f2e0000600082015250565b7f5061757361626c653a2070617573656400000000000000000000000000000000600082015250565b7f4f757243757276653a2053656e64696e672061726773206d757374206265206c60008201527f6172676572207468616e20300000000000000000000000000000000000000000602082015250565b7f45524332303a207472616e7366657220616d6f756e742065786365656473206160008201527f6c6c6f77616e6365000000000000000000000000000000000000000000000000602082015250565b7f4f776e61626c653a2063616c6c6572206973206e6f7420746865206f776e6572600082015250565b7f45524332303a206275726e2066726f6d20746865207a65726f2061646472657360008201527f7300000000000000000000000000000000000000000000000000000000000000602082015250565b7f45524332303a207472616e736665722066726f6d20746865207a65726f20616460008201527f6472657373000000000000000000000000000000000000000000000000000000602082015250565b7f4f544b2c205f737065636966696564416d6f756e744d696e743a204e6f74206560008201527f6e6f756768206d6f636b55534443000000000000000000000000000000000000602082015250565b7f45524332303a20617070726f76652066726f6d20746865207a65726f2061646460008201527f7265737300000000000000000000000000000000000000000000000000000000602082015250565b7f4f757243757276653a204d757374206d696e74206d6f7265207468616e20302060008201527f746f6b656e730000000000000000000000000000000000000000000000000000602082015250565b7f4f544b2c205f737065636966696564416d6f756e744d696e743a204d696e696d60008201527f756d206d696e74696e672076616c7565206f6620243520555344430000000000602082015250565b7f45524332303a2064656372656173656420616c6c6f77616e63652062656c6f7760008201527f207a65726f000000000000000000000000000000000000000000000000000000602082015250565b7f45524332303a206d696e7420746f20746865207a65726f206164647265737300600082015250565b7f4f544b2c205f737065636966696564416d6f756e744d696e743a204e6f74206560008201527f6e6f75676820616c6c6f77616e636520696e206d6f636b5553444320666f722060208201527f7061796d656e7400000000000000000000000000000000000000000000000000604082015250565b7f416d6f756e7420746f206275726e206d757374206265206d6f7265207468616e60008201527f207a65726f2e0000000000000000000000000000000000000000000000000000602082015250565b61372d81612f45565b811461373857600080fd5b50565b61374481612f57565b811461374f57600080fd5b50565b61375b81612f83565b811461376657600080fd5b5056fe205f737570706c7920696e204f432c2063616c635072696365466f72546f6b656e4d696e746d6f636b55534443416c6c6f77616e636520696e205f737065636966696564416d6f756e744d696e742c204f544b656e64507269636520696e205f737065636966696564416d6f756e744d696e742c204f544ba264697066735822122035679d25aac88f43640c8f443bd90907aa67e8d022a60cd66d14c433415139c064736f6c63430008040033",
  "linkReferences": {},
  "deployedLinkReferences": {}
}