{
  "_format": "hh-sol-artifact-1",
  "contractName": "Benjamins",
  "sourceName": "contracts/Benjamins.sol",
  "abi": [
    {
      "inputs": [],
      "stateMutability": "nonpayable",
      "type": "constructor"
    },
    {
      "anonymous": false,
      "inputs": [
        {
          "indexed": true,
          "internalType": "address",
          "name": "owner",
          "type": "address"
        },
        {
          "indexed": true,
          "internalType": "address",
          "name": "spender",
          "type": "address"
        },
        {
          "indexed": false,
          "internalType": "uint256",
          "name": "value",
          "type": "uint256"
        }
      ],
      "name": "Approval",
      "type": "event"
    },
    {
      "anonymous": false,
      "inputs": [
        {
          "indexed": false,
          "internalType": "uint256",
          "name": "amountUSDCin6dec",
          "type": "uint256"
        },
        {
          "indexed": false,
          "internalType": "address",
          "name": "payer",
          "type": "address"
        }
      ],
      "name": "LendingPoolDeposit",
      "type": "event"
    },
    {
      "anonymous": false,
      "inputs": [
        {
          "indexed": false,
          "internalType": "uint256",
          "name": "amountUSDCin6dec",
          "type": "uint256"
        },
        {
          "indexed": false,
          "internalType": "address",
          "name": "payee",
          "type": "address"
        }
      ],
      "name": "LendingPoolWithdrawal",
      "type": "event"
    },
    {
      "anonymous": false,
      "inputs": [
        {
          "indexed": true,
          "internalType": "address",
          "name": "previousOwner",
          "type": "address"
        },
        {
          "indexed": true,
          "internalType": "address",
          "name": "newOwner",
          "type": "address"
        }
      ],
      "name": "OwnershipTransferred",
      "type": "event"
    },
    {
      "anonymous": false,
      "inputs": [
        {
          "indexed": false,
          "internalType": "address",
          "name": "account",
          "type": "address"
        }
      ],
      "name": "Paused",
      "type": "event"
    },
    {
      "anonymous": false,
      "inputs": [
        {
          "indexed": true,
          "internalType": "address",
          "name": "from",
          "type": "address"
        },
        {
          "indexed": true,
          "internalType": "address",
          "name": "to",
          "type": "address"
        },
        {
          "indexed": false,
          "internalType": "uint256",
          "name": "value",
          "type": "uint256"
        }
      ],
      "name": "Transfer",
      "type": "event"
    },
    {
      "anonymous": false,
      "inputs": [
        {
          "indexed": false,
          "internalType": "address",
          "name": "account",
          "type": "address"
        }
      ],
      "name": "Unpaused",
      "type": "event"
    },
    {
      "anonymous": false,
      "inputs": [
        {
          "indexed": false,
          "internalType": "address",
          "name": "fromAddress",
          "type": "address"
        },
        {
          "indexed": false,
          "internalType": "address",
          "name": "toAddress",
          "type": "address"
        },
        {
          "indexed": false,
          "internalType": "uint256",
          "name": "inTokens",
          "type": "uint256"
        },
        {
          "indexed": false,
          "internalType": "uint256",
          "name": "inUSDC",
          "type": "uint256"
        },
        {
          "indexed": false,
          "internalType": "uint256",
          "name": "fee",
          "type": "uint256"
        }
      ],
      "name": "exchanged",
      "type": "event"
    },
    {
      "anonymous": false,
      "inputs": [
        {
          "indexed": false,
          "internalType": "address",
          "name": "account",
          "type": "address"
        }
      ],
      "name": "newDepositAccount",
      "type": "event"
    },
    {
      "anonymous": false,
      "inputs": [
        {
          "indexed": false,
          "internalType": "address",
          "name": "beneficiary",
          "type": "address"
        }
      ],
      "name": "newFeeReceiver",
      "type": "event"
    },
    {
      "anonymous": false,
      "inputs": [
        {
          "indexed": false,
          "internalType": "uint256",
          "name": "availableIn6dec",
          "type": "uint256"
        },
        {
          "indexed": false,
          "internalType": "uint256",
          "name": "amountUSDCin6dec",
          "type": "uint256"
        }
      ],
      "name": "profitTaken",
      "type": "event"
    },
    {
      "inputs": [
        {
          "internalType": "address",
          "name": "owner",
          "type": "address"
        },
        {
          "internalType": "address",
          "name": "spender",
          "type": "address"
        }
      ],
      "name": "allowance",
      "outputs": [
        {
          "internalType": "uint256",
          "name": "",
          "type": "uint256"
        }
      ],
      "stateMutability": "view",
      "type": "function"
    },
    {
      "inputs": [
        {
          "internalType": "address",
          "name": "spender",
          "type": "address"
        },
        {
          "internalType": "uint256",
          "name": "amount",
          "type": "uint256"
        }
      ],
      "name": "approve",
      "outputs": [
        {
          "internalType": "bool",
          "name": "",
          "type": "bool"
        }
      ],
      "stateMutability": "nonpayable",
      "type": "function"
    },
    {
      "inputs": [
        {
          "internalType": "address",
          "name": "account",
          "type": "address"
        }
      ],
      "name": "balanceOf",
      "outputs": [
        {
          "internalType": "uint256",
          "name": "",
          "type": "uint256"
        }
      ],
      "stateMutability": "view",
      "type": "function"
    },
    {
      "inputs": [
        {
          "internalType": "uint256",
          "name": "_amount",
          "type": "uint256"
        }
      ],
      "name": "burn",
      "outputs": [],
      "stateMutability": "nonpayable",
      "type": "function"
    },
    {
      "inputs": [
        {
          "internalType": "uint256",
          "name": "_amount",
          "type": "uint256"
        },
        {
          "internalType": "address",
          "name": "_toWhom",
          "type": "address"
        }
      ],
      "name": "burnTo",
      "outputs": [],
      "stateMutability": "nonpayable",
      "type": "function"
    },
    {
      "inputs": [],
      "name": "decimals",
      "outputs": [
        {
          "internalType": "uint8",
          "name": "",
          "type": "uint8"
        }
      ],
      "stateMutability": "view",
      "type": "function"
    },
    {
      "inputs": [
        {
          "internalType": "address",
          "name": "spender",
          "type": "address"
        },
        {
          "internalType": "uint256",
          "name": "subtractedValue",
          "type": "uint256"
        }
      ],
      "name": "decreaseAllowance",
      "outputs": [
        {
          "internalType": "bool",
          "name": "",
          "type": "bool"
        }
      ],
      "stateMutability": "nonpayable",
      "type": "function"
    },
    {
      "inputs": [
        {
          "internalType": "address",
          "name": "_whom",
          "type": "address"
        }
      ],
      "name": "discountLevel",
      "outputs": [
        {
          "internalType": "uint8",
          "name": "",
          "type": "uint8"
        }
      ],
      "stateMutability": "view",
      "type": "function"
    },
    {
      "inputs": [
        {
          "internalType": "address",
          "name": "spender",
          "type": "address"
        },
        {
          "internalType": "uint256",
          "name": "addedValue",
          "type": "uint256"
        }
      ],
      "name": "increaseAllowance",
      "outputs": [
        {
          "internalType": "bool",
          "name": "",
          "type": "bool"
        }
      ],
      "stateMutability": "nonpayable",
      "type": "function"
    },
    {
      "inputs": [
        {
          "internalType": "uint256",
          "name": "_amount",
          "type": "uint256"
        }
      ],
      "name": "mint",
      "outputs": [],
      "stateMutability": "nonpayable",
      "type": "function"
    },
    {
      "inputs": [
        {
          "internalType": "uint256",
          "name": "_amount",
          "type": "uint256"
        },
        {
          "internalType": "address",
          "name": "_toWhom",
          "type": "address"
        }
      ],
      "name": "mintTo",
      "outputs": [],
      "stateMutability": "nonpayable",
      "type": "function"
    },
    {
      "inputs": [],
      "name": "name",
      "outputs": [
        {
          "internalType": "string",
          "name": "",
          "type": "string"
        }
      ],
      "stateMutability": "view",
      "type": "function"
    },
    {
      "inputs": [],
      "name": "owner",
      "outputs": [
        {
          "internalType": "address",
          "name": "",
          "type": "address"
        }
      ],
      "stateMutability": "view",
      "type": "function"
    },
    {
      "inputs": [],
      "name": "pause",
      "outputs": [],
      "stateMutability": "nonpayable",
      "type": "function"
    },
    {
      "inputs": [],
      "name": "paused",
      "outputs": [
        {
          "internalType": "bool",
          "name": "",
          "type": "bool"
        }
      ],
      "stateMutability": "view",
      "type": "function"
    },
    {
      "inputs": [],
      "name": "polygonAMUSDC",
      "outputs": [
        {
          "internalType": "contract IERC20",
          "name": "",
          "type": "address"
        }
      ],
      "stateMutability": "view",
      "type": "function"
    },
    {
      "inputs": [],
      "name": "polygonLendingPool",
      "outputs": [
        {
          "internalType": "contract ILendingPool",
          "name": "",
          "type": "address"
        }
      ],
      "stateMutability": "view",
      "type": "function"
    },
    {
      "inputs": [],
      "name": "polygonUSDC",
      "outputs": [
        {
          "internalType": "contract IERC20",
          "name": "",
          "type": "address"
        }
      ],
      "stateMutability": "view",
      "type": "function"
    },
    {
      "inputs": [
        {
          "internalType": "address",
          "name": "forWhom",
          "type": "address"
        }
      ],
      "name": "quoteFeePercentage",
      "outputs": [
        {
          "internalType": "uint16",
          "name": "",
          "type": "uint16"
        }
      ],
      "stateMutability": "view",
      "type": "function"
    },
    {
      "inputs": [
        {
          "internalType": "uint256",
          "name": "_amount",
          "type": "uint256"
        }
      ],
      "name": "quoteUSDC",
      "outputs": [
        {
          "internalType": "uint256",
          "name": "",
          "type": "uint256"
        }
      ],
      "stateMutability": "view",
      "type": "function"
    },
    {
      "inputs": [],
      "name": "renounceOwnership",
      "outputs": [],
      "stateMutability": "nonpayable",
      "type": "function"
    },
    {
      "inputs": [
        {
          "internalType": "address",
          "name": "ERC20ContractAddress",
          "type": "address"
        }
      ],
      "name": "scavengeERC20Tip",
      "outputs": [],
      "stateMutability": "nonpayable",
      "type": "function"
    },
    {
      "inputs": [
        {
          "internalType": "address",
          "name": "beneficiary",
          "type": "address"
        }
      ],
      "name": "setFeeReceiver",
      "outputs": [],
      "stateMutability": "nonpayable",
      "type": "function"
    },
    {
      "inputs": [],
      "name": "symbol",
      "outputs": [
        {
          "internalType": "string",
          "name": "",
          "type": "string"
        }
      ],
      "stateMutability": "view",
      "type": "function"
    },
    {
      "inputs": [],
      "name": "totalSupply",
      "outputs": [
        {
          "internalType": "uint256",
          "name": "",
          "type": "uint256"
        }
      ],
      "stateMutability": "view",
      "type": "function"
    },
    {
      "inputs": [
        {
          "internalType": "address",
          "name": "recipiant",
          "type": "address"
        },
        {
          "internalType": "uint256",
          "name": "amount",
          "type": "uint256"
        }
      ],
      "name": "transfer",
      "outputs": [
        {
          "internalType": "bool",
          "name": "",
          "type": "bool"
        }
      ],
      "stateMutability": "nonpayable",
      "type": "function"
    },
    {
      "inputs": [
        {
          "internalType": "address",
          "name": "sender",
          "type": "address"
        },
        {
          "internalType": "address",
          "name": "recipiant",
          "type": "address"
        },
        {
          "internalType": "uint256",
          "name": "amount",
          "type": "uint256"
        }
      ],
      "name": "transferFrom",
      "outputs": [
        {
          "internalType": "bool",
          "name": "",
          "type": "bool"
        }
      ],
      "stateMutability": "nonpayable",
      "type": "function"
    },
    {
      "inputs": [
        {
          "internalType": "address",
          "name": "newOwner",
          "type": "address"
        }
      ],
      "name": "transferOwnership",
      "outputs": [],
      "stateMutability": "nonpayable",
      "type": "function"
    },
    {
      "inputs": [],
      "name": "unpause",
      "outputs": [],
      "stateMutability": "nonpayable",
      "type": "function"
    },
    {
      "inputs": [
        {
          "internalType": "uint256",
          "name": "amountToApprove",
          "type": "uint256"
        }
      ],
      "name": "updateApproveLendingPool",
      "outputs": [],
      "stateMutability": "nonpayable",
      "type": "function"
    },
    {
      "inputs": [
        {
          "internalType": "uint256",
          "name": "newAmountOfBlocksPerDay",
          "type": "uint256"
        }
      ],
      "name": "updateBlocksPerDay",
      "outputs": [],
      "stateMutability": "nonpayable",
      "type": "function"
    },
    {
      "inputs": [
        {
          "internalType": "uint32[]",
          "name": "newLevelAntes",
          "type": "uint32[]"
        }
      ],
      "name": "updateLevelAntes",
      "outputs": [],
      "stateMutability": "nonpayable",
      "type": "function"
    },
    {
      "inputs": [
        {
          "internalType": "uint8[]",
          "name": "newLevelDiscounts",
          "type": "uint8[]"
        }
      ],
      "name": "updateLevelDiscounts",
      "outputs": [],
      "stateMutability": "nonpayable",
      "type": "function"
    },
    {
      "inputs": [
        {
          "internalType": "uint16[]",
          "name": "newLevelHolds",
          "type": "uint16[]"
        }
      ],
      "name": "updateLevelHolds",
      "outputs": [],
      "stateMutability": "nonpayable",
      "type": "function"
    },
    {
      "inputs": [
        {
          "internalType": "address",
          "name": "newAddress",
          "type": "address"
        }
      ],
      "name": "updatePolygonAMUSDC",
      "outputs": [],
      "stateMutability": "nonpayable",
      "type": "function"
    },
    {
      "inputs": [
        {
          "internalType": "address",
          "name": "newAddress",
          "type": "address"
        }
      ],
      "name": "updatePolygonLendingPool",
      "outputs": [],
      "stateMutability": "nonpayable",
      "type": "function"
    },
    {
      "inputs": [
        {
          "internalType": "address",
          "name": "newAddress",
          "type": "address"
        }
      ],
      "name": "updatePolygonUSDC",
      "outputs": [],
      "stateMutability": "nonpayable",
      "type": "function"
    },
    {
      "inputs": [
        {
          "internalType": "uint256",
          "name": "_amountIn6dec",
          "type": "uint256"
        }
      ],
      "name": "withdrawGains",
      "outputs": [],
      "stateMutability": "nonpayable",
      "type": "function"
    },
    {
      "stateMutability": "payable",
      "type": "receive"
    }
  ],
  "bytecode": "0x6080604052620f4240600d556013805460ff19908116600a1790915560026014819055620c3500601555601680549092161790553480156200004057600080fd5b506040518060400160405280600981526020016842656e6a616d696e7360b81b81525060405180604001604052806004815260200163424e4a4960e01b8152506000620000926200028860201b60201c565b600080546001600160a01b0319166001600160a01b0383169081178255604051929350917f8be0079c531659141344cd1fd0a4f28419497f9722a3daafe3b4186f6b6457e0908290a3508151620000f19060049060208501906200037a565b508051620001079060059060208401906200037a565b50506006805460ff1990811682556001600755600e805490911690556000600b819055600c80546001600160a01b031990811673e51c8401fe1e70f78bbd3ac660692597d33dbaff17909155600980548216732791bca1f2de4661ed88a30c99a7a9449aa84174179055600a80548216731a13f4ca1d028320a707d99520abfefca3998b7f17905560088054909116738dff5e27ea6b7ac08ebfdf9eb090f32ee9a30fcf1790556040805160c08101825291825260146020830152603c90820152606460608201526101f460808201526107d060a0820152620001ee925060109162000409565b506040805160c0810182526000815260026020820152600791810191909152601e6060820152605a608082015261016860a082015262000233906011906006620004ba565b506040805160c0810182526000815260056020820152600a918101919091526014606082015260286080820152604b60a08201526200027790601290600662000556565b50620002826200028c565b620006b6565b3390565b6200029662000288565b6001600160a01b0316620002a9620002e7565b6001600160a01b031614620002db5760405162461bcd60e51b8152600401620002d29062000644565b60405180910390fd5b620002e5620002f6565b565b6000546001600160a01b031690565b6200030062000371565b15620003205760405162461bcd60e51b8152600401620002d2906200061a565b6006805460ff191660011790557f62e78cea01bee320cd4e420270b5ea74000d11b0c9f74754ebdbfc544b05a2586200035862000288565b60405162000367919062000606565b60405180910390a1565b60065460ff1690565b828054620003889062000679565b90600052602060002090601f016020900481019282620003ac5760008555620003f7565b82601f10620003c757805160ff1916838001178555620003f7565b82800160010185558215620003f7579182015b82811115620003f7578251825591602001919060010190620003da565b5062000405929150620005ef565b5090565b82805482825590600052602060002090600701600890048101928215620003f75791602002820160005b838211156200047957835183826101000a81548163ffffffff021916908363ffffffff160217905550926020019260040160208160030104928301926001030262000433565b8015620004ab5782816101000a81549063ffffffff021916905560040160208160030104928301926001030262000479565b505062000405929150620005ef565b82805482825590600052602060002090600f01601090048101928215620003f75791602002820160005b838211156200052657835183826101000a81548161ffff021916908361ffff1602179055509260200192600201602081600101049283019260010302620004e4565b8015620004ab5782816101000a81549061ffff021916905560020160208160010104928301926001030262000526565b82805482825590600052602060002090601f01602090048101928215620003f75791602002820160005b83821115620005c057835183826101000a81548160ff021916908360ff160217905550926020019260010160208160000104928301926001030262000580565b8015620004ab5782816101000a81549060ff0219169055600101602081600001049283019260010302620005c0565b5b80821115620004055760008155600101620005f0565b6001600160a01b0391909116815260200190565b60208082526010908201526f14185d5cd8589b194e881c185d5cd95960821b604082015260600190565b6020808252818101527f4f776e61626c653a2063616c6c6572206973206e6f7420746865206f776e6572604082015260600190565b6002810460018216806200068e57607f821691505b60208210811415620006b057634e487b7160e01b600052602260045260246000fd5b50919050565b6133d880620006c66000396000f3fe6080604052600436106102295760003560e01c8063715018a611610123578063b3faaf93116100ab578063d948e1041161006f578063d948e10414610628578063dd62ed3e1461063d578063ea89120b1461065d578063efdcd9741461068a578063f2fde38b146106aa57610230565b8063b3faaf9314610588578063b723b34e146105a8578063c0100143146105c8578063c6a5d5da146105e8578063cd0d95e21461060857610230565b806395d89b41116100f257806395d89b41146104f357806397b9294214610508578063a0712d6814610528578063a457c2d714610548578063a9059cbb1461056857610230565b8063715018a61461049f5780638456cb59146104b45780638da5cb5b146104c95780638fb33017146104de57610230565b8063313ce567116101b157806355ab59501161017557806355ab595014610408578063571ff20d146104285780635c975abb146104485780636c7529741461045d57806370a082311461047f57610230565b8063313ce5671461037e57806339509351146103935780633f4ba83a146103b357806342966c68146103c857806347f220ae146103e857610230565b806316087315116101f857806316087315146102e757806318160ddd14610309578063185cf4b51461031e57806323b872dd1461033e578063257a00501461035e57610230565b806306ec73c81461023557806306fdde031461026b578063093f59501461028d578063095ea7b3146102ba57610230565b3661023057005b600080fd5b34801561024157600080fd5b50610255610250366004612a70565b6106ca565b604051610262919061313d565b60405180910390f35b34801561027757600080fd5b5061028061075d565b6040516102629190612c04565b34801561029957600080fd5b506102ad6102a83660046127d5565b6107ef565b604051610262919061316b565b3480156102c657600080fd5b506102da6102d536600461285c565b610991565b6040516102629190612bf9565b3480156102f357600080fd5b506103076103023660046127d5565b6109ae565b005b34801561031557600080fd5b50610255610a18565b34801561032a57600080fd5b50610307610339366004612a70565b610a1e565b34801561034a57600080fd5b506102da610359366004612821565b610bd3565b34801561036a57600080fd5b506103076103793660046127d5565b610d60565b34801561038a57600080fd5b506102ad611029565b34801561039f57600080fd5b506102da6103ae36600461285c565b611032565b3480156103bf57600080fd5b50610307611081565b3480156103d457600080fd5b506103076103e3366004612a70565b6110ca565b3480156103f457600080fd5b50610307610403366004612885565b6110d7565b34801561041457600080fd5b506103076104233660046127d5565b61112d565b34801561043457600080fd5b50610307610443366004612aa0565b61127d565b34801561045457600080fd5b506102da6113dc565b34801561046957600080fd5b506104726113e5565b6040516102629190612b0d565b34801561048b57600080fd5b5061025561049a3660046127d5565b6113f4565b3480156104ab57600080fd5b5061030761140f565b3480156104c057600080fd5b50610307611498565b3480156104d557600080fd5b506104726114df565b3480156104ea57600080fd5b506104726114ee565b3480156104ff57600080fd5b506102806114fd565b34801561051457600080fd5b506103076105233660046129be565b61150c565b34801561053457600080fd5b50610307610543366004612a70565b61155e565b34801561055457600080fd5b506102da61056336600461285c565b611568565b34801561057457600080fd5b506102da61058336600461285c565b6115e3565b34801561059457600080fd5b506103076105a3366004612929565b6115f7565b3480156105b457600080fd5b506103076105c3366004612aa0565b611649565b3480156105d457600080fd5b506103076105e33660046127d5565b6116d3565b3480156105f457600080fd5b50610307610603366004612a70565b611734565b34801561061457600080fd5b50610307610623366004612a70565b611778565b34801561063457600080fd5b5061047261183f565b34801561064957600080fd5b506102556106583660046127ef565b61184e565b34801561066957600080fd5b5061067d6106783660046127d5565b611879565b604051610262919061312e565b34801561069657600080fd5b506103076106a53660046127d5565b611945565b3480156106b657600080fd5b506103076106c53660046127d5565b6119da565b6000806106d5610a18565b905060006106e38280613242565b905060006106f185846131c7565b905060006106ff8280613242565b9050600061070d848361328a565b90506000600d548261071f9190613242565b90506000601554826107319190613204565b905060006107416127108361331f565b905061074d818361328a565b985050505050505050505b919050565b60606004805461076c906132c4565b80601f0160208091040260200160405190810160405280929190818152602001828054610798906132c4565b80156107e55780601f106107ba576101008083540402835291602001916107e5565b820191906000526020600020905b8154815290600101906020018083116107c857829003601f168201915b5050505050905090565b6000806107fb836113f4565b905061082b6040518060400160405280600c81526020016b3ab9b2b92130b630b731b29d60a11b81525082611a9a565b6040805180820190915260128152713632bb32b620b73a32b9973632b733ba341d60711b60208201526010546108619190611a9a565b60005b60105460ff82161080156108c9575060106108808260016131df565b60ff16815481106108a157634e487b7160e01b600052603260045260246000fd5b6000918252602090912060088204015460079091166004026101000a900463ffffffff168210155b1561094f576109106040518060400160405280601981526020017f63757272656e744c6576656c20696e73696465206c6f6f703a000000000000008152508260ff16611a9a565b60105461091f9060029061328a565b8160ff16141561093d576109348160016131df565b92505050610758565b80610947816132ff565b915050610864565b61098a6040518060400160405280601681526020017531bab93932b73a2632bb32b6103932ba3ab93732b21d60511b8152508260ff16611a9a565b9392505050565b60006109a561099e611adf565b8484611ae3565b50600192915050565b6109b6611adf565b6001600160a01b03166109c76114df565b6001600160a01b0316146109f65760405162461bcd60e51b81526004016109ed90612f4f565b60405180910390fd5b600980546001600160a01b0319166001600160a01b0392909216919091179055565b60035490565b610a26611adf565b6001600160a01b0316610a376114df565b6001600160a01b031614610a5d5760405162461bcd60e51b81526004016109ed90612f4f565b600b54600a546040516370a0823160e01b8152600092916001600160a01b0316906370a0823190610a92903090600401612b0d565b60206040518083038186803b158015610aaa57600080fd5b505afa158015610abe573d6000803e3d6000fd5b505050506040513d601f19601f82011682018060405250810190610ae29190612a88565b610aec919061328a565b9050818111610b0d5760405162461bcd60e51b81526004016109ed90613101565b600a54600c5460405163a9059cbb60e01b81526001600160a01b039283169263a9059cbb92610b43929116908690600401612b90565b602060405180830381600087803b158015610b5d57600080fd5b505af1158015610b71573d6000803e3d6000fd5b505050506040513d601f19601f82011682018060405250810190610b959190612a50565b507f8b9c4e1b9c860b263c59ac36417dfb6be15a01919b159407b1971058eee1e0298183604051610bc792919061315d565b60405180910390a15050565b600060026007541415610bf85760405162461bcd60e51b81526004016109ed9061304e565b6002600755336000908152600f602052604081205485914391610c1b908361328a565b60135490915060ff168111610c425760405162461bcd60e51b81526004016109ed90612e2e565b6011610c4d336107ef565b60ff1681548110610c6e57634e487b7160e01b600052603260045260246000fd5b90600052602060002090601091828204019190066002029054906101000a900461ffff1661ffff16601454610ca39190613242565b8111610cc15760405162461bcd60e51b81526004016109ed90612d16565b6000610ccc876107ef565b9050610cd9888888611b97565b6000610ce789610658611adf565b905086811015610d095760405162461bcd60e51b81526004016109ed90612f07565b610d2489610d15611adf565b610d1f8a8561328a565b611ae3565b6000610d2f896107ef565b90508260ff168160ff161115610d4a57610d4889611cbf565b505b6001965050505050506001600755509392505050565b610d68611adf565b6001600160a01b0316610d796114df565b6001600160a01b031614610d9f5760405162461bcd60e51b81526004016109ed90612f4f565b600854600954604051631a4ca37b60e21b81526001600160a01b03928316926369328dec92610dd992911690600019903090600401612ba9565b602060405180830381600087803b158015610df357600080fd5b505af1158015610e07573d6000803e3d6000fd5b505050506040513d601f19601f82011682018060405250810190610e2b9190612a88565b50600880546001600160a01b0319166001600160a01b0383161790556040517f33481e616168e187acdc90fda3d0269454b31c195cc00e4db474ca44f8d43ae890610e77908390612b0d565b60405180910390a16009546040516370a0823160e01b81526000916001600160a01b0316906370a0823190610eb0903090600401612b0d565b60206040518083038186803b158015610ec857600080fd5b505afa158015610edc573d6000803e3d6000fd5b505050506040513d601f19601f82011682018060405250810190610f009190612a88565b60095460085460405163095ea7b360e01b81529293506001600160a01b039182169263095ea7b392610f389216908590600401612b90565b602060405180830381600087803b158015610f5257600080fd5b505af1158015610f66573d6000803e3d6000fd5b505050506040513d601f19601f82011682018060405250810190610f8a9190612a50565b5060085460095460405163e8eda9df60e01b81526001600160a01b039283169263e8eda9df92610fc69291169085903090600090600401612bcc565b600060405180830381600087803b158015610fe057600080fd5b505af1158015610ff4573d6000803e3d6000fd5b505050507f96a06dd751c9aee3cbe69bcfe31505e68da315871c459fd3467debfd76a901e98130604051610bc7929190613146565b600e5460ff1690565b60006109a561103f611adf565b84846002600061104d611adf565b6001600160a01b03908116825260208083019390935260409182016000908120918b1681529252902054610d1f91906131c7565b611089611adf565b6001600160a01b031661109a6114df565b6001600160a01b0316146110c05760405162461bcd60e51b81526004016109ed90612f4f565b6110c8611d78565b565b6110d4813361127d565b50565b6110df611adf565b6001600160a01b03166110f06114df565b6001600160a01b0316146111165760405162461bcd60e51b81526004016109ed90612f4f565b80516111299060119060208401906125cf565b5050565b611135611adf565b6001600160a01b03166111466114df565b6001600160a01b03161461116c5760405162461bcd60e51b81526004016109ed90612f4f565b6040516370a0823160e01b815281906000906001600160a01b038316906370a082319061119d903090600401612b0d565b60206040518083038186803b1580156111b557600080fd5b505afa1580156111c9573d6000803e3d6000fd5b505050506040513d601f19601f820116820180604052508101906111ed9190612a88565b600c546040516323b872dd60e01b81529192506001600160a01b03808516926323b872dd926112259230929116908690600401612b3b565b602060405180830381600087803b15801561123f57600080fd5b505af1158015611253573d6000803e3d6000fd5b505050506040513d601f19601f820116820180604052508101906112779190612a50565b50505050565b6112856113dc565b15806112a957506112946114df565b6001600160a01b0316336001600160a01b0316145b6112c55760405162461bcd60e51b81526004016109ed90612ed9565b81806112d0336113f4565b10156112ee5760405162461bcd60e51b81526004016109ed90612e78565b826112f8816106ca565b600b54101561130657600080fd5b336000818152600f6020526040812054439190611323908361328a565b60135490915060ff16811161134a5760405162461bcd60e51b81526004016109ed90612e2e565b6011611355336107ef565b60ff168154811061137657634e487b7160e01b600052603260045260246000fd5b90600052602060002090601091828204019190066002029054906101000a900461ffff1661ffff166014546113ab9190613242565b81116113c95760405162461bcd60e51b81526004016109ed90612d16565b6113d38688611de6565b50505050505050565b60065460ff1690565b6009546001600160a01b031681565b6001600160a01b031660009081526001602052604090205490565b611417611adf565b6001600160a01b03166114286114df565b6001600160a01b03161461144e5760405162461bcd60e51b81526004016109ed90612f4f565b600080546040516001600160a01b03909116907f8be0079c531659141344cd1fd0a4f28419497f9722a3daafe3b4186f6b6457e0908390a3600080546001600160a01b0319169055565b6114a0611adf565b6001600160a01b03166114b16114df565b6001600160a01b0316146114d75760405162461bcd60e51b81526004016109ed90612f4f565b6110c8611fac565b6000546001600160a01b031690565b600a546001600160a01b031681565b60606005805461076c906132c4565b611514611adf565b6001600160a01b03166115256114df565b6001600160a01b03161461154b5760405162461bcd60e51b81526004016109ed90612f4f565b8051611129906012906020840190612678565b6110d48133611649565b60008060026000611577611adf565b6001600160a01b03908116825260208083019390935260409182016000908120918816815292529020549050828110156115c35760405162461bcd60e51b81526004016109ed90613085565b6115d96115ce611adf565b85610d1f868561328a565b5060019392505050565b600061098a6115f0611adf565b8484610bd3565b6115ff611adf565b6001600160a01b03166116106114df565b6001600160a01b0316146116365760405162461bcd60e51b81526004016109ed90612f4f565b805161112990601090602084019061270c565b6116516113dc565b158061167557506116606114df565b6001600160a01b0316336001600160a01b0316145b6116915760405162461bcd60e51b81526004016109ed90612ed9565b600061169c826107ef565b90506116a88284611de6565b60006116b3836107ef565b90508160ff168160ff161115611277576116cc83611cbf565b5050505050565b6116db611adf565b6001600160a01b03166116ec6114df565b6001600160a01b0316146117125760405162461bcd60e51b81526004016109ed90612f4f565b600a80546001600160a01b0319166001600160a01b0392909216919091179055565b61173c611adf565b6001600160a01b031661174d6114df565b6001600160a01b0316146117735760405162461bcd60e51b81526004016109ed90612f4f565b601455565b611780611adf565b6001600160a01b03166117916114df565b6001600160a01b0316146117b75760405162461bcd60e51b81526004016109ed90612f4f565b60095460085460405163095ea7b360e01b81526001600160a01b039283169263095ea7b3926117ed929116908590600401612b90565b602060405180830381600087803b15801561180757600080fd5b505af115801561181b573d6000803e3d6000fd5b505050506040513d601f19601f820116820180604052508101906111299190612a50565b6008546001600160a01b031681565b6001600160a01b03918216600090815260026020908152604080832093909416825291909152205490565b60006118c56040518060400160405280601781526020017f646973636f756e744c6576656c28666f7257686f6d293a0000000000000000008152506118bd846107ef565b60ff16611a9a565b60126118d0836107ef565b60ff16815481106118f157634e487b7160e01b600052603260045260246000fd5b90600052602060002090602091828204019190069054906101000a900460ff16606461191d91906132a1565b60165460ff9182169161193291166064613261565b60ff1661193f9190613218565b92915050565b61194d611adf565b6001600160a01b031661195e6114df565b6001600160a01b0316146119845760405162461bcd60e51b81526004016109ed90612f4f565b600c80546001600160a01b0319166001600160a01b0383161790556040517fa574362825e0eb8232ebe212b029c5b3a30ca54219bc287f49181e95bbb86089906119cf908390612b0d565b60405180910390a150565b6119e2611adf565b6001600160a01b03166119f36114df565b6001600160a01b031614611a195760405162461bcd60e51b81526004016109ed90612f4f565b6001600160a01b038116611a3f5760405162461bcd60e51b81526004016109ed90612d60565b600080546040516001600160a01b03808516939216917f8be0079c531659141344cd1fd0a4f28419497f9722a3daafe3b4186f6b6457e091a3600080546001600160a01b0319166001600160a01b0392909216919091179055565b6111298282604051602401611ab0929190612c41565b60408051601f198184030181529190526020810180516001600160e01b03166309710a9d60e41b179052612007565b3390565b6001600160a01b038316611b095760405162461bcd60e51b81526004016109ed9061300a565b6001600160a01b038216611b2f5760405162461bcd60e51b81526004016109ed90612da6565b6001600160a01b0380841660008181526002602090815260408083209487168084529490915290819020849055517f8c5be1e5ebec7d5bd14f71427d1e84f3dd0314c0f7b2291e5b200ac8c7c3b92590611b8a90859061313d565b60405180910390a3505050565b6001600160a01b038316611bbd5760405162461bcd60e51b81526004016109ed90612fc5565b6001600160a01b038216611be35760405162461bcd60e51b81526004016109ed90612c63565b611bee838383612028565b6001600160a01b03831660009081526001602052604090205481811015611c275760405162461bcd60e51b81526004016109ed90612de8565b611c31828261328a565b6001600160a01b038086166000908152600160205260408082209390935590851681529081208054849290611c679084906131c7565b92505081905550826001600160a01b0316846001600160a01b03167fddf252ad1be2c89b69c2b068fc378daa952ba7f163c4a11628f55a4df523b3ef84604051611cb1919061313d565b60405180910390a350505050565b6001600160a01b0381166000908152600f602052604081205443908290611ce6908361328a565b9050600060116001611cf7876107ef565b611d0191906132a1565b60ff1681548110611d2257634e487b7160e01b600052603260045260246000fd5b60009182526020909120601082040154611d4c91600f166002026101000a900461ffff168361328a565b90508015611d70576001600160a01b0385166000908152600f602052604090208390555b505050919050565b611d806113dc565b611d9c5760405162461bcd60e51b81526004016109ed90612ca6565b6006805460ff191690557f5db9ee0a495bf2e6ff9c91a7834c1ba4fdd244a5e8aa4e537bd38aeae4b073aa611dcf611adf565b604051611ddc9190612b0d565b60405180910390a1565b60026007541415611e095760405162461bcd60e51b81526004016109ed9061304e565b60026007556000611e19826106ca565b9050611e5360405180604001604052806016815260200175383934b731b4b83632a4b72aa9a221b4b71b3232b19d60511b81525082611a9a565b6000620f4240611e6233611879565b611e709061ffff1684613242565b611e7a9190613204565b90506000611e8a6127108361331f565b611e94908361328a565b9050611ecd604051806040016040528060158152602001743332b2a937bab73232b22237bbb724b71b3232b19d60591b81525082611a9a565b6000611ed982856131c7565b9050611f136040518060400160405280601681526020017532b73220b6b7bab73a24b72aa9a221b4b71b3232b19d60511b81525082611a9a565b8415611f3357611f2433878361202d565b611f2e86866123e4565b611f48565b611f3d33866124a4565b611f4833878661202d565b83600b6000828254611f5a91906131c7565b90915550506040517faa1840ad2b124c68a39cd301fc5f80ad593b05a52c5344a787f2762ace6dea3490611f979033908990899086908990612b5f565b60405180910390a15050600160075550505050565b611fb46113dc565b15611fd15760405162461bcd60e51b81526004016109ed90612eaf565b6006805460ff191660011790557f62e78cea01bee320cd4e420270b5ea74000d11b0c9f74754ebdbfc544b05a258611dcf611adf565b80516a636f6e736f6c652e6c6f67602083016000808483855afa5050505050565b505050565b80156122ee5761205c604051806040016040528060078152602001662fb830bcb2b91d60c91b8152508461258a565b612090604051806040016040528060128152602001712fb0b6b7bab73a2aa9a221b4b71b3232b19d60711b81525082611a9a565b6121336040518060600160405280602d8152602001613376602d9139600954604051636eb1769f60e11b81526001600160a01b039091169063dd62ed3e906120de9088903090600401612b21565b60206040518083038186803b1580156120f657600080fd5b505afa15801561210a573d6000803e3d6000fd5b505050506040513d601f19601f8201168201806040525081019061212e9190612a88565b611a9a565b6009546040516323b872dd60e01b81526001600160a01b03909116906323b872dd9061216790869030908690600401612b3b565b602060405180830381600087803b15801561218157600080fd5b505af1158015612195573d6000803e3d6000fd5b505050506040513d601f19601f820116820180604052508101906121b99190612a50565b5060095460085460405163095ea7b360e01b81526001600160a01b039283169263095ea7b3926121f0929116908590600401612b90565b602060405180830381600087803b15801561220a57600080fd5b505af115801561221e573d6000803e3d6000fd5b505050506040513d601f19601f820116820180604052508101906122429190612a50565b5060085460095460405163e8eda9df60e01b81526001600160a01b039283169263e8eda9df9261227e9291169085903090600090600401612bcc565b600060405180830381600087803b15801561229857600080fd5b505af11580156122ac573d6000803e3d6000fd5b505050507f96a06dd751c9aee3cbe69bcfe31505e68da315871c459fd3467debfd76a901e981846040516122e1929190613146565b60405180910390a1612028565b600854600954604051631a4ca37b60e21b81526001600160a01b03928316926369328dec926123269291169085903090600401612ba9565b602060405180830381600087803b15801561234057600080fd5b505af1158015612354573d6000803e3d6000fd5b505050506040513d601f19601f820116820180604052508101906123789190612a88565b507fa605ade827572a0d40ee9676d8a1bcdf38fdd902413c655c283bbbba576867ba81836040516123aa929190613146565b60405180910390a160095460405163a9059cbb60e01b81526001600160a01b039091169063a9059cbb906112259085908590600401612b90565b6001600160a01b03821661240a5760405162461bcd60e51b81526004016109ed906130ca565b61241660008383612028565b806003600082825461242891906131c7565b90915550506001600160a01b038216600090815260016020526040812080548392906124559084906131c7565b90915550506040516001600160a01b038316906000907fddf252ad1be2c89b69c2b068fc378daa952ba7f163c4a11628f55a4df523b3ef9061249890859061313d565b60405180910390a35050565b6001600160a01b0382166124ca5760405162461bcd60e51b81526004016109ed90612f84565b6124d682600083612028565b6001600160a01b0382166000908152600160205260409020548181101561250f5760405162461bcd60e51b81526004016109ed90612cd4565b612519828261328a565b6001600160a01b0384166000908152600160205260408120919091556003805484929061254790849061328a565b90915550506040516000906001600160a01b038516907fddf252ad1be2c89b69c2b068fc378daa952ba7f163c4a11628f55a4df523b3ef90611b8a90869061313d565b61112982826040516024016125a0929190612c17565b60408051601f198184030181529190526020810180516001600160e01b031663319af33360e01b179052612007565b82805482825590600052602060002090600f016010900481019282156126685791602002820160005b8382111561263857835183826101000a81548161ffff021916908361ffff16021790555092602001926002016020816001010492830192600103026125f8565b80156126665782816101000a81549061ffff0219169055600201602081600101049283019260010302612638565b505b506126749291506127a9565b5090565b82805482825590600052602060002090601f016020900481019282156126685791602002820160005b838211156126df57835183826101000a81548160ff021916908360ff16021790555092602001926001016020816000010492830192600103026126a1565b80156126665782816101000a81549060ff02191690556001016020816000010492830192600103026126df565b828054828255906000526020600020906007016008900481019282156126685791602002820160005b8382111561277957835183826101000a81548163ffffffff021916908363ffffffff1602179055509260200192600401602081600301049283019260010302612735565b80156126665782816101000a81549063ffffffff0219169055600401602081600301049283019260010302612779565b5b8082111561267457600081556001016127aa565b80356001600160a01b038116811461075857600080fd5b6000602082840312156127e6578081fd5b61098a826127be565b60008060408385031215612801578081fd5b61280a836127be565b9150612818602084016127be565b90509250929050565b600080600060608486031215612835578081fd5b61283e846127be565b925061284c602085016127be565b9150604084013590509250925092565b6000806040838503121561286e578182fd5b612877836127be565b946020939093013593505050565b60006020808385031215612897578182fd5b823567ffffffffffffffff8111156128ad578283fd5b8301601f810185136128bd578283fd5b80356128d06128cb826131a3565b613179565b81815283810190838501858402850186018910156128ec578687fd5b8694505b8385101561291d57803561ffff81168114612909578788fd5b8352600194909401939185019185016128f0565b50979650505050505050565b6000602080838503121561293b578182fd5b823567ffffffffffffffff811115612951578283fd5b8301601f81018513612961578283fd5b803561296f6128cb826131a3565b818152838101908385018584028501860189101561298b578687fd5b8694505b8385101561291d57803563ffffffff811681146129aa578788fd5b83526001949094019391850191850161298f565b600060208083850312156129d0578182fd5b823567ffffffffffffffff8111156129e6578283fd5b8301601f810185136129f6578283fd5b8035612a046128cb826131a3565b8181528381019083850185840285018601891015612a20578687fd5b8694505b8385101561291d57803560ff81168114612a3c578788fd5b835260019490940193918501918501612a24565b600060208284031215612a61578081fd5b8151801515811461098a578182fd5b600060208284031215612a81578081fd5b5035919050565b600060208284031215612a99578081fd5b5051919050565b60008060408385031215612ab2578182fd5b82359150612818602084016127be565b60008151808452815b81811015612ae757602081850181015186830182015201612acb565b81811115612af85782602083870101525b50601f01601f19169290920160200192915050565b6001600160a01b0391909116815260200190565b6001600160a01b0392831681529116602082015260400190565b6001600160a01b039384168152919092166020820152604081019190915260600190565b6001600160a01b03958616815293909416602084015260408301919091526060820152608081019190915260a00190565b6001600160a01b03929092168252602082015260400190565b6001600160a01b0393841681526020810192909252909116604082015260600190565b6001600160a01b03948516815260208101939093529216604082015261ffff909116606082015260800190565b901515815260200190565b60006020825261098a6020830184612ac2565b600060408252612c2a6040830185612ac2565b905060018060a01b03831660208301529392505050565b600060408252612c546040830185612ac2565b90508260208301529392505050565b60208082526023908201527f45524332303a207472616e7366657220746f20746865207a65726f206164647260408201526265737360e81b606082015260800190565b60208082526014908201527314185d5cd8589b194e881b9bdd081c185d5cd95960621b604082015260600190565b60208082526022908201527f45524332303a206275726e20616d6f756e7420657863656564732062616c616e604082015261636560f01b606082015260800190565b6020808252602a908201527f446973636f756e74206c6576656c2077697468647261772074696d656f75742060408201526934b71032b33332b1ba1760b11b606082015260800190565b60208082526026908201527f4f776e61626c653a206e6577206f776e657220697320746865207a65726f206160408201526564647265737360d01b606082015260800190565b60208082526022908201527f45524332303a20617070726f766520746f20746865207a65726f206164647265604082015261737360f01b606082015260800190565b60208082526026908201527f45524332303a207472616e7366657220616d6f756e7420657863656564732062604082015265616c616e636560d01b606082015260800190565b6020808252602a908201527f416e74692d666c6173686c6f616e2077697468647261772074696d656f75742060408201526934b71032b33332b1ba1760b11b606082015260800190565b60208082526017908201527f496e73756666696369656e742042656e6a616d696e732e000000000000000000604082015260600190565b60208082526010908201526f14185d5cd8589b194e881c185d5cd95960821b604082015260600190565b6020808252601490820152732132b73530b6b4b7399034b9903830bab9b2b21760611b604082015260600190565b60208082526028908201527f45524332303a207472616e7366657220616d6f756e74206578636565647320616040820152676c6c6f77616e636560c01b606082015260800190565b6020808252818101527f4f776e61626c653a2063616c6c6572206973206e6f7420746865206f776e6572604082015260600190565b60208082526021908201527f45524332303a206275726e2066726f6d20746865207a65726f206164647265736040820152607360f81b606082015260800190565b60208082526025908201527f45524332303a207472616e736665722066726f6d20746865207a65726f206164604082015264647265737360d81b606082015260800190565b60208082526024908201527f45524332303a20617070726f76652066726f6d20746865207a65726f206164646040820152637265737360e01b606082015260800190565b6020808252601f908201527f5265656e7472616e637947756172643a207265656e7472616e742063616c6c00604082015260600190565b60208082526025908201527f45524332303a2064656372656173656420616c6c6f77616e63652062656c6f77604082015264207a65726f60d81b606082015260800190565b6020808252601f908201527f45524332303a206d696e7420746f20746865207a65726f206164647265737300604082015260600190565b60208082526013908201527224b739bab33334b1b4b2b73a10333ab732399760691b604082015260600190565b61ffff91909116815260200190565b90815260200190565b9182526001600160a01b0316602082015260400190565b918252602082015260400190565b60ff91909116815260200190565b60405181810167ffffffffffffffff8111828210171561319b5761319b61335f565b604052919050565b600067ffffffffffffffff8211156131bd576131bd61335f565b5060209081020190565b600082198211156131da576131da613333565b500190565b600060ff821660ff84168060ff038211156131fc576131fc613333565b019392505050565b60008261321357613213613349565b500490565b600061ffff8083168185168183048111821515161561323957613239613333565b02949350505050565b600081600019048311821515161561325c5761325c613333565b500290565b600060ff821660ff84168160ff048111821515161561328257613282613333565b029392505050565b60008282101561329c5761329c613333565b500390565b600060ff821660ff8416808210156132bb576132bb613333565b90039392505050565b6002810460018216806132d857607f821691505b602082108114156132f957634e487b7160e01b600052602260045260246000fd5b50919050565b600060ff821660ff81141561331657613316613333565b60010192915050565b60008261332e5761332e613349565b500690565b634e487b7160e01b600052601160045260246000fd5b634e487b7160e01b600052601260045260246000fd5b634e487b7160e01b600052604160045260246000fdfe706f6c79676f6e555344432e616c6c6f77616e6365285f70617965722c2061646472657373287468697329293aa26469706673582212206b90f8ddfcfe0ad3fc630421cb4187202a35fd9b42426fb3e7c9d412aa451c4764736f6c63430008000033",
  "linkReferences": {},
  "deployedLinkReferences": {}
}