{
  "_format": "hh-sol-artifact-1",
  "contractName": "Benjamins",
  "sourceName": "contracts/Benjamins.sol",
  "abi": [
    {
      "inputs": [],
      "stateMutability": "nonpayable",
      "type": "constructor"
    },
    {
      "anonymous": false,
      "inputs": [
        {
          "indexed": true,
          "internalType": "address",
          "name": "owner",
          "type": "address"
        },
        {
          "indexed": true,
          "internalType": "address",
          "name": "spender",
          "type": "address"
        },
        {
          "indexed": false,
          "internalType": "uint256",
          "name": "value",
          "type": "uint256"
        }
      ],
      "name": "Approval",
      "type": "event"
    },
    {
      "anonymous": false,
      "inputs": [
        {
          "indexed": false,
          "internalType": "uint256",
          "name": "amountUSDCin6dec",
          "type": "uint256"
        },
        {
          "indexed": false,
          "internalType": "address",
          "name": "payer",
          "type": "address"
        }
      ],
      "name": "LendingPoolDeposit",
      "type": "event"
    },
    {
      "anonymous": false,
      "inputs": [
        {
          "indexed": false,
          "internalType": "uint256",
          "name": "amountUSDCBeforeFeein6dec",
          "type": "uint256"
        },
        {
          "indexed": false,
          "internalType": "address",
          "name": "payee",
          "type": "address"
        }
      ],
      "name": "LendingPoolWithdrawal",
      "type": "event"
    },
    {
      "anonymous": false,
      "inputs": [
        {
          "indexed": true,
          "internalType": "address",
          "name": "previousOwner",
          "type": "address"
        },
        {
          "indexed": true,
          "internalType": "address",
          "name": "newOwner",
          "type": "address"
        }
      ],
      "name": "OwnershipTransferred",
      "type": "event"
    },
    {
      "anonymous": false,
      "inputs": [
        {
          "indexed": false,
          "internalType": "address",
          "name": "account",
          "type": "address"
        }
      ],
      "name": "Paused",
      "type": "event"
    },
    {
      "anonymous": false,
      "inputs": [
        {
          "indexed": true,
          "internalType": "address",
          "name": "from",
          "type": "address"
        },
        {
          "indexed": true,
          "internalType": "address",
          "name": "to",
          "type": "address"
        },
        {
          "indexed": false,
          "internalType": "uint256",
          "name": "value",
          "type": "uint256"
        }
      ],
      "name": "Transfer",
      "type": "event"
    },
    {
      "anonymous": false,
      "inputs": [
        {
          "indexed": false,
          "internalType": "address",
          "name": "account",
          "type": "address"
        }
      ],
      "name": "Unpaused",
      "type": "event"
    },
    {
      "anonymous": false,
      "inputs": [
        {
          "indexed": false,
          "internalType": "address",
          "name": "fromAddress",
          "type": "address"
        },
        {
          "indexed": false,
          "internalType": "address",
          "name": "toAddress",
          "type": "address"
        },
        {
          "indexed": false,
          "internalType": "uint256",
          "name": "inTokens",
          "type": "uint256"
        },
        {
          "indexed": false,
          "internalType": "uint256",
          "name": "beforeFeeUSDCin6dec",
          "type": "uint256"
        },
        {
          "indexed": false,
          "internalType": "uint256",
          "name": "feeUSDCin6dec",
          "type": "uint256"
        }
      ],
      "name": "exchanged",
      "type": "event"
    },
    {
      "anonymous": false,
      "inputs": [
        {
          "indexed": false,
          "internalType": "address",
          "name": "account",
          "type": "address"
        }
      ],
      "name": "newDepositAccount",
      "type": "event"
    },
    {
      "anonymous": false,
      "inputs": [
        {
          "indexed": false,
          "internalType": "address",
          "name": "beneficiary",
          "type": "address"
        }
      ],
      "name": "newFeeReceiver",
      "type": "event"
    },
    {
      "anonymous": false,
      "inputs": [
        {
          "indexed": false,
          "internalType": "uint256",
          "name": "availableIn6dec",
          "type": "uint256"
        },
        {
          "indexed": false,
          "internalType": "uint256",
          "name": "amountUSDCin6dec",
          "type": "uint256"
        }
      ],
      "name": "profitTaken",
      "type": "event"
    },
    {
      "inputs": [
        {
          "internalType": "address",
          "name": "owner",
          "type": "address"
        },
        {
          "internalType": "address",
          "name": "spender",
          "type": "address"
        }
      ],
      "name": "allowance",
      "outputs": [
        {
          "internalType": "uint256",
          "name": "",
          "type": "uint256"
        }
      ],
      "stateMutability": "view",
      "type": "function"
    },
    {
      "inputs": [
        {
          "internalType": "address",
          "name": "spender",
          "type": "address"
        },
        {
          "internalType": "uint256",
          "name": "amount",
          "type": "uint256"
        }
      ],
      "name": "approve",
      "outputs": [
        {
          "internalType": "bool",
          "name": "",
          "type": "bool"
        }
      ],
      "stateMutability": "nonpayable",
      "type": "function"
    },
    {
      "inputs": [
        {
          "internalType": "address",
          "name": "account",
          "type": "address"
        }
      ],
      "name": "balanceOf",
      "outputs": [
        {
          "internalType": "uint256",
          "name": "",
          "type": "uint256"
        }
      ],
      "stateMutability": "view",
      "type": "function"
    },
    {
      "inputs": [
        {
          "internalType": "uint256",
          "name": "_amount",
          "type": "uint256"
        }
      ],
      "name": "burn",
      "outputs": [],
      "stateMutability": "nonpayable",
      "type": "function"
    },
    {
      "inputs": [
        {
          "internalType": "uint256",
          "name": "_amount",
          "type": "uint256"
        },
        {
          "internalType": "address",
          "name": "_toWhom",
          "type": "address"
        }
      ],
      "name": "burnTo",
      "outputs": [],
      "stateMutability": "nonpayable",
      "type": "function"
    },
    {
      "inputs": [
        {
          "internalType": "uint256",
          "name": "amountOfBNJI",
          "type": "uint256"
        }
      ],
      "name": "calcTransportFee",
      "outputs": [
        {
          "internalType": "uint256",
          "name": "",
          "type": "uint256"
        }
      ],
      "stateMutability": "view",
      "type": "function"
    },
    {
      "inputs": [],
      "name": "decimals",
      "outputs": [
        {
          "internalType": "uint8",
          "name": "",
          "type": "uint8"
        }
      ],
      "stateMutability": "view",
      "type": "function"
    },
    {
      "inputs": [
        {
          "internalType": "address",
          "name": "spender",
          "type": "address"
        },
        {
          "internalType": "uint256",
          "name": "subtractedValue",
          "type": "uint256"
        }
      ],
      "name": "decreaseAllowance",
      "outputs": [
        {
          "internalType": "bool",
          "name": "",
          "type": "bool"
        }
      ],
      "stateMutability": "nonpayable",
      "type": "function"
    },
    {
      "inputs": [
        {
          "internalType": "address",
          "name": "_whom",
          "type": "address"
        }
      ],
      "name": "discountLevel",
      "outputs": [
        {
          "internalType": "uint8",
          "name": "",
          "type": "uint8"
        }
      ],
      "stateMutability": "view",
      "type": "function"
    },
    {
      "inputs": [
        {
          "internalType": "address",
          "name": "spender",
          "type": "address"
        },
        {
          "internalType": "uint256",
          "name": "addedValue",
          "type": "uint256"
        }
      ],
      "name": "increaseAllowance",
      "outputs": [
        {
          "internalType": "bool",
          "name": "",
          "type": "bool"
        }
      ],
      "stateMutability": "nonpayable",
      "type": "function"
    },
    {
      "inputs": [
        {
          "internalType": "uint256",
          "name": "_amount",
          "type": "uint256"
        }
      ],
      "name": "mint",
      "outputs": [],
      "stateMutability": "nonpayable",
      "type": "function"
    },
    {
      "inputs": [
        {
          "internalType": "uint256",
          "name": "_amount",
          "type": "uint256"
        },
        {
          "internalType": "address",
          "name": "_toWhom",
          "type": "address"
        }
      ],
      "name": "mintTo",
      "outputs": [],
      "stateMutability": "nonpayable",
      "type": "function"
    },
    {
      "inputs": [],
      "name": "name",
      "outputs": [
        {
          "internalType": "string",
          "name": "",
          "type": "string"
        }
      ],
      "stateMutability": "view",
      "type": "function"
    },
    {
      "inputs": [],
      "name": "owner",
      "outputs": [
        {
          "internalType": "address",
          "name": "",
          "type": "address"
        }
      ],
      "stateMutability": "view",
      "type": "function"
    },
    {
      "inputs": [],
      "name": "pause",
      "outputs": [],
      "stateMutability": "nonpayable",
      "type": "function"
    },
    {
      "inputs": [],
      "name": "paused",
      "outputs": [
        {
          "internalType": "bool",
          "name": "",
          "type": "bool"
        }
      ],
      "stateMutability": "view",
      "type": "function"
    },
    {
      "inputs": [],
      "name": "polygonAMUSDC",
      "outputs": [
        {
          "internalType": "contract IERC20",
          "name": "",
          "type": "address"
        }
      ],
      "stateMutability": "view",
      "type": "function"
    },
    {
      "inputs": [],
      "name": "polygonLendingPool",
      "outputs": [
        {
          "internalType": "contract ILendingPool",
          "name": "",
          "type": "address"
        }
      ],
      "stateMutability": "view",
      "type": "function"
    },
    {
      "inputs": [],
      "name": "polygonUSDC",
      "outputs": [
        {
          "internalType": "contract IERC20",
          "name": "",
          "type": "address"
        }
      ],
      "stateMutability": "view",
      "type": "function"
    },
    {
      "inputs": [
        {
          "internalType": "address",
          "name": "forWhom",
          "type": "address"
        }
      ],
      "name": "quoteFeePercentage",
      "outputs": [
        {
          "internalType": "uint16",
          "name": "",
          "type": "uint16"
        }
      ],
      "stateMutability": "view",
      "type": "function"
    },
    {
      "inputs": [
        {
          "internalType": "uint256",
          "name": "_amount",
          "type": "uint256"
        },
        {
          "internalType": "bool",
          "name": "isMint",
          "type": "bool"
        }
      ],
      "name": "quoteUSDC",
      "outputs": [
        {
          "internalType": "uint256",
          "name": "",
          "type": "uint256"
        }
      ],
      "stateMutability": "view",
      "type": "function"
    },
    {
      "inputs": [],
      "name": "renounceOwnership",
      "outputs": [],
      "stateMutability": "nonpayable",
      "type": "function"
    },
    {
      "inputs": [
        {
          "internalType": "address",
          "name": "ERC20ContractAddress",
          "type": "address"
        }
      ],
      "name": "scavengeERC20Tip",
      "outputs": [],
      "stateMutability": "nonpayable",
      "type": "function"
    },
    {
      "inputs": [
        {
          "internalType": "address",
          "name": "beneficiary",
          "type": "address"
        }
      ],
      "name": "setFeeReceiver",
      "outputs": [],
      "stateMutability": "nonpayable",
      "type": "function"
    },
    {
      "inputs": [],
      "name": "showReserveIn6dec",
      "outputs": [
        {
          "internalType": "uint256",
          "name": "",
          "type": "uint256"
        }
      ],
      "stateMutability": "view",
      "type": "function"
    },
    {
      "inputs": [],
      "name": "symbol",
      "outputs": [
        {
          "internalType": "string",
          "name": "",
          "type": "string"
        }
      ],
      "stateMutability": "view",
      "type": "function"
    },
    {
      "inputs": [],
      "name": "totalSupply",
      "outputs": [
        {
          "internalType": "uint256",
          "name": "",
          "type": "uint256"
        }
      ],
      "stateMutability": "view",
      "type": "function"
    },
    {
      "inputs": [
        {
          "internalType": "address",
          "name": "recipient",
          "type": "address"
        },
        {
          "internalType": "uint256",
          "name": "amount",
          "type": "uint256"
        }
      ],
      "name": "transfer",
      "outputs": [
        {
          "internalType": "bool",
          "name": "",
          "type": "bool"
        }
      ],
      "stateMutability": "nonpayable",
      "type": "function"
    },
    {
      "inputs": [
        {
          "internalType": "address",
          "name": "sender",
          "type": "address"
        },
        {
          "internalType": "address",
          "name": "recipient",
          "type": "address"
        },
        {
          "internalType": "uint256",
          "name": "amountBNJI",
          "type": "uint256"
        }
      ],
      "name": "transferFrom",
      "outputs": [
        {
          "internalType": "bool",
          "name": "",
          "type": "bool"
        }
      ],
      "stateMutability": "nonpayable",
      "type": "function"
    },
    {
      "inputs": [
        {
          "internalType": "address",
          "name": "newOwner",
          "type": "address"
        }
      ],
      "name": "transferOwnership",
      "outputs": [],
      "stateMutability": "nonpayable",
      "type": "function"
    },
    {
      "inputs": [],
      "name": "unpause",
      "outputs": [],
      "stateMutability": "nonpayable",
      "type": "function"
    },
    {
      "inputs": [
        {
          "internalType": "uint256",
          "name": "amountToApprove",
          "type": "uint256"
        }
      ],
      "name": "updateApproveLendingPool",
      "outputs": [],
      "stateMutability": "nonpayable",
      "type": "function"
    },
    {
      "inputs": [
        {
          "internalType": "uint256",
          "name": "newAmountOfBlocksPerDay",
          "type": "uint256"
        }
      ],
      "name": "updateBlocksPerDay",
      "outputs": [],
      "stateMutability": "nonpayable",
      "type": "function"
    },
    {
      "inputs": [
        {
          "internalType": "uint32[]",
          "name": "newLevelAntes",
          "type": "uint32[]"
        }
      ],
      "name": "updateLevelAntes",
      "outputs": [],
      "stateMutability": "nonpayable",
      "type": "function"
    },
    {
      "inputs": [
        {
          "internalType": "uint8[]",
          "name": "newLevelDiscounts",
          "type": "uint8[]"
        }
      ],
      "name": "updateLevelDiscounts",
      "outputs": [],
      "stateMutability": "nonpayable",
      "type": "function"
    },
    {
      "inputs": [
        {
          "internalType": "uint16[]",
          "name": "newLevelHolds",
          "type": "uint16[]"
        }
      ],
      "name": "updateLevelHolds",
      "outputs": [],
      "stateMutability": "nonpayable",
      "type": "function"
    },
    {
      "inputs": [
        {
          "internalType": "address",
          "name": "newAddress",
          "type": "address"
        }
      ],
      "name": "updatePolygonAMUSDC",
      "outputs": [],
      "stateMutability": "nonpayable",
      "type": "function"
    },
    {
      "inputs": [
        {
          "internalType": "address",
          "name": "newAddress",
          "type": "address"
        }
      ],
      "name": "updatePolygonLendingPool",
      "outputs": [],
      "stateMutability": "nonpayable",
      "type": "function"
    },
    {
      "inputs": [
        {
          "internalType": "address",
          "name": "newAddress",
          "type": "address"
        }
      ],
      "name": "updatePolygonUSDC",
      "outputs": [],
      "stateMutability": "nonpayable",
      "type": "function"
    },
    {
      "inputs": [
        {
          "internalType": "uint256",
          "name": "_amountIn6dec",
          "type": "uint256"
        }
      ],
      "name": "withdrawGains",
      "outputs": [],
      "stateMutability": "nonpayable",
      "type": "function"
    },
    {
      "stateMutability": "payable",
      "type": "receive"
    }
  ],
  "bytecode": "0x6080604052620f4240600d55612710600e556002600f8190556010805461ff001916610a00179055620c35006011556012805461ffff191690911790553480156200004957600080fd5b506040518060400160405280600981526020016842656e6a616d696e7360b81b81525060405180604001604052806004815260200163424e4a4960e01b81525060006200009b6200028f60201b60201c565b600080546001600160a01b0319166001600160a01b0383169081178255604051929350917f8be0079c531659141344cd1fd0a4f28419497f9722a3daafe3b4186f6b6457e0908290a3508151620000fa90600490602085019062000381565b5080516200011090600590602084019062000381565b50506006805460ff199081169091556001600755601080549091169055506000600c55600b80546001600160a01b031990811673e51c8401fe1e70f78bbd3ac660692597d33dbaff17909155600980548216732791bca1f2de4661ed88a30c99a7a9449aa84174179055600a80548216731a13f4ca1d028320a707d99520abfefca3998b7f17905560088054909116738dff5e27ea6b7ac08ebfdf9eb090f32ee9a30fcf1790556040805160a08101825260148152603c60208201526064918101919091526101f460608201526107d06080820152620001f590601390600562000410565b506040805160c0810182526000815260026020820152600791810191909152601e6060820152605a608082015261016860a08201526200023a906014906006620004bf565b506040805160c0810182526000815260056020820152600a918101919091526014606082015260286080820152604b60a08201526200027e9060159060066200055b565b506200028962000293565b620006bb565b3390565b6200029d6200028f565b6001600160a01b0316620002b0620002ee565b6001600160a01b031614620002e25760405162461bcd60e51b8152600401620002d99062000649565b60405180910390fd5b620002ec620002fd565b565b6000546001600160a01b031690565b6200030762000378565b15620003275760405162461bcd60e51b8152600401620002d9906200061f565b6006805460ff191660011790557f62e78cea01bee320cd4e420270b5ea74000d11b0c9f74754ebdbfc544b05a2586200035f6200028f565b6040516200036e91906200060b565b60405180910390a1565b60065460ff1690565b8280546200038f906200067e565b90600052602060002090601f016020900481019282620003b35760008555620003fe565b82601f10620003ce57805160ff1916838001178555620003fe565b82800160010185558215620003fe579182015b82811115620003fe578251825591602001919060010190620003e1565b506200040c929150620005f4565b5090565b82805482825590600052602060002090600701600890048101928215620003fe5791602002820160005b838211156200047e57835183826101000a81548163ffffffff021916908361ffff16021790555092602001926004016020816003010492830192600103026200043a565b8015620004b05782816101000a81549063ffffffff02191690556004016020816003010492830192600103026200047e565b50506200040c929150620005f4565b82805482825590600052602060002090600f01601090048101928215620003fe5791602002820160005b838211156200052b57835183826101000a81548161ffff021916908361ffff1602179055509260200192600201602081600101049283019260010302620004e9565b8015620004b05782816101000a81549061ffff02191690556002016020816001010492830192600103026200052b565b82805482825590600052602060002090601f01602090048101928215620003fe5791602002820160005b83821115620005c557835183826101000a81548160ff021916908360ff160217905550926020019260010160208160000104928301926001030262000585565b8015620004b05782816101000a81549060ff0219169055600101602081600001049283019260010302620005c5565b5b808211156200040c5760008155600101620005f5565b6001600160a01b0391909116815260200190565b60208082526010908201526f14185d5cd8589b194e881c185d5cd95960821b604082015260600190565b6020808252818101527f4f776e61626c653a2063616c6c6572206973206e6f7420746865206f776e6572604082015260600190565b6002810460018216806200069357607f821691505b60208210811415620006b557634e487b7160e01b600052602260045260246000fd5b50919050565b61383e80620006cb6000396000f3fe60806040526004361061023f5760003560e01c8063715018a61161012e578063b723b34e116100ab578063dd62ed3e1161006f578063dd62ed3e14610673578063ea89120b14610693578063efdcd974146106c0578063f2fde38b146106e0578063f6e6d9d61461070057610246565b8063b723b34e146105de578063c0100143146105fe578063c6a5d5da1461061e578063cd0d95e21461063e578063d948e1041461065e57610246565b806397b92942116100f257806397b929421461053e578063a0712d681461055e578063a457c2d71461057e578063a9059cbb1461059e578063b3faaf93146105be57610246565b8063715018a6146104d55780638456cb59146104ea5780638da5cb5b146104ff5780638fb330171461051457806395d89b411461052957610246565b806339509351116101bc57806355ab59501161018057806355ab59501461043e578063571ff20d1461045e5780635c975abb1461047e5780636c7529741461049357806370a08231146104b557610246565b806339509351146103a95780633f4ba83a146103c957806342966c68146103de57806347f220ae146103fe5780634b5a89601461041e57610246565b8063185cf4b511610203578063185cf4b51461031457806323b872dd14610334578063257a005014610354578063313ce5671461037457806338d1692f1461038957610246565b806306fdde031461024b578063093f595014610276578063095ea7b3146102a357806316087315146102d057806318160ddd146102f257610246565b3661024657005b600080fd5b34801561025757600080fd5b50610260610715565b60405161026d9190613074565b60405180910390f35b34801561028257600080fd5b50610296610291366004612c2d565b6107a7565b60405161026d9190613609565b3480156102af57600080fd5b506102c36102be366004612cbb565b610897565b60405161026d9190613069565b3480156102dc57600080fd5b506102f06102eb366004612c2d565b6108b4565b005b3480156102fe57600080fd5b50610307610915565b60405161026d91906135ba565b34801561032057600080fd5b506102f061032f366004612ecb565b61091b565b34801561034057600080fd5b506102c361034f366004612c80565b610ad0565b34801561036057600080fd5b506102f061036f366004612c2d565b610d54565b34801561038057600080fd5b5061029661101d565b34801561039557600080fd5b506103076103a4366004612f1d565b611026565b3480156103b557600080fd5b506102c36103c4366004612cbb565b611164565b3480156103d557600080fd5b506102f06111b3565b3480156103ea57600080fd5b506102f06103f9366004612ecb565b6111fc565b34801561040a57600080fd5b506102f0610419366004612ce4565b611209565b34801561042a57600080fd5b50610307610439366004612ecb565b61125f565b34801561044a57600080fd5b506102f0610459366004612c2d565b61130a565b34801561046a57600080fd5b506102f0610479366004612efb565b61145a565b34801561048a57600080fd5b506102c36115c9565b34801561049f57600080fd5b506104a86115d2565b60405161026d9190612f97565b3480156104c157600080fd5b506103076104d0366004612c2d565b6115e1565b3480156104e157600080fd5b506102f06115fc565b3480156104f657600080fd5b506102f0611685565b34801561050b57600080fd5b506104a86116cc565b34801561052057600080fd5b506104a86116db565b34801561053557600080fd5b506102606116ea565b34801561054a57600080fd5b506102f0610559366004612e1d565b6116f9565b34801561056a57600080fd5b506102f0610579366004612ecb565b61174b565b34801561058a57600080fd5b506102c3610599366004612cbb565b611755565b3480156105aa57600080fd5b506102c36105b9366004612cbb565b6117d0565b3480156105ca57600080fd5b506102f06105d9366004612d88565b6119f8565b3480156105ea57600080fd5b506102f06105f9366004612efb565b611a4a565b34801561060a57600080fd5b506102f0610619366004612c2d565b611add565b34801561062a57600080fd5b506102f0610639366004612ecb565b611b3e565b34801561064a57600080fd5b506102f0610659366004612ecb565b611b82565b34801561066a57600080fd5b506104a8611c49565b34801561067f57600080fd5b5061030761068e366004612c4e565b611c58565b34801561069f57600080fd5b506106b36106ae366004612c2d565b611c83565b60405161026d91906135ab565b3480156106cc57600080fd5b506102f06106db366004612c2d565b611d55565b3480156106ec57600080fd5b506102f06106fb366004612c2d565b611dea565b34801561070c57600080fd5b50610307611eaa565b60606004805461072490613714565b80601f016020809104026020016040519081016040528092919081815260200182805461075090613714565b801561079d5780601f106107725761010080835404028352916020019161079d565b820191906000526020600020905b81548152906001019060200180831161078057829003601f168201915b5050505050905090565b60006107b16115c9565b15806107dc57506107c06116cc565b6001600160a01b03166107d1611eb0565b6001600160a01b0316145b6108015760405162461bcd60e51b81526004016107f890613352565b60405180910390fd5b600061080c836115e1565b90506000805b60135460ff8216101561088d5760138160ff168154811061084357634e487b7160e01b600052603260045260246000fd5b6000918252602090912060088204015460079091166004026101000a900463ffffffff16831061087b57816108778161374f565b9250505b806108858161374f565b915050610812565b509150505b919050565b60006108ab6108a4611eb0565b8484611eb4565b50600192915050565b6108bc611eb0565b6001600160a01b03166108cd6116cc565b6001600160a01b0316146108f35760405162461bcd60e51b81526004016107f890613380565b600980546001600160a01b0319166001600160a01b0392909216919091179055565b60035490565b610923611eb0565b6001600160a01b03166109346116cc565b6001600160a01b03161461095a5760405162461bcd60e51b81526004016107f890613380565b600c54600a546040516370a0823160e01b8152600092916001600160a01b0316906370a082319061098f903090600401612f97565b60206040518083038186803b1580156109a757600080fd5b505afa1580156109bb573d6000803e3d6000fd5b505050506040513d601f19601f820116820180604052508101906109df9190612ee3565b6109e991906136da565b9050818111610a0a5760405162461bcd60e51b81526004016107f89061357e565b600a54600b5460405163a9059cbb60e01b81526001600160a01b039283169263a9059cbb92610a40929116908690600401613000565b602060405180830381600087803b158015610a5a57600080fd5b505af1158015610a6e573d6000803e3d6000fd5b505050506040513d601f19601f82011682018060405250810190610a929190612eaf565b507f8b9c4e1b9c860b263c59ac36417dfb6be15a01919b159407b1971058eee1e0298183604051610ac49291906135fb565b60405180910390a15050565b600060026007541415610af55760405162461bcd60e51b81526004016107f89061347f565b6002600755610b026115c9565b1580610b2d5750610b116116cc565b6001600160a01b0316610b22611eb0565b6001600160a01b0316145b610b495760405162461bcd60e51b81526004016107f890613352565b6001600160a01b03841660009081526016602052604081205485914391610b7090836136da565b601054909150610100900460ff168111610b9c5760405162461bcd60e51b81526004016107f8906132a7565b6014610ba7846107a7565b60ff1681548110610bc857634e487b7160e01b600052603260045260246000fd5b90600052602060002090601091828204019190066002029054906101000a900461ffff1661ffff16600f54610bfd91906136bb565b8111610c1b5760405162461bcd60e51b81526004016107f89061318f565b6000610c26876107a7565b90506000610c338761125f565b600954600b546040516323b872dd60e01b81529293506001600160a01b03918216926323b872dd92610c6e928e929116908690600401612fab565b602060405180830381600087803b158015610c8857600080fd5b505af1158015610c9c573d6000803e3d6000fd5b505050506040513d601f19601f82011682018060405250810190610cc09190612eaf565b506000610ccf8a61068e611eb0565b905087811015610cf15760405162461bcd60e51b81526004016107f8906134b6565b610cfc8a8a8a611f68565b610d178a610d08611eb0565b610d128b856136da565b611eb4565b6000610d228a6107a7565b90508360ff168160ff161115610d3d57610d3b8a612090565b505b600197505050505050506001600755509392505050565b610d5c611eb0565b6001600160a01b0316610d6d6116cc565b6001600160a01b031614610d935760405162461bcd60e51b81526004016107f890613380565b600854600954604051631a4ca37b60e21b81526001600160a01b03928316926369328dec92610dcd92911690600019903090600401613019565b602060405180830381600087803b158015610de757600080fd5b505af1158015610dfb573d6000803e3d6000fd5b505050506040513d601f19601f82011682018060405250810190610e1f9190612ee3565b50600880546001600160a01b0319166001600160a01b0383161790556040517f33481e616168e187acdc90fda3d0269454b31c195cc00e4db474ca44f8d43ae890610e6b908390612f97565b60405180910390a16009546040516370a0823160e01b81526000916001600160a01b0316906370a0823190610ea4903090600401612f97565b60206040518083038186803b158015610ebc57600080fd5b505afa158015610ed0573d6000803e3d6000fd5b505050506040513d601f19601f82011682018060405250810190610ef49190612ee3565b60095460085460405163095ea7b360e01b81529293506001600160a01b039182169263095ea7b392610f2c9216908590600401613000565b602060405180830381600087803b158015610f4657600080fd5b505af1158015610f5a573d6000803e3d6000fd5b505050506040513d601f19601f82011682018060405250810190610f7e9190612eaf565b5060085460095460405163e8eda9df60e01b81526001600160a01b039283169263e8eda9df92610fba929116908590309060009060040161303c565b600060405180830381600087803b158015610fd457600080fd5b505af1158015610fe8573d6000803e3d6000fd5b505050507f96a06dd751c9aee3cbe69bcfe31505e68da315871c459fd3467debfd76a901e98130604051610ac49291906135c3565b60105460ff1690565b60006110306115c9565b158061105b575061103f6116cc565b6001600160a01b0316611050611eb0565b6001600160a01b0316145b6110775760405162461bcd60e51b81526004016107f890613352565b6000611081610915565b9050600061108f82806136bb565b905060008080600187151514156110c9576110aa8886613665565b92506110b683806136bb565b91506110c284836136da565b90506110ee565b6110d388866136da565b92506110df83806136bb565b91506110eb82856136da565b90505b6000600d54826110fe91906136bb565b9050600060115482611110919061367d565b90506000600e5482611122919061376f565b9050600061113082846136da565b9050624c4b408110156111555760405162461bcd60e51b81526004016107f890613087565b9b9a5050505050505050505050565b60006108ab611171611eb0565b84846002600061117f611eb0565b6001600160a01b03908116825260208083019390935260409182016000908120918b1681529252902054610d129190613665565b6111bb611eb0565b6001600160a01b03166111cc6116cc565b6001600160a01b0316146111f25760405162461bcd60e51b81526004016107f890613380565b6111fa612100565b565b611206813361145a565b50565b611211611eb0565b6001600160a01b03166112226116cc565b6001600160a01b0316146112485760405162461bcd60e51b81526004016107f890613380565b805161125b906014906020840190612a27565b5050565b60006112696115c9565b158061129457506112786116cc565b6001600160a01b0316611289611eb0565b6001600160a01b0316145b6112b05760405162461bcd60e51b81526004016107f890613352565b60006112bd836000611026565b90506000600d546112cd33611c83565b6112db9061ffff16846136bb565b6112e5919061367d565b90506000600e54826112f7919061376f565b61130190836136da565b95945050505050565b611312611eb0565b6001600160a01b03166113236116cc565b6001600160a01b0316146113495760405162461bcd60e51b81526004016107f890613380565b6040516370a0823160e01b815281906000906001600160a01b038316906370a082319061137a903090600401612f97565b60206040518083038186803b15801561139257600080fd5b505afa1580156113a6573d6000803e3d6000fd5b505050506040513d601f19601f820116820180604052508101906113ca9190612ee3565b600b546040516323b872dd60e01b81529192506001600160a01b03808516926323b872dd926114029230929116908690600401612fab565b602060405180830381600087803b15801561141c57600080fd5b505af1158015611430573d6000803e3d6000fd5b505050506040513d601f19601f820116820180604052508101906114549190612eaf565b50505050565b6114626115c9565b158061148d57506114716116cc565b6001600160a01b0316611482611eb0565b6001600160a01b0316145b6114a95760405162461bcd60e51b81526004016107f890613352565b81806114b4336115e1565b10156114d25760405162461bcd60e51b81526004016107f8906132f1565b826114de816000611026565b600c5410156114ec57600080fd5b3360008181526016602052604081205443919061150990836136da565b601054909150610100900460ff1681116115355760405162461bcd60e51b81526004016107f8906132a7565b6014611540846107a7565b60ff168154811061156157634e487b7160e01b600052603260045260246000fd5b90600052602060002090601091828204019190066002029054906101000a900461ffff1661ffff16600f5461159691906136bb565b81116115b45760405162461bcd60e51b81526004016107f89061318f565b6115c08688600061216e565b50505050505050565b60065460ff1690565b6009546001600160a01b031681565b6001600160a01b031660009081526001602052604090205490565b611604611eb0565b6001600160a01b03166116156116cc565b6001600160a01b03161461163b5760405162461bcd60e51b81526004016107f890613380565b600080546040516001600160a01b03909116907f8be0079c531659141344cd1fd0a4f28419497f9722a3daafe3b4186f6b6457e0908390a3600080546001600160a01b0319169055565b61168d611eb0565b6001600160a01b031661169e6116cc565b6001600160a01b0316146116c45760405162461bcd60e51b81526004016107f890613380565b6111fa612312565b6000546001600160a01b031690565b600a546001600160a01b031681565b60606005805461072490613714565b611701611eb0565b6001600160a01b03166117126116cc565b6001600160a01b0316146117385760405162461bcd60e51b81526004016107f890613380565b805161125b906015906020840190612ad0565b6112068133611a4a565b60008060026000611764611eb0565b6001600160a01b03908116825260208083019390935260409182016000908120918816815292529020549050828110156117b05760405162461bcd60e51b81526004016107f890613502565b6117c66117bb611eb0565b85610d1286856136da565b5060019392505050565b60006117da6115c9565b158061180557506117e96116cc565b6001600160a01b03166117fa611eb0565b6001600160a01b0316145b6118215760405162461bcd60e51b81526004016107f890613352565b611829611eb0565b6001600160a01b03811660009081526016602052604081205443919061184f90836136da565b601054909150610100900460ff16811161187b5760405162461bcd60e51b81526004016107f8906132a7565b6014611886846107a7565b60ff16815481106118a757634e487b7160e01b600052603260045260246000fd5b90600052602060002090601091828204019190066002029054906101000a900461ffff1661ffff16600f546118dc91906136bb565b81116118fa5760405162461bcd60e51b81526004016107f89061318f565b6000611905876107a7565b905060006119128761125f565b6009549091506001600160a01b03166323b872dd61192e611eb0565b600b546040516001600160e01b031960e085901b16815261195e92916001600160a01b0316908690600401612fab565b602060405180830381600087803b15801561197857600080fd5b505af115801561198c573d6000803e3d6000fd5b505050506040513d601f19601f820116820180604052508101906119b09190612eaf565b506119c36119bc611eb0565b8989611f68565b60006119ce896107a7565b90508260ff168160ff1611156119e9576119e789612090565b505b50600198975050505050505050565b611a00611eb0565b6001600160a01b0316611a116116cc565b6001600160a01b031614611a375760405162461bcd60e51b81526004016107f890613380565b805161125b906013906020840190612b64565b611a526115c9565b1580611a7d5750611a616116cc565b6001600160a01b0316611a72611eb0565b6001600160a01b0316145b611a995760405162461bcd60e51b81526004016107f890613352565b6000611aa4826107a7565b9050611ab28284600161216e565b6000611abd836107a7565b90508160ff168160ff16111561145457611ad683612090565b5050505050565b611ae5611eb0565b6001600160a01b0316611af66116cc565b6001600160a01b031614611b1c5760405162461bcd60e51b81526004016107f890613380565b600a80546001600160a01b0319166001600160a01b0392909216919091179055565b611b46611eb0565b6001600160a01b0316611b576116cc565b6001600160a01b031614611b7d5760405162461bcd60e51b81526004016107f890613380565b600f55565b611b8a611eb0565b6001600160a01b0316611b9b6116cc565b6001600160a01b031614611bc15760405162461bcd60e51b81526004016107f890613380565b60095460085460405163095ea7b360e01b81526001600160a01b039283169263095ea7b392611bf7929116908590600401613000565b602060405180830381600087803b158015611c1157600080fd5b505af1158015611c25573d6000803e3d6000fd5b505050506040513d601f19601f8201168201806040525081019061125b9190612eaf565b6008546001600160a01b031681565b6001600160a01b03918216600090815260026020908152604080832093909416825291909152205490565b6000611c8d6115c9565b1580611cb85750611c9c6116cc565b6001600160a01b0316611cad611eb0565b6001600160a01b0316145b611cd45760405162461bcd60e51b81526004016107f890613352565b6015611cdf836107a7565b60ff1681548110611d0057634e487b7160e01b600052603260045260246000fd5b90600052602060002090602091828204019190069054906101000a900460ff166064611d2c91906136f1565b60125460ff9190911690611d459061ffff166064613691565b611d4f9190613691565b92915050565b611d5d611eb0565b6001600160a01b0316611d6e6116cc565b6001600160a01b031614611d945760405162461bcd60e51b81526004016107f890613380565b600b80546001600160a01b0319166001600160a01b0383161790556040517fa574362825e0eb8232ebe212b029c5b3a30ca54219bc287f49181e95bbb8608990611ddf908390612f97565b60405180910390a150565b611df2611eb0565b6001600160a01b0316611e036116cc565b6001600160a01b031614611e295760405162461bcd60e51b81526004016107f890613380565b6001600160a01b038116611e4f5760405162461bcd60e51b81526004016107f8906131d9565b600080546040516001600160a01b03808516939216917f8be0079c531659141344cd1fd0a4f28419497f9722a3daafe3b4186f6b6457e091a3600080546001600160a01b0319166001600160a01b0392909216919091179055565b600c5490565b3390565b6001600160a01b038316611eda5760405162461bcd60e51b81526004016107f89061343b565b6001600160a01b038216611f005760405162461bcd60e51b81526004016107f89061321f565b6001600160a01b0380841660008181526002602090815260408083209487168084529490915290819020849055517f8c5be1e5ebec7d5bd14f71427d1e84f3dd0314c0f7b2291e5b200ac8c7c3b92590611f5b9085906135ba565b60405180910390a3505050565b6001600160a01b038316611f8e5760405162461bcd60e51b81526004016107f8906133f6565b6001600160a01b038216611fb45760405162461bcd60e51b81526004016107f8906130dc565b611fbf83838361236d565b6001600160a01b03831660009081526001602052604090205481811015611ff85760405162461bcd60e51b81526004016107f890613261565b61200282826136da565b6001600160a01b038086166000908152600160205260408082209390935590851681529081208054849290612038908490613665565b92505081905550826001600160a01b0316846001600160a01b03167fddf252ad1be2c89b69c2b068fc378daa952ba7f163c4a11628f55a4df523b3ef8460405161208291906135ba565b60405180910390a350505050565b600061209a6115c9565b15806120c557506120a96116cc565b6001600160a01b03166120ba611eb0565b6001600160a01b0316145b6120e15760405162461bcd60e51b81526004016107f890613352565b6001600160a01b03909116600090815260166020526040902043905590565b6121086115c9565b6121245760405162461bcd60e51b81526004016107f89061311f565b6006805460ff191690557f5db9ee0a495bf2e6ff9c91a7834c1ba4fdd244a5e8aa4e537bd38aeae4b073aa612157611eb0565b6040516121649190612f97565b60405180910390a1565b600260075414156121915760405162461bcd60e51b81526004016107f89061347f565b600260075561219e6115c9565b15806121c957506121ad6116cc565b6001600160a01b03166121be611eb0565b6001600160a01b0316145b6121e55760405162461bcd60e51b81526004016107f890613352565b600060018215151415612204576121fd836001611026565b9050612212565b61220f836000611026565b90505b6000600d5461222033611c83565b61222e9061ffff16846136bb565b612238919061367d565b90506000600e548261224a919061376f565b61225490836136da565b9050600184151514156122965761226f338785846001612372565b6122798686612820565b82600c600082825461228b9190613665565b909155506122c69050565b6122a033866128e0565b6122ae338785846000612372565b82600c60008282546122c091906136da565b90915550505b7faa1840ad2b124c68a39cd301fc5f80ad593b05a52c5344a787f2762ace6dea3433878786856040516122fd959493929190612fcf565b60405180910390a15050600160075550505050565b61231a6115c9565b156123375760405162461bcd60e51b81526004016107f890613328565b6006805460ff191660011790557f62e78cea01bee320cd4e420270b5ea74000d11b0c9f74754ebdbfc544b05a258612157611eb0565b505050565b61237a6115c9565b15806123a557506123896116cc565b6001600160a01b031661239a611eb0565b6001600160a01b0316145b6123c15760405162461bcd60e51b81526004016107f890613352565b600181151514156126415760006123d88385613665565b90506123fc816040518060600160405280603581526020016137d4603591396129c6565b6009546040516323b872dd60e01b81526001600160a01b03909116906323b872dd9061243090899030908690600401612fab565b602060405180830381600087803b15801561244a57600080fd5b505af115801561245e573d6000803e3d6000fd5b505050506040513d601f19601f820116820180604052508101906124829190612eaf565b50600954600b5460405163a9059cbb60e01b81526001600160a01b039283169263a9059cbb926124b9929116908790600401613000565b602060405180830381600087803b1580156124d357600080fd5b505af11580156124e7573d6000803e3d6000fd5b505050506040513d601f19601f8201168201806040525081019061250b9190612eaf565b5060095460085460405163095ea7b360e01b81526001600160a01b039283169263095ea7b392612542929116908890600401613000565b602060405180830381600087803b15801561255c57600080fd5b505af1158015612570573d6000803e3d6000fd5b505050506040513d601f19601f820116820180604052508101906125949190612eaf565b5060085460095460405163e8eda9df60e01b81526001600160a01b039283169263e8eda9df926125d0929116908890309060009060040161303c565b600060405180830381600087803b1580156125ea57600080fd5b505af11580156125fe573d6000803e3d6000fd5b505050507f96a06dd751c9aee3cbe69bcfe31505e68da315871c459fd3467debfd76a901e984876040516126339291906135c3565b60405180910390a150611ad6565b600061264d83856136da565b600854600954604051631a4ca37b60e21b81529293506001600160a01b03918216926369328dec9261268792169088903090600401613019565b602060405180830381600087803b1580156126a157600080fd5b505af11580156126b5573d6000803e3d6000fd5b505050506040513d601f19601f820116820180604052508101906126d99190612ee3565b507fa605ade827572a0d40ee9676d8a1bcdf38fdd902413c655c283bbbba576867ba848660405161270b9291906135c3565b60405180910390a1600954600b5460405163a9059cbb60e01b81526001600160a01b039283169263a9059cbb92612749929116908790600401613000565b602060405180830381600087803b15801561276357600080fd5b505af1158015612777573d6000803e3d6000fd5b505050506040513d601f19601f8201168201806040525081019061279b9190612eaf565b5060095460405163a9059cbb60e01b81526001600160a01b039091169063a9059cbb906127ce9088908590600401613000565b602060405180830381600087803b1580156127e857600080fd5b505af11580156127fc573d6000803e3d6000fd5b505050506040513d601f19601f820116820180604052508101906115c09190612eaf565b6001600160a01b0382166128465760405162461bcd60e51b81526004016107f890613547565b6128526000838361236d565b80600360008282546128649190613665565b90915550506001600160a01b03821660009081526001602052604081208054839290612891908490613665565b90915550506040516001600160a01b038316906000907fddf252ad1be2c89b69c2b068fc378daa952ba7f163c4a11628f55a4df523b3ef906128d49085906135ba565b60405180910390a35050565b6001600160a01b0382166129065760405162461bcd60e51b81526004016107f8906133b5565b6129128260008361236d565b6001600160a01b0382166000908152600160205260409020548181101561294b5760405162461bcd60e51b81526004016107f89061314d565b61295582826136da565b6001600160a01b038416600090815260016020526040812091909155600380548492906129839084906136da565b90915550506040516000906001600160a01b038516907fddf252ad1be2c89b69c2b068fc378daa952ba7f163c4a11628f55a4df523b3ef90611f5b9086906135ba565b61125b82826040516024016129dc9291906135da565b60408051601f198184030181529190526020810180516001600160e01b0316630fa3f34560e01b17905280516a636f6e736f6c652e6c6f67602083016000808483855afa5050505050565b82805482825590600052602060002090600f01601090048101928215612ac05791602002820160005b83821115612a9057835183826101000a81548161ffff021916908361ffff1602179055509260200192600201602081600101049283019260010302612a50565b8015612abe5782816101000a81549061ffff0219169055600201602081600101049283019260010302612a90565b505b50612acc929150612c01565b5090565b82805482825590600052602060002090601f01602090048101928215612ac05791602002820160005b83821115612b3757835183826101000a81548160ff021916908360ff1602179055509260200192600101602081600001049283019260010302612af9565b8015612abe5782816101000a81549060ff0219169055600101602081600001049283019260010302612b37565b82805482825590600052602060002090600701600890048101928215612ac05791602002820160005b83821115612bd157835183826101000a81548163ffffffff021916908363ffffffff1602179055509260200192600401602081600301049283019260010302612b8d565b8015612abe5782816101000a81549063ffffffff0219169055600401602081600301049283019260010302612bd1565b5b80821115612acc5760008155600101612c02565b80356001600160a01b038116811461089257600080fd5b600060208284031215612c3e578081fd5b612c4782612c16565b9392505050565b60008060408385031215612c60578081fd5b612c6983612c16565b9150612c7760208401612c16565b90509250929050565b600080600060608486031215612c94578081fd5b612c9d84612c16565b9250612cab60208501612c16565b9150604084013590509250925092565b60008060408385031215612ccd578182fd5b612cd683612c16565b946020939093013593505050565b60006020808385031215612cf6578182fd5b823567ffffffffffffffff811115612d0c578283fd5b8301601f81018513612d1c578283fd5b8035612d2f612d2a82613641565b613617565b8181528381019083850185840285018601891015612d4b578687fd5b8694505b83851015612d7c57803561ffff81168114612d68578788fd5b835260019490940193918501918501612d4f565b50979650505050505050565b60006020808385031215612d9a578182fd5b823567ffffffffffffffff811115612db0578283fd5b8301601f81018513612dc0578283fd5b8035612dce612d2a82613641565b8181528381019083850185840285018601891015612dea578687fd5b8694505b83851015612d7c57803563ffffffff81168114612e09578788fd5b835260019490940193918501918501612dee565b60006020808385031215612e2f578182fd5b823567ffffffffffffffff811115612e45578283fd5b8301601f81018513612e55578283fd5b8035612e63612d2a82613641565b8181528381019083850185840285018601891015612e7f578687fd5b8694505b83851015612d7c57803560ff81168114612e9b578788fd5b835260019490940193918501918501612e83565b600060208284031215612ec0578081fd5b8151612c47816137c5565b600060208284031215612edc578081fd5b5035919050565b600060208284031215612ef4578081fd5b5051919050565b60008060408385031215612f0d578182fd5b82359150612c7760208401612c16565b60008060408385031215612f2f578182fd5b823591506020830135612f41816137c5565b809150509250929050565b60008151808452815b81811015612f7157602081850181015186830182015201612f55565b81811115612f825782602083870101525b50601f01601f19169290920160200192915050565b6001600160a01b0391909116815260200190565b6001600160a01b039384168152919092166020820152604081019190915260600190565b6001600160a01b03958616815293909416602084015260408301919091526060820152608081019190915260a00190565b6001600160a01b03929092168252602082015260400190565b6001600160a01b0393841681526020810192909252909116604082015260600190565b6001600160a01b03948516815260208101939093529216604082015261ffff909116606082015260800190565b901515815260200190565b600060208252612c476020830184612f4c565b60208082526035908201527f424e4a2c2071756f7465555344433a204d696e696d756d20424e4a492076616c604082015274756520746f206d6f7665206973202435205553444360581b606082015260800190565b60208082526023908201527f45524332303a207472616e7366657220746f20746865207a65726f206164647260408201526265737360e81b606082015260800190565b60208082526014908201527314185d5cd8589b194e881b9bdd081c185d5cd95960621b604082015260600190565b60208082526022908201527f45524332303a206275726e20616d6f756e7420657863656564732062616c616e604082015261636560f01b606082015260800190565b6020808252602a908201527f446973636f756e74206c6576656c2077697468647261772074696d656f75742060408201526934b71032b33332b1ba1760b11b606082015260800190565b60208082526026908201527f4f776e61626c653a206e6577206f776e657220697320746865207a65726f206160408201526564647265737360d01b606082015260800190565b60208082526022908201527f45524332303a20617070726f766520746f20746865207a65726f206164647265604082015261737360f01b606082015260800190565b60208082526026908201527f45524332303a207472616e7366657220616d6f756e7420657863656564732062604082015265616c616e636560d01b606082015260800190565b6020808252602a908201527f416e74692d666c6173686c6f616e2077697468647261772074696d656f75742060408201526934b71032b33332b1ba1760b11b606082015260800190565b60208082526017908201527f496e73756666696369656e742042656e6a616d696e732e000000000000000000604082015260600190565b60208082526010908201526f14185d5cd8589b194e881c185d5cd95960821b604082015260600190565b6020808252601490820152732132b73530b6b4b7399034b9903830bab9b2b21760611b604082015260600190565b6020808252818101527f4f776e61626c653a2063616c6c6572206973206e6f7420746865206f776e6572604082015260600190565b60208082526021908201527f45524332303a206275726e2066726f6d20746865207a65726f206164647265736040820152607360f81b606082015260800190565b60208082526025908201527f45524332303a207472616e736665722066726f6d20746865207a65726f206164604082015264647265737360d81b606082015260800190565b60208082526024908201527f45524332303a20617070726f76652066726f6d20746865207a65726f206164646040820152637265737360e01b606082015260800190565b6020808252601f908201527f5265656e7472616e637947756172643a207265656e7472616e742063616c6c00604082015260600190565b6020808252602c908201527f42656e6a616d696e733a207472616e7366657220616d6f756e7420657863656560408201526b647320616c6c6f77616e636560a01b606082015260800190565b60208082526025908201527f45524332303a2064656372656173656420616c6c6f77616e63652062656c6f77604082015264207a65726f60d81b606082015260800190565b6020808252601f908201527f45524332303a206d696e7420746f20746865207a65726f206164647265737300604082015260600190565b60208082526013908201527224b739bab33334b1b4b2b73a10333ab732399760691b604082015260600190565b61ffff91909116815260200190565b90815260200190565b9182526001600160a01b0316602082015260400190565b6000838252604060208301526135f36040830184612f4c565b949350505050565b918252602082015260400190565b60ff91909116815260200190565b60405181810167ffffffffffffffff81118282101715613639576136396137af565b604052919050565b600067ffffffffffffffff82111561365b5761365b6137af565b5060209081020190565b6000821982111561367857613678613783565b500190565b60008261368c5761368c613799565b500490565b600061ffff808316818516818304811182151516156136b2576136b2613783565b02949350505050565b60008160001904831182151516156136d5576136d5613783565b500290565b6000828210156136ec576136ec613783565b500390565b600060ff821660ff84168082101561370b5761370b613783565b90039392505050565b60028104600182168061372857607f821691505b6020821081141561374957634e487b7160e01b600052602260045260246000fd5b50919050565b600060ff821660ff81141561376657613766613783565b60010192915050565b60008261377e5761377e613799565b500690565b634e487b7160e01b600052601160045260246000fd5b634e487b7160e01b600052601260045260246000fd5b634e487b7160e01b600052604160045260246000fd5b801515811461120657600080fdfe636f6e7472616374206e6565647320616c6c6f77616e636520666f72205f616674657246656555534443696e366465632c20424e4aa264697066735822122032b2ea541865703b87796f3d7e46bd530244aece02303c128ec28ab6f9ad751d64736f6c63430008000033",
  "linkReferences": {},
  "deployedLinkReferences": {}
}