{
  "_format": "hh-sol-artifact-1",
  "contractName": "Benjamins",
  "sourceName": "contracts/Benjamins.sol",
  "abi": [
    {
      "inputs": [],
      "stateMutability": "nonpayable",
      "type": "constructor"
    },
    {
      "anonymous": false,
      "inputs": [
        {
          "indexed": true,
          "internalType": "address",
          "name": "owner",
          "type": "address"
        },
        {
          "indexed": true,
          "internalType": "address",
          "name": "spender",
          "type": "address"
        },
        {
          "indexed": false,
          "internalType": "uint256",
          "name": "value",
          "type": "uint256"
        }
      ],
      "name": "Approval",
      "type": "event"
    },
    {
      "anonymous": false,
      "inputs": [
        {
          "indexed": false,
          "internalType": "uint256",
          "name": "amountUSDCin6dec",
          "type": "uint256"
        },
        {
          "indexed": false,
          "internalType": "address",
          "name": "payer",
          "type": "address"
        }
      ],
      "name": "LendingPoolDeposit",
      "type": "event"
    },
    {
      "anonymous": false,
      "inputs": [
        {
          "indexed": false,
          "internalType": "uint256",
          "name": "amountUSDCin6dec",
          "type": "uint256"
        },
        {
          "indexed": false,
          "internalType": "address",
          "name": "payee",
          "type": "address"
        }
      ],
      "name": "LendingPoolWithdrawal",
      "type": "event"
    },
    {
      "anonymous": false,
      "inputs": [
        {
          "indexed": true,
          "internalType": "address",
          "name": "previousOwner",
          "type": "address"
        },
        {
          "indexed": true,
          "internalType": "address",
          "name": "newOwner",
          "type": "address"
        }
      ],
      "name": "OwnershipTransferred",
      "type": "event"
    },
    {
      "anonymous": false,
      "inputs": [
        {
          "indexed": false,
          "internalType": "address",
          "name": "account",
          "type": "address"
        }
      ],
      "name": "Paused",
      "type": "event"
    },
    {
      "anonymous": false,
      "inputs": [
        {
          "indexed": true,
          "internalType": "address",
          "name": "from",
          "type": "address"
        },
        {
          "indexed": true,
          "internalType": "address",
          "name": "to",
          "type": "address"
        },
        {
          "indexed": false,
          "internalType": "uint256",
          "name": "value",
          "type": "uint256"
        }
      ],
      "name": "Transfer",
      "type": "event"
    },
    {
      "anonymous": false,
      "inputs": [
        {
          "indexed": false,
          "internalType": "address",
          "name": "account",
          "type": "address"
        }
      ],
      "name": "Unpaused",
      "type": "event"
    },
    {
      "anonymous": false,
      "inputs": [
        {
          "indexed": false,
          "internalType": "address",
          "name": "fromAddress",
          "type": "address"
        },
        {
          "indexed": false,
          "internalType": "address",
          "name": "toAddress",
          "type": "address"
        },
        {
          "indexed": false,
          "internalType": "int256",
          "name": "inTokens",
          "type": "int256"
        },
        {
          "indexed": false,
          "internalType": "int256",
          "name": "inUSDC",
          "type": "int256"
        },
        {
          "indexed": false,
          "internalType": "uint256",
          "name": "fee",
          "type": "uint256"
        }
      ],
      "name": "exchanged",
      "type": "event"
    },
    {
      "anonymous": false,
      "inputs": [
        {
          "indexed": false,
          "internalType": "address",
          "name": "account",
          "type": "address"
        }
      ],
      "name": "newDepositAccount",
      "type": "event"
    },
    {
      "anonymous": false,
      "inputs": [
        {
          "indexed": false,
          "internalType": "address",
          "name": "beneficiary",
          "type": "address"
        }
      ],
      "name": "newFeeReceiver",
      "type": "event"
    },
    {
      "anonymous": false,
      "inputs": [
        {
          "indexed": false,
          "internalType": "uint256",
          "name": "availableIn6dec",
          "type": "uint256"
        },
        {
          "indexed": false,
          "internalType": "uint256",
          "name": "amountUSDCin6dec",
          "type": "uint256"
        }
      ],
      "name": "profitTaken",
      "type": "event"
    },
    {
      "inputs": [
        {
          "internalType": "address",
          "name": "owner",
          "type": "address"
        },
        {
          "internalType": "address",
          "name": "spender",
          "type": "address"
        }
      ],
      "name": "allowance",
      "outputs": [
        {
          "internalType": "uint256",
          "name": "",
          "type": "uint256"
        }
      ],
      "stateMutability": "view",
      "type": "function"
    },
    {
      "inputs": [
        {
          "internalType": "address",
          "name": "spender",
          "type": "address"
        },
        {
          "internalType": "uint256",
          "name": "amount",
          "type": "uint256"
        }
      ],
      "name": "approve",
      "outputs": [
        {
          "internalType": "bool",
          "name": "",
          "type": "bool"
        }
      ],
      "stateMutability": "nonpayable",
      "type": "function"
    },
    {
      "inputs": [
        {
          "internalType": "address",
          "name": "account",
          "type": "address"
        }
      ],
      "name": "balanceOf",
      "outputs": [
        {
          "internalType": "uint256",
          "name": "",
          "type": "uint256"
        }
      ],
      "stateMutability": "view",
      "type": "function"
    },
    {
      "inputs": [
        {
          "internalType": "uint256",
          "name": "_amount",
          "type": "uint256"
        }
      ],
      "name": "burn",
      "outputs": [],
      "stateMutability": "nonpayable",
      "type": "function"
    },
    {
      "inputs": [
        {
          "internalType": "uint256",
          "name": "_amount",
          "type": "uint256"
        },
        {
          "internalType": "address",
          "name": "_toWhom",
          "type": "address"
        }
      ],
      "name": "burnTo",
      "outputs": [],
      "stateMutability": "nonpayable",
      "type": "function"
    },
    {
      "inputs": [],
      "name": "decimals",
      "outputs": [
        {
          "internalType": "uint8",
          "name": "",
          "type": "uint8"
        }
      ],
      "stateMutability": "view",
      "type": "function"
    },
    {
      "inputs": [
        {
          "internalType": "address",
          "name": "spender",
          "type": "address"
        },
        {
          "internalType": "uint256",
          "name": "subtractedValue",
          "type": "uint256"
        }
      ],
      "name": "decreaseAllowance",
      "outputs": [
        {
          "internalType": "bool",
          "name": "",
          "type": "bool"
        }
      ],
      "stateMutability": "nonpayable",
      "type": "function"
    },
    {
      "inputs": [
        {
          "internalType": "address",
          "name": "_whom",
          "type": "address"
        }
      ],
      "name": "discountLevel",
      "outputs": [
        {
          "internalType": "uint8",
          "name": "",
          "type": "uint8"
        }
      ],
      "stateMutability": "view",
      "type": "function"
    },
    {
      "inputs": [
        {
          "internalType": "address",
          "name": "spender",
          "type": "address"
        },
        {
          "internalType": "uint256",
          "name": "addedValue",
          "type": "uint256"
        }
      ],
      "name": "increaseAllowance",
      "outputs": [
        {
          "internalType": "bool",
          "name": "",
          "type": "bool"
        }
      ],
      "stateMutability": "nonpayable",
      "type": "function"
    },
    {
      "inputs": [
        {
          "internalType": "uint256",
          "name": "_amount",
          "type": "uint256"
        }
      ],
      "name": "mint",
      "outputs": [],
      "stateMutability": "nonpayable",
      "type": "function"
    },
    {
      "inputs": [
        {
          "internalType": "uint256",
          "name": "_amount",
          "type": "uint256"
        },
        {
          "internalType": "address",
          "name": "_toWhom",
          "type": "address"
        }
      ],
      "name": "mintTo",
      "outputs": [],
      "stateMutability": "nonpayable",
      "type": "function"
    },
    {
      "inputs": [],
      "name": "name",
      "outputs": [
        {
          "internalType": "string",
          "name": "",
          "type": "string"
        }
      ],
      "stateMutability": "view",
      "type": "function"
    },
    {
      "inputs": [],
      "name": "owner",
      "outputs": [
        {
          "internalType": "address",
          "name": "",
          "type": "address"
        }
      ],
      "stateMutability": "view",
      "type": "function"
    },
    {
      "inputs": [],
      "name": "pause",
      "outputs": [],
      "stateMutability": "nonpayable",
      "type": "function"
    },
    {
      "inputs": [],
      "name": "paused",
      "outputs": [
        {
          "internalType": "bool",
          "name": "",
          "type": "bool"
        }
      ],
      "stateMutability": "view",
      "type": "function"
    },
    {
      "inputs": [],
      "name": "polygonAMUSDC",
      "outputs": [
        {
          "internalType": "contract IERC20",
          "name": "",
          "type": "address"
        }
      ],
      "stateMutability": "view",
      "type": "function"
    },
    {
      "inputs": [],
      "name": "polygonLendingPool",
      "outputs": [
        {
          "internalType": "contract ILendingPool",
          "name": "",
          "type": "address"
        }
      ],
      "stateMutability": "view",
      "type": "function"
    },
    {
      "inputs": [],
      "name": "polygonUSDC",
      "outputs": [
        {
          "internalType": "contract IERC20",
          "name": "",
          "type": "address"
        }
      ],
      "stateMutability": "view",
      "type": "function"
    },
    {
      "inputs": [
        {
          "internalType": "address",
          "name": "forWhom",
          "type": "address"
        }
      ],
      "name": "quoteFeePercentage",
      "outputs": [
        {
          "internalType": "int16",
          "name": "",
          "type": "int16"
        }
      ],
      "stateMutability": "view",
      "type": "function"
    },
    {
      "inputs": [
        {
          "internalType": "int256",
          "name": "_amount",
          "type": "int256"
        }
      ],
      "name": "quoteUSDC",
      "outputs": [
        {
          "internalType": "int256",
          "name": "",
          "type": "int256"
        }
      ],
      "stateMutability": "view",
      "type": "function"
    },
    {
      "inputs": [],
      "name": "renounceOwnership",
      "outputs": [],
      "stateMutability": "nonpayable",
      "type": "function"
    },
    {
      "inputs": [
        {
          "internalType": "address",
          "name": "ERC20ContractAddress",
          "type": "address"
        }
      ],
      "name": "scavengeERC20Tip",
      "outputs": [],
      "stateMutability": "nonpayable",
      "type": "function"
    },
    {
      "inputs": [
        {
          "internalType": "address",
          "name": "beneficiary",
          "type": "address"
        }
      ],
      "name": "setFeeReceiver",
      "outputs": [],
      "stateMutability": "nonpayable",
      "type": "function"
    },
    {
      "inputs": [],
      "name": "symbol",
      "outputs": [
        {
          "internalType": "string",
          "name": "",
          "type": "string"
        }
      ],
      "stateMutability": "view",
      "type": "function"
    },
    {
      "inputs": [],
      "name": "totalSupply",
      "outputs": [
        {
          "internalType": "uint256",
          "name": "",
          "type": "uint256"
        }
      ],
      "stateMutability": "view",
      "type": "function"
    },
    {
      "inputs": [
        {
          "internalType": "address",
          "name": "recipiant",
          "type": "address"
        },
        {
          "internalType": "uint256",
          "name": "amount",
          "type": "uint256"
        }
      ],
      "name": "transfer",
      "outputs": [
        {
          "internalType": "bool",
          "name": "",
          "type": "bool"
        }
      ],
      "stateMutability": "nonpayable",
      "type": "function"
    },
    {
      "inputs": [
        {
          "internalType": "address",
          "name": "sender",
          "type": "address"
        },
        {
          "internalType": "address",
          "name": "recipiant",
          "type": "address"
        },
        {
          "internalType": "uint256",
          "name": "amount",
          "type": "uint256"
        }
      ],
      "name": "transferFrom",
      "outputs": [
        {
          "internalType": "bool",
          "name": "",
          "type": "bool"
        }
      ],
      "stateMutability": "nonpayable",
      "type": "function"
    },
    {
      "inputs": [
        {
          "internalType": "address",
          "name": "newOwner",
          "type": "address"
        }
      ],
      "name": "transferOwnership",
      "outputs": [],
      "stateMutability": "nonpayable",
      "type": "function"
    },
    {
      "inputs": [],
      "name": "unpause",
      "outputs": [],
      "stateMutability": "nonpayable",
      "type": "function"
    },
    {
      "inputs": [
        {
          "internalType": "uint256",
          "name": "amountToApprove",
          "type": "uint256"
        }
      ],
      "name": "updateApproveLendingPool",
      "outputs": [],
      "stateMutability": "nonpayable",
      "type": "function"
    },
    {
      "inputs": [
        {
          "internalType": "uint256",
          "name": "newAmountOfBlocksPerDay",
          "type": "uint256"
        }
      ],
      "name": "updateBlocksPerDay",
      "outputs": [],
      "stateMutability": "nonpayable",
      "type": "function"
    },
    {
      "inputs": [
        {
          "internalType": "uint32[]",
          "name": "newLevelAntes",
          "type": "uint32[]"
        }
      ],
      "name": "updateLevelAntes",
      "outputs": [],
      "stateMutability": "nonpayable",
      "type": "function"
    },
    {
      "inputs": [
        {
          "internalType": "int8[]",
          "name": "newLevelDiscounts",
          "type": "int8[]"
        }
      ],
      "name": "updateLevelDiscounts",
      "outputs": [],
      "stateMutability": "nonpayable",
      "type": "function"
    },
    {
      "inputs": [
        {
          "internalType": "int16[]",
          "name": "newLevelHolds",
          "type": "int16[]"
        }
      ],
      "name": "updateLevelHolds",
      "outputs": [],
      "stateMutability": "nonpayable",
      "type": "function"
    },
    {
      "inputs": [
        {
          "internalType": "address",
          "name": "newAddress",
          "type": "address"
        }
      ],
      "name": "updatePolygonAMUSDC",
      "outputs": [],
      "stateMutability": "nonpayable",
      "type": "function"
    },
    {
      "inputs": [
        {
          "internalType": "address",
          "name": "newAddress",
          "type": "address"
        }
      ],
      "name": "updatePolygonLendingPool",
      "outputs": [],
      "stateMutability": "nonpayable",
      "type": "function"
    },
    {
      "inputs": [
        {
          "internalType": "address",
          "name": "newAddress",
          "type": "address"
        }
      ],
      "name": "updatePolygonUSDC",
      "outputs": [],
      "stateMutability": "nonpayable",
      "type": "function"
    },
    {
      "inputs": [
        {
          "internalType": "uint256",
          "name": "_amountIn6dec",
          "type": "uint256"
        }
      ],
      "name": "withdrawGains",
      "outputs": [],
      "stateMutability": "nonpayable",
      "type": "function"
    },
    {
      "stateMutability": "payable",
      "type": "receive"
    }
  ],
  "bytecode": "0x6080604052620f4240600d556013805460ff19908116600a1790915560026014819055620c3500601555601680549092161790553480156200004057600080fd5b506040518060400160405280600981526020016842656e6a616d696e7360b81b81525060405180604001604052806004815260200163424e4a4960e01b8152506000620000926200028d60201b60201c565b600080546001600160a01b0319166001600160a01b0383169081178255604051929350917f8be0079c531659141344cd1fd0a4f28419497f9722a3daafe3b4186f6b6457e0908290a3508151620000f19060049060208501906200037f565b508051620001079060059060208401906200037f565b50506006805460ff199081169091556001600755600e80549091169055506000600b556200013462000291565b600c80546001600160a01b03929092166001600160a01b0319928316179055600980548216732791bca1f2de4661ed88a30c99a7a9449aa84174179055600a80548216731a13f4ca1d028320a707d99520abfefca3998b7f17905560088054909116738dff5e27ea6b7ac08ebfdf9eb090f32ee9a30fcf1790556040805160c0810182526000815260146020820152603c91810191909152606460608201526101f460808201526107d060a0820152620001f39060109060066200040e565b506040805160c0810182526000815260026020820152600791810191909152601e6060820152605a608082015261016860a082015262000238906011906006620004bf565b506040805160c0810182526000815260056020820152600a918101919091526014606082015260286080820152604b60a08201526200027c9060129060066200055e565b5062000287620002a0565b620006c1565b3390565b6000546001600160a01b031690565b620002aa6200028d565b6001600160a01b0316620002bd62000291565b6001600160a01b031614620002ef5760405162461bcd60e51b8152600401620002e6906200064f565b60405180910390fd5b620002f9620002fb565b565b6200030562000376565b15620003255760405162461bcd60e51b8152600401620002e69062000625565b6006805460ff191660011790557f62e78cea01bee320cd4e420270b5ea74000d11b0c9f74754ebdbfc544b05a2586200035d6200028d565b6040516200036c919062000611565b60405180910390a1565b60065460ff1690565b8280546200038d9062000684565b90600052602060002090601f016020900481019282620003b15760008555620003fc565b82601f10620003cc57805160ff1916838001178555620003fc565b82800160010185558215620003fc579182015b82811115620003fc578251825591602001919060010190620003df565b506200040a929150620005fa565b5090565b82805482825590600052602060002090600701600890048101928215620003fc5791602002820160005b838211156200047e57835183826101000a81548163ffffffff021916908363ffffffff160217905550926020019260040160208160030104928301926001030262000438565b8015620004b05782816101000a81549063ffffffff02191690556004016020816003010492830192600103026200047e565b50506200040a929150620005fa565b82805482825590600052602060002090600f01601090048101928215620003fc5791602002820160005b838211156200052e57835183826101000a81548161ffff021916908360010b61ffff1602179055509260200192600201602081600101049283019260010302620004e9565b8015620004b05782816101000a81549061ffff02191690556002016020816001010492830192600103026200052e565b82805482825590600052602060002090601f01602090048101928215620003fc5791602002820160005b83821115620005cb57835183826101000a81548160ff021916908360000b60ff160217905550926020019260010160208160000104928301926001030262000588565b8015620004b05782816101000a81549060ff0219169055600101602081600001049283019260010302620005cb565b5b808211156200040a5760008155600101620005fb565b6001600160a01b0391909116815260200190565b60208082526010908201526f14185d5cd8589b194e881c185d5cd95960821b604082015260600190565b6020808252818101527f4f776e61626c653a2063616c6c6572206973206e6f7420746865206f776e6572604082015260600190565b6002810460018216806200069957607f821691505b60208210811415620006bb57634e487b7160e01b600052602260045260246000fd5b50919050565b61333080620006d16000396000f3fe6080604052600436106102295760003560e01c8063715018a611610123578063b3faaf93116100ab578063d948e1041161006f578063d948e10414610628578063dd62ed3e1461063d578063ea89120b1461065d578063efdcd9741461068a578063f2fde38b146106aa57610230565b8063b3faaf9314610588578063b723b34e146105a8578063c0100143146105c8578063c6a5d5da146105e8578063cd0d95e21461060857610230565b80638fb33017116100f25780638fb33017146104fe57806395d89b4114610513578063a0712d6814610528578063a457c2d714610548578063a9059cbb1461056857610230565b8063715018a61461049f5780638456cb59146104b45780638bdced6e146104c95780638da5cb5b146104e957610230565b806339509351116101b1578063571ff20d11610175578063571ff20d146104085780635ac33e35146104285780635c975abb146104485780636c7529741461045d57806370a082311461047f57610230565b806339509351146103735780633f4ba83a1461039357806342966c68146103a8578063487cb72c146103c857806355ab5950146103e857610230565b806318160ddd116101f857806318160ddd146102dc578063185cf4b5146102fe57806323b872dd1461031e578063257a00501461033e578063313ce5671461035e57610230565b806306fdde0314610235578063093f595014610260578063095ea7b31461028d57806316087315146102ba57610230565b3661023057005b600080fd5b34801561024157600080fd5b5061024a6106ca565b604051610257919061299f565b60405180910390f35b34801561026c57600080fd5b5061028061027b366004612575565b61075c565b6040516102579190612ec4565b34801561029957600080fd5b506102ad6102a83660046125fc565b610860565b604051610257919061297d565b3480156102c657600080fd5b506102da6102d5366004612575565b61087d565b005b3480156102e857600080fd5b506102f16108e7565b6040516102579190612996565b34801561030a57600080fd5b506102da61031936600461280e565b6108ed565b34801561032a57600080fd5b506102ad6103393660046125c1565b610aa2565b34801561034a57600080fd5b506102da610359366004612575565b610c31565b34801561036a57600080fd5b50610280610efa565b34801561037f57600080fd5b506102ad61038e3660046125fc565b610f03565b34801561039f57600080fd5b506102da610f52565b3480156103b457600080fd5b506102da6103c336600461280e565b610f9b565b3480156103d457600080fd5b506102f16103e336600461280e565b610fa8565b3480156103f457600080fd5b506102da610403366004612575565b611039565b34801561041457600080fd5b506102da61042336600461283e565b611189565b34801561043457600080fd5b506102da610443366004612625565b6112f2565b34801561045457600080fd5b506102ad611348565b34801561046957600080fd5b50610472611351565b60405161025791906128ab565b34801561048b57600080fd5b506102f161049a366004612575565b611360565b3480156104ab57600080fd5b506102da61137b565b3480156104c057600080fd5b506102da611404565b3480156104d557600080fd5b506102da6104e43660046126c8565b61144b565b3480156104f557600080fd5b5061047261149d565b34801561050a57600080fd5b506104726114ac565b34801561051f57600080fd5b5061024a6114bb565b34801561053457600080fd5b506102da61054336600461280e565b6114ca565b34801561055457600080fd5b506102ad6105633660046125fc565b6114d4565b34801561057457600080fd5b506102ad6105833660046125fc565b61154f565b34801561059457600080fd5b506102da6105a3366004612759565b61156a565b3480156105b457600080fd5b506102da6105c336600461283e565b6115bc565b3480156105d457600080fd5b506102da6105e3366004612575565b611646565b3480156105f457600080fd5b506102da61060336600461280e565b6116a7565b34801561061457600080fd5b506102da61062336600461280e565b6116eb565b34801561063457600080fd5b506104726117b2565b34801561064957600080fd5b506102f161065836600461258f565b6117c1565b34801561066957600080fd5b5061067d610678366004612575565b6117ec565b6040516102579190612988565b34801561069657600080fd5b506102da6106a5366004612575565b6118b4565b3480156106b657600080fd5b506102da6106c5366004612575565b611949565b6060600480546106d99061322f565b80601f01602080910402602001604051908101604052809291908181526020018280546107059061322f565b80156107525780601f1061072757610100808354040283529160200191610752565b820191906000526020600020905b81548152906001019060200180831161073557829003601f168201915b5050505050905090565b60008061076883611360565b90506107976040518060400160405280600b81526020016a7573657242616c616e636560a81b81525082611a09565b60005b8160106107a8836001612f79565b60ff16815481106107c957634e487b7160e01b600052603260045260246000fd5b6000918252602090912060088204015460079091166004026101000a900463ffffffff161161085757601054610801906001906131f5565b8160ff1614156108455761083c6040518060400160405280600c81526020016b18dd5c9c995b9d13195d995b60a21b8152508260ff16611a09565b915061085b9050565b8061084f8161326a565b91505061079a565b9150505b919050565b600061087461086d611a4e565b8484611a52565b50600192915050565b610885611a4e565b6001600160a01b031661089661149d565b6001600160a01b0316146108c55760405162461bcd60e51b81526004016108bc90612cc0565b60405180910390fd5b600980546001600160a01b0319166001600160a01b0392909216919091179055565b60035490565b6108f5611a4e565b6001600160a01b031661090661149d565b6001600160a01b03161461092c5760405162461bcd60e51b81526004016108bc90612cc0565b600b54600a546040516370a0823160e01b8152600092916001600160a01b0316906370a08231906109619030906004016128ab565b60206040518083038186803b15801561097957600080fd5b505afa15801561098d573d6000803e3d6000fd5b505050506040513d601f19601f820116820180604052508101906109b19190612826565b6109bb91906131f5565b90508181116109dc5760405162461bcd60e51b81526004016108bc90612e72565b600a54600c5460405163a9059cbb60e01b81526001600160a01b039283169263a9059cbb92610a12929116908690600401612914565b602060405180830381600087803b158015610a2c57600080fd5b505af1158015610a40573d6000803e3d6000fd5b505050506040513d601f19601f82011682018060405250810190610a6491906127ee565b507f8b9c4e1b9c860b263c59ac36417dfb6be15a01919b159407b1971058eee1e0298183604051610a96929190612eb6565b60405180910390a15050565b600060026007541415610ac75760405162461bcd60e51b81526004016108bc90612dbf565b6002600755336000908152600f602052604081205485914391610aea9083613175565b601354909150600090810b900b8113610b155760405162461bcd60e51b81526004016108bc90612b9f565b6011610b203361075c565b60ff1681548110610b4157634e487b7160e01b600052603260045260246000fd5b90600052602060002090601091828204019190066002029054906101000a900460010b60010b601454610b749190613053565b8113610b925760405162461bcd60e51b81526004016108bc90612a87565b6000610b9d8761075c565b9050610baa888888611b06565b6000610bb889610658611a4e565b905086811015610bda5760405162461bcd60e51b81526004016108bc90612c78565b610bf589610be6611a4e565b610bf08a856131f5565b611a52565b6000610c008961075c565b90508260ff168160ff161115610c1b57610c1989611c2e565b505b6001965050505050506001600755509392505050565b610c39611a4e565b6001600160a01b0316610c4a61149d565b6001600160a01b031614610c705760405162461bcd60e51b81526004016108bc90612cc0565b600854600954604051631a4ca37b60e21b81526001600160a01b03928316926369328dec92610caa9291169060001990309060040161292d565b602060405180830381600087803b158015610cc457600080fd5b505af1158015610cd8573d6000803e3d6000fd5b505050506040513d601f19601f82011682018060405250810190610cfc9190612826565b50600880546001600160a01b0319166001600160a01b0383161790556040517f33481e616168e187acdc90fda3d0269454b31c195cc00e4db474ca44f8d43ae890610d489083906128ab565b60405180910390a16009546040516370a0823160e01b81526000916001600160a01b0316906370a0823190610d819030906004016128ab565b60206040518083038186803b158015610d9957600080fd5b505afa158015610dad573d6000803e3d6000fd5b505050506040513d601f19601f82011682018060405250810190610dd19190612826565b60095460085460405163095ea7b360e01b81529293506001600160a01b039182169263095ea7b392610e099216908590600401612914565b602060405180830381600087803b158015610e2357600080fd5b505af1158015610e37573d6000803e3d6000fd5b505050506040513d601f19601f82011682018060405250810190610e5b91906127ee565b5060085460095460405163e8eda9df60e01b81526001600160a01b039283169263e8eda9df92610e979291169085903090600090600401612950565b600060405180830381600087803b158015610eb157600080fd5b505af1158015610ec5573d6000803e3d6000fd5b505050507f96a06dd751c9aee3cbe69bcfe31505e68da315871c459fd3467debfd76a901e98130604051610a96929190612e9f565b600e5460ff1690565b6000610874610f10611a4e565b848460026000610f1e611a4e565b6001600160a01b03908116825260208083019390935260409182016000908120918b1681529252902054610bf09190612f61565b610f5a611a4e565b6001600160a01b0316610f6b61149d565b6001600160a01b031614610f915760405162461bcd60e51b81526004016108bc90612cc0565b610f99611ced565b565b610fa58133611189565b50565b600080610fb36108e7565b90506000610fc18280613156565b90506000610fcf8584612f20565b90506000610fdd8280613156565b90506000610feb8483613175565b90506000600d5482610ffd9190613053565b905060006015548261100f9190612f9e565b9050600061101f6127108361328a565b905061102b8183613175565b9a9950505050505050505050565b611041611a4e565b6001600160a01b031661105261149d565b6001600160a01b0316146110785760405162461bcd60e51b81526004016108bc90612cc0565b6040516370a0823160e01b815281906000906001600160a01b038316906370a08231906110a99030906004016128ab565b60206040518083038186803b1580156110c157600080fd5b505afa1580156110d5573d6000803e3d6000fd5b505050506040513d601f19601f820116820180604052508101906110f99190612826565b600c546040516323b872dd60e01b81529192506001600160a01b03808516926323b872dd9261113192309291169086906004016128f0565b602060405180830381600087803b15801561114b57600080fd5b505af115801561115f573d6000803e3d6000fd5b505050506040513d601f19601f8201168201806040525081019061118391906127ee565b50505050565b611191611348565b15806111b557506111a061149d565b6001600160a01b0316336001600160a01b0316145b6111d15760405162461bcd60e51b81526004016108bc90612c4a565b81806111dc33611360565b10156111fa5760405162461bcd60e51b81526004016108bc90612be9565b8261120481610fa8565b600b54101561121257600080fd5b336000818152600f602052604081205443919061122f9083613175565b601354909150600090810b900b811361125a5760405162461bcd60e51b81526004016108bc90612b9f565b60116112653361075c565b60ff168154811061128657634e487b7160e01b600052603260045260246000fd5b90600052602060002090601091828204019190066002029054906101000a900460010b60010b6014546112b99190613053565b81136112d75760405162461bcd60e51b81526004016108bc90612a87565b6112e9866112e48961329e565b611d5b565b50505050505050565b6112fa611a4e565b6001600160a01b031661130b61149d565b6001600160a01b0316146113315760405162461bcd60e51b81526004016108bc90612cc0565b805161134490601190602084019061236d565b5050565b60065460ff1690565b6009546001600160a01b031681565b6001600160a01b031660009081526001602052604090205490565b611383611a4e565b6001600160a01b031661139461149d565b6001600160a01b0316146113ba5760405162461bcd60e51b81526004016108bc90612cc0565b600080546040516001600160a01b03909116907f8be0079c531659141344cd1fd0a4f28419497f9722a3daafe3b4186f6b6457e0908390a3600080546001600160a01b0319169055565b61140c611a4e565b6001600160a01b031661141d61149d565b6001600160a01b0316146114435760405162461bcd60e51b81526004016108bc90612cc0565b610f99611e70565b611453611a4e565b6001600160a01b031661146461149d565b6001600160a01b03161461148a5760405162461bcd60e51b81526004016108bc90612cc0565b8051611344906012906020840190612415565b6000546001600160a01b031690565b600a546001600160a01b031681565b6060600580546106d99061322f565b610fa581336115bc565b600080600260006114e3611a4e565b6001600160a01b039081168252602080830193909352604091820160009081209188168152925290205490508281101561152f5760405162461bcd60e51b81526004016108bc90612df6565b61154561153a611a4e565b85610bf086856131f5565b5060019392505050565b600061156361155c611a4e565b8484610aa2565b9392505050565b611572611a4e565b6001600160a01b031661158361149d565b6001600160a01b0316146115a95760405162461bcd60e51b81526004016108bc90612cc0565b80516113449060109060208401906124ac565b6115c4611348565b15806115e857506115d361149d565b6001600160a01b0316336001600160a01b0316145b6116045760405162461bcd60e51b81526004016108bc90612c4a565b600061160f8261075c565b905061161b8284611d5b565b60006116268361075c565b90508160ff168160ff1611156111835761163f83611c2e565b5050505050565b61164e611a4e565b6001600160a01b031661165f61149d565b6001600160a01b0316146116855760405162461bcd60e51b81526004016108bc90612cc0565b600a80546001600160a01b0319166001600160a01b0392909216919091179055565b6116af611a4e565b6001600160a01b03166116c061149d565b6001600160a01b0316146116e65760405162461bcd60e51b81526004016108bc90612cc0565b601455565b6116f3611a4e565b6001600160a01b031661170461149d565b6001600160a01b03161461172a5760405162461bcd60e51b81526004016108bc90612cc0565b60095460085460405163095ea7b360e01b81526001600160a01b039283169263095ea7b392611760929116908590600401612914565b602060405180830381600087803b15801561177a57600080fd5b505af115801561178e573d6000803e3d6000fd5b505050506040513d601f19601f8201168201806040525081019061134491906127ee565b6008546001600160a01b031681565b6001600160a01b03918216600090815260026020908152604080832093909416825291909152205490565b60006118386040518060400160405280601781526020017f646973636f756e744c6576656c28666f7257686f6d293a0000000000000000008152506118308461075c565b60ff16611a09565b60126118438361075c565b60ff168154811061186457634e487b7160e01b600052603260045260246000fd5b60009182526020808320908204015461188b92601f9092166101000a9004900b60646131b4565b601654600091820b916118a191900b60646130d6565b60000b6118ae9190612fcc565b92915050565b6118bc611a4e565b6001600160a01b03166118cd61149d565b6001600160a01b0316146118f35760405162461bcd60e51b81526004016108bc90612cc0565b600c80546001600160a01b0319166001600160a01b0383161790556040517fa574362825e0eb8232ebe212b029c5b3a30ca54219bc287f49181e95bbb860899061193e9083906128ab565b60405180910390a150565b611951611a4e565b6001600160a01b031661196261149d565b6001600160a01b0316146119885760405162461bcd60e51b81526004016108bc90612cc0565b6001600160a01b0381166119ae5760405162461bcd60e51b81526004016108bc90612ad1565b600080546040516001600160a01b03808516939216917f8be0079c531659141344cd1fd0a4f28419497f9722a3daafe3b4186f6b6457e091a3600080546001600160a01b0319166001600160a01b0392909216919091179055565b6113448282604051602401611a1f9291906129b2565b60408051601f198184030181529190526020810180516001600160e01b03166309710a9d60e41b179052611ecb565b3390565b6001600160a01b038316611a785760405162461bcd60e51b81526004016108bc90612d7b565b6001600160a01b038216611a9e5760405162461bcd60e51b81526004016108bc90612b17565b6001600160a01b0380841660008181526002602090815260408083209487168084529490915290819020849055517f8c5be1e5ebec7d5bd14f71427d1e84f3dd0314c0f7b2291e5b200ac8c7c3b92590611af9908590612996565b60405180910390a3505050565b6001600160a01b038316611b2c5760405162461bcd60e51b81526004016108bc90612d36565b6001600160a01b038216611b525760405162461bcd60e51b81526004016108bc906129d4565b611b5d838383611eec565b6001600160a01b03831660009081526001602052604090205481811015611b965760405162461bcd60e51b81526004016108bc90612b59565b611ba082826131f5565b6001600160a01b038086166000908152600160205260408082209390935590851681529081208054849290611bd6908490612f61565b92505081905550826001600160a01b0316846001600160a01b03167fddf252ad1be2c89b69c2b068fc378daa952ba7f163c4a11628f55a4df523b3ef84604051611c209190612996565b60405180910390a350505050565b6001600160a01b0381166000908152600f602052604081205443908290611c559083613175565b9050600060116001611c668761075c565b611c70919061320c565b60ff1681548110611c9157634e487b7160e01b600052603260045260246000fd5b60009182526020909120601082040154611cbe91600f166002026101000a9004600190810b900b83613175565b90506000811315611ce5576001600160a01b0385166000908152600f602052604090208390555b505050919050565b611cf5611348565b611d115760405162461bcd60e51b81526004016108bc90612a17565b6006805460ff191690557f5db9ee0a495bf2e6ff9c91a7834c1ba4fdd244a5e8aa4e537bd38aeae4b073aa611d44611a4e565b604051611d5191906128ab565b60405180910390a1565b60026007541415611d7e5760405162461bcd60e51b81526004016108bc90612dbf565b60026007556000611d8e82610fa8565b90506000612710611db3611da1336117ec565b611dae9060010b85613053565b611ef1565b611dbd9190612f9e565b90506000611dcb8284612f20565b90506000841315611df057611de1338683611f0d565b611deb85856121c7565b611e05565b611dfa3385612287565b611e05338685611f0d565b82600b6000828254611e179190612f61565b909155507fe9ca761e98082e26fe7f4d718e4be22598bd25171542bfcfae1f932e13179cd49050338686611e4a8561329e565b86604051611e5c9594939291906128bf565b60405180910390a150506001600755505050565b611e78611348565b15611e955760405162461bcd60e51b81526004016108bc90612c20565b6006805460ff191660011790557f62e78cea01bee320cd4e420270b5ea74000d11b0c9f74754ebdbfc544b05a258611d44611a4e565b80516a636f6e736f6c652e6c6f67602083016000808483855afa5050505050565b505050565b600080821215611f0957611f048261329e565b6118ae565b5090565b60008113156120d1576009546040516323b872dd60e01b81526001600160a01b03909116906323b872dd90611f4a908690309086906004016128f0565b602060405180830381600087803b158015611f6457600080fd5b505af1158015611f78573d6000803e3d6000fd5b505050506040513d601f19601f82011682018060405250810190611f9c91906127ee565b5060095460085460405163095ea7b360e01b81526001600160a01b039283169263095ea7b392611fd3929116908590600401612914565b602060405180830381600087803b158015611fed57600080fd5b505af1158015612001573d6000803e3d6000fd5b505050506040513d601f19601f8201168201806040525081019061202591906127ee565b5060085460095460405163e8eda9df60e01b81526001600160a01b039283169263e8eda9df926120619291169085903090600090600401612950565b600060405180830381600087803b15801561207b57600080fd5b505af115801561208f573d6000803e3d6000fd5b505050507f96a06dd751c9aee3cbe69bcfe31505e68da315871c459fd3467debfd76a901e981846040516120c4929190612e9f565b60405180910390a1611eec565b600854600954604051631a4ca37b60e21b81526001600160a01b03928316926369328dec92612109929116908590309060040161292d565b602060405180830381600087803b15801561212357600080fd5b505af1158015612137573d6000803e3d6000fd5b505050506040513d601f19601f8201168201806040525081019061215b9190612826565b507fa605ade827572a0d40ee9676d8a1bcdf38fdd902413c655c283bbbba576867ba818360405161218d929190612e9f565b60405180910390a160095460405163a9059cbb60e01b81526001600160a01b039091169063a9059cbb906111319085908590600401612914565b6001600160a01b0382166121ed5760405162461bcd60e51b81526004016108bc90612e3b565b6121f960008383611eec565b806003600082825461220b9190612f61565b90915550506001600160a01b03821660009081526001602052604081208054839290612238908490612f61565b90915550506040516001600160a01b038316906000907fddf252ad1be2c89b69c2b068fc378daa952ba7f163c4a11628f55a4df523b3ef9061227b908590612996565b60405180910390a35050565b6001600160a01b0382166122ad5760405162461bcd60e51b81526004016108bc90612cf5565b6122b982600083611eec565b6001600160a01b038216600090815260016020526040902054818110156122f25760405162461bcd60e51b81526004016108bc90612a45565b6122fc82826131f5565b6001600160a01b0384166000908152600160205260408120919091556003805484929061232a9084906131f5565b90915550506040516000906001600160a01b038516907fddf252ad1be2c89b69c2b068fc378daa952ba7f163c4a11628f55a4df523b3ef90611af9908690612996565b82805482825590600052602060002090600f016010900481019282156124095791602002820160005b838211156123d957835183826101000a81548161ffff021916908360010b61ffff1602179055509260200192600201602081600101049283019260010302612396565b80156124075782816101000a81549061ffff02191690556002016020816001010492830192600103026123d9565b505b50611f09929150612549565b82805482825590600052602060002090601f016020900481019282156124095791602002820160005b8382111561247f57835183826101000a81548160ff021916908360000b60ff160217905550926020019260010160208160000104928301926001030261243e565b80156124075782816101000a81549060ff021916905560010160208160000104928301926001030261247f565b828054828255906000526020600020906007016008900481019282156124095791602002820160005b8382111561251957835183826101000a81548163ffffffff021916908363ffffffff16021790555092602001926004016020816003010492830192600103026124d5565b80156124075782816101000a81549063ffffffff0219169055600401602081600301049283019260010302612519565b5b80821115611f09576000815560010161254a565b80356001600160a01b038116811461085b57600080fd5b600060208284031215612586578081fd5b6115638261255e565b600080604083850312156125a1578081fd5b6125aa8361255e565b91506125b86020840161255e565b90509250929050565b6000806000606084860312156125d5578081fd5b6125de8461255e565b92506125ec6020850161255e565b9150604084013590509250925092565b6000806040838503121561260e578182fd5b6126178361255e565b946020939093013593505050565b60006020808385031215612637578182fd5b823567ffffffffffffffff81111561264d578283fd5b8301601f8101851361265d578283fd5b803561267061266b82612efc565b612ed2565b818152838101908385018584028501860189101561268c578687fd5b8694505b838510156126bc5780358060010b81146126a8578788fd5b835260019490940193918501918501612690565b50979650505050505050565b600060208083850312156126da578182fd5b823567ffffffffffffffff8111156126f0578283fd5b8301601f81018513612700578283fd5b803561270e61266b82612efc565b818152838101908385018584028501860189101561272a578687fd5b8694505b838510156126bc57803580880b8114612745578788fd5b83526001949094019391850191850161272e565b6000602080838503121561276b578182fd5b823567ffffffffffffffff811115612781578283fd5b8301601f81018513612791578283fd5b803561279f61266b82612efc565b81815283810190838501858402850186018910156127bb578687fd5b8694505b838510156126bc57803563ffffffff811681146127da578788fd5b8352600194909401939185019185016127bf565b6000602082840312156127ff578081fd5b81518015158114611563578182fd5b60006020828403121561281f578081fd5b5035919050565b600060208284031215612837578081fd5b5051919050565b60008060408385031215612850578182fd5b823591506125b86020840161255e565b60008151808452815b8181101561288557602081850181015186830182015201612869565b818111156128965782602083870101525b50601f01601f19169290920160200192915050565b6001600160a01b0391909116815260200190565b6001600160a01b03958616815293909416602084015260408301919091526060820152608081019190915260a00190565b6001600160a01b039384168152919092166020820152604081019190915260600190565b6001600160a01b03929092168252602082015260400190565b6001600160a01b0393841681526020810192909252909116604082015260600190565b6001600160a01b03948516815260208101939093529216604082015261ffff909116606082015260800190565b901515815260200190565b60019190910b815260200190565b90815260200190565b6000602082526115636020830184612860565b6000604082526129c56040830185612860565b90508260208301529392505050565b60208082526023908201527f45524332303a207472616e7366657220746f20746865207a65726f206164647260408201526265737360e81b606082015260800190565b60208082526014908201527314185d5cd8589b194e881b9bdd081c185d5cd95960621b604082015260600190565b60208082526022908201527f45524332303a206275726e20616d6f756e7420657863656564732062616c616e604082015261636560f01b606082015260800190565b6020808252602a908201527f446973636f756e74206c6576656c2077697468647261772074696d656f75742060408201526934b71032b33332b1ba1760b11b606082015260800190565b60208082526026908201527f4f776e61626c653a206e6577206f776e657220697320746865207a65726f206160408201526564647265737360d01b606082015260800190565b60208082526022908201527f45524332303a20617070726f766520746f20746865207a65726f206164647265604082015261737360f01b606082015260800190565b60208082526026908201527f45524332303a207472616e7366657220616d6f756e7420657863656564732062604082015265616c616e636560d01b606082015260800190565b6020808252602a908201527f416e74692d666c6173686c6f616e2077697468647261772074696d656f75742060408201526934b71032b33332b1ba1760b11b606082015260800190565b60208082526017908201527f496e73756666696369656e742042656e6a616d696e732e000000000000000000604082015260600190565b60208082526010908201526f14185d5cd8589b194e881c185d5cd95960821b604082015260600190565b6020808252601490820152732132b73530b6b4b7399034b9903830bab9b2b21760611b604082015260600190565b60208082526028908201527f45524332303a207472616e7366657220616d6f756e74206578636565647320616040820152676c6c6f77616e636560c01b606082015260800190565b6020808252818101527f4f776e61626c653a2063616c6c6572206973206e6f7420746865206f776e6572604082015260600190565b60208082526021908201527f45524332303a206275726e2066726f6d20746865207a65726f206164647265736040820152607360f81b606082015260800190565b60208082526025908201527f45524332303a207472616e736665722066726f6d20746865207a65726f206164604082015264647265737360d81b606082015260800190565b60208082526024908201527f45524332303a20617070726f76652066726f6d20746865207a65726f206164646040820152637265737360e01b606082015260800190565b6020808252601f908201527f5265656e7472616e637947756172643a207265656e7472616e742063616c6c00604082015260600190565b60208082526025908201527f45524332303a2064656372656173656420616c6c6f77616e63652062656c6f77604082015264207a65726f60d81b606082015260800190565b6020808252601f908201527f45524332303a206d696e7420746f20746865207a65726f206164647265737300604082015260600190565b60208082526013908201527224b739bab33334b1b4b2b73a10333ab732399760691b604082015260600190565b9182526001600160a01b0316602082015260400190565b918252602082015260400190565b60ff91909116815260200190565b60405181810167ffffffffffffffff81118282101715612ef457612ef46132e4565b604052919050565b600067ffffffffffffffff821115612f1657612f166132e4565b5060209081020190565b600080821280156001600160ff1b0384900385131615612f4257612f426132b8565b600160ff1b8390038412811615612f5b57612f5b6132b8565b50500190565b60008219821115612f7457612f746132b8565b500190565b600060ff821660ff84168060ff03821115612f9657612f966132b8565b019392505050565b600082612fad57612fad6132ce565b600160ff1b821460001984141615612fc757612fc76132b8565b500590565b60008160010b8360010b617fff83821384841383830485118282161615612ff557612ff56132b8565b617fff1986851282811687830587121615613012576130126132b8565b87871292508582058712848416161561302d5761302d6132b8565b85850587128184161615613043576130436132b8565b5050509290910295945050505050565b60006001600160ff1b0381841382841380821686840486111615613079576130796132b8565b600160ff1b84871282811687830589121615613097576130976132b8565b8587129250878205871284841616156130b2576130b26132b8565b878505871281841616156130c8576130c86132b8565b505050929093029392505050565b600081810b83820b82811383831382607f04841182821616156130fb576130fb6132b8565b607f1985841282811686830586121615613117576131176132b8565b868612925084820586128484161615613132576131326132b8565b84607f0586128184161615613149576131496132b8565b5050509102949350505050565b6000816000190483118215151615613170576131706132b8565b500290565b60008083128015600160ff1b850184121615613193576131936132b8565b6001600160ff1b03840183138116156131ae576131ae6132b8565b50500390565b600081810b83820b8281128015607f198301841216156131d6576131d66132b8565b81607f0183138116156131eb576131eb6132b8565b5090039392505050565b600082821015613207576132076132b8565b500390565b600060ff821660ff841680821015613226576132266132b8565b90039392505050565b60028104600182168061324357607f821691505b6020821081141561326457634e487b7160e01b600052602260045260246000fd5b50919050565b600060ff821660ff811415613281576132816132b8565b60010192915050565b600082613299576132996132ce565b500790565b6000600160ff1b8214156132b4576132b46132b8565b0390565b634e487b7160e01b600052601160045260246000fd5b634e487b7160e01b600052601260045260246000fd5b634e487b7160e01b600052604160045260246000fdfea264697066735822122024e90875e7376726dfaef362ce4115b0d264f80241dc7a30da6a6b78e19352f364736f6c63430008000033",
  "linkReferences": {},
  "deployedLinkReferences": {}
}