{
  "_format": "hh-sol-artifact-1",
  "contractName": "Benjamins",
  "sourceName": "contracts/Benjamins.sol",
  "abi": [
    {
      "inputs": [],
      "stateMutability": "nonpayable",
      "type": "constructor"
    },
    {
      "anonymous": false,
      "inputs": [
        {
          "indexed": true,
          "internalType": "address",
          "name": "owner",
          "type": "address"
        },
        {
          "indexed": true,
          "internalType": "address",
          "name": "spender",
          "type": "address"
        },
        {
          "indexed": false,
          "internalType": "uint256",
          "name": "value",
          "type": "uint256"
        }
      ],
      "name": "Approval",
      "type": "event"
    },
    {
      "anonymous": false,
      "inputs": [
        {
          "indexed": false,
          "internalType": "uint256",
          "name": "amountUSDCin6dec",
          "type": "uint256"
        },
        {
          "indexed": false,
          "internalType": "address",
          "name": "payer",
          "type": "address"
        }
      ],
      "name": "LendingPoolDeposit",
      "type": "event"
    },
    {
      "anonymous": false,
      "inputs": [
        {
          "indexed": false,
          "internalType": "uint256",
          "name": "amountUSDCBeforeFeein6dec",
          "type": "uint256"
        },
        {
          "indexed": false,
          "internalType": "address",
          "name": "payee",
          "type": "address"
        }
      ],
      "name": "LendingPoolWithdrawal",
      "type": "event"
    },
    {
      "anonymous": false,
      "inputs": [
        {
          "indexed": true,
          "internalType": "address",
          "name": "previousOwner",
          "type": "address"
        },
        {
          "indexed": true,
          "internalType": "address",
          "name": "newOwner",
          "type": "address"
        }
      ],
      "name": "OwnershipTransferred",
      "type": "event"
    },
    {
      "anonymous": false,
      "inputs": [
        {
          "indexed": false,
          "internalType": "address",
          "name": "account",
          "type": "address"
        }
      ],
      "name": "Paused",
      "type": "event"
    },
    {
      "anonymous": false,
      "inputs": [
        {
          "indexed": true,
          "internalType": "address",
          "name": "from",
          "type": "address"
        },
        {
          "indexed": true,
          "internalType": "address",
          "name": "to",
          "type": "address"
        },
        {
          "indexed": false,
          "internalType": "uint256",
          "name": "value",
          "type": "uint256"
        }
      ],
      "name": "Transfer",
      "type": "event"
    },
    {
      "anonymous": false,
      "inputs": [
        {
          "indexed": false,
          "internalType": "address",
          "name": "account",
          "type": "address"
        }
      ],
      "name": "Unpaused",
      "type": "event"
    },
    {
      "anonymous": false,
      "inputs": [
        {
          "indexed": false,
          "internalType": "address",
          "name": "fromAddress",
          "type": "address"
        },
        {
          "indexed": false,
          "internalType": "address",
          "name": "toAddress",
          "type": "address"
        },
        {
          "indexed": false,
          "internalType": "uint256",
          "name": "inTokens",
          "type": "uint256"
        },
        {
          "indexed": false,
          "internalType": "uint256",
          "name": "beforeFeeUSDCin6dec",
          "type": "uint256"
        },
        {
          "indexed": false,
          "internalType": "uint256",
          "name": "feeUSDCin6dec",
          "type": "uint256"
        }
      ],
      "name": "exchanged",
      "type": "event"
    },
    {
      "anonymous": false,
      "inputs": [
        {
          "indexed": false,
          "internalType": "address",
          "name": "account",
          "type": "address"
        }
      ],
      "name": "newDepositAccount",
      "type": "event"
    },
    {
      "anonymous": false,
      "inputs": [
        {
          "indexed": false,
          "internalType": "address",
          "name": "beneficiary",
          "type": "address"
        }
      ],
      "name": "newFeeReceiver",
      "type": "event"
    },
    {
      "anonymous": false,
      "inputs": [
        {
          "indexed": false,
          "internalType": "uint256",
          "name": "availableIn6dec",
          "type": "uint256"
        },
        {
          "indexed": false,
          "internalType": "uint256",
          "name": "amountUSDCin6dec",
          "type": "uint256"
        }
      ],
      "name": "profitTaken",
      "type": "event"
    },
    {
      "inputs": [
        {
          "internalType": "address",
          "name": "owner",
          "type": "address"
        },
        {
          "internalType": "address",
          "name": "spender",
          "type": "address"
        }
      ],
      "name": "allowance",
      "outputs": [
        {
          "internalType": "uint256",
          "name": "",
          "type": "uint256"
        }
      ],
      "stateMutability": "view",
      "type": "function"
    },
    {
      "inputs": [
        {
          "internalType": "address",
          "name": "spender",
          "type": "address"
        },
        {
          "internalType": "uint256",
          "name": "amount",
          "type": "uint256"
        }
      ],
      "name": "approve",
      "outputs": [
        {
          "internalType": "bool",
          "name": "",
          "type": "bool"
        }
      ],
      "stateMutability": "nonpayable",
      "type": "function"
    },
    {
      "inputs": [
        {
          "internalType": "address",
          "name": "account",
          "type": "address"
        }
      ],
      "name": "balanceOf",
      "outputs": [
        {
          "internalType": "uint256",
          "name": "",
          "type": "uint256"
        }
      ],
      "stateMutability": "view",
      "type": "function"
    },
    {
      "inputs": [
        {
          "internalType": "uint256",
          "name": "_amount",
          "type": "uint256"
        }
      ],
      "name": "burn",
      "outputs": [],
      "stateMutability": "nonpayable",
      "type": "function"
    },
    {
      "inputs": [
        {
          "internalType": "uint256",
          "name": "_amount",
          "type": "uint256"
        },
        {
          "internalType": "address",
          "name": "_toWhom",
          "type": "address"
        }
      ],
      "name": "burnTo",
      "outputs": [],
      "stateMutability": "nonpayable",
      "type": "function"
    },
    {
      "inputs": [],
      "name": "decimals",
      "outputs": [
        {
          "internalType": "uint8",
          "name": "",
          "type": "uint8"
        }
      ],
      "stateMutability": "view",
      "type": "function"
    },
    {
      "inputs": [
        {
          "internalType": "address",
          "name": "spender",
          "type": "address"
        },
        {
          "internalType": "uint256",
          "name": "subtractedValue",
          "type": "uint256"
        }
      ],
      "name": "decreaseAllowance",
      "outputs": [
        {
          "internalType": "bool",
          "name": "",
          "type": "bool"
        }
      ],
      "stateMutability": "nonpayable",
      "type": "function"
    },
    {
      "inputs": [
        {
          "internalType": "address",
          "name": "_whom",
          "type": "address"
        }
      ],
      "name": "discountLevel",
      "outputs": [
        {
          "internalType": "uint8",
          "name": "",
          "type": "uint8"
        }
      ],
      "stateMutability": "view",
      "type": "function"
    },
    {
      "inputs": [
        {
          "internalType": "address",
          "name": "spender",
          "type": "address"
        },
        {
          "internalType": "uint256",
          "name": "addedValue",
          "type": "uint256"
        }
      ],
      "name": "increaseAllowance",
      "outputs": [
        {
          "internalType": "bool",
          "name": "",
          "type": "bool"
        }
      ],
      "stateMutability": "nonpayable",
      "type": "function"
    },
    {
      "inputs": [
        {
          "internalType": "uint256",
          "name": "_amount",
          "type": "uint256"
        }
      ],
      "name": "mint",
      "outputs": [],
      "stateMutability": "nonpayable",
      "type": "function"
    },
    {
      "inputs": [
        {
          "internalType": "uint256",
          "name": "_amount",
          "type": "uint256"
        },
        {
          "internalType": "address",
          "name": "_toWhom",
          "type": "address"
        }
      ],
      "name": "mintTo",
      "outputs": [],
      "stateMutability": "nonpayable",
      "type": "function"
    },
    {
      "inputs": [],
      "name": "name",
      "outputs": [
        {
          "internalType": "string",
          "name": "",
          "type": "string"
        }
      ],
      "stateMutability": "view",
      "type": "function"
    },
    {
      "inputs": [],
      "name": "owner",
      "outputs": [
        {
          "internalType": "address",
          "name": "",
          "type": "address"
        }
      ],
      "stateMutability": "view",
      "type": "function"
    },
    {
      "inputs": [],
      "name": "pause",
      "outputs": [],
      "stateMutability": "nonpayable",
      "type": "function"
    },
    {
      "inputs": [],
      "name": "paused",
      "outputs": [
        {
          "internalType": "bool",
          "name": "",
          "type": "bool"
        }
      ],
      "stateMutability": "view",
      "type": "function"
    },
    {
      "inputs": [],
      "name": "polygonAMUSDC",
      "outputs": [
        {
          "internalType": "contract IERC20",
          "name": "",
          "type": "address"
        }
      ],
      "stateMutability": "view",
      "type": "function"
    },
    {
      "inputs": [],
      "name": "polygonLendingPool",
      "outputs": [
        {
          "internalType": "contract ILendingPool",
          "name": "",
          "type": "address"
        }
      ],
      "stateMutability": "view",
      "type": "function"
    },
    {
      "inputs": [],
      "name": "polygonUSDC",
      "outputs": [
        {
          "internalType": "contract IERC20",
          "name": "",
          "type": "address"
        }
      ],
      "stateMutability": "view",
      "type": "function"
    },
    {
      "inputs": [
        {
          "internalType": "address",
          "name": "forWhom",
          "type": "address"
        }
      ],
      "name": "quoteFeePercentage",
      "outputs": [
        {
          "internalType": "uint16",
          "name": "",
          "type": "uint16"
        }
      ],
      "stateMutability": "view",
      "type": "function"
    },
    {
      "inputs": [
        {
          "internalType": "uint256",
          "name": "_amount",
          "type": "uint256"
        },
        {
          "internalType": "bool",
          "name": "isMint",
          "type": "bool"
        }
      ],
      "name": "quoteUSDC",
      "outputs": [
        {
          "internalType": "uint256",
          "name": "",
          "type": "uint256"
        }
      ],
      "stateMutability": "view",
      "type": "function"
    },
    {
      "inputs": [],
      "name": "renounceOwnership",
      "outputs": [],
      "stateMutability": "nonpayable",
      "type": "function"
    },
    {
      "inputs": [
        {
          "internalType": "address",
          "name": "ERC20ContractAddress",
          "type": "address"
        }
      ],
      "name": "scavengeERC20Tip",
      "outputs": [],
      "stateMutability": "nonpayable",
      "type": "function"
    },
    {
      "inputs": [
        {
          "internalType": "address",
          "name": "beneficiary",
          "type": "address"
        }
      ],
      "name": "setFeeReceiver",
      "outputs": [],
      "stateMutability": "nonpayable",
      "type": "function"
    },
    {
      "inputs": [],
      "name": "symbol",
      "outputs": [
        {
          "internalType": "string",
          "name": "",
          "type": "string"
        }
      ],
      "stateMutability": "view",
      "type": "function"
    },
    {
      "inputs": [],
      "name": "totalSupply",
      "outputs": [
        {
          "internalType": "uint256",
          "name": "",
          "type": "uint256"
        }
      ],
      "stateMutability": "view",
      "type": "function"
    },
    {
      "inputs": [
        {
          "internalType": "address",
          "name": "recipient",
          "type": "address"
        },
        {
          "internalType": "uint256",
          "name": "amount",
          "type": "uint256"
        }
      ],
      "name": "transfer",
      "outputs": [
        {
          "internalType": "bool",
          "name": "",
          "type": "bool"
        }
      ],
      "stateMutability": "nonpayable",
      "type": "function"
    },
    {
      "inputs": [
        {
          "internalType": "address",
          "name": "sender",
          "type": "address"
        },
        {
          "internalType": "address",
          "name": "recipient",
          "type": "address"
        },
        {
          "internalType": "uint256",
          "name": "amountBNJIs",
          "type": "uint256"
        }
      ],
      "name": "transferFrom",
      "outputs": [
        {
          "internalType": "bool",
          "name": "",
          "type": "bool"
        }
      ],
      "stateMutability": "nonpayable",
      "type": "function"
    },
    {
      "inputs": [
        {
          "internalType": "address",
          "name": "newOwner",
          "type": "address"
        }
      ],
      "name": "transferOwnership",
      "outputs": [],
      "stateMutability": "nonpayable",
      "type": "function"
    },
    {
      "inputs": [],
      "name": "unpause",
      "outputs": [],
      "stateMutability": "nonpayable",
      "type": "function"
    },
    {
      "inputs": [
        {
          "internalType": "uint256",
          "name": "amountToApprove",
          "type": "uint256"
        }
      ],
      "name": "updateApproveLendingPool",
      "outputs": [],
      "stateMutability": "nonpayable",
      "type": "function"
    },
    {
      "inputs": [
        {
          "internalType": "uint256",
          "name": "newAmountOfBlocksPerDay",
          "type": "uint256"
        }
      ],
      "name": "updateBlocksPerDay",
      "outputs": [],
      "stateMutability": "nonpayable",
      "type": "function"
    },
    {
      "inputs": [
        {
          "internalType": "uint32[]",
          "name": "newLevelAntes",
          "type": "uint32[]"
        }
      ],
      "name": "updateLevelAntes",
      "outputs": [],
      "stateMutability": "nonpayable",
      "type": "function"
    },
    {
      "inputs": [
        {
          "internalType": "uint8[]",
          "name": "newLevelDiscounts",
          "type": "uint8[]"
        }
      ],
      "name": "updateLevelDiscounts",
      "outputs": [],
      "stateMutability": "nonpayable",
      "type": "function"
    },
    {
      "inputs": [
        {
          "internalType": "uint16[]",
          "name": "newLevelHolds",
          "type": "uint16[]"
        }
      ],
      "name": "updateLevelHolds",
      "outputs": [],
      "stateMutability": "nonpayable",
      "type": "function"
    },
    {
      "inputs": [
        {
          "internalType": "address",
          "name": "newAddress",
          "type": "address"
        }
      ],
      "name": "updatePolygonAMUSDC",
      "outputs": [],
      "stateMutability": "nonpayable",
      "type": "function"
    },
    {
      "inputs": [
        {
          "internalType": "address",
          "name": "newAddress",
          "type": "address"
        }
      ],
      "name": "updatePolygonLendingPool",
      "outputs": [],
      "stateMutability": "nonpayable",
      "type": "function"
    },
    {
      "inputs": [
        {
          "internalType": "address",
          "name": "newAddress",
          "type": "address"
        }
      ],
      "name": "updatePolygonUSDC",
      "outputs": [],
      "stateMutability": "nonpayable",
      "type": "function"
    },
    {
      "inputs": [
        {
          "internalType": "uint256",
          "name": "_amountIn6dec",
          "type": "uint256"
        }
      ],
      "name": "withdrawGains",
      "outputs": [],
      "stateMutability": "nonpayable",
      "type": "function"
    },
    {
      "stateMutability": "payable",
      "type": "receive"
    }
  ],
  "bytecode": "0x6080604052620f4240600d556013805460ff19908116600a179091556002601455620c35006015556016805490911660011790553480156200004057600080fd5b506040518060400160405280600981526020016842656e6a616d696e7360b81b81525060405180604001604052806004815260200163424e4a4960e01b8152506000620000926200028660201b60201c565b600080546001600160a01b0319166001600160a01b0383169081178255604051929350917f8be0079c531659141344cd1fd0a4f28419497f9722a3daafe3b4186f6b6457e0908290a3508151620000f190600490602085019062000378565b5080516200010790600590602084019062000378565b50506006805460ff199081169091556001600755600e80549091169055506000600b55600c80546001600160a01b031990811673e51c8401fe1e70f78bbd3ac660692597d33dbaff17909155600980548216732791bca1f2de4661ed88a30c99a7a9449aa84174179055600a80548216731a13f4ca1d028320a707d99520abfefca3998b7f17905560088054909116738dff5e27ea6b7ac08ebfdf9eb090f32ee9a30fcf1790556040805160a08101825260148152603c60208201526064918101919091526101f460608201526107d06080820152620001ec90601090600562000407565b506040805160c0810182526000815260026020820152600791810191909152601e6060820152605a608082015261016860a082015262000231906011906006620004b6565b506040805160c0810182526000815260056020820152600a918101919091526014606082015260286080820152604b60a08201526200027590601290600662000552565b50620002806200028a565b620006b2565b3390565b6200029462000286565b6001600160a01b0316620002a7620002e5565b6001600160a01b031614620002d95760405162461bcd60e51b8152600401620002d09062000640565b60405180910390fd5b620002e3620002f4565b565b6000546001600160a01b031690565b620002fe6200036f565b156200031e5760405162461bcd60e51b8152600401620002d09062000616565b6006805460ff191660011790557f62e78cea01bee320cd4e420270b5ea74000d11b0c9f74754ebdbfc544b05a2586200035662000286565b60405162000365919062000602565b60405180910390a1565b60065460ff1690565b828054620003869062000675565b90600052602060002090601f016020900481019282620003aa5760008555620003f5565b82601f10620003c557805160ff1916838001178555620003f5565b82800160010185558215620003f5579182015b82811115620003f5578251825591602001919060010190620003d8565b5062000403929150620005eb565b5090565b82805482825590600052602060002090600701600890048101928215620003f55791602002820160005b838211156200047557835183826101000a81548163ffffffff021916908361ffff160217905550926020019260040160208160030104928301926001030262000431565b8015620004a75782816101000a81549063ffffffff021916905560040160208160030104928301926001030262000475565b505062000403929150620005eb565b82805482825590600052602060002090600f01601090048101928215620003f55791602002820160005b838211156200052257835183826101000a81548161ffff021916908361ffff1602179055509260200192600201602081600101049283019260010302620004e0565b8015620004a75782816101000a81549061ffff021916905560020160208160010104928301926001030262000522565b82805482825590600052602060002090601f01602090048101928215620003f55791602002820160005b83821115620005bc57835183826101000a81548160ff021916908360ff16021790555092602001926001016020816000010492830192600103026200057c565b8015620004a75782816101000a81549060ff0219169055600101602081600001049283019260010302620005bc565b5b80821115620004035760008155600101620005ec565b6001600160a01b0391909116815260200190565b60208082526010908201526f14185d5cd8589b194e881c185d5cd95960821b604082015260600190565b6020808252818101527f4f776e61626c653a2063616c6c6572206973206e6f7420746865206f776e6572604082015260600190565b6002810460018216806200068a57607f821691505b60208210811415620006ac57634e487b7160e01b600052602260045260246000fd5b50919050565b613c1f80620006c26000396000f3fe6080604052600436106102295760003560e01c8063715018a611610123578063b3faaf93116100ab578063d948e1041161006f578063d948e10414610628578063dd62ed3e1461063d578063ea89120b1461065d578063efdcd9741461068a578063f2fde38b146106aa57610230565b8063b3faaf9314610588578063b723b34e146105a8578063c0100143146105c8578063c6a5d5da146105e8578063cd0d95e21461060857610230565b806395d89b41116100f257806395d89b41146104f357806397b9294214610508578063a0712d6814610528578063a457c2d714610548578063a9059cbb1461056857610230565b8063715018a61461049f5780638456cb59146104b45780638da5cb5b146104c95780638fb33017146104de57610230565b806338d1692f116101b157806355ab59501161017557806355ab595014610408578063571ff20d146104285780635c975abb146104485780636c7529741461045d57806370a082311461047f57610230565b806338d1692f1461037357806339509351146103935780633f4ba83a146103b357806342966c68146103c857806347f220ae146103e857610230565b806318160ddd116101f857806318160ddd146102dc578063185cf4b5146102fe57806323b872dd1461031e578063257a00501461033e578063313ce5671461035e57610230565b806306fdde0314610235578063093f595014610260578063095ea7b31461028d57806316087315146102ba57610230565b3661023057005b600080fd5b34801561024157600080fd5b5061024a6106ca565b60405161025791906133fe565b60405180910390f35b34801561026c57600080fd5b5061028061027b366004612fb7565b61075c565b6040516102579190613960565b34801561029957600080fd5b506102ad6102a8366004613045565b610885565b60405161025791906133f3565b3480156102c657600080fd5b506102da6102d5366004612fb7565b6108a2565b005b3480156102e857600080fd5b506102f1610903565b6040516102579190613919565b34801561030a57600080fd5b506102da610319366004613255565b610909565b34801561032a57600080fd5b506102ad61033936600461300a565b610abe565b34801561034a57600080fd5b506102da610359366004612fb7565b610d71565b34801561036a57600080fd5b5061028061103a565b34801561037f57600080fd5b506102f161038e3660046132a7565b611043565b34801561039f57600080fd5b506102ad6103ae366004613045565b61118c565b3480156103bf57600080fd5b506102da6111db565b3480156103d457600080fd5b506102da6103e3366004613255565b611224565b3480156103f457600080fd5b506102da61040336600461306e565b611231565b34801561041457600080fd5b506102da610423366004612fb7565b611287565b34801561043457600080fd5b506102da610443366004613285565b6113d7565b34801561045457600080fd5b506102ad611575565b34801561046957600080fd5b5061047261157e565b6040516102579190613321565b34801561048b57600080fd5b506102f161049a366004612fb7565b61158d565b3480156104ab57600080fd5b506102da6115a8565b3480156104c057600080fd5b506102da611631565b3480156104d557600080fd5b50610472611678565b3480156104ea57600080fd5b50610472611687565b3480156104ff57600080fd5b5061024a611696565b34801561051457600080fd5b506102da6105233660046131a7565b6116a5565b34801561053457600080fd5b506102da610543366004613255565b6116f7565b34801561055457600080fd5b506102ad610563366004613045565b611701565b34801561057457600080fd5b506102ad610583366004613045565b61177c565b34801561059457600080fd5b506102da6105a3366004613112565b6119d3565b3480156105b457600080fd5b506102da6105c3366004613285565b611a25565b3480156105d457600080fd5b506102da6105e3366004612fb7565b611aec565b3480156105f457600080fd5b506102da610603366004613255565b611b4d565b34801561061457600080fd5b506102da610623366004613255565b611b91565b34801561063457600080fd5b50610472611c58565b34801561064957600080fd5b506102f1610658366004612fd8565b611c67565b34801561066957600080fd5b5061067d610678366004612fb7565b611c92565b604051610257919061390a565b34801561069657600080fd5b506102da6106a5366004612fb7565b611d97565b3480156106b657600080fd5b506102da6106c5366004612fb7565b611e2c565b6060600480546106d990613ad3565b80601f016020809104026020016040519081016040528092919081815260200182805461070590613ad3565b80156107525780601f1061072757610100808354040283529160200191610752565b820191906000526020600020905b81548152906001019060200180831161073557829003601f168201915b5050505050905090565b60006107976040518060400160405280601081526020016f2fb6b9b3a9b2b73232b914149034b99d60811b815250610792611eec565b611ef0565b61079f611575565b15806107ca57506107ae611678565b6001600160a01b03166107bf611eec565b6001600160a01b0316145b6107ef5760405162461bcd60e51b81526004016107e6906136b1565b60405180910390fd5b60006107fa8361158d565b90506000805b60105460ff8216101561087b5760108160ff168154811061083157634e487b7160e01b600052603260045260246000fd5b6000918252602090912060088204015460079091166004026101000a900463ffffffff168310610869578161086581613b0e565b9250505b8061087381613b0e565b915050610800565b509150505b919050565b6000610899610892611eec565b8484611f35565b50600192915050565b6108aa611eec565b6001600160a01b03166108bb611678565b6001600160a01b0316146108e15760405162461bcd60e51b81526004016107e6906136df565b600980546001600160a01b0319166001600160a01b0392909216919091179055565b60035490565b610911611eec565b6001600160a01b0316610922611678565b6001600160a01b0316146109485760405162461bcd60e51b81526004016107e6906136df565b600b54600a546040516370a0823160e01b8152600092916001600160a01b0316906370a082319061097d903090600401613321565b60206040518083038186803b15801561099557600080fd5b505afa1580156109a9573d6000803e3d6000fd5b505050506040513d601f19601f820116820180604052508101906109cd919061326d565b6109d79190613a99565b90508181116109f85760405162461bcd60e51b81526004016107e6906138dd565b600a54600c5460405163a9059cbb60e01b81526001600160a01b039283169263a9059cbb92610a2e92911690869060040161338a565b602060405180830381600087803b158015610a4857600080fd5b505af1158015610a5c573d6000803e3d6000fd5b505050506040513d601f19601f82011682018060405250810190610a809190613239565b507f8b9c4e1b9c860b263c59ac36417dfb6be15a01919b159407b1971058eee1e0298183604051610ab2929190613952565b60405180910390a15050565b600060026007541415610ae35760405162461bcd60e51b81526004016107e6906137de565b60026007556001600160a01b0384166000908152600f602052604081205485914391610b0f9083613a99565b60135490915060ff168111610b365760405162461bcd60e51b81526004016107e690613606565b6011610b418461075c565b60ff1681548110610b6257634e487b7160e01b600052603260045260246000fd5b90600052602060002090601091828204019190066002029054906101000a900461ffff1661ffff16601454610b979190613a12565b8111610bb55760405162461bcd60e51b81526004016107e6906134ee565b610be96040518060400160405280601081526020016f2fb6b9b3a9b2b73232b914149034b99d60811b815250610792611eec565b610bf1611575565b1580610c1c5750610c00611678565b6001600160a01b0316610c11611eec565b6001600160a01b0316145b610c385760405162461bcd60e51b81526004016107e6906136b1565b6000610c438761075c565b90506000610c5087611fe9565b600954600c546040516323b872dd60e01b81529293506001600160a01b03918216926323b872dd92610c8b928e929116908690600401613335565b602060405180830381600087803b158015610ca557600080fd5b505af1158015610cb9573d6000803e3d6000fd5b505050506040513d601f19601f82011682018060405250810190610cdd9190613239565b506000610cec8a610658611eec565b905087811015610d0e5760405162461bcd60e51b81526004016107e690613815565b610d198a8a8a612088565b610d348a610d25611eec565b610d2f8b85613a99565b611f35565b6000610d3f8a61075c565b90508360ff168160ff161115610d5a57610d588a6121b0565b505b600197505050505050506001600755509392505050565b610d79611eec565b6001600160a01b0316610d8a611678565b6001600160a01b031614610db05760405162461bcd60e51b81526004016107e6906136df565b600854600954604051631a4ca37b60e21b81526001600160a01b03928316926369328dec92610dea929116906000199030906004016133a3565b602060405180830381600087803b158015610e0457600080fd5b505af1158015610e18573d6000803e3d6000fd5b505050506040513d601f19601f82011682018060405250810190610e3c919061326d565b50600880546001600160a01b0319166001600160a01b0383161790556040517f33481e616168e187acdc90fda3d0269454b31c195cc00e4db474ca44f8d43ae890610e88908390613321565b60405180910390a16009546040516370a0823160e01b81526000916001600160a01b0316906370a0823190610ec1903090600401613321565b60206040518083038186803b158015610ed957600080fd5b505afa158015610eed573d6000803e3d6000fd5b505050506040513d601f19601f82011682018060405250810190610f11919061326d565b60095460085460405163095ea7b360e01b81529293506001600160a01b039182169263095ea7b392610f49921690859060040161338a565b602060405180830381600087803b158015610f6357600080fd5b505af1158015610f77573d6000803e3d6000fd5b505050506040513d601f19601f82011682018060405250810190610f9b9190613239565b5060085460095460405163e8eda9df60e01b81526001600160a01b039283169263e8eda9df92610fd792911690859030906000906004016133c6565b600060405180830381600087803b158015610ff157600080fd5b505af1158015611005573d6000803e3d6000fd5b505050507f96a06dd751c9aee3cbe69bcfe31505e68da315871c459fd3467debfd76a901e98130604051610ab2929190613922565b600e5460ff1690565b60006110796040518060400160405280601081526020016f2fb6b9b3a9b2b73232b914149034b99d60811b815250610792611eec565b611081611575565b15806110ac5750611090611678565b6001600160a01b03166110a1611eec565b6001600160a01b0316145b6110c85760405162461bcd60e51b81526004016107e6906136b1565b60006110d2610903565b905060006110e08280613a12565b9050600080806001871515141561111a576110fb88866139bc565b92506111078380613a12565b91506111138483613a99565b905061113f565b6111248886613a99565b92506111308380613a12565b915061113c8285613a99565b90505b6000600d548261114f9190613a12565b905060006015548261116191906139d4565b9050600061117161271083613b2e565b905061117d8183613a99565b9b9a5050505050505050505050565b6000610899611199611eec565b8484600260006111a7611eec565b6001600160a01b03908116825260208083019390935260409182016000908120918b1681529252902054610d2f91906139bc565b6111e3611eec565b6001600160a01b03166111f4611678565b6001600160a01b03161461121a5760405162461bcd60e51b81526004016107e6906136df565b61122261234e565b565b61122e81336113d7565b50565b611239611eec565b6001600160a01b031661124a611678565b6001600160a01b0316146112705760405162461bcd60e51b81526004016107e6906136df565b8051611283906011906020840190612db1565b5050565b61128f611eec565b6001600160a01b03166112a0611678565b6001600160a01b0316146112c65760405162461bcd60e51b81526004016107e6906136df565b6040516370a0823160e01b815281906000906001600160a01b038316906370a08231906112f7903090600401613321565b60206040518083038186803b15801561130f57600080fd5b505afa158015611323573d6000803e3d6000fd5b505050506040513d601f19601f82011682018060405250810190611347919061326d565b600c546040516323b872dd60e01b81529192506001600160a01b03808516926323b872dd9261137f9230929116908690600401613335565b602060405180830381600087803b15801561139957600080fd5b505af11580156113ad573d6000803e3d6000fd5b505050506040513d601f19601f820116820180604052508101906113d19190613239565b50505050565b61140b6040518060400160405280601081526020016f2fb6b9b3a9b2b73232b914149034b99d60811b815250610792611eec565b611413611575565b158061143e5750611422611678565b6001600160a01b0316611433611eec565b6001600160a01b0316145b61145a5760405162461bcd60e51b81526004016107e6906136b1565b81806114653361158d565b10156114835760405162461bcd60e51b81526004016107e690613650565b8261148f816000611043565b600b54101561149d57600080fd5b336000818152600f60205260408120544391906114ba9083613a99565b60135490915060ff1681116114e15760405162461bcd60e51b81526004016107e690613606565b60116114ec8461075c565b60ff168154811061150d57634e487b7160e01b600052603260045260246000fd5b90600052602060002090601091828204019190066002029054906101000a900461ffff1661ffff166014546115429190613a12565b81116115605760405162461bcd60e51b81526004016107e6906134ee565b61156c868860006123bc565b50505050505050565b60065460ff1690565b6009546001600160a01b031681565b6001600160a01b031660009081526001602052604090205490565b6115b0611eec565b6001600160a01b03166115c1611678565b6001600160a01b0316146115e75760405162461bcd60e51b81526004016107e6906136df565b600080546040516001600160a01b03909116907f8be0079c531659141344cd1fd0a4f28419497f9722a3daafe3b4186f6b6457e0908390a3600080546001600160a01b0319169055565b611639611eec565b6001600160a01b031661164a611678565b6001600160a01b0316146116705760405162461bcd60e51b81526004016107e6906136df565b611222612611565b6000546001600160a01b031690565b600a546001600160a01b031681565b6060600580546106d990613ad3565b6116ad611eec565b6001600160a01b03166116be611678565b6001600160a01b0316146116e45760405162461bcd60e51b81526004016107e6906136df565b8051611283906012906020840190612e5a565b61122e8133611a25565b60008060026000611710611eec565b6001600160a01b039081168252602080830193909352604091820160009081209188168152925290205490508281101561175c5760405162461bcd60e51b81526004016107e690613861565b611772611767611eec565b85610d2f8685613a99565b5060019392505050565b6000611786611eec565b6001600160a01b0381166000908152600f60205260408120544391906117ac9083613a99565b60135490915060ff1681116117d35760405162461bcd60e51b81526004016107e690613606565b60116117de8461075c565b60ff16815481106117ff57634e487b7160e01b600052603260045260246000fd5b90600052602060002090601091828204019190066002029054906101000a900461ffff1661ffff166014546118349190613a12565b81116118525760405162461bcd60e51b81526004016107e6906134ee565b6118866040518060400160405280601081526020016f2fb6b9b3a9b2b73232b914149034b99d60811b815250610792611eec565b61188e611575565b15806118b9575061189d611678565b6001600160a01b03166118ae611eec565b6001600160a01b0316145b6118d55760405162461bcd60e51b81526004016107e6906136b1565b60006118e08761075c565b905060006118ed87611fe9565b6009549091506001600160a01b03166323b872dd611909611eec565b600c546040516001600160e01b031960e085901b16815261193992916001600160a01b0316908690600401613335565b602060405180830381600087803b15801561195357600080fd5b505af1158015611967573d6000803e3d6000fd5b505050506040513d601f19601f8201168201806040525081019061198b9190613239565b5061199e611997611eec565b8989612088565b60006119a98961075c565b90508260ff168160ff1611156119c4576119c2896121b0565b505b50600198975050505050505050565b6119db611eec565b6001600160a01b03166119ec611678565b6001600160a01b031614611a125760405162461bcd60e51b81526004016107e6906136df565b8051611283906010906020840190612eee565b611a596040518060400160405280601081526020016f2fb6b9b3a9b2b73232b914149034b99d60811b815250610792611eec565b611a61611575565b1580611a8c5750611a70611678565b6001600160a01b0316611a81611eec565b6001600160a01b0316145b611aa85760405162461bcd60e51b81526004016107e6906136b1565b6000611ab38261075c565b9050611ac1828460016123bc565b6000611acc8361075c565b90508160ff168160ff1611156113d157611ae5836121b0565b5050505050565b611af4611eec565b6001600160a01b0316611b05611678565b6001600160a01b031614611b2b5760405162461bcd60e51b81526004016107e6906136df565b600a80546001600160a01b0319166001600160a01b0392909216919091179055565b611b55611eec565b6001600160a01b0316611b66611678565b6001600160a01b031614611b8c5760405162461bcd60e51b81526004016107e6906136df565b601455565b611b99611eec565b6001600160a01b0316611baa611678565b6001600160a01b031614611bd05760405162461bcd60e51b81526004016107e6906136df565b60095460085460405163095ea7b360e01b81526001600160a01b039283169263095ea7b392611c0692911690859060040161338a565b602060405180830381600087803b158015611c2057600080fd5b505af1158015611c34573d6000803e3d6000fd5b505050506040513d601f19601f820116820180604052508101906112839190613239565b6008546001600160a01b031681565b6001600160a01b03918216600090815260026020908152604080832093909416825291909152205490565b6000611cc86040518060400160405280601081526020016f2fb6b9b3a9b2b73232b914149034b99d60811b815250610792611eec565b611cd0611575565b1580611cfb5750611cdf611678565b6001600160a01b0316611cf0611eec565b6001600160a01b0316145b611d175760405162461bcd60e51b81526004016107e6906136b1565b6012611d228361075c565b60ff1681548110611d4357634e487b7160e01b600052603260045260246000fd5b90600052602060002090602091828204019190069054906101000a900460ff166064611d6f9190613ab0565b60165460ff91821691611d8491166064613a31565b60ff16611d9191906139e8565b92915050565b611d9f611eec565b6001600160a01b0316611db0611678565b6001600160a01b031614611dd65760405162461bcd60e51b81526004016107e6906136df565b600c80546001600160a01b0319166001600160a01b0383161790556040517fa574362825e0eb8232ebe212b029c5b3a30ca54219bc287f49181e95bbb8608990611e21908390613321565b60405180910390a150565b611e34611eec565b6001600160a01b0316611e45611678565b6001600160a01b031614611e6b5760405162461bcd60e51b81526004016107e6906136df565b6001600160a01b038116611e915760405162461bcd60e51b81526004016107e690613538565b600080546040516001600160a01b03808516939216917f8be0079c531659141344cd1fd0a4f28419497f9722a3daafe3b4186f6b6457e091a3600080546001600160a01b0319166001600160a01b0392909216919091179055565b3390565b6112838282604051602401611f06929190613411565b60408051601f198184030181529190526020810180516001600160e01b031663319af33360e01b17905261266c565b6001600160a01b038316611f5b5760405162461bcd60e51b81526004016107e69061379a565b6001600160a01b038216611f815760405162461bcd60e51b81526004016107e69061357e565b6001600160a01b0380841660008181526002602090815260408083209487168084529490915290819020849055517f8c5be1e5ebec7d5bd14f71427d1e84f3dd0314c0f7b2291e5b200ac8c7c3b92590611fdc908590613919565b60405180910390a3505050565b600080611ff7836000611043565b905061201b816040518060600160405280602c8152602001613bbe602c913961268d565b6000620f424061202a33611c92565b6120389061ffff1684613a12565b61204291906139d4565b9050600061205261271083613b2e565b61205c9083613a99565b9050612080816040518060600160405280602b8152602001613b93602b913961268d565b949350505050565b6001600160a01b0383166120ae5760405162461bcd60e51b81526004016107e690613755565b6001600160a01b0382166120d45760405162461bcd60e51b81526004016107e69061343b565b6120df8383836126d2565b6001600160a01b038316600090815260016020526040902054818110156121185760405162461bcd60e51b81526004016107e6906135c0565b6121228282613a99565b6001600160a01b0380861660009081526001602052604080822093909355908516815290812080548492906121589084906139bc565b92505081905550826001600160a01b0316846001600160a01b03167fddf252ad1be2c89b69c2b068fc378daa952ba7f163c4a11628f55a4df523b3ef846040516121a29190613919565b60405180910390a350505050565b60006121e66040518060400160405280601081526020016f2fb6b9b3a9b2b73232b914149034b99d60811b815250610792611eec565b6121ee611575565b158061221957506121fd611678565b6001600160a01b031661220e611eec565b6001600160a01b0316145b6122355760405162461bcd60e51b81526004016107e6906136b1565b6001600160a01b0382166000908152600f602052604081205443919061225b9083613a99565b90506000601161226a8661075c565b60ff168154811061228b57634e487b7160e01b600052603260045260246000fd5b60009182526020909120601082040154600f9091166002026101000a900461ffff169050801561231257601160016122c28761075c565b6122cc9190613ab0565b60ff16815481106122ed57634e487b7160e01b600052603260045260246000fd5b60009182526020909120601082040154600f9091166002026101000a900461ffff1690505b600061231e8284613a5a565b90506000811315612345576001600160a01b0386166000908152600f602052604090208490555b50505050919050565b612356611575565b6123725760405162461bcd60e51b81526004016107e69061347e565b6006805460ff191690557f5db9ee0a495bf2e6ff9c91a7834c1ba4fdd244a5e8aa4e537bd38aeae4b073aa6123a5611eec565b6040516123b29190613321565b60405180910390a1565b6123f06040518060400160405280601081526020016f2fb6b9b3a9b2b73232b914149034b99d60811b815250610792611eec565b6123f8611575565b15806124235750612407611678565b6001600160a01b0316612418611eec565b6001600160a01b0316145b61243f5760405162461bcd60e51b81526004016107e6906136b1565b600260075414156124625760405162461bcd60e51b81526004016107e6906137de565b60026007556000600182151514156124865761247f836001611043565b9050612494565b612491836000611043565b90505b6124d3816040518060400160405280601a81526020017f424e4a2c206265666f7265466565496e55534443696e3664656300000000000081525061268d565b6000620f42406124e233611c92565b6124f09061ffff1684613a12565b6124fa91906139d4565b9050600061250a61271083613b2e565b6125149083613a99565b9050612555816040518060400160405280601981526020017f424e4a2c20666565526f756e646564446f776e496e366465630000000000000081525061268d565b600184151514156125955761256e3387858460016126d7565b6125788686612c0b565b82600b600082825461258a91906139bc565b909155506125c59050565b61259f3386612ccb565b6125ad3387858460006126d7565b82600b60008282546125bf9190613a99565b90915550505b7faa1840ad2b124c68a39cd301fc5f80ad593b05a52c5344a787f2762ace6dea3433878786856040516125fc959493929190613359565b60405180910390a15050600160075550505050565b612619611575565b156126365760405162461bcd60e51b81526004016107e690613687565b6006805460ff191660011790557f62e78cea01bee320cd4e420270b5ea74000d11b0c9f74754ebdbfc544b05a2586123a5611eec565b80516a636f6e736f6c652e6c6f67602083016000808483855afa5050505050565b61128382826040516024016126a3929190613939565b60408051601f198184030181529190526020810180516001600160e01b0316630fa3f34560e01b17905261266c565b505050565b61270b6040518060400160405280601081526020016f2fb6b9b3a9b2b73232b914149034b99d60811b815250610792611eec565b612713611575565b158061273e5750612722611678565b6001600160a01b0316612733611eec565b6001600160a01b0316145b61275a5760405162461bcd60e51b81526004016107e6906136b1565b600181151514156129f257600061277183856139bc565b90506127ad8160405180604001604052806018815260200177424e4a2c205f616674657246656555534443696e3664656360401b81525061268d565b6009546040516323b872dd60e01b81526001600160a01b03909116906323b872dd906127e190899030908690600401613335565b602060405180830381600087803b1580156127fb57600080fd5b505af115801561280f573d6000803e3d6000fd5b505050506040513d601f19601f820116820180604052508101906128339190613239565b50600954600c5460405163a9059cbb60e01b81526001600160a01b039283169263a9059cbb9261286a92911690879060040161338a565b602060405180830381600087803b15801561288457600080fd5b505af1158015612898573d6000803e3d6000fd5b505050506040513d601f19601f820116820180604052508101906128bc9190613239565b5060095460085460405163095ea7b360e01b81526001600160a01b039283169263095ea7b3926128f392911690889060040161338a565b602060405180830381600087803b15801561290d57600080fd5b505af1158015612921573d6000803e3d6000fd5b505050506040513d601f19601f820116820180604052508101906129459190613239565b5060085460095460405163e8eda9df60e01b81526001600160a01b039283169263e8eda9df9261298192911690889030906000906004016133c6565b600060405180830381600087803b15801561299b57600080fd5b505af11580156129af573d6000803e3d6000fd5b505050507f96a06dd751c9aee3cbe69bcfe31505e68da315871c459fd3467debfd76a901e984876040516129e4929190613922565b60405180910390a150611ae5565b60006129fe8385613a99565b9050612a3a8160405180604001604052806018815260200177424e4a2c205f616674657246656555534443696e3664656360401b81525061268d565b600854600954604051631a4ca37b60e21b81526001600160a01b03928316926369328dec92612a7292911690889030906004016133a3565b602060405180830381600087803b158015612a8c57600080fd5b505af1158015612aa0573d6000803e3d6000fd5b505050506040513d601f19601f82011682018060405250810190612ac4919061326d565b507fa605ade827572a0d40ee9676d8a1bcdf38fdd902413c655c283bbbba576867ba8486604051612af6929190613922565b60405180910390a1600954600c5460405163a9059cbb60e01b81526001600160a01b039283169263a9059cbb92612b3492911690879060040161338a565b602060405180830381600087803b158015612b4e57600080fd5b505af1158015612b62573d6000803e3d6000fd5b505050506040513d601f19601f82011682018060405250810190612b869190613239565b5060095460405163a9059cbb60e01b81526001600160a01b039091169063a9059cbb90612bb9908890859060040161338a565b602060405180830381600087803b158015612bd357600080fd5b505af1158015612be7573d6000803e3d6000fd5b505050506040513d601f19601f8201168201806040525081019061156c9190613239565b6001600160a01b038216612c315760405162461bcd60e51b81526004016107e6906138a6565b612c3d600083836126d2565b8060036000828254612c4f91906139bc565b90915550506001600160a01b03821660009081526001602052604081208054839290612c7c9084906139bc565b90915550506040516001600160a01b038316906000907fddf252ad1be2c89b69c2b068fc378daa952ba7f163c4a11628f55a4df523b3ef90612cbf908590613919565b60405180910390a35050565b6001600160a01b038216612cf15760405162461bcd60e51b81526004016107e690613714565b612cfd826000836126d2565b6001600160a01b03821660009081526001602052604090205481811015612d365760405162461bcd60e51b81526004016107e6906134ac565b612d408282613a99565b6001600160a01b03841660009081526001602052604081209190915560038054849290612d6e908490613a99565b90915550506040516000906001600160a01b038516907fddf252ad1be2c89b69c2b068fc378daa952ba7f163c4a11628f55a4df523b3ef90611fdc908690613919565b82805482825590600052602060002090600f01601090048101928215612e4a5791602002820160005b83821115612e1a57835183826101000a81548161ffff021916908361ffff1602179055509260200192600201602081600101049283019260010302612dda565b8015612e485782816101000a81549061ffff0219169055600201602081600101049283019260010302612e1a565b505b50612e56929150612f8b565b5090565b82805482825590600052602060002090601f01602090048101928215612e4a5791602002820160005b83821115612ec157835183826101000a81548160ff021916908360ff1602179055509260200192600101602081600001049283019260010302612e83565b8015612e485782816101000a81549060ff0219169055600101602081600001049283019260010302612ec1565b82805482825590600052602060002090600701600890048101928215612e4a5791602002820160005b83821115612f5b57835183826101000a81548163ffffffff021916908363ffffffff1602179055509260200192600401602081600301049283019260010302612f17565b8015612e485782816101000a81549063ffffffff0219169055600401602081600301049283019260010302612f5b565b5b80821115612e565760008155600101612f8c565b80356001600160a01b038116811461088057600080fd5b600060208284031215612fc8578081fd5b612fd182612fa0565b9392505050565b60008060408385031215612fea578081fd5b612ff383612fa0565b915061300160208401612fa0565b90509250929050565b60008060006060848603121561301e578081fd5b61302784612fa0565b925061303560208501612fa0565b9150604084013590509250925092565b60008060408385031215613057578182fd5b61306083612fa0565b946020939093013593505050565b60006020808385031215613080578182fd5b823567ffffffffffffffff811115613096578283fd5b8301601f810185136130a6578283fd5b80356130b96130b482613998565b61396e565b81815283810190838501858402850186018910156130d5578687fd5b8694505b8385101561310657803561ffff811681146130f2578788fd5b8352600194909401939185019185016130d9565b50979650505050505050565b60006020808385031215613124578182fd5b823567ffffffffffffffff81111561313a578283fd5b8301601f8101851361314a578283fd5b80356131586130b482613998565b8181528381019083850185840285018601891015613174578687fd5b8694505b8385101561310657803563ffffffff81168114613193578788fd5b835260019490940193918501918501613178565b600060208083850312156131b9578182fd5b823567ffffffffffffffff8111156131cf578283fd5b8301601f810185136131df578283fd5b80356131ed6130b482613998565b8181528381019083850185840285018601891015613209578687fd5b8694505b8385101561310657803560ff81168114613225578788fd5b83526001949094019391850191850161320d565b60006020828403121561324a578081fd5b8151612fd181613b84565b600060208284031215613266578081fd5b5035919050565b60006020828403121561327e578081fd5b5051919050565b60008060408385031215613297578182fd5b8235915061300160208401612fa0565b600080604083850312156132b9578182fd5b8235915060208301356132cb81613b84565b809150509250929050565b60008151808452815b818110156132fb576020818501810151868301820152016132df565b8181111561330c5782602083870101525b50601f01601f19169290920160200192915050565b6001600160a01b0391909116815260200190565b6001600160a01b039384168152919092166020820152604081019190915260600190565b6001600160a01b03958616815293909416602084015260408301919091526060820152608081019190915260a00190565b6001600160a01b03929092168252602082015260400190565b6001600160a01b0393841681526020810192909252909116604082015260600190565b6001600160a01b03948516815260208101939093529216604082015261ffff909116606082015260800190565b901515815260200190565b600060208252612fd160208301846132d6565b60006040825261342460408301856132d6565b905060018060a01b03831660208301529392505050565b60208082526023908201527f45524332303a207472616e7366657220746f20746865207a65726f206164647260408201526265737360e81b606082015260800190565b60208082526014908201527314185d5cd8589b194e881b9bdd081c185d5cd95960621b604082015260600190565b60208082526022908201527f45524332303a206275726e20616d6f756e7420657863656564732062616c616e604082015261636560f01b606082015260800190565b6020808252602a908201527f446973636f756e74206c6576656c2077697468647261772074696d656f75742060408201526934b71032b33332b1ba1760b11b606082015260800190565b60208082526026908201527f4f776e61626c653a206e6577206f776e657220697320746865207a65726f206160408201526564647265737360d01b606082015260800190565b60208082526022908201527f45524332303a20617070726f766520746f20746865207a65726f206164647265604082015261737360f01b606082015260800190565b60208082526026908201527f45524332303a207472616e7366657220616d6f756e7420657863656564732062604082015265616c616e636560d01b606082015260800190565b6020808252602a908201527f416e74692d666c6173686c6f616e2077697468647261772074696d656f75742060408201526934b71032b33332b1ba1760b11b606082015260800190565b60208082526017908201527f496e73756666696369656e742042656e6a616d696e732e000000000000000000604082015260600190565b60208082526010908201526f14185d5cd8589b194e881c185d5cd95960821b604082015260600190565b6020808252601490820152732132b73530b6b4b7399034b9903830bab9b2b21760611b604082015260600190565b6020808252818101527f4f776e61626c653a2063616c6c6572206973206e6f7420746865206f776e6572604082015260600190565b60208082526021908201527f45524332303a206275726e2066726f6d20746865207a65726f206164647265736040820152607360f81b606082015260800190565b60208082526025908201527f45524332303a207472616e736665722066726f6d20746865207a65726f206164604082015264647265737360d81b606082015260800190565b60208082526024908201527f45524332303a20617070726f76652066726f6d20746865207a65726f206164646040820152637265737360e01b606082015260800190565b6020808252601f908201527f5265656e7472616e637947756172643a207265656e7472616e742063616c6c00604082015260600190565b6020808252602c908201527f42656e6a616d696e733a207472616e7366657220616d6f756e7420657863656560408201526b647320616c6c6f77616e636560a01b606082015260800190565b60208082526025908201527f45524332303a2064656372656173656420616c6c6f77616e63652062656c6f77604082015264207a65726f60d81b606082015260800190565b6020808252601f908201527f45524332303a206d696e7420746f20746865207a65726f206164647265737300604082015260600190565b60208082526013908201527224b739bab33334b1b4b2b73a10333ab732399760691b604082015260600190565b61ffff91909116815260200190565b90815260200190565b9182526001600160a01b0316602082015260400190565b60008382526040602083015261208060408301846132d6565b918252602082015260400190565b60ff91909116815260200190565b60405181810167ffffffffffffffff8111828210171561399057613990613b6e565b604052919050565b600067ffffffffffffffff8211156139b2576139b2613b6e565b5060209081020190565b600082198211156139cf576139cf613b42565b500190565b6000826139e3576139e3613b58565b500490565b600061ffff80831681851681830481118215151615613a0957613a09613b42565b02949350505050565b6000816000190483118215151615613a2c57613a2c613b42565b500290565b600060ff821660ff84168160ff0481118215151615613a5257613a52613b42565b029392505050565b60008083128015600160ff1b850184121615613a7857613a78613b42565b6001600160ff1b0384018313811615613a9357613a93613b42565b50500390565b600082821015613aab57613aab613b42565b500390565b600060ff821660ff841680821015613aca57613aca613b42565b90039392505050565b600281046001821680613ae757607f821691505b60208210811415613b0857634e487b7160e01b600052602260045260246000fd5b50919050565b600060ff821660ff811415613b2557613b25613b42565b60010192915050565b600082613b3d57613b3d613b58565b500690565b634e487b7160e01b600052601160045260246000fd5b634e487b7160e01b600052601260045260246000fd5b634e487b7160e01b600052604160045260246000fd5b801515811461122e57600080fdfe666565526f756e646564446f776e496e366465632c2063616c635472616e73706f72744665652c20424e4a6265666f7265466565496e55534443696e366465632c2063616c635472616e73706f72744665652c20424e4aa26469706673582212209e65bee5a44810fe1ad73c367a910128a38c08dd0fc1ef3c028d185c0266e04864736f6c63430008000033",
  "linkReferences": {},
  "deployedLinkReferences": {}
}