{
  "_format": "hh-sol-artifact-1",
  "contractName": "Benjamins",
  "sourceName": "contracts/Benjamins.sol",
  "abi": [
    {
      "inputs": [],
      "stateMutability": "nonpayable",
      "type": "constructor"
    },
    {
      "anonymous": false,
      "inputs": [
        {
          "indexed": true,
          "internalType": "address",
          "name": "owner",
          "type": "address"
        },
        {
          "indexed": true,
          "internalType": "address",
          "name": "spender",
          "type": "address"
        },
        {
          "indexed": false,
          "internalType": "uint256",
          "name": "value",
          "type": "uint256"
        }
      ],
      "name": "Approval",
      "type": "event"
    },
    {
      "anonymous": false,
      "inputs": [
        {
          "indexed": false,
          "internalType": "uint256",
          "name": "amountUSDCin6dec",
          "type": "uint256"
        },
        {
          "indexed": false,
          "internalType": "address",
          "name": "payer",
          "type": "address"
        }
      ],
      "name": "LendingPoolDeposit",
      "type": "event"
    },
    {
      "anonymous": false,
      "inputs": [
        {
          "indexed": false,
          "internalType": "uint256",
          "name": "amountUSDCin6dec",
          "type": "uint256"
        },
        {
          "indexed": false,
          "internalType": "address",
          "name": "payee",
          "type": "address"
        }
      ],
      "name": "LendingPoolWithdrawal",
      "type": "event"
    },
    {
      "anonymous": false,
      "inputs": [
        {
          "indexed": true,
          "internalType": "address",
          "name": "previousOwner",
          "type": "address"
        },
        {
          "indexed": true,
          "internalType": "address",
          "name": "newOwner",
          "type": "address"
        }
      ],
      "name": "OwnershipTransferred",
      "type": "event"
    },
    {
      "anonymous": false,
      "inputs": [
        {
          "indexed": false,
          "internalType": "address",
          "name": "account",
          "type": "address"
        }
      ],
      "name": "Paused",
      "type": "event"
    },
    {
      "anonymous": false,
      "inputs": [
        {
          "indexed": true,
          "internalType": "address",
          "name": "from",
          "type": "address"
        },
        {
          "indexed": true,
          "internalType": "address",
          "name": "to",
          "type": "address"
        },
        {
          "indexed": false,
          "internalType": "uint256",
          "name": "value",
          "type": "uint256"
        }
      ],
      "name": "Transfer",
      "type": "event"
    },
    {
      "anonymous": false,
      "inputs": [
        {
          "indexed": false,
          "internalType": "address",
          "name": "account",
          "type": "address"
        }
      ],
      "name": "Unpaused",
      "type": "event"
    },
    {
      "anonymous": false,
      "inputs": [
        {
          "indexed": false,
          "internalType": "address",
          "name": "fromAddress",
          "type": "address"
        },
        {
          "indexed": false,
          "internalType": "address",
          "name": "toAddress",
          "type": "address"
        },
        {
          "indexed": false,
          "internalType": "uint256",
          "name": "inTokens",
          "type": "uint256"
        },
        {
          "indexed": false,
          "internalType": "uint256",
          "name": "inUSDC",
          "type": "uint256"
        },
        {
          "indexed": false,
          "internalType": "uint256",
          "name": "fee",
          "type": "uint256"
        }
      ],
      "name": "exchanged",
      "type": "event"
    },
    {
      "anonymous": false,
      "inputs": [
        {
          "indexed": false,
          "internalType": "address",
          "name": "account",
          "type": "address"
        }
      ],
      "name": "newDepositAccount",
      "type": "event"
    },
    {
      "anonymous": false,
      "inputs": [
        {
          "indexed": false,
          "internalType": "address",
          "name": "beneficiary",
          "type": "address"
        }
      ],
      "name": "newFeeReceiver",
      "type": "event"
    },
    {
      "anonymous": false,
      "inputs": [
        {
          "indexed": false,
          "internalType": "uint256",
          "name": "availableIn6dec",
          "type": "uint256"
        },
        {
          "indexed": false,
          "internalType": "uint256",
          "name": "amountUSDCin6dec",
          "type": "uint256"
        }
      ],
      "name": "profitTaken",
      "type": "event"
    },
    {
      "inputs": [
        {
          "internalType": "address",
          "name": "owner",
          "type": "address"
        },
        {
          "internalType": "address",
          "name": "spender",
          "type": "address"
        }
      ],
      "name": "allowance",
      "outputs": [
        {
          "internalType": "uint256",
          "name": "",
          "type": "uint256"
        }
      ],
      "stateMutability": "view",
      "type": "function"
    },
    {
      "inputs": [
        {
          "internalType": "address",
          "name": "spender",
          "type": "address"
        },
        {
          "internalType": "uint256",
          "name": "amount",
          "type": "uint256"
        }
      ],
      "name": "approve",
      "outputs": [
        {
          "internalType": "bool",
          "name": "",
          "type": "bool"
        }
      ],
      "stateMutability": "nonpayable",
      "type": "function"
    },
    {
      "inputs": [
        {
          "internalType": "address",
          "name": "account",
          "type": "address"
        }
      ],
      "name": "balanceOf",
      "outputs": [
        {
          "internalType": "uint256",
          "name": "",
          "type": "uint256"
        }
      ],
      "stateMutability": "view",
      "type": "function"
    },
    {
      "inputs": [
        {
          "internalType": "uint256",
          "name": "_amount",
          "type": "uint256"
        }
      ],
      "name": "burn",
      "outputs": [],
      "stateMutability": "nonpayable",
      "type": "function"
    },
    {
      "inputs": [
        {
          "internalType": "uint256",
          "name": "_amount",
          "type": "uint256"
        },
        {
          "internalType": "address",
          "name": "_toWhom",
          "type": "address"
        }
      ],
      "name": "burnTo",
      "outputs": [],
      "stateMutability": "nonpayable",
      "type": "function"
    },
    {
      "inputs": [],
      "name": "decimals",
      "outputs": [
        {
          "internalType": "uint8",
          "name": "",
          "type": "uint8"
        }
      ],
      "stateMutability": "view",
      "type": "function"
    },
    {
      "inputs": [
        {
          "internalType": "address",
          "name": "spender",
          "type": "address"
        },
        {
          "internalType": "uint256",
          "name": "subtractedValue",
          "type": "uint256"
        }
      ],
      "name": "decreaseAllowance",
      "outputs": [
        {
          "internalType": "bool",
          "name": "",
          "type": "bool"
        }
      ],
      "stateMutability": "nonpayable",
      "type": "function"
    },
    {
      "inputs": [
        {
          "internalType": "address",
          "name": "_whom",
          "type": "address"
        }
      ],
      "name": "discountLevel",
      "outputs": [
        {
          "internalType": "uint8",
          "name": "",
          "type": "uint8"
        }
      ],
      "stateMutability": "view",
      "type": "function"
    },
    {
      "inputs": [
        {
          "internalType": "address",
          "name": "spender",
          "type": "address"
        },
        {
          "internalType": "uint256",
          "name": "addedValue",
          "type": "uint256"
        }
      ],
      "name": "increaseAllowance",
      "outputs": [
        {
          "internalType": "bool",
          "name": "",
          "type": "bool"
        }
      ],
      "stateMutability": "nonpayable",
      "type": "function"
    },
    {
      "inputs": [
        {
          "internalType": "uint256",
          "name": "_amount",
          "type": "uint256"
        }
      ],
      "name": "mint",
      "outputs": [],
      "stateMutability": "nonpayable",
      "type": "function"
    },
    {
      "inputs": [
        {
          "internalType": "uint256",
          "name": "_amount",
          "type": "uint256"
        },
        {
          "internalType": "address",
          "name": "_toWhom",
          "type": "address"
        }
      ],
      "name": "mintTo",
      "outputs": [],
      "stateMutability": "nonpayable",
      "type": "function"
    },
    {
      "inputs": [],
      "name": "name",
      "outputs": [
        {
          "internalType": "string",
          "name": "",
          "type": "string"
        }
      ],
      "stateMutability": "view",
      "type": "function"
    },
    {
      "inputs": [],
      "name": "owner",
      "outputs": [
        {
          "internalType": "address",
          "name": "",
          "type": "address"
        }
      ],
      "stateMutability": "view",
      "type": "function"
    },
    {
      "inputs": [],
      "name": "pause",
      "outputs": [],
      "stateMutability": "nonpayable",
      "type": "function"
    },
    {
      "inputs": [],
      "name": "paused",
      "outputs": [
        {
          "internalType": "bool",
          "name": "",
          "type": "bool"
        }
      ],
      "stateMutability": "view",
      "type": "function"
    },
    {
      "inputs": [],
      "name": "polygonAMUSDC",
      "outputs": [
        {
          "internalType": "contract IERC20",
          "name": "",
          "type": "address"
        }
      ],
      "stateMutability": "view",
      "type": "function"
    },
    {
      "inputs": [],
      "name": "polygonLendingPool",
      "outputs": [
        {
          "internalType": "contract ILendingPool",
          "name": "",
          "type": "address"
        }
      ],
      "stateMutability": "view",
      "type": "function"
    },
    {
      "inputs": [],
      "name": "polygonUSDC",
      "outputs": [
        {
          "internalType": "contract IERC20",
          "name": "",
          "type": "address"
        }
      ],
      "stateMutability": "view",
      "type": "function"
    },
    {
      "inputs": [
        {
          "internalType": "address",
          "name": "forWhom",
          "type": "address"
        }
      ],
      "name": "quoteFeePercentage",
      "outputs": [
        {
          "internalType": "uint16",
          "name": "",
          "type": "uint16"
        }
      ],
      "stateMutability": "view",
      "type": "function"
    },
    {
      "inputs": [
        {
          "internalType": "uint256",
          "name": "_amount",
          "type": "uint256"
        }
      ],
      "name": "quoteUSDC",
      "outputs": [
        {
          "internalType": "uint256",
          "name": "",
          "type": "uint256"
        }
      ],
      "stateMutability": "view",
      "type": "function"
    },
    {
      "inputs": [],
      "name": "renounceOwnership",
      "outputs": [],
      "stateMutability": "nonpayable",
      "type": "function"
    },
    {
      "inputs": [
        {
          "internalType": "address",
          "name": "ERC20ContractAddress",
          "type": "address"
        }
      ],
      "name": "scavengeERC20Tip",
      "outputs": [],
      "stateMutability": "nonpayable",
      "type": "function"
    },
    {
      "inputs": [
        {
          "internalType": "address",
          "name": "beneficiary",
          "type": "address"
        }
      ],
      "name": "setFeeReceiver",
      "outputs": [],
      "stateMutability": "nonpayable",
      "type": "function"
    },
    {
      "inputs": [],
      "name": "symbol",
      "outputs": [
        {
          "internalType": "string",
          "name": "",
          "type": "string"
        }
      ],
      "stateMutability": "view",
      "type": "function"
    },
    {
      "inputs": [],
      "name": "totalSupply",
      "outputs": [
        {
          "internalType": "uint256",
          "name": "",
          "type": "uint256"
        }
      ],
      "stateMutability": "view",
      "type": "function"
    },
    {
      "inputs": [
        {
          "internalType": "address",
          "name": "recipiant",
          "type": "address"
        },
        {
          "internalType": "uint256",
          "name": "amount",
          "type": "uint256"
        }
      ],
      "name": "transfer",
      "outputs": [
        {
          "internalType": "bool",
          "name": "",
          "type": "bool"
        }
      ],
      "stateMutability": "nonpayable",
      "type": "function"
    },
    {
      "inputs": [
        {
          "internalType": "address",
          "name": "sender",
          "type": "address"
        },
        {
          "internalType": "address",
          "name": "recipiant",
          "type": "address"
        },
        {
          "internalType": "uint256",
          "name": "amount",
          "type": "uint256"
        }
      ],
      "name": "transferFrom",
      "outputs": [
        {
          "internalType": "bool",
          "name": "",
          "type": "bool"
        }
      ],
      "stateMutability": "nonpayable",
      "type": "function"
    },
    {
      "inputs": [
        {
          "internalType": "address",
          "name": "newOwner",
          "type": "address"
        }
      ],
      "name": "transferOwnership",
      "outputs": [],
      "stateMutability": "nonpayable",
      "type": "function"
    },
    {
      "inputs": [],
      "name": "unpause",
      "outputs": [],
      "stateMutability": "nonpayable",
      "type": "function"
    },
    {
      "inputs": [
        {
          "internalType": "uint256",
          "name": "amountToApprove",
          "type": "uint256"
        }
      ],
      "name": "updateApproveLendingPool",
      "outputs": [],
      "stateMutability": "nonpayable",
      "type": "function"
    },
    {
      "inputs": [
        {
          "internalType": "uint256",
          "name": "newAmountOfBlocksPerDay",
          "type": "uint256"
        }
      ],
      "name": "updateBlocksPerDay",
      "outputs": [],
      "stateMutability": "nonpayable",
      "type": "function"
    },
    {
      "inputs": [
        {
          "internalType": "uint32[]",
          "name": "newLevelAntes",
          "type": "uint32[]"
        }
      ],
      "name": "updateLevelAntes",
      "outputs": [],
      "stateMutability": "nonpayable",
      "type": "function"
    },
    {
      "inputs": [
        {
          "internalType": "uint8[]",
          "name": "newLevelDiscounts",
          "type": "uint8[]"
        }
      ],
      "name": "updateLevelDiscounts",
      "outputs": [],
      "stateMutability": "nonpayable",
      "type": "function"
    },
    {
      "inputs": [
        {
          "internalType": "uint16[]",
          "name": "newLevelHolds",
          "type": "uint16[]"
        }
      ],
      "name": "updateLevelHolds",
      "outputs": [],
      "stateMutability": "nonpayable",
      "type": "function"
    },
    {
      "inputs": [
        {
          "internalType": "address",
          "name": "newAddress",
          "type": "address"
        }
      ],
      "name": "updatePolygonAMUSDC",
      "outputs": [],
      "stateMutability": "nonpayable",
      "type": "function"
    },
    {
      "inputs": [
        {
          "internalType": "address",
          "name": "newAddress",
          "type": "address"
        }
      ],
      "name": "updatePolygonLendingPool",
      "outputs": [],
      "stateMutability": "nonpayable",
      "type": "function"
    },
    {
      "inputs": [
        {
          "internalType": "address",
          "name": "newAddress",
          "type": "address"
        }
      ],
      "name": "updatePolygonUSDC",
      "outputs": [],
      "stateMutability": "nonpayable",
      "type": "function"
    },
    {
      "inputs": [
        {
          "internalType": "uint256",
          "name": "_amountIn6dec",
          "type": "uint256"
        }
      ],
      "name": "withdrawGains",
      "outputs": [],
      "stateMutability": "nonpayable",
      "type": "function"
    },
    {
      "stateMutability": "payable",
      "type": "receive"
    }
  ],
  "bytecode": "0x6080604052620f4240600d556013805460ff19908116600a179091556002601455620c35006015556016805490911660011790553480156200004057600080fd5b506040518060400160405280600981526020016842656e6a616d696e7360b81b81525060405180604001604052806004815260200163424e4a4960e01b8152506000620000926200028660201b60201c565b600080546001600160a01b0319166001600160a01b0383169081178255604051929350917f8be0079c531659141344cd1fd0a4f28419497f9722a3daafe3b4186f6b6457e0908290a3508151620000f190600490602085019062000378565b5080516200010790600590602084019062000378565b50506006805460ff199081169091556001600755600e80549091169055506000600b55600c80546001600160a01b031990811673e51c8401fe1e70f78bbd3ac660692597d33dbaff17909155600980548216732791bca1f2de4661ed88a30c99a7a9449aa84174179055600a80548216731a13f4ca1d028320a707d99520abfefca3998b7f17905560088054909116738dff5e27ea6b7ac08ebfdf9eb090f32ee9a30fcf1790556040805160a08101825260148152603c60208201526064918101919091526101f460608201526107d06080820152620001ec90601090600562000407565b506040805160c0810182526000815260026020820152600791810191909152601e6060820152605a608082015261016860a082015262000231906011906006620004b6565b506040805160c0810182526000815260056020820152600a918101919091526014606082015260286080820152604b60a08201526200027590601290600662000552565b50620002806200028a565b620006b2565b3390565b6200029462000286565b6001600160a01b0316620002a7620002e5565b6001600160a01b031614620002d95760405162461bcd60e51b8152600401620002d09062000640565b60405180910390fd5b620002e3620002f4565b565b6000546001600160a01b031690565b620002fe6200036f565b156200031e5760405162461bcd60e51b8152600401620002d09062000616565b6006805460ff191660011790557f62e78cea01bee320cd4e420270b5ea74000d11b0c9f74754ebdbfc544b05a2586200035662000286565b60405162000365919062000602565b60405180910390a1565b60065460ff1690565b828054620003869062000675565b90600052602060002090601f016020900481019282620003aa5760008555620003f5565b82601f10620003c557805160ff1916838001178555620003f5565b82800160010185558215620003f5579182015b82811115620003f5578251825591602001919060010190620003d8565b5062000403929150620005eb565b5090565b82805482825590600052602060002090600701600890048101928215620003f55791602002820160005b838211156200047557835183826101000a81548163ffffffff021916908361ffff160217905550926020019260040160208160030104928301926001030262000431565b8015620004a75782816101000a81549063ffffffff021916905560040160208160030104928301926001030262000475565b505062000403929150620005eb565b82805482825590600052602060002090600f01601090048101928215620003f55791602002820160005b838211156200052257835183826101000a81548161ffff021916908361ffff1602179055509260200192600201602081600101049283019260010302620004e0565b8015620004a75782816101000a81549061ffff021916905560020160208160010104928301926001030262000522565b82805482825590600052602060002090601f01602090048101928215620003f55791602002820160005b83821115620005bc57835183826101000a81548160ff021916908360ff16021790555092602001926001016020816000010492830192600103026200057c565b8015620004a75782816101000a81549060ff0219169055600101602081600001049283019260010302620005bc565b5b80821115620004035760008155600101620005ec565b6001600160a01b0391909116815260200190565b60208082526010908201526f14185d5cd8589b194e881c185d5cd95960821b604082015260600190565b6020808252818101527f4f776e61626c653a2063616c6c6572206973206e6f7420746865206f776e6572604082015260600190565b6002810460018216806200068a57607f821691505b60208210811415620006ac57634e487b7160e01b600052602260045260246000fd5b50919050565b6133fe80620006c26000396000f3fe6080604052600436106102295760003560e01c8063715018a611610123578063b3faaf93116100ab578063d948e1041161006f578063d948e10414610628578063dd62ed3e1461063d578063ea89120b1461065d578063efdcd9741461068a578063f2fde38b146106aa57610230565b8063b3faaf9314610588578063b723b34e146105a8578063c0100143146105c8578063c6a5d5da146105e8578063cd0d95e21461060857610230565b806395d89b41116100f257806395d89b41146104f357806397b9294214610508578063a0712d6814610528578063a457c2d714610548578063a9059cbb1461056857610230565b8063715018a61461049f5780638456cb59146104b45780638da5cb5b146104c95780638fb33017146104de57610230565b8063313ce567116101b157806355ab59501161017557806355ab595014610408578063571ff20d146104285780635c975abb146104485780636c7529741461045d57806370a082311461047f57610230565b8063313ce5671461037e57806339509351146103935780633f4ba83a146103b357806342966c68146103c857806347f220ae146103e857610230565b806316087315116101f857806316087315146102e757806318160ddd14610309578063185cf4b51461031e57806323b872dd1461033e578063257a00501461035e57610230565b806306ec73c81461023557806306fdde031461026b578063093f59501461028d578063095ea7b3146102ba57610230565b3661023057005b600080fd5b34801561024157600080fd5b50610255610250366004612a81565b6106ca565b604051610262919061314e565b60405180910390f35b34801561027757600080fd5b5061028061075d565b6040516102629190612c15565b34801561029957600080fd5b506102ad6102a83660046127e6565b6107ef565b604051610262919061317c565b3480156102c657600080fd5b506102da6102d536600461286d565b6108ed565b6040516102629190612c0a565b3480156102f357600080fd5b506103076103023660046127e6565b61090a565b005b34801561031557600080fd5b50610255610974565b34801561032a57600080fd5b50610307610339366004612a81565b61097a565b34801561034a57600080fd5b506102da610359366004612832565b610b2f565b34801561036a57600080fd5b506103076103793660046127e6565b610cbc565b34801561038a57600080fd5b506102ad610f85565b34801561039f57600080fd5b506102da6103ae36600461286d565b610f8e565b3480156103bf57600080fd5b50610307610fdd565b3480156103d457600080fd5b506103076103e3366004612a81565b611026565b3480156103f457600080fd5b50610307610403366004612896565b611033565b34801561041457600080fd5b506103076104233660046127e6565b611089565b34801561043457600080fd5b50610307610443366004612ab1565b6111d9565b34801561045457600080fd5b506102da611338565b34801561046957600080fd5b50610472611341565b6040516102629190612b1e565b34801561048b57600080fd5b5061025561049a3660046127e6565b611350565b3480156104ab57600080fd5b5061030761136b565b3480156104c057600080fd5b506103076113f4565b3480156104d557600080fd5b5061047261143b565b3480156104ea57600080fd5b5061047261144a565b3480156104ff57600080fd5b50610280611459565b34801561051457600080fd5b506103076105233660046129cf565b611468565b34801561053457600080fd5b50610307610543366004612a81565b6114ba565b34801561055457600080fd5b506102da61056336600461286d565b6114c4565b34801561057457600080fd5b506102da61058336600461286d565b61153f565b34801561059457600080fd5b506103076105a336600461293a565b611553565b3480156105b457600080fd5b506103076105c3366004612ab1565b6115a5565b3480156105d457600080fd5b506103076105e33660046127e6565b61162f565b3480156105f457600080fd5b50610307610603366004612a81565b611690565b34801561061457600080fd5b50610307610623366004612a81565b6116d4565b34801561063457600080fd5b5061047261179b565b34801561064957600080fd5b50610255610658366004612800565b6117aa565b34801561066957600080fd5b5061067d6106783660046127e6565b6117d5565b604051610262919061313f565b34801561069657600080fd5b506103076106a53660046127e6565b611956565b3480156106b657600080fd5b506103076106c53660046127e6565b6119eb565b6000806106d5610974565b905060006106e3828061322e565b905060006106f185846131d8565b905060006106ff828061322e565b9050600061070d8483613276565b90506000600d548261071f919061322e565b905060006015548261073191906131f0565b905060006107416127108361330b565b905061074d8183613276565b985050505050505050505b919050565b60606004805461076c906132b0565b80601f0160208091040260200160405190810160405280929190818152602001828054610798906132b0565b80156107e55780601f106107ba576101008083540402835291602001916107e5565b820191906000526020600020905b8154815290600101906020018083116107c857829003601f168201915b5050505050905090565b6000806107fb83611350565b905061082b6040518060400160405280600c81526020016b3ab9b2b92130b630b731b29d60a11b81525082611aab565b6000805b60105460ff821610156108aa5760108160ff168154811061086057634e487b7160e01b600052603260045260246000fd5b6000918252602090912060088204015460079091166004026101000a900463ffffffff1683106108985781610894816132eb565b9250505b806108a2816132eb565b91505061082f565b506108e66040518060400160405280601681526020017531bab93932b73a2632bb32b6103932ba3ab93732b21d60511b8152508260ff16611aab565b9392505050565b60006109016108fa611af0565b8484611af4565b50600192915050565b610912611af0565b6001600160a01b031661092361143b565b6001600160a01b0316146109525760405162461bcd60e51b815260040161094990612f60565b60405180910390fd5b600980546001600160a01b0319166001600160a01b0392909216919091179055565b60035490565b610982611af0565b6001600160a01b031661099361143b565b6001600160a01b0316146109b95760405162461bcd60e51b815260040161094990612f60565b600b54600a546040516370a0823160e01b8152600092916001600160a01b0316906370a08231906109ee903090600401612b1e565b60206040518083038186803b158015610a0657600080fd5b505afa158015610a1a573d6000803e3d6000fd5b505050506040513d601f19601f82011682018060405250810190610a3e9190612a99565b610a489190613276565b9050818111610a695760405162461bcd60e51b815260040161094990613112565b600a54600c5460405163a9059cbb60e01b81526001600160a01b039283169263a9059cbb92610a9f929116908690600401612ba1565b602060405180830381600087803b158015610ab957600080fd5b505af1158015610acd573d6000803e3d6000fd5b505050506040513d601f19601f82011682018060405250810190610af19190612a61565b507f8b9c4e1b9c860b263c59ac36417dfb6be15a01919b159407b1971058eee1e0298183604051610b2392919061316e565b60405180910390a15050565b600060026007541415610b545760405162461bcd60e51b81526004016109499061305f565b6002600755336000908152600f602052604081205485914391610b779083613276565b60135490915060ff168111610b9e5760405162461bcd60e51b815260040161094990612e3f565b6011610ba9336107ef565b60ff1681548110610bca57634e487b7160e01b600052603260045260246000fd5b90600052602060002090601091828204019190066002029054906101000a900461ffff1661ffff16601454610bff919061322e565b8111610c1d5760405162461bcd60e51b815260040161094990612d27565b6000610c28876107ef565b9050610c35888888611ba8565b6000610c4389610658611af0565b905086811015610c655760405162461bcd60e51b815260040161094990612f18565b610c8089610c71611af0565b610c7b8a85613276565b611af4565b6000610c8b896107ef565b90508260ff168160ff161115610ca657610ca489611cd0565b505b6001965050505050506001600755509392505050565b610cc4611af0565b6001600160a01b0316610cd561143b565b6001600160a01b031614610cfb5760405162461bcd60e51b815260040161094990612f60565b600854600954604051631a4ca37b60e21b81526001600160a01b03928316926369328dec92610d3592911690600019903090600401612bba565b602060405180830381600087803b158015610d4f57600080fd5b505af1158015610d63573d6000803e3d6000fd5b505050506040513d601f19601f82011682018060405250810190610d879190612a99565b50600880546001600160a01b0319166001600160a01b0383161790556040517f33481e616168e187acdc90fda3d0269454b31c195cc00e4db474ca44f8d43ae890610dd3908390612b1e565b60405180910390a16009546040516370a0823160e01b81526000916001600160a01b0316906370a0823190610e0c903090600401612b1e565b60206040518083038186803b158015610e2457600080fd5b505afa158015610e38573d6000803e3d6000fd5b505050506040513d601f19601f82011682018060405250810190610e5c9190612a99565b60095460085460405163095ea7b360e01b81529293506001600160a01b039182169263095ea7b392610e949216908590600401612ba1565b602060405180830381600087803b158015610eae57600080fd5b505af1158015610ec2573d6000803e3d6000fd5b505050506040513d601f19601f82011682018060405250810190610ee69190612a61565b5060085460095460405163e8eda9df60e01b81526001600160a01b039283169263e8eda9df92610f229291169085903090600090600401612bdd565b600060405180830381600087803b158015610f3c57600080fd5b505af1158015610f50573d6000803e3d6000fd5b505050507f96a06dd751c9aee3cbe69bcfe31505e68da315871c459fd3467debfd76a901e98130604051610b23929190613157565b600e5460ff1690565b6000610901610f9b611af0565b848460026000610fa9611af0565b6001600160a01b03908116825260208083019390935260409182016000908120918b1681529252902054610c7b91906131d8565b610fe5611af0565b6001600160a01b0316610ff661143b565b6001600160a01b03161461101c5760405162461bcd60e51b815260040161094990612f60565b611024611d89565b565b61103081336111d9565b50565b61103b611af0565b6001600160a01b031661104c61143b565b6001600160a01b0316146110725760405162461bcd60e51b815260040161094990612f60565b80516110859060119060208401906125e0565b5050565b611091611af0565b6001600160a01b03166110a261143b565b6001600160a01b0316146110c85760405162461bcd60e51b815260040161094990612f60565b6040516370a0823160e01b815281906000906001600160a01b038316906370a08231906110f9903090600401612b1e565b60206040518083038186803b15801561111157600080fd5b505afa158015611125573d6000803e3d6000fd5b505050506040513d601f19601f820116820180604052508101906111499190612a99565b600c546040516323b872dd60e01b81529192506001600160a01b03808516926323b872dd926111819230929116908690600401612b4c565b602060405180830381600087803b15801561119b57600080fd5b505af11580156111af573d6000803e3d6000fd5b505050506040513d601f19601f820116820180604052508101906111d39190612a61565b50505050565b6111e1611338565b158061120557506111f061143b565b6001600160a01b0316336001600160a01b0316145b6112215760405162461bcd60e51b815260040161094990612eea565b818061122c33611350565b101561124a5760405162461bcd60e51b815260040161094990612e89565b82611254816106ca565b600b54101561126257600080fd5b336000818152600f602052604081205443919061127f9083613276565b60135490915060ff1681116112a65760405162461bcd60e51b815260040161094990612e3f565b60116112b1336107ef565b60ff16815481106112d257634e487b7160e01b600052603260045260246000fd5b90600052602060002090601091828204019190066002029054906101000a900461ffff1661ffff16601454611307919061322e565b81116113255760405162461bcd60e51b815260040161094990612d27565b61132f8688611df7565b50505050505050565b60065460ff1690565b6009546001600160a01b031681565b6001600160a01b031660009081526001602052604090205490565b611373611af0565b6001600160a01b031661138461143b565b6001600160a01b0316146113aa5760405162461bcd60e51b815260040161094990612f60565b600080546040516001600160a01b03909116907f8be0079c531659141344cd1fd0a4f28419497f9722a3daafe3b4186f6b6457e0908390a3600080546001600160a01b0319169055565b6113fc611af0565b6001600160a01b031661140d61143b565b6001600160a01b0316146114335760405162461bcd60e51b815260040161094990612f60565b611024611fbd565b6000546001600160a01b031690565b600a546001600160a01b031681565b60606005805461076c906132b0565b611470611af0565b6001600160a01b031661148161143b565b6001600160a01b0316146114a75760405162461bcd60e51b815260040161094990612f60565b8051611085906012906020840190612689565b61103081336115a5565b600080600260006114d3611af0565b6001600160a01b039081168252602080830193909352604091820160009081209188168152925290205490508281101561151f5760405162461bcd60e51b815260040161094990613096565b61153561152a611af0565b85610c7b8685613276565b5060019392505050565b60006108e661154c611af0565b8484610b2f565b61155b611af0565b6001600160a01b031661156c61143b565b6001600160a01b0316146115925760405162461bcd60e51b815260040161094990612f60565b805161108590601090602084019061271d565b6115ad611338565b15806115d157506115bc61143b565b6001600160a01b0316336001600160a01b0316145b6115ed5760405162461bcd60e51b815260040161094990612eea565b60006115f8826107ef565b90506116048284611df7565b600061160f836107ef565b90508160ff168160ff1611156111d35761162883611cd0565b5050505050565b611637611af0565b6001600160a01b031661164861143b565b6001600160a01b03161461166e5760405162461bcd60e51b815260040161094990612f60565b600a80546001600160a01b0319166001600160a01b0392909216919091179055565b611698611af0565b6001600160a01b03166116a961143b565b6001600160a01b0316146116cf5760405162461bcd60e51b815260040161094990612f60565b601455565b6116dc611af0565b6001600160a01b03166116ed61143b565b6001600160a01b0316146117135760405162461bcd60e51b815260040161094990612f60565b60095460085460405163095ea7b360e01b81526001600160a01b039283169263095ea7b392611749929116908590600401612ba1565b602060405180830381600087803b15801561176357600080fd5b505af1158015611777573d6000803e3d6000fd5b505050506040513d601f19601f820116820180604052508101906110859190612a61565b6008546001600160a01b031681565b6001600160a01b03918216600090815260026020908152604080832093909416825291909152205490565b60006118216040518060400160405280601781526020017f646973636f756e744c6576656c28666f7257686f6d293a000000000000000000815250611819846107ef565b60ff16611aab565b6040805180820190915260148152733ab4b73a189b14189818153130b9b2a332b2949d60611b602082015260165461186291906118199060ff16606461324d565b6118d66040518060600160405280603a815260200161338f603a91396012611889856107ef565b60ff16815481106118aa57634e487b7160e01b600052603260045260246000fd5b90600052602060002090602091828204019190069054906101000a900460ff166064611819919061328d565b60126118e1836107ef565b60ff168154811061190257634e487b7160e01b600052603260045260246000fd5b90600052602060002090602091828204019190069054906101000a900460ff16606461192e919061328d565b60165460ff918216916119439116606461324d565b60ff166119509190613204565b92915050565b61195e611af0565b6001600160a01b031661196f61143b565b6001600160a01b0316146119955760405162461bcd60e51b815260040161094990612f60565b600c80546001600160a01b0319166001600160a01b0383161790556040517fa574362825e0eb8232ebe212b029c5b3a30ca54219bc287f49181e95bbb86089906119e0908390612b1e565b60405180910390a150565b6119f3611af0565b6001600160a01b0316611a0461143b565b6001600160a01b031614611a2a5760405162461bcd60e51b815260040161094990612f60565b6001600160a01b038116611a505760405162461bcd60e51b815260040161094990612d71565b600080546040516001600160a01b03808516939216917f8be0079c531659141344cd1fd0a4f28419497f9722a3daafe3b4186f6b6457e091a3600080546001600160a01b0319166001600160a01b0392909216919091179055565b6110858282604051602401611ac1929190612c52565b60408051601f198184030181529190526020810180516001600160e01b03166309710a9d60e41b179052612018565b3390565b6001600160a01b038316611b1a5760405162461bcd60e51b81526004016109499061301b565b6001600160a01b038216611b405760405162461bcd60e51b815260040161094990612db7565b6001600160a01b0380841660008181526002602090815260408083209487168084529490915290819020849055517f8c5be1e5ebec7d5bd14f71427d1e84f3dd0314c0f7b2291e5b200ac8c7c3b92590611b9b90859061314e565b60405180910390a3505050565b6001600160a01b038316611bce5760405162461bcd60e51b815260040161094990612fd6565b6001600160a01b038216611bf45760405162461bcd60e51b815260040161094990612c74565b611bff838383612039565b6001600160a01b03831660009081526001602052604090205481811015611c385760405162461bcd60e51b815260040161094990612df9565b611c428282613276565b6001600160a01b038086166000908152600160205260408082209390935590851681529081208054849290611c789084906131d8565b92505081905550826001600160a01b0316846001600160a01b03167fddf252ad1be2c89b69c2b068fc378daa952ba7f163c4a11628f55a4df523b3ef84604051611cc2919061314e565b60405180910390a350505050565b6001600160a01b0381166000908152600f602052604081205443908290611cf79083613276565b9050600060116001611d08876107ef565b611d12919061328d565b60ff1681548110611d3357634e487b7160e01b600052603260045260246000fd5b60009182526020909120601082040154611d5d91600f166002026101000a900461ffff1683613276565b90508015611d81576001600160a01b0385166000908152600f602052604090208390555b505050919050565b611d91611338565b611dad5760405162461bcd60e51b815260040161094990612cb7565b6006805460ff191690557f5db9ee0a495bf2e6ff9c91a7834c1ba4fdd244a5e8aa4e537bd38aeae4b073aa611de0611af0565b604051611ded9190612b1e565b60405180910390a1565b60026007541415611e1a5760405162461bcd60e51b81526004016109499061305f565b60026007556000611e2a826106ca565b9050611e6460405180604001604052806016815260200175383934b731b4b83632a4b72aa9a221b4b71b3232b19d60511b81525082611aab565b6000620f4240611e73336117d5565b611e819061ffff168461322e565b611e8b91906131f0565b90506000611e9b6127108361330b565b611ea59083613276565b9050611ede604051806040016040528060158152602001743332b2a937bab73232b22237bbb724b71b3232b19d60591b81525082611aab565b6000611eea82856131d8565b9050611f246040518060400160405280601681526020017532b73220b6b7bab73a24b72aa9a221b4b71b3232b19d60511b81525082611aab565b8415611f4457611f3533878361203e565b611f3f86866123f5565b611f59565b611f4e33866124b5565b611f5933878661203e565b83600b6000828254611f6b91906131d8565b90915550506040517faa1840ad2b124c68a39cd301fc5f80ad593b05a52c5344a787f2762ace6dea3490611fa89033908990899086908990612b70565b60405180910390a15050600160075550505050565b611fc5611338565b15611fe25760405162461bcd60e51b815260040161094990612ec0565b6006805460ff191660011790557f62e78cea01bee320cd4e420270b5ea74000d11b0c9f74754ebdbfc544b05a258611de0611af0565b80516a636f6e736f6c652e6c6f67602083016000808483855afa5050505050565b505050565b80156122ff5761206d604051806040016040528060078152602001662fb830bcb2b91d60c91b8152508461259b565b6120a1604051806040016040528060128152602001712fb0b6b7bab73a2aa9a221b4b71b3232b19d60711b81525082611aab565b6121446040518060600160405280602d8152602001613362602d9139600954604051636eb1769f60e11b81526001600160a01b039091169063dd62ed3e906120ef9088903090600401612b32565b60206040518083038186803b15801561210757600080fd5b505afa15801561211b573d6000803e3d6000fd5b505050506040513d601f19601f8201168201806040525081019061213f9190612a99565b611aab565b6009546040516323b872dd60e01b81526001600160a01b03909116906323b872dd9061217890869030908690600401612b4c565b602060405180830381600087803b15801561219257600080fd5b505af11580156121a6573d6000803e3d6000fd5b505050506040513d601f19601f820116820180604052508101906121ca9190612a61565b5060095460085460405163095ea7b360e01b81526001600160a01b039283169263095ea7b392612201929116908590600401612ba1565b602060405180830381600087803b15801561221b57600080fd5b505af115801561222f573d6000803e3d6000fd5b505050506040513d601f19601f820116820180604052508101906122539190612a61565b5060085460095460405163e8eda9df60e01b81526001600160a01b039283169263e8eda9df9261228f9291169085903090600090600401612bdd565b600060405180830381600087803b1580156122a957600080fd5b505af11580156122bd573d6000803e3d6000fd5b505050507f96a06dd751c9aee3cbe69bcfe31505e68da315871c459fd3467debfd76a901e981846040516122f2929190613157565b60405180910390a1612039565b600854600954604051631a4ca37b60e21b81526001600160a01b03928316926369328dec926123379291169085903090600401612bba565b602060405180830381600087803b15801561235157600080fd5b505af1158015612365573d6000803e3d6000fd5b505050506040513d601f19601f820116820180604052508101906123899190612a99565b507fa605ade827572a0d40ee9676d8a1bcdf38fdd902413c655c283bbbba576867ba81836040516123bb929190613157565b60405180910390a160095460405163a9059cbb60e01b81526001600160a01b039091169063a9059cbb906111819085908590600401612ba1565b6001600160a01b03821661241b5760405162461bcd60e51b8152600401610949906130db565b61242760008383612039565b806003600082825461243991906131d8565b90915550506001600160a01b038216600090815260016020526040812080548392906124669084906131d8565b90915550506040516001600160a01b038316906000907fddf252ad1be2c89b69c2b068fc378daa952ba7f163c4a11628f55a4df523b3ef906124a990859061314e565b60405180910390a35050565b6001600160a01b0382166124db5760405162461bcd60e51b815260040161094990612f95565b6124e782600083612039565b6001600160a01b038216600090815260016020526040902054818110156125205760405162461bcd60e51b815260040161094990612ce5565b61252a8282613276565b6001600160a01b03841660009081526001602052604081209190915560038054849290612558908490613276565b90915550506040516000906001600160a01b038516907fddf252ad1be2c89b69c2b068fc378daa952ba7f163c4a11628f55a4df523b3ef90611b9b90869061314e565b61108582826040516024016125b1929190612c28565b60408051601f198184030181529190526020810180516001600160e01b031663319af33360e01b179052612018565b82805482825590600052602060002090600f016010900481019282156126795791602002820160005b8382111561264957835183826101000a81548161ffff021916908361ffff1602179055509260200192600201602081600101049283019260010302612609565b80156126775782816101000a81549061ffff0219169055600201602081600101049283019260010302612649565b505b506126859291506127ba565b5090565b82805482825590600052602060002090601f016020900481019282156126795791602002820160005b838211156126f057835183826101000a81548160ff021916908360ff16021790555092602001926001016020816000010492830192600103026126b2565b80156126775782816101000a81549060ff02191690556001016020816000010492830192600103026126f0565b828054828255906000526020600020906007016008900481019282156126795791602002820160005b8382111561278a57835183826101000a81548163ffffffff021916908363ffffffff1602179055509260200192600401602081600301049283019260010302612746565b80156126775782816101000a81549063ffffffff021916905560040160208160030104928301926001030261278a565b5b8082111561268557600081556001016127bb565b80356001600160a01b038116811461075857600080fd5b6000602082840312156127f7578081fd5b6108e6826127cf565b60008060408385031215612812578081fd5b61281b836127cf565b9150612829602084016127cf565b90509250929050565b600080600060608486031215612846578081fd5b61284f846127cf565b925061285d602085016127cf565b9150604084013590509250925092565b6000806040838503121561287f578182fd5b612888836127cf565b946020939093013593505050565b600060208083850312156128a8578182fd5b823567ffffffffffffffff8111156128be578283fd5b8301601f810185136128ce578283fd5b80356128e16128dc826131b4565b61318a565b81815283810190838501858402850186018910156128fd578687fd5b8694505b8385101561292e57803561ffff8116811461291a578788fd5b835260019490940193918501918501612901565b50979650505050505050565b6000602080838503121561294c578182fd5b823567ffffffffffffffff811115612962578283fd5b8301601f81018513612972578283fd5b80356129806128dc826131b4565b818152838101908385018584028501860189101561299c578687fd5b8694505b8385101561292e57803563ffffffff811681146129bb578788fd5b8352600194909401939185019185016129a0565b600060208083850312156129e1578182fd5b823567ffffffffffffffff8111156129f7578283fd5b8301601f81018513612a07578283fd5b8035612a156128dc826131b4565b8181528381019083850185840285018601891015612a31578687fd5b8694505b8385101561292e57803560ff81168114612a4d578788fd5b835260019490940193918501918501612a35565b600060208284031215612a72578081fd5b815180151581146108e6578182fd5b600060208284031215612a92578081fd5b5035919050565b600060208284031215612aaa578081fd5b5051919050565b60008060408385031215612ac3578182fd5b82359150612829602084016127cf565b60008151808452815b81811015612af857602081850181015186830182015201612adc565b81811115612b095782602083870101525b50601f01601f19169290920160200192915050565b6001600160a01b0391909116815260200190565b6001600160a01b0392831681529116602082015260400190565b6001600160a01b039384168152919092166020820152604081019190915260600190565b6001600160a01b03958616815293909416602084015260408301919091526060820152608081019190915260a00190565b6001600160a01b03929092168252602082015260400190565b6001600160a01b0393841681526020810192909252909116604082015260600190565b6001600160a01b03948516815260208101939093529216604082015261ffff909116606082015260800190565b901515815260200190565b6000602082526108e66020830184612ad3565b600060408252612c3b6040830185612ad3565b905060018060a01b03831660208301529392505050565b600060408252612c656040830185612ad3565b90508260208301529392505050565b60208082526023908201527f45524332303a207472616e7366657220746f20746865207a65726f206164647260408201526265737360e81b606082015260800190565b60208082526014908201527314185d5cd8589b194e881b9bdd081c185d5cd95960621b604082015260600190565b60208082526022908201527f45524332303a206275726e20616d6f756e7420657863656564732062616c616e604082015261636560f01b606082015260800190565b6020808252602a908201527f446973636f756e74206c6576656c2077697468647261772074696d656f75742060408201526934b71032b33332b1ba1760b11b606082015260800190565b60208082526026908201527f4f776e61626c653a206e6577206f776e657220697320746865207a65726f206160408201526564647265737360d01b606082015260800190565b60208082526022908201527f45524332303a20617070726f766520746f20746865207a65726f206164647265604082015261737360f01b606082015260800190565b60208082526026908201527f45524332303a207472616e7366657220616d6f756e7420657863656564732062604082015265616c616e636560d01b606082015260800190565b6020808252602a908201527f416e74692d666c6173686c6f616e2077697468647261772074696d656f75742060408201526934b71032b33332b1ba1760b11b606082015260800190565b60208082526017908201527f496e73756666696369656e742042656e6a616d696e732e000000000000000000604082015260600190565b60208082526010908201526f14185d5cd8589b194e881c185d5cd95960821b604082015260600190565b6020808252601490820152732132b73530b6b4b7399034b9903830bab9b2b21760611b604082015260600190565b60208082526028908201527f45524332303a207472616e7366657220616d6f756e74206578636565647320616040820152676c6c6f77616e636560c01b606082015260800190565b6020808252818101527f4f776e61626c653a2063616c6c6572206973206e6f7420746865206f776e6572604082015260600190565b60208082526021908201527f45524332303a206275726e2066726f6d20746865207a65726f206164647265736040820152607360f81b606082015260800190565b60208082526025908201527f45524332303a207472616e736665722066726f6d20746865207a65726f206164604082015264647265737360d81b606082015260800190565b60208082526024908201527f45524332303a20617070726f76652066726f6d20746865207a65726f206164646040820152637265737360e01b606082015260800190565b6020808252601f908201527f5265656e7472616e637947756172643a207265656e7472616e742063616c6c00604082015260600190565b60208082526025908201527f45524332303a2064656372656173656420616c6c6f77616e63652062656c6f77604082015264207a65726f60d81b606082015260800190565b6020808252601f908201527f45524332303a206d696e7420746f20746865207a65726f206164647265737300604082015260600190565b60208082526013908201527224b739bab33334b1b4b2b73a10333ab732399760691b604082015260600190565b61ffff91909116815260200190565b90815260200190565b9182526001600160a01b0316602082015260400190565b918252602082015260400190565b60ff91909116815260200190565b60405181810167ffffffffffffffff811182821017156131ac576131ac61334b565b604052919050565b600067ffffffffffffffff8211156131ce576131ce61334b565b5060209081020190565b600082198211156131eb576131eb61331f565b500190565b6000826131ff576131ff613335565b500490565b600061ffff808316818516818304811182151516156132255761322561331f565b02949350505050565b60008160001904831182151516156132485761324861331f565b500290565b600060ff821660ff84168160ff048111821515161561326e5761326e61331f565b029392505050565b6000828210156132885761328861331f565b500390565b600060ff821660ff8416808210156132a7576132a761331f565b90039392505050565b6002810460018216806132c457607f821691505b602082108114156132e557634e487b7160e01b600052602260045260246000fd5b50919050565b600060ff821660ff8114156133025761330261331f565b60010192915050565b60008261331a5761331a613335565b500690565b634e487b7160e01b600052601160045260246000fd5b634e487b7160e01b600052601260045260246000fd5b634e487b7160e01b600052604160045260246000fdfe706f6c79676f6e555344432e616c6c6f77616e6365285f70617965722c2061646472657373287468697329293a75696e7431362875696e743828313030292d6c6576656c446973636f756e74735b646973636f756e744c6576656c28666f7257686f6d295d293aa2646970667358221220b17cbaca9550beb9eb20ccf19abf02a4e6346e863cc5e6408c99a2fbc53d9f4764736f6c63430008000033",
  "linkReferences": {},
  "deployedLinkReferences": {}
}