{
  "_format": "hh-sol-artifact-1",
  "contractName": "Benjamins",
  "sourceName": "contracts/Benjamins.sol",
  "abi": [
    {
      "inputs": [],
      "stateMutability": "nonpayable",
      "type": "constructor"
    },
    {
      "anonymous": false,
      "inputs": [
        {
          "indexed": true,
          "internalType": "address",
          "name": "owner",
          "type": "address"
        },
        {
          "indexed": true,
          "internalType": "address",
          "name": "spender",
          "type": "address"
        },
        {
          "indexed": false,
          "internalType": "uint256",
          "name": "value",
          "type": "uint256"
        }
      ],
      "name": "Approval",
      "type": "event"
    },
    {
      "anonymous": false,
      "inputs": [
        {
          "indexed": false,
          "internalType": "uint256",
          "name": "amountUSDCin6dec",
          "type": "uint256"
        },
        {
          "indexed": false,
          "internalType": "address",
          "name": "payer",
          "type": "address"
        }
      ],
      "name": "LendingPoolDeposit",
      "type": "event"
    },
    {
      "anonymous": false,
      "inputs": [
        {
          "indexed": false,
          "internalType": "uint256",
          "name": "amountUSDCBeforeFeein6dec",
          "type": "uint256"
        },
        {
          "indexed": false,
          "internalType": "address",
          "name": "payee",
          "type": "address"
        }
      ],
      "name": "LendingPoolWithdrawal",
      "type": "event"
    },
    {
      "anonymous": false,
      "inputs": [
        {
          "indexed": true,
          "internalType": "address",
          "name": "previousOwner",
          "type": "address"
        },
        {
          "indexed": true,
          "internalType": "address",
          "name": "newOwner",
          "type": "address"
        }
      ],
      "name": "OwnershipTransferred",
      "type": "event"
    },
    {
      "anonymous": false,
      "inputs": [
        {
          "indexed": false,
          "internalType": "address",
          "name": "account",
          "type": "address"
        }
      ],
      "name": "Paused",
      "type": "event"
    },
    {
      "anonymous": false,
      "inputs": [
        {
          "indexed": true,
          "internalType": "address",
          "name": "from",
          "type": "address"
        },
        {
          "indexed": true,
          "internalType": "address",
          "name": "to",
          "type": "address"
        },
        {
          "indexed": false,
          "internalType": "uint256",
          "name": "value",
          "type": "uint256"
        }
      ],
      "name": "Transfer",
      "type": "event"
    },
    {
      "anonymous": false,
      "inputs": [
        {
          "indexed": false,
          "internalType": "address",
          "name": "account",
          "type": "address"
        }
      ],
      "name": "Unpaused",
      "type": "event"
    },
    {
      "anonymous": false,
      "inputs": [
        {
          "indexed": false,
          "internalType": "address",
          "name": "fromAddress",
          "type": "address"
        },
        {
          "indexed": false,
          "internalType": "address",
          "name": "toAddress",
          "type": "address"
        },
        {
          "indexed": false,
          "internalType": "uint256",
          "name": "inTokens",
          "type": "uint256"
        },
        {
          "indexed": false,
          "internalType": "uint256",
          "name": "beforeFeeUSDCin6dec",
          "type": "uint256"
        },
        {
          "indexed": false,
          "internalType": "uint256",
          "name": "feeUSDCin6dec",
          "type": "uint256"
        }
      ],
      "name": "exchanged",
      "type": "event"
    },
    {
      "anonymous": false,
      "inputs": [
        {
          "indexed": false,
          "internalType": "address",
          "name": "account",
          "type": "address"
        }
      ],
      "name": "newDepositAccount",
      "type": "event"
    },
    {
      "anonymous": false,
      "inputs": [
        {
          "indexed": false,
          "internalType": "address",
          "name": "beneficiary",
          "type": "address"
        }
      ],
      "name": "newFeeReceiver",
      "type": "event"
    },
    {
      "anonymous": false,
      "inputs": [
        {
          "indexed": false,
          "internalType": "uint256",
          "name": "availableIn6dec",
          "type": "uint256"
        },
        {
          "indexed": false,
          "internalType": "uint256",
          "name": "amountUSDCin6dec",
          "type": "uint256"
        }
      ],
      "name": "profitTaken",
      "type": "event"
    },
    {
      "inputs": [
        {
          "internalType": "address",
          "name": "owner",
          "type": "address"
        },
        {
          "internalType": "address",
          "name": "spender",
          "type": "address"
        }
      ],
      "name": "allowance",
      "outputs": [
        {
          "internalType": "uint256",
          "name": "",
          "type": "uint256"
        }
      ],
      "stateMutability": "view",
      "type": "function"
    },
    {
      "inputs": [
        {
          "internalType": "address",
          "name": "spender",
          "type": "address"
        },
        {
          "internalType": "uint256",
          "name": "amount",
          "type": "uint256"
        }
      ],
      "name": "approve",
      "outputs": [
        {
          "internalType": "bool",
          "name": "",
          "type": "bool"
        }
      ],
      "stateMutability": "nonpayable",
      "type": "function"
    },
    {
      "inputs": [
        {
          "internalType": "address",
          "name": "account",
          "type": "address"
        }
      ],
      "name": "balanceOf",
      "outputs": [
        {
          "internalType": "uint256",
          "name": "",
          "type": "uint256"
        }
      ],
      "stateMutability": "view",
      "type": "function"
    },
    {
      "inputs": [
        {
          "internalType": "uint256",
          "name": "_amount",
          "type": "uint256"
        }
      ],
      "name": "burn",
      "outputs": [],
      "stateMutability": "nonpayable",
      "type": "function"
    },
    {
      "inputs": [
        {
          "internalType": "uint256",
          "name": "_amount",
          "type": "uint256"
        },
        {
          "internalType": "address",
          "name": "_toWhom",
          "type": "address"
        }
      ],
      "name": "burnTo",
      "outputs": [],
      "stateMutability": "nonpayable",
      "type": "function"
    },
    {
      "inputs": [],
      "name": "decimals",
      "outputs": [
        {
          "internalType": "uint8",
          "name": "",
          "type": "uint8"
        }
      ],
      "stateMutability": "view",
      "type": "function"
    },
    {
      "inputs": [
        {
          "internalType": "address",
          "name": "spender",
          "type": "address"
        },
        {
          "internalType": "uint256",
          "name": "subtractedValue",
          "type": "uint256"
        }
      ],
      "name": "decreaseAllowance",
      "outputs": [
        {
          "internalType": "bool",
          "name": "",
          "type": "bool"
        }
      ],
      "stateMutability": "nonpayable",
      "type": "function"
    },
    {
      "inputs": [
        {
          "internalType": "address",
          "name": "_whom",
          "type": "address"
        }
      ],
      "name": "discountLevel",
      "outputs": [
        {
          "internalType": "uint8",
          "name": "",
          "type": "uint8"
        }
      ],
      "stateMutability": "view",
      "type": "function"
    },
    {
      "inputs": [
        {
          "internalType": "address",
          "name": "spender",
          "type": "address"
        },
        {
          "internalType": "uint256",
          "name": "addedValue",
          "type": "uint256"
        }
      ],
      "name": "increaseAllowance",
      "outputs": [
        {
          "internalType": "bool",
          "name": "",
          "type": "bool"
        }
      ],
      "stateMutability": "nonpayable",
      "type": "function"
    },
    {
      "inputs": [
        {
          "internalType": "uint256",
          "name": "_amount",
          "type": "uint256"
        }
      ],
      "name": "mint",
      "outputs": [],
      "stateMutability": "nonpayable",
      "type": "function"
    },
    {
      "inputs": [
        {
          "internalType": "uint256",
          "name": "_amount",
          "type": "uint256"
        },
        {
          "internalType": "address",
          "name": "_toWhom",
          "type": "address"
        }
      ],
      "name": "mintTo",
      "outputs": [],
      "stateMutability": "nonpayable",
      "type": "function"
    },
    {
      "inputs": [],
      "name": "name",
      "outputs": [
        {
          "internalType": "string",
          "name": "",
          "type": "string"
        }
      ],
      "stateMutability": "view",
      "type": "function"
    },
    {
      "inputs": [],
      "name": "owner",
      "outputs": [
        {
          "internalType": "address",
          "name": "",
          "type": "address"
        }
      ],
      "stateMutability": "view",
      "type": "function"
    },
    {
      "inputs": [],
      "name": "pause",
      "outputs": [],
      "stateMutability": "nonpayable",
      "type": "function"
    },
    {
      "inputs": [],
      "name": "paused",
      "outputs": [
        {
          "internalType": "bool",
          "name": "",
          "type": "bool"
        }
      ],
      "stateMutability": "view",
      "type": "function"
    },
    {
      "inputs": [],
      "name": "polygonAMUSDC",
      "outputs": [
        {
          "internalType": "contract IERC20",
          "name": "",
          "type": "address"
        }
      ],
      "stateMutability": "view",
      "type": "function"
    },
    {
      "inputs": [],
      "name": "polygonLendingPool",
      "outputs": [
        {
          "internalType": "contract ILendingPool",
          "name": "",
          "type": "address"
        }
      ],
      "stateMutability": "view",
      "type": "function"
    },
    {
      "inputs": [],
      "name": "polygonUSDC",
      "outputs": [
        {
          "internalType": "contract IERC20",
          "name": "",
          "type": "address"
        }
      ],
      "stateMutability": "view",
      "type": "function"
    },
    {
      "inputs": [
        {
          "internalType": "address",
          "name": "forWhom",
          "type": "address"
        }
      ],
      "name": "quoteFeePercentage",
      "outputs": [
        {
          "internalType": "uint16",
          "name": "",
          "type": "uint16"
        }
      ],
      "stateMutability": "view",
      "type": "function"
    },
    {
      "inputs": [
        {
          "internalType": "uint256",
          "name": "_amount",
          "type": "uint256"
        },
        {
          "internalType": "bool",
          "name": "isMint",
          "type": "bool"
        }
      ],
      "name": "quoteUSDC",
      "outputs": [
        {
          "internalType": "uint256",
          "name": "",
          "type": "uint256"
        }
      ],
      "stateMutability": "view",
      "type": "function"
    },
    {
      "inputs": [],
      "name": "renounceOwnership",
      "outputs": [],
      "stateMutability": "nonpayable",
      "type": "function"
    },
    {
      "inputs": [
        {
          "internalType": "address",
          "name": "ERC20ContractAddress",
          "type": "address"
        }
      ],
      "name": "scavengeERC20Tip",
      "outputs": [],
      "stateMutability": "nonpayable",
      "type": "function"
    },
    {
      "inputs": [
        {
          "internalType": "address",
          "name": "beneficiary",
          "type": "address"
        }
      ],
      "name": "setFeeReceiver",
      "outputs": [],
      "stateMutability": "nonpayable",
      "type": "function"
    },
    {
      "inputs": [],
      "name": "symbol",
      "outputs": [
        {
          "internalType": "string",
          "name": "",
          "type": "string"
        }
      ],
      "stateMutability": "view",
      "type": "function"
    },
    {
      "inputs": [],
      "name": "totalSupply",
      "outputs": [
        {
          "internalType": "uint256",
          "name": "",
          "type": "uint256"
        }
      ],
      "stateMutability": "view",
      "type": "function"
    },
    {
      "inputs": [
        {
          "internalType": "address",
          "name": "recipient",
          "type": "address"
        },
        {
          "internalType": "uint256",
          "name": "amount",
          "type": "uint256"
        }
      ],
      "name": "transfer",
      "outputs": [
        {
          "internalType": "bool",
          "name": "",
          "type": "bool"
        }
      ],
      "stateMutability": "nonpayable",
      "type": "function"
    },
    {
      "inputs": [
        {
          "internalType": "address",
          "name": "sender",
          "type": "address"
        },
        {
          "internalType": "address",
          "name": "recipient",
          "type": "address"
        },
        {
          "internalType": "uint256",
          "name": "amountBNJIs",
          "type": "uint256"
        }
      ],
      "name": "transferFrom",
      "outputs": [
        {
          "internalType": "bool",
          "name": "",
          "type": "bool"
        }
      ],
      "stateMutability": "nonpayable",
      "type": "function"
    },
    {
      "inputs": [
        {
          "internalType": "address",
          "name": "newOwner",
          "type": "address"
        }
      ],
      "name": "transferOwnership",
      "outputs": [],
      "stateMutability": "nonpayable",
      "type": "function"
    },
    {
      "inputs": [],
      "name": "unpause",
      "outputs": [],
      "stateMutability": "nonpayable",
      "type": "function"
    },
    {
      "inputs": [
        {
          "internalType": "uint256",
          "name": "amountToApprove",
          "type": "uint256"
        }
      ],
      "name": "updateApproveLendingPool",
      "outputs": [],
      "stateMutability": "nonpayable",
      "type": "function"
    },
    {
      "inputs": [
        {
          "internalType": "uint256",
          "name": "newAmountOfBlocksPerDay",
          "type": "uint256"
        }
      ],
      "name": "updateBlocksPerDay",
      "outputs": [],
      "stateMutability": "nonpayable",
      "type": "function"
    },
    {
      "inputs": [
        {
          "internalType": "uint32[]",
          "name": "newLevelAntes",
          "type": "uint32[]"
        }
      ],
      "name": "updateLevelAntes",
      "outputs": [],
      "stateMutability": "nonpayable",
      "type": "function"
    },
    {
      "inputs": [
        {
          "internalType": "uint8[]",
          "name": "newLevelDiscounts",
          "type": "uint8[]"
        }
      ],
      "name": "updateLevelDiscounts",
      "outputs": [],
      "stateMutability": "nonpayable",
      "type": "function"
    },
    {
      "inputs": [
        {
          "internalType": "uint16[]",
          "name": "newLevelHolds",
          "type": "uint16[]"
        }
      ],
      "name": "updateLevelHolds",
      "outputs": [],
      "stateMutability": "nonpayable",
      "type": "function"
    },
    {
      "inputs": [
        {
          "internalType": "address",
          "name": "newAddress",
          "type": "address"
        }
      ],
      "name": "updatePolygonAMUSDC",
      "outputs": [],
      "stateMutability": "nonpayable",
      "type": "function"
    },
    {
      "inputs": [
        {
          "internalType": "address",
          "name": "newAddress",
          "type": "address"
        }
      ],
      "name": "updatePolygonLendingPool",
      "outputs": [],
      "stateMutability": "nonpayable",
      "type": "function"
    },
    {
      "inputs": [
        {
          "internalType": "address",
          "name": "newAddress",
          "type": "address"
        }
      ],
      "name": "updatePolygonUSDC",
      "outputs": [],
      "stateMutability": "nonpayable",
      "type": "function"
    },
    {
      "inputs": [
        {
          "internalType": "uint256",
          "name": "_amountIn6dec",
          "type": "uint256"
        }
      ],
      "name": "withdrawGains",
      "outputs": [],
      "stateMutability": "nonpayable",
      "type": "function"
    },
    {
      "stateMutability": "payable",
      "type": "receive"
    }
  ],
  "bytecode": "0x6080604052620f4240600d556013805460ff19908116600a179091556002601455620c35006015556016805490911660011790553480156200004057600080fd5b506040518060400160405280600981526020016842656e6a616d696e7360b81b81525060405180604001604052806004815260200163424e4a4960e01b8152506000620000926200028660201b60201c565b600080546001600160a01b0319166001600160a01b0383169081178255604051929350917f8be0079c531659141344cd1fd0a4f28419497f9722a3daafe3b4186f6b6457e0908290a3508151620000f190600490602085019062000378565b5080516200010790600590602084019062000378565b50506006805460ff199081169091556001600755600e80549091169055506000600b55600c80546001600160a01b031990811673e51c8401fe1e70f78bbd3ac660692597d33dbaff17909155600980548216732791bca1f2de4661ed88a30c99a7a9449aa84174179055600a80548216731a13f4ca1d028320a707d99520abfefca3998b7f17905560088054909116738dff5e27ea6b7ac08ebfdf9eb090f32ee9a30fcf1790556040805160a08101825260148152603c60208201526064918101919091526101f460608201526107d06080820152620001ec90601090600562000407565b506040805160c0810182526000815260026020820152600791810191909152601e6060820152605a608082015261016860a082015262000231906011906006620004b6565b506040805160c0810182526000815260056020820152600a918101919091526014606082015260286080820152604b60a08201526200027590601290600662000552565b50620002806200028a565b620006b2565b3390565b6200029462000286565b6001600160a01b0316620002a7620002e5565b6001600160a01b031614620002d95760405162461bcd60e51b8152600401620002d09062000640565b60405180910390fd5b620002e3620002f4565b565b6000546001600160a01b031690565b620002fe6200036f565b156200031e5760405162461bcd60e51b8152600401620002d09062000616565b6006805460ff191660011790557f62e78cea01bee320cd4e420270b5ea74000d11b0c9f74754ebdbfc544b05a2586200035662000286565b60405162000365919062000602565b60405180910390a1565b60065460ff1690565b828054620003869062000675565b90600052602060002090601f016020900481019282620003aa5760008555620003f5565b82601f10620003c557805160ff1916838001178555620003f5565b82800160010185558215620003f5579182015b82811115620003f5578251825591602001919060010190620003d8565b5062000403929150620005eb565b5090565b82805482825590600052602060002090600701600890048101928215620003f55791602002820160005b838211156200047557835183826101000a81548163ffffffff021916908361ffff160217905550926020019260040160208160030104928301926001030262000431565b8015620004a75782816101000a81549063ffffffff021916905560040160208160030104928301926001030262000475565b505062000403929150620005eb565b82805482825590600052602060002090600f01601090048101928215620003f55791602002820160005b838211156200052257835183826101000a81548161ffff021916908361ffff1602179055509260200192600201602081600101049283019260010302620004e0565b8015620004a75782816101000a81549061ffff021916905560020160208160010104928301926001030262000522565b82805482825590600052602060002090601f01602090048101928215620003f55791602002820160005b83821115620005bc57835183826101000a81548160ff021916908360ff16021790555092602001926001016020816000010492830192600103026200057c565b8015620004a75782816101000a81549060ff0219169055600101602081600001049283019260010302620005bc565b5b80821115620004035760008155600101620005ec565b6001600160a01b0391909116815260200190565b60208082526010908201526f14185d5cd8589b194e881c185d5cd95960821b604082015260600190565b6020808252818101527f4f776e61626c653a2063616c6c6572206973206e6f7420746865206f776e6572604082015260600190565b6002810460018216806200068a57607f821691505b60208210811415620006ac57634e487b7160e01b600052602260045260246000fd5b50919050565b61351c80620006c26000396000f3fe6080604052600436106102295760003560e01c8063715018a611610123578063b3faaf93116100ab578063d948e1041161006f578063d948e10414610628578063dd62ed3e1461063d578063ea89120b1461065d578063efdcd9741461068a578063f2fde38b146106aa57610230565b8063b3faaf9314610588578063b723b34e146105a8578063c0100143146105c8578063c6a5d5da146105e8578063cd0d95e21461060857610230565b806395d89b41116100f257806395d89b41146104f357806397b9294214610508578063a0712d6814610528578063a457c2d714610548578063a9059cbb1461056857610230565b8063715018a61461049f5780638456cb59146104b45780638da5cb5b146104c95780638fb33017146104de57610230565b806338d1692f116101b157806355ab59501161017557806355ab595014610408578063571ff20d146104285780635c975abb146104485780636c7529741461045d57806370a082311461047f57610230565b806338d1692f1461037357806339509351146103935780633f4ba83a146103b357806342966c68146103c857806347f220ae146103e857610230565b806318160ddd116101f857806318160ddd146102dc578063185cf4b5146102fe57806323b872dd1461031e578063257a00501461033e578063313ce5671461035e57610230565b806306fdde0314610235578063093f595014610260578063095ea7b31461028d57806316087315146102ba57610230565b3661023057005b600080fd5b34801561024157600080fd5b5061024a6106ca565b6040516102579190612df2565b60405180910390f35b34801561026c57600080fd5b5061028061027b3660046129ab565b61075c565b60405161025791906132f3565b34801561029957600080fd5b506102ad6102a8366004612a39565b61084c565b6040516102579190612de7565b3480156102c657600080fd5b506102da6102d53660046129ab565b610869565b005b3480156102e857600080fd5b506102f16108ca565b60405161025791906132a4565b34801561030a57600080fd5b506102da610319366004612c49565b6108d0565b34801561032a57600080fd5b506102ad6103393660046129fe565b610a85565b34801561034a57600080fd5b506102da6103593660046129ab565b610c36565b34801561036a57600080fd5b50610280610eff565b34801561037f57600080fd5b506102f161038e366004612c9b565b610f08565b34801561039f57600080fd5b506102ad6103ae366004612a39565b6110f3565b3480156103bf57600080fd5b506102da611142565b3480156103d457600080fd5b506102da6103e3366004612c49565b61118b565b3480156103f457600080fd5b506102da610403366004612a62565b611198565b34801561041457600080fd5b506102da6104233660046129ab565b6111ee565b34801561043457600080fd5b506102da610443366004612c79565b61133e565b34801561045457600080fd5b506102ad6113e4565b34801561046957600080fd5b506104726113ed565b6040516102579190612d15565b34801561048b57600080fd5b506102f161049a3660046129ab565b6113fc565b3480156104ab57600080fd5b506102da611417565b3480156104c057600080fd5b506102da6114a0565b3480156104d557600080fd5b506104726114e7565b3480156104ea57600080fd5b506104726114f6565b3480156104ff57600080fd5b5061024a611505565b34801561051457600080fd5b506102da610523366004612b9b565b611514565b34801561053457600080fd5b506102da610543366004612c49565b611566565b34801561055457600080fd5b506102ad610563366004612a39565b611570565b34801561057457600080fd5b506102ad610583366004612a39565b6115eb565b34801561059457600080fd5b506102da6105a3366004612b06565b611740565b3480156105b457600080fd5b506102da6105c3366004612c79565b611792565b3480156105d457600080fd5b506102da6105e33660046129ab565b61181e565b3480156105f457600080fd5b506102da610603366004612c49565b61187f565b34801561061457600080fd5b506102da610623366004612c49565b6118c3565b34801561063457600080fd5b5061047261198a565b34801561064957600080fd5b506102f16106583660046129cc565b611999565b34801561066957600080fd5b5061067d6106783660046129ab565b6119c4565b6040516102579190613295565b34801561069657600080fd5b506102da6106a53660046129ab565b611a95565b3480156106b657600080fd5b506102da6106c53660046129ab565b611b2a565b6060600480546106d990613427565b80601f016020809104026020016040519081016040528092919081815260200182805461070590613427565b80156107525780601f1061072757610100808354040283529160200191610752565b820191906000526020600020905b81548152906001019060200180831161073557829003601f168201915b5050505050905090565b60006107666113e4565b158061079157506107756114e7565b6001600160a01b0316610786611bea565b6001600160a01b0316145b6107b65760405162461bcd60e51b81526004016107ad9061303c565b60405180910390fd5b60006107c1836113fc565b90506000805b60105460ff821610156108425760108160ff16815481106107f857634e487b7160e01b600052603260045260246000fd5b6000918252602090912060088204015460079091166004026101000a900463ffffffff168310610830578161082c81613462565b9250505b8061083a81613462565b9150506107c7565b509150505b919050565b6000610860610859611bea565b8484611bee565b50600192915050565b610871611bea565b6001600160a01b03166108826114e7565b6001600160a01b0316146108a85760405162461bcd60e51b81526004016107ad9061306a565b600980546001600160a01b0319166001600160a01b0392909216919091179055565b60035490565b6108d8611bea565b6001600160a01b03166108e96114e7565b6001600160a01b03161461090f5760405162461bcd60e51b81526004016107ad9061306a565b600b54600a546040516370a0823160e01b8152600092916001600160a01b0316906370a0823190610944903090600401612d15565b60206040518083038186803b15801561095c57600080fd5b505afa158015610970573d6000803e3d6000fd5b505050506040513d601f19601f820116820180604052508101906109949190612c61565b61099e91906133ed565b90508181116109bf5760405162461bcd60e51b81526004016107ad90613268565b600a54600c5460405163a9059cbb60e01b81526001600160a01b039283169263a9059cbb926109f5929116908690600401612d7e565b602060405180830381600087803b158015610a0f57600080fd5b505af1158015610a23573d6000803e3d6000fd5b505050506040513d601f19601f82011682018060405250810190610a479190612c2d565b507f8b9c4e1b9c860b263c59ac36417dfb6be15a01919b159407b1971058eee1e0298183604051610a799291906132e5565b60405180910390a15050565b600060026007541415610aaa5760405162461bcd60e51b81526004016107ad90613169565b6002600755610ab76113e4565b1580610ae25750610ac66114e7565b6001600160a01b0316610ad7611bea565b6001600160a01b0316145b610afe5760405162461bcd60e51b81526004016107ad9061303c565b836000610b0a8561075c565b90506000610b1785611ca2565b600954600c546040516323b872dd60e01b81529293506001600160a01b03918216926323b872dd92610b52928c929116908690600401612d29565b602060405180830381600087803b158015610b6c57600080fd5b505af1158015610b80573d6000803e3d6000fd5b505050506040513d601f19601f82011682018060405250810190610ba49190612c2d565b506000610bb388610658611bea565b905085811015610bd55760405162461bcd60e51b81526004016107ad906131a0565b610be0888888611cfc565b610bfb88610bec611bea565b610bf689856133ed565b611bee565b6000610c068861075c565b90508360ff168160ff161115610c2157610c1f88611e24565b505b60019550505050505060016007559392505050565b610c3e611bea565b6001600160a01b0316610c4f6114e7565b6001600160a01b031614610c755760405162461bcd60e51b81526004016107ad9061306a565b600854600954604051631a4ca37b60e21b81526001600160a01b03928316926369328dec92610caf92911690600019903090600401612d97565b602060405180830381600087803b158015610cc957600080fd5b505af1158015610cdd573d6000803e3d6000fd5b505050506040513d601f19601f82011682018060405250810190610d019190612c61565b50600880546001600160a01b0319166001600160a01b0383161790556040517f33481e616168e187acdc90fda3d0269454b31c195cc00e4db474ca44f8d43ae890610d4d908390612d15565b60405180910390a16009546040516370a0823160e01b81526000916001600160a01b0316906370a0823190610d86903090600401612d15565b60206040518083038186803b158015610d9e57600080fd5b505afa158015610db2573d6000803e3d6000fd5b505050506040513d601f19601f82011682018060405250810190610dd69190612c61565b60095460085460405163095ea7b360e01b81529293506001600160a01b039182169263095ea7b392610e0e9216908590600401612d7e565b602060405180830381600087803b158015610e2857600080fd5b505af1158015610e3c573d6000803e3d6000fd5b505050506040513d601f19601f82011682018060405250810190610e609190612c2d565b5060085460095460405163e8eda9df60e01b81526001600160a01b039283169263e8eda9df92610e9c9291169085903090600090600401612dba565b600060405180830381600087803b158015610eb657600080fd5b505af1158015610eca573d6000803e3d6000fd5b505050507f96a06dd751c9aee3cbe69bcfe31505e68da315871c459fd3467debfd76a901e98130604051610a799291906132ad565b600e5460ff1690565b6000610f126113e4565b1580610f3d5750610f216114e7565b6001600160a01b0316610f32611bea565b6001600160a01b0316145b610f595760405162461bcd60e51b81526004016107ad9061303c565b6000610f636108ca565b90506000610f7182806133a5565b90506000808060018715151415610fab57610f8c888661334f565b9250610f9883806133a5565b9150610fa484836133ed565b9050610fd0565b610fb588866133ed565b9250610fc183806133a5565b9150610fcd82856133ed565b90505b6000600d5482610fe091906133a5565b9050600060155482610ff29190613367565b9050600061100261271083613482565b9050600061101082846133ed565b9050611043826040518060400160405280600f81526020016e746869732069732073747562626c6560881b815250611e94565b611082836040518060400160405280601a81526020017f7468697320697320616d6f756e74496e55534443696e36646563000000000000815250611e94565b6110c1816040518060400160405280601b81526020017f7468697320697320656e64416d6f756e7455534443696e366465630000000000815250611e94565b624c4b408110156110e45760405162461bcd60e51b81526004016107ad90612e05565b9b9a5050505050505050505050565b6000610860611100611bea565b84846002600061110e611bea565b6001600160a01b03908116825260208083019390935260409182016000908120918b1681529252902054610bf6919061334f565b61114a611bea565b6001600160a01b031661115b6114e7565b6001600160a01b0316146111815760405162461bcd60e51b81526004016107ad9061306a565b611189611ed9565b565b611195813361133e565b50565b6111a0611bea565b6001600160a01b03166111b16114e7565b6001600160a01b0316146111d75760405162461bcd60e51b81526004016107ad9061306a565b80516111ea9060119060208401906127a5565b5050565b6111f6611bea565b6001600160a01b03166112076114e7565b6001600160a01b03161461122d5760405162461bcd60e51b81526004016107ad9061306a565b6040516370a0823160e01b815281906000906001600160a01b038316906370a082319061125e903090600401612d15565b60206040518083038186803b15801561127657600080fd5b505afa15801561128a573d6000803e3d6000fd5b505050506040513d601f19601f820116820180604052508101906112ae9190612c61565b600c546040516323b872dd60e01b81529192506001600160a01b03808516926323b872dd926112e69230929116908690600401612d29565b602060405180830381600087803b15801561130057600080fd5b505af1158015611314573d6000803e3d6000fd5b505050506040513d601f19601f820116820180604052508101906113389190612c2d565b50505050565b6113466113e4565b158061137157506113556114e7565b6001600160a01b0316611366611bea565b6001600160a01b0316145b61138d5760405162461bcd60e51b81526004016107ad9061303c565b8180611398336113fc565b10156113b65760405162461bcd60e51b81526004016107ad90612fdb565b826113c2816000610f08565b600b5410156113d057600080fd5b336113dd84866000611f47565b5050505050565b60065460ff1690565b6009546001600160a01b031681565b6001600160a01b031660009081526001602052604090205490565b61141f611bea565b6001600160a01b03166114306114e7565b6001600160a01b0316146114565760405162461bcd60e51b81526004016107ad9061306a565b600080546040516001600160a01b03909116907f8be0079c531659141344cd1fd0a4f28419497f9722a3daafe3b4186f6b6457e0908390a3600080546001600160a01b0319169055565b6114a8611bea565b6001600160a01b03166114b96114e7565b6001600160a01b0316146114df5760405162461bcd60e51b81526004016107ad9061306a565b6111896120ea565b6000546001600160a01b031690565b600a546001600160a01b031681565b6060600580546106d990613427565b61151c611bea565b6001600160a01b031661152d6114e7565b6001600160a01b0316146115535760405162461bcd60e51b81526004016107ad9061306a565b80516111ea90601290602084019061284e565b6111958133611792565b6000806002600061157f611bea565b6001600160a01b03908116825260208083019390935260409182016000908120918816815292529020549050828110156115cb5760405162461bcd60e51b81526004016107ad906131ec565b6115e16115d6611bea565b85610bf686856133ed565b5060019392505050565b60006115f56113e4565b158061162057506116046114e7565b6001600160a01b0316611615611bea565b6001600160a01b0316145b61163c5760405162461bcd60e51b81526004016107ad9061303c565b611644611bea565b600061164f8561075c565b9050600061165c85611ca2565b6009549091506001600160a01b03166323b872dd611678611bea565b600c546040516001600160e01b031960e085901b1681526116a892916001600160a01b0316908690600401612d29565b602060405180830381600087803b1580156116c257600080fd5b505af11580156116d6573d6000803e3d6000fd5b505050506040513d601f19601f820116820180604052508101906116fa9190612c2d565b5061170d611706611bea565b8787611cfc565b60006117188761075c565b90508260ff168160ff1611156117335761173187611e24565b505b5060019695505050505050565b611748611bea565b6001600160a01b03166117596114e7565b6001600160a01b03161461177f5760405162461bcd60e51b81526004016107ad9061306a565b80516111ea9060109060208401906128e2565b61179a6113e4565b15806117c557506117a96114e7565b6001600160a01b03166117ba611bea565b6001600160a01b0316145b6117e15760405162461bcd60e51b81526004016107ad9061303c565b60006117ec8261075c565b90506117fa82846001611f47565b60006118058361075c565b90508160ff168160ff161115611338576113dd83611e24565b611826611bea565b6001600160a01b03166118376114e7565b6001600160a01b03161461185d5760405162461bcd60e51b81526004016107ad9061306a565b600a80546001600160a01b0319166001600160a01b0392909216919091179055565b611887611bea565b6001600160a01b03166118986114e7565b6001600160a01b0316146118be5760405162461bcd60e51b81526004016107ad9061306a565b601455565b6118cb611bea565b6001600160a01b03166118dc6114e7565b6001600160a01b0316146119025760405162461bcd60e51b81526004016107ad9061306a565b60095460085460405163095ea7b360e01b81526001600160a01b039283169263095ea7b392611938929116908590600401612d7e565b602060405180830381600087803b15801561195257600080fd5b505af1158015611966573d6000803e3d6000fd5b505050506040513d601f19601f820116820180604052508101906111ea9190612c2d565b6008546001600160a01b031681565b6001600160a01b03918216600090815260026020908152604080832093909416825291909152205490565b60006119ce6113e4565b15806119f957506119dd6114e7565b6001600160a01b03166119ee611bea565b6001600160a01b0316145b611a155760405162461bcd60e51b81526004016107ad9061303c565b6012611a208361075c565b60ff1681548110611a4157634e487b7160e01b600052603260045260246000fd5b90600052602060002090602091828204019190069054906101000a900460ff166064611a6d9190613404565b60165460ff91821691611a82911660646133c4565b60ff16611a8f919061337b565b92915050565b611a9d611bea565b6001600160a01b0316611aae6114e7565b6001600160a01b031614611ad45760405162461bcd60e51b81526004016107ad9061306a565b600c80546001600160a01b0319166001600160a01b0383161790556040517fa574362825e0eb8232ebe212b029c5b3a30ca54219bc287f49181e95bbb8608990611b1f908390612d15565b60405180910390a150565b611b32611bea565b6001600160a01b0316611b436114e7565b6001600160a01b031614611b695760405162461bcd60e51b81526004016107ad9061306a565b6001600160a01b038116611b8f5760405162461bcd60e51b81526004016107ad90612f0d565b600080546040516001600160a01b03808516939216917f8be0079c531659141344cd1fd0a4f28419497f9722a3daafe3b4186f6b6457e091a3600080546001600160a01b0319166001600160a01b0392909216919091179055565b3390565b6001600160a01b038316611c145760405162461bcd60e51b81526004016107ad90613125565b6001600160a01b038216611c3a5760405162461bcd60e51b81526004016107ad90612f53565b6001600160a01b0380841660008181526002602090815260408083209487168084529490915290819020849055517f8c5be1e5ebec7d5bd14f71427d1e84f3dd0314c0f7b2291e5b200ac8c7c3b92590611c959085906132a4565b60405180910390a3505050565b600080611cb0836000610f08565b90506000620f4240611cc1336119c4565b611ccf9061ffff16846133a5565b611cd99190613367565b90506000611ce961271083613482565b611cf390836133ed565b95945050505050565b6001600160a01b038316611d225760405162461bcd60e51b81526004016107ad906130e0565b6001600160a01b038216611d485760405162461bcd60e51b81526004016107ad90612e5a565b611d53838383612145565b6001600160a01b03831660009081526001602052604090205481811015611d8c5760405162461bcd60e51b81526004016107ad90612f95565b611d9682826133ed565b6001600160a01b038086166000908152600160205260408082209390935590851681529081208054849290611dcc90849061334f565b92505081905550826001600160a01b0316846001600160a01b03167fddf252ad1be2c89b69c2b068fc378daa952ba7f163c4a11628f55a4df523b3ef84604051611e1691906132a4565b60405180910390a350505050565b6000611e2e6113e4565b1580611e595750611e3d6114e7565b6001600160a01b0316611e4e611bea565b6001600160a01b0316145b611e755760405162461bcd60e51b81526004016107ad9061303c565b6001600160a01b039091166000908152600f6020526040902043905590565b6111ea8282604051602401611eaa9291906132c4565b60408051601f198184030181529190526020810180516001600160e01b0316630fa3f34560e01b17905261214a565b611ee16113e4565b611efd5760405162461bcd60e51b81526004016107ad90612e9d565b6006805460ff191690557f5db9ee0a495bf2e6ff9c91a7834c1ba4fdd244a5e8aa4e537bd38aeae4b073aa611f30611bea565b604051611f3d9190612d15565b60405180910390a1565b60026007541415611f6a5760405162461bcd60e51b81526004016107ad90613169565b6002600755611f776113e4565b1580611fa25750611f866114e7565b6001600160a01b0316611f97611bea565b6001600160a01b0316145b611fbe5760405162461bcd60e51b81526004016107ad9061303c565b600060018215151415611fdd57611fd6836001610f08565b9050611feb565b611fe8836000610f08565b90505b6000620f4240611ffa336119c4565b6120089061ffff16846133a5565b6120129190613367565b9050600061202261271083613482565b61202c90836133ed565b90506001841515141561206e5761204733878584600161216b565b61205186866125ff565b82600b6000828254612063919061334f565b9091555061209e9050565b61207833866126bf565b61208633878584600061216b565b82600b600082825461209891906133ed565b90915550505b7faa1840ad2b124c68a39cd301fc5f80ad593b05a52c5344a787f2762ace6dea3433878786856040516120d5959493929190612d4d565b60405180910390a15050600160075550505050565b6120f26113e4565b1561210f5760405162461bcd60e51b81526004016107ad90613012565b6006805460ff191660011790557f62e78cea01bee320cd4e420270b5ea74000d11b0c9f74754ebdbfc544b05a258611f30611bea565b505050565b80516a636f6e736f6c652e6c6f67602083016000808483855afa5050505050565b6121736113e4565b158061219e57506121826114e7565b6001600160a01b0316612193611bea565b6001600160a01b0316145b6121ba5760405162461bcd60e51b81526004016107ad9061303c565b600181151514156124175760006121d1838561334f565b6009546040516323b872dd60e01b81529192506001600160a01b0316906323b872dd9061220690899030908690600401612d29565b602060405180830381600087803b15801561222057600080fd5b505af1158015612234573d6000803e3d6000fd5b505050506040513d601f19601f820116820180604052508101906122589190612c2d565b50600954600c5460405163a9059cbb60e01b81526001600160a01b039283169263a9059cbb9261228f929116908790600401612d7e565b602060405180830381600087803b1580156122a957600080fd5b505af11580156122bd573d6000803e3d6000fd5b505050506040513d601f19601f820116820180604052508101906122e19190612c2d565b5060095460085460405163095ea7b360e01b81526001600160a01b039283169263095ea7b392612318929116908890600401612d7e565b602060405180830381600087803b15801561233257600080fd5b505af1158015612346573d6000803e3d6000fd5b505050506040513d601f19601f8201168201806040525081019061236a9190612c2d565b5060085460095460405163e8eda9df60e01b81526001600160a01b039283169263e8eda9df926123a69291169088903090600090600401612dba565b600060405180830381600087803b1580156123c057600080fd5b505af11580156123d4573d6000803e3d6000fd5b505050507f96a06dd751c9aee3cbe69bcfe31505e68da315871c459fd3467debfd76a901e984876040516124099291906132ad565b60405180910390a1506113dd565b600061242383856133ed565b600854600954604051631a4ca37b60e21b81529293506001600160a01b03918216926369328dec9261245d92169088903090600401612d97565b602060405180830381600087803b15801561247757600080fd5b505af115801561248b573d6000803e3d6000fd5b505050506040513d601f19601f820116820180604052508101906124af9190612c61565b507fa605ade827572a0d40ee9676d8a1bcdf38fdd902413c655c283bbbba576867ba84866040516124e19291906132ad565b60405180910390a1600954600c5460405163a9059cbb60e01b81526001600160a01b039283169263a9059cbb9261251f929116908790600401612d7e565b602060405180830381600087803b15801561253957600080fd5b505af115801561254d573d6000803e3d6000fd5b505050506040513d601f19601f820116820180604052508101906125719190612c2d565b5060095460405163a9059cbb60e01b81526001600160a01b039091169063a9059cbb906125a49088908590600401612d7e565b602060405180830381600087803b1580156125be57600080fd5b505af11580156125d2573d6000803e3d6000fd5b505050506040513d601f19601f820116820180604052508101906125f69190612c2d565b50505050505050565b6001600160a01b0382166126255760405162461bcd60e51b81526004016107ad90613231565b61263160008383612145565b8060036000828254612643919061334f565b90915550506001600160a01b0382166000908152600160205260408120805483929061267090849061334f565b90915550506040516001600160a01b038316906000907fddf252ad1be2c89b69c2b068fc378daa952ba7f163c4a11628f55a4df523b3ef906126b39085906132a4565b60405180910390a35050565b6001600160a01b0382166126e55760405162461bcd60e51b81526004016107ad9061309f565b6126f182600083612145565b6001600160a01b0382166000908152600160205260409020548181101561272a5760405162461bcd60e51b81526004016107ad90612ecb565b61273482826133ed565b6001600160a01b038416600090815260016020526040812091909155600380548492906127629084906133ed565b90915550506040516000906001600160a01b038516907fddf252ad1be2c89b69c2b068fc378daa952ba7f163c4a11628f55a4df523b3ef90611c959086906132a4565b82805482825590600052602060002090600f0160109004810192821561283e5791602002820160005b8382111561280e57835183826101000a81548161ffff021916908361ffff16021790555092602001926002016020816001010492830192600103026127ce565b801561283c5782816101000a81549061ffff021916905560020160208160010104928301926001030261280e565b505b5061284a92915061297f565b5090565b82805482825590600052602060002090601f0160209004810192821561283e5791602002820160005b838211156128b557835183826101000a81548160ff021916908360ff1602179055509260200192600101602081600001049283019260010302612877565b801561283c5782816101000a81549060ff02191690556001016020816000010492830192600103026128b5565b8280548282559060005260206000209060070160089004810192821561283e5791602002820160005b8382111561294f57835183826101000a81548163ffffffff021916908363ffffffff160217905550926020019260040160208160030104928301926001030261290b565b801561283c5782816101000a81549063ffffffff021916905560040160208160030104928301926001030261294f565b5b8082111561284a5760008155600101612980565b80356001600160a01b038116811461084757600080fd5b6000602082840312156129bc578081fd5b6129c582612994565b9392505050565b600080604083850312156129de578081fd5b6129e783612994565b91506129f560208401612994565b90509250929050565b600080600060608486031215612a12578081fd5b612a1b84612994565b9250612a2960208501612994565b9150604084013590509250925092565b60008060408385031215612a4b578182fd5b612a5483612994565b946020939093013593505050565b60006020808385031215612a74578182fd5b823567ffffffffffffffff811115612a8a578283fd5b8301601f81018513612a9a578283fd5b8035612aad612aa88261332b565b613301565b8181528381019083850185840285018601891015612ac9578687fd5b8694505b83851015612afa57803561ffff81168114612ae6578788fd5b835260019490940193918501918501612acd565b50979650505050505050565b60006020808385031215612b18578182fd5b823567ffffffffffffffff811115612b2e578283fd5b8301601f81018513612b3e578283fd5b8035612b4c612aa88261332b565b8181528381019083850185840285018601891015612b68578687fd5b8694505b83851015612afa57803563ffffffff81168114612b87578788fd5b835260019490940193918501918501612b6c565b60006020808385031215612bad578182fd5b823567ffffffffffffffff811115612bc3578283fd5b8301601f81018513612bd3578283fd5b8035612be1612aa88261332b565b8181528381019083850185840285018601891015612bfd578687fd5b8694505b83851015612afa57803560ff81168114612c19578788fd5b835260019490940193918501918501612c01565b600060208284031215612c3e578081fd5b81516129c5816134d8565b600060208284031215612c5a578081fd5b5035919050565b600060208284031215612c72578081fd5b5051919050565b60008060408385031215612c8b578182fd5b823591506129f560208401612994565b60008060408385031215612cad578182fd5b823591506020830135612cbf816134d8565b809150509250929050565b60008151808452815b81811015612cef57602081850181015186830182015201612cd3565b81811115612d005782602083870101525b50601f01601f19169290920160200192915050565b6001600160a01b0391909116815260200190565b6001600160a01b039384168152919092166020820152604081019190915260600190565b6001600160a01b03958616815293909416602084015260408301919091526060820152608081019190915260a00190565b6001600160a01b03929092168252602082015260400190565b6001600160a01b0393841681526020810192909252909116604082015260600190565b6001600160a01b03948516815260208101939093529216604082015261ffff909116606082015260800190565b901515815260200190565b6000602082526129c56020830184612cca565b60208082526035908201527f424e4a2c2071756f7465555344433a204d696e696d756d20424e4a492076616c604082015274756520746f206d6f7665206973202435205553444360581b606082015260800190565b60208082526023908201527f45524332303a207472616e7366657220746f20746865207a65726f206164647260408201526265737360e81b606082015260800190565b60208082526014908201527314185d5cd8589b194e881b9bdd081c185d5cd95960621b604082015260600190565b60208082526022908201527f45524332303a206275726e20616d6f756e7420657863656564732062616c616e604082015261636560f01b606082015260800190565b60208082526026908201527f4f776e61626c653a206e6577206f776e657220697320746865207a65726f206160408201526564647265737360d01b606082015260800190565b60208082526022908201527f45524332303a20617070726f766520746f20746865207a65726f206164647265604082015261737360f01b606082015260800190565b60208082526026908201527f45524332303a207472616e7366657220616d6f756e7420657863656564732062604082015265616c616e636560d01b606082015260800190565b60208082526017908201527f496e73756666696369656e742042656e6a616d696e732e000000000000000000604082015260600190565b60208082526010908201526f14185d5cd8589b194e881c185d5cd95960821b604082015260600190565b6020808252601490820152732132b73530b6b4b7399034b9903830bab9b2b21760611b604082015260600190565b6020808252818101527f4f776e61626c653a2063616c6c6572206973206e6f7420746865206f776e6572604082015260600190565b60208082526021908201527f45524332303a206275726e2066726f6d20746865207a65726f206164647265736040820152607360f81b606082015260800190565b60208082526025908201527f45524332303a207472616e736665722066726f6d20746865207a65726f206164604082015264647265737360d81b606082015260800190565b60208082526024908201527f45524332303a20617070726f76652066726f6d20746865207a65726f206164646040820152637265737360e01b606082015260800190565b6020808252601f908201527f5265656e7472616e637947756172643a207265656e7472616e742063616c6c00604082015260600190565b6020808252602c908201527f42656e6a616d696e733a207472616e7366657220616d6f756e7420657863656560408201526b647320616c6c6f77616e636560a01b606082015260800190565b60208082526025908201527f45524332303a2064656372656173656420616c6c6f77616e63652062656c6f77604082015264207a65726f60d81b606082015260800190565b6020808252601f908201527f45524332303a206d696e7420746f20746865207a65726f206164647265737300604082015260600190565b60208082526013908201527224b739bab33334b1b4b2b73a10333ab732399760691b604082015260600190565b61ffff91909116815260200190565b90815260200190565b9182526001600160a01b0316602082015260400190565b6000838252604060208301526132dd6040830184612cca565b949350505050565b918252602082015260400190565b60ff91909116815260200190565b60405181810167ffffffffffffffff81118282101715613323576133236134c2565b604052919050565b600067ffffffffffffffff821115613345576133456134c2565b5060209081020190565b6000821982111561336257613362613496565b500190565b600082613376576133766134ac565b500490565b600061ffff8083168185168183048111821515161561339c5761339c613496565b02949350505050565b60008160001904831182151516156133bf576133bf613496565b500290565b600060ff821660ff84168160ff04811182151516156133e5576133e5613496565b029392505050565b6000828210156133ff576133ff613496565b500390565b600060ff821660ff84168082101561341e5761341e613496565b90039392505050565b60028104600182168061343b57607f821691505b6020821081141561345c57634e487b7160e01b600052602260045260246000fd5b50919050565b600060ff821660ff81141561347957613479613496565b60010192915050565b600082613491576134916134ac565b500690565b634e487b7160e01b600052601160045260246000fd5b634e487b7160e01b600052601260045260246000fd5b634e487b7160e01b600052604160045260246000fd5b801515811461119557600080fdfea2646970667358221220582ed9c80d2626c028d9d625161104c7af4b151ac0e2295b1965f41f5c66978a64736f6c63430008000033",
  "linkReferences": {},
  "deployedLinkReferences": {}
}