{
  "_format": "hh-sol-artifact-1",
  "contractName": "Benjamins",
  "sourceName": "contracts/Benjamins.sol",
  "abi": [
    {
      "inputs": [],
      "stateMutability": "nonpayable",
      "type": "constructor"
    },
    {
      "anonymous": false,
      "inputs": [
        {
          "indexed": true,
          "internalType": "address",
          "name": "owner",
          "type": "address"
        },
        {
          "indexed": true,
          "internalType": "address",
          "name": "spender",
          "type": "address"
        },
        {
          "indexed": false,
          "internalType": "uint256",
          "name": "value",
          "type": "uint256"
        }
      ],
      "name": "Approval",
      "type": "event"
    },
    {
      "anonymous": false,
      "inputs": [
        {
          "indexed": false,
          "internalType": "uint256",
          "name": "amount",
          "type": "uint256"
        }
      ],
      "name": "LendingPoolDeposit",
      "type": "event"
    },
    {
      "anonymous": false,
      "inputs": [
        {
          "indexed": false,
          "internalType": "uint256",
          "name": "amount",
          "type": "uint256"
        }
      ],
      "name": "LendingPoolWithdrawal",
      "type": "event"
    },
    {
      "anonymous": false,
      "inputs": [
        {
          "indexed": true,
          "internalType": "address",
          "name": "previousOwner",
          "type": "address"
        },
        {
          "indexed": true,
          "internalType": "address",
          "name": "newOwner",
          "type": "address"
        }
      ],
      "name": "OwnershipTransferred",
      "type": "event"
    },
    {
      "anonymous": false,
      "inputs": [
        {
          "indexed": false,
          "internalType": "address",
          "name": "account",
          "type": "address"
        }
      ],
      "name": "Paused",
      "type": "event"
    },
    {
      "anonymous": false,
      "inputs": [
        {
          "indexed": false,
          "internalType": "address",
          "name": "sender",
          "type": "address"
        },
        {
          "indexed": false,
          "internalType": "address",
          "name": "receiverOfUSDC",
          "type": "address"
        },
        {
          "indexed": false,
          "internalType": "uint256",
          "name": "tokenAmount",
          "type": "uint256"
        },
        {
          "indexed": false,
          "internalType": "uint256",
          "name": "returnForBurning",
          "type": "uint256"
        }
      ],
      "name": "SpecifiedBurnEvent",
      "type": "event"
    },
    {
      "anonymous": false,
      "inputs": [
        {
          "indexed": false,
          "internalType": "address",
          "name": "sender",
          "type": "address"
        },
        {
          "indexed": false,
          "internalType": "address",
          "name": "receiverOfTokens",
          "type": "address"
        },
        {
          "indexed": false,
          "internalType": "uint256",
          "name": "tokenAmount",
          "type": "uint256"
        },
        {
          "indexed": false,
          "internalType": "uint256",
          "name": "priceForMintingIn6dec",
          "type": "uint256"
        }
      ],
      "name": "SpecifiedMintEvent",
      "type": "event"
    },
    {
      "anonymous": false,
      "inputs": [
        {
          "indexed": true,
          "internalType": "address",
          "name": "from",
          "type": "address"
        },
        {
          "indexed": true,
          "internalType": "address",
          "name": "to",
          "type": "address"
        },
        {
          "indexed": false,
          "internalType": "uint256",
          "name": "value",
          "type": "uint256"
        }
      ],
      "name": "Transfer",
      "type": "event"
    },
    {
      "anonymous": false,
      "inputs": [
        {
          "indexed": false,
          "internalType": "address",
          "name": "account",
          "type": "address"
        }
      ],
      "name": "Unpaused",
      "type": "event"
    },
    {
      "inputs": [],
      "name": "addressOfThisContract",
      "outputs": [
        {
          "internalType": "address",
          "name": "",
          "type": "address"
        }
      ],
      "stateMutability": "view",
      "type": "function"
    },
    {
      "inputs": [
        {
          "internalType": "address",
          "name": "owner",
          "type": "address"
        },
        {
          "internalType": "address",
          "name": "spender",
          "type": "address"
        }
      ],
      "name": "allowance",
      "outputs": [
        {
          "internalType": "uint256",
          "name": "",
          "type": "uint256"
        }
      ],
      "stateMutability": "view",
      "type": "function"
    },
    {
      "inputs": [
        {
          "internalType": "address",
          "name": "userToCheck",
          "type": "address"
        }
      ],
      "name": "amountBlocksHoldingNeeded",
      "outputs": [
        {
          "internalType": "uint256",
          "name": "",
          "type": "uint256"
        }
      ],
      "stateMutability": "view",
      "type": "function"
    },
    {
      "inputs": [
        {
          "internalType": "address",
          "name": "spender",
          "type": "address"
        },
        {
          "internalType": "uint256",
          "name": "amount",
          "type": "uint256"
        }
      ],
      "name": "approve",
      "outputs": [
        {
          "internalType": "bool",
          "name": "",
          "type": "bool"
        }
      ],
      "stateMutability": "nonpayable",
      "type": "function"
    },
    {
      "inputs": [
        {
          "internalType": "address",
          "name": "account",
          "type": "address"
        }
      ],
      "name": "balanceOf",
      "outputs": [
        {
          "internalType": "uint256",
          "name": "",
          "type": "uint256"
        }
      ],
      "stateMutability": "view",
      "type": "function"
    },
    {
      "inputs": [
        {
          "internalType": "uint256",
          "name": "amountOfBNJIs",
          "type": "uint256"
        },
        {
          "internalType": "address",
          "name": "receiverOfUSDC",
          "type": "address"
        }
      ],
      "name": "burnForBeneficiary",
      "outputs": [],
      "stateMutability": "nonpayable",
      "type": "function"
    },
    {
      "inputs": [
        {
          "internalType": "uint256",
          "name": "amountOfBNJIs",
          "type": "uint256"
        }
      ],
      "name": "burnForSelf",
      "outputs": [],
      "stateMutability": "nonpayable",
      "type": "function"
    },
    {
      "inputs": [],
      "name": "calcAllTokensValue",
      "outputs": [
        {
          "internalType": "uint256",
          "name": "allTokensReturn",
          "type": "uint256"
        }
      ],
      "stateMutability": "view",
      "type": "function"
    },
    {
      "inputs": [
        {
          "internalType": "address",
          "name": "userToCheck",
          "type": "address"
        }
      ],
      "name": "calcCurrentLevel",
      "outputs": [
        {
          "internalType": "uint256",
          "name": "",
          "type": "uint256"
        }
      ],
      "stateMutability": "view",
      "type": "function"
    },
    {
      "inputs": [
        {
          "internalType": "address",
          "name": "userToCheck",
          "type": "address"
        }
      ],
      "name": "calcDiscount",
      "outputs": [
        {
          "internalType": "uint256",
          "name": "",
          "type": "uint256"
        }
      ],
      "stateMutability": "view",
      "type": "function"
    },
    {
      "inputs": [
        {
          "internalType": "uint256",
          "name": "supply",
          "type": "uint256"
        },
        {
          "internalType": "uint256",
          "name": "tokensToMint",
          "type": "uint256"
        }
      ],
      "name": "calcPriceForTokenMint",
      "outputs": [
        {
          "internalType": "uint256",
          "name": "",
          "type": "uint256"
        }
      ],
      "stateMutability": "view",
      "type": "function"
    },
    {
      "inputs": [
        {
          "internalType": "uint256",
          "name": "supply",
          "type": "uint256"
        },
        {
          "internalType": "uint256",
          "name": "tokensToBurn",
          "type": "uint256"
        }
      ],
      "name": "calcReturnForTokenBurn",
      "outputs": [
        {
          "internalType": "uint256",
          "name": "",
          "type": "uint256"
        }
      ],
      "stateMutability": "view",
      "type": "function"
    },
    {
      "inputs": [
        {
          "internalType": "uint256",
          "name": "amount",
          "type": "uint256"
        }
      ],
      "name": "calcSpecBurnReturn",
      "outputs": [
        {
          "internalType": "uint256",
          "name": "burnReturn",
          "type": "uint256"
        }
      ],
      "stateMutability": "view",
      "type": "function"
    },
    {
      "inputs": [
        {
          "internalType": "uint256",
          "name": "amount",
          "type": "uint256"
        }
      ],
      "name": "calcSpecMintReturn",
      "outputs": [
        {
          "internalType": "uint256",
          "name": "mintPrice",
          "type": "uint256"
        }
      ],
      "stateMutability": "view",
      "type": "function"
    },
    {
      "inputs": [],
      "name": "decimals",
      "outputs": [
        {
          "internalType": "uint8",
          "name": "",
          "type": "uint8"
        }
      ],
      "stateMutability": "view",
      "type": "function"
    },
    {
      "inputs": [
        {
          "internalType": "address",
          "name": "spender",
          "type": "address"
        },
        {
          "internalType": "uint256",
          "name": "subtractedValue",
          "type": "uint256"
        }
      ],
      "name": "decreaseAllowance",
      "outputs": [
        {
          "internalType": "bool",
          "name": "",
          "type": "bool"
        }
      ],
      "stateMutability": "nonpayable",
      "type": "function"
    },
    {
      "inputs": [
        {
          "internalType": "uint256",
          "name": "amount",
          "type": "uint256"
        }
      ],
      "name": "depositUSDCBuffer",
      "outputs": [],
      "stateMutability": "nonpayable",
      "type": "function"
    },
    {
      "inputs": [
        {
          "internalType": "address",
          "name": "spender",
          "type": "address"
        },
        {
          "internalType": "uint256",
          "name": "addedValue",
          "type": "uint256"
        }
      ],
      "name": "increaseAllowance",
      "outputs": [
        {
          "internalType": "bool",
          "name": "",
          "type": "bool"
        }
      ],
      "stateMutability": "nonpayable",
      "type": "function"
    },
    {
      "inputs": [
        {
          "internalType": "uint256",
          "name": "amountOfBNJIs",
          "type": "uint256"
        },
        {
          "internalType": "address",
          "name": "receiverOfTokens",
          "type": "address"
        }
      ],
      "name": "mintToBeneficiary",
      "outputs": [],
      "stateMutability": "nonpayable",
      "type": "function"
    },
    {
      "inputs": [
        {
          "internalType": "uint256",
          "name": "amountOfBNJIs",
          "type": "uint256"
        }
      ],
      "name": "mintToSelf",
      "outputs": [],
      "stateMutability": "nonpayable",
      "type": "function"
    },
    {
      "inputs": [],
      "name": "name",
      "outputs": [
        {
          "internalType": "string",
          "name": "",
          "type": "string"
        }
      ],
      "stateMutability": "view",
      "type": "function"
    },
    {
      "inputs": [],
      "name": "owner",
      "outputs": [
        {
          "internalType": "address",
          "name": "",
          "type": "address"
        }
      ],
      "stateMutability": "view",
      "type": "function"
    },
    {
      "inputs": [],
      "name": "pause",
      "outputs": [],
      "stateMutability": "nonpayable",
      "type": "function"
    },
    {
      "inputs": [],
      "name": "paused",
      "outputs": [
        {
          "internalType": "bool",
          "name": "",
          "type": "bool"
        }
      ],
      "stateMutability": "view",
      "type": "function"
    },
    {
      "inputs": [],
      "name": "polygonAMUSDC",
      "outputs": [
        {
          "internalType": "contract IERC20",
          "name": "",
          "type": "address"
        }
      ],
      "stateMutability": "view",
      "type": "function"
    },
    {
      "inputs": [],
      "name": "polygonLendingPool",
      "outputs": [
        {
          "internalType": "contract ILendingPool",
          "name": "",
          "type": "address"
        }
      ],
      "stateMutability": "view",
      "type": "function"
    },
    {
      "inputs": [],
      "name": "polygonUSDC",
      "outputs": [
        {
          "internalType": "contract IERC20",
          "name": "",
          "type": "address"
        }
      ],
      "stateMutability": "view",
      "type": "function"
    },
    {
      "inputs": [],
      "name": "renounceOwnership",
      "outputs": [],
      "stateMutability": "nonpayable",
      "type": "function"
    },
    {
      "inputs": [],
      "name": "symbol",
      "outputs": [
        {
          "internalType": "string",
          "name": "",
          "type": "string"
        }
      ],
      "stateMutability": "view",
      "type": "function"
    },
    {
      "inputs": [],
      "name": "totalSupply",
      "outputs": [
        {
          "internalType": "uint256",
          "name": "",
          "type": "uint256"
        }
      ],
      "stateMutability": "view",
      "type": "function"
    },
    {
      "inputs": [
        {
          "internalType": "address",
          "name": "receiver",
          "type": "address"
        },
        {
          "internalType": "uint256",
          "name": "amountOfBNJIs",
          "type": "uint256"
        }
      ],
      "name": "transfer",
      "outputs": [
        {
          "internalType": "bool",
          "name": "",
          "type": "bool"
        }
      ],
      "stateMutability": "nonpayable",
      "type": "function"
    },
    {
      "inputs": [
        {
          "internalType": "address",
          "name": "payingAddress",
          "type": "address"
        },
        {
          "internalType": "address",
          "name": "receiver",
          "type": "address"
        },
        {
          "internalType": "uint256",
          "name": "amount",
          "type": "uint256"
        }
      ],
      "name": "transferFrom",
      "outputs": [
        {
          "internalType": "bool",
          "name": "",
          "type": "bool"
        }
      ],
      "stateMutability": "nonpayable",
      "type": "function"
    },
    {
      "inputs": [
        {
          "internalType": "address",
          "name": "newOwner",
          "type": "address"
        }
      ],
      "name": "transferOwnership",
      "outputs": [],
      "stateMutability": "nonpayable",
      "type": "function"
    },
    {
      "inputs": [],
      "name": "unpause",
      "outputs": [],
      "stateMutability": "nonpayable",
      "type": "function"
    },
    {
      "inputs": [
        {
          "internalType": "address",
          "name": "newAddress",
          "type": "address"
        }
      ],
      "name": "updateAccumulatedReceiver",
      "outputs": [],
      "stateMutability": "nonpayable",
      "type": "function"
    },
    {
      "inputs": [
        {
          "internalType": "uint256",
          "name": "amountToApprove",
          "type": "uint256"
        }
      ],
      "name": "updateApproveLendingPool",
      "outputs": [],
      "stateMutability": "nonpayable",
      "type": "function"
    },
    {
      "inputs": [
        {
          "internalType": "uint256",
          "name": "newCurveFactor",
          "type": "uint256"
        }
      ],
      "name": "updateCurveFactor",
      "outputs": [],
      "stateMutability": "nonpayable",
      "type": "function"
    },
    {
      "inputs": [
        {
          "internalType": "address",
          "name": "newAddress",
          "type": "address"
        }
      ],
      "name": "updateFeeReceiver",
      "outputs": [],
      "stateMutability": "nonpayable",
      "type": "function"
    },
    {
      "inputs": [
        {
          "internalType": "uint256[]",
          "name": "newLevelAntes",
          "type": "uint256[]"
        }
      ],
      "name": "updateLevelAntes",
      "outputs": [],
      "stateMutability": "nonpayable",
      "type": "function"
    },
    {
      "inputs": [
        {
          "internalType": "uint256[]",
          "name": "newLevelDiscounts",
          "type": "uint256[]"
        }
      ],
      "name": "updateLevelDiscounts",
      "outputs": [],
      "stateMutability": "nonpayable",
      "type": "function"
    },
    {
      "inputs": [
        {
          "internalType": "uint256[]",
          "name": "newLevelHolds",
          "type": "uint256[]"
        }
      ],
      "name": "updateLevelHolds",
      "outputs": [],
      "stateMutability": "nonpayable",
      "type": "function"
    },
    {
      "inputs": [
        {
          "internalType": "address",
          "name": "newAddress",
          "type": "address"
        }
      ],
      "name": "updatePolygonAMUSDC",
      "outputs": [],
      "stateMutability": "nonpayable",
      "type": "function"
    },
    {
      "inputs": [
        {
          "internalType": "address",
          "name": "newAddress",
          "type": "address"
        }
      ],
      "name": "updatePolygonLendingPool",
      "outputs": [],
      "stateMutability": "nonpayable",
      "type": "function"
    },
    {
      "inputs": [
        {
          "internalType": "address",
          "name": "newAddress",
          "type": "address"
        }
      ],
      "name": "updatePolygonUSDC",
      "outputs": [],
      "stateMutability": "nonpayable",
      "type": "function"
    },
    {
      "inputs": [
        {
          "internalType": "uint256",
          "name": "amount",
          "type": "uint256"
        }
      ],
      "name": "withdrawAccumulated",
      "outputs": [],
      "stateMutability": "nonpayable",
      "type": "function"
    },
    {
      "inputs": [
        {
          "internalType": "address",
          "name": "ERC20ContractAddress",
          "type": "address"
        },
        {
          "internalType": "uint256",
          "name": "amount",
          "type": "uint256"
        }
      ],
      "name": "withdrawERC20",
      "outputs": [],
      "stateMutability": "nonpayable",
      "type": "function"
    },
    {
      "stateMutability": "payable",
      "type": "receive"
    }
  ],
  "bytecode": "0x6080604052620f4240600655620c3500600755600a60105561a8c060115560026012553480156200002f57600080fd5b50604080518082018252600981526842656e6a616d696e7360b81b602080830191825283518085019094526004845263424e4a4960e01b9084015281519192916200007d91600391620003af565b50805162000093906004906020840190620003af565b5050506000620000a8620002b060201b60201c565b600580546001600160a01b0319166001600160a01b038316908117909155604051919250906000907f8be0079c531659141344cd1fd0a4f28419497f9722a3daafe3b4186f6b6457e0908290a3506005805460ff60a01b191690556001600855600980546001600160a01b0319163017905562000124620002b4565b600a80546001600160a01b0319166001600160a01b03929092169190911790556200014e620002b4565b600b805460ff60a01b196001600160a01b03939093166001600160a01b031991821617929092169055601480548216732791bca1f2de4661ed88a30c99a7a9449aa84174178155601580548316731a13f4ca1d028320a707d99520abfefca3998b7f17905560138054909216738dff5e27ea6b7ac08ebfdf9eb090f32ee9a30fcf179091556040805160c081018252600081526020810192909252603c90820152606460608201526101f460808201526107d060a08201526200021690600d9060066200043e565b506040805160c0810182526000815260026020820152600791810191909152601e6060820152605a608082015261016860a08201526200025b90600e9060066200043e565b506040805160c0810182526000815260056020820152600a918101919091526014606082015260286080820152604b60a08201526200029f90600f90600662000482565b50620002aa620002c3565b6200058c565b3390565b6005546001600160a01b031690565b620002cd620002b0565b6001600160a01b0316620002e0620002b4565b6001600160a01b031614620003125760405162461bcd60e51b815260040162000309906200051a565b60405180910390fd5b6200031c6200031e565b565b620003286200039f565b15620003485760405162461bcd60e51b81526004016200030990620004f0565b6005805460ff60a01b1916600160a01b1790557f62e78cea01bee320cd4e420270b5ea74000d11b0c9f74754ebdbfc544b05a25862000386620002b0565b604051620003959190620004dc565b60405180910390a1565b600554600160a01b900460ff1690565b828054620003bd906200054f565b90600052602060002090601f016020900481019282620003e157600085556200042c565b82601f10620003fc57805160ff19168380011785556200042c565b828001600101855582156200042c579182015b828111156200042c5782518255916020019190600101906200040f565b506200043a929150620004c5565b5090565b8280548282559060005260206000209081019282156200042c579160200282015b828111156200042c578251829061ffff169055916020019190600101906200045f565b8280548282559060005260206000209081019282156200042c579160200282015b828111156200042c578251829060ff16905591602001919060010190620004a3565b5b808211156200043a5760008155600101620004c6565b6001600160a01b0391909116815260200190565b60208082526010908201526f14185d5cd8589b194e881c185d5cd95960821b604082015260600190565b6020808252818101527f4f776e61626c653a2063616c6c6572206973206e6f7420746865206f776e6572604082015260600190565b6002810460018216806200056457607f821691505b602082108114156200058657634e487b7160e01b600052602260045260246000fd5b50919050565b6131a1806200059c6000396000f3fe6080604052600436106102815760003560e01c806395d89b411161014f578063c69bebe4116100c1578063e4bbe7eb1161007a578063e4bbe7eb1461074a578063e8e6f9ad1461076a578063f167bfc31461078a578063f2fde38b146107aa578063f98b242f146107ca578063fe426166146107df57610288565b8063c69bebe414610695578063cd0d95e2146106b5578063ceec6b2a146106d5578063cfad0eb6146106f5578063d948e10414610715578063dd62ed3e1461072a57610288565b8063b0de368011610113578063b0de3680146105d5578063b0eb85ea146105f5578063bb6d5e3b14610615578063c010014314610635578063c346e98014610655578063c57147441461067557610288565b806395d89b4114610540578063a1db978214610555578063a457c2d714610575578063a7b9c8ae14610595578063a9059cbb146105b557610288565b806339509351116101f357806370a08231116101ac57806370a08231146104ac578063715018a6146104cc5780638456cb59146104e15780638da5cb5b146104f65780638fb330171461050b578063926fcfc41461052057610288565b8063395093511461040d5780633f4ba83a1461042d57806358191963146104425780635c975abb146104625780635f03e644146104775780636c7529741461049757610288565b80631adedf06116102455780631adedf061461034b57806323b872dd1461036b578063257a00501461038b5780632853c2f7146103ab578063313ce567146103cb578063383b16df146103ed57610288565b806306fdde031461028d578063095ea7b3146102b857806310b4afb3146102e5578063160873151461030757806318160ddd1461032957610288565b3661028857005b600080fd5b34801561029957600080fd5b506102a26107ff565b6040516102af9190612754565b60405180910390f35b3480156102c457600080fd5b506102d86102d33660046124a4565b610891565b6040516102af9190612749565b3480156102f157600080fd5b506102fa6108af565b6040516102af9190612665565b34801561031357600080fd5b5061032761032236600461241d565b6108be565b005b34801561033557600080fd5b5061033e61094e565b6040516102af9190612fe5565b34801561035757600080fd5b5061033e61036636600461241d565b610954565b34801561037757600080fd5b506102d8610386366004612469565b610992565b34801561039757600080fd5b506103276103a636600461241d565b610a09565b3480156103b757600080fd5b506103276103c63660046125a7565b610a90565b3480156103d757600080fd5b506103e0610ad4565b6040516102af919061300f565b3480156103f957600080fd5b506103276104083660046124cd565b610ae4565b34801561041957600080fd5b506102d86104283660046124a4565b610b3a565b34801561043957600080fd5b50610327610b89565b34801561044e57600080fd5b5061032761045d3660046125d7565b610bd2565b34801561046e57600080fd5b506102d8610be1565b34801561048357600080fd5b5061033e6104923660046125a7565b610bf1565b3480156104a357600080fd5b506102fa610c04565b3480156104b857600080fd5b5061033e6104c736600461241d565b610c13565b3480156104d857600080fd5b50610327610c2e565b3480156104ed57600080fd5b50610327610cb7565b34801561050257600080fd5b506102fa610cfe565b34801561051757600080fd5b506102fa610d0d565b34801561052c57600080fd5b5061032761053b3660046124cd565b610d1c565b34801561054c57600080fd5b506102a2610d6e565b34801561056157600080fd5b506103276105703660046124a4565b610d7d565b34801561058157600080fd5b506102d86105903660046124a4565b610e44565b3480156105a157600080fd5b506103276105b03660046125a7565b610ebf565b3480156105c157600080fd5b506102d86105d03660046124a4565b610f86565b3480156105e157600080fd5b506103276105f03660046125a7565b610fcb565b34801561060157600080fd5b506103276106103660046124cd565b6110b7565b34801561062157600080fd5b506103276106303660046125a7565b611109565b34801561064157600080fd5b5061032761065036600461241d565b611113565b34801561066157600080fd5b5061033e6106703660046125a7565b61119a565b34801561068157600080fd5b506103276106903660046125a7565b6111ad565b3480156106a157600080fd5b506103276106b036600461241d565b6111b7565b3480156106c157600080fd5b506103276106d03660046125a7565b61123e565b3480156106e157600080fd5b5061033e6106f036600461241d565b6112b3565b34801561070157600080fd5b5061032761071036600461241d565b6112f6565b34801561072157600080fd5b506102fa61137d565b34801561073657600080fd5b5061033e610745366004612437565b61138c565b34801561075657600080fd5b5061033e6107653660046125f9565b6113b7565b34801561077657600080fd5b5061033e6107853660046125f9565b611479565b34801561079657600080fd5b5061033e6107a536600461241d565b6114d0565b3480156107b657600080fd5b506103276107c536600461241d565b611526565b3480156107d657600080fd5b5061033e6115e7565b3480156107eb57600080fd5b506103276107fa3660046125d7565b611640565b60606003805461080e9061307f565b80601f016020809104026020016040519081016040528092919081815260200182805461083a9061307f565b80156108875780601f1061085c57610100808354040283529160200191610887565b820191906000526020600020905b81548152906001019060200180831161086a57829003601f168201915b5050505050905090565b60006108a561089e61164a565b848461164e565b5060015b92915050565b6009546001600160a01b031681565b6108c661164a565b6001600160a01b03166108d7610cfe565b6001600160a01b0316146109065760405162461bcd60e51b81526004016108fd90612bbd565b60405180910390fd5b6001600160a01b03811661092c5760405162461bcd60e51b81526004016108fd90612d66565b601480546001600160a01b0319166001600160a01b0392909216919091179055565b60025490565b6000600f610961836114d0565b8154811061097f57634e487b7160e01b600052603260045260246000fd5b906000526020600020015490505b919050565b600061099d84611702565b15610a02576109ad848484611745565b60006109b761164a565b905060006109c5868361138c565b9050838110156109e75760405162461bcd60e51b81526004016108fd90612b75565b6109fb86836109f68785613068565b61164e565b6001925050505b9392505050565b610a1161164a565b6001600160a01b0316610a22610cfe565b6001600160a01b031614610a485760405162461bcd60e51b81526004016108fd90612bbd565b6001600160a01b038116610a6e5760405162461bcd60e51b81526004016108fd90612acf565b601380546001600160a01b0319166001600160a01b0392909216919091179055565b610a9861164a565b6001600160a01b0316610aa9610cfe565b6001600160a01b031614610acf5760405162461bcd60e51b81526004016108fd90612bbd565b600755565b600b54600160a01b900460ff1690565b610aec61164a565b6001600160a01b0316610afd610cfe565b6001600160a01b031614610b235760405162461bcd60e51b81526004016108fd90612bbd565b8051610b3690600d9060208401906123a6565b5050565b60006108a5610b4761164a565b848460016000610b5561164a565b6001600160a01b03908116825260208083019390935260409182016000908120918b16815292529020546109f6919061301d565b610b9161164a565b6001600160a01b0316610ba2610cfe565b6001600160a01b031614610bc85760405162461bcd60e51b81526004016108fd90612bbd565b610bd061186d565b565b610bdc82826118de565b505050565b600554600160a01b900460ff1690565b60006108a9610bfe61094e565b83611479565b6014546001600160a01b031681565b6001600160a01b031660009081526020819052604090205490565b610c3661164a565b6001600160a01b0316610c47610cfe565b6001600160a01b031614610c6d5760405162461bcd60e51b81526004016108fd90612bbd565b6005546040516000916001600160a01b0316907f8be0079c531659141344cd1fd0a4f28419497f9722a3daafe3b4186f6b6457e0908390a3600580546001600160a01b0319169055565b610cbf61164a565b6001600160a01b0316610cd0610cfe565b6001600160a01b031614610cf65760405162461bcd60e51b81526004016108fd90612bbd565b610bd0611d7a565b6005546001600160a01b031690565b6015546001600160a01b031681565b610d2461164a565b6001600160a01b0316610d35610cfe565b6001600160a01b031614610d5b5760405162461bcd60e51b81526004016108fd90612bbd565b8051610b3690600e9060208401906123a6565b60606004805461080e9061307f565b610d8561164a565b6001600160a01b0316610d96610cfe565b6001600160a01b031614610dbc5760405162461bcd60e51b81526004016108fd90612bbd565b60405163a9059cbb60e01b815282906001600160a01b0382169063a9059cbb90610dec90339086906004016126e0565b602060405180830381600087803b158015610e0657600080fd5b505af1158015610e1a573d6000803e3d6000fd5b505050506040513d601f19601f82011682018060405250810190610e3e9190612587565b50505050565b60008060016000610e5361164a565b6001600160a01b0390811682526020808301939093526040918201600090812091881681529252902054905082811015610e9f5760405162461bcd60e51b81526004016108fd90612f23565b610eb5610eaa61164a565b856109f68685613068565b5060019392505050565b610ec761164a565b6001600160a01b0316610ed8610cfe565b6001600160a01b031614610efe5760405162461bcd60e51b81526004016108fd90612bbd565b601554600b5460405163a9059cbb60e01b81526001600160a01b039283169263a9059cbb92610f349291169085906004016126e0565b602060405180830381600087803b158015610f4e57600080fd5b505af1158015610f62573d6000803e3d6000fd5b505050506040513d601f19601f82011682018060405250810190610b369190612587565b6000610f9133611702565b156108a9576001600160a01b0383166000908152600c60205260409020439055610fc3610fbc61164a565b8484611745565b5060016108a9565b610fd361164a565b6001600160a01b0316610fe4610cfe565b6001600160a01b03161461100a5760405162461bcd60e51b81526004016108fd90612bbd565b60135460145460095460405163e8eda9df60e01b81526001600160a01b039384169363e8eda9df9361104b939082169287929091169060009060040161271c565b600060405180830381600087803b15801561106557600080fd5b505af1158015611079573d6000803e3d6000fd5b505050507fe4b07db4e98b8c4d7db7898ec0ca1004b8d388810ececa888262a4e5886027a9816040516110ac9190612fe5565b60405180910390a150565b6110bf61164a565b6001600160a01b03166110d0610cfe565b6001600160a01b0316146110f65760405162461bcd60e51b81526004016108fd90612bbd565b8051610b3690600f9060208401906123a6565b610b3681336118de565b61111b61164a565b6001600160a01b031661112c610cfe565b6001600160a01b0316146111525760405162461bcd60e51b81526004016108fd90612bbd565b6001600160a01b0381166111785760405162461bcd60e51b81526004016108fd90612cbc565b601580546001600160a01b0319166001600160a01b0392909216919091179055565b60006108a96111a761094e565b836113b7565b610b368133611ddb565b6111bf61164a565b6001600160a01b03166111d0610cfe565b6001600160a01b0316146111f65760405162461bcd60e51b81526004016108fd90612bbd565b6001600160a01b03811661121c5760405162461bcd60e51b81526004016108fd90612df5565b600a80546001600160a01b0319166001600160a01b0392909216919091179055565b61124661164a565b6001600160a01b0316611257610cfe565b6001600160a01b03161461127d5760405162461bcd60e51b81526004016108fd90612bbd565b60145460135460405163095ea7b360e01b81526001600160a01b039283169263095ea7b392610f349291169085906004016126e0565b6000601154600e6112c3846114d0565b815481106112e157634e487b7160e01b600052603260045260246000fd5b90600052602060002001546108a99190613049565b6112fe61164a565b6001600160a01b031661130f610cfe565b6001600160a01b0316146113355760405162461bcd60e51b81526004016108fd90612bbd565b6001600160a01b03811661135b5760405162461bcd60e51b81526004016108fd9061298c565b600b80546001600160a01b0319166001600160a01b0392909216919091179055565b6013546001600160a01b031681565b6001600160a01b03918216600090815260016020908152604080832093909416825291909152205490565b600080831180156113c85750600082115b80156113d45750818310155b6113f05760405162461bcd60e51b81526004016108fd90612d19565b60006113fc8385613068565b9050600061140a8580613049565b905060006114188380613049565b905060006114268284613068565b90506000600654826114389190613049565b905060006007548261144a9190613035565b9050612710600061145b82846130d5565b905060006114698285613068565b9c9b505050505050505050505050565b600080821161149a5760405162461bcd60e51b81526004016108fd906128ff565b60006114a68480613049565b905060006114b4848661301d565b905060006114c28280613049565b905060006114268483613068565b6000806114dc83610c13565b905060005b81600d828154811061150357634e487b7160e01b600052603260045260246000fd5b90600052602060002001541015610a02578061151e816130ba565b9150506114e1565b61152e61164a565b6001600160a01b031661153f610cfe565b6001600160a01b0316146115655760405162461bcd60e51b81526004016108fd90612bbd565b6001600160a01b03811661158b5760405162461bcd60e51b81526004016108fd90612877565b6005546040516001600160a01b038084169216907f8be0079c531659141344cd1fd0a4f28419497f9722a3daafe3b4186f6b6457e090600090a3600580546001600160a01b0319166001600160a01b0392909216919091179055565b60006115f161164a565b6001600160a01b0316611602610cfe565b6001600160a01b0316146116285760405162461bcd60e51b81526004016108fd90612bbd565b61163b61163361094e565b61076561094e565b905090565b610bdc8282611ddb565b3390565b6001600160a01b0383166116745760405162461bcd60e51b81526004016108fd90612c78565b6001600160a01b03821661169a5760405162461bcd60e51b81526004016108fd906128bd565b6001600160a01b0380841660008181526001602090815260408083209487168084529490915290819020849055517f8c5be1e5ebec7d5bd14f71427d1e84f3dd0314c0f7b2291e5b200ac8c7c3b925906116f5908590612fe5565b60405180910390a3505050565b6001600160a01b0381166000908152600c602052604081205481906117279043613068565b905060105481118015610a02575061173e836112b3565b1092915050565b6001600160a01b03831661176b5760405162461bcd60e51b81526004016108fd90612c33565b6001600160a01b0382166117915760405162461bcd60e51b81526004016108fd90612767565b61179c838383610bdc565b6001600160a01b038316600090815260208190526040902054818110156117d55760405162461bcd60e51b81526004016108fd90612946565b6117df8282613068565b6001600160a01b03808616600090815260208190526040808220939093559085168152908120805484929061181590849061301d565b92505081905550826001600160a01b0316846001600160a01b03167fddf252ad1be2c89b69c2b068fc378daa952ba7f163c4a11628f55a4df523b3ef8460405161185f9190612fe5565b60405180910390a350505050565b611875610be1565b6118915760405162461bcd60e51b81526004016108fd90612807565b6005805460ff60a01b191690557f5db9ee0a495bf2e6ff9c91a7834c1ba4fdd244a5e8aa4e537bd38aeae4b073aa6118c761164a565b6040516118d49190612665565b60405180910390a1565b60006118e8610be1565b156119055760405162461bcd60e51b81526004016108fd90612aa5565b600260085414156119285760405162461bcd60e51b81526004016108fd90612dbe565b6002600855600061193884610bf1565b9050600061194533610954565b611950906064613068565b9050600060648060125484866119669190613049565b6119709190613049565b61197a9190613035565b6119849190613035565b90506000611994612710836130d5565b905060006119a28284613068565b905060006119b0828761301d565b6014546040516370a0823160e01b81529192506000916001600160a01b03909116906370a08231906119e6903390600401612665565b60206040518083038186803b1580156119fe57600080fd5b505afa158015611a12573d6000803e3d6000fd5b505050506040513d601f19601f82011682018060405250810190611a3691906125bf565b601454600954604051636eb1769f60e11b81529293506000926001600160a01b039283169263dd62ed3e92611a7392339290911690600401612679565b60206040518083038186803b158015611a8b57600080fd5b505afa158015611a9f573d6000803e3d6000fd5b505050506040513d601f19601f82011682018060405250810190611ac391906125bf565b905081831115611ae55760405162461bcd60e51b81526004016108fd90612b2c565b80831115611b055760405162461bcd60e51b81526004016108fd90612ebb565b624c4b40881015611b285760405162461bcd60e51b81526004016108fd906127aa565b601454600a546040516323b872dd60e01b81526001600160a01b03928316926323b872dd92611b61923392909116908990600401612693565b602060405180830381600087803b158015611b7b57600080fd5b505af1158015611b8f573d6000803e3d6000fd5b505050506040513d601f19601f82011682018060405250810190611bb39190612587565b506014546009546040516323b872dd60e01b81526001600160a01b03928316926323b872dd92611bed923392909116908d90600401612693565b602060405180830381600087803b158015611c0757600080fd5b505af1158015611c1b573d6000803e3d6000fd5b505050506040513d601f19601f82011682018060405250810190611c3f9190612587565b50611c498861127d565b601454600954601354604051636eb1769f60e11b81526000936001600160a01b039081169363dd62ed3e93611c8693918316921690600401612679565b60206040518083038186803b158015611c9e57600080fd5b505afa158015611cb2573d6000803e3d6000fd5b505050506040513d601f19601f82011682018060405250810190611cd691906125bf565b9050611cfa8160405180606001604052806040815260200161312c604091396120b5565b611d038961100a565b6001600160a01b038b166000908152600c60205260409020439055611d288b8d6120fa565b7f67a9bacfa3375d781ca8b93e2eb8420c9dfa491353b9f782c2a56fff7b9c7ff6338c8e8c604051611d5d94939291906126b7565b60405180910390a150506001600855509498975050505050505050565b611d82610be1565b15611d9f5760405162461bcd60e51b81526004016108fd90612aa5565b6005805460ff60a01b1916600160a01b1790557f62e78cea01bee320cd4e420270b5ea74000d11b0c9f74754ebdbfc544b05a2586118c761164a565b6000611de5610be1565b15611e025760405162461bcd60e51b81526004016108fd90612aa5565b60026008541415611e255760405162461bcd60e51b81526004016108fd90612dbe565b6002600855611e3333611702565b611e4f5760405162461bcd60e51b81526004016108fd90612e4d565b6000611e5a33610c13565b905060008411611e7c5760405162461bcd60e51b81526004016108fd90612f9f565b83811015611e9c5760405162461bcd60e51b81526004016108fd90612a47565b6000611ea78561119a565b9050624c4b40811015611ecc5760405162461bcd60e51b81526004016108fd906129ea565b6000611ed733610954565b611ee2906064613068565b905060006064806012548486611ef89190613049565b611f029190613049565b611f0c9190613035565b611f169190613035565b90506000611f26612710836130d5565b90506000611f348284613068565b90506000611f428287613068565b9050611f4e338b6121ba565b7f7d5d31bdccaf1c82c15c6bc40fd7ba6435c5f91b48cbc62841bded9e222fcd75338a8c89604051611f8394939291906126b7565b60405180910390a1611f94866122a0565b601454600a5460405163a9059cbb60e01b81526001600160a01b039283169263a9059cbb92611fca9291169086906004016126e0565b602060405180830381600087803b158015611fe457600080fd5b505af1158015611ff8573d6000803e3d6000fd5b505050506040513d601f19601f8201168201806040525081019061201c9190612587565b5060145460405163a9059cbb60e01b81526001600160a01b039091169063a9059cbb9061204f908c9085906004016126e0565b602060405180830381600087803b15801561206957600080fd5b505af115801561207d573d6000803e3d6000fd5b505050506040513d601f19601f820116820180604052508101906120a19190612587565b505060016008555092979650505050505050565b610b3682826040516024016120cb929190612fee565b60408051601f198184030181529190526020810180516001600160e01b0316630fa3f34560e01b179052612385565b6001600160a01b0382166121205760405162461bcd60e51b81526004016108fd90612f68565b61212c60008383610bdc565b806002600082825461213e919061301d565b90915550506001600160a01b0382166000908152602081905260408120805483929061216b90849061301d565b90915550506040516001600160a01b038316906000907fddf252ad1be2c89b69c2b068fc378daa952ba7f163c4a11628f55a4df523b3ef906121ae908590612fe5565b60405180910390a35050565b6001600160a01b0382166121e05760405162461bcd60e51b81526004016108fd90612bf2565b6121ec82600083610bdc565b6001600160a01b038216600090815260208190526040902054818110156122255760405162461bcd60e51b81526004016108fd90612835565b61222f8282613068565b6001600160a01b0384166000908152602081905260408120919091556002805484929061225d908490613068565b90915550506040516000906001600160a01b038516907fddf252ad1be2c89b69c2b068fc378daa952ba7f163c4a11628f55a4df523b3ef906116f5908690612fe5565b6122a8610be1565b156122c55760405162461bcd60e51b81526004016108fd90612aa5565b601354601454600954604051631a4ca37b60e21b81526001600160a01b03938416936369328dec9361230393908216928792909116906004016126f9565b602060405180830381600087803b15801561231d57600080fd5b505af1158015612331573d6000803e3d6000fd5b505050506040513d601f19601f8201168201806040525081019061235591906125bf565b507fcf262399c7d7a6ef0283fba5e04858a528d91a896dc7bc72fa3e55fbfee77deb816040516110ac9190612fe5565b80516a636f6e736f6c652e6c6f67602083016000808483855afa5050505050565b8280548282559060005260206000209081019282156123e1579160200282015b828111156123e15782518255916020019190600101906123c6565b506123ed9291506123f1565b5090565b5b808211156123ed57600081556001016123f2565b80356001600160a01b038116811461098d57600080fd5b60006020828403121561242e578081fd5b610a0282612406565b60008060408385031215612449578081fd5b61245283612406565b915061246060208401612406565b90509250929050565b60008060006060848603121561247d578081fd5b61248684612406565b925061249460208501612406565b9150604084013590509250925092565b600080604083850312156124b6578182fd5b6124bf83612406565b946020939093013593505050565b600060208083850312156124df578182fd5b823567ffffffffffffffff808211156124f6578384fd5b818501915085601f830112612509578384fd5b81358181111561251b5761251b613115565b8381026040518582820101818110858211171561253a5761253a613115565b604052828152858101935084860182860187018a1015612558578788fd5b8795505b8386101561257a57803585526001959095019493860193860161255c565b5098975050505050505050565b600060208284031215612598578081fd5b81518015158114610a02578182fd5b6000602082840312156125b8578081fd5b5035919050565b6000602082840312156125d0578081fd5b5051919050565b600080604083850312156125e9578182fd5b8235915061246060208401612406565b6000806040838503121561260b578182fd5b50508035926020909101359150565b60008151808452815b8181101561263f57602081850181015186830182015201612623565b818111156126505782602083870101525b50601f01601f19169290920160200192915050565b6001600160a01b0391909116815260200190565b6001600160a01b0392831681529116602082015260400190565b6001600160a01b039384168152919092166020820152604081019190915260600190565b6001600160a01b0394851681529290931660208301526040820152606081019190915260800190565b6001600160a01b03929092168252602082015260400190565b6001600160a01b0393841681526020810192909252909116604082015260600190565b6001600160a01b03948516815260208101939093529216604082015261ffff909116606082015260800190565b901515815260200190565b600060208252610a02602083018461261a565b60208082526023908201527f45524332303a207472616e7366657220746f20746865207a65726f206164647260408201526265737360e81b606082015260800190565b6020808252603a908201527f424e4a2c20737065636966696564416d6f756e744d696e743a204d696e696d7560408201527f6d206d696e74696e672076616c7565206f662024352055534443000000000000606082015260800190565b60208082526014908201527314185d5cd8589b194e881b9bdd081c185d5cd95960621b604082015260600190565b60208082526022908201527f45524332303a206275726e20616d6f756e7420657863656564732062616c616e604082015261636560f01b606082015260800190565b60208082526026908201527f4f776e61626c653a206e6577206f776e657220697320746865207a65726f206160408201526564647265737360d01b606082015260800190565b60208082526022908201527f45524332303a20617070726f766520746f20746865207a65726f206164647265604082015261737360f01b606082015260800190565b60208082526027908201527f424e4a4943757276653a204d757374206d696e74206d6f7265207468616e203060408201526620746f6b656e7360c81b606082015260800190565b60208082526026908201527f45524332303a207472616e7366657220616d6f756e7420657863656564732062604082015265616c616e636560d01b606082015260800190565b602080825260409082018190527f757064617465416363756d756c6174656452656365697665723a206e65774164908201527f64726573732063616e6e6f7420626520746865207a65726f2061646472657373606082015260800190565b6020808252603a908201527f424e4a2c20737065636966696564416d6f756e744275726e3a204d696e696d7560408201527f6d206275726e696e672076616c75652069732024352055534443000000000000606082015260800190565b602080825260409082018190527f557365727320746f6b656e42616c616e6365206d75737420626520657175616c908201527f20746f206f72206d6f7265207468616e20616d6f756e7420746f206275726e2e606082015260800190565b60208082526010908201526f14185d5cd8589b194e881c185d5cd95960821b604082015260600190565b6020808252603f908201527f757064617465506f6c79676f6e4c656e64696e67506f6f6c3a206e657741646460408201527f726573732063616e6e6f7420626520746865207a65726f206164647265737300606082015260800190565b60208082526029908201527f424e4a2c20737065636966696564416d6f756e744d696e743a204e6f7420656e6040820152686f756768205553444360b81b606082015260800190565b60208082526028908201527f45524332303a207472616e7366657220616d6f756e74206578636565647320616040820152676c6c6f77616e636560c01b606082015260800190565b6020808252818101527f4f776e61626c653a2063616c6c6572206973206e6f7420746865206f776e6572604082015260600190565b60208082526021908201527f45524332303a206275726e2066726f6d20746865207a65726f206164647265736040820152607360f81b606082015260800190565b60208082526025908201527f45524332303a207472616e736665722066726f6d20746865207a65726f206164604082015264647265737360d81b606082015260800190565b60208082526024908201527f45524332303a20617070726f76652066726f6d20746865207a65726f206164646040820152637265737360e01b606082015260800190565b6020808252603a908201527f757064617465506f6c79676f6e414d555344433a206e6577416464726573732060408201527f63616e6e6f7420626520746865207a65726f2061646472657373000000000000606082015260800190565b6020808252602d908201527f424e4a4943757276653a2053656e64696e672061726773206d7573742062652060408201526c06c6172676572207468616e203609c1b606082015260800190565b60208082526038908201527f757064617465506f6c79676f6e555344433a206e6577416464726573732063616040820152776e6e6f7420626520746865207a65726f206164647265737360401b606082015260800190565b6020808252601f908201527f5265656e7472616e637947756172643a207265656e7472616e742063616c6c00604082015260600190565b60208082526038908201527f75706461746546656552656365697665723a206e6577416464726573732063616040820152776e6e6f7420626520746865207a65726f206164647265737360401b606082015260800190565b60208082526048908201527f424e4a2c20737065636966696564416d6f756e744275726e3a206d73672e736560408201527f6e646572206973206e6f742079657420616c6c6f77656420746f2077697468646060820152673930bb97b13ab93760c11b608082015260a00190565b60208082526042908201527f424e4a2c20737065636966696564416d6f756e744d696e743a204e6f7420656e60408201527f6f75676820616c6c6f77616e636520696e205553444320666f72207061796d656060820152611b9d60f21b608082015260a00190565b60208082526025908201527f45524332303a2064656372656173656420616c6c6f77616e63652062656c6f77604082015264207a65726f60d81b606082015260800190565b6020808252601f908201527f45524332303a206d696e7420746f20746865207a65726f206164647265737300604082015260600190565b60208082526026908201527f416d6f756e7420746f206275726e206d757374206265206d6f7265207468616e604082015265103d32b9379760d11b606082015260800190565b90815260200190565b600083825260406020830152613007604083018461261a565b949350505050565b60ff91909116815260200190565b60008219821115613030576130306130e9565b500190565b600082613044576130446130ff565b500490565b6000816000190483118215151615613063576130636130e9565b500290565b60008282101561307a5761307a6130e9565b500390565b60028104600182168061309357607f821691505b602082108114156130b457634e487b7160e01b600052602260045260246000fd5b50919050565b60006000198214156130ce576130ce6130e9565b5060010190565b6000826130e4576130e46130ff565b500690565b634e487b7160e01b600052601160045260246000fd5b634e487b7160e01b600052601260045260246000fd5b634e487b7160e01b600052604160045260246000fdfe3d3d3d3d3d3d3d3d3d3d3d3d3d3d3d3d2020203d3d3d3d3d203d3d3d3d3d3d3d424e4a2c204c656e64696e67506f6f6c416c6c6f77616e6365696e3664656320a26469706673582212203e18b9c0fa370917b968e0c80a572db080429cacbbdeeaaf6cea214d50630e6264736f6c63430008000033",
  "linkReferences": {},
  "deployedLinkReferences": {}
}