{
  "_format": "hh-sol-artifact-1",
  "contractName": "Benjamins",
  "sourceName": "contracts/Benjamins.sol",
  "abi": [
    {
      "inputs": [],
      "stateMutability": "nonpayable",
      "type": "constructor"
    },
    {
      "anonymous": false,
      "inputs": [
        {
          "indexed": true,
          "internalType": "address",
          "name": "owner",
          "type": "address"
        },
        {
          "indexed": true,
          "internalType": "address",
          "name": "spender",
          "type": "address"
        },
        {
          "indexed": false,
          "internalType": "uint256",
          "name": "value",
          "type": "uint256"
        }
      ],
      "name": "Approval",
      "type": "event"
    },
    {
      "anonymous": false,
      "inputs": [
        {
          "indexed": false,
          "internalType": "uint256",
          "name": "amount",
          "type": "uint256"
        }
      ],
      "name": "LendingPoolDeposit",
      "type": "event"
    },
    {
      "anonymous": false,
      "inputs": [
        {
          "indexed": false,
          "internalType": "uint256",
          "name": "amount",
          "type": "uint256"
        }
      ],
      "name": "LendingPoolWithdrawal",
      "type": "event"
    },
    {
      "anonymous": false,
      "inputs": [
        {
          "indexed": true,
          "internalType": "address",
          "name": "previousOwner",
          "type": "address"
        },
        {
          "indexed": true,
          "internalType": "address",
          "name": "newOwner",
          "type": "address"
        }
      ],
      "name": "OwnershipTransferred",
      "type": "event"
    },
    {
      "anonymous": false,
      "inputs": [
        {
          "indexed": false,
          "internalType": "address",
          "name": "account",
          "type": "address"
        }
      ],
      "name": "Paused",
      "type": "event"
    },
    {
      "anonymous": false,
      "inputs": [
        {
          "indexed": false,
          "internalType": "address",
          "name": "sender",
          "type": "address"
        },
        {
          "indexed": false,
          "internalType": "uint256",
          "name": "tokenAmount",
          "type": "uint256"
        },
        {
          "indexed": false,
          "internalType": "uint256",
          "name": "returnForBurning",
          "type": "uint256"
        }
      ],
      "name": "SpecifiedBurnEvent",
      "type": "event"
    },
    {
      "anonymous": false,
      "inputs": [
        {
          "indexed": false,
          "internalType": "address",
          "name": "sender",
          "type": "address"
        },
        {
          "indexed": false,
          "internalType": "uint256",
          "name": "tokenAmount",
          "type": "uint256"
        },
        {
          "indexed": false,
          "internalType": "uint256",
          "name": "priceForMintingIn6dec",
          "type": "uint256"
        }
      ],
      "name": "SpecifiedMintEvent",
      "type": "event"
    },
    {
      "anonymous": false,
      "inputs": [
        {
          "indexed": true,
          "internalType": "address",
          "name": "from",
          "type": "address"
        },
        {
          "indexed": true,
          "internalType": "address",
          "name": "to",
          "type": "address"
        },
        {
          "indexed": false,
          "internalType": "uint256",
          "name": "value",
          "type": "uint256"
        }
      ],
      "name": "Transfer",
      "type": "event"
    },
    {
      "anonymous": false,
      "inputs": [
        {
          "indexed": false,
          "internalType": "address",
          "name": "account",
          "type": "address"
        }
      ],
      "name": "Unpaused",
      "type": "event"
    },
    {
      "inputs": [],
      "name": "addressOfThisContract",
      "outputs": [
        {
          "internalType": "address",
          "name": "",
          "type": "address"
        }
      ],
      "stateMutability": "view",
      "type": "function"
    },
    {
      "inputs": [
        {
          "internalType": "address",
          "name": "owner",
          "type": "address"
        },
        {
          "internalType": "address",
          "name": "spender",
          "type": "address"
        }
      ],
      "name": "allowance",
      "outputs": [
        {
          "internalType": "uint256",
          "name": "",
          "type": "uint256"
        }
      ],
      "stateMutability": "view",
      "type": "function"
    },
    {
      "inputs": [
        {
          "internalType": "address",
          "name": "spender",
          "type": "address"
        },
        {
          "internalType": "uint256",
          "name": "amount",
          "type": "uint256"
        }
      ],
      "name": "approve",
      "outputs": [
        {
          "internalType": "bool",
          "name": "",
          "type": "bool"
        }
      ],
      "stateMutability": "nonpayable",
      "type": "function"
    },
    {
      "inputs": [
        {
          "internalType": "address",
          "name": "account",
          "type": "address"
        }
      ],
      "name": "balanceOf",
      "outputs": [
        {
          "internalType": "uint256",
          "name": "",
          "type": "uint256"
        }
      ],
      "stateMutability": "view",
      "type": "function"
    },
    {
      "inputs": [
        {
          "internalType": "uint256",
          "name": "amountOfLevels",
          "type": "uint256"
        }
      ],
      "name": "buyLevels",
      "outputs": [],
      "stateMutability": "nonpayable",
      "type": "function"
    },
    {
      "inputs": [],
      "name": "calcAccumulated",
      "outputs": [
        {
          "internalType": "uint256",
          "name": "accumulatedAmount",
          "type": "uint256"
        }
      ],
      "stateMutability": "view",
      "type": "function"
    },
    {
      "inputs": [],
      "name": "calcAllTokensValue",
      "outputs": [
        {
          "internalType": "uint256",
          "name": "allTokensReturn",
          "type": "uint256"
        }
      ],
      "stateMutability": "view",
      "type": "function"
    },
    {
      "inputs": [
        {
          "internalType": "uint256",
          "name": "supply",
          "type": "uint256"
        },
        {
          "internalType": "uint256",
          "name": "tokensToMint",
          "type": "uint256"
        }
      ],
      "name": "calcPriceForTokenMint",
      "outputs": [
        {
          "internalType": "uint256",
          "name": "",
          "type": "uint256"
        }
      ],
      "stateMutability": "view",
      "type": "function"
    },
    {
      "inputs": [
        {
          "internalType": "uint256",
          "name": "supply",
          "type": "uint256"
        },
        {
          "internalType": "uint256",
          "name": "tokensToBurn",
          "type": "uint256"
        }
      ],
      "name": "calcReturnForTokenBurn",
      "outputs": [
        {
          "internalType": "uint256",
          "name": "",
          "type": "uint256"
        }
      ],
      "stateMutability": "view",
      "type": "function"
    },
    {
      "inputs": [
        {
          "internalType": "uint256",
          "name": "amount",
          "type": "uint256"
        }
      ],
      "name": "calcSpecBurnReturn",
      "outputs": [
        {
          "internalType": "uint256",
          "name": "burnReturn",
          "type": "uint256"
        }
      ],
      "stateMutability": "view",
      "type": "function"
    },
    {
      "inputs": [
        {
          "internalType": "uint256",
          "name": "amount",
          "type": "uint256"
        }
      ],
      "name": "calcSpecMintReturn",
      "outputs": [
        {
          "internalType": "uint256",
          "name": "mintPrice",
          "type": "uint256"
        }
      ],
      "stateMutability": "view",
      "type": "function"
    },
    {
      "inputs": [
        {
          "internalType": "address",
          "name": "userToCheck",
          "type": "address"
        }
      ],
      "name": "checkStakedBenjamins",
      "outputs": [
        {
          "internalType": "uint256",
          "name": "usersStakedBNJIs",
          "type": "uint256"
        }
      ],
      "stateMutability": "view",
      "type": "function"
    },
    {
      "inputs": [],
      "name": "decimals",
      "outputs": [
        {
          "internalType": "uint8",
          "name": "",
          "type": "uint8"
        }
      ],
      "stateMutability": "view",
      "type": "function"
    },
    {
      "inputs": [
        {
          "internalType": "address",
          "name": "spender",
          "type": "address"
        },
        {
          "internalType": "uint256",
          "name": "subtractedValue",
          "type": "uint256"
        }
      ],
      "name": "decreaseAllowance",
      "outputs": [
        {
          "internalType": "bool",
          "name": "",
          "type": "bool"
        }
      ],
      "stateMutability": "nonpayable",
      "type": "function"
    },
    {
      "inputs": [
        {
          "internalType": "uint256",
          "name": "amount",
          "type": "uint256"
        }
      ],
      "name": "depositUSDCBuffer",
      "outputs": [],
      "stateMutability": "nonpayable",
      "type": "function"
    },
    {
      "inputs": [
        {
          "internalType": "address",
          "name": "userToCheck",
          "type": "address"
        }
      ],
      "name": "getInternalActiveStakes",
      "outputs": [
        {
          "components": [
            {
              "internalType": "address",
              "name": "stakingAddress",
              "type": "address"
            },
            {
              "internalType": "uint256",
              "name": "stakeID",
              "type": "uint256"
            },
            {
              "internalType": "uint256",
              "name": "tokenAmount",
              "type": "uint256"
            },
            {
              "internalType": "uint256",
              "name": "stakeCreatedTimestamp",
              "type": "uint256"
            },
            {
              "internalType": "bool",
              "name": "unstaked",
              "type": "bool"
            }
          ],
          "internalType": "struct Benjamins.Stake[]",
          "name": "stakeArray",
          "type": "tuple[]"
        }
      ],
      "stateMutability": "view",
      "type": "function"
    },
    {
      "inputs": [
        {
          "internalType": "address",
          "name": "userToCheck",
          "type": "address"
        }
      ],
      "name": "getUsersActiveAndBurnableStakes",
      "outputs": [
        {
          "components": [
            {
              "internalType": "address",
              "name": "stakingAddress",
              "type": "address"
            },
            {
              "internalType": "uint256",
              "name": "stakeID",
              "type": "uint256"
            },
            {
              "internalType": "uint256",
              "name": "tokenAmount",
              "type": "uint256"
            },
            {
              "internalType": "uint256",
              "name": "stakeCreatedTimestamp",
              "type": "uint256"
            },
            {
              "internalType": "bool",
              "name": "unstaked",
              "type": "bool"
            }
          ],
          "internalType": "struct Benjamins.Stake[]",
          "name": "stakeArray",
          "type": "tuple[]"
        }
      ],
      "stateMutability": "view",
      "type": "function"
    },
    {
      "inputs": [
        {
          "internalType": "address",
          "name": "spender",
          "type": "address"
        },
        {
          "internalType": "uint256",
          "name": "addedValue",
          "type": "uint256"
        }
      ],
      "name": "increaseAllowance",
      "outputs": [
        {
          "internalType": "bool",
          "name": "",
          "type": "bool"
        }
      ],
      "stateMutability": "nonpayable",
      "type": "function"
    },
    {
      "inputs": [
        {
          "internalType": "uint256",
          "name": "amount",
          "type": "uint256"
        }
      ],
      "name": "internalBurn",
      "outputs": [
        {
          "internalType": "uint256",
          "name": "",
          "type": "uint256"
        }
      ],
      "stateMutability": "nonpayable",
      "type": "function"
    },
    {
      "inputs": [
        {
          "internalType": "uint256",
          "name": "amount",
          "type": "uint256"
        },
        {
          "internalType": "address",
          "name": "holderOfInternalMint",
          "type": "address"
        }
      ],
      "name": "internalMint",
      "outputs": [
        {
          "internalType": "uint256",
          "name": "",
          "type": "uint256"
        }
      ],
      "stateMutability": "nonpayable",
      "type": "function"
    },
    {
      "inputs": [],
      "name": "name",
      "outputs": [
        {
          "internalType": "string",
          "name": "",
          "type": "string"
        }
      ],
      "stateMutability": "view",
      "type": "function"
    },
    {
      "inputs": [],
      "name": "owner",
      "outputs": [
        {
          "internalType": "address",
          "name": "",
          "type": "address"
        }
      ],
      "stateMutability": "view",
      "type": "function"
    },
    {
      "inputs": [],
      "name": "pause",
      "outputs": [],
      "stateMutability": "nonpayable",
      "type": "function"
    },
    {
      "inputs": [],
      "name": "paused",
      "outputs": [
        {
          "internalType": "bool",
          "name": "",
          "type": "bool"
        }
      ],
      "stateMutability": "view",
      "type": "function"
    },
    {
      "inputs": [],
      "name": "polygonAMUSDC",
      "outputs": [
        {
          "internalType": "contract IERC20",
          "name": "",
          "type": "address"
        }
      ],
      "stateMutability": "view",
      "type": "function"
    },
    {
      "inputs": [],
      "name": "polygonLendingPool",
      "outputs": [
        {
          "internalType": "contract ILendingPool",
          "name": "",
          "type": "address"
        }
      ],
      "stateMutability": "view",
      "type": "function"
    },
    {
      "inputs": [],
      "name": "polygonUSDC",
      "outputs": [
        {
          "internalType": "contract IERC20",
          "name": "",
          "type": "address"
        }
      ],
      "stateMutability": "view",
      "type": "function"
    },
    {
      "inputs": [],
      "name": "renounceOwnership",
      "outputs": [],
      "stateMutability": "nonpayable",
      "type": "function"
    },
    {
      "inputs": [
        {
          "internalType": "uint256",
          "name": "amountOfLevels",
          "type": "uint256"
        }
      ],
      "name": "sellLevels",
      "outputs": [],
      "stateMutability": "nonpayable",
      "type": "function"
    },
    {
      "inputs": [
        {
          "internalType": "address",
          "name": "userToCheck",
          "type": "address"
        }
      ],
      "name": "showAllUsersStakes",
      "outputs": [
        {
          "components": [
            {
              "internalType": "address",
              "name": "stakingAddress",
              "type": "address"
            },
            {
              "internalType": "uint256",
              "name": "stakeID",
              "type": "uint256"
            },
            {
              "internalType": "uint256",
              "name": "tokenAmount",
              "type": "uint256"
            },
            {
              "internalType": "uint256",
              "name": "stakeCreatedTimestamp",
              "type": "uint256"
            },
            {
              "internalType": "bool",
              "name": "unstaked",
              "type": "bool"
            }
          ],
          "internalType": "struct Benjamins.Stake[]",
          "name": "stakeArray",
          "type": "tuple[]"
        }
      ],
      "stateMutability": "view",
      "type": "function"
    },
    {
      "inputs": [],
      "name": "showInternalAddresses",
      "outputs": [
        {
          "internalType": "address[]",
          "name": "",
          "type": "address[]"
        }
      ],
      "stateMutability": "view",
      "type": "function"
    },
    {
      "inputs": [
        {
          "internalType": "address",
          "name": "userToCheck",
          "type": "address"
        }
      ],
      "name": "showInternalBenjamins",
      "outputs": [
        {
          "internalType": "uint256",
          "name": "",
          "type": "uint256"
        }
      ],
      "stateMutability": "view",
      "type": "function"
    },
    {
      "inputs": [],
      "name": "showStakersAddresses",
      "outputs": [
        {
          "internalType": "address[]",
          "name": "",
          "type": "address[]"
        }
      ],
      "stateMutability": "view",
      "type": "function"
    },
    {
      "inputs": [],
      "name": "symbol",
      "outputs": [
        {
          "internalType": "string",
          "name": "",
          "type": "string"
        }
      ],
      "stateMutability": "view",
      "type": "function"
    },
    {
      "inputs": [],
      "name": "totalSupply",
      "outputs": [
        {
          "internalType": "uint256",
          "name": "",
          "type": "uint256"
        }
      ],
      "stateMutability": "view",
      "type": "function"
    },
    {
      "inputs": [
        {
          "internalType": "address",
          "name": "recipient",
          "type": "address"
        },
        {
          "internalType": "uint256",
          "name": "amount",
          "type": "uint256"
        }
      ],
      "name": "transfer",
      "outputs": [
        {
          "internalType": "bool",
          "name": "",
          "type": "bool"
        }
      ],
      "stateMutability": "nonpayable",
      "type": "function"
    },
    {
      "inputs": [
        {
          "internalType": "address",
          "name": "sender",
          "type": "address"
        },
        {
          "internalType": "address",
          "name": "recipient",
          "type": "address"
        },
        {
          "internalType": "uint256",
          "name": "amount",
          "type": "uint256"
        }
      ],
      "name": "transferFrom",
      "outputs": [
        {
          "internalType": "bool",
          "name": "",
          "type": "bool"
        }
      ],
      "stateMutability": "nonpayable",
      "type": "function"
    },
    {
      "inputs": [
        {
          "internalType": "address",
          "name": "newOwner",
          "type": "address"
        }
      ],
      "name": "transferOwnership",
      "outputs": [],
      "stateMutability": "nonpayable",
      "type": "function"
    },
    {
      "inputs": [],
      "name": "unpause",
      "outputs": [],
      "stateMutability": "nonpayable",
      "type": "function"
    },
    {
      "inputs": [
        {
          "internalType": "address",
          "name": "newAddress",
          "type": "address"
        }
      ],
      "name": "updateAccumulatedReceiver",
      "outputs": [],
      "stateMutability": "nonpayable",
      "type": "function"
    },
    {
      "inputs": [
        {
          "internalType": "uint256",
          "name": "amountToApprove",
          "type": "uint256"
        }
      ],
      "name": "updateApproveLendingPool",
      "outputs": [],
      "stateMutability": "nonpayable",
      "type": "function"
    },
    {
      "inputs": [
        {
          "internalType": "uint256",
          "name": "newCurveFactor",
          "type": "uint256"
        }
      ],
      "name": "updateCurveFactor",
      "outputs": [],
      "stateMutability": "nonpayable",
      "type": "function"
    },
    {
      "inputs": [
        {
          "internalType": "address",
          "name": "newAddress",
          "type": "address"
        }
      ],
      "name": "updateFeeReceiver",
      "outputs": [],
      "stateMutability": "nonpayable",
      "type": "function"
    },
    {
      "inputs": [
        {
          "internalType": "address",
          "name": "newAddress",
          "type": "address"
        }
      ],
      "name": "updatePolygonAMUSDC",
      "outputs": [],
      "stateMutability": "nonpayable",
      "type": "function"
    },
    {
      "inputs": [
        {
          "internalType": "address",
          "name": "newAddress",
          "type": "address"
        }
      ],
      "name": "updatePolygonLendingPool",
      "outputs": [],
      "stateMutability": "nonpayable",
      "type": "function"
    },
    {
      "inputs": [
        {
          "internalType": "address",
          "name": "newAddress",
          "type": "address"
        }
      ],
      "name": "updatePolygonUSDC",
      "outputs": [],
      "stateMutability": "nonpayable",
      "type": "function"
    },
    {
      "inputs": [
        {
          "internalType": "uint256",
          "name": "newstakingPeriodInSeconds",
          "type": "uint256"
        }
      ],
      "name": "updateStakingPeriodInSeconds",
      "outputs": [],
      "stateMutability": "nonpayable",
      "type": "function"
    },
    {
      "inputs": [
        {
          "internalType": "uint256",
          "name": "newtier0feeMod",
          "type": "uint256"
        }
      ],
      "name": "updateTier0feeMod",
      "outputs": [],
      "stateMutability": "nonpayable",
      "type": "function"
    },
    {
      "inputs": [
        {
          "internalType": "uint256",
          "name": "newtier1feeMod",
          "type": "uint256"
        }
      ],
      "name": "updateTier1feeMod",
      "outputs": [],
      "stateMutability": "nonpayable",
      "type": "function"
    },
    {
      "inputs": [
        {
          "internalType": "uint256",
          "name": "newtier2feeMod",
          "type": "uint256"
        }
      ],
      "name": "updateTier2feeMod",
      "outputs": [],
      "stateMutability": "nonpayable",
      "type": "function"
    },
    {
      "inputs": [
        {
          "internalType": "uint256",
          "name": "newtier3feeMod",
          "type": "uint256"
        }
      ],
      "name": "updateTier3feeMod",
      "outputs": [],
      "stateMutability": "nonpayable",
      "type": "function"
    },
    {
      "inputs": [
        {
          "internalType": "uint256",
          "name": "newtier4feeMod",
          "type": "uint256"
        }
      ],
      "name": "updateTier4feeMod",
      "outputs": [],
      "stateMutability": "nonpayable",
      "type": "function"
    },
    {
      "inputs": [
        {
          "internalType": "uint256",
          "name": "newtier4feeMod",
          "type": "uint256"
        }
      ],
      "name": "updateTier5feeMod",
      "outputs": [],
      "stateMutability": "nonpayable",
      "type": "function"
    },
    {
      "inputs": [
        {
          "internalType": "uint256",
          "name": "amount",
          "type": "uint256"
        }
      ],
      "name": "withdrawAccumulated",
      "outputs": [],
      "stateMutability": "nonpayable",
      "type": "function"
    },
    {
      "inputs": [
        {
          "internalType": "address",
          "name": "ERC20ContractAddress",
          "type": "address"
        },
        {
          "internalType": "uint256",
          "name": "amount",
          "type": "uint256"
        }
      ],
      "name": "withdrawERC20",
      "outputs": [],
      "stateMutability": "nonpayable",
      "type": "function"
    },
    {
      "stateMutability": "payable",
      "type": "receive"
    }
  ],
  "bytecode": "0x6080604052620f4240600655620c350060075560006016556064601755605f60185560556019556046601a556032601b556019601c553480156200004257600080fd5b50604080518082018252600981526842656e6a616d696e7360b81b602080830191825283518085019094526004845263424e4a4960e01b9084015281519192916200009091600391620002f4565b508051620000a6906004906020840190620002f4565b5050506000620000bb620001f560201b60201c565b600580546001600160a01b0319166001600160a01b038316908117909155604051919250906000907f8be0079c531659141344cd1fd0a4f28419497f9722a3daafe3b4186f6b6457e0908290a3506005805460ff60a01b191690556001600855600980546001600160a01b0319163017905562000137620001f9565b600a80546001600160a01b0319166001600160a01b039290921691909117905562000161620001f9565b600b80546001600160a01b03929092166001600160a01b03199283161790556015805460ff19169055601e80548216732791bca1f2de4661ed88a30c99a7a9449aa84174179055601f80548216731a13f4ca1d028320a707d99520abfefca3998b7f179055601d8054909116738dff5e27ea6b7ac08ebfdf9eb090f32ee9a30fcf179055620001ef62000208565b6200044a565b3390565b6005546001600160a01b031690565b62000212620001f5565b6001600160a01b031662000225620001f9565b6001600160a01b031614620002575760405162461bcd60e51b81526004016200024e90620003d8565b60405180910390fd5b6200026162000263565b565b6200026d620002e4565b156200028d5760405162461bcd60e51b81526004016200024e90620003ae565b6005805460ff60a01b1916600160a01b1790557f62e78cea01bee320cd4e420270b5ea74000d11b0c9f74754ebdbfc544b05a258620002cb620001f5565b604051620002da91906200039a565b60405180910390a1565b600554600160a01b900460ff1690565b82805462000302906200040d565b90600052602060002090601f01602090048101928262000326576000855562000371565b82601f106200034157805160ff191683800117855562000371565b8280016001018555821562000371579182015b828111156200037157825182559160200191906001019062000354565b506200037f92915062000383565b5090565b5b808211156200037f576000815560010162000384565b6001600160a01b0391909116815260200190565b60208082526010908201526f14185d5cd8589b194e881c185d5cd95960821b604082015260600190565b6020808252818101527f4f776e61626c653a2063616c6c6572206973206e6f7420746865206f776e6572604082015260600190565b6002810460018216806200042257607f821691505b602082108114156200044457634e487b7160e01b600052602260045260246000fd5b50919050565b614bb1806200045a6000396000f3fe6080604052600436106103545760003560e01c8063851955d0116101c6578063bfb8ec30116100f7578063dd62ed3e11610095578063e4bbe7eb1161006f578063e4bbe7eb14610976578063e8e6f9ad14610996578063f2fde38b146109b6578063f98b242f146109d65761035b565b8063dd62ed3e14610916578063e32cb6d814610936578063e47bb97b146109565761035b565b8063c69bebe4116100d1578063c69bebe4146108a1578063cd0d95e2146108c1578063cfad0eb6146108e1578063d948e104146109015761035b565b8063bfb8ec3014610841578063c010014314610861578063c346e980146108815761035b565b8063a6ecdb2911610164578063ab5b84311161013e578063ab5b8431146107cc578063b0de3680146107e1578063bcde5a1a14610801578063bdb21b58146108215761035b565b8063a6ecdb291461076a578063a7b9c8ae1461078c578063a9059cbb146107ac5761035b565b80638fb33017116101a05780638fb330171461070057806395d89b4114610715578063a1db97821461072a578063a457c2d71461074a5761035b565b8063851955d0146106ab5780638ac69e97146106cb5780638da5cb5b146106eb5761035b565b806339509351116102a05780635c975abb1161023e5780636c752974116102185780636c7529741461064c57806370a0823114610661578063715018a6146106815780638456cb59146106965761035b565b80635c975abb146105ea5780635f03e644146105ff57806360bd13291461061f5761035b565b806346c105251161027a57806346c105251461056a5780634cd6dc281461058a5780634f12192c146105aa57806356d2ec1b146105ca5761035b565b806339509351146105155780633f4ba83a14610535578063413712941461054a5761035b565b8063160873151161030d578063257a0050116102e7578063257a00501461049357806326b9dfa4146104b35780632853c2f7146104d3578063313ce567146104f35761035b565b8063160873151461043e57806318160ddd1461045e57806323b872dd146104735761035b565b8063030942321461036057806306fdde031461038257806307b76354146103ad578063095ea7b3146103cf57806310b4afb3146103fc578063126d8c2a1461041e5761035b565b3661035b57005b600080fd5b34801561036c57600080fd5b5061038061037b366004613c57565b6109eb565b005b34801561038e57600080fd5b50610397610a38565b6040516103a49190613e77565b60405180910390f35b3480156103b957600080fd5b506103c2610aca565b6040516103a49190614a72565b3480156103db57600080fd5b506103ef6103ea366004613c0e565b610bd1565b6040516103a49190613e6c565b34801561040857600080fd5b50610411610bee565b6040516103a49190613cca565b34801561042a57600080fd5b506103c2610439366004613b80565b610bfd565b34801561044a57600080fd5b50610380610459366004613b80565b610c5e565b34801561046a57600080fd5b506103c2610ce5565b34801561047f57600080fd5b506103ef61048e366004613bd3565b610ceb565b34801561049f57600080fd5b506103806104ae366004613b80565b610d82565b3480156104bf57600080fd5b506103806104ce366004613c57565b610e09565b3480156104df57600080fd5b506103806104ee366004613c57565b610e4d565b3480156104ff57600080fd5b50610508610e91565b6040516103a49190614a7b565b34801561052157600080fd5b506103ef610530366004613c0e565b610e9a565b34801561054157600080fd5b50610380610ee9565b34801561055657600080fd5b50610380610565366004613c57565b610f32565b34801561057657600080fd5b50610380610585366004613c57565b610f6e565b34801561059657600080fd5b506103c26105a5366004613b80565b610fb2565b3480156105b657600080fd5b506103806105c5366004613c57565b610fcd565b3480156105d657600080fd5b506103c26105e5366004613c57565b611011565b3480156105f657600080fd5b506103ef611214565b34801561060b57600080fd5b506103c261061a366004613c57565b611224565b34801561062b57600080fd5b5061063f61063a366004613b80565b61123d565b6040516103a49190613df3565b34801561065857600080fd5b50610411611328565b34801561066d57600080fd5b506103c261067c366004613b80565b611337565b34801561068d57600080fd5b50610380611352565b3480156106a257600080fd5b506103806113db565b3480156106b757600080fd5b506103806106c6366004613c57565b611422565b3480156106d757600080fd5b506103806106e6366004613c57565b61145a565b3480156106f757600080fd5b5061041161149e565b34801561070c57600080fd5b506104116114ad565b34801561072157600080fd5b506103976114bc565b34801561073657600080fd5b50610380610745366004613c0e565b6114cb565b34801561075657600080fd5b506103ef610765366004613c0e565b611592565b34801561077657600080fd5b5061077f61160d565b6040516103a49190613da6565b34801561079857600080fd5b506103806107a7366004613c57565b6116ad565b3480156107b857600080fd5b506103ef6107c7366004613c0e565b611774565b3480156107d857600080fd5b5061077f611788565b3480156107ed57600080fd5b506103806107fc366004613c57565b611827565b34801561080d57600080fd5b5061063f61081c366004613b80565b611913565b34801561082d57600080fd5b5061038061083c366004613c57565b611d5d565b34801561084d57600080fd5b5061063f61085c366004613b80565b611da1565b34801561086d57600080fd5b5061038061087c366004613b80565b6121d3565b34801561088d57600080fd5b506103c261089c366004613c57565b61225a565b3480156108ad57600080fd5b506103806108bc366004613b80565b61226d565b3480156108cd57600080fd5b506103806108dc366004613c57565b6122f4565b3480156108ed57600080fd5b506103806108fc366004613b80565b612369565b34801561090d57600080fd5b506104116123f0565b34801561092257600080fd5b506103c2610931366004613ba1565b6123ff565b34801561094257600080fd5b506103c2610951366004613c87565b61242a565b34801561096257600080fd5b50610380610971366004613c57565b6127e0565b34801561098257600080fd5b506103c2610991366004613ca9565b612824565b3480156109a257600080fd5b506103c26109b1366004613ca9565b6128e5565b3480156109c257600080fd5b506103806109d1366004613b80565b612960565b3480156109e257600080fd5b506103c2612a21565b6109f3612a7a565b6001600160a01b0316610a0461149e565b6001600160a01b031614610a335760405162461bcd60e51b8152600401610a2a90614523565b60405180910390fd5b601855565b606060038054610a4790614aeb565b80601f0160208091040260200160405190810160405280929190818152602001828054610a7390614aeb565b8015610ac05780601f10610a9557610100808354040283529160200191610ac0565b820191906000526020600020905b815481529060010190602001808311610aa357829003601f168201915b5050505050905090565b6000610ad4612a7a565b6001600160a01b0316610ae561149e565b6001600160a01b031614610b0b5760405162461bcd60e51b8152600401610a2a90614523565b6000610b15612a21565b905060006064610b26836061614ab5565b610b309190614aa1565b601f546009546040516370a0823160e01b81529293506000926001600160a01b03928316926370a0823192610b6a92911690600401613cca565b60206040518083038186803b158015610b8257600080fd5b505afa158015610b96573d6000803e3d6000fd5b505050506040513d601f19601f82011682018060405250810190610bba9190613c6f565b90506000610bc88284614ad4565b94505050505090565b6000610be5610bde612a7a565b8484612a7e565b50600192915050565b6009546001600160a01b031681565b6000610c07612a7a565b6001600160a01b0316610c1861149e565b6001600160a01b031614610c3e5760405162461bcd60e51b8152600401610a2a90614523565b506001600160a01b0381166000908152600f60205260409020545b919050565b610c66612a7a565b6001600160a01b0316610c7761149e565b6001600160a01b031614610c9d5760405162461bcd60e51b8152600401610a2a90614523565b6001600160a01b038116610cc35760405162461bcd60e51b8152600401610a2a906147cb565b601e80546001600160a01b0319166001600160a01b0392909216919091179055565b60025490565b6000610cf8848484612b32565b6001600160a01b038416600090815260016020526040812081610d19612a7a565b6001600160a01b03166001600160a01b0316815260200190815260200160002054905082811015610d5c5760405162461bcd60e51b8152600401610a2a906144db565b610d7785610d68612a7a565b610d728685614ad4565b612a7e565b506001949350505050565b610d8a612a7a565b6001600160a01b0316610d9b61149e565b6001600160a01b031614610dc15760405162461bcd60e51b8152600401610a2a90614523565b6001600160a01b038116610de75760405162461bcd60e51b8152600401610a2a906143a0565b601d80546001600160a01b0319166001600160a01b0392909216919091179055565b610e11612a7a565b6001600160a01b0316610e2261149e565b6001600160a01b031614610e485760405162461bcd60e51b8152600401610a2a90614523565b601955565b610e55612a7a565b6001600160a01b0316610e6661149e565b6001600160a01b031614610e8c5760405162461bcd60e51b8152600401610a2a90614523565b600755565b60155460ff1690565b6000610be5610ea7612a7a565b848460016000610eb5612a7a565b6001600160a01b03908116825260208083019390935260409182016000908120918b1681529252902054610d729190614a89565b610ef1612a7a565b6001600160a01b0316610f0261149e565b6001600160a01b031614610f285760405162461bcd60e51b8152600401610a2a90614523565b610f30612c5a565b565b610f3a611214565b15610f575760405162461bcd60e51b8152600401610a2a90614376565b610f6a610f65826014614ab5565b612ccb565b5050565b610f76612a7a565b6001600160a01b0316610f8761149e565b6001600160a01b031614610fad5760405162461bcd60e51b8152600401610a2a90614523565b601b55565b6001600160a01b031660009081526010602052604090205490565b610fd5612a7a565b6001600160a01b0316610fe661149e565b6001600160a01b03161461100c5760405162461bcd60e51b8152600401610a2a90614523565b601c55565b600061101b611214565b156110385760405162461bcd60e51b8152600401610a2a90614376565b6002600854141561105b5760405162461bcd60e51b8152600401610a2a90614823565b600260085561106b601483614b3b565b156110885760405162461bcd60e51b8152600401610a2a90614558565b336000908152600f6020526040902054826110b55760405162461bcd60e51b8152600401610a2a90614a2c565b828110156110d55760405162461bcd60e51b8152600401610a2a90614318565b60006110e08461225a565b9050624c4b408110156111055760405162461bcd60e51b8152600401610a2a906143fd565b336000908152600f602052604081208054869290611124908490614ad4565b909155505060095461113f906001600160a01b03168561310f565b7fdbba09fffb965fc22fc44dbcfae24c5fa3c095c5e59ad4934a8d71c2980eeda733858360405161117293929190613d85565b60405180910390a1611183816131f5565b601e5460405163a9059cbb60e01b81526001600160a01b039091169063a9059cbb906111b59033908590600401613d1c565b602060405180830381600087803b1580156111cf57600080fd5b505af11580156111e3573d6000803e3d6000fd5b505050506040513d601f19601f820116820180604052508101906112079190613c37565b5060016008559392505050565b600554600160a01b900460ff1690565b6000611237611231610ce5565b836128e5565b92915050565b6060611247612a7a565b6001600160a01b031661125861149e565b6001600160a01b03161461127e5760405162461bcd60e51b8152600401610a2a90614523565b6001600160a01b038216600090815260136020908152604080832080548251818502810185019093528083529193909284015b8282101561131d5760008481526020908190206040805160a0810182526005860290920180546001600160a01b0316835260018082015484860152600282015492840192909252600381015460608401526004015460ff161515608083015290835290920191016112b1565b505050509050919050565b601e546001600160a01b031681565b6001600160a01b031660009081526020819052604090205490565b61135a612a7a565b6001600160a01b031661136b61149e565b6001600160a01b0316146113915760405162461bcd60e51b8152600401610a2a90614523565b6005546040516000916001600160a01b0316907f8be0079c531659141344cd1fd0a4f28419497f9722a3daafe3b4186f6b6457e0908390a3600580546001600160a01b0319169055565b6113e3612a7a565b6001600160a01b03166113f461149e565b6001600160a01b03161461141a5760405162461bcd60e51b8152600401610a2a90614523565b610f306132da565b61142a611214565b156114475760405162461bcd60e51b8152600401610a2a90614376565b610f6a611455826014614ab5565b61333b565b611462612a7a565b6001600160a01b031661147361149e565b6001600160a01b0316146114995760405162461bcd60e51b8152600401610a2a90614523565b601a55565b6005546001600160a01b031690565b601f546001600160a01b031681565b606060048054610a4790614aeb565b6114d3612a7a565b6001600160a01b03166114e461149e565b6001600160a01b03161461150a5760405162461bcd60e51b8152600401610a2a90614523565b60405163a9059cbb60e01b815282906001600160a01b0382169063a9059cbb9061153a9033908690600401613d1c565b602060405180830381600087803b15801561155457600080fd5b505af1158015611568573d6000803e3d6000fd5b505050506040513d601f19601f8201168201806040525081019061158c9190613c37565b50505050565b600080600160006115a1612a7a565b6001600160a01b03908116825260208083019390935260409182016000908120918816815292529020549050828110156115ed5760405162461bcd60e51b8152600401610a2a906149b0565b6116036115f8612a7a565b85610d728685614ad4565b5060019392505050565b6060611617612a7a565b6001600160a01b031661162861149e565b6001600160a01b03161461164e5760405162461bcd60e51b8152600401610a2a90614523565b600c805480602002602001604051908101604052809291908181526020018280548015610ac057602002820191906000526020600020905b81546001600160a01b03168152600190910190602001808311611686575050505050905090565b6116b5612a7a565b6001600160a01b03166116c661149e565b6001600160a01b0316146116ec5760405162461bcd60e51b8152600401610a2a90614523565b601f54600b5460405163a9059cbb60e01b81526001600160a01b039283169263a9059cbb92611722929116908590600401613d1c565b602060405180830381600087803b15801561173c57600080fd5b505af1158015611750573d6000803e3d6000fd5b505050506040513d601f19601f82011682018060405250810190610f6a9190613c37565b6000610be5611781612a7a565b8484612b32565b6060611792612a7a565b6001600160a01b03166117a361149e565b6001600160a01b0316146117c95760405162461bcd60e51b8152600401610a2a90614523565b600d805480602002602001604051908101604052809291908181526020018280548015610ac0576020028201919060005260206000209081546001600160a01b03168152600190910190602001808311611686575050505050905090565b61182f612a7a565b6001600160a01b031661184061149e565b6001600160a01b0316146118665760405162461bcd60e51b8152600401610a2a90614523565b601d54601e5460095460405163e8eda9df60e01b81526001600160a01b039384169363e8eda9df936118a79390821692879290911690600090600401613d58565b600060405180830381600087803b1580156118c157600080fd5b505af11580156118d5573d6000803e3d6000fd5b505050507fe4b07db4e98b8c4d7db7898ec0ca1004b8d388810ececa888262a4e5886027a9816040516119089190614a72565b60405180910390a150565b6001600160a01b0381166000908152601360209081526040808320805482518185028101850190935280835260609442949093849390929091849084015b828210156119bd5760008481526020908190206040805160a0810182526005860290920180546001600160a01b0316835260018082015484860152600282015492840192909252600381015460608401526004015460ff16151560808301529083529092019101611951565b50505050905060005b8151811015611a6e5760006016548383815181106119f457634e487b7160e01b600052603260045260246000fd5b602002602001015160600151611a0a9190614a89565b9050828281518110611a2c57634e487b7160e01b600052603260045260246000fd5b602090810291909101015160800151158015611a485750848111155b15611a5b5783611a5781614b20565b9450505b5080611a6681614b20565b9150506119c6565b5081611ab0576040805160008082526020820190925290611aa5565b611a92613b2f565b815260200190600190039081611a8a5790505b509350505050610c59565b60008267ffffffffffffffff811115611ad957634e487b7160e01b600052604160045260246000fd5b604051908082528060200260200182016040528015611b1257816020015b611aff613b2f565b815260200190600190039081611af75790505b5090506000805b8251811015611d4f57838181518110611b4257634e487b7160e01b600052603260045260246000fd5b602090810291909101015160800151611d3d57838281518110611b7557634e487b7160e01b600052603260045260246000fd5b602002602001015160000151838381518110611ba157634e487b7160e01b600052603260045260246000fd5b60209081029190910101516001600160a01b0390911690528351849083908110611bdb57634e487b7160e01b600052603260045260246000fd5b602002602001015160200151838381518110611c0757634e487b7160e01b600052603260045260246000fd5b60200260200101516020018181525050838281518110611c3757634e487b7160e01b600052603260045260246000fd5b602002602001015160400151838381518110611c6357634e487b7160e01b600052603260045260246000fd5b60200260200101516040018181525050838281518110611c9357634e487b7160e01b600052603260045260246000fd5b602002602001015160600151838381518110611cbf57634e487b7160e01b600052603260045260246000fd5b60200260200101516060018181525050838281518110611cef57634e487b7160e01b600052603260045260246000fd5b602002602001015160800151838381518110611d1b57634e487b7160e01b600052603260045260246000fd5b602090810291909101015190151560809091015281611d3981614b20565b9250505b80611d4781614b20565b915050611b19565b508195505050505050610c59565b611d65612a7a565b6001600160a01b0316611d7661149e565b6001600160a01b031614611d9c5760405162461bcd60e51b8152600401610a2a90614523565b601655565b6060611dab612a7a565b6001600160a01b0316611dbc61149e565b6001600160a01b031614611de25760405162461bcd60e51b8152600401610a2a90614523565b6001600160a01b038216600090815260146020908152604080832080548251818502810185019093528083528493849084015b82821015611e815760008481526020908190206040805160a0810182526005860290920180546001600160a01b0316835260018082015484860152600282015492840192909252600381015460608401526004015460ff16151560808301529083529092019101611e15565b50505050905060005b8151811015611ee657818181518110611eb357634e487b7160e01b600052603260045260246000fd5b602090810291909101015160800151611ed45782611ed081614b20565b9350505b80611ede81614b20565b915050611e8a565b5081611f27576040805160008082526020820190925290611f1d565b611f0a613b2f565b815260200190600190039081611f025790505b5092505050610c59565b60008267ffffffffffffffff811115611f5057634e487b7160e01b600052604160045260246000fd5b604051908082528060200260200182016040528015611f8957816020015b611f76613b2f565b815260200190600190039081611f6e5790505b5090506000805b82518110156121c657838181518110611fb957634e487b7160e01b600052603260045260246000fd5b6020908102919091010151608001516121b457838281518110611fec57634e487b7160e01b600052603260045260246000fd5b60200260200101516000015183838151811061201857634e487b7160e01b600052603260045260246000fd5b60209081029190910101516001600160a01b039091169052835184908390811061205257634e487b7160e01b600052603260045260246000fd5b60200260200101516020015183838151811061207e57634e487b7160e01b600052603260045260246000fd5b602002602001015160200181815250508382815181106120ae57634e487b7160e01b600052603260045260246000fd5b6020026020010151604001518383815181106120da57634e487b7160e01b600052603260045260246000fd5b6020026020010151604001818152505083828151811061210a57634e487b7160e01b600052603260045260246000fd5b60200260200101516060015183838151811061213657634e487b7160e01b600052603260045260246000fd5b6020026020010151606001818152505083828151811061216657634e487b7160e01b600052603260045260246000fd5b60200260200101516080015183838151811061219257634e487b7160e01b600052603260045260246000fd5b6020908102919091010151901515608090910152816121b081614b20565b9250505b806121be81614b20565b915050611f90565b5081945050505050610c59565b6121db612a7a565b6001600160a01b03166121ec61149e565b6001600160a01b0316146122125760405162461bcd60e51b8152600401610a2a90614523565b6001600160a01b0381166122385760405162461bcd60e51b8152600401610a2a90614721565b601f80546001600160a01b0319166001600160a01b0392909216919091179055565b6000611237612267610ce5565b83612824565b612275612a7a565b6001600160a01b031661228661149e565b6001600160a01b0316146122ac5760405162461bcd60e51b8152600401610a2a90614523565b6001600160a01b0381166122d25760405162461bcd60e51b8152600401610a2a906148ad565b600a80546001600160a01b0319166001600160a01b0392909216919091179055565b6122fc612a7a565b6001600160a01b031661230d61149e565b6001600160a01b0316146123335760405162461bcd60e51b8152600401610a2a90614523565b601e54601d5460405163095ea7b360e01b81526001600160a01b039283169263095ea7b392611722929116908590600401613d1c565b612371612a7a565b6001600160a01b031661238261149e565b6001600160a01b0316146123a85760405162461bcd60e51b8152600401610a2a90614523565b6001600160a01b0381166123ce5760405162461bcd60e51b8152600401610a2a9061425d565b600b80546001600160a01b0319166001600160a01b0392909216919091179055565b601d546001600160a01b031681565b6001600160a01b03918216600090815260016020908152604080832093909416825291909152205490565b6000612434612a7a565b6001600160a01b031661244561149e565b6001600160a01b03161461246b5760405162461bcd60e51b8152600401610a2a90614523565b6001600160a01b03821660009081526012602052604090205460ff166124ef57600d805460018082019092557fd7b6990105719101dabeb77144f2a3385c8033acd3af97e9423a695e81ad1eb50180546001600160a01b0319166001600160a01b0385169081179091556000908152601260205260409020805460ff191690911790555b6000831161250f5760405162461bcd60e51b8152600401610a2a906145a9565b61251a601484614b3b565b156125375760405162461bcd60e51b8152600401610a2a90614169565b600061254284611224565b601e546040516370a0823160e01b81529192506000916001600160a01b03909116906370a0823190612578903390600401613cca565b60206040518083038186803b15801561259057600080fd5b505afa1580156125a4573d6000803e3d6000fd5b505050506040513d601f19601f820116820180604052508101906125c89190613c6f565b601e54600954604051636eb1769f60e11b81529293506000926001600160a01b039283169263dd62ed3e9261260592339290911690600401613cde565b60206040518083038186803b15801561261d57600080fd5b505afa158015612631573d6000803e3d6000fd5b505050506040513d601f19601f820116820180604052508101906126559190613c6f565b9050818311156126775760405162461bcd60e51b8152600401610a2a90614499565b808311156126975760405162461bcd60e51b8152600401610a2a90614200565b624c4b408310156126ba5760405162461bcd60e51b8152600401610a2a9061485a565b601e546009546040516323b872dd60e01b81526001600160a01b03928316926323b872dd926126f3923392909116908890600401613cf8565b602060405180830381600087803b15801561270d57600080fd5b505af1158015612721573d6000803e3d6000fd5b505050506040513d601f19601f820116820180604052508101906127459190613c37565b5061274f83612333565b61275883611866565b60095461276e906001600160a01b031687613664565b7f540b5e46f5323b77eef3b40f9b1bdf436e1b79c3984d271ad7a9b1019c295a8f3387856040516127a193929190613d85565b60405180910390a16001600160a01b0385166000908152600f6020526040812080548892906127d1908490614a89565b90915550929695505050505050565b6127e8612a7a565b6001600160a01b03166127f961149e565b6001600160a01b03161461281f5760405162461bcd60e51b8152600401610a2a90614523565b601755565b600080831180156128355750600082115b80156128415750818310155b61285d5760405162461bcd60e51b8152600401610a2a9061477e565b60006128698385614ad4565b905060006128778580614ab5565b905060006128858380614ab5565b905060006128938284614ad4565b90506000600654826128a59190614ab5565b905060006128b6620c350083614aa1565b905061271060006128c78284614b3b565b905060006128d58285614ad4565b9c9b505050505050505050505050565b60008082116129065760405162461bcd60e51b8152600401610a2a90614122565b60006129128480614ab5565b905060006129208486614a89565b9050600061292e8280614ab5565b9050600061293c8483614ad4565b905060006006548261294e9190614ab5565b90506000600754826128b69190614aa1565b612968612a7a565b6001600160a01b031661297961149e565b6001600160a01b03161461299f5760405162461bcd60e51b8152600401610a2a90614523565b6001600160a01b0381166129c55760405162461bcd60e51b8152600401610a2a90614055565b6005546040516001600160a01b038084169216907f8be0079c531659141344cd1fd0a4f28419497f9722a3daafe3b4186f6b6457e090600090a3600580546001600160a01b0319166001600160a01b0392909216919091179055565b6000612a2b612a7a565b6001600160a01b0316612a3c61149e565b6001600160a01b031614612a625760405162461bcd60e51b8152600401610a2a90614523565b612a75612a6d610ce5565b610991610ce5565b905090565b3390565b6001600160a01b038316612aa45760405162461bcd60e51b8152600401610a2a90614680565b6001600160a01b038216612aca5760405162461bcd60e51b8152600401610a2a9061409b565b6001600160a01b0380841660008181526001602090815260408083209487168084529490915290819020849055517f8c5be1e5ebec7d5bd14f71427d1e84f3dd0314c0f7b2291e5b200ac8c7c3b92590612b25908590614a72565b60405180910390a3505050565b6001600160a01b038316612b585760405162461bcd60e51b8152600401610a2a9061463b565b6001600160a01b038216612b7e5760405162461bcd60e51b8152600401610a2a90613eca565b612b89838383613724565b6001600160a01b03831660009081526020819052604090205481811015612bc25760405162461bcd60e51b8152600401610a2a906141ba565b612bcc8282614ad4565b6001600160a01b038086166000908152602081905260408082209390935590851681529081208054849290612c02908490614a89565b92505081905550826001600160a01b0316846001600160a01b03167fddf252ad1be2c89b69c2b068fc378daa952ba7f163c4a11628f55a4df523b3ef84604051612c4c9190614a72565b60405180910390a350505050565b612c62611214565b612c7e5760405162461bcd60e51b8152600401610a2a90613f6a565b6005805460ff60a01b191690557f5db9ee0a495bf2e6ff9c91a7834c1ba4fdd244a5e8aa4e537bd38aeae4b073aa612cb4612a7a565b604051612cc19190613cca565b60405180910390a1565b6000612cd5611214565b15612cf25760405162461bcd60e51b8152600401610a2a90614376565b60026008541415612d155760405162461bcd60e51b8152600401610a2a90614823565b6002600855612d25601483614b3b565b15612d425760405162461bcd60e51b8152600401610a2a906146c4565b6000612d4d83611224565b90506000612d5a33613729565b90506000606480612d6b8486614ab5565b612d759190614aa1565b612d7f9190614aa1565b90506000612d8f61271083614b3b565b90506000612d9d8284614ad4565b90506000612dab8287614a89565b601e546040516370a0823160e01b81529192506000916001600160a01b03909116906370a0823190612de1903390600401613cca565b60206040518083038186803b158015612df957600080fd5b505afa158015612e0d573d6000803e3d6000fd5b505050506040513d601f19601f82011682018060405250810190612e319190613c6f565b601e54600954604051636eb1769f60e11b81529293506000926001600160a01b039283169263dd62ed3e92612e6e92339290911690600401613cde565b60206040518083038186803b158015612e8657600080fd5b505afa158015612e9a573d6000803e3d6000fd5b505050506040513d601f19601f82011682018060405250810190612ebe9190613c6f565b905081831115612ee05760405162461bcd60e51b8152600401610a2a90614450565b80831115612f005760405162461bcd60e51b8152600401610a2a90614948565b624c4b40881015612f235760405162461bcd60e51b8152600401610a2a90613f0d565b601e54600a546040516323b872dd60e01b81526001600160a01b03928316926323b872dd92612f5c923392909116908990600401613cf8565b602060405180830381600087803b158015612f7657600080fd5b505af1158015612f8a573d6000803e3d6000fd5b505050506040513d601f19601f82011682018060405250810190612fae9190613c37565b50601e546009546040516323b872dd60e01b81526001600160a01b03928316926323b872dd92612fe8923392909116908d90600401613cf8565b602060405180830381600087803b15801561300257600080fd5b505af1158015613016573d6000803e3d6000fd5b505050506040513d601f19601f8201168201806040525081019061303a9190613c37565b5061304488612333565b61304d88611866565b600954613063906001600160a01b03168b613664565b7f540b5e46f5323b77eef3b40f9b1bdf436e1b79c3984d271ad7a9b1019c295a8f338b8a60405161309693929190613d85565b60405180910390a1336000908152600e6020526040812080548c92906130bd908490614a89565b90915550600090506130d060148c614aa1565b905060005b818110156130fa576130e83360146137e2565b806130f281614b20565b9150506130d5565b50506001600855509598975050505050505050565b6001600160a01b0382166131355760405162461bcd60e51b8152600401610a2a906145fa565b61314182600083613724565b6001600160a01b0382166000908152602081905260409020548181101561317a5760405162461bcd60e51b8152600401610a2a90613f98565b6131848282614ad4565b6001600160a01b038416600090815260208190526040812091909155600280548492906131b2908490614ad4565b90915550506040516000906001600160a01b038516907fddf252ad1be2c89b69c2b068fc378daa952ba7f163c4a11628f55a4df523b3ef90612b25908690614a72565b6131fd611214565b1561321a5760405162461bcd60e51b8152600401610a2a90614376565b601d54601e54600954604051631a4ca37b60e21b81526001600160a01b03938416936369328dec936132589390821692879290911690600401613d35565b602060405180830381600087803b15801561327257600080fd5b505af1158015613286573d6000803e3d6000fd5b505050506040513d601f19601f820116820180604052508101906132aa9190613c6f565b507fcf262399c7d7a6ef0283fba5e04858a528d91a896dc7bc72fa3e55fbfee77deb816040516119089190614a72565b6132e2611214565b156132ff5760405162461bcd60e51b8152600401610a2a90614376565b6005805460ff60a01b1916600160a01b1790557f62e78cea01bee320cd4e420270b5ea74000d11b0c9f74754ebdbfc544b05a258612cb4612a7a565b6000613345611214565b156133625760405162461bcd60e51b8152600401610a2a90614376565b600260085414156133855760405162461bcd60e51b8152600401610a2a90614823565b6002600855613395601483614b3b565b156133b25760405162461bcd60e51b8152600401610a2a906146c4565b60006133bd33610fb2565b9050600083116133df5760405162461bcd60e51b8152600401610a2a90614a2c565b828110156133ff5760405162461bcd60e51b8152600401610a2a90614318565b600061340a8461225a565b9050624c4b4081101561342f5760405162461bcd60e51b8152600401610a2a906142bb565b600061343a33613729565b9050600060648061344b8486614ab5565b6134559190614aa1565b61345f9190614aa1565b9050600061346f61271083614b3b565b9050600061347d8284614ad4565b9050600061348b8287614ad4565b9050600061349a60148b614aa1565b905060005b818110156134c4576134b233601461395a565b806134bc81614b20565b91505061349f565b50336000908152600e6020526040812080548c92906134e4908490614ad4565b90915550506009546134ff906001600160a01b03168b61310f565b7fdbba09fffb965fc22fc44dbcfae24c5fa3c095c5e59ad4934a8d71c2980eeda7338b8960405161353293929190613d85565b60405180910390a1613543876131f5565b601e54600a5460405163a9059cbb60e01b81526001600160a01b039283169263a9059cbb92613579929116908790600401613d1c565b602060405180830381600087803b15801561359357600080fd5b505af11580156135a7573d6000803e3d6000fd5b505050506040513d601f19601f820116820180604052508101906135cb9190613c37565b50601e5460405163a9059cbb60e01b81526001600160a01b039091169063a9059cbb906135fe9033908690600401613d1c565b602060405180830381600087803b15801561361857600080fd5b505af115801561362c573d6000803e3d6000fd5b505050506040513d601f19601f820116820180604052508101906136509190613c37565b505060016008555093979650505050505050565b6001600160a01b03821661368a5760405162461bcd60e51b8152600401610a2a906149f5565b61369660008383613724565b80600260008282546136a89190614a89565b90915550506001600160a01b038216600090815260208190526040812080548392906136d5908490614a89565b90915550506040516001600160a01b038316906000907fddf252ad1be2c89b69c2b068fc378daa952ba7f163c4a11628f55a4df523b3ef90613718908590614a72565b60405180910390a35050565b505050565b60008061373583610fb2565b9050601481101561374a575050601754610c59565b6014811015801561375b5750602881105b1561376a575050601854610c59565b6028811015801561377b5750603c81105b1561378a575050601954610c59565b603c811015801561379b5750605081105b156137aa575050601a54610c59565b605081101580156137bb5750606481105b156137ca575050601b54610c59565b606481106137dc575050601c54610c59565b50919050565b60006137ed83613b14565b90508082111561380f5760405162461bcd60e51b8152600401610a2a90614905565b6001600160a01b03831660009081526011602052604090205460ff1661389357600c805460018082019092557fdf6966c971051c3d54ec59162606531493a51404a002842f56009d7e5cf4a8c70180546001600160a01b0319166001600160a01b0386169081179091556000908152601160205260409020805460ff191690911790555b6001600160a01b0383811660008181526013602081815260408084208054825160a0810184528781528085018281528185018c81524260608401908152608084018a815298885260018086018755958a52878a2084516005870290910180546001600160a01b03191691909d16178c559151948b0194909455925160028a01559151600389015593516004909701805460ff19169715159790971790965593835260109052918120805492939286929061394e908490614a89565b90915550505050505050565b600061396583610fb2565b9050808211156139875760405162461bcd60e51b8152600401610a2a906140dd565b600061399284611913565b905060008151116139b55760405162461bcd60e51b8152600401610a2a90613fda565b6000600182516139c59190614ad4565b905060008282815181106139e957634e487b7160e01b600052603260045260246000fd5b602002602001015160200151905060005b6001600160a01b038716600090815260136020526040902054811015613ade576001600160a01b0387166000908152601360205260409020805483919083908110613a5557634e487b7160e01b600052603260045260246000fd5b9060005260206000209060050201600101541415613acc576001600160a01b038716600090815260136020526040902080546001919083908110613aa957634e487b7160e01b600052603260045260246000fd5b60009182526020909120600590910201600401805460ff19169115159190911790555b80613ad681614b20565b9150506139fa565b506001600160a01b03861660009081526010602052604081208054879290613b07908490614ad4565b9091555050505050505050565b6001600160a01b03166000908152600e602052604090205490565b6040518060a0016040528060006001600160a01b031681526020016000815260200160008152602001600081526020016000151581525090565b80356001600160a01b0381168114610c5957600080fd5b600060208284031215613b91578081fd5b613b9a82613b69565b9392505050565b60008060408385031215613bb3578081fd5b613bbc83613b69565b9150613bca60208401613b69565b90509250929050565b600080600060608486031215613be7578081fd5b613bf084613b69565b9250613bfe60208501613b69565b9150604084013590509250925092565b60008060408385031215613c20578182fd5b613c2983613b69565b946020939093013593505050565b600060208284031215613c48578081fd5b81518015158114613b9a578182fd5b600060208284031215613c68578081fd5b5035919050565b600060208284031215613c80578081fd5b5051919050565b60008060408385031215613c99578182fd5b82359150613bca60208401613b69565b60008060408385031215613cbb578182fd5b50508035926020909101359150565b6001600160a01b0391909116815260200190565b6001600160a01b0392831681529116602082015260400190565b6001600160a01b039384168152919092166020820152604081019190915260600190565b6001600160a01b03929092168252602082015260400190565b6001600160a01b0393841681526020810192909252909116604082015260600190565b6001600160a01b03948516815260208101939093529216604082015261ffff909116606082015260800190565b6001600160a01b039390931683526020830191909152604082015260600190565b6020808252825182820181905260009190848201906040850190845b81811015613de75783516001600160a01b031683529284019291840191600101613dc2565b50909695505050505050565b602080825282518282018190526000919060409081850190868401855b82811015613e5f57815180516001600160a01b03168552868101518786015285810151868601526060808201519086015260809081015115159085015260a09093019290850190600101613e10565b5091979650505050505050565b901515815260200190565b6000602080835283518082850152825b81811015613ea357858101830151858201604001528201613e87565b81811115613eb45783604083870101525b50601f01601f1916929092016040019392505050565b60208082526023908201527f45524332303a207472616e7366657220746f20746865207a65726f206164647260408201526265737360e81b606082015260800190565b6020808252603a908201527f424e4a2c20737065636966696564416d6f756e744d696e743a204d696e696d7560408201527f6d206d696e74696e672076616c7565206f662024352055534443000000000000606082015260800190565b60208082526014908201527314185d5cd8589b194e881b9bdd081c185d5cd95960621b604082015260600190565b60208082526022908201527f45524332303a206275726e20616d6f756e7420657863656564732062616c616e604082015261636560f01b606082015260800190565b60208082526055908201527f424e4a2c20756e7374616b65546f6b656e733a204e6f206275726e61626c652060408201527f7374616b696e6720706f736974696f6e7320666f756e642e20436f6e7369646560608201527439103a34b6b29039b4b731b29039ba30b5b4b7339760591b608082015260a00190565b60208082526026908201527f4f776e61626c653a206e6577206f776e657220697320746865207a65726f206160408201526564647265737360d01b606082015260800190565b60208082526022908201527f45524332303a20617070726f766520746f20746865207a65726f206164647265604082015261737360f01b606082015260800190565b60208082526025908201527f424e4a2c20756e7374616b65546f6b656e733a204e6f7420656e6f75676820746040820152646f6b656e7360d81b606082015260800190565b60208082526027908201527f424e4a4943757276653a204d757374206d696e74206d6f7265207468616e203060408201526620746f6b656e7360c81b606082015260800190565b60208082526031908201527f424e4a2c20696e7465726e616c4d696e743a20416d6f756e74206d757374206260408201527006520646976697369626c6520627920323607c1b606082015260800190565b60208082526026908201527f45524332303a207472616e7366657220616d6f756e7420657863656564732062604082015265616c616e636560d01b606082015260800190565b6020808252603b908201527f424e4a2c20696e7465726e616c4d696e743a204e6f7420656e6f75676820616c60408201527f6c6f77616e636520696e205553444320666f72207061796d656e740000000000606082015260800190565b602080825260409082018190527f757064617465416363756d756c6174656452656365697665723a206e65774164908201527f64726573732063616e6e6f7420626520746865207a65726f2061646472657373606082015260800190565b6020808252603a908201527f424e4a2c20737065636966696564416d6f756e744275726e3a204d696e696d7560408201527f6d206275726e696e672076616c75652069732024352055534443000000000000606082015260800190565b602080825260409082018190527f557365727320746f6b656e42616c616e6365206d75737420626520657175616c908201527f20746f206f72206d6f7265207468616e20616d6f756e7420746f206275726e2e606082015260800190565b60208082526010908201526f14185d5cd8589b194e881c185d5cd95960821b604082015260600190565b6020808252603f908201527f757064617465506f6c79676f6e4c656e64696e67506f6f6c3a206e657741646460408201527f726573732063616e6e6f7420626520746865207a65726f206164647265737300606082015260800190565b60208082526033908201527f424e4a2c20696e7465726e616c4275726e3a204d696e696d756d206275726e696040820152726e672076616c7565206973202435205553444360681b606082015260800190565b60208082526029908201527f424e4a2c20737065636966696564416d6f756e744d696e743a204e6f7420656e6040820152686f756768205553444360b81b606082015260800190565b60208082526022908201527f424e4a2c20696e7465726e616c4d696e743a204e6f7420656e6f756768205553604082015261444360f01b606082015260800190565b60208082526028908201527f45524332303a207472616e7366657220616d6f756e74206578636565647320616040820152676c6c6f77616e636560c01b606082015260800190565b6020808252818101527f4f776e61626c653a2063616c6c6572206973206e6f7420746865206f776e6572604082015260600190565b60208082526031908201527f424e4a2c20696e7465726e616c4275726e3a20416d6f756e74206d757374206260408201527006520646976697369626c6520627920323607c1b606082015260800190565b60208082526031908201527f424e4a2c20696e7465726e616c4d696e743a20416d6f756e74206d7573742062604082015270329036b7b932903a3430b7103d32b9379760791b606082015260800190565b60208082526021908201527f45524332303a206275726e2066726f6d20746865207a65726f206164647265736040820152607360f81b606082015260800190565b60208082526025908201527f45524332303a207472616e736665722066726f6d20746865207a65726f206164604082015264647265737360d81b606082015260800190565b60208082526024908201527f45524332303a20617070726f76652066726f6d20746865207a65726f206164646040820152637265737360e01b606082015260800190565b60208082526038908201527f424e4a2c20737065636966696564416d6f756e744d696e743a20416d6f756e7460408201527f206d75737420626520646976697369626c652062792032300000000000000000606082015260800190565b6020808252603a908201527f757064617465506f6c79676f6e414d555344433a206e6577416464726573732060408201527f63616e6e6f7420626520746865207a65726f2061646472657373000000000000606082015260800190565b6020808252602d908201527f424e4a4943757276653a2053656e64696e672061726773206d7573742062652060408201526c06c6172676572207468616e203609c1b606082015260800190565b60208082526038908201527f757064617465506f6c79676f6e555344433a206e6577416464726573732063616040820152776e6e6f7420626520746865207a65726f206164647265737360401b606082015260800190565b6020808252601f908201527f5265656e7472616e637947756172643a207265656e7472616e742063616c6c00604082015260600190565b60208082526033908201527f424e4a2c20696e7465726e616c4d696e743a204d696e696d756d206d696e74696040820152726e672076616c7565206f66202435205553444360681b606082015260800190565b60208082526038908201527f75706461746546656552656365697665723a206e6577416464726573732063616040820152776e6e6f7420626520746865207a65726f206164647265737360401b606082015260800190565b60208082526023908201527f424e4a2c207374616b65546f6b656e733a204e6f7420656e6f75676820746f6b604082015262656e7360e81b606082015260800190565b60208082526042908201527f424e4a2c20737065636966696564416d6f756e744d696e743a204e6f7420656e60408201527f6f75676820616c6c6f77616e636520696e205553444320666f72207061796d656060820152611b9d60f21b608082015260a00190565b60208082526025908201527f45524332303a2064656372656173656420616c6c6f77616e63652062656c6f77604082015264207a65726f60d81b606082015260800190565b6020808252601f908201527f45524332303a206d696e7420746f20746865207a65726f206164647265737300604082015260600190565b60208082526026908201527f416d6f756e7420746f206275726e206d757374206265206d6f7265207468616e604082015265103d32b9379760d11b606082015260800190565b90815260200190565b60ff91909116815260200190565b60008219821115614a9c57614a9c614b4f565b500190565b600082614ab057614ab0614b65565b500490565b6000816000190483118215151615614acf57614acf614b4f565b500290565b600082821015614ae657614ae6614b4f565b500390565b600281046001821680614aff57607f821691505b602082108114156137dc57634e487b7160e01b600052602260045260246000fd5b6000600019821415614b3457614b34614b4f565b5060010190565b600082614b4a57614b4a614b65565b500690565b634e487b7160e01b600052601160045260246000fd5b634e487b7160e01b600052601260045260246000fdfea2646970667358221220d03f8701bd9b82b8beb6a629f03253c15be1f702aaf434aa16ce1f952fb8433d64736f6c63430008000033",
  "linkReferences": {},
  "deployedLinkReferences": {}
}