{
  "_format": "hh-sol-artifact-1",
  "contractName": "Benjamins",
  "sourceName": "contracts/Benjamins.sol",
  "abi": [
    {
      "inputs": [],
      "stateMutability": "nonpayable",
      "type": "constructor"
    },
    {
      "anonymous": false,
      "inputs": [
        {
          "indexed": true,
          "internalType": "address",
          "name": "owner",
          "type": "address"
        },
        {
          "indexed": true,
          "internalType": "address",
          "name": "spender",
          "type": "address"
        },
        {
          "indexed": false,
          "internalType": "uint256",
          "name": "value",
          "type": "uint256"
        }
      ],
      "name": "Approval",
      "type": "event"
    },
    {
      "anonymous": false,
      "inputs": [
        {
          "indexed": false,
          "internalType": "uint256",
          "name": "amount",
          "type": "uint256"
        }
      ],
      "name": "LendingPoolDeposit",
      "type": "event"
    },
    {
      "anonymous": false,
      "inputs": [
        {
          "indexed": false,
          "internalType": "uint256",
          "name": "amount",
          "type": "uint256"
        }
      ],
      "name": "LendingPoolWithdrawal",
      "type": "event"
    },
    {
      "anonymous": false,
      "inputs": [
        {
          "indexed": true,
          "internalType": "address",
          "name": "previousOwner",
          "type": "address"
        },
        {
          "indexed": true,
          "internalType": "address",
          "name": "newOwner",
          "type": "address"
        }
      ],
      "name": "OwnershipTransferred",
      "type": "event"
    },
    {
      "anonymous": false,
      "inputs": [
        {
          "indexed": false,
          "internalType": "address",
          "name": "account",
          "type": "address"
        }
      ],
      "name": "Paused",
      "type": "event"
    },
    {
      "anonymous": false,
      "inputs": [
        {
          "indexed": false,
          "internalType": "address",
          "name": "sender",
          "type": "address"
        },
        {
          "indexed": false,
          "internalType": "uint256",
          "name": "tokenAmount",
          "type": "uint256"
        },
        {
          "indexed": false,
          "internalType": "uint256",
          "name": "returnForBurning",
          "type": "uint256"
        }
      ],
      "name": "SpecifiedBurnEvent",
      "type": "event"
    },
    {
      "anonymous": false,
      "inputs": [
        {
          "indexed": false,
          "internalType": "address",
          "name": "sender",
          "type": "address"
        },
        {
          "indexed": false,
          "internalType": "uint256",
          "name": "tokenAmount",
          "type": "uint256"
        },
        {
          "indexed": false,
          "internalType": "uint256",
          "name": "priceForMintingIn6dec",
          "type": "uint256"
        }
      ],
      "name": "SpecifiedMintEvent",
      "type": "event"
    },
    {
      "anonymous": false,
      "inputs": [
        {
          "indexed": true,
          "internalType": "address",
          "name": "from",
          "type": "address"
        },
        {
          "indexed": true,
          "internalType": "address",
          "name": "to",
          "type": "address"
        },
        {
          "indexed": false,
          "internalType": "uint256",
          "name": "value",
          "type": "uint256"
        }
      ],
      "name": "Transfer",
      "type": "event"
    },
    {
      "anonymous": false,
      "inputs": [
        {
          "indexed": false,
          "internalType": "address",
          "name": "account",
          "type": "address"
        }
      ],
      "name": "Unpaused",
      "type": "event"
    },
    {
      "inputs": [],
      "name": "addressOfThisContract",
      "outputs": [
        {
          "internalType": "address",
          "name": "",
          "type": "address"
        }
      ],
      "stateMutability": "view",
      "type": "function"
    },
    {
      "inputs": [
        {
          "internalType": "address",
          "name": "owner",
          "type": "address"
        },
        {
          "internalType": "address",
          "name": "spender",
          "type": "address"
        }
      ],
      "name": "allowance",
      "outputs": [
        {
          "internalType": "uint256",
          "name": "",
          "type": "uint256"
        }
      ],
      "stateMutability": "view",
      "type": "function"
    },
    {
      "inputs": [
        {
          "internalType": "address",
          "name": "spender",
          "type": "address"
        },
        {
          "internalType": "uint256",
          "name": "amount",
          "type": "uint256"
        }
      ],
      "name": "approve",
      "outputs": [
        {
          "internalType": "bool",
          "name": "",
          "type": "bool"
        }
      ],
      "stateMutability": "nonpayable",
      "type": "function"
    },
    {
      "inputs": [
        {
          "internalType": "address",
          "name": "account",
          "type": "address"
        }
      ],
      "name": "balanceOf",
      "outputs": [
        {
          "internalType": "uint256",
          "name": "",
          "type": "uint256"
        }
      ],
      "stateMutability": "view",
      "type": "function"
    },
    {
      "inputs": [
        {
          "internalType": "uint256",
          "name": "amountOfLevels",
          "type": "uint256"
        }
      ],
      "name": "buyLevels",
      "outputs": [],
      "stateMutability": "nonpayable",
      "type": "function"
    },
    {
      "inputs": [],
      "name": "calcAccumulated",
      "outputs": [
        {
          "internalType": "uint256",
          "name": "accumulatedAmount",
          "type": "uint256"
        }
      ],
      "stateMutability": "view",
      "type": "function"
    },
    {
      "inputs": [],
      "name": "calcAllTokensValue",
      "outputs": [
        {
          "internalType": "uint256",
          "name": "allTokensReturn",
          "type": "uint256"
        }
      ],
      "stateMutability": "view",
      "type": "function"
    },
    {
      "inputs": [
        {
          "internalType": "uint256",
          "name": "supply",
          "type": "uint256"
        },
        {
          "internalType": "uint256",
          "name": "tokensToMint",
          "type": "uint256"
        }
      ],
      "name": "calcPriceForTokenMint",
      "outputs": [
        {
          "internalType": "uint256",
          "name": "",
          "type": "uint256"
        }
      ],
      "stateMutability": "view",
      "type": "function"
    },
    {
      "inputs": [
        {
          "internalType": "uint256",
          "name": "supply",
          "type": "uint256"
        },
        {
          "internalType": "uint256",
          "name": "tokensToBurn",
          "type": "uint256"
        }
      ],
      "name": "calcReturnForTokenBurn",
      "outputs": [
        {
          "internalType": "uint256",
          "name": "",
          "type": "uint256"
        }
      ],
      "stateMutability": "view",
      "type": "function"
    },
    {
      "inputs": [
        {
          "internalType": "uint256",
          "name": "amount",
          "type": "uint256"
        }
      ],
      "name": "calcSpecBurnReturn",
      "outputs": [
        {
          "internalType": "uint256",
          "name": "burnReturn",
          "type": "uint256"
        }
      ],
      "stateMutability": "view",
      "type": "function"
    },
    {
      "inputs": [
        {
          "internalType": "uint256",
          "name": "amount",
          "type": "uint256"
        }
      ],
      "name": "calcSpecMintReturn",
      "outputs": [
        {
          "internalType": "uint256",
          "name": "mintPrice",
          "type": "uint256"
        }
      ],
      "stateMutability": "view",
      "type": "function"
    },
    {
      "inputs": [
        {
          "internalType": "address",
          "name": "userToCheck",
          "type": "address"
        }
      ],
      "name": "checkStakedBenjamins",
      "outputs": [
        {
          "internalType": "uint256",
          "name": "usersStakedBNJIs",
          "type": "uint256"
        }
      ],
      "stateMutability": "view",
      "type": "function"
    },
    {
      "inputs": [],
      "name": "decimals",
      "outputs": [
        {
          "internalType": "uint8",
          "name": "",
          "type": "uint8"
        }
      ],
      "stateMutability": "view",
      "type": "function"
    },
    {
      "inputs": [
        {
          "internalType": "address",
          "name": "spender",
          "type": "address"
        },
        {
          "internalType": "uint256",
          "name": "subtractedValue",
          "type": "uint256"
        }
      ],
      "name": "decreaseAllowance",
      "outputs": [
        {
          "internalType": "bool",
          "name": "",
          "type": "bool"
        }
      ],
      "stateMutability": "nonpayable",
      "type": "function"
    },
    {
      "inputs": [
        {
          "internalType": "uint256",
          "name": "amount",
          "type": "uint256"
        }
      ],
      "name": "depositUSDCBuffer",
      "outputs": [],
      "stateMutability": "nonpayable",
      "type": "function"
    },
    {
      "inputs": [
        {
          "internalType": "address",
          "name": "userToCheck",
          "type": "address"
        }
      ],
      "name": "getUsersActiveAndBurnableStakes",
      "outputs": [
        {
          "components": [
            {
              "internalType": "address",
              "name": "stakingAddress",
              "type": "address"
            },
            {
              "internalType": "uint256",
              "name": "stakeID",
              "type": "uint256"
            },
            {
              "internalType": "uint256",
              "name": "tokenAmount",
              "type": "uint256"
            },
            {
              "internalType": "uint256",
              "name": "stakeCreatedTimestamp",
              "type": "uint256"
            },
            {
              "internalType": "bool",
              "name": "unstaked",
              "type": "bool"
            }
          ],
          "internalType": "struct Benjamins.Stake[]",
          "name": "stakeArray",
          "type": "tuple[]"
        }
      ],
      "stateMutability": "view",
      "type": "function"
    },
    {
      "inputs": [
        {
          "internalType": "address",
          "name": "spender",
          "type": "address"
        },
        {
          "internalType": "uint256",
          "name": "addedValue",
          "type": "uint256"
        }
      ],
      "name": "increaseAllowance",
      "outputs": [
        {
          "internalType": "bool",
          "name": "",
          "type": "bool"
        }
      ],
      "stateMutability": "nonpayable",
      "type": "function"
    },
    {
      "inputs": [
        {
          "internalType": "uint256",
          "name": "amount",
          "type": "uint256"
        }
      ],
      "name": "internalBurn",
      "outputs": [
        {
          "internalType": "uint256",
          "name": "",
          "type": "uint256"
        }
      ],
      "stateMutability": "nonpayable",
      "type": "function"
    },
    {
      "inputs": [
        {
          "internalType": "uint256",
          "name": "amount",
          "type": "uint256"
        },
        {
          "internalType": "address",
          "name": "holderOfInternalMint",
          "type": "address"
        }
      ],
      "name": "internalMint",
      "outputs": [
        {
          "internalType": "uint256",
          "name": "",
          "type": "uint256"
        }
      ],
      "stateMutability": "nonpayable",
      "type": "function"
    },
    {
      "inputs": [],
      "name": "name",
      "outputs": [
        {
          "internalType": "string",
          "name": "",
          "type": "string"
        }
      ],
      "stateMutability": "view",
      "type": "function"
    },
    {
      "inputs": [],
      "name": "owner",
      "outputs": [
        {
          "internalType": "address",
          "name": "",
          "type": "address"
        }
      ],
      "stateMutability": "view",
      "type": "function"
    },
    {
      "inputs": [],
      "name": "pause",
      "outputs": [],
      "stateMutability": "nonpayable",
      "type": "function"
    },
    {
      "inputs": [],
      "name": "paused",
      "outputs": [
        {
          "internalType": "bool",
          "name": "",
          "type": "bool"
        }
      ],
      "stateMutability": "view",
      "type": "function"
    },
    {
      "inputs": [],
      "name": "polygonAMUSDC",
      "outputs": [
        {
          "internalType": "contract IERC20",
          "name": "",
          "type": "address"
        }
      ],
      "stateMutability": "view",
      "type": "function"
    },
    {
      "inputs": [],
      "name": "polygonLendingPool",
      "outputs": [
        {
          "internalType": "contract ILendingPool",
          "name": "",
          "type": "address"
        }
      ],
      "stateMutability": "view",
      "type": "function"
    },
    {
      "inputs": [],
      "name": "polygonUSDC",
      "outputs": [
        {
          "internalType": "contract IERC20",
          "name": "",
          "type": "address"
        }
      ],
      "stateMutability": "view",
      "type": "function"
    },
    {
      "inputs": [],
      "name": "renounceOwnership",
      "outputs": [],
      "stateMutability": "nonpayable",
      "type": "function"
    },
    {
      "inputs": [
        {
          "internalType": "uint256",
          "name": "amountOfLevels",
          "type": "uint256"
        }
      ],
      "name": "sellLevels",
      "outputs": [],
      "stateMutability": "nonpayable",
      "type": "function"
    },
    {
      "inputs": [
        {
          "internalType": "address",
          "name": "userToCheck",
          "type": "address"
        }
      ],
      "name": "showAllUsersStakes",
      "outputs": [
        {
          "components": [
            {
              "internalType": "address",
              "name": "stakingAddress",
              "type": "address"
            },
            {
              "internalType": "uint256",
              "name": "stakeID",
              "type": "uint256"
            },
            {
              "internalType": "uint256",
              "name": "tokenAmount",
              "type": "uint256"
            },
            {
              "internalType": "uint256",
              "name": "stakeCreatedTimestamp",
              "type": "uint256"
            },
            {
              "internalType": "bool",
              "name": "unstaked",
              "type": "bool"
            }
          ],
          "internalType": "struct Benjamins.Stake[]",
          "name": "stakeArray",
          "type": "tuple[]"
        }
      ],
      "stateMutability": "view",
      "type": "function"
    },
    {
      "inputs": [],
      "name": "showInternalAddresses",
      "outputs": [
        {
          "internalType": "address[]",
          "name": "",
          "type": "address[]"
        }
      ],
      "stateMutability": "view",
      "type": "function"
    },
    {
      "inputs": [
        {
          "internalType": "address",
          "name": "userToCheck",
          "type": "address"
        }
      ],
      "name": "showInternalBenjamins",
      "outputs": [
        {
          "internalType": "uint256",
          "name": "",
          "type": "uint256"
        }
      ],
      "stateMutability": "view",
      "type": "function"
    },
    {
      "inputs": [],
      "name": "showStakersAddresses",
      "outputs": [
        {
          "internalType": "address[]",
          "name": "",
          "type": "address[]"
        }
      ],
      "stateMutability": "view",
      "type": "function"
    },
    {
      "inputs": [],
      "name": "symbol",
      "outputs": [
        {
          "internalType": "string",
          "name": "",
          "type": "string"
        }
      ],
      "stateMutability": "view",
      "type": "function"
    },
    {
      "inputs": [],
      "name": "totalSupply",
      "outputs": [
        {
          "internalType": "uint256",
          "name": "",
          "type": "uint256"
        }
      ],
      "stateMutability": "view",
      "type": "function"
    },
    {
      "inputs": [
        {
          "internalType": "address",
          "name": "recipient",
          "type": "address"
        },
        {
          "internalType": "uint256",
          "name": "amount",
          "type": "uint256"
        }
      ],
      "name": "transfer",
      "outputs": [
        {
          "internalType": "bool",
          "name": "",
          "type": "bool"
        }
      ],
      "stateMutability": "nonpayable",
      "type": "function"
    },
    {
      "inputs": [
        {
          "internalType": "address",
          "name": "sender",
          "type": "address"
        },
        {
          "internalType": "address",
          "name": "recipient",
          "type": "address"
        },
        {
          "internalType": "uint256",
          "name": "amount",
          "type": "uint256"
        }
      ],
      "name": "transferFrom",
      "outputs": [
        {
          "internalType": "bool",
          "name": "",
          "type": "bool"
        }
      ],
      "stateMutability": "nonpayable",
      "type": "function"
    },
    {
      "inputs": [
        {
          "internalType": "address",
          "name": "newOwner",
          "type": "address"
        }
      ],
      "name": "transferOwnership",
      "outputs": [],
      "stateMutability": "nonpayable",
      "type": "function"
    },
    {
      "inputs": [],
      "name": "unpause",
      "outputs": [],
      "stateMutability": "nonpayable",
      "type": "function"
    },
    {
      "inputs": [
        {
          "internalType": "address",
          "name": "newAddress",
          "type": "address"
        }
      ],
      "name": "updateAccumulatedReceiver",
      "outputs": [],
      "stateMutability": "nonpayable",
      "type": "function"
    },
    {
      "inputs": [
        {
          "internalType": "uint256",
          "name": "amountToApprove",
          "type": "uint256"
        }
      ],
      "name": "updateApproveLendingPool",
      "outputs": [],
      "stateMutability": "nonpayable",
      "type": "function"
    },
    {
      "inputs": [
        {
          "internalType": "uint256",
          "name": "newCurveFactor",
          "type": "uint256"
        }
      ],
      "name": "updateCurveFactor",
      "outputs": [],
      "stateMutability": "nonpayable",
      "type": "function"
    },
    {
      "inputs": [
        {
          "internalType": "address",
          "name": "newAddress",
          "type": "address"
        }
      ],
      "name": "updateFeeReceiver",
      "outputs": [],
      "stateMutability": "nonpayable",
      "type": "function"
    },
    {
      "inputs": [
        {
          "internalType": "address",
          "name": "newAddress",
          "type": "address"
        }
      ],
      "name": "updatePolygonAMUSDC",
      "outputs": [],
      "stateMutability": "nonpayable",
      "type": "function"
    },
    {
      "inputs": [
        {
          "internalType": "address",
          "name": "newAddress",
          "type": "address"
        }
      ],
      "name": "updatePolygonLendingPool",
      "outputs": [],
      "stateMutability": "nonpayable",
      "type": "function"
    },
    {
      "inputs": [
        {
          "internalType": "address",
          "name": "newAddress",
          "type": "address"
        }
      ],
      "name": "updatePolygonUSDC",
      "outputs": [],
      "stateMutability": "nonpayable",
      "type": "function"
    },
    {
      "inputs": [
        {
          "internalType": "uint256",
          "name": "newstakingPeriodInSeconds",
          "type": "uint256"
        }
      ],
      "name": "updateStakingPeriodInSeconds",
      "outputs": [],
      "stateMutability": "nonpayable",
      "type": "function"
    },
    {
      "inputs": [
        {
          "internalType": "uint256",
          "name": "newtier0feeMod",
          "type": "uint256"
        }
      ],
      "name": "updateTier0feeMod",
      "outputs": [],
      "stateMutability": "nonpayable",
      "type": "function"
    },
    {
      "inputs": [
        {
          "internalType": "uint256",
          "name": "newtier1feeMod",
          "type": "uint256"
        }
      ],
      "name": "updateTier1feeMod",
      "outputs": [],
      "stateMutability": "nonpayable",
      "type": "function"
    },
    {
      "inputs": [
        {
          "internalType": "uint256",
          "name": "newtier2feeMod",
          "type": "uint256"
        }
      ],
      "name": "updateTier2feeMod",
      "outputs": [],
      "stateMutability": "nonpayable",
      "type": "function"
    },
    {
      "inputs": [
        {
          "internalType": "uint256",
          "name": "newtier3feeMod",
          "type": "uint256"
        }
      ],
      "name": "updateTier3feeMod",
      "outputs": [],
      "stateMutability": "nonpayable",
      "type": "function"
    },
    {
      "inputs": [
        {
          "internalType": "uint256",
          "name": "newtier4feeMod",
          "type": "uint256"
        }
      ],
      "name": "updateTier4feeMod",
      "outputs": [],
      "stateMutability": "nonpayable",
      "type": "function"
    },
    {
      "inputs": [
        {
          "internalType": "uint256",
          "name": "newtier4feeMod",
          "type": "uint256"
        }
      ],
      "name": "updateTier5feeMod",
      "outputs": [],
      "stateMutability": "nonpayable",
      "type": "function"
    },
    {
      "inputs": [
        {
          "internalType": "uint256",
          "name": "amount",
          "type": "uint256"
        }
      ],
      "name": "withdrawAccumulated",
      "outputs": [],
      "stateMutability": "nonpayable",
      "type": "function"
    },
    {
      "inputs": [
        {
          "internalType": "address",
          "name": "ERC20ContractAddress",
          "type": "address"
        },
        {
          "internalType": "uint256",
          "name": "amount",
          "type": "uint256"
        }
      ],
      "name": "withdrawERC20",
      "outputs": [],
      "stateMutability": "nonpayable",
      "type": "function"
    },
    {
      "stateMutability": "payable",
      "type": "receive"
    }
  ],
  "bytecode": "0x6080604052620f4240600655620c350060075560006015556064601655605f601755605560185560466019556032601a556019601b553480156200004257600080fd5b50604080518082018252600981526842656e6a616d696e7360b81b602080830191825283518085019094526004845263424e4a4960e01b9084015281519192916200009091600391620002f4565b508051620000a6906004906020840190620002f4565b5050506000620000bb620001f560201b60201c565b600580546001600160a01b0319166001600160a01b038316908117909155604051919250906000907f8be0079c531659141344cd1fd0a4f28419497f9722a3daafe3b4186f6b6457e0908290a3506005805460ff60a01b191690556001600855600980546001600160a01b0319163017905562000137620001f9565b600a80546001600160a01b0319166001600160a01b039290921691909117905562000161620001f9565b600b80546001600160a01b03929092166001600160a01b03199283161790556014805460ff19169055601d80548216732791bca1f2de4661ed88a30c99a7a9449aa84174179055601e80548216731a13f4ca1d028320a707d99520abfefca3998b7f179055601c8054909116738dff5e27ea6b7ac08ebfdf9eb090f32ee9a30fcf179055620001ef62000208565b6200044a565b3390565b6005546001600160a01b031690565b62000212620001f5565b6001600160a01b031662000225620001f9565b6001600160a01b031614620002575760405162461bcd60e51b81526004016200024e90620003d8565b60405180910390fd5b6200026162000263565b565b6200026d620002e4565b156200028d5760405162461bcd60e51b81526004016200024e90620003ae565b6005805460ff60a01b1916600160a01b1790557f62e78cea01bee320cd4e420270b5ea74000d11b0c9f74754ebdbfc544b05a258620002cb620001f5565b604051620002da91906200039a565b60405180910390a1565b600554600160a01b900460ff1690565b82805462000302906200040d565b90600052602060002090601f01602090048101928262000326576000855562000371565b82601f106200034157805160ff191683800117855562000371565b8280016001018555821562000371579182015b828111156200037157825182559160200191906001019062000354565b506200037f92915062000383565b5090565b5b808211156200037f576000815560010162000384565b6001600160a01b0391909116815260200190565b60208082526010908201526f14185d5cd8589b194e881c185d5cd95960821b604082015260600190565b6020808252818101527f4f776e61626c653a2063616c6c6572206973206e6f7420746865206f776e6572604082015260600190565b6002810460018216806200042257607f821691505b602082108114156200044457634e487b7160e01b600052602260045260246000fd5b50919050565b6148a5806200045a6000396000f3fe6080604052600436106103395760003560e01c8063851955d0116101ab578063bdb21b58116100f7578063dd62ed3e11610095578063e4bbe7eb1161006f578063e4bbe7eb1461093b578063e8e6f9ad1461095b578063f2fde38b1461097b578063f98b242f1461099b57610340565b8063dd62ed3e146108db578063e32cb6d8146108fb578063e47bb97b1461091b57610340565b8063c69bebe4116100d1578063c69bebe414610866578063cd0d95e214610886578063cfad0eb6146108a6578063d948e104146108c657610340565b8063bdb21b5814610806578063c010014314610826578063c346e9801461084657610340565b8063a457c2d711610164578063a9059cbb1161013e578063a9059cbb14610791578063ab5b8431146107b1578063b0de3680146107c6578063bcde5a1a146107e657610340565b8063a457c2d71461072f578063a6ecdb291461074f578063a7b9c8ae1461077157610340565b8063851955d0146106905780638ac69e97146106b05780638da5cb5b146106d05780638fb33017146106e557806395d89b41146106fa578063a1db97821461070f57610340565b806339509351116102855780635c975abb116102235780636c752974116101fd5780636c7529741461063157806370a0823114610646578063715018a6146106665780638456cb591461067b57610340565b80635c975abb146105cf5780635f03e644146105e457806360bd13291461060457610340565b806346c105251161025f57806346c105251461054f5780634cd6dc281461056f5780634f12192c1461058f57806356d2ec1b146105af57610340565b806339509351146104fa5780633f4ba83a1461051a578063413712941461052f57610340565b806316087315116102f2578063257a0050116102cc578063257a00501461047857806326b9dfa4146104985780632853c2f7146104b8578063313ce567146104d857610340565b8063160873151461042357806318160ddd1461044357806323b872dd1461045857610340565b8063030942321461034557806306fdde031461036757806307b7635414610392578063095ea7b3146103b457806310b4afb3146103e1578063126d8c2a1461040357610340565b3661034057005b600080fd5b34801561035157600080fd5b506103656103603660046138df565b6109b0565b005b34801561037357600080fd5b5061037c6109fd565b6040516103899190613b4a565b60405180910390f35b34801561039e57600080fd5b506103a7610a8f565b6040516103899190614705565b3480156103c057600080fd5b506103d46103cf366004613896565b610b96565b6040516103899190613b3f565b3480156103ed57600080fd5b506103f6610bb3565b604051610389919061399d565b34801561040f57600080fd5b506103a761041e366004613808565b610bc2565b34801561042f57600080fd5b5061036561043e366004613808565b610c23565b34801561044f57600080fd5b506103a7610caa565b34801561046457600080fd5b506103d461047336600461385b565b610cb0565b34801561048457600080fd5b50610365610493366004613808565b610d47565b3480156104a457600080fd5b506103656104b33660046138df565b610dce565b3480156104c457600080fd5b506103656104d33660046138df565b610e12565b3480156104e457600080fd5b506104ed610e56565b604051610389919061472f565b34801561050657600080fd5b506103d4610515366004613896565b610e5f565b34801561052657600080fd5b50610365610eae565b34801561053b57600080fd5b5061036561054a3660046138df565b610ef7565b34801561055b57600080fd5b5061036561056a3660046138df565b610f33565b34801561057b57600080fd5b506103a761058a366004613808565b610f77565b34801561059b57600080fd5b506103656105aa3660046138df565b610f92565b3480156105bb57600080fd5b506103a76105ca3660046138df565b610fd6565b3480156105db57600080fd5b506103d46111d9565b3480156105f057600080fd5b506103a76105ff3660046138df565b6111e9565b34801561061057600080fd5b5061062461061f366004613808565b611202565b6040516103899190613ac6565b34801561063d57600080fd5b506103f66112ed565b34801561065257600080fd5b506103a7610661366004613808565b6112fc565b34801561067257600080fd5b50610365611317565b34801561068757600080fd5b506103656113a0565b34801561069c57600080fd5b506103656106ab3660046138df565b6113e7565b3480156106bc57600080fd5b506103656106cb3660046138df565b61141f565b3480156106dc57600080fd5b506103f6611463565b3480156106f157600080fd5b506103f6611472565b34801561070657600080fd5b5061037c611481565b34801561071b57600080fd5b5061036561072a366004613896565b611490565b34801561073b57600080fd5b506103d461074a366004613896565b611557565b34801561075b57600080fd5b506107646115d2565b6040516103899190613a79565b34801561077d57600080fd5b5061036561078c3660046138df565b611672565b34801561079d57600080fd5b506103d46107ac366004613896565b611739565b3480156107bd57600080fd5b5061076461174d565b3480156107d257600080fd5b506103656107e13660046138df565b6117ec565b3480156107f257600080fd5b50610624610801366004613808565b6118d8565b34801561081257600080fd5b506103656108213660046138df565b611d22565b34801561083257600080fd5b50610365610841366004613808565b611d66565b34801561085257600080fd5b506103a76108613660046138df565b611ded565b34801561087257600080fd5b50610365610881366004613808565b611e00565b34801561089257600080fd5b506103656108a13660046138df565b611e87565b3480156108b257600080fd5b506103656108c1366004613808565b611efc565b3480156108d257600080fd5b506103f6611f83565b3480156108e757600080fd5b506103a76108f6366004613829565b611f92565b34801561090757600080fd5b506103a761091636600461390f565b611fbd565b34801561092757600080fd5b506103656109363660046138df565b612373565b34801561094757600080fd5b506103a7610956366004613931565b6123b7565b34801561096757600080fd5b506103a7610976366004613931565b612479565b34801561098757600080fd5b50610365610996366004613808565b6124d0565b3480156109a757600080fd5b506103a7612591565b6109b86125ea565b6001600160a01b03166109c9611463565b6001600160a01b0316146109f85760405162461bcd60e51b81526004016109ef906141b6565b60405180910390fd5b601755565b606060038054610a0c9061479f565b80601f0160208091040260200160405190810160405280929190818152602001828054610a389061479f565b8015610a855780601f10610a5a57610100808354040283529160200191610a85565b820191906000526020600020905b815481529060010190602001808311610a6857829003601f168201915b5050505050905090565b6000610a996125ea565b6001600160a01b0316610aaa611463565b6001600160a01b031614610ad05760405162461bcd60e51b81526004016109ef906141b6565b6000610ada612591565b905060006064610aeb836061614769565b610af59190614755565b601e546009546040516370a0823160e01b81529293506000926001600160a01b03928316926370a0823192610b2f9291169060040161399d565b60206040518083038186803b158015610b4757600080fd5b505afa158015610b5b573d6000803e3d6000fd5b505050506040513d601f19601f82011682018060405250810190610b7f91906138f7565b90506000610b8d8284614788565b94505050505090565b6000610baa610ba36125ea565b84846125ee565b50600192915050565b6009546001600160a01b031681565b6000610bcc6125ea565b6001600160a01b0316610bdd611463565b6001600160a01b031614610c035760405162461bcd60e51b81526004016109ef906141b6565b506001600160a01b0381166000908152600f60205260409020545b919050565b610c2b6125ea565b6001600160a01b0316610c3c611463565b6001600160a01b031614610c625760405162461bcd60e51b81526004016109ef906141b6565b6001600160a01b038116610c885760405162461bcd60e51b81526004016109ef9061445e565b601d80546001600160a01b0319166001600160a01b0392909216919091179055565b60025490565b6000610cbd8484846126a2565b6001600160a01b038416600090815260016020526040812081610cde6125ea565b6001600160a01b03166001600160a01b0316815260200190815260200160002054905082811015610d215760405162461bcd60e51b81526004016109ef9061416e565b610d3c85610d2d6125ea565b610d378685614788565b6125ee565b506001949350505050565b610d4f6125ea565b6001600160a01b0316610d60611463565b6001600160a01b031614610d865760405162461bcd60e51b81526004016109ef906141b6565b6001600160a01b038116610dac5760405162461bcd60e51b81526004016109ef90614033565b601c80546001600160a01b0319166001600160a01b0392909216919091179055565b610dd66125ea565b6001600160a01b0316610de7611463565b6001600160a01b031614610e0d5760405162461bcd60e51b81526004016109ef906141b6565b601855565b610e1a6125ea565b6001600160a01b0316610e2b611463565b6001600160a01b031614610e515760405162461bcd60e51b81526004016109ef906141b6565b600755565b60145460ff1690565b6000610baa610e6c6125ea565b848460016000610e7a6125ea565b6001600160a01b03908116825260208083019390935260409182016000908120918b1681529252902054610d37919061473d565b610eb66125ea565b6001600160a01b0316610ec7611463565b6001600160a01b031614610eed5760405162461bcd60e51b81526004016109ef906141b6565b610ef56127ca565b565b610eff6111d9565b15610f1c5760405162461bcd60e51b81526004016109ef90614009565b610f2f610f2a826014614769565b61283b565b5050565b610f3b6125ea565b6001600160a01b0316610f4c611463565b6001600160a01b031614610f725760405162461bcd60e51b81526004016109ef906141b6565b601a55565b6001600160a01b031660009081526010602052604090205490565b610f9a6125ea565b6001600160a01b0316610fab611463565b6001600160a01b031614610fd15760405162461bcd60e51b81526004016109ef906141b6565b601b55565b6000610fe06111d9565b15610ffd5760405162461bcd60e51b81526004016109ef90614009565b600260085414156110205760405162461bcd60e51b81526004016109ef906144b6565b60026008556110306014836147ef565b1561104d5760405162461bcd60e51b81526004016109ef906141eb565b336000908152600f60205260409020548261107a5760405162461bcd60e51b81526004016109ef906146bf565b8281101561109a5760405162461bcd60e51b81526004016109ef90613fab565b60006110a584611ded565b9050624c4b408110156110ca5760405162461bcd60e51b81526004016109ef90614090565b336000908152600f6020526040812080548692906110e9908490614788565b9091555050600954611104906001600160a01b031685612d31565b7fdbba09fffb965fc22fc44dbcfae24c5fa3c095c5e59ad4934a8d71c2980eeda733858360405161113793929190613a58565b60405180910390a161114881612e17565b601d5460405163a9059cbb60e01b81526001600160a01b039091169063a9059cbb9061117a90339085906004016139ef565b602060405180830381600087803b15801561119457600080fd5b505af11580156111a8573d6000803e3d6000fd5b505050506040513d601f19601f820116820180604052508101906111cc91906138bf565b5060016008559392505050565b600554600160a01b900460ff1690565b60006111fc6111f6610caa565b83612479565b92915050565b606061120c6125ea565b6001600160a01b031661121d611463565b6001600160a01b0316146112435760405162461bcd60e51b81526004016109ef906141b6565b6001600160a01b038216600090815260136020908152604080832080548251818502810185019093528083529193909284015b828210156112e25760008481526020908190206040805160a0810182526005860290920180546001600160a01b0316835260018082015484860152600282015492840192909252600381015460608401526004015460ff16151560808301529083529092019101611276565b505050509050919050565b601d546001600160a01b031681565b6001600160a01b031660009081526020819052604090205490565b61131f6125ea565b6001600160a01b0316611330611463565b6001600160a01b0316146113565760405162461bcd60e51b81526004016109ef906141b6565b6005546040516000916001600160a01b0316907f8be0079c531659141344cd1fd0a4f28419497f9722a3daafe3b4186f6b6457e0908390a3600580546001600160a01b0319169055565b6113a86125ea565b6001600160a01b03166113b9611463565b6001600160a01b0316146113df5760405162461bcd60e51b81526004016109ef906141b6565b610ef5612efc565b6113ef6111d9565b1561140c5760405162461bcd60e51b81526004016109ef90614009565b610f2f61141a826014614769565b612f5d565b6114276125ea565b6001600160a01b0316611438611463565b6001600160a01b03161461145e5760405162461bcd60e51b81526004016109ef906141b6565b601955565b6005546001600160a01b031690565b601e546001600160a01b031681565b606060048054610a0c9061479f565b6114986125ea565b6001600160a01b03166114a9611463565b6001600160a01b0316146114cf5760405162461bcd60e51b81526004016109ef906141b6565b60405163a9059cbb60e01b815282906001600160a01b0382169063a9059cbb906114ff90339086906004016139ef565b602060405180830381600087803b15801561151957600080fd5b505af115801561152d573d6000803e3d6000fd5b505050506040513d601f19601f8201168201806040525081019061155191906138bf565b50505050565b600080600160006115666125ea565b6001600160a01b03908116825260208083019390935260409182016000908120918816815292529020549050828110156115b25760405162461bcd60e51b81526004016109ef90614643565b6115c86115bd6125ea565b85610d378685614788565b5060019392505050565b60606115dc6125ea565b6001600160a01b03166115ed611463565b6001600160a01b0316146116135760405162461bcd60e51b81526004016109ef906141b6565b600c805480602002602001604051908101604052809291908181526020018280548015610a8557602002820191906000526020600020905b81546001600160a01b0316815260019091019060200180831161164b575050505050905090565b61167a6125ea565b6001600160a01b031661168b611463565b6001600160a01b0316146116b15760405162461bcd60e51b81526004016109ef906141b6565b601e54600b5460405163a9059cbb60e01b81526001600160a01b039283169263a9059cbb926116e79291169085906004016139ef565b602060405180830381600087803b15801561170157600080fd5b505af1158015611715573d6000803e3d6000fd5b505050506040513d601f19601f82011682018060405250810190610f2f91906138bf565b6000610baa6117466125ea565b84846126a2565b60606117576125ea565b6001600160a01b0316611768611463565b6001600160a01b03161461178e5760405162461bcd60e51b81526004016109ef906141b6565b600d805480602002602001604051908101604052809291908181526020018280548015610a85576020028201919060005260206000209081546001600160a01b0316815260019091019060200180831161164b575050505050905090565b6117f46125ea565b6001600160a01b0316611805611463565b6001600160a01b03161461182b5760405162461bcd60e51b81526004016109ef906141b6565b601c54601d5460095460405163e8eda9df60e01b81526001600160a01b039384169363e8eda9df9361186c9390821692879290911690600090600401613a2b565b600060405180830381600087803b15801561188657600080fd5b505af115801561189a573d6000803e3d6000fd5b505050507fe4b07db4e98b8c4d7db7898ec0ca1004b8d388810ececa888262a4e5886027a9816040516118cd9190614705565b60405180910390a150565b6001600160a01b0381166000908152601360209081526040808320805482518185028101850190935280835260609442949093849390929091849084015b828210156119825760008481526020908190206040805160a0810182526005860290920180546001600160a01b0316835260018082015484860152600282015492840192909252600381015460608401526004015460ff16151560808301529083529092019101611916565b50505050905060005b8151811015611a335760006015548383815181106119b957634e487b7160e01b600052603260045260246000fd5b6020026020010151606001516119cf919061473d565b90508282815181106119f157634e487b7160e01b600052603260045260246000fd5b602090810291909101015160800151158015611a0d5750848111155b15611a205783611a1c816147d4565b9450505b5080611a2b816147d4565b91505061198b565b5081611a75576040805160008082526020820190925290611a6a565b611a576137b7565b815260200190600190039081611a4f5790505b509350505050610c1e565b60008267ffffffffffffffff811115611a9e57634e487b7160e01b600052604160045260246000fd5b604051908082528060200260200182016040528015611ad757816020015b611ac46137b7565b815260200190600190039081611abc5790505b5090506000805b8251811015611d1457838181518110611b0757634e487b7160e01b600052603260045260246000fd5b602090810291909101015160800151611d0257838281518110611b3a57634e487b7160e01b600052603260045260246000fd5b602002602001015160000151838381518110611b6657634e487b7160e01b600052603260045260246000fd5b60209081029190910101516001600160a01b0390911690528351849083908110611ba057634e487b7160e01b600052603260045260246000fd5b602002602001015160200151838381518110611bcc57634e487b7160e01b600052603260045260246000fd5b60200260200101516020018181525050838281518110611bfc57634e487b7160e01b600052603260045260246000fd5b602002602001015160400151838381518110611c2857634e487b7160e01b600052603260045260246000fd5b60200260200101516040018181525050838281518110611c5857634e487b7160e01b600052603260045260246000fd5b602002602001015160600151838381518110611c8457634e487b7160e01b600052603260045260246000fd5b60200260200101516060018181525050838281518110611cb457634e487b7160e01b600052603260045260246000fd5b602002602001015160800151838381518110611ce057634e487b7160e01b600052603260045260246000fd5b602090810291909101015190151560809091015281611cfe816147d4565b9250505b80611d0c816147d4565b915050611ade565b508195505050505050610c1e565b611d2a6125ea565b6001600160a01b0316611d3b611463565b6001600160a01b031614611d615760405162461bcd60e51b81526004016109ef906141b6565b601555565b611d6e6125ea565b6001600160a01b0316611d7f611463565b6001600160a01b031614611da55760405162461bcd60e51b81526004016109ef906141b6565b6001600160a01b038116611dcb5760405162461bcd60e51b81526004016109ef906143b4565b601e80546001600160a01b0319166001600160a01b0392909216919091179055565b60006111fc611dfa610caa565b836123b7565b611e086125ea565b6001600160a01b0316611e19611463565b6001600160a01b031614611e3f5760405162461bcd60e51b81526004016109ef906141b6565b6001600160a01b038116611e655760405162461bcd60e51b81526004016109ef90614540565b600a80546001600160a01b0319166001600160a01b0392909216919091179055565b611e8f6125ea565b6001600160a01b0316611ea0611463565b6001600160a01b031614611ec65760405162461bcd60e51b81526004016109ef906141b6565b601d54601c5460405163095ea7b360e01b81526001600160a01b039283169263095ea7b3926116e79291169085906004016139ef565b611f046125ea565b6001600160a01b0316611f15611463565b6001600160a01b031614611f3b5760405162461bcd60e51b81526004016109ef906141b6565b6001600160a01b038116611f615760405162461bcd60e51b81526004016109ef90613ef0565b600b80546001600160a01b0319166001600160a01b0392909216919091179055565b601c546001600160a01b031681565b6001600160a01b03918216600090815260016020908152604080832093909416825291909152205490565b6000611fc76125ea565b6001600160a01b0316611fd8611463565b6001600160a01b031614611ffe5760405162461bcd60e51b81526004016109ef906141b6565b6001600160a01b03821660009081526012602052604090205460ff1661208257600d805460018082019092557fd7b6990105719101dabeb77144f2a3385c8033acd3af97e9423a695e81ad1eb50180546001600160a01b0319166001600160a01b0385169081179091556000908152601260205260409020805460ff191690911790555b600083116120a25760405162461bcd60e51b81526004016109ef9061423c565b6120ad6014846147ef565b156120ca5760405162461bcd60e51b81526004016109ef90613dfc565b60006120d5846111e9565b601d546040516370a0823160e01b81529192506000916001600160a01b03909116906370a082319061210b90339060040161399d565b60206040518083038186803b15801561212357600080fd5b505afa158015612137573d6000803e3d6000fd5b505050506040513d601f19601f8201168201806040525081019061215b91906138f7565b601d54600954604051636eb1769f60e11b81529293506000926001600160a01b039283169263dd62ed3e92612198923392909116906004016139b1565b60206040518083038186803b1580156121b057600080fd5b505afa1580156121c4573d6000803e3d6000fd5b505050506040513d601f19601f820116820180604052508101906121e891906138f7565b90508183111561220a5760405162461bcd60e51b81526004016109ef9061412c565b8083111561222a5760405162461bcd60e51b81526004016109ef90613e93565b624c4b4083101561224d5760405162461bcd60e51b81526004016109ef906144ed565b601d546009546040516323b872dd60e01b81526001600160a01b03928316926323b872dd926122869233929091169088906004016139cb565b602060405180830381600087803b1580156122a057600080fd5b505af11580156122b4573d6000803e3d6000fd5b505050506040513d601f19601f820116820180604052508101906122d891906138bf565b506122e283611ec6565b6122eb8361182b565b600954612301906001600160a01b031687613286565b7f540b5e46f5323b77eef3b40f9b1bdf436e1b79c3984d271ad7a9b1019c295a8f33878560405161233493929190613a58565b60405180910390a16001600160a01b0385166000908152600f60205260408120805488929061236490849061473d565b90915550929695505050505050565b61237b6125ea565b6001600160a01b031661238c611463565b6001600160a01b0316146123b25760405162461bcd60e51b81526004016109ef906141b6565b601655565b600080831180156123c85750600082115b80156123d45750818310155b6123f05760405162461bcd60e51b81526004016109ef90614411565b60006123fc8385614788565b9050600061240a8580614769565b905060006124188380614769565b905060006124268284614788565b90506000600654826124389190614769565b905060006007548261244a9190614755565b9050612710600061245b82846147ef565b905060006124698285614788565b9c9b505050505050505050505050565b600080821161249a5760405162461bcd60e51b81526004016109ef90613db5565b60006124a68480614769565b905060006124b4848661473d565b905060006124c28280614769565b905060006124268483614788565b6124d86125ea565b6001600160a01b03166124e9611463565b6001600160a01b03161461250f5760405162461bcd60e51b81526004016109ef906141b6565b6001600160a01b0381166125355760405162461bcd60e51b81526004016109ef90613ce8565b6005546040516001600160a01b038084169216907f8be0079c531659141344cd1fd0a4f28419497f9722a3daafe3b4186f6b6457e090600090a3600580546001600160a01b0319166001600160a01b0392909216919091179055565b600061259b6125ea565b6001600160a01b03166125ac611463565b6001600160a01b0316146125d25760405162461bcd60e51b81526004016109ef906141b6565b6125e56125dd610caa565b610956610caa565b905090565b3390565b6001600160a01b0383166126145760405162461bcd60e51b81526004016109ef90614313565b6001600160a01b03821661263a5760405162461bcd60e51b81526004016109ef90613d2e565b6001600160a01b0380841660008181526001602090815260408083209487168084529490915290819020849055517f8c5be1e5ebec7d5bd14f71427d1e84f3dd0314c0f7b2291e5b200ac8c7c3b92590612695908590614705565b60405180910390a3505050565b6001600160a01b0383166126c85760405162461bcd60e51b81526004016109ef906142ce565b6001600160a01b0382166126ee5760405162461bcd60e51b81526004016109ef90613b5d565b6126f9838383613346565b6001600160a01b038316600090815260208190526040902054818110156127325760405162461bcd60e51b81526004016109ef90613e4d565b61273c8282614788565b6001600160a01b03808616600090815260208190526040808220939093559085168152908120805484929061277290849061473d565b92505081905550826001600160a01b0316846001600160a01b03167fddf252ad1be2c89b69c2b068fc378daa952ba7f163c4a11628f55a4df523b3ef846040516127bc9190614705565b60405180910390a350505050565b6127d26111d9565b6127ee5760405162461bcd60e51b81526004016109ef90613bfd565b6005805460ff60a01b191690557f5db9ee0a495bf2e6ff9c91a7834c1ba4fdd244a5e8aa4e537bd38aeae4b073aa6128246125ea565b604051612831919061399d565b60405180910390a1565b60006128456111d9565b156128625760405162461bcd60e51b81526004016109ef90614009565b600260085414156128855760405162461bcd60e51b81526004016109ef906144b6565b60026008556128956014836147ef565b156128b25760405162461bcd60e51b81526004016109ef90614357565b60006128bd836111e9565b905060006128ca3361334b565b905060006064806128db8486614769565b6128e59190614755565b6128ef9190614755565b905060006128ff612710836147ef565b9050600061290d8284614788565b9050600061291b828761473d565b601d546040516370a0823160e01b81529192506000916001600160a01b03909116906370a082319061295190339060040161399d565b60206040518083038186803b15801561296957600080fd5b505afa15801561297d573d6000803e3d6000fd5b505050506040513d601f19601f820116820180604052508101906129a191906138f7565b601d54600954604051636eb1769f60e11b81529293506000926001600160a01b039283169263dd62ed3e926129de923392909116906004016139b1565b60206040518083038186803b1580156129f657600080fd5b505afa158015612a0a573d6000803e3d6000fd5b505050506040513d601f19601f82011682018060405250810190612a2e91906138f7565b905081831115612a505760405162461bcd60e51b81526004016109ef906140e3565b80831115612a705760405162461bcd60e51b81526004016109ef906145db565b624c4b40881015612a935760405162461bcd60e51b81526004016109ef90613ba0565b601d54600a546040516323b872dd60e01b81526001600160a01b03928316926323b872dd92612acc9233929091169089906004016139cb565b602060405180830381600087803b158015612ae657600080fd5b505af1158015612afa573d6000803e3d6000fd5b505050506040513d601f19601f82011682018060405250810190612b1e91906138bf565b50601d546009546040516323b872dd60e01b81526001600160a01b03928316926323b872dd92612b58923392909116908d906004016139cb565b602060405180830381600087803b158015612b7257600080fd5b505af1158015612b86573d6000803e3d6000fd5b505050506040513d601f19601f82011682018060405250810190612baa91906138bf565b50612bb488611ec6565b601d54600954601c54604051636eb1769f60e11b81526000936001600160a01b039081169363dd62ed3e93612bf1939183169216906004016139b1565b60206040518083038186803b158015612c0957600080fd5b505afa158015612c1d573d6000803e3d6000fd5b505050506040513d601f19601f82011682018060405250810190612c4191906138f7565b9050612c658160405180606001604052806040815260200161483060409139613404565b612c6e8961182b565b600954612c84906001600160a01b03168c613286565b7f540b5e46f5323b77eef3b40f9b1bdf436e1b79c3984d271ad7a9b1019c295a8f338c8b604051612cb793929190613a58565b60405180910390a1336000908152600e6020526040812080548d9290612cde90849061473d565b9091555060009050612cf160148d614755565b905060005b81811015612d1b57612d09336014613449565b80612d13816147d4565b915050612cf6565b5050600160085550969998505050505050505050565b6001600160a01b038216612d575760405162461bcd60e51b81526004016109ef9061428d565b612d6382600083613346565b6001600160a01b03821660009081526020819052604090205481811015612d9c5760405162461bcd60e51b81526004016109ef90613c2b565b612da68282614788565b6001600160a01b03841660009081526020819052604081209190915560028054849290612dd4908490614788565b90915550506040516000906001600160a01b038516907fddf252ad1be2c89b69c2b068fc378daa952ba7f163c4a11628f55a4df523b3ef90612695908690614705565b612e1f6111d9565b15612e3c5760405162461bcd60e51b81526004016109ef90614009565b601c54601d54600954604051631a4ca37b60e21b81526001600160a01b03938416936369328dec93612e7a9390821692879290911690600401613a08565b602060405180830381600087803b158015612e9457600080fd5b505af1158015612ea8573d6000803e3d6000fd5b505050506040513d601f19601f82011682018060405250810190612ecc91906138f7565b507fcf262399c7d7a6ef0283fba5e04858a528d91a896dc7bc72fa3e55fbfee77deb816040516118cd9190614705565b612f046111d9565b15612f215760405162461bcd60e51b81526004016109ef90614009565b6005805460ff60a01b1916600160a01b1790557f62e78cea01bee320cd4e420270b5ea74000d11b0c9f74754ebdbfc544b05a2586128246125ea565b6000612f676111d9565b15612f845760405162461bcd60e51b81526004016109ef90614009565b60026008541415612fa75760405162461bcd60e51b81526004016109ef906144b6565b6002600855612fb76014836147ef565b15612fd45760405162461bcd60e51b81526004016109ef90614357565b6000612fdf33610f77565b9050600083116130015760405162461bcd60e51b81526004016109ef906146bf565b828110156130215760405162461bcd60e51b81526004016109ef90613fab565b600061302c84611ded565b9050624c4b408110156130515760405162461bcd60e51b81526004016109ef90613f4e565b600061305c3361334b565b9050600060648061306d8486614769565b6130779190614755565b6130819190614755565b90506000613091612710836147ef565b9050600061309f8284614788565b905060006130ad8287614788565b905060006130bc60148b614755565b905060005b818110156130e6576130d43360146135c1565b806130de816147d4565b9150506130c1565b50336000908152600e6020526040812080548c9290613106908490614788565b9091555050600954613121906001600160a01b03168b612d31565b7fdbba09fffb965fc22fc44dbcfae24c5fa3c095c5e59ad4934a8d71c2980eeda7338b8960405161315493929190613a58565b60405180910390a161316587612e17565b601d54600a5460405163a9059cbb60e01b81526001600160a01b039283169263a9059cbb9261319b9291169087906004016139ef565b602060405180830381600087803b1580156131b557600080fd5b505af11580156131c9573d6000803e3d6000fd5b505050506040513d601f19601f820116820180604052508101906131ed91906138bf565b50601d5460405163a9059cbb60e01b81526001600160a01b039091169063a9059cbb9061322090339086906004016139ef565b602060405180830381600087803b15801561323a57600080fd5b505af115801561324e573d6000803e3d6000fd5b505050506040513d601f19601f8201168201806040525081019061327291906138bf565b505060016008555093979650505050505050565b6001600160a01b0382166132ac5760405162461bcd60e51b81526004016109ef90614688565b6132b860008383613346565b80600260008282546132ca919061473d565b90915550506001600160a01b038216600090815260208190526040812080548392906132f790849061473d565b90915550506040516001600160a01b038316906000907fddf252ad1be2c89b69c2b068fc378daa952ba7f163c4a11628f55a4df523b3ef9061333a908590614705565b60405180910390a35050565b505050565b60008061335783610f77565b9050601481101561336c575050601654610c1e565b6014811015801561337d5750602881105b1561338c575050601754610c1e565b6028811015801561339d5750603c81105b156133ac575050601854610c1e565b603c81101580156133bd5750605081105b156133cc575050601954610c1e565b605081101580156133dd5750606481105b156133ec575050601a54610c1e565b606481106133fe575050601b54610c1e565b50919050565b610f2f828260405160240161341a92919061470e565b60408051601f198184030181529190526020810180516001600160e01b0316630fa3f34560e01b17905261377b565b60006134548361379c565b9050808211156134765760405162461bcd60e51b81526004016109ef90614598565b6001600160a01b03831660009081526011602052604090205460ff166134fa57600c805460018082019092557fdf6966c971051c3d54ec59162606531493a51404a002842f56009d7e5cf4a8c70180546001600160a01b0319166001600160a01b0386169081179091556000908152601160205260409020805460ff191690911790555b6001600160a01b0383811660008181526013602081815260408084208054825160a0810184528781528085018281528185018c81524260608401908152608084018a815298885260018086018755958a52878a2084516005870290910180546001600160a01b03191691909d16178c559151948b0194909455925160028a01559151600389015593516004909701805460ff1916971515979097179096559383526010905291812080549293928692906135b590849061473d565b90915550505050505050565b60006135cc83610f77565b9050808211156135ee5760405162461bcd60e51b81526004016109ef90613d70565b60006135f9846118d8565b9050600081511161361c5760405162461bcd60e51b81526004016109ef90613c6d565b60006001825161362c9190614788565b9050600082828151811061365057634e487b7160e01b600052603260045260246000fd5b602002602001015160200151905060005b6001600160a01b038716600090815260136020526040902054811015613745576001600160a01b03871660009081526013602052604090208054839190839081106136bc57634e487b7160e01b600052603260045260246000fd5b9060005260206000209060050201600101541415613733576001600160a01b03871660009081526013602052604090208054600191908390811061371057634e487b7160e01b600052603260045260246000fd5b60009182526020909120600590910201600401805460ff19169115159190911790555b8061373d816147d4565b915050613661565b506001600160a01b0386166000908152601060205260408120805487929061376e908490614788565b9091555050505050505050565b80516a636f6e736f6c652e6c6f67602083016000808483855afa5050505050565b6001600160a01b03166000908152600e602052604090205490565b6040518060a0016040528060006001600160a01b031681526020016000815260200160008152602001600081526020016000151581525090565b80356001600160a01b0381168114610c1e57600080fd5b600060208284031215613819578081fd5b613822826137f1565b9392505050565b6000806040838503121561383b578081fd5b613844836137f1565b9150613852602084016137f1565b90509250929050565b60008060006060848603121561386f578081fd5b613878846137f1565b9250613886602085016137f1565b9150604084013590509250925092565b600080604083850312156138a8578182fd5b6138b1836137f1565b946020939093013593505050565b6000602082840312156138d0578081fd5b81518015158114613822578182fd5b6000602082840312156138f0578081fd5b5035919050565b600060208284031215613908578081fd5b5051919050565b60008060408385031215613921578182fd5b82359150613852602084016137f1565b60008060408385031215613943578182fd5b50508035926020909101359150565b60008151808452815b818110156139775760208185018101518683018201520161395b565b818111156139885782602083870101525b50601f01601f19169290920160200192915050565b6001600160a01b0391909116815260200190565b6001600160a01b0392831681529116602082015260400190565b6001600160a01b039384168152919092166020820152604081019190915260600190565b6001600160a01b03929092168252602082015260400190565b6001600160a01b0393841681526020810192909252909116604082015260600190565b6001600160a01b03948516815260208101939093529216604082015261ffff909116606082015260800190565b6001600160a01b039390931683526020830191909152604082015260600190565b6020808252825182820181905260009190848201906040850190845b81811015613aba5783516001600160a01b031683529284019291840191600101613a95565b50909695505050505050565b602080825282518282018190526000919060409081850190868401855b82811015613b3257815180516001600160a01b03168552868101518786015285810151868601526060808201519086015260809081015115159085015260a09093019290850190600101613ae3565b5091979650505050505050565b901515815260200190565b6000602082526138226020830184613952565b60208082526023908201527f45524332303a207472616e7366657220746f20746865207a65726f206164647260408201526265737360e81b606082015260800190565b6020808252603a908201527f424e4a2c20737065636966696564416d6f756e744d696e743a204d696e696d7560408201527f6d206d696e74696e672076616c7565206f662024352055534443000000000000606082015260800190565b60208082526014908201527314185d5cd8589b194e881b9bdd081c185d5cd95960621b604082015260600190565b60208082526022908201527f45524332303a206275726e20616d6f756e7420657863656564732062616c616e604082015261636560f01b606082015260800190565b60208082526055908201527f424e4a2c20756e7374616b65546f6b656e733a204e6f206275726e61626c652060408201527f7374616b696e6720706f736974696f6e7320666f756e642e20436f6e7369646560608201527439103a34b6b29039b4b731b29039ba30b5b4b7339760591b608082015260a00190565b60208082526026908201527f4f776e61626c653a206e6577206f776e657220697320746865207a65726f206160408201526564647265737360d01b606082015260800190565b60208082526022908201527f45524332303a20617070726f766520746f20746865207a65726f206164647265604082015261737360f01b606082015260800190565b60208082526025908201527f424e4a2c20756e7374616b65546f6b656e733a204e6f7420656e6f75676820746040820152646f6b656e7360d81b606082015260800190565b60208082526027908201527f424e4a4943757276653a204d757374206d696e74206d6f7265207468616e203060408201526620746f6b656e7360c81b606082015260800190565b60208082526031908201527f424e4a2c20696e7465726e616c4d696e743a20416d6f756e74206d757374206260408201527006520646976697369626c6520627920323607c1b606082015260800190565b60208082526026908201527f45524332303a207472616e7366657220616d6f756e7420657863656564732062604082015265616c616e636560d01b606082015260800190565b6020808252603b908201527f424e4a2c20696e7465726e616c4d696e743a204e6f7420656e6f75676820616c60408201527f6c6f77616e636520696e205553444320666f72207061796d656e740000000000606082015260800190565b602080825260409082018190527f757064617465416363756d756c6174656452656365697665723a206e65774164908201527f64726573732063616e6e6f7420626520746865207a65726f2061646472657373606082015260800190565b6020808252603a908201527f424e4a2c20737065636966696564416d6f756e744275726e3a204d696e696d7560408201527f6d206275726e696e672076616c75652069732024352055534443000000000000606082015260800190565b602080825260409082018190527f557365727320746f6b656e42616c616e6365206d75737420626520657175616c908201527f20746f206f72206d6f7265207468616e20616d6f756e7420746f206275726e2e606082015260800190565b60208082526010908201526f14185d5cd8589b194e881c185d5cd95960821b604082015260600190565b6020808252603f908201527f757064617465506f6c79676f6e4c656e64696e67506f6f6c3a206e657741646460408201527f726573732063616e6e6f7420626520746865207a65726f206164647265737300606082015260800190565b60208082526033908201527f424e4a2c20696e7465726e616c4275726e3a204d696e696d756d206275726e696040820152726e672076616c7565206973202435205553444360681b606082015260800190565b60208082526029908201527f424e4a2c20737065636966696564416d6f756e744d696e743a204e6f7420656e6040820152686f756768205553444360b81b606082015260800190565b60208082526022908201527f424e4a2c20696e7465726e616c4d696e743a204e6f7420656e6f756768205553604082015261444360f01b606082015260800190565b60208082526028908201527f45524332303a207472616e7366657220616d6f756e74206578636565647320616040820152676c6c6f77616e636560c01b606082015260800190565b6020808252818101527f4f776e61626c653a2063616c6c6572206973206e6f7420746865206f776e6572604082015260600190565b60208082526031908201527f424e4a2c20696e7465726e616c4275726e3a20416d6f756e74206d757374206260408201527006520646976697369626c6520627920323607c1b606082015260800190565b60208082526031908201527f424e4a2c20696e7465726e616c4d696e743a20416d6f756e74206d7573742062604082015270329036b7b932903a3430b7103d32b9379760791b606082015260800190565b60208082526021908201527f45524332303a206275726e2066726f6d20746865207a65726f206164647265736040820152607360f81b606082015260800190565b60208082526025908201527f45524332303a207472616e736665722066726f6d20746865207a65726f206164604082015264647265737360d81b606082015260800190565b60208082526024908201527f45524332303a20617070726f76652066726f6d20746865207a65726f206164646040820152637265737360e01b606082015260800190565b60208082526038908201527f424e4a2c20737065636966696564416d6f756e744d696e743a20416d6f756e7460408201527f206d75737420626520646976697369626c652062792032300000000000000000606082015260800190565b6020808252603a908201527f757064617465506f6c79676f6e414d555344433a206e6577416464726573732060408201527f63616e6e6f7420626520746865207a65726f2061646472657373000000000000606082015260800190565b6020808252602d908201527f424e4a4943757276653a2053656e64696e672061726773206d7573742062652060408201526c06c6172676572207468616e203609c1b606082015260800190565b60208082526038908201527f757064617465506f6c79676f6e555344433a206e6577416464726573732063616040820152776e6e6f7420626520746865207a65726f206164647265737360401b606082015260800190565b6020808252601f908201527f5265656e7472616e637947756172643a207265656e7472616e742063616c6c00604082015260600190565b60208082526033908201527f424e4a2c20696e7465726e616c4d696e743a204d696e696d756d206d696e74696040820152726e672076616c7565206f66202435205553444360681b606082015260800190565b60208082526038908201527f75706461746546656552656365697665723a206e6577416464726573732063616040820152776e6e6f7420626520746865207a65726f206164647265737360401b606082015260800190565b60208082526023908201527f424e4a2c207374616b65546f6b656e733a204e6f7420656e6f75676820746f6b604082015262656e7360e81b606082015260800190565b60208082526042908201527f424e4a2c20737065636966696564416d6f756e744d696e743a204e6f7420656e60408201527f6f75676820616c6c6f77616e636520696e205553444320666f72207061796d656060820152611b9d60f21b608082015260a00190565b60208082526025908201527f45524332303a2064656372656173656420616c6c6f77616e63652062656c6f77604082015264207a65726f60d81b606082015260800190565b6020808252601f908201527f45524332303a206d696e7420746f20746865207a65726f206164647265737300604082015260600190565b60208082526026908201527f416d6f756e7420746f206275726e206d757374206265206d6f7265207468616e604082015265103d32b9379760d11b606082015260800190565b90815260200190565b6000838252604060208301526147276040830184613952565b949350505050565b60ff91909116815260200190565b6000821982111561475057614750614803565b500190565b60008261476457614764614819565b500490565b600081600019048311821515161561478357614783614803565b500290565b60008282101561479a5761479a614803565b500390565b6002810460018216806147b357607f821691505b602082108114156133fe57634e487b7160e01b600052602260045260246000fd5b60006000198214156147e8576147e8614803565b5060010190565b6000826147fe576147fe614819565b500690565b634e487b7160e01b600052601160045260246000fd5b634e487b7160e01b600052601260045260246000fdfe3d3d3d3d3d3d3d3d3d3d3d3d3d3d3d3d2020203d3d3d3d3d203d3d3d3d3d3d3d424e4a2c204c656e64696e67506f6f6c416c6c6f77616e6365696e3664656320a26469706673582212208f6f163ae88d816807a6d258b3162f0fd0d33a525e3e63bfc4b45ef8d462da4064736f6c63430008000033",
  "linkReferences": {},
  "deployedLinkReferences": {}
}