{
  "_format": "hh-sol-artifact-1",
  "contractName": "Benjamins",
  "sourceName": "contracts/Benjamins.sol",
  "abi": [
    {
      "inputs": [],
      "stateMutability": "nonpayable",
      "type": "constructor"
    },
    {
      "anonymous": false,
      "inputs": [
        {
          "indexed": true,
          "internalType": "address",
          "name": "owner",
          "type": "address"
        },
        {
          "indexed": true,
          "internalType": "address",
          "name": "spender",
          "type": "address"
        },
        {
          "indexed": false,
          "internalType": "uint256",
          "name": "value",
          "type": "uint256"
        }
      ],
      "name": "Approval",
      "type": "event"
    },
    {
      "anonymous": false,
      "inputs": [
        {
          "indexed": false,
          "internalType": "uint256",
          "name": "amountUSDCin6dec",
          "type": "uint256"
        },
        {
          "indexed": false,
          "internalType": "address",
          "name": "payer",
          "type": "address"
        }
      ],
      "name": "LendingPoolDeposit",
      "type": "event"
    },
    {
      "anonymous": false,
      "inputs": [
        {
          "indexed": false,
          "internalType": "uint256",
          "name": "amountUSDCBeforeFeein6dec",
          "type": "uint256"
        },
        {
          "indexed": false,
          "internalType": "address",
          "name": "payee",
          "type": "address"
        }
      ],
      "name": "LendingPoolWithdrawal",
      "type": "event"
    },
    {
      "anonymous": false,
      "inputs": [
        {
          "indexed": true,
          "internalType": "address",
          "name": "previousOwner",
          "type": "address"
        },
        {
          "indexed": true,
          "internalType": "address",
          "name": "newOwner",
          "type": "address"
        }
      ],
      "name": "OwnershipTransferred",
      "type": "event"
    },
    {
      "anonymous": false,
      "inputs": [
        {
          "indexed": false,
          "internalType": "address",
          "name": "account",
          "type": "address"
        }
      ],
      "name": "Paused",
      "type": "event"
    },
    {
      "anonymous": false,
      "inputs": [
        {
          "indexed": true,
          "internalType": "address",
          "name": "from",
          "type": "address"
        },
        {
          "indexed": true,
          "internalType": "address",
          "name": "to",
          "type": "address"
        },
        {
          "indexed": false,
          "internalType": "uint256",
          "name": "value",
          "type": "uint256"
        }
      ],
      "name": "Transfer",
      "type": "event"
    },
    {
      "anonymous": false,
      "inputs": [
        {
          "indexed": false,
          "internalType": "address",
          "name": "account",
          "type": "address"
        }
      ],
      "name": "Unpaused",
      "type": "event"
    },
    {
      "anonymous": false,
      "inputs": [
        {
          "indexed": false,
          "internalType": "address",
          "name": "fromAddress",
          "type": "address"
        },
        {
          "indexed": false,
          "internalType": "address",
          "name": "toAddress",
          "type": "address"
        },
        {
          "indexed": false,
          "internalType": "uint256",
          "name": "inTokens",
          "type": "uint256"
        },
        {
          "indexed": false,
          "internalType": "uint256",
          "name": "beforeFeeUSDCin6dec",
          "type": "uint256"
        },
        {
          "indexed": false,
          "internalType": "uint256",
          "name": "feeUSDCin6dec",
          "type": "uint256"
        }
      ],
      "name": "exchanged",
      "type": "event"
    },
    {
      "anonymous": false,
      "inputs": [
        {
          "indexed": false,
          "internalType": "address",
          "name": "account",
          "type": "address"
        }
      ],
      "name": "newDepositAccount",
      "type": "event"
    },
    {
      "anonymous": false,
      "inputs": [
        {
          "indexed": false,
          "internalType": "address",
          "name": "beneficiary",
          "type": "address"
        }
      ],
      "name": "newFeeReceiver",
      "type": "event"
    },
    {
      "anonymous": false,
      "inputs": [
        {
          "indexed": false,
          "internalType": "uint256",
          "name": "availableIn6dec",
          "type": "uint256"
        },
        {
          "indexed": false,
          "internalType": "uint256",
          "name": "amountUSDCin6dec",
          "type": "uint256"
        }
      ],
      "name": "profitTaken",
      "type": "event"
    },
    {
      "inputs": [
        {
          "internalType": "address",
          "name": "owner",
          "type": "address"
        },
        {
          "internalType": "address",
          "name": "spender",
          "type": "address"
        }
      ],
      "name": "allowance",
      "outputs": [
        {
          "internalType": "uint256",
          "name": "",
          "type": "uint256"
        }
      ],
      "stateMutability": "view",
      "type": "function"
    },
    {
      "inputs": [
        {
          "internalType": "address",
          "name": "spender",
          "type": "address"
        },
        {
          "internalType": "uint256",
          "name": "amount",
          "type": "uint256"
        }
      ],
      "name": "approve",
      "outputs": [
        {
          "internalType": "bool",
          "name": "",
          "type": "bool"
        }
      ],
      "stateMutability": "nonpayable",
      "type": "function"
    },
    {
      "inputs": [
        {
          "internalType": "address",
          "name": "account",
          "type": "address"
        }
      ],
      "name": "balanceOf",
      "outputs": [
        {
          "internalType": "uint256",
          "name": "",
          "type": "uint256"
        }
      ],
      "stateMutability": "view",
      "type": "function"
    },
    {
      "inputs": [
        {
          "internalType": "uint256",
          "name": "_amount",
          "type": "uint256"
        }
      ],
      "name": "burn",
      "outputs": [],
      "stateMutability": "nonpayable",
      "type": "function"
    },
    {
      "inputs": [
        {
          "internalType": "uint256",
          "name": "_amount",
          "type": "uint256"
        },
        {
          "internalType": "address",
          "name": "_toWhom",
          "type": "address"
        }
      ],
      "name": "burnTo",
      "outputs": [],
      "stateMutability": "nonpayable",
      "type": "function"
    },
    {
      "inputs": [],
      "name": "decimals",
      "outputs": [
        {
          "internalType": "uint8",
          "name": "",
          "type": "uint8"
        }
      ],
      "stateMutability": "view",
      "type": "function"
    },
    {
      "inputs": [
        {
          "internalType": "address",
          "name": "spender",
          "type": "address"
        },
        {
          "internalType": "uint256",
          "name": "subtractedValue",
          "type": "uint256"
        }
      ],
      "name": "decreaseAllowance",
      "outputs": [
        {
          "internalType": "bool",
          "name": "",
          "type": "bool"
        }
      ],
      "stateMutability": "nonpayable",
      "type": "function"
    },
    {
      "inputs": [
        {
          "internalType": "address",
          "name": "_whom",
          "type": "address"
        }
      ],
      "name": "discountLevel",
      "outputs": [
        {
          "internalType": "uint8",
          "name": "",
          "type": "uint8"
        }
      ],
      "stateMutability": "view",
      "type": "function"
    },
    {
      "inputs": [
        {
          "internalType": "address",
          "name": "spender",
          "type": "address"
        },
        {
          "internalType": "uint256",
          "name": "addedValue",
          "type": "uint256"
        }
      ],
      "name": "increaseAllowance",
      "outputs": [
        {
          "internalType": "bool",
          "name": "",
          "type": "bool"
        }
      ],
      "stateMutability": "nonpayable",
      "type": "function"
    },
    {
      "inputs": [
        {
          "internalType": "uint256",
          "name": "_amount",
          "type": "uint256"
        }
      ],
      "name": "mint",
      "outputs": [],
      "stateMutability": "nonpayable",
      "type": "function"
    },
    {
      "inputs": [
        {
          "internalType": "uint256",
          "name": "_amount",
          "type": "uint256"
        },
        {
          "internalType": "address",
          "name": "_toWhom",
          "type": "address"
        }
      ],
      "name": "mintTo",
      "outputs": [],
      "stateMutability": "nonpayable",
      "type": "function"
    },
    {
      "inputs": [],
      "name": "name",
      "outputs": [
        {
          "internalType": "string",
          "name": "",
          "type": "string"
        }
      ],
      "stateMutability": "view",
      "type": "function"
    },
    {
      "inputs": [],
      "name": "owner",
      "outputs": [
        {
          "internalType": "address",
          "name": "",
          "type": "address"
        }
      ],
      "stateMutability": "view",
      "type": "function"
    },
    {
      "inputs": [],
      "name": "pause",
      "outputs": [],
      "stateMutability": "nonpayable",
      "type": "function"
    },
    {
      "inputs": [],
      "name": "paused",
      "outputs": [
        {
          "internalType": "bool",
          "name": "",
          "type": "bool"
        }
      ],
      "stateMutability": "view",
      "type": "function"
    },
    {
      "inputs": [],
      "name": "polygonAMUSDC",
      "outputs": [
        {
          "internalType": "contract IERC20",
          "name": "",
          "type": "address"
        }
      ],
      "stateMutability": "view",
      "type": "function"
    },
    {
      "inputs": [],
      "name": "polygonLendingPool",
      "outputs": [
        {
          "internalType": "contract ILendingPool",
          "name": "",
          "type": "address"
        }
      ],
      "stateMutability": "view",
      "type": "function"
    },
    {
      "inputs": [],
      "name": "polygonUSDC",
      "outputs": [
        {
          "internalType": "contract IERC20",
          "name": "",
          "type": "address"
        }
      ],
      "stateMutability": "view",
      "type": "function"
    },
    {
      "inputs": [
        {
          "internalType": "address",
          "name": "forWhom",
          "type": "address"
        }
      ],
      "name": "quoteFeePercentage",
      "outputs": [
        {
          "internalType": "uint16",
          "name": "",
          "type": "uint16"
        }
      ],
      "stateMutability": "view",
      "type": "function"
    },
    {
      "inputs": [
        {
          "internalType": "uint256",
          "name": "_amount",
          "type": "uint256"
        },
        {
          "internalType": "bool",
          "name": "isMint",
          "type": "bool"
        }
      ],
      "name": "quoteUSDC",
      "outputs": [
        {
          "internalType": "uint256",
          "name": "",
          "type": "uint256"
        }
      ],
      "stateMutability": "view",
      "type": "function"
    },
    {
      "inputs": [],
      "name": "renounceOwnership",
      "outputs": [],
      "stateMutability": "nonpayable",
      "type": "function"
    },
    {
      "inputs": [
        {
          "internalType": "address",
          "name": "ERC20ContractAddress",
          "type": "address"
        }
      ],
      "name": "scavengeERC20Tip",
      "outputs": [],
      "stateMutability": "nonpayable",
      "type": "function"
    },
    {
      "inputs": [
        {
          "internalType": "address",
          "name": "beneficiary",
          "type": "address"
        }
      ],
      "name": "setFeeReceiver",
      "outputs": [],
      "stateMutability": "nonpayable",
      "type": "function"
    },
    {
      "inputs": [],
      "name": "showReserveIn6dec",
      "outputs": [
        {
          "internalType": "uint256",
          "name": "",
          "type": "uint256"
        }
      ],
      "stateMutability": "view",
      "type": "function"
    },
    {
      "inputs": [],
      "name": "symbol",
      "outputs": [
        {
          "internalType": "string",
          "name": "",
          "type": "string"
        }
      ],
      "stateMutability": "view",
      "type": "function"
    },
    {
      "inputs": [],
      "name": "totalSupply",
      "outputs": [
        {
          "internalType": "uint256",
          "name": "",
          "type": "uint256"
        }
      ],
      "stateMutability": "view",
      "type": "function"
    },
    {
      "inputs": [
        {
          "internalType": "address",
          "name": "recipient",
          "type": "address"
        },
        {
          "internalType": "uint256",
          "name": "amount",
          "type": "uint256"
        }
      ],
      "name": "transfer",
      "outputs": [
        {
          "internalType": "bool",
          "name": "",
          "type": "bool"
        }
      ],
      "stateMutability": "nonpayable",
      "type": "function"
    },
    {
      "inputs": [
        {
          "internalType": "address",
          "name": "sender",
          "type": "address"
        },
        {
          "internalType": "address",
          "name": "recipient",
          "type": "address"
        },
        {
          "internalType": "uint256",
          "name": "amountBNJIs",
          "type": "uint256"
        }
      ],
      "name": "transferFrom",
      "outputs": [
        {
          "internalType": "bool",
          "name": "",
          "type": "bool"
        }
      ],
      "stateMutability": "nonpayable",
      "type": "function"
    },
    {
      "inputs": [
        {
          "internalType": "address",
          "name": "newOwner",
          "type": "address"
        }
      ],
      "name": "transferOwnership",
      "outputs": [],
      "stateMutability": "nonpayable",
      "type": "function"
    },
    {
      "inputs": [],
      "name": "unpause",
      "outputs": [],
      "stateMutability": "nonpayable",
      "type": "function"
    },
    {
      "inputs": [
        {
          "internalType": "uint256",
          "name": "amountToApprove",
          "type": "uint256"
        }
      ],
      "name": "updateApproveLendingPool",
      "outputs": [],
      "stateMutability": "nonpayable",
      "type": "function"
    },
    {
      "inputs": [
        {
          "internalType": "uint256",
          "name": "newAmountOfBlocksPerDay",
          "type": "uint256"
        }
      ],
      "name": "updateBlocksPerDay",
      "outputs": [],
      "stateMutability": "nonpayable",
      "type": "function"
    },
    {
      "inputs": [
        {
          "internalType": "uint32[]",
          "name": "newLevelAntes",
          "type": "uint32[]"
        }
      ],
      "name": "updateLevelAntes",
      "outputs": [],
      "stateMutability": "nonpayable",
      "type": "function"
    },
    {
      "inputs": [
        {
          "internalType": "uint8[]",
          "name": "newLevelDiscounts",
          "type": "uint8[]"
        }
      ],
      "name": "updateLevelDiscounts",
      "outputs": [],
      "stateMutability": "nonpayable",
      "type": "function"
    },
    {
      "inputs": [
        {
          "internalType": "uint16[]",
          "name": "newLevelHolds",
          "type": "uint16[]"
        }
      ],
      "name": "updateLevelHolds",
      "outputs": [],
      "stateMutability": "nonpayable",
      "type": "function"
    },
    {
      "inputs": [
        {
          "internalType": "address",
          "name": "newAddress",
          "type": "address"
        }
      ],
      "name": "updatePolygonAMUSDC",
      "outputs": [],
      "stateMutability": "nonpayable",
      "type": "function"
    },
    {
      "inputs": [
        {
          "internalType": "address",
          "name": "newAddress",
          "type": "address"
        }
      ],
      "name": "updatePolygonLendingPool",
      "outputs": [],
      "stateMutability": "nonpayable",
      "type": "function"
    },
    {
      "inputs": [
        {
          "internalType": "address",
          "name": "newAddress",
          "type": "address"
        }
      ],
      "name": "updatePolygonUSDC",
      "outputs": [],
      "stateMutability": "nonpayable",
      "type": "function"
    },
    {
      "inputs": [
        {
          "internalType": "uint256",
          "name": "_amountIn6dec",
          "type": "uint256"
        }
      ],
      "name": "withdrawGains",
      "outputs": [],
      "stateMutability": "nonpayable",
      "type": "function"
    },
    {
      "stateMutability": "payable",
      "type": "receive"
    }
  ],
  "bytecode": "0x6080604052620f4240600d556013805460ff1916600a17905560026014819055620c35006015556016805461ffff191690911790553480156200004157600080fd5b506040518060400160405280600981526020016842656e6a616d696e7360b81b81525060405180604001604052806004815260200163424e4a4960e01b8152506000620000936200028760201b60201c565b600080546001600160a01b0319166001600160a01b0383169081178255604051929350917f8be0079c531659141344cd1fd0a4f28419497f9722a3daafe3b4186f6b6457e0908290a3508151620000f290600490602085019062000379565b5080516200010890600590602084019062000379565b50506006805460ff199081169091556001600755600e80549091169055506000600b55600c80546001600160a01b031990811673e51c8401fe1e70f78bbd3ac660692597d33dbaff17909155600980548216732791bca1f2de4661ed88a30c99a7a9449aa84174179055600a80548216731a13f4ca1d028320a707d99520abfefca3998b7f17905560088054909116738dff5e27ea6b7ac08ebfdf9eb090f32ee9a30fcf1790556040805160a08101825260148152603c60208201526064918101919091526101f460608201526107d06080820152620001ed90601090600562000408565b506040805160c0810182526000815260026020820152600791810191909152601e6060820152605a608082015261016860a082015262000232906011906006620004b7565b506040805160c0810182526000815260056020820152600a918101919091526014606082015260286080820152604b60a08201526200027690601290600662000553565b50620002816200028b565b620006b3565b3390565b6200029562000287565b6001600160a01b0316620002a8620002e6565b6001600160a01b031614620002da5760405162461bcd60e51b8152600401620002d19062000641565b60405180910390fd5b620002e4620002f5565b565b6000546001600160a01b031690565b620002ff62000370565b156200031f5760405162461bcd60e51b8152600401620002d19062000617565b6006805460ff191660011790557f62e78cea01bee320cd4e420270b5ea74000d11b0c9f74754ebdbfc544b05a2586200035762000287565b60405162000366919062000603565b60405180910390a1565b60065460ff1690565b828054620003879062000676565b90600052602060002090601f016020900481019282620003ab5760008555620003f6565b82601f10620003c657805160ff1916838001178555620003f6565b82800160010185558215620003f6579182015b82811115620003f6578251825591602001919060010190620003d9565b5062000404929150620005ec565b5090565b82805482825590600052602060002090600701600890048101928215620003f65791602002820160005b838211156200047657835183826101000a81548163ffffffff021916908361ffff160217905550926020019260040160208160030104928301926001030262000432565b8015620004a85782816101000a81549063ffffffff021916905560040160208160030104928301926001030262000476565b505062000404929150620005ec565b82805482825590600052602060002090600f01601090048101928215620003f65791602002820160005b838211156200052357835183826101000a81548161ffff021916908361ffff1602179055509260200192600201602081600101049283019260010302620004e1565b8015620004a85782816101000a81549061ffff021916905560020160208160010104928301926001030262000523565b82805482825590600052602060002090601f01602090048101928215620003f65791602002820160005b83821115620005bd57835183826101000a81548160ff021916908360ff16021790555092602001926001016020816000010492830192600103026200057d565b8015620004a85782816101000a81549060ff0219169055600101602081600001049283019260010302620005bd565b5b80821115620004045760008155600101620005ed565b6001600160a01b0391909116815260200190565b60208082526010908201526f14185d5cd8589b194e881c185d5cd95960821b604082015260600190565b6020808252818101527f4f776e61626c653a2063616c6c6572206973206e6f7420746865206f776e6572604082015260600190565b6002810460018216806200068b57607f821691505b60208210811415620006ad57634e487b7160e01b600052602260045260246000fd5b50919050565b6133d980620006c36000396000f3fe6080604052600436106102345760003560e01c8063715018a61161012e578063b723b34e116100ab578063dd62ed3e1161006f578063dd62ed3e14610648578063ea89120b14610668578063efdcd97414610695578063f2fde38b146106b5578063f6e6d9d6146106d55761023b565b8063b723b34e146105b3578063c0100143146105d3578063c6a5d5da146105f3578063cd0d95e214610613578063d948e104146106335761023b565b806397b92942116100f257806397b9294214610513578063a0712d6814610533578063a457c2d714610553578063a9059cbb14610573578063b3faaf93146105935761023b565b8063715018a6146104aa5780638456cb59146104bf5780638da5cb5b146104d45780638fb33017146104e957806395d89b41146104fe5761023b565b806338d1692f116101bc57806355ab59501161018057806355ab595014610413578063571ff20d146104335780635c975abb146104535780636c7529741461046857806370a082311461048a5761023b565b806338d1692f1461037e578063395093511461039e5780633f4ba83a146103be57806342966c68146103d357806347f220ae146103f35761023b565b806318160ddd1161020357806318160ddd146102e7578063185cf4b51461030957806323b872dd14610329578063257a005014610349578063313ce567146103695761023b565b806306fdde0314610240578063093f59501461026b578063095ea7b31461029857806316087315146102c55761023b565b3661023b57005b600080fd5b34801561024c57600080fd5b506102556106ea565b6040516102629190612cb9565b60405180910390f35b34801561027757600080fd5b5061028b6102863660046128bd565b61077c565b60405161026291906131d9565b3480156102a457600080fd5b506102b86102b336600461294b565b61086c565b6040516102629190612cae565b3480156102d157600080fd5b506102e56102e03660046128bd565b610889565b005b3480156102f357600080fd5b506102fc6108ea565b60405161026291906131ab565b34801561031557600080fd5b506102e5610324366004612b5b565b6108f0565b34801561033557600080fd5b506102b8610344366004612910565b610aa5565b34801561035557600080fd5b506102e56103643660046128bd565b610c56565b34801561037557600080fd5b5061028b610f1f565b34801561038a57600080fd5b506102fc610399366004612bad565b610f28565b3480156103aa57600080fd5b506102b86103b936600461294b565b611064565b3480156103ca57600080fd5b506102e56110b3565b3480156103df57600080fd5b506102e56103ee366004612b5b565b6110fc565b3480156103ff57600080fd5b506102e561040e366004612974565b611109565b34801561041f57600080fd5b506102e561042e3660046128bd565b61115f565b34801561043f57600080fd5b506102e561044e366004612b8b565b6112af565b34801561045f57600080fd5b506102b8611355565b34801561047457600080fd5b5061047d61135e565b6040516102629190612bdc565b34801561049657600080fd5b506102fc6104a53660046128bd565b61136d565b3480156104b657600080fd5b506102e5611388565b3480156104cb57600080fd5b506102e5611411565b3480156104e057600080fd5b5061047d611458565b3480156104f557600080fd5b5061047d611467565b34801561050a57600080fd5b50610255611476565b34801561051f57600080fd5b506102e561052e366004612aad565b611485565b34801561053f57600080fd5b506102e561054e366004612b5b565b6114d7565b34801561055f57600080fd5b506102b861056e36600461294b565b6114e1565b34801561057f57600080fd5b506102b861058e36600461294b565b61155c565b34801561059f57600080fd5b506102e56105ae366004612a18565b6116b1565b3480156105bf57600080fd5b506102e56105ce366004612b8b565b611703565b3480156105df57600080fd5b506102e56105ee3660046128bd565b61178f565b3480156105ff57600080fd5b506102e561060e366004612b5b565b6117f0565b34801561061f57600080fd5b506102e561062e366004612b5b565b611834565b34801561063f57600080fd5b5061047d6118fb565b34801561065457600080fd5b506102fc6106633660046128de565b61190a565b34801561067457600080fd5b506106886106833660046128bd565b611935565b604051610262919061319c565b3480156106a157600080fd5b506102e56106b03660046128bd565b611a07565b3480156106c157600080fd5b506102e56106d03660046128bd565b611a9c565b3480156106e157600080fd5b506102fc611b5c565b6060600480546106f9906132e4565b80601f0160208091040260200160405190810160405280929190818152602001828054610725906132e4565b80156107725780601f1061074757610100808354040283529160200191610772565b820191906000526020600020905b81548152906001019060200180831161075557829003601f168201915b5050505050905090565b6000610786611355565b15806107b15750610795611458565b6001600160a01b03166107a6611b62565b6001600160a01b0316145b6107d65760405162461bcd60e51b81526004016107cd90612f43565b60405180910390fd5b60006107e18361136d565b90506000805b60105460ff821610156108625760108160ff168154811061081857634e487b7160e01b600052603260045260246000fd5b6000918252602090912060088204015460079091166004026101000a900463ffffffff168310610850578161084c8161331f565b9250505b8061085a8161331f565b9150506107e7565b509150505b919050565b6000610880610879611b62565b8484611b66565b50600192915050565b610891611b62565b6001600160a01b03166108a2611458565b6001600160a01b0316146108c85760405162461bcd60e51b81526004016107cd90612f71565b600980546001600160a01b0319166001600160a01b0392909216919091179055565b60035490565b6108f8611b62565b6001600160a01b0316610909611458565b6001600160a01b03161461092f5760405162461bcd60e51b81526004016107cd90612f71565b600b54600a546040516370a0823160e01b8152600092916001600160a01b0316906370a0823190610964903090600401612bdc565b60206040518083038186803b15801561097c57600080fd5b505afa158015610990573d6000803e3d6000fd5b505050506040513d601f19601f820116820180604052508101906109b49190612b73565b6109be91906132aa565b90508181116109df5760405162461bcd60e51b81526004016107cd9061316f565b600a54600c5460405163a9059cbb60e01b81526001600160a01b039283169263a9059cbb92610a15929116908690600401612c45565b602060405180830381600087803b158015610a2f57600080fd5b505af1158015610a43573d6000803e3d6000fd5b505050506040513d601f19601f82011682018060405250810190610a679190612b3f565b507f8b9c4e1b9c860b263c59ac36417dfb6be15a01919b159407b1971058eee1e0298183604051610a999291906131cb565b60405180910390a15050565b600060026007541415610aca5760405162461bcd60e51b81526004016107cd90613070565b6002600755610ad7611355565b1580610b025750610ae6611458565b6001600160a01b0316610af7611b62565b6001600160a01b0316145b610b1e5760405162461bcd60e51b81526004016107cd90612f43565b836000610b2a8561077c565b90506000610b3785611c1a565b600954600c546040516323b872dd60e01b81529293506001600160a01b03918216926323b872dd92610b72928c929116908690600401612bf0565b602060405180830381600087803b158015610b8c57600080fd5b505af1158015610ba0573d6000803e3d6000fd5b505050506040513d601f19601f82011682018060405250810190610bc49190612b3f565b506000610bd388610663611b62565b905085811015610bf55760405162461bcd60e51b81526004016107cd906130a7565b610c00888888611c74565b610c1b88610c0c611b62565b610c1689856132aa565b611b66565b6000610c268861077c565b90508360ff168160ff161115610c4157610c3f88611d9c565b505b60019550505050505060016007559392505050565b610c5e611b62565b6001600160a01b0316610c6f611458565b6001600160a01b031614610c955760405162461bcd60e51b81526004016107cd90612f71565b600854600954604051631a4ca37b60e21b81526001600160a01b03928316926369328dec92610ccf92911690600019903090600401612c5e565b602060405180830381600087803b158015610ce957600080fd5b505af1158015610cfd573d6000803e3d6000fd5b505050506040513d601f19601f82011682018060405250810190610d219190612b73565b50600880546001600160a01b0319166001600160a01b0383161790556040517f33481e616168e187acdc90fda3d0269454b31c195cc00e4db474ca44f8d43ae890610d6d908390612bdc565b60405180910390a16009546040516370a0823160e01b81526000916001600160a01b0316906370a0823190610da6903090600401612bdc565b60206040518083038186803b158015610dbe57600080fd5b505afa158015610dd2573d6000803e3d6000fd5b505050506040513d601f19601f82011682018060405250810190610df69190612b73565b60095460085460405163095ea7b360e01b81529293506001600160a01b039182169263095ea7b392610e2e9216908590600401612c45565b602060405180830381600087803b158015610e4857600080fd5b505af1158015610e5c573d6000803e3d6000fd5b505050506040513d601f19601f82011682018060405250810190610e809190612b3f565b5060085460095460405163e8eda9df60e01b81526001600160a01b039283169263e8eda9df92610ebc9291169085903090600090600401612c81565b600060405180830381600087803b158015610ed657600080fd5b505af1158015610eea573d6000803e3d6000fd5b505050507f96a06dd751c9aee3cbe69bcfe31505e68da315871c459fd3467debfd76a901e98130604051610a999291906131b4565b600e5460ff1690565b6000610f32611355565b1580610f5d5750610f41611458565b6001600160a01b0316610f52611b62565b6001600160a01b0316145b610f795760405162461bcd60e51b81526004016107cd90612f43565b6000610f836108ea565b90506000610f91828061328b565b90506000808060018715151415610fcb57610fac8886613235565b9250610fb8838061328b565b9150610fc484836132aa565b9050610ff0565b610fd588866132aa565b9250610fe1838061328b565b9150610fed82856132aa565b90505b6000600d5482611000919061328b565b9050600060155482611012919061324d565b905060006110226127108361333f565b9050600061103082846132aa565b9050624c4b408110156110555760405162461bcd60e51b81526004016107cd90612d0c565b9b9a5050505050505050505050565b6000610880611071611b62565b84846002600061107f611b62565b6001600160a01b03908116825260208083019390935260409182016000908120918b1681529252902054610c169190613235565b6110bb611b62565b6001600160a01b03166110cc611458565b6001600160a01b0316146110f25760405162461bcd60e51b81526004016107cd90612f71565b6110fa611e0c565b565b61110681336112af565b50565b611111611b62565b6001600160a01b0316611122611458565b6001600160a01b0316146111485760405162461bcd60e51b81526004016107cd90612f71565b805161115b9060119060208401906126b7565b5050565b611167611b62565b6001600160a01b0316611178611458565b6001600160a01b03161461119e5760405162461bcd60e51b81526004016107cd90612f71565b6040516370a0823160e01b815281906000906001600160a01b038316906370a08231906111cf903090600401612bdc565b60206040518083038186803b1580156111e757600080fd5b505afa1580156111fb573d6000803e3d6000fd5b505050506040513d601f19601f8201168201806040525081019061121f9190612b73565b600c546040516323b872dd60e01b81529192506001600160a01b03808516926323b872dd926112579230929116908690600401612bf0565b602060405180830381600087803b15801561127157600080fd5b505af1158015611285573d6000803e3d6000fd5b505050506040513d601f19601f820116820180604052508101906112a99190612b3f565b50505050565b6112b7611355565b15806112e257506112c6611458565b6001600160a01b03166112d7611b62565b6001600160a01b0316145b6112fe5760405162461bcd60e51b81526004016107cd90612f43565b81806113093361136d565b10156113275760405162461bcd60e51b81526004016107cd90612ee2565b82611333816000610f28565b600b54101561134157600080fd5b3361134e84866000611e7a565b5050505050565b60065460ff1690565b6009546001600160a01b031681565b6001600160a01b031660009081526001602052604090205490565b611390611b62565b6001600160a01b03166113a1611458565b6001600160a01b0316146113c75760405162461bcd60e51b81526004016107cd90612f71565b600080546040516001600160a01b03909116907f8be0079c531659141344cd1fd0a4f28419497f9722a3daafe3b4186f6b6457e0908390a3600080546001600160a01b0319169055565b611419611b62565b6001600160a01b031661142a611458565b6001600160a01b0316146114505760405162461bcd60e51b81526004016107cd90612f71565b6110fa61201d565b6000546001600160a01b031690565b600a546001600160a01b031681565b6060600580546106f9906132e4565b61148d611b62565b6001600160a01b031661149e611458565b6001600160a01b0316146114c45760405162461bcd60e51b81526004016107cd90612f71565b805161115b906012906020840190612760565b6111068133611703565b600080600260006114f0611b62565b6001600160a01b039081168252602080830193909352604091820160009081209188168152925290205490508281101561153c5760405162461bcd60e51b81526004016107cd906130f3565b611552611547611b62565b85610c1686856132aa565b5060019392505050565b6000611566611355565b15806115915750611575611458565b6001600160a01b0316611586611b62565b6001600160a01b0316145b6115ad5760405162461bcd60e51b81526004016107cd90612f43565b6115b5611b62565b60006115c08561077c565b905060006115cd85611c1a565b6009549091506001600160a01b03166323b872dd6115e9611b62565b600c546040516001600160e01b031960e085901b16815261161992916001600160a01b0316908690600401612bf0565b602060405180830381600087803b15801561163357600080fd5b505af1158015611647573d6000803e3d6000fd5b505050506040513d601f19601f8201168201806040525081019061166b9190612b3f565b5061167e611677611b62565b8787611c74565b60006116898761077c565b90508260ff168160ff1611156116a4576116a287611d9c565b505b5060019695505050505050565b6116b9611b62565b6001600160a01b03166116ca611458565b6001600160a01b0316146116f05760405162461bcd60e51b81526004016107cd90612f71565b805161115b9060109060208401906127f4565b61170b611355565b1580611736575061171a611458565b6001600160a01b031661172b611b62565b6001600160a01b0316145b6117525760405162461bcd60e51b81526004016107cd90612f43565b600061175d8261077c565b905061176b82846001611e7a565b60006117768361077c565b90508160ff168160ff1611156112a95761134e83611d9c565b611797611b62565b6001600160a01b03166117a8611458565b6001600160a01b0316146117ce5760405162461bcd60e51b81526004016107cd90612f71565b600a80546001600160a01b0319166001600160a01b0392909216919091179055565b6117f8611b62565b6001600160a01b0316611809611458565b6001600160a01b03161461182f5760405162461bcd60e51b81526004016107cd90612f71565b601455565b61183c611b62565b6001600160a01b031661184d611458565b6001600160a01b0316146118735760405162461bcd60e51b81526004016107cd90612f71565b60095460085460405163095ea7b360e01b81526001600160a01b039283169263095ea7b3926118a9929116908590600401612c45565b602060405180830381600087803b1580156118c357600080fd5b505af11580156118d7573d6000803e3d6000fd5b505050506040513d601f19601f8201168201806040525081019061115b9190612b3f565b6008546001600160a01b031681565b6001600160a01b03918216600090815260026020908152604080832093909416825291909152205490565b600061193f611355565b158061196a575061194e611458565b6001600160a01b031661195f611b62565b6001600160a01b0316145b6119865760405162461bcd60e51b81526004016107cd90612f43565b60126119918361077c565b60ff16815481106119b257634e487b7160e01b600052603260045260246000fd5b90600052602060002090602091828204019190069054906101000a900460ff1660646119de91906132c1565b60165460ff91909116906119f79061ffff166064613261565b611a019190613261565b92915050565b611a0f611b62565b6001600160a01b0316611a20611458565b6001600160a01b031614611a465760405162461bcd60e51b81526004016107cd90612f71565b600c80546001600160a01b0319166001600160a01b0383161790556040517fa574362825e0eb8232ebe212b029c5b3a30ca54219bc287f49181e95bbb8608990611a91908390612bdc565b60405180910390a150565b611aa4611b62565b6001600160a01b0316611ab5611458565b6001600160a01b031614611adb5760405162461bcd60e51b81526004016107cd90612f71565b6001600160a01b038116611b015760405162461bcd60e51b81526004016107cd90612e14565b600080546040516001600160a01b03808516939216917f8be0079c531659141344cd1fd0a4f28419497f9722a3daafe3b4186f6b6457e091a3600080546001600160a01b0319166001600160a01b0392909216919091179055565b600b5490565b3390565b6001600160a01b038316611b8c5760405162461bcd60e51b81526004016107cd9061302c565b6001600160a01b038216611bb25760405162461bcd60e51b81526004016107cd90612e5a565b6001600160a01b0380841660008181526002602090815260408083209487168084529490915290819020849055517f8c5be1e5ebec7d5bd14f71427d1e84f3dd0314c0f7b2291e5b200ac8c7c3b92590611c0d9085906131ab565b60405180910390a3505050565b600080611c28836000610f28565b90506000620f4240611c3933611935565b611c479061ffff168461328b565b611c51919061324d565b90506000611c616127108361333f565b611c6b90836132aa565b95945050505050565b6001600160a01b038316611c9a5760405162461bcd60e51b81526004016107cd90612fe7565b6001600160a01b038216611cc05760405162461bcd60e51b81526004016107cd90612d61565b611ccb838383612078565b6001600160a01b03831660009081526001602052604090205481811015611d045760405162461bcd60e51b81526004016107cd90612e9c565b611d0e82826132aa565b6001600160a01b038086166000908152600160205260408082209390935590851681529081208054849290611d44908490613235565b92505081905550826001600160a01b0316846001600160a01b03167fddf252ad1be2c89b69c2b068fc378daa952ba7f163c4a11628f55a4df523b3ef84604051611d8e91906131ab565b60405180910390a350505050565b6000611da6611355565b1580611dd15750611db5611458565b6001600160a01b0316611dc6611b62565b6001600160a01b0316145b611ded5760405162461bcd60e51b81526004016107cd90612f43565b6001600160a01b039091166000908152600f6020526040902043905590565b611e14611355565b611e305760405162461bcd60e51b81526004016107cd90612da4565b6006805460ff191690557f5db9ee0a495bf2e6ff9c91a7834c1ba4fdd244a5e8aa4e537bd38aeae4b073aa611e63611b62565b604051611e709190612bdc565b60405180910390a1565b60026007541415611e9d5760405162461bcd60e51b81526004016107cd90613070565b6002600755611eaa611355565b1580611ed55750611eb9611458565b6001600160a01b0316611eca611b62565b6001600160a01b0316145b611ef15760405162461bcd60e51b81526004016107cd90612f43565b600060018215151415611f1057611f09836001610f28565b9050611f1e565b611f1b836000610f28565b90505b6000620f4240611f2d33611935565b611f3b9061ffff168461328b565b611f45919061324d565b90506000611f556127108361333f565b611f5f90836132aa565b905060018415151415611fa157611f7a33878584600161207d565b611f848686612511565b82600b6000828254611f969190613235565b90915550611fd19050565b611fab33866125d1565b611fb933878584600061207d565b82600b6000828254611fcb91906132aa565b90915550505b7faa1840ad2b124c68a39cd301fc5f80ad593b05a52c5344a787f2762ace6dea343387878685604051612008959493929190612c14565b60405180910390a15050600160075550505050565b612025611355565b156120425760405162461bcd60e51b81526004016107cd90612f19565b6006805460ff191660011790557f62e78cea01bee320cd4e420270b5ea74000d11b0c9f74754ebdbfc544b05a258611e63611b62565b505050565b612085611355565b15806120b05750612094611458565b6001600160a01b03166120a5611b62565b6001600160a01b0316145b6120cc5760405162461bcd60e51b81526004016107cd90612f43565b600181151514156123295760006120e38385613235565b6009546040516323b872dd60e01b81529192506001600160a01b0316906323b872dd9061211890899030908690600401612bf0565b602060405180830381600087803b15801561213257600080fd5b505af1158015612146573d6000803e3d6000fd5b505050506040513d601f19601f8201168201806040525081019061216a9190612b3f565b50600954600c5460405163a9059cbb60e01b81526001600160a01b039283169263a9059cbb926121a1929116908790600401612c45565b602060405180830381600087803b1580156121bb57600080fd5b505af11580156121cf573d6000803e3d6000fd5b505050506040513d601f19601f820116820180604052508101906121f39190612b3f565b5060095460085460405163095ea7b360e01b81526001600160a01b039283169263095ea7b39261222a929116908890600401612c45565b602060405180830381600087803b15801561224457600080fd5b505af1158015612258573d6000803e3d6000fd5b505050506040513d601f19601f8201168201806040525081019061227c9190612b3f565b5060085460095460405163e8eda9df60e01b81526001600160a01b039283169263e8eda9df926122b89291169088903090600090600401612c81565b600060405180830381600087803b1580156122d257600080fd5b505af11580156122e6573d6000803e3d6000fd5b505050507f96a06dd751c9aee3cbe69bcfe31505e68da315871c459fd3467debfd76a901e9848760405161231b9291906131b4565b60405180910390a15061134e565b600061233583856132aa565b600854600954604051631a4ca37b60e21b81529293506001600160a01b03918216926369328dec9261236f92169088903090600401612c5e565b602060405180830381600087803b15801561238957600080fd5b505af115801561239d573d6000803e3d6000fd5b505050506040513d601f19601f820116820180604052508101906123c19190612b73565b507fa605ade827572a0d40ee9676d8a1bcdf38fdd902413c655c283bbbba576867ba84866040516123f39291906131b4565b60405180910390a1600954600c5460405163a9059cbb60e01b81526001600160a01b039283169263a9059cbb92612431929116908790600401612c45565b602060405180830381600087803b15801561244b57600080fd5b505af115801561245f573d6000803e3d6000fd5b505050506040513d601f19601f820116820180604052508101906124839190612b3f565b5060095460405163a9059cbb60e01b81526001600160a01b039091169063a9059cbb906124b69088908590600401612c45565b602060405180830381600087803b1580156124d057600080fd5b505af11580156124e4573d6000803e3d6000fd5b505050506040513d601f19601f820116820180604052508101906125089190612b3f565b50505050505050565b6001600160a01b0382166125375760405162461bcd60e51b81526004016107cd90613138565b61254360008383612078565b80600360008282546125559190613235565b90915550506001600160a01b03821660009081526001602052604081208054839290612582908490613235565b90915550506040516001600160a01b038316906000907fddf252ad1be2c89b69c2b068fc378daa952ba7f163c4a11628f55a4df523b3ef906125c59085906131ab565b60405180910390a35050565b6001600160a01b0382166125f75760405162461bcd60e51b81526004016107cd90612fa6565b61260382600083612078565b6001600160a01b0382166000908152600160205260409020548181101561263c5760405162461bcd60e51b81526004016107cd90612dd2565b61264682826132aa565b6001600160a01b038416600090815260016020526040812091909155600380548492906126749084906132aa565b90915550506040516000906001600160a01b038516907fddf252ad1be2c89b69c2b068fc378daa952ba7f163c4a11628f55a4df523b3ef90611c0d9086906131ab565b82805482825590600052602060002090600f016010900481019282156127505791602002820160005b8382111561272057835183826101000a81548161ffff021916908361ffff16021790555092602001926002016020816001010492830192600103026126e0565b801561274e5782816101000a81549061ffff0219169055600201602081600101049283019260010302612720565b505b5061275c929150612891565b5090565b82805482825590600052602060002090601f016020900481019282156127505791602002820160005b838211156127c757835183826101000a81548160ff021916908360ff1602179055509260200192600101602081600001049283019260010302612789565b801561274e5782816101000a81549060ff02191690556001016020816000010492830192600103026127c7565b828054828255906000526020600020906007016008900481019282156127505791602002820160005b8382111561286157835183826101000a81548163ffffffff021916908363ffffffff160217905550926020019260040160208160030104928301926001030261281d565b801561274e5782816101000a81549063ffffffff0219169055600401602081600301049283019260010302612861565b5b8082111561275c5760008155600101612892565b80356001600160a01b038116811461086757600080fd5b6000602082840312156128ce578081fd5b6128d7826128a6565b9392505050565b600080604083850312156128f0578081fd5b6128f9836128a6565b9150612907602084016128a6565b90509250929050565b600080600060608486031215612924578081fd5b61292d846128a6565b925061293b602085016128a6565b9150604084013590509250925092565b6000806040838503121561295d578182fd5b612966836128a6565b946020939093013593505050565b60006020808385031215612986578182fd5b823567ffffffffffffffff81111561299c578283fd5b8301601f810185136129ac578283fd5b80356129bf6129ba82613211565b6131e7565b81815283810190838501858402850186018910156129db578687fd5b8694505b83851015612a0c57803561ffff811681146129f8578788fd5b8352600194909401939185019185016129df565b50979650505050505050565b60006020808385031215612a2a578182fd5b823567ffffffffffffffff811115612a40578283fd5b8301601f81018513612a50578283fd5b8035612a5e6129ba82613211565b8181528381019083850185840285018601891015612a7a578687fd5b8694505b83851015612a0c57803563ffffffff81168114612a99578788fd5b835260019490940193918501918501612a7e565b60006020808385031215612abf578182fd5b823567ffffffffffffffff811115612ad5578283fd5b8301601f81018513612ae5578283fd5b8035612af36129ba82613211565b8181528381019083850185840285018601891015612b0f578687fd5b8694505b83851015612a0c57803560ff81168114612b2b578788fd5b835260019490940193918501918501612b13565b600060208284031215612b50578081fd5b81516128d781613395565b600060208284031215612b6c578081fd5b5035919050565b600060208284031215612b84578081fd5b5051919050565b60008060408385031215612b9d578182fd5b82359150612907602084016128a6565b60008060408385031215612bbf578182fd5b823591506020830135612bd181613395565b809150509250929050565b6001600160a01b0391909116815260200190565b6001600160a01b039384168152919092166020820152604081019190915260600190565b6001600160a01b03958616815293909416602084015260408301919091526060820152608081019190915260a00190565b6001600160a01b03929092168252602082015260400190565b6001600160a01b0393841681526020810192909252909116604082015260600190565b6001600160a01b03948516815260208101939093529216604082015261ffff909116606082015260800190565b901515815260200190565b6000602080835283518082850152825b81811015612ce557858101830151858201604001528201612cc9565b81811115612cf65783604083870101525b50601f01601f1916929092016040019392505050565b60208082526035908201527f424e4a2c2071756f7465555344433a204d696e696d756d20424e4a492076616c604082015274756520746f206d6f7665206973202435205553444360581b606082015260800190565b60208082526023908201527f45524332303a207472616e7366657220746f20746865207a65726f206164647260408201526265737360e81b606082015260800190565b60208082526014908201527314185d5cd8589b194e881b9bdd081c185d5cd95960621b604082015260600190565b60208082526022908201527f45524332303a206275726e20616d6f756e7420657863656564732062616c616e604082015261636560f01b606082015260800190565b60208082526026908201527f4f776e61626c653a206e6577206f776e657220697320746865207a65726f206160408201526564647265737360d01b606082015260800190565b60208082526022908201527f45524332303a20617070726f766520746f20746865207a65726f206164647265604082015261737360f01b606082015260800190565b60208082526026908201527f45524332303a207472616e7366657220616d6f756e7420657863656564732062604082015265616c616e636560d01b606082015260800190565b60208082526017908201527f496e73756666696369656e742042656e6a616d696e732e000000000000000000604082015260600190565b60208082526010908201526f14185d5cd8589b194e881c185d5cd95960821b604082015260600190565b6020808252601490820152732132b73530b6b4b7399034b9903830bab9b2b21760611b604082015260600190565b6020808252818101527f4f776e61626c653a2063616c6c6572206973206e6f7420746865206f776e6572604082015260600190565b60208082526021908201527f45524332303a206275726e2066726f6d20746865207a65726f206164647265736040820152607360f81b606082015260800190565b60208082526025908201527f45524332303a207472616e736665722066726f6d20746865207a65726f206164604082015264647265737360d81b606082015260800190565b60208082526024908201527f45524332303a20617070726f76652066726f6d20746865207a65726f206164646040820152637265737360e01b606082015260800190565b6020808252601f908201527f5265656e7472616e637947756172643a207265656e7472616e742063616c6c00604082015260600190565b6020808252602c908201527f42656e6a616d696e733a207472616e7366657220616d6f756e7420657863656560408201526b647320616c6c6f77616e636560a01b606082015260800190565b60208082526025908201527f45524332303a2064656372656173656420616c6c6f77616e63652062656c6f77604082015264207a65726f60d81b606082015260800190565b6020808252601f908201527f45524332303a206d696e7420746f20746865207a65726f206164647265737300604082015260600190565b60208082526013908201527224b739bab33334b1b4b2b73a10333ab732399760691b604082015260600190565b61ffff91909116815260200190565b90815260200190565b9182526001600160a01b0316602082015260400190565b918252602082015260400190565b60ff91909116815260200190565b60405181810167ffffffffffffffff811182821017156132095761320961337f565b604052919050565b600067ffffffffffffffff82111561322b5761322b61337f565b5060209081020190565b6000821982111561324857613248613353565b500190565b60008261325c5761325c613369565b500490565b600061ffff8083168185168183048111821515161561328257613282613353565b02949350505050565b60008160001904831182151516156132a5576132a5613353565b500290565b6000828210156132bc576132bc613353565b500390565b600060ff821660ff8416808210156132db576132db613353565b90039392505050565b6002810460018216806132f857607f821691505b6020821081141561331957634e487b7160e01b600052602260045260246000fd5b50919050565b600060ff821660ff81141561333657613336613353565b60010192915050565b60008261334e5761334e613369565b500690565b634e487b7160e01b600052601160045260246000fd5b634e487b7160e01b600052601260045260246000fd5b634e487b7160e01b600052604160045260246000fd5b801515811461110657600080fdfea264697066735822122052a506a1a183b814bd0b8c3fb5d7ff006dfb7a815ff7d01c02f69d4fb93c483364736f6c63430008000033",
  "linkReferences": {},
  "deployedLinkReferences": {}
}