{
  "_format": "hh-sol-artifact-1",
  "contractName": "Benjamins",
  "sourceName": "contracts/Benjamins.sol",
  "abi": [
    {
      "inputs": [],
      "stateMutability": "nonpayable",
      "type": "constructor"
    },
    {
      "anonymous": false,
      "inputs": [
        {
          "indexed": true,
          "internalType": "address",
          "name": "owner",
          "type": "address"
        },
        {
          "indexed": true,
          "internalType": "address",
          "name": "spender",
          "type": "address"
        },
        {
          "indexed": false,
          "internalType": "uint256",
          "name": "value",
          "type": "uint256"
        }
      ],
      "name": "Approval",
      "type": "event"
    },
    {
      "anonymous": false,
      "inputs": [
        {
          "indexed": false,
          "internalType": "uint256",
          "name": "amount",
          "type": "uint256"
        }
      ],
      "name": "LendingPoolDeposit",
      "type": "event"
    },
    {
      "anonymous": false,
      "inputs": [
        {
          "indexed": false,
          "internalType": "uint256",
          "name": "amount",
          "type": "uint256"
        }
      ],
      "name": "LendingPoolWithdrawal",
      "type": "event"
    },
    {
      "anonymous": false,
      "inputs": [
        {
          "indexed": true,
          "internalType": "address",
          "name": "previousOwner",
          "type": "address"
        },
        {
          "indexed": true,
          "internalType": "address",
          "name": "newOwner",
          "type": "address"
        }
      ],
      "name": "OwnershipTransferred",
      "type": "event"
    },
    {
      "anonymous": false,
      "inputs": [
        {
          "indexed": false,
          "internalType": "address",
          "name": "account",
          "type": "address"
        }
      ],
      "name": "Paused",
      "type": "event"
    },
    {
      "anonymous": false,
      "inputs": [
        {
          "indexed": false,
          "internalType": "address",
          "name": "sender",
          "type": "address"
        },
        {
          "indexed": false,
          "internalType": "address",
          "name": "receiverOfUSDC",
          "type": "address"
        },
        {
          "indexed": false,
          "internalType": "uint256",
          "name": "tokenAmount",
          "type": "uint256"
        },
        {
          "indexed": false,
          "internalType": "uint256",
          "name": "returnForBurningIn6dec",
          "type": "uint256"
        },
        {
          "indexed": false,
          "internalType": "uint256",
          "name": "feeRoundedDownIn6dec",
          "type": "uint256"
        }
      ],
      "name": "SpecifiedBurnEvent",
      "type": "event"
    },
    {
      "anonymous": false,
      "inputs": [
        {
          "indexed": false,
          "internalType": "address",
          "name": "sender",
          "type": "address"
        },
        {
          "indexed": false,
          "internalType": "address",
          "name": "receiverOfTokens",
          "type": "address"
        },
        {
          "indexed": false,
          "internalType": "uint256",
          "name": "tokenAmount",
          "type": "uint256"
        },
        {
          "indexed": false,
          "internalType": "uint256",
          "name": "priceForMintingIn6dec",
          "type": "uint256"
        },
        {
          "indexed": false,
          "internalType": "uint256",
          "name": "feeRoundedDownIn6dec",
          "type": "uint256"
        }
      ],
      "name": "SpecifiedMintEvent",
      "type": "event"
    },
    {
      "anonymous": false,
      "inputs": [
        {
          "indexed": true,
          "internalType": "address",
          "name": "from",
          "type": "address"
        },
        {
          "indexed": true,
          "internalType": "address",
          "name": "to",
          "type": "address"
        },
        {
          "indexed": false,
          "internalType": "uint256",
          "name": "value",
          "type": "uint256"
        }
      ],
      "name": "Transfer",
      "type": "event"
    },
    {
      "anonymous": false,
      "inputs": [
        {
          "indexed": false,
          "internalType": "address",
          "name": "account",
          "type": "address"
        }
      ],
      "name": "Unpaused",
      "type": "event"
    },
    {
      "inputs": [],
      "name": "addressOfThisContract",
      "outputs": [
        {
          "internalType": "address",
          "name": "",
          "type": "address"
        }
      ],
      "stateMutability": "view",
      "type": "function"
    },
    {
      "inputs": [
        {
          "internalType": "address",
          "name": "owner",
          "type": "address"
        },
        {
          "internalType": "address",
          "name": "spender",
          "type": "address"
        }
      ],
      "name": "allowance",
      "outputs": [
        {
          "internalType": "uint256",
          "name": "",
          "type": "uint256"
        }
      ],
      "stateMutability": "view",
      "type": "function"
    },
    {
      "inputs": [
        {
          "internalType": "address",
          "name": "userToCheck",
          "type": "address"
        }
      ],
      "name": "amountBlocksHoldingNeeded",
      "outputs": [
        {
          "internalType": "uint256",
          "name": "",
          "type": "uint256"
        }
      ],
      "stateMutability": "view",
      "type": "function"
    },
    {
      "inputs": [
        {
          "internalType": "address",
          "name": "spender",
          "type": "address"
        },
        {
          "internalType": "uint256",
          "name": "amount",
          "type": "uint256"
        }
      ],
      "name": "approve",
      "outputs": [
        {
          "internalType": "bool",
          "name": "",
          "type": "bool"
        }
      ],
      "stateMutability": "nonpayable",
      "type": "function"
    },
    {
      "inputs": [
        {
          "internalType": "address",
          "name": "account",
          "type": "address"
        }
      ],
      "name": "balanceOf",
      "outputs": [
        {
          "internalType": "uint256",
          "name": "",
          "type": "uint256"
        }
      ],
      "stateMutability": "view",
      "type": "function"
    },
    {
      "inputs": [
        {
          "internalType": "uint256",
          "name": "amountOfBNJIs",
          "type": "uint256"
        },
        {
          "internalType": "address",
          "name": "receiverOfUSDC",
          "type": "address"
        }
      ],
      "name": "burnForBeneficiary",
      "outputs": [],
      "stateMutability": "nonpayable",
      "type": "function"
    },
    {
      "inputs": [
        {
          "internalType": "uint256",
          "name": "amountOfBNJIs",
          "type": "uint256"
        }
      ],
      "name": "burnForSelf",
      "outputs": [],
      "stateMutability": "nonpayable",
      "type": "function"
    },
    {
      "inputs": [],
      "name": "calcAllTokensValue",
      "outputs": [
        {
          "internalType": "uint256",
          "name": "allTokensReturn",
          "type": "uint256"
        }
      ],
      "stateMutability": "view",
      "type": "function"
    },
    {
      "inputs": [
        {
          "internalType": "address",
          "name": "userToCheck",
          "type": "address"
        }
      ],
      "name": "calcCurrentLevel",
      "outputs": [
        {
          "internalType": "uint256",
          "name": "",
          "type": "uint256"
        }
      ],
      "stateMutability": "view",
      "type": "function"
    },
    {
      "inputs": [
        {
          "internalType": "address",
          "name": "userToCheck",
          "type": "address"
        }
      ],
      "name": "calcDiscount",
      "outputs": [
        {
          "internalType": "uint256",
          "name": "",
          "type": "uint256"
        }
      ],
      "stateMutability": "view",
      "type": "function"
    },
    {
      "inputs": [
        {
          "internalType": "uint256",
          "name": "supply",
          "type": "uint256"
        },
        {
          "internalType": "uint256",
          "name": "tokensToMint",
          "type": "uint256"
        }
      ],
      "name": "calcPriceForTokenMint",
      "outputs": [
        {
          "internalType": "uint256",
          "name": "",
          "type": "uint256"
        }
      ],
      "stateMutability": "view",
      "type": "function"
    },
    {
      "inputs": [
        {
          "internalType": "uint256",
          "name": "supply",
          "type": "uint256"
        },
        {
          "internalType": "uint256",
          "name": "tokensToBurn",
          "type": "uint256"
        }
      ],
      "name": "calcReturnForTokenBurn",
      "outputs": [
        {
          "internalType": "uint256",
          "name": "",
          "type": "uint256"
        }
      ],
      "stateMutability": "view",
      "type": "function"
    },
    {
      "inputs": [
        {
          "internalType": "uint256",
          "name": "amount",
          "type": "uint256"
        }
      ],
      "name": "calcSpecBurnReturn",
      "outputs": [
        {
          "internalType": "uint256",
          "name": "burnReturn",
          "type": "uint256"
        }
      ],
      "stateMutability": "view",
      "type": "function"
    },
    {
      "inputs": [
        {
          "internalType": "uint256",
          "name": "amount",
          "type": "uint256"
        }
      ],
      "name": "calcSpecMintReturn",
      "outputs": [
        {
          "internalType": "uint256",
          "name": "mintPrice",
          "type": "uint256"
        }
      ],
      "stateMutability": "view",
      "type": "function"
    },
    {
      "inputs": [],
      "name": "decimals",
      "outputs": [
        {
          "internalType": "uint8",
          "name": "",
          "type": "uint8"
        }
      ],
      "stateMutability": "view",
      "type": "function"
    },
    {
      "inputs": [
        {
          "internalType": "address",
          "name": "spender",
          "type": "address"
        },
        {
          "internalType": "uint256",
          "name": "subtractedValue",
          "type": "uint256"
        }
      ],
      "name": "decreaseAllowance",
      "outputs": [
        {
          "internalType": "bool",
          "name": "",
          "type": "bool"
        }
      ],
      "stateMutability": "nonpayable",
      "type": "function"
    },
    {
      "inputs": [
        {
          "internalType": "uint256",
          "name": "amount",
          "type": "uint256"
        }
      ],
      "name": "depositUSDCBuffer",
      "outputs": [],
      "stateMutability": "nonpayable",
      "type": "function"
    },
    {
      "inputs": [
        {
          "internalType": "address",
          "name": "userToCheck",
          "type": "address"
        }
      ],
      "name": "getBlockAmountStillToWait",
      "outputs": [
        {
          "internalType": "uint256",
          "name": "blocksHoldingSoFar",
          "type": "uint256"
        },
        {
          "internalType": "uint256",
          "name": "blocksNecessaryTotal",
          "type": "uint256"
        }
      ],
      "stateMutability": "view",
      "type": "function"
    },
    {
      "inputs": [
        {
          "internalType": "address",
          "name": "spender",
          "type": "address"
        },
        {
          "internalType": "uint256",
          "name": "addedValue",
          "type": "uint256"
        }
      ],
      "name": "increaseAllowance",
      "outputs": [
        {
          "internalType": "bool",
          "name": "",
          "type": "bool"
        }
      ],
      "stateMutability": "nonpayable",
      "type": "function"
    },
    {
      "inputs": [
        {
          "internalType": "uint256",
          "name": "amountOfBNJIs",
          "type": "uint256"
        },
        {
          "internalType": "address",
          "name": "receiverOfTokens",
          "type": "address"
        }
      ],
      "name": "mintToBeneficiary",
      "outputs": [],
      "stateMutability": "nonpayable",
      "type": "function"
    },
    {
      "inputs": [
        {
          "internalType": "uint256",
          "name": "amountOfBNJIs",
          "type": "uint256"
        }
      ],
      "name": "mintToSelf",
      "outputs": [],
      "stateMutability": "nonpayable",
      "type": "function"
    },
    {
      "inputs": [],
      "name": "name",
      "outputs": [
        {
          "internalType": "string",
          "name": "",
          "type": "string"
        }
      ],
      "stateMutability": "view",
      "type": "function"
    },
    {
      "inputs": [],
      "name": "owner",
      "outputs": [
        {
          "internalType": "address",
          "name": "",
          "type": "address"
        }
      ],
      "stateMutability": "view",
      "type": "function"
    },
    {
      "inputs": [],
      "name": "pause",
      "outputs": [],
      "stateMutability": "nonpayable",
      "type": "function"
    },
    {
      "inputs": [],
      "name": "paused",
      "outputs": [
        {
          "internalType": "bool",
          "name": "",
          "type": "bool"
        }
      ],
      "stateMutability": "view",
      "type": "function"
    },
    {
      "inputs": [],
      "name": "polygonAMUSDC",
      "outputs": [
        {
          "internalType": "contract IERC20",
          "name": "",
          "type": "address"
        }
      ],
      "stateMutability": "view",
      "type": "function"
    },
    {
      "inputs": [],
      "name": "polygonLendingPool",
      "outputs": [
        {
          "internalType": "contract ILendingPool",
          "name": "",
          "type": "address"
        }
      ],
      "stateMutability": "view",
      "type": "function"
    },
    {
      "inputs": [],
      "name": "polygonUSDC",
      "outputs": [
        {
          "internalType": "contract IERC20",
          "name": "",
          "type": "address"
        }
      ],
      "stateMutability": "view",
      "type": "function"
    },
    {
      "inputs": [],
      "name": "renounceOwnership",
      "outputs": [],
      "stateMutability": "nonpayable",
      "type": "function"
    },
    {
      "inputs": [],
      "name": "showBaseFee",
      "outputs": [
        {
          "internalType": "uint256",
          "name": "",
          "type": "uint256"
        }
      ],
      "stateMutability": "view",
      "type": "function"
    },
    {
      "inputs": [],
      "name": "showBlocksPerDay",
      "outputs": [
        {
          "internalType": "uint256",
          "name": "",
          "type": "uint256"
        }
      ],
      "stateMutability": "view",
      "type": "function"
    },
    {
      "inputs": [],
      "name": "symbol",
      "outputs": [
        {
          "internalType": "string",
          "name": "",
          "type": "string"
        }
      ],
      "stateMutability": "view",
      "type": "function"
    },
    {
      "inputs": [],
      "name": "totalSupply",
      "outputs": [
        {
          "internalType": "uint256",
          "name": "",
          "type": "uint256"
        }
      ],
      "stateMutability": "view",
      "type": "function"
    },
    {
      "inputs": [
        {
          "internalType": "address",
          "name": "receiver",
          "type": "address"
        },
        {
          "internalType": "uint256",
          "name": "amountOfBNJIs",
          "type": "uint256"
        }
      ],
      "name": "transfer",
      "outputs": [
        {
          "internalType": "bool",
          "name": "",
          "type": "bool"
        }
      ],
      "stateMutability": "nonpayable",
      "type": "function"
    },
    {
      "inputs": [
        {
          "internalType": "address",
          "name": "payingAddress",
          "type": "address"
        },
        {
          "internalType": "address",
          "name": "receiver",
          "type": "address"
        },
        {
          "internalType": "uint256",
          "name": "amountOfBNJIs",
          "type": "uint256"
        }
      ],
      "name": "transferFrom",
      "outputs": [
        {
          "internalType": "bool",
          "name": "",
          "type": "bool"
        }
      ],
      "stateMutability": "nonpayable",
      "type": "function"
    },
    {
      "inputs": [
        {
          "internalType": "address",
          "name": "newOwner",
          "type": "address"
        }
      ],
      "name": "transferOwnership",
      "outputs": [],
      "stateMutability": "nonpayable",
      "type": "function"
    },
    {
      "inputs": [],
      "name": "unpause",
      "outputs": [],
      "stateMutability": "nonpayable",
      "type": "function"
    },
    {
      "inputs": [
        {
          "internalType": "address",
          "name": "newAddress",
          "type": "address"
        }
      ],
      "name": "updateAccumulatedReceiver",
      "outputs": [],
      "stateMutability": "nonpayable",
      "type": "function"
    },
    {
      "inputs": [
        {
          "internalType": "uint256",
          "name": "amountToApprove",
          "type": "uint256"
        }
      ],
      "name": "updateApproveLendingPool",
      "outputs": [],
      "stateMutability": "nonpayable",
      "type": "function"
    },
    {
      "inputs": [
        {
          "internalType": "uint256",
          "name": "newAmountOfBlocksPerDay",
          "type": "uint256"
        }
      ],
      "name": "updateBlocksPerDay",
      "outputs": [],
      "stateMutability": "nonpayable",
      "type": "function"
    },
    {
      "inputs": [
        {
          "internalType": "uint256",
          "name": "newCurveFactor",
          "type": "uint256"
        }
      ],
      "name": "updateCurveFactor",
      "outputs": [],
      "stateMutability": "nonpayable",
      "type": "function"
    },
    {
      "inputs": [
        {
          "internalType": "address",
          "name": "newAddress",
          "type": "address"
        }
      ],
      "name": "updateFeeReceiver",
      "outputs": [],
      "stateMutability": "nonpayable",
      "type": "function"
    },
    {
      "inputs": [
        {
          "internalType": "uint256[]",
          "name": "newLevelAntes",
          "type": "uint256[]"
        }
      ],
      "name": "updateLevelAntes",
      "outputs": [],
      "stateMutability": "nonpayable",
      "type": "function"
    },
    {
      "inputs": [
        {
          "internalType": "uint256[]",
          "name": "newLevelDiscounts",
          "type": "uint256[]"
        }
      ],
      "name": "updateLevelDiscounts",
      "outputs": [],
      "stateMutability": "nonpayable",
      "type": "function"
    },
    {
      "inputs": [
        {
          "internalType": "uint256[]",
          "name": "newLevelHolds",
          "type": "uint256[]"
        }
      ],
      "name": "updateLevelHolds",
      "outputs": [],
      "stateMutability": "nonpayable",
      "type": "function"
    },
    {
      "inputs": [
        {
          "internalType": "address",
          "name": "newAddress",
          "type": "address"
        }
      ],
      "name": "updatePolygonAMUSDC",
      "outputs": [],
      "stateMutability": "nonpayable",
      "type": "function"
    },
    {
      "inputs": [
        {
          "internalType": "address",
          "name": "newAddress",
          "type": "address"
        }
      ],
      "name": "updatePolygonLendingPool",
      "outputs": [],
      "stateMutability": "nonpayable",
      "type": "function"
    },
    {
      "inputs": [
        {
          "internalType": "address",
          "name": "newAddress",
          "type": "address"
        }
      ],
      "name": "updatePolygonUSDC",
      "outputs": [],
      "stateMutability": "nonpayable",
      "type": "function"
    },
    {
      "inputs": [
        {
          "internalType": "address",
          "name": "userToModifyWL",
          "type": "address"
        },
        {
          "internalType": "bool",
          "name": "newStatus",
          "type": "bool"
        }
      ],
      "name": "updateWhitelisted",
      "outputs": [],
      "stateMutability": "nonpayable",
      "type": "function"
    },
    {
      "inputs": [
        {
          "internalType": "uint256",
          "name": "amount",
          "type": "uint256"
        }
      ],
      "name": "withdrawAccumulated",
      "outputs": [],
      "stateMutability": "nonpayable",
      "type": "function"
    },
    {
      "inputs": [
        {
          "internalType": "address",
          "name": "ERC20ContractAddress",
          "type": "address"
        },
        {
          "internalType": "uint256",
          "name": "amount",
          "type": "uint256"
        }
      ],
      "name": "withdrawERC20",
      "outputs": [],
      "stateMutability": "nonpayable",
      "type": "function"
    },
    {
      "stateMutability": "payable",
      "type": "receive"
    }
  ],
  "bytecode": "0x6080604052620f4240600655620c3500600755600a60115561a8c060125560026013553480156200002f57600080fd5b50604080518082018252600981526842656e6a616d696e7360b81b602080830191825283518085019094526004845263424e4a4960e01b9084015281519192916200007d9160039162000430565b5080516200009390600490602084019062000430565b5050506000620000a8620002c060201b60201c565b600580546001600160a01b0319166001600160a01b038316908117909155604051919250906000907f8be0079c531659141344cd1fd0a4f28419497f9722a3daafe3b4186f6b6457e0908290a3506005805460ff60a01b191690556001600855600980546001600160a01b03199081163017909155600a8054821673a9ece84e3139cba81f60f648002d38c635cd857d179055600b8054909116737c976677499803bbc72262784ec45088715c02211790556200017062000168620002c4565b6001620002d3565b600b805460ff60a01b19169055601580546001600160a01b0319908116732791bca1f2de4661ed88a30c99a7a9449aa8417417909155601680548216731a13f4ca1d028320a707d99520abfefca3998b7f17905560148054909116738dff5e27ea6b7ac08ebfdf9eb090f32ee9a30fcf1781556040805160c081018252600081526020810192909252603c90820152606460608201526101f460808201526107d060a08201526200022690600e906006620004bf565b506040805160c0810182526000815260026020820152600791810191909152601e6060820152605a608082015261016860a08201526200026b90600f906006620004bf565b506040805160c0810182526000815260056020820152600a918101919091526014606082015260286080820152604b60a0820152620002af90601090600662000503565b50620002ba6200034d565b6200060d565b3390565b6005546001600160a01b031690565b620002dd620002c0565b6001600160a01b0316620002f0620002c4565b6001600160a01b031614620003225760405162461bcd60e51b815260040162000319906200059b565b60405180910390fd5b6001600160a01b03919091166000908152600d60205260409020805460ff1916911515919091179055565b62000357620002c0565b6001600160a01b03166200036a620002c4565b6001600160a01b031614620003935760405162461bcd60e51b815260040162000319906200059b565b6200039d6200039f565b565b620003a962000420565b15620003c95760405162461bcd60e51b8152600401620003199062000571565b6005805460ff60a01b1916600160a01b1790557f62e78cea01bee320cd4e420270b5ea74000d11b0c9f74754ebdbfc544b05a25862000407620002c0565b6040516200041691906200055d565b60405180910390a1565b600554600160a01b900460ff1690565b8280546200043e90620005d0565b90600052602060002090601f016020900481019282620004625760008555620004ad565b82601f106200047d57805160ff1916838001178555620004ad565b82800160010185558215620004ad579182015b82811115620004ad57825182559160200191906001019062000490565b50620004bb92915062000546565b5090565b828054828255906000526020600020908101928215620004ad579160200282015b82811115620004ad578251829061ffff16905591602001919060010190620004e0565b828054828255906000526020600020908101928215620004ad579160200282015b82811115620004ad578251829060ff1690559160200191906001019062000524565b5b80821115620004bb576000815560010162000547565b6001600160a01b0391909116815260200190565b60208082526010908201526f14185d5cd8589b194e881c185d5cd95960821b604082015260600190565b6020808252818101527f4f776e61626c653a2063616c6c6572206973206e6f7420746865206f776e6572604082015260600190565b600281046001821680620005e557607f821691505b602082108114156200060757634e487b7160e01b600052602260045260246000fd5b50919050565b61363f806200061d6000396000f3fe6080604052600436106102e85760003560e01c8063a1db978211610190578063c6a5d5da116100dc578063e4bbe7eb11610095578063f239dedf1161006f578063f239dedf1461087b578063f2fde38b146108a9578063f98b242f146108c9578063fe426166146108de576102ef565b8063e4bbe7eb1461081b578063e8e6f9ad1461083b578063f167bfc31461085b576102ef565b8063c6a5d5da14610766578063cd0d95e214610786578063ceec6b2a146107a6578063cfad0eb6146107c6578063d948e104146107e6578063dd62ed3e146107fb576102ef565b8063b0eb85ea11610149578063c346e98011610123578063c346e980146106e6578063c571474414610706578063c62548a814610726578063c69bebe414610746576102ef565b8063b0eb85ea14610686578063bb6d5e3b146106a6578063c0100143146106c6576102ef565b8063a1db9782146105d1578063a457c2d7146105f1578063a7b9c8ae14610611578063a9059cbb14610631578063aaa8198414610651578063b0de368014610666576102ef565b8063395093511161024f57806370a08231116102085780638da5cb5b116101e25780638da5cb5b146105725780638fb3301714610587578063926fcfc41461059c57806395d89b41146105bc576102ef565b806370a0823114610528578063715018a6146105485780638456cb591461055d576102ef565b806339509351146104895780633f4ba83a146104a957806358191963146104be5780635c975abb146104de5780635f03e644146104f35780636c75297414610513576102ef565b80631adedf06116102a15780631adedf06146103c757806323b872dd146103e7578063257a0050146104075780632853c2f714610427578063313ce56714610447578063383b16df14610469576102ef565b806303d376a5146102f457806306fdde031461031f578063095ea7b31461034157806310b4afb31461036e578063160873151461039057806318160ddd146103b2576102ef565b366102ef57005b600080fd5b34801561030057600080fd5b506103096108fe565b60405161031691906134a4565b60405180910390f35b34801561032b57600080fd5b50610334610904565b6040516103169190612ac9565b34801561034d57600080fd5b5061036161035c366004612815565b610996565b6040516103169190612abe565b34801561037a57600080fd5b506103836109b3565b60405161031691906129d2565b34801561039c57600080fd5b506103b06103ab366004612758565b6109c2565b005b3480156103be57600080fd5b50610309610a52565b3480156103d357600080fd5b506103096103e2366004612758565b610a58565b3480156103f357600080fd5b506103616104023660046127a4565b610aac565b34801561041357600080fd5b506103b0610422366004612758565b610b38565b34801561043357600080fd5b506103b0610442366004612914565b610bbf565b34801561045357600080fd5b5061045c610c03565b60405161031691906134dc565b34801561047557600080fd5b506103b061048436600461283e565b610c13565b34801561049557600080fd5b506103616104a4366004612815565b610c69565b3480156104b557600080fd5b506103b0610cb8565b3480156104ca57600080fd5b506103b06104d9366004612944565b610d01565b3480156104ea57600080fd5b50610361610d10565b3480156104ff57600080fd5b5061030961050e366004612914565b610d20565b34801561051f57600080fd5b50610383610d61565b34801561053457600080fd5b50610309610543366004612758565b610d70565b34801561055457600080fd5b506103b0610d8b565b34801561056957600080fd5b506103b0610e14565b34801561057e57600080fd5b50610383610e5b565b34801561059357600080fd5b50610383610e6a565b3480156105a857600080fd5b506103b06105b736600461283e565b610e79565b3480156105c857600080fd5b50610334610ecb565b3480156105dd57600080fd5b506103b06105ec366004612815565b610eda565b3480156105fd57600080fd5b5061036161060c366004612815565b610fa1565b34801561061d57600080fd5b506103b061062c366004612914565b61101c565b34801561063d57600080fd5b5061036161064c366004612815565b6110e3565b34801561065d57600080fd5b50610309611137565b34801561067257600080fd5b506103b0610681366004612914565b61113d565b34801561069257600080fd5b506103b06106a136600461283e565b611229565b3480156106b257600080fd5b506103b06106c1366004612914565b61127b565b3480156106d257600080fd5b506103b06106e1366004612758565b611285565b3480156106f257600080fd5b50610309610701366004612914565b61130c565b34801561071257600080fd5b506103b0610721366004612914565b611347565b34801561073257600080fd5b506103b06107413660046127df565b611351565b34801561075257600080fd5b506103b0610761366004612758565b6113bb565b34801561077257600080fd5b506103b0610781366004612914565b611442565b34801561079257600080fd5b506103b06107a1366004612914565b611486565b3480156107b257600080fd5b506103096107c1366004612758565b6114fb565b3480156107d257600080fd5b506103b06107e1366004612758565b61153e565b3480156107f257600080fd5b506103836115c5565b34801561080757600080fd5b50610309610816366004612772565b6115d4565b34801561082757600080fd5b50610309610836366004612966565b6115ff565b34801561084757600080fd5b50610309610856366004612966565b6116c1565b34801561086757600080fd5b50610309610876366004612758565b611718565b34801561088757600080fd5b5061089b610896366004612758565b611792565b6040516103169291906134ce565b3480156108b557600080fd5b506103b06108c4366004612758565b6117d2565b3480156108d557600080fd5b50610309611893565b3480156108ea57600080fd5b506103b06108f9366004612944565b6118ec565b60125490565b6060600380546109139061354c565b80601f016020809104026020016040519081016040528092919081815260200182805461093f9061354c565b801561098c5780601f106109615761010080835404028352916020019161098c565b820191906000526020600020905b81548152906001019060200180831161096f57829003601f168201915b5050505050905090565b60006109aa6109a36118f6565b84846118fa565b50600192915050565b6009546001600160a01b031681565b6109ca6118f6565b6001600160a01b03166109db610e5b565b6001600160a01b031614610a0a5760405162461bcd60e51b8152600401610a0190613183565b60405180910390fd5b6001600160a01b038116610a305760405162461bcd60e51b8152600401610a0190613215565b601580546001600160a01b0319166001600160a01b0392909216919091179055565b60025490565b6000610a63826119ae565b15610a7057506064610aa7565b6010610a7b83611718565b81548110610a9957634e487b7160e01b600052603260045260246000fd5b906000526020600020015490505b919050565b6000610ab7846119cc565b610ad35760405162461bcd60e51b8152600401610a0190612c49565b610ade848484611a0f565b6000610ae86118f6565b90506000610af686836115d4565b905083811015610b185760405162461bcd60e51b8152600401610a019061313b565b610b2c8683610b278785613535565b6118fa565b50600195945050505050565b610b406118f6565b6001600160a01b0316610b51610e5b565b6001600160a01b031614610b775760405162461bcd60e51b8152600401610a0190613183565b6001600160a01b038116610b9d5760405162461bcd60e51b8152600401610a0190612ded565b601480546001600160a01b0319166001600160a01b0392909216919091179055565b610bc76118f6565b6001600160a01b0316610bd8610e5b565b6001600160a01b031614610bfe5760405162461bcd60e51b8152600401610a0190613183565b600755565b600b54600160a01b900460ff1690565b610c1b6118f6565b6001600160a01b0316610c2c610e5b565b6001600160a01b031614610c525760405162461bcd60e51b8152600401610a0190613183565b8051610c6590600e9060208401906126e1565b5050565b60006109aa610c766118f6565b848460016000610c846118f6565b6001600160a01b03908116825260208083019390935260409182016000908120918b1681529252902054610b2791906134ea565b610cc06118f6565b6001600160a01b0316610cd1610e5b565b6001600160a01b031614610cf75760405162461bcd60e51b8152600401610a0190613183565b610cff611b37565b565b610d0b8282611ba8565b505050565b600554600160a01b900460ff1690565b6000610d2d6001836135a2565b15610d4a5760405162461bcd60e51b8152600401610a01906131b8565b610d5b610d55610a52565b836116c1565b92915050565b6015546001600160a01b031681565b6001600160a01b031660009081526020819052604090205490565b610d936118f6565b6001600160a01b0316610da4610e5b565b6001600160a01b031614610dca5760405162461bcd60e51b8152600401610a0190613183565b6005546040516000916001600160a01b0316907f8be0079c531659141344cd1fd0a4f28419497f9722a3daafe3b4186f6b6457e0908390a3600580546001600160a01b0319169055565b610e1c6118f6565b6001600160a01b0316610e2d610e5b565b6001600160a01b031614610e535760405162461bcd60e51b8152600401610a0190613183565b610cff61208b565b6005546001600160a01b031690565b6016546001600160a01b031681565b610e816118f6565b6001600160a01b0316610e92610e5b565b6001600160a01b031614610eb85760405162461bcd60e51b8152600401610a0190613183565b8051610c6590600f9060208401906126e1565b6060600480546109139061354c565b610ee26118f6565b6001600160a01b0316610ef3610e5b565b6001600160a01b031614610f195760405162461bcd60e51b8152600401610a0190613183565b60405163a9059cbb60e01b815282906001600160a01b0382169063a9059cbb90610f499033908690600401612a55565b602060405180830381600087803b158015610f6357600080fd5b505af1158015610f77573d6000803e3d6000fd5b505050506040513d601f19601f82011682018060405250810190610f9b91906128f8565b50505050565b60008060016000610fb06118f6565b6001600160a01b0390811682526020808301939093526040918201600090812091881681529252902054905082811015610ffc5760405162461bcd60e51b8152600401610a0190613428565b6110126110076118f6565b85610b278685613535565b5060019392505050565b6110246118f6565b6001600160a01b0316611035610e5b565b6001600160a01b03161461105b5760405162461bcd60e51b8152600401610a0190613183565b601654600b5460405163a9059cbb60e01b81526001600160a01b039283169263a9059cbb92611091929116908590600401612a55565b602060405180830381600087803b1580156110ab57600080fd5b505af11580156110bf573d6000803e3d6000fd5b505050506040513d601f19601f82011682018060405250810190610c6591906128f8565b60006110ee336119cc565b61110a5760405162461bcd60e51b8152600401610a019061302a565b6001600160a01b0383166000908152600c602052604090204390556109aa6111306118f6565b8484611a0f565b60135490565b6111456118f6565b6001600160a01b0316611156610e5b565b6001600160a01b03161461117c5760405162461bcd60e51b8152600401610a0190613183565b60145460155460095460405163e8eda9df60e01b81526001600160a01b039384169363e8eda9df936111bd9390821692879290911690600090600401612a91565b600060405180830381600087803b1580156111d757600080fd5b505af11580156111eb573d6000803e3d6000fd5b505050507fe4b07db4e98b8c4d7db7898ec0ca1004b8d388810ececa888262a4e5886027a98160405161121e91906134a4565b60405180910390a150565b6112316118f6565b6001600160a01b0316611242610e5b565b6001600160a01b0316146112685760405162461bcd60e51b8152600401610a0190613183565b8051610c659060109060208401906126e1565b610c658133611ba8565b61128d6118f6565b6001600160a01b031661129e610e5b565b6001600160a01b0316146112c45760405162461bcd60e51b8152600401610a0190613183565b6001600160a01b0381166112ea5760405162461bcd60e51b8152600401610a0190612fcd565b601680546001600160a01b0319166001600160a01b0392909216919091179055565b60006113196001836135a2565b156113365760405162461bcd60e51b8152600401610a01906131b8565b610d5b611341610a52565b836115ff565b610c6581336120ec565b6113596118f6565b6001600160a01b031661136a610e5b565b6001600160a01b0316146113905760405162461bcd60e51b8152600401610a0190613183565b6001600160a01b03919091166000908152600d60205260409020805460ff1916911515919091179055565b6113c36118f6565b6001600160a01b03166113d4610e5b565b6001600160a01b0316146113fa5760405162461bcd60e51b8152600401610a0190613183565b6001600160a01b0381166114205760405162461bcd60e51b8152600401610a0190612bec565b600a80546001600160a01b0319166001600160a01b0392909216919091179055565b61144a6118f6565b6001600160a01b031661145b610e5b565b6001600160a01b0316146114815760405162461bcd60e51b8152600401610a0190613183565b601255565b61148e6118f6565b6001600160a01b031661149f610e5b565b6001600160a01b0316146114c55760405162461bcd60e51b8152600401610a0190613183565b60155460145460405163095ea7b360e01b81526001600160a01b039283169263095ea7b392611091929116908590600401612a55565b6000601254600f61150b84611718565b8154811061152957634e487b7160e01b600052603260045260246000fd5b9060005260206000200154610d5b9190613516565b6115466118f6565b6001600160a01b0316611557610e5b565b6001600160a01b03161461157d5760405162461bcd60e51b8152600401610a0190613183565b6001600160a01b0381166115a35760405162461bcd60e51b8152600401610a01906130d0565b600b80546001600160a01b0319166001600160a01b0392909216919091179055565b6014546001600160a01b031681565b6001600160a01b03918216600090815260016020908152604080832093909416825291909152205490565b600080831180156116105750600082115b801561161c5750818310155b6116385760405162461bcd60e51b8152600401610a019061333c565b60006116448385613535565b905060006116528580613516565b905060006116608380613516565b9050600061166e8284613535565b90506000600654826116809190613516565b90506000600754826116929190613502565b905061271060006116a382846135a2565b905060006116b18285613535565b9c9b505050505050505050505050565b60008082116116e25760405162461bcd60e51b8152600401610a0190612da6565b60006116ee8480613516565b905060006116fc84866134ea565b9050600061170a8280613516565b9050600061166e8483613535565b60008061172483610d70565b905060005b81600e6117378360016134ea565b8154811061175557634e487b7160e01b600052603260045260246000fd5b90600052602060002001541161178b576107d0821061177957600592505050610aa7565b8061178381613587565b915050611729565b9392505050565b6001600160a01b0381166000908152600c6020526040812054819081906117b99043613535565b905060006117c6856114fb565b91935090915050915091565b6117da6118f6565b6001600160a01b03166117eb610e5b565b6001600160a01b0316146118115760405162461bcd60e51b8152600401610a0190613183565b6001600160a01b0381166118375760405162461bcd60e51b8152600401610a0190612cb3565b6005546040516001600160a01b038084169216907f8be0079c531659141344cd1fd0a4f28419497f9722a3daafe3b4186f6b6457e090600090a3600580546001600160a01b0319166001600160a01b0392909216919091179055565b600061189d6118f6565b6001600160a01b03166118ae610e5b565b6001600160a01b0316146118d45760405162461bcd60e51b8152600401610a0190613183565b6118e76118df610a52565b610836610a52565b905090565b610d0b82826120ec565b3390565b6001600160a01b0383166119205760405162461bcd60e51b8152600401610a01906132f8565b6001600160a01b0382166119465760405162461bcd60e51b8152600401610a0190612cf9565b6001600160a01b0380841660008181526001602090815260408083209487168084529490915290819020849055517f8c5be1e5ebec7d5bd14f71427d1e84f3dd0314c0f7b2291e5b200ac8c7c3b925906119a19085906134a4565b60405180910390a3505050565b6001600160a01b03166000908152600d602052604090205460ff1690565b6001600160a01b0381166000908152600c602052604081205481906119f19043613535565b90506011548111801561178b5750611a08836114fb565b1092915050565b6001600160a01b038316611a355760405162461bcd60e51b8152600401610a01906132b3565b6001600160a01b038216611a5b5760405162461bcd60e51b8152600401610a0190612adc565b611a66838383610d0b565b6001600160a01b03831660009081526020819052604090205481811015611a9f5760405162461bcd60e51b8152600401610a0190612e4b565b611aa98282613535565b6001600160a01b038086166000908152602081905260408082209390935590851681529081208054849290611adf9084906134ea565b92505081905550826001600160a01b0316846001600160a01b03167fddf252ad1be2c89b69c2b068fc378daa952ba7f163c4a11628f55a4df523b3ef84604051611b2991906134a4565b60405180910390a350505050565b611b3f610d10565b611b5b5760405162461bcd60e51b8152600401610a0190612b7c565b6005805460ff60a01b191690557f5db9ee0a495bf2e6ff9c91a7834c1ba4fdd244a5e8aa4e537bd38aeae4b073aa611b916118f6565b604051611b9e91906129d2565b60405180910390a1565b6000611bb2610d10565b15611bcf5760405162461bcd60e51b8152600401610a0190612fa3565b60026008541415611bf25760405162461bcd60e51b8152600401610a0190613389565b6002600855611c026001846135a2565b15611c1f5760405162461bcd60e51b8152600401610a01906131b8565b6000611c2a84610d20565b90506000611c3733610a58565b611c42906064613535565b905060006064806013548486611c589190613516565b611c629190613516565b611c6c9190613502565b611c769190613502565b90506000611c86612710836135a2565b90506000611c948284613535565b90506000611ca282876134ea565b6015546040516370a0823160e01b81529192506000916001600160a01b03909116906370a0823190611cd89033906004016129d2565b60206040518083038186803b158015611cf057600080fd5b505afa158015611d04573d6000803e3d6000fd5b505050506040513d601f19601f82011682018060405250810190611d28919061292c565b601554600954604051636eb1769f60e11b81529293506000926001600160a01b039283169263dd62ed3e92611d65923392909116906004016129e6565b60206040518083038186803b158015611d7d57600080fd5b505afa158015611d91573d6000803e3d6000fd5b505050506040513d601f19601f82011682018060405250810190611db5919061292c565b905081831115611dd75760405162461bcd60e51b8152600401610a0190613087565b80831115611df75760405162461bcd60e51b8152600401610a01906133c0565b624c4b40881015611e1a5760405162461bcd60e51b8152600401610a0190612b1f565b601554600a546040516323b872dd60e01b81526001600160a01b03928316926323b872dd92611e53923392909116908990600401612a00565b602060405180830381600087803b158015611e6d57600080fd5b505af1158015611e81573d6000803e3d6000fd5b505050506040513d601f19601f82011682018060405250810190611ea591906128f8565b506015546009546040516323b872dd60e01b81526001600160a01b03928316926323b872dd92611edf923392909116908d90600401612a00565b602060405180830381600087803b158015611ef957600080fd5b505af1158015611f0d573d6000803e3d6000fd5b505050506040513d601f19601f82011682018060405250810190611f3191906128f8565b50611f3b886114c5565b601554600954601454604051636eb1769f60e11b81526000936001600160a01b039081169363dd62ed3e93611f78939183169216906004016129e6565b60206040518083038186803b158015611f9057600080fd5b505afa158015611fa4573d6000803e3d6000fd5b505050506040513d601f19601f82011682018060405250810190611fc8919061292c565b9050612009816040518060400160405280602081526020017f424e4a2c204c656e64696e67506f6f6c416c6c6f77616e6365696e36646563208152506123f0565b6120128961117c565b6001600160a01b038b166000908152600c602052604090204390556120378b8d612435565b7f2a29d10d168703b19f822172b08b94bdc5193ee2506230339b28146638a7c5d5338c8e8c8960405161206e959493929190612a24565b60405180910390a150506001600855509498975050505050505050565b612093610d10565b156120b05760405162461bcd60e51b8152600401610a0190612fa3565b6005805460ff60a01b1916600160a01b1790557f62e78cea01bee320cd4e420270b5ea74000d11b0c9f74754ebdbfc544b05a258611b916118f6565b60006120f6610d10565b156121135760405162461bcd60e51b8152600401610a0190612fa3565b600260085414156121365760405162461bcd60e51b8152600401610a0190613389565b60026008556121466001846135a2565b156121635760405162461bcd60e51b8152600401610a01906131b8565b61216c336119cc565b6121885760405162461bcd60e51b8152600401610a0190612eee565b600061219333610d70565b9050600084116121b55760405162461bcd60e51b8152600401610a0190612f58565b838110156121d55760405162461bcd60e51b8152600401610a0190612d3b565b60006121e08561130c565b9050624c4b408110156122055760405162461bcd60e51b8152600401610a0190612e91565b600061221033610a58565b61221b906064613535565b9050600060648060135484866122319190613516565b61223b9190613516565b6122459190613502565b61224f9190613502565b9050600061225f612710836135a2565b9050600061226d8284613535565b9050600061227b8287613535565b9050612287338b6124f5565b7f8f3ef77da1b7bb3fb2726fcd8c9c15e0788c5e0ce3b5322441e4422879acbf5e338a8c89866040516122be959493929190612a24565b60405180910390a16122cf866125db565b601554600a5460405163a9059cbb60e01b81526001600160a01b039283169263a9059cbb92612305929116908690600401612a55565b602060405180830381600087803b15801561231f57600080fd5b505af1158015612333573d6000803e3d6000fd5b505050506040513d601f19601f8201168201806040525081019061235791906128f8565b5060155460405163a9059cbb60e01b81526001600160a01b039091169063a9059cbb9061238a908c908590600401612a55565b602060405180830381600087803b1580156123a457600080fd5b505af11580156123b8573d6000803e3d6000fd5b505050506040513d601f19601f820116820180604052508101906123dc91906128f8565b505060016008555092979650505050505050565b610c6582826040516024016124069291906134ad565b60408051601f198184030181529190526020810180516001600160e01b0316630fa3f34560e01b1790526126c0565b6001600160a01b03821661245b5760405162461bcd60e51b8152600401610a019061346d565b61246760008383610d0b565b806002600082825461247991906134ea565b90915550506001600160a01b038216600090815260208190526040812080548392906124a69084906134ea565b90915550506040516001600160a01b038316906000907fddf252ad1be2c89b69c2b068fc378daa952ba7f163c4a11628f55a4df523b3ef906124e99085906134a4565b60405180910390a35050565b6001600160a01b03821661251b5760405162461bcd60e51b8152600401610a0190613272565b61252782600083610d0b565b6001600160a01b038216600090815260208190526040902054818110156125605760405162461bcd60e51b8152600401610a0190612baa565b61256a8282613535565b6001600160a01b03841660009081526020819052604081209190915560028054849290612598908490613535565b90915550506040516000906001600160a01b038516907fddf252ad1be2c89b69c2b068fc378daa952ba7f163c4a11628f55a4df523b3ef906119a19086906134a4565b6125e3610d10565b156126005760405162461bcd60e51b8152600401610a0190612fa3565b601454601554600954604051631a4ca37b60e21b81526001600160a01b03938416936369328dec9361263e9390821692879290911690600401612a6e565b602060405180830381600087803b15801561265857600080fd5b505af115801561266c573d6000803e3d6000fd5b505050506040513d601f19601f82011682018060405250810190612690919061292c565b507fcf262399c7d7a6ef0283fba5e04858a528d91a896dc7bc72fa3e55fbfee77deb8160405161121e91906134a4565b80516a636f6e736f6c652e6c6f67602083016000808483855afa5050505050565b82805482825590600052602060002090810192821561271c579160200282015b8281111561271c578251825591602001919060010190612701565b5061272892915061272c565b5090565b5b80821115612728576000815560010161272d565b80356001600160a01b0381168114610aa757600080fd5b600060208284031215612769578081fd5b61178b82612741565b60008060408385031215612784578081fd5b61278d83612741565b915061279b60208401612741565b90509250929050565b6000806000606084860312156127b8578081fd5b6127c184612741565b92506127cf60208501612741565b9150604084013590509250925092565b600080604083850312156127f1578182fd5b6127fa83612741565b9150602083013561280a816135f8565b809150509250929050565b60008060408385031215612827578182fd5b61283083612741565b946020939093013593505050565b60006020808385031215612850578182fd5b823567ffffffffffffffff80821115612867578384fd5b818501915085601f83011261287a578384fd5b81358181111561288c5761288c6135e2565b838102604051858282010181811085821117156128ab576128ab6135e2565b604052828152858101935084860182860187018a10156128c9578788fd5b8795505b838610156128eb5780358552600195909501949386019386016128cd565b5098975050505050505050565b600060208284031215612909578081fd5b815161178b816135f8565b600060208284031215612925578081fd5b5035919050565b60006020828403121561293d578081fd5b5051919050565b60008060408385031215612956578182fd5b8235915061279b60208401612741565b60008060408385031215612978578182fd5b50508035926020909101359150565b60008151808452815b818110156129ac57602081850181015186830182015201612990565b818111156129bd5782602083870101525b50601f01601f19169290920160200192915050565b6001600160a01b0391909116815260200190565b6001600160a01b0392831681529116602082015260400190565b6001600160a01b039384168152919092166020820152604081019190915260600190565b6001600160a01b03958616815293909416602084015260408301919091526060820152608081019190915260a00190565b6001600160a01b03929092168252602082015260400190565b6001600160a01b0393841681526020810192909252909116604082015260600190565b6001600160a01b03948516815260208101939093529216604082015261ffff909116606082015260800190565b901515815260200190565b60006020825261178b6020830184612987565b60208082526023908201527f45524332303a207472616e7366657220746f20746865207a65726f206164647260408201526265737360e81b606082015260800190565b6020808252603a908201527f424e4a2c20737065636966696564416d6f756e744d696e743a204d696e696d7560408201527f6d206d696e74696e672076616c7565206f662024352055534443000000000000606082015260800190565b60208082526014908201527314185d5cd8589b194e881b9bdd081c185d5cd95960621b604082015260600190565b60208082526022908201527f45524332303a206275726e20616d6f756e7420657863656564732062616c616e604082015261636560f01b606082015260800190565b6020808252603d908201527f424e4a2c2075706461746546656552656365697665723a206e6577416464726560408201527f73732063616e6e6f7420626520746865207a65726f2061646472657373000000606082015260800190565b60208082526044908201527f424e4a2c207472616e7366657246726f6d3a20706179696e674164647265737360408201527f206973206e6f742079657420616c6c6f77656420746f2077697468647261772f606082015263313ab93760e11b608082015260a00190565b60208082526026908201527f4f776e61626c653a206e6577206f776e657220697320746865207a65726f206160408201526564647265737360d01b606082015260800190565b60208082526022908201527f45524332303a20617070726f766520746f20746865207a65726f206164647265604082015261737360f01b606082015260800190565b60208082526045908201527f424e4a2c20557365727320746f6b656e42616c616e6365206d7573742062652060408201527f657175616c20746f206f72206d6f7265207468616e20616d6f756e7420746f20606082015264313ab9371760d91b608082015260a00190565b60208082526027908201527f424e4a4943757276653a204d757374206d696e74206d6f7265207468616e203060408201526620746f6b656e7360c81b606082015260800190565b602080825260409082018190527f75706461746520506f6c79676f6e4c656e64696e67506f6f6c3a206e65774164908201527f64726573732063616e6e6f7420626520746865207a65726f2061646472657373606082015260800190565b60208082526026908201527f45524332303a207472616e7366657220616d6f756e7420657863656564732062604082015265616c616e636560d01b606082015260800190565b6020808252603a908201527f424e4a2c20737065636966696564416d6f756e744275726e3a204d696e696d7560408201527f6d206275726e696e672076616c75652069732024352055534443000000000000606082015260800190565b60208082526044908201527f424e4a2c20737065636966696564416d6f756e744275726e3a2073656e64657260408201527f206973206e6f742079657420616c6c6f77656420746f2077697468647261772f606082015263313ab93760e11b608082015260a00190565b6020808252602b908201527f424e4a2c20416d6f756e7420746f206275726e206d757374206265206d6f726560408201526a103a3430b7103d32b9379760a91b606082015260800190565b60208082526010908201526f14185d5cd8589b194e881c185d5cd95960821b604082015260600190565b6020808252603f908201527f424e4a2c20757064617465506f6c79676f6e414d555344433a206e657741646460408201527f726573732063616e6e6f7420626520746865207a65726f206164647265737300606082015260800190565b60208082526039908201527f424e4a2c207472616e736665723a2073656e646572206973206e6f742079657460408201527f20616c6c6f77656420746f2077697468647261772f6275726e00000000000000606082015260800190565b60208082526029908201527f424e4a2c20737065636966696564416d6f756e744d696e743a204e6f7420656e6040820152686f756768205553444360b81b606082015260800190565b60208082526045908201527f424e4a2c20757064617465416363756d756c6174656452656365697665723a2060408201527f6e6577416464726573732063616e6e6f7420626520746865207a65726f206164606082015264647265737360d81b608082015260a00190565b60208082526028908201527f45524332303a207472616e7366657220616d6f756e74206578636565647320616040820152676c6c6f77616e636560c01b606082015260800190565b6020808252818101527f4f776e61626c653a2063616c6c6572206973206e6f7420746865206f776e6572604082015260600190565b6020808252603a908201527f424e4a3a20616d6f756e74206d75737420626520646976697369626c6520627960408201527f20312c20424e4a49732068617665203020646563696d616c732e000000000000606082015260800190565b6020808252603d908201527f424e4a2c20757064617465506f6c79676f6e555344433a206e6577416464726560408201527f73732063616e6e6f7420626520746865207a65726f2061646472657373000000606082015260800190565b60208082526021908201527f45524332303a206275726e2066726f6d20746865207a65726f206164647265736040820152607360f81b606082015260800190565b60208082526025908201527f45524332303a207472616e736665722066726f6d20746865207a65726f206164604082015264647265737360d81b606082015260800190565b60208082526024908201527f45524332303a20617070726f76652066726f6d20746865207a65726f206164646040820152637265737360e01b606082015260800190565b6020808252602d908201527f424e4a4943757276653a2053656e64696e672061726773206d7573742062652060408201526c06c6172676572207468616e203609c1b606082015260800190565b6020808252601f908201527f5265656e7472616e637947756172643a207265656e7472616e742063616c6c00604082015260600190565b60208082526042908201527f424e4a2c20737065636966696564416d6f756e744d696e743a204e6f7420656e60408201527f6f75676820616c6c6f77616e636520696e205553444320666f72207061796d656060820152611b9d60f21b608082015260a00190565b60208082526025908201527f45524332303a2064656372656173656420616c6c6f77616e63652062656c6f77604082015264207a65726f60d81b606082015260800190565b6020808252601f908201527f45524332303a206d696e7420746f20746865207a65726f206164647265737300604082015260600190565b90815260200190565b6000838252604060208301526134c66040830184612987565b949350505050565b918252602082015260400190565b60ff91909116815260200190565b600082198211156134fd576134fd6135b6565b500190565b600082613511576135116135cc565b500490565b6000816000190483118215151615613530576135306135b6565b500290565b600082821015613547576135476135b6565b500390565b60028104600182168061356057607f821691505b6020821081141561358157634e487b7160e01b600052602260045260246000fd5b50919050565b600060001982141561359b5761359b6135b6565b5060010190565b6000826135b1576135b16135cc565b500690565b634e487b7160e01b600052601160045260246000fd5b634e487b7160e01b600052601260045260246000fd5b634e487b7160e01b600052604160045260246000fd5b801515811461360657600080fd5b5056fea264697066735822122007cd4c8a04f75d6f308f5190697313d069d7d7323bc9b7f9dad32afaf260019e64736f6c63430008000033",
  "linkReferences": {},
  "deployedLinkReferences": {}
}