{
  "_format": "hh-sol-artifact-1",
  "contractName": "Benjamins",
  "sourceName": "contracts/Benjamins.sol",
  "abi": [
    {
      "inputs": [],
      "stateMutability": "nonpayable",
      "type": "constructor"
    },
    {
      "anonymous": false,
      "inputs": [
        {
          "indexed": true,
          "internalType": "address",
          "name": "owner",
          "type": "address"
        },
        {
          "indexed": true,
          "internalType": "address",
          "name": "spender",
          "type": "address"
        },
        {
          "indexed": false,
          "internalType": "uint256",
          "name": "value",
          "type": "uint256"
        }
      ],
      "name": "Approval",
      "type": "event"
    },
    {
      "anonymous": false,
      "inputs": [
        {
          "indexed": false,
          "internalType": "uint256",
          "name": "amount",
          "type": "uint256"
        }
      ],
      "name": "LendingPoolDeposit",
      "type": "event"
    },
    {
      "anonymous": false,
      "inputs": [
        {
          "indexed": false,
          "internalType": "uint256",
          "name": "amount",
          "type": "uint256"
        }
      ],
      "name": "LendingPoolWithdrawal",
      "type": "event"
    },
    {
      "anonymous": false,
      "inputs": [
        {
          "indexed": true,
          "internalType": "address",
          "name": "previousOwner",
          "type": "address"
        },
        {
          "indexed": true,
          "internalType": "address",
          "name": "newOwner",
          "type": "address"
        }
      ],
      "name": "OwnershipTransferred",
      "type": "event"
    },
    {
      "anonymous": false,
      "inputs": [
        {
          "indexed": false,
          "internalType": "address",
          "name": "account",
          "type": "address"
        }
      ],
      "name": "Paused",
      "type": "event"
    },
    {
      "anonymous": false,
      "inputs": [
        {
          "indexed": false,
          "internalType": "address",
          "name": "sender",
          "type": "address"
        },
        {
          "indexed": false,
          "internalType": "address",
          "name": "receiverOfUSDC",
          "type": "address"
        },
        {
          "indexed": false,
          "internalType": "uint256",
          "name": "tokenAmount",
          "type": "uint256"
        },
        {
          "indexed": false,
          "internalType": "uint256",
          "name": "returnForBurning",
          "type": "uint256"
        }
      ],
      "name": "SpecifiedBurnEvent",
      "type": "event"
    },
    {
      "anonymous": false,
      "inputs": [
        {
          "indexed": false,
          "internalType": "address",
          "name": "sender",
          "type": "address"
        },
        {
          "indexed": false,
          "internalType": "address",
          "name": "receiverOfTokens",
          "type": "address"
        },
        {
          "indexed": false,
          "internalType": "uint256",
          "name": "tokenAmount",
          "type": "uint256"
        },
        {
          "indexed": false,
          "internalType": "uint256",
          "name": "priceForMintingIn6dec",
          "type": "uint256"
        }
      ],
      "name": "SpecifiedMintEvent",
      "type": "event"
    },
    {
      "anonymous": false,
      "inputs": [
        {
          "indexed": true,
          "internalType": "address",
          "name": "from",
          "type": "address"
        },
        {
          "indexed": true,
          "internalType": "address",
          "name": "to",
          "type": "address"
        },
        {
          "indexed": false,
          "internalType": "uint256",
          "name": "value",
          "type": "uint256"
        }
      ],
      "name": "Transfer",
      "type": "event"
    },
    {
      "anonymous": false,
      "inputs": [
        {
          "indexed": false,
          "internalType": "address",
          "name": "account",
          "type": "address"
        }
      ],
      "name": "Unpaused",
      "type": "event"
    },
    {
      "inputs": [],
      "name": "addressOfThisContract",
      "outputs": [
        {
          "internalType": "address",
          "name": "",
          "type": "address"
        }
      ],
      "stateMutability": "view",
      "type": "function"
    },
    {
      "inputs": [
        {
          "internalType": "address",
          "name": "owner",
          "type": "address"
        },
        {
          "internalType": "address",
          "name": "spender",
          "type": "address"
        }
      ],
      "name": "allowance",
      "outputs": [
        {
          "internalType": "uint256",
          "name": "",
          "type": "uint256"
        }
      ],
      "stateMutability": "view",
      "type": "function"
    },
    {
      "inputs": [
        {
          "internalType": "address",
          "name": "userToCheck",
          "type": "address"
        }
      ],
      "name": "amountBlocksHoldingNeeded",
      "outputs": [
        {
          "internalType": "uint256",
          "name": "",
          "type": "uint256"
        }
      ],
      "stateMutability": "view",
      "type": "function"
    },
    {
      "inputs": [
        {
          "internalType": "address",
          "name": "spender",
          "type": "address"
        },
        {
          "internalType": "uint256",
          "name": "amount",
          "type": "uint256"
        }
      ],
      "name": "approve",
      "outputs": [
        {
          "internalType": "bool",
          "name": "",
          "type": "bool"
        }
      ],
      "stateMutability": "nonpayable",
      "type": "function"
    },
    {
      "inputs": [
        {
          "internalType": "address",
          "name": "account",
          "type": "address"
        }
      ],
      "name": "balanceOf",
      "outputs": [
        {
          "internalType": "uint256",
          "name": "",
          "type": "uint256"
        }
      ],
      "stateMutability": "view",
      "type": "function"
    },
    {
      "inputs": [
        {
          "internalType": "uint256",
          "name": "amountOfBNJIs",
          "type": "uint256"
        },
        {
          "internalType": "address",
          "name": "receiverOfUSDC",
          "type": "address"
        }
      ],
      "name": "burnForBeneficiary",
      "outputs": [],
      "stateMutability": "nonpayable",
      "type": "function"
    },
    {
      "inputs": [
        {
          "internalType": "uint256",
          "name": "amountOfBNJIs",
          "type": "uint256"
        }
      ],
      "name": "burnForSelf",
      "outputs": [],
      "stateMutability": "nonpayable",
      "type": "function"
    },
    {
      "inputs": [],
      "name": "calcAllTokensValue",
      "outputs": [
        {
          "internalType": "uint256",
          "name": "allTokensReturn",
          "type": "uint256"
        }
      ],
      "stateMutability": "view",
      "type": "function"
    },
    {
      "inputs": [
        {
          "internalType": "address",
          "name": "userToCheck",
          "type": "address"
        }
      ],
      "name": "calcCurrentLevel",
      "outputs": [
        {
          "internalType": "uint256",
          "name": "",
          "type": "uint256"
        }
      ],
      "stateMutability": "view",
      "type": "function"
    },
    {
      "inputs": [
        {
          "internalType": "address",
          "name": "userToCheck",
          "type": "address"
        }
      ],
      "name": "calcDiscount",
      "outputs": [
        {
          "internalType": "uint256",
          "name": "",
          "type": "uint256"
        }
      ],
      "stateMutability": "view",
      "type": "function"
    },
    {
      "inputs": [
        {
          "internalType": "uint256",
          "name": "supply",
          "type": "uint256"
        },
        {
          "internalType": "uint256",
          "name": "tokensToMint",
          "type": "uint256"
        }
      ],
      "name": "calcPriceForTokenMint",
      "outputs": [
        {
          "internalType": "uint256",
          "name": "",
          "type": "uint256"
        }
      ],
      "stateMutability": "view",
      "type": "function"
    },
    {
      "inputs": [
        {
          "internalType": "uint256",
          "name": "supply",
          "type": "uint256"
        },
        {
          "internalType": "uint256",
          "name": "tokensToBurn",
          "type": "uint256"
        }
      ],
      "name": "calcReturnForTokenBurn",
      "outputs": [
        {
          "internalType": "uint256",
          "name": "",
          "type": "uint256"
        }
      ],
      "stateMutability": "view",
      "type": "function"
    },
    {
      "inputs": [
        {
          "internalType": "uint256",
          "name": "amount",
          "type": "uint256"
        }
      ],
      "name": "calcSpecBurnReturn",
      "outputs": [
        {
          "internalType": "uint256",
          "name": "burnReturn",
          "type": "uint256"
        }
      ],
      "stateMutability": "view",
      "type": "function"
    },
    {
      "inputs": [
        {
          "internalType": "uint256",
          "name": "amount",
          "type": "uint256"
        }
      ],
      "name": "calcSpecMintReturn",
      "outputs": [
        {
          "internalType": "uint256",
          "name": "mintPrice",
          "type": "uint256"
        }
      ],
      "stateMutability": "view",
      "type": "function"
    },
    {
      "inputs": [],
      "name": "decimals",
      "outputs": [
        {
          "internalType": "uint8",
          "name": "",
          "type": "uint8"
        }
      ],
      "stateMutability": "view",
      "type": "function"
    },
    {
      "inputs": [
        {
          "internalType": "address",
          "name": "spender",
          "type": "address"
        },
        {
          "internalType": "uint256",
          "name": "subtractedValue",
          "type": "uint256"
        }
      ],
      "name": "decreaseAllowance",
      "outputs": [
        {
          "internalType": "bool",
          "name": "",
          "type": "bool"
        }
      ],
      "stateMutability": "nonpayable",
      "type": "function"
    },
    {
      "inputs": [
        {
          "internalType": "uint256",
          "name": "amount",
          "type": "uint256"
        }
      ],
      "name": "depositUSDCBuffer",
      "outputs": [],
      "stateMutability": "nonpayable",
      "type": "function"
    },
    {
      "inputs": [
        {
          "internalType": "address",
          "name": "spender",
          "type": "address"
        },
        {
          "internalType": "uint256",
          "name": "addedValue",
          "type": "uint256"
        }
      ],
      "name": "increaseAllowance",
      "outputs": [
        {
          "internalType": "bool",
          "name": "",
          "type": "bool"
        }
      ],
      "stateMutability": "nonpayable",
      "type": "function"
    },
    {
      "inputs": [
        {
          "internalType": "uint256",
          "name": "amountOfBNJIs",
          "type": "uint256"
        },
        {
          "internalType": "address",
          "name": "receiverOfTokens",
          "type": "address"
        }
      ],
      "name": "mintToBeneficiary",
      "outputs": [],
      "stateMutability": "nonpayable",
      "type": "function"
    },
    {
      "inputs": [
        {
          "internalType": "uint256",
          "name": "amountOfBNJIs",
          "type": "uint256"
        }
      ],
      "name": "mintToSelf",
      "outputs": [],
      "stateMutability": "nonpayable",
      "type": "function"
    },
    {
      "inputs": [],
      "name": "name",
      "outputs": [
        {
          "internalType": "string",
          "name": "",
          "type": "string"
        }
      ],
      "stateMutability": "view",
      "type": "function"
    },
    {
      "inputs": [],
      "name": "owner",
      "outputs": [
        {
          "internalType": "address",
          "name": "",
          "type": "address"
        }
      ],
      "stateMutability": "view",
      "type": "function"
    },
    {
      "inputs": [],
      "name": "pause",
      "outputs": [],
      "stateMutability": "nonpayable",
      "type": "function"
    },
    {
      "inputs": [],
      "name": "paused",
      "outputs": [
        {
          "internalType": "bool",
          "name": "",
          "type": "bool"
        }
      ],
      "stateMutability": "view",
      "type": "function"
    },
    {
      "inputs": [],
      "name": "polygonAMUSDC",
      "outputs": [
        {
          "internalType": "contract IERC20",
          "name": "",
          "type": "address"
        }
      ],
      "stateMutability": "view",
      "type": "function"
    },
    {
      "inputs": [],
      "name": "polygonLendingPool",
      "outputs": [
        {
          "internalType": "contract ILendingPool",
          "name": "",
          "type": "address"
        }
      ],
      "stateMutability": "view",
      "type": "function"
    },
    {
      "inputs": [],
      "name": "polygonUSDC",
      "outputs": [
        {
          "internalType": "contract IERC20",
          "name": "",
          "type": "address"
        }
      ],
      "stateMutability": "view",
      "type": "function"
    },
    {
      "inputs": [],
      "name": "renounceOwnership",
      "outputs": [],
      "stateMutability": "nonpayable",
      "type": "function"
    },
    {
      "inputs": [],
      "name": "showBaseFee",
      "outputs": [
        {
          "internalType": "uint256",
          "name": "",
          "type": "uint256"
        }
      ],
      "stateMutability": "view",
      "type": "function"
    },
    {
      "inputs": [],
      "name": "symbol",
      "outputs": [
        {
          "internalType": "string",
          "name": "",
          "type": "string"
        }
      ],
      "stateMutability": "view",
      "type": "function"
    },
    {
      "inputs": [],
      "name": "totalSupply",
      "outputs": [
        {
          "internalType": "uint256",
          "name": "",
          "type": "uint256"
        }
      ],
      "stateMutability": "view",
      "type": "function"
    },
    {
      "inputs": [
        {
          "internalType": "address",
          "name": "receiver",
          "type": "address"
        },
        {
          "internalType": "uint256",
          "name": "amountOfBNJIs",
          "type": "uint256"
        }
      ],
      "name": "transfer",
      "outputs": [
        {
          "internalType": "bool",
          "name": "",
          "type": "bool"
        }
      ],
      "stateMutability": "nonpayable",
      "type": "function"
    },
    {
      "inputs": [
        {
          "internalType": "address",
          "name": "payingAddress",
          "type": "address"
        },
        {
          "internalType": "address",
          "name": "receiver",
          "type": "address"
        },
        {
          "internalType": "uint256",
          "name": "amountOfBNJIs",
          "type": "uint256"
        }
      ],
      "name": "transferFrom",
      "outputs": [
        {
          "internalType": "bool",
          "name": "",
          "type": "bool"
        }
      ],
      "stateMutability": "nonpayable",
      "type": "function"
    },
    {
      "inputs": [
        {
          "internalType": "address",
          "name": "newOwner",
          "type": "address"
        }
      ],
      "name": "transferOwnership",
      "outputs": [],
      "stateMutability": "nonpayable",
      "type": "function"
    },
    {
      "inputs": [],
      "name": "unpause",
      "outputs": [],
      "stateMutability": "nonpayable",
      "type": "function"
    },
    {
      "inputs": [
        {
          "internalType": "address",
          "name": "newAddress",
          "type": "address"
        }
      ],
      "name": "updateAccumulatedReceiver",
      "outputs": [],
      "stateMutability": "nonpayable",
      "type": "function"
    },
    {
      "inputs": [
        {
          "internalType": "uint256",
          "name": "amountToApprove",
          "type": "uint256"
        }
      ],
      "name": "updateApproveLendingPool",
      "outputs": [],
      "stateMutability": "nonpayable",
      "type": "function"
    },
    {
      "inputs": [
        {
          "internalType": "uint256",
          "name": "newCurveFactor",
          "type": "uint256"
        }
      ],
      "name": "updateCurveFactor",
      "outputs": [],
      "stateMutability": "nonpayable",
      "type": "function"
    },
    {
      "inputs": [
        {
          "internalType": "address",
          "name": "newAddress",
          "type": "address"
        }
      ],
      "name": "updateFeeReceiver",
      "outputs": [],
      "stateMutability": "nonpayable",
      "type": "function"
    },
    {
      "inputs": [
        {
          "internalType": "uint256[]",
          "name": "newLevelAntes",
          "type": "uint256[]"
        }
      ],
      "name": "updateLevelAntes",
      "outputs": [],
      "stateMutability": "nonpayable",
      "type": "function"
    },
    {
      "inputs": [
        {
          "internalType": "uint256[]",
          "name": "newLevelDiscounts",
          "type": "uint256[]"
        }
      ],
      "name": "updateLevelDiscounts",
      "outputs": [],
      "stateMutability": "nonpayable",
      "type": "function"
    },
    {
      "inputs": [
        {
          "internalType": "uint256[]",
          "name": "newLevelHolds",
          "type": "uint256[]"
        }
      ],
      "name": "updateLevelHolds",
      "outputs": [],
      "stateMutability": "nonpayable",
      "type": "function"
    },
    {
      "inputs": [
        {
          "internalType": "address",
          "name": "newAddress",
          "type": "address"
        }
      ],
      "name": "updatePolygonAMUSDC",
      "outputs": [],
      "stateMutability": "nonpayable",
      "type": "function"
    },
    {
      "inputs": [
        {
          "internalType": "address",
          "name": "newAddress",
          "type": "address"
        }
      ],
      "name": "updatePolygonLendingPool",
      "outputs": [],
      "stateMutability": "nonpayable",
      "type": "function"
    },
    {
      "inputs": [
        {
          "internalType": "address",
          "name": "newAddress",
          "type": "address"
        }
      ],
      "name": "updatePolygonUSDC",
      "outputs": [],
      "stateMutability": "nonpayable",
      "type": "function"
    },
    {
      "inputs": [
        {
          "internalType": "address",
          "name": "userToModifyWL",
          "type": "address"
        },
        {
          "internalType": "bool",
          "name": "newStatus",
          "type": "bool"
        }
      ],
      "name": "updateWhitelisted",
      "outputs": [],
      "stateMutability": "nonpayable",
      "type": "function"
    },
    {
      "inputs": [
        {
          "internalType": "uint256",
          "name": "amount",
          "type": "uint256"
        }
      ],
      "name": "withdrawAccumulated",
      "outputs": [],
      "stateMutability": "nonpayable",
      "type": "function"
    },
    {
      "inputs": [
        {
          "internalType": "address",
          "name": "ERC20ContractAddress",
          "type": "address"
        },
        {
          "internalType": "uint256",
          "name": "amount",
          "type": "uint256"
        }
      ],
      "name": "withdrawERC20",
      "outputs": [],
      "stateMutability": "nonpayable",
      "type": "function"
    },
    {
      "stateMutability": "payable",
      "type": "receive"
    }
  ],
  "bytecode": "0x6080604052620f4240600655620c3500600755600a60115561a8c060125560026013553480156200002f57600080fd5b50604080518082018252600981526842656e6a616d696e7360b81b602080830191825283518085019094526004845263424e4a4960e01b9084015281519192916200007d9160039162000430565b5080516200009390600490602084019062000430565b5050506000620000a8620002c060201b60201c565b600580546001600160a01b0319166001600160a01b038316908117909155604051919250906000907f8be0079c531659141344cd1fd0a4f28419497f9722a3daafe3b4186f6b6457e0908290a3506005805460ff60a01b191690556001600855600980546001600160a01b03199081163017909155600a8054821673a9ece84e3139cba81f60f648002d38c635cd857d179055600b8054909116737c976677499803bbc72262784ec45088715c02211790556200017062000168620002c4565b6001620002d3565b600b805460ff60a01b19169055601580546001600160a01b0319908116732791bca1f2de4661ed88a30c99a7a9449aa8417417909155601680548216731a13f4ca1d028320a707d99520abfefca3998b7f17905560148054909116738dff5e27ea6b7ac08ebfdf9eb090f32ee9a30fcf1781556040805160c081018252600081526020810192909252603c90820152606460608201526101f460808201526107d060a08201526200022690600e906006620004bf565b506040805160c0810182526000815260026020820152600791810191909152601e6060820152605a608082015261016860a08201526200026b90600f906006620004bf565b506040805160c0810182526000815260056020820152600a918101919091526014606082015260286080820152604b60a0820152620002af90601090600662000503565b50620002ba6200034d565b6200060d565b3390565b6005546001600160a01b031690565b620002dd620002c0565b6001600160a01b0316620002f0620002c4565b6001600160a01b031614620003225760405162461bcd60e51b815260040162000319906200059b565b60405180910390fd5b6001600160a01b03919091166000908152600d60205260409020805460ff1916911515919091179055565b62000357620002c0565b6001600160a01b03166200036a620002c4565b6001600160a01b031614620003935760405162461bcd60e51b815260040162000319906200059b565b6200039d6200039f565b565b620003a962000420565b15620003c95760405162461bcd60e51b8152600401620003199062000571565b6005805460ff60a01b1916600160a01b1790557f62e78cea01bee320cd4e420270b5ea74000d11b0c9f74754ebdbfc544b05a25862000407620002c0565b6040516200041691906200055d565b60405180910390a1565b600554600160a01b900460ff1690565b8280546200043e90620005d0565b90600052602060002090601f016020900481019282620004625760008555620004ad565b82601f106200047d57805160ff1916838001178555620004ad565b82800160010185558215620004ad579182015b82811115620004ad57825182559160200191906001019062000490565b50620004bb92915062000546565b5090565b828054828255906000526020600020908101928215620004ad579160200282015b82811115620004ad578251829061ffff16905591602001919060010190620004e0565b828054828255906000526020600020908101928215620004ad579160200282015b82811115620004ad578251829060ff1690559160200191906001019062000524565b5b80821115620004bb576000815560010162000547565b6001600160a01b0391909116815260200190565b60208082526010908201526f14185d5cd8589b194e881c185d5cd95960821b604082015260600190565b6020808252818101527f4f776e61626c653a2063616c6c6572206973206e6f7420746865206f776e6572604082015260600190565b600281046001821680620005e557607f821691505b602082108114156200060757634e487b7160e01b600052602260045260246000fd5b50919050565b6132b0806200061d6000396000f3fe6080604052600436106102975760003560e01c8063a1db97821161015a578063c69bebe4116100c1578063e4bbe7eb1161007a578063e4bbe7eb14610795578063e8e6f9ad146107b5578063f167bfc3146107d5578063f2fde38b146107f5578063f98b242f14610815578063fe4261661461082a5761029e565b8063c69bebe4146106e0578063cd0d95e214610700578063ceec6b2a14610720578063cfad0eb614610740578063d948e10414610760578063dd62ed3e146107755761029e565b8063b0eb85ea11610113578063b0eb85ea14610620578063bb6d5e3b14610640578063c010014314610660578063c346e98014610680578063c5714744146106a0578063c62548a8146106c05761029e565b8063a1db97821461056b578063a457c2d71461058b578063a7b9c8ae146105ab578063a9059cbb146105cb578063aaa81984146105eb578063b0de3680146106005761029e565b80633f4ba83a116101fe578063715018a6116101b7578063715018a6146104e25780638456cb59146104f75780638da5cb5b1461050c5780638fb3301714610521578063926fcfc41461053657806395d89b41146105565761029e565b80633f4ba83a1461044357806358191963146104585780635c975abb146104785780635f03e6441461048d5780636c752974146104ad57806370a08231146104c25761029e565b806323b872dd1161025057806323b872dd14610381578063257a0050146103a15780632853c2f7146103c1578063313ce567146103e1578063383b16df1461040357806339509351146104235761029e565b806306fdde03146102a3578063095ea7b3146102ce57806310b4afb3146102fb578063160873151461031d57806318160ddd1461033f5780631adedf06146103615761029e565b3661029e57005b600080fd5b3480156102af57600080fd5b506102b861084a565b6040516102c59190612892565b60405180910390f35b3480156102da57600080fd5b506102ee6102e93660046125e6565b6108dc565b6040516102c59190612887565b34801561030757600080fd5b506103106108fa565b6040516102c591906127a3565b34801561032957600080fd5b5061033d610338366004612529565b610909565b005b34801561034b57600080fd5b50610354610999565b6040516102c59190613123565b34801561036d57600080fd5b5061035461037c366004612529565b61099f565b34801561038d57600080fd5b506102ee61039c366004612575565b6109f3565b3480156103ad57600080fd5b5061033d6103bc366004612529565b610a6a565b3480156103cd57600080fd5b5061033d6103dc3660046126e5565b610af1565b3480156103ed57600080fd5b506103f6610b35565b6040516102c5919061314d565b34801561040f57600080fd5b5061033d61041e36600461260f565b610b45565b34801561042f57600080fd5b506102ee61043e3660046125e6565b610b9b565b34801561044f57600080fd5b5061033d610bea565b34801561046457600080fd5b5061033d610473366004612715565b610c33565b34801561048457600080fd5b506102ee610c42565b34801561049957600080fd5b506103546104a83660046126e5565b610c52565b3480156104b957600080fd5b50610310610c65565b3480156104ce57600080fd5b506103546104dd366004612529565b610c74565b3480156104ee57600080fd5b5061033d610c8f565b34801561050357600080fd5b5061033d610d18565b34801561051857600080fd5b50610310610d5f565b34801561052d57600080fd5b50610310610d6e565b34801561054257600080fd5b5061033d61055136600461260f565b610d7d565b34801561056257600080fd5b506102b8610dcf565b34801561057757600080fd5b5061033d6105863660046125e6565b610dde565b34801561059757600080fd5b506102ee6105a63660046125e6565b610ea5565b3480156105b757600080fd5b5061033d6105c63660046126e5565b610f20565b3480156105d757600080fd5b506102ee6105e63660046125e6565b610fe7565b3480156105f757600080fd5b5061035461102c565b34801561060c57600080fd5b5061033d61061b3660046126e5565b611032565b34801561062c57600080fd5b5061033d61063b36600461260f565b61111e565b34801561064c57600080fd5b5061033d61065b3660046126e5565b611170565b34801561066c57600080fd5b5061033d61067b366004612529565b61117a565b34801561068c57600080fd5b5061035461069b3660046126e5565b611201565b3480156106ac57600080fd5b5061033d6106bb3660046126e5565b611214565b3480156106cc57600080fd5b5061033d6106db3660046125b0565b61121e565b3480156106ec57600080fd5b5061033d6106fb366004612529565b611288565b34801561070c57600080fd5b5061033d61071b3660046126e5565b61130f565b34801561072c57600080fd5b5061035461073b366004612529565b611384565b34801561074c57600080fd5b5061033d61075b366004612529565b6113c7565b34801561076c57600080fd5b5061031061144e565b34801561078157600080fd5b50610354610790366004612543565b61145d565b3480156107a157600080fd5b506103546107b0366004612737565b611488565b3480156107c157600080fd5b506103546107d0366004612737565b61154a565b3480156107e157600080fd5b506103546107f0366004612529565b6115a1565b34801561080157600080fd5b5061033d610810366004612529565b6115f7565b34801561082157600080fd5b506103546116b8565b34801561083657600080fd5b5061033d610845366004612715565b611711565b606060038054610859906131bd565b80601f0160208091040260200160405190810160405280929190818152602001828054610885906131bd565b80156108d25780601f106108a7576101008083540402835291602001916108d2565b820191906000526020600020905b8154815290600101906020018083116108b557829003601f168201915b5050505050905090565b60006108f06108e961171b565b848461171f565b5060015b92915050565b6009546001600160a01b031681565b61091161171b565b6001600160a01b0316610922610d5f565b6001600160a01b0316146109515760405162461bcd60e51b815260040161094890612cfb565b60405180910390fd5b6001600160a01b0381166109775760405162461bcd60e51b815260040161094890612ea4565b601580546001600160a01b0319166001600160a01b0392909216919091179055565b60025490565b60006109aa826117d3565b156109b7575060646109ee565b60106109c2836115a1565b815481106109e057634e487b7160e01b600052603260045260246000fd5b906000526020600020015490505b919050565b60006109fe846117f1565b15610a6357610a0e848484611834565b6000610a1861171b565b90506000610a26868361145d565b905083811015610a485760405162461bcd60e51b815260040161094890612cb3565b610a5c8683610a5787856131a6565b61171f565b6001925050505b9392505050565b610a7261171b565b6001600160a01b0316610a83610d5f565b6001600160a01b031614610aa95760405162461bcd60e51b815260040161094890612cfb565b6001600160a01b038116610acf5760405162461bcd60e51b815260040161094890612c0d565b601480546001600160a01b0319166001600160a01b0392909216919091179055565b610af961171b565b6001600160a01b0316610b0a610d5f565b6001600160a01b031614610b305760405162461bcd60e51b815260040161094890612cfb565b600755565b600b54600160a01b900460ff1690565b610b4d61171b565b6001600160a01b0316610b5e610d5f565b6001600160a01b031614610b845760405162461bcd60e51b815260040161094890612cfb565b8051610b9790600e9060208401906124b2565b5050565b60006108f0610ba861171b565b848460016000610bb661171b565b6001600160a01b03908116825260208083019390935260409182016000908120918b1681529252902054610a57919061315b565b610bf261171b565b6001600160a01b0316610c03610d5f565b6001600160a01b031614610c295760405162461bcd60e51b815260040161094890612cfb565b610c3161195c565b565b610c3d82826119cd565b505050565b600554600160a01b900460ff1690565b60006108f4610c5f610999565b8361154a565b6015546001600160a01b031681565b6001600160a01b031660009081526020819052604090205490565b610c9761171b565b6001600160a01b0316610ca8610d5f565b6001600160a01b031614610cce5760405162461bcd60e51b815260040161094890612cfb565b6005546040516000916001600160a01b0316907f8be0079c531659141344cd1fd0a4f28419497f9722a3daafe3b4186f6b6457e0908390a3600580546001600160a01b0319169055565b610d2061171b565b6001600160a01b0316610d31610d5f565b6001600160a01b031614610d575760405162461bcd60e51b815260040161094890612cfb565b610c31611e86565b6005546001600160a01b031690565b6016546001600160a01b031681565b610d8561171b565b6001600160a01b0316610d96610d5f565b6001600160a01b031614610dbc5760405162461bcd60e51b815260040161094890612cfb565b8051610b9790600f9060208401906124b2565b606060048054610859906131bd565b610de661171b565b6001600160a01b0316610df7610d5f565b6001600160a01b031614610e1d5760405162461bcd60e51b815260040161094890612cfb565b60405163a9059cbb60e01b815282906001600160a01b0382169063a9059cbb90610e4d903390869060040161281e565b602060405180830381600087803b158015610e6757600080fd5b505af1158015610e7b573d6000803e3d6000fd5b505050506040513d601f19601f82011682018060405250810190610e9f91906126c9565b50505050565b60008060016000610eb461171b565b6001600160a01b0390811682526020808301939093526040918201600090812091881681529252902054905082811015610f005760405162461bcd60e51b815260040161094890613061565b610f16610f0b61171b565b85610a5786856131a6565b5060019392505050565b610f2861171b565b6001600160a01b0316610f39610d5f565b6001600160a01b031614610f5f5760405162461bcd60e51b815260040161094890612cfb565b601654600b5460405163a9059cbb60e01b81526001600160a01b039283169263a9059cbb92610f9592911690859060040161281e565b602060405180830381600087803b158015610faf57600080fd5b505af1158015610fc3573d6000803e3d6000fd5b505050506040513d601f19601f82011682018060405250810190610b9791906126c9565b6000610ff2336117f1565b156108f4576001600160a01b0383166000908152600c6020526040902043905561102461101d61171b565b8484611834565b5060016108f4565b60135490565b61103a61171b565b6001600160a01b031661104b610d5f565b6001600160a01b0316146110715760405162461bcd60e51b815260040161094890612cfb565b60145460155460095460405163e8eda9df60e01b81526001600160a01b039384169363e8eda9df936110b2939082169287929091169060009060040161285a565b600060405180830381600087803b1580156110cc57600080fd5b505af11580156110e0573d6000803e3d6000fd5b505050507fe4b07db4e98b8c4d7db7898ec0ca1004b8d388810ececa888262a4e5886027a9816040516111139190613123565b60405180910390a150565b61112661171b565b6001600160a01b0316611137610d5f565b6001600160a01b03161461115d5760405162461bcd60e51b815260040161094890612cfb565b8051610b979060109060208401906124b2565b610b9781336119cd565b61118261171b565b6001600160a01b0316611193610d5f565b6001600160a01b0316146111b95760405162461bcd60e51b815260040161094890612cfb565b6001600160a01b0381166111df5760405162461bcd60e51b815260040161094890612dfa565b601680546001600160a01b0319166001600160a01b0392909216919091179055565b60006108f461120e610999565b83611488565b610b978133611ee7565b61122661171b565b6001600160a01b0316611237610d5f565b6001600160a01b03161461125d5760405162461bcd60e51b815260040161094890612cfb565b6001600160a01b03919091166000908152600d60205260409020805460ff1916911515919091179055565b61129061171b565b6001600160a01b03166112a1610d5f565b6001600160a01b0316146112c75760405162461bcd60e51b815260040161094890612cfb565b6001600160a01b0381166112ed5760405162461bcd60e51b815260040161094890612f33565b600a80546001600160a01b0319166001600160a01b0392909216919091179055565b61131761171b565b6001600160a01b0316611328610d5f565b6001600160a01b03161461134e5760405162461bcd60e51b815260040161094890612cfb565b60155460145460405163095ea7b360e01b81526001600160a01b039283169263095ea7b392610f9592911690859060040161281e565b6000601254600f611394846115a1565b815481106113b257634e487b7160e01b600052603260045260246000fd5b90600052602060002001546108f49190613187565b6113cf61171b565b6001600160a01b03166113e0610d5f565b6001600160a01b0316146114065760405162461bcd60e51b815260040161094890612cfb565b6001600160a01b03811661142c5760405162461bcd60e51b815260040161094890612aca565b600b80546001600160a01b0319166001600160a01b0392909216919091179055565b6014546001600160a01b031681565b6001600160a01b03918216600090815260016020908152604080832093909416825291909152205490565b600080831180156114995750600082115b80156114a55750818310155b6114c15760405162461bcd60e51b815260040161094890612e57565b60006114cd83856131a6565b905060006114db8580613187565b905060006114e98380613187565b905060006114f782846131a6565b90506000600654826115099190613187565b905060006007548261151b9190613173565b9050612710600061152c8284613213565b9050600061153a82856131a6565b9c9b505050505050505050505050565b600080821161156b5760405162461bcd60e51b815260040161094890612a3d565b60006115778480613187565b90506000611585848661315b565b905060006115938280613187565b905060006114f784836131a6565b6000806115ad83610c74565b905060005b81600e82815481106115d457634e487b7160e01b600052603260045260246000fd5b90600052602060002001541015610a6357806115ef816131f8565b9150506115b2565b6115ff61171b565b6001600160a01b0316611610610d5f565b6001600160a01b0316146116365760405162461bcd60e51b815260040161094890612cfb565b6001600160a01b03811661165c5760405162461bcd60e51b8152600401610948906129b5565b6005546040516001600160a01b038084169216907f8be0079c531659141344cd1fd0a4f28419497f9722a3daafe3b4186f6b6457e090600090a3600580546001600160a01b0319166001600160a01b0392909216919091179055565b60006116c261171b565b6001600160a01b03166116d3610d5f565b6001600160a01b0316146116f95760405162461bcd60e51b815260040161094890612cfb565b61170c611704610999565b6107b0610999565b905090565b610c3d8282611ee7565b3390565b6001600160a01b0383166117455760405162461bcd60e51b815260040161094890612db6565b6001600160a01b03821661176b5760405162461bcd60e51b8152600401610948906129fb565b6001600160a01b0380841660008181526001602090815260408083209487168084529490915290819020849055517f8c5be1e5ebec7d5bd14f71427d1e84f3dd0314c0f7b2291e5b200ac8c7c3b925906117c6908590613123565b60405180910390a3505050565b6001600160a01b03166000908152600d602052604090205460ff1690565b6001600160a01b0381166000908152600c6020526040812054819061181690436131a6565b905060115481118015610a63575061182d83611384565b1092915050565b6001600160a01b03831661185a5760405162461bcd60e51b815260040161094890612d71565b6001600160a01b0382166118805760405162461bcd60e51b8152600401610948906128a5565b61188b838383610c3d565b6001600160a01b038316600090815260208190526040902054818110156118c45760405162461bcd60e51b815260040161094890612a84565b6118ce82826131a6565b6001600160a01b03808616600090815260208190526040808220939093559085168152908120805484929061190490849061315b565b92505081905550826001600160a01b0316846001600160a01b03167fddf252ad1be2c89b69c2b068fc378daa952ba7f163c4a11628f55a4df523b3ef8460405161194e9190613123565b60405180910390a350505050565b611964610c42565b6119805760405162461bcd60e51b815260040161094890612945565b6005805460ff60a01b191690557f5db9ee0a495bf2e6ff9c91a7834c1ba4fdd244a5e8aa4e537bd38aeae4b073aa6119b661171b565b6040516119c391906127a3565b60405180910390a1565b60006119d7610c42565b156119f45760405162461bcd60e51b815260040161094890612be3565b60026008541415611a175760405162461bcd60e51b815260040161094890612efc565b60026008556000611a2784610c52565b90506000611a343361099f565b611a3f9060646131a6565b905060006064806013548486611a559190613187565b611a5f9190613187565b611a699190613173565b611a739190613173565b90506000611a8361271083613213565b90506000611a9182846131a6565b90506000611a9f828761315b565b6015546040516370a0823160e01b81529192506000916001600160a01b03909116906370a0823190611ad59033906004016127a3565b60206040518083038186803b158015611aed57600080fd5b505afa158015611b01573d6000803e3d6000fd5b505050506040513d601f19601f82011682018060405250810190611b2591906126fd565b601554600954604051636eb1769f60e11b81529293506000926001600160a01b039283169263dd62ed3e92611b62923392909116906004016127b7565b60206040518083038186803b158015611b7a57600080fd5b505afa158015611b8e573d6000803e3d6000fd5b505050506040513d601f19601f82011682018060405250810190611bb291906126fd565b905081831115611bd45760405162461bcd60e51b815260040161094890612c6a565b80831115611bf45760405162461bcd60e51b815260040161094890612ff9565b624c4b40881015611c175760405162461bcd60e51b8152600401610948906128e8565b601554600a546040516323b872dd60e01b81526001600160a01b03928316926323b872dd92611c509233929091169089906004016127d1565b602060405180830381600087803b158015611c6a57600080fd5b505af1158015611c7e573d6000803e3d6000fd5b505050506040513d601f19601f82011682018060405250810190611ca291906126c9565b506015546009546040516323b872dd60e01b81526001600160a01b03928316926323b872dd92611cdc923392909116908d906004016127d1565b602060405180830381600087803b158015611cf657600080fd5b505af1158015611d0a573d6000803e3d6000fd5b505050506040513d601f19601f82011682018060405250810190611d2e91906126c9565b50611d388861134e565b601554600954601454604051636eb1769f60e11b81526000936001600160a01b039081169363dd62ed3e93611d75939183169216906004016127b7565b60206040518083038186803b158015611d8d57600080fd5b505afa158015611da1573d6000803e3d6000fd5b505050506040513d601f19601f82011682018060405250810190611dc591906126fd565b9050611e06816040518060400160405280602081526020017f424e4a2c204c656e64696e67506f6f6c416c6c6f77616e6365696e36646563208152506121c1565b611e0f89611071565b6001600160a01b038b166000908152600c60205260409020439055611e348b8d612206565b7f67a9bacfa3375d781ca8b93e2eb8420c9dfa491353b9f782c2a56fff7b9c7ff6338c8e8c604051611e6994939291906127f5565b60405180910390a150506001600855509498975050505050505050565b611e8e610c42565b15611eab5760405162461bcd60e51b815260040161094890612be3565b6005805460ff60a01b1916600160a01b1790557f62e78cea01bee320cd4e420270b5ea74000d11b0c9f74754ebdbfc544b05a2586119b661171b565b6000611ef1610c42565b15611f0e5760405162461bcd60e51b815260040161094890612be3565b60026008541415611f315760405162461bcd60e51b815260040161094890612efc565b6002600855611f3f336117f1565b611f5b5760405162461bcd60e51b815260040161094890612f8b565b6000611f6633610c74565b905060008411611f885760405162461bcd60e51b8152600401610948906130dd565b83811015611fa85760405162461bcd60e51b815260040161094890612b85565b6000611fb385611201565b9050624c4b40811015611fd85760405162461bcd60e51b815260040161094890612b28565b6000611fe33361099f565b611fee9060646131a6565b9050600060648060135484866120049190613187565b61200e9190613187565b6120189190613173565b6120229190613173565b9050600061203261271083613213565b9050600061204082846131a6565b9050600061204e82876131a6565b905061205a338b6122c6565b7f7d5d31bdccaf1c82c15c6bc40fd7ba6435c5f91b48cbc62841bded9e222fcd75338a8c8960405161208f94939291906127f5565b60405180910390a16120a0866123ac565b601554600a5460405163a9059cbb60e01b81526001600160a01b039283169263a9059cbb926120d692911690869060040161281e565b602060405180830381600087803b1580156120f057600080fd5b505af1158015612104573d6000803e3d6000fd5b505050506040513d601f19601f8201168201806040525081019061212891906126c9565b5060155460405163a9059cbb60e01b81526001600160a01b039091169063a9059cbb9061215b908c90859060040161281e565b602060405180830381600087803b15801561217557600080fd5b505af1158015612189573d6000803e3d6000fd5b505050506040513d601f19601f820116820180604052508101906121ad91906126c9565b505060016008555092979650505050505050565b610b9782826040516024016121d792919061312c565b60408051601f198184030181529190526020810180516001600160e01b0316630fa3f34560e01b179052612491565b6001600160a01b03821661222c5760405162461bcd60e51b8152600401610948906130a6565b61223860008383610c3d565b806002600082825461224a919061315b565b90915550506001600160a01b0382166000908152602081905260408120805483929061227790849061315b565b90915550506040516001600160a01b038316906000907fddf252ad1be2c89b69c2b068fc378daa952ba7f163c4a11628f55a4df523b3ef906122ba908590613123565b60405180910390a35050565b6001600160a01b0382166122ec5760405162461bcd60e51b815260040161094890612d30565b6122f882600083610c3d565b6001600160a01b038216600090815260208190526040902054818110156123315760405162461bcd60e51b815260040161094890612973565b61233b82826131a6565b6001600160a01b038416600090815260208190526040812091909155600280548492906123699084906131a6565b90915550506040516000906001600160a01b038516907fddf252ad1be2c89b69c2b068fc378daa952ba7f163c4a11628f55a4df523b3ef906117c6908690613123565b6123b4610c42565b156123d15760405162461bcd60e51b815260040161094890612be3565b601454601554600954604051631a4ca37b60e21b81526001600160a01b03938416936369328dec9361240f9390821692879290911690600401612837565b602060405180830381600087803b15801561242957600080fd5b505af115801561243d573d6000803e3d6000fd5b505050506040513d601f19601f8201168201806040525081019061246191906126fd565b507fcf262399c7d7a6ef0283fba5e04858a528d91a896dc7bc72fa3e55fbfee77deb816040516111139190613123565b80516a636f6e736f6c652e6c6f67602083016000808483855afa5050505050565b8280548282559060005260206000209081019282156124ed579160200282015b828111156124ed5782518255916020019190600101906124d2565b506124f99291506124fd565b5090565b5b808211156124f957600081556001016124fe565b80356001600160a01b03811681146109ee57600080fd5b60006020828403121561253a578081fd5b610a6382612512565b60008060408385031215612555578081fd5b61255e83612512565b915061256c60208401612512565b90509250929050565b600080600060608486031215612589578081fd5b61259284612512565b92506125a060208501612512565b9150604084013590509250925092565b600080604083850312156125c2578182fd5b6125cb83612512565b915060208301356125db81613269565b809150509250929050565b600080604083850312156125f8578182fd5b61260183612512565b946020939093013593505050565b60006020808385031215612621578182fd5b823567ffffffffffffffff80821115612638578384fd5b818501915085601f83011261264b578384fd5b81358181111561265d5761265d613253565b8381026040518582820101818110858211171561267c5761267c613253565b604052828152858101935084860182860187018a101561269a578788fd5b8795505b838610156126bc57803585526001959095019493860193860161269e565b5098975050505050505050565b6000602082840312156126da578081fd5b8151610a6381613269565b6000602082840312156126f6578081fd5b5035919050565b60006020828403121561270e578081fd5b5051919050565b60008060408385031215612727578182fd5b8235915061256c60208401612512565b60008060408385031215612749578182fd5b50508035926020909101359150565b60008151808452815b8181101561277d57602081850181015186830182015201612761565b8181111561278e5782602083870101525b50601f01601f19169290920160200192915050565b6001600160a01b0391909116815260200190565b6001600160a01b0392831681529116602082015260400190565b6001600160a01b039384168152919092166020820152604081019190915260600190565b6001600160a01b0394851681529290931660208301526040820152606081019190915260800190565b6001600160a01b03929092168252602082015260400190565b6001600160a01b0393841681526020810192909252909116604082015260600190565b6001600160a01b03948516815260208101939093529216604082015261ffff909116606082015260800190565b901515815260200190565b600060208252610a636020830184612758565b60208082526023908201527f45524332303a207472616e7366657220746f20746865207a65726f206164647260408201526265737360e81b606082015260800190565b6020808252603a908201527f424e4a2c20737065636966696564416d6f756e744d696e743a204d696e696d7560408201527f6d206d696e74696e672076616c7565206f662024352055534443000000000000606082015260800190565b60208082526014908201527314185d5cd8589b194e881b9bdd081c185d5cd95960621b604082015260600190565b60208082526022908201527f45524332303a206275726e20616d6f756e7420657863656564732062616c616e604082015261636560f01b606082015260800190565b60208082526026908201527f4f776e61626c653a206e6577206f776e657220697320746865207a65726f206160408201526564647265737360d01b606082015260800190565b60208082526022908201527f45524332303a20617070726f766520746f20746865207a65726f206164647265604082015261737360f01b606082015260800190565b60208082526027908201527f424e4a4943757276653a204d757374206d696e74206d6f7265207468616e203060408201526620746f6b656e7360c81b606082015260800190565b60208082526026908201527f45524332303a207472616e7366657220616d6f756e7420657863656564732062604082015265616c616e636560d01b606082015260800190565b602080825260409082018190527f757064617465416363756d756c6174656452656365697665723a206e65774164908201527f64726573732063616e6e6f7420626520746865207a65726f2061646472657373606082015260800190565b6020808252603a908201527f424e4a2c20737065636966696564416d6f756e744275726e3a204d696e696d7560408201527f6d206275726e696e672076616c75652069732024352055534443000000000000606082015260800190565b602080825260409082018190527f557365727320746f6b656e42616c616e6365206d75737420626520657175616c908201527f20746f206f72206d6f7265207468616e20616d6f756e7420746f206275726e2e606082015260800190565b60208082526010908201526f14185d5cd8589b194e881c185d5cd95960821b604082015260600190565b6020808252603f908201527f757064617465506f6c79676f6e4c656e64696e67506f6f6c3a206e657741646460408201527f726573732063616e6e6f7420626520746865207a65726f206164647265737300606082015260800190565b60208082526029908201527f424e4a2c20737065636966696564416d6f756e744d696e743a204e6f7420656e6040820152686f756768205553444360b81b606082015260800190565b60208082526028908201527f45524332303a207472616e7366657220616d6f756e74206578636565647320616040820152676c6c6f77616e636560c01b606082015260800190565b6020808252818101527f4f776e61626c653a2063616c6c6572206973206e6f7420746865206f776e6572604082015260600190565b60208082526021908201527f45524332303a206275726e2066726f6d20746865207a65726f206164647265736040820152607360f81b606082015260800190565b60208082526025908201527f45524332303a207472616e736665722066726f6d20746865207a65726f206164604082015264647265737360d81b606082015260800190565b60208082526024908201527f45524332303a20617070726f76652066726f6d20746865207a65726f206164646040820152637265737360e01b606082015260800190565b6020808252603a908201527f757064617465506f6c79676f6e414d555344433a206e6577416464726573732060408201527f63616e6e6f7420626520746865207a65726f2061646472657373000000000000606082015260800190565b6020808252602d908201527f424e4a4943757276653a2053656e64696e672061726773206d7573742062652060408201526c06c6172676572207468616e203609c1b606082015260800190565b60208082526038908201527f757064617465506f6c79676f6e555344433a206e6577416464726573732063616040820152776e6e6f7420626520746865207a65726f206164647265737360401b606082015260800190565b6020808252601f908201527f5265656e7472616e637947756172643a207265656e7472616e742063616c6c00604082015260600190565b60208082526038908201527f75706461746546656552656365697665723a206e6577416464726573732063616040820152776e6e6f7420626520746865207a65726f206164647265737360401b606082015260800190565b60208082526048908201527f424e4a2c20737065636966696564416d6f756e744275726e3a206d73672e736560408201527f6e646572206973206e6f742079657420616c6c6f77656420746f2077697468646060820152673930bb97b13ab93760c11b608082015260a00190565b60208082526042908201527f424e4a2c20737065636966696564416d6f756e744d696e743a204e6f7420656e60408201527f6f75676820616c6c6f77616e636520696e205553444320666f72207061796d656060820152611b9d60f21b608082015260a00190565b60208082526025908201527f45524332303a2064656372656173656420616c6c6f77616e63652062656c6f77604082015264207a65726f60d81b606082015260800190565b6020808252601f908201527f45524332303a206d696e7420746f20746865207a65726f206164647265737300604082015260600190565b60208082526026908201527f416d6f756e7420746f206275726e206d757374206265206d6f7265207468616e604082015265103d32b9379760d11b606082015260800190565b90815260200190565b6000838252604060208301526131456040830184612758565b949350505050565b60ff91909116815260200190565b6000821982111561316e5761316e613227565b500190565b6000826131825761318261323d565b500490565b60008160001904831182151516156131a1576131a1613227565b500290565b6000828210156131b8576131b8613227565b500390565b6002810460018216806131d157607f821691505b602082108114156131f257634e487b7160e01b600052602260045260246000fd5b50919050565b600060001982141561320c5761320c613227565b5060010190565b6000826132225761322261323d565b500690565b634e487b7160e01b600052601160045260246000fd5b634e487b7160e01b600052601260045260246000fd5b634e487b7160e01b600052604160045260246000fd5b801515811461327757600080fd5b5056fea2646970667358221220c58be724e15cc49b81771f4278ca179b5fbf1ba85a56885f997be6da5384073c64736f6c63430008000033",
  "linkReferences": {},
  "deployedLinkReferences": {}
}