{
  "_format": "hh-sol-artifact-1",
  "contractName": "Benjamins",
  "sourceName": "contracts/Benjamins.sol",
  "abi": [
    {
      "inputs": [],
      "stateMutability": "nonpayable",
      "type": "constructor"
    },
    {
      "anonymous": false,
      "inputs": [
        {
          "indexed": true,
          "internalType": "address",
          "name": "owner",
          "type": "address"
        },
        {
          "indexed": true,
          "internalType": "address",
          "name": "spender",
          "type": "address"
        },
        {
          "indexed": false,
          "internalType": "uint256",
          "name": "value",
          "type": "uint256"
        }
      ],
      "name": "Approval",
      "type": "event"
    },
    {
      "anonymous": false,
      "inputs": [
        {
          "indexed": false,
          "internalType": "uint256",
          "name": "amount",
          "type": "uint256"
        }
      ],
      "name": "LendingPoolDeposit",
      "type": "event"
    },
    {
      "anonymous": false,
      "inputs": [
        {
          "indexed": false,
          "internalType": "uint256",
          "name": "amount",
          "type": "uint256"
        }
      ],
      "name": "LendingPoolWithdrawal",
      "type": "event"
    },
    {
      "anonymous": false,
      "inputs": [
        {
          "indexed": true,
          "internalType": "address",
          "name": "previousOwner",
          "type": "address"
        },
        {
          "indexed": true,
          "internalType": "address",
          "name": "newOwner",
          "type": "address"
        }
      ],
      "name": "OwnershipTransferred",
      "type": "event"
    },
    {
      "anonymous": false,
      "inputs": [
        {
          "indexed": false,
          "internalType": "address",
          "name": "account",
          "type": "address"
        }
      ],
      "name": "Paused",
      "type": "event"
    },
    {
      "anonymous": false,
      "inputs": [
        {
          "indexed": false,
          "internalType": "address",
          "name": "sender",
          "type": "address"
        },
        {
          "indexed": false,
          "internalType": "address",
          "name": "receiverOfUSDC",
          "type": "address"
        },
        {
          "indexed": false,
          "internalType": "uint256",
          "name": "tokenAmount",
          "type": "uint256"
        },
        {
          "indexed": false,
          "internalType": "uint256",
          "name": "returnForBurning",
          "type": "uint256"
        }
      ],
      "name": "SpecifiedBurnEvent",
      "type": "event"
    },
    {
      "anonymous": false,
      "inputs": [
        {
          "indexed": false,
          "internalType": "address",
          "name": "sender",
          "type": "address"
        },
        {
          "indexed": false,
          "internalType": "address",
          "name": "receiverOfTokens",
          "type": "address"
        },
        {
          "indexed": false,
          "internalType": "uint256",
          "name": "tokenAmount",
          "type": "uint256"
        },
        {
          "indexed": false,
          "internalType": "uint256",
          "name": "priceForMintingIn6dec",
          "type": "uint256"
        }
      ],
      "name": "SpecifiedMintEvent",
      "type": "event"
    },
    {
      "anonymous": false,
      "inputs": [
        {
          "indexed": true,
          "internalType": "address",
          "name": "from",
          "type": "address"
        },
        {
          "indexed": true,
          "internalType": "address",
          "name": "to",
          "type": "address"
        },
        {
          "indexed": false,
          "internalType": "uint256",
          "name": "value",
          "type": "uint256"
        }
      ],
      "name": "Transfer",
      "type": "event"
    },
    {
      "anonymous": false,
      "inputs": [
        {
          "indexed": false,
          "internalType": "address",
          "name": "account",
          "type": "address"
        }
      ],
      "name": "Unpaused",
      "type": "event"
    },
    {
      "inputs": [],
      "name": "addressOfThisContract",
      "outputs": [
        {
          "internalType": "address",
          "name": "",
          "type": "address"
        }
      ],
      "stateMutability": "view",
      "type": "function"
    },
    {
      "inputs": [
        {
          "internalType": "address",
          "name": "owner",
          "type": "address"
        },
        {
          "internalType": "address",
          "name": "spender",
          "type": "address"
        }
      ],
      "name": "allowance",
      "outputs": [
        {
          "internalType": "uint256",
          "name": "",
          "type": "uint256"
        }
      ],
      "stateMutability": "view",
      "type": "function"
    },
    {
      "inputs": [
        {
          "internalType": "address",
          "name": "userToCheck",
          "type": "address"
        }
      ],
      "name": "amountBlocksHoldingNeeded",
      "outputs": [
        {
          "internalType": "uint256",
          "name": "",
          "type": "uint256"
        }
      ],
      "stateMutability": "view",
      "type": "function"
    },
    {
      "inputs": [
        {
          "internalType": "address",
          "name": "spender",
          "type": "address"
        },
        {
          "internalType": "uint256",
          "name": "amount",
          "type": "uint256"
        }
      ],
      "name": "approve",
      "outputs": [
        {
          "internalType": "bool",
          "name": "",
          "type": "bool"
        }
      ],
      "stateMutability": "nonpayable",
      "type": "function"
    },
    {
      "inputs": [
        {
          "internalType": "address",
          "name": "account",
          "type": "address"
        }
      ],
      "name": "balanceOf",
      "outputs": [
        {
          "internalType": "uint256",
          "name": "",
          "type": "uint256"
        }
      ],
      "stateMutability": "view",
      "type": "function"
    },
    {
      "inputs": [
        {
          "internalType": "uint256",
          "name": "amountOfBNJIs",
          "type": "uint256"
        },
        {
          "internalType": "address",
          "name": "receiverOfUSDC",
          "type": "address"
        }
      ],
      "name": "burnForBeneficiary",
      "outputs": [],
      "stateMutability": "nonpayable",
      "type": "function"
    },
    {
      "inputs": [
        {
          "internalType": "uint256",
          "name": "amountOfBNJIs",
          "type": "uint256"
        }
      ],
      "name": "burnForSelf",
      "outputs": [],
      "stateMutability": "nonpayable",
      "type": "function"
    },
    {
      "inputs": [],
      "name": "calcAllTokensValue",
      "outputs": [
        {
          "internalType": "uint256",
          "name": "allTokensReturn",
          "type": "uint256"
        }
      ],
      "stateMutability": "view",
      "type": "function"
    },
    {
      "inputs": [
        {
          "internalType": "address",
          "name": "userToCheck",
          "type": "address"
        }
      ],
      "name": "calcCurrentLevel",
      "outputs": [
        {
          "internalType": "uint256",
          "name": "",
          "type": "uint256"
        }
      ],
      "stateMutability": "view",
      "type": "function"
    },
    {
      "inputs": [
        {
          "internalType": "address",
          "name": "userToCheck",
          "type": "address"
        }
      ],
      "name": "calcDiscount",
      "outputs": [
        {
          "internalType": "uint256",
          "name": "",
          "type": "uint256"
        }
      ],
      "stateMutability": "view",
      "type": "function"
    },
    {
      "inputs": [
        {
          "internalType": "uint256",
          "name": "supply",
          "type": "uint256"
        },
        {
          "internalType": "uint256",
          "name": "tokensToMint",
          "type": "uint256"
        }
      ],
      "name": "calcPriceForTokenMint",
      "outputs": [
        {
          "internalType": "uint256",
          "name": "",
          "type": "uint256"
        }
      ],
      "stateMutability": "view",
      "type": "function"
    },
    {
      "inputs": [
        {
          "internalType": "uint256",
          "name": "supply",
          "type": "uint256"
        },
        {
          "internalType": "uint256",
          "name": "tokensToBurn",
          "type": "uint256"
        }
      ],
      "name": "calcReturnForTokenBurn",
      "outputs": [
        {
          "internalType": "uint256",
          "name": "",
          "type": "uint256"
        }
      ],
      "stateMutability": "view",
      "type": "function"
    },
    {
      "inputs": [
        {
          "internalType": "uint256",
          "name": "amount",
          "type": "uint256"
        }
      ],
      "name": "calcSpecBurnReturn",
      "outputs": [
        {
          "internalType": "uint256",
          "name": "burnReturn",
          "type": "uint256"
        }
      ],
      "stateMutability": "view",
      "type": "function"
    },
    {
      "inputs": [
        {
          "internalType": "uint256",
          "name": "amount",
          "type": "uint256"
        }
      ],
      "name": "calcSpecMintReturn",
      "outputs": [
        {
          "internalType": "uint256",
          "name": "mintPrice",
          "type": "uint256"
        }
      ],
      "stateMutability": "view",
      "type": "function"
    },
    {
      "inputs": [],
      "name": "decimals",
      "outputs": [
        {
          "internalType": "uint8",
          "name": "",
          "type": "uint8"
        }
      ],
      "stateMutability": "view",
      "type": "function"
    },
    {
      "inputs": [
        {
          "internalType": "address",
          "name": "spender",
          "type": "address"
        },
        {
          "internalType": "uint256",
          "name": "subtractedValue",
          "type": "uint256"
        }
      ],
      "name": "decreaseAllowance",
      "outputs": [
        {
          "internalType": "bool",
          "name": "",
          "type": "bool"
        }
      ],
      "stateMutability": "nonpayable",
      "type": "function"
    },
    {
      "inputs": [
        {
          "internalType": "uint256",
          "name": "amount",
          "type": "uint256"
        }
      ],
      "name": "depositUSDCBuffer",
      "outputs": [],
      "stateMutability": "nonpayable",
      "type": "function"
    },
    {
      "inputs": [
        {
          "internalType": "address",
          "name": "spender",
          "type": "address"
        },
        {
          "internalType": "uint256",
          "name": "addedValue",
          "type": "uint256"
        }
      ],
      "name": "increaseAllowance",
      "outputs": [
        {
          "internalType": "bool",
          "name": "",
          "type": "bool"
        }
      ],
      "stateMutability": "nonpayable",
      "type": "function"
    },
    {
      "inputs": [
        {
          "internalType": "uint256",
          "name": "amountOfBNJIs",
          "type": "uint256"
        },
        {
          "internalType": "address",
          "name": "receiverOfTokens",
          "type": "address"
        }
      ],
      "name": "mintToBeneficiary",
      "outputs": [],
      "stateMutability": "nonpayable",
      "type": "function"
    },
    {
      "inputs": [
        {
          "internalType": "uint256",
          "name": "amountOfBNJIs",
          "type": "uint256"
        }
      ],
      "name": "mintToSelf",
      "outputs": [],
      "stateMutability": "nonpayable",
      "type": "function"
    },
    {
      "inputs": [],
      "name": "name",
      "outputs": [
        {
          "internalType": "string",
          "name": "",
          "type": "string"
        }
      ],
      "stateMutability": "view",
      "type": "function"
    },
    {
      "inputs": [],
      "name": "owner",
      "outputs": [
        {
          "internalType": "address",
          "name": "",
          "type": "address"
        }
      ],
      "stateMutability": "view",
      "type": "function"
    },
    {
      "inputs": [],
      "name": "pause",
      "outputs": [],
      "stateMutability": "nonpayable",
      "type": "function"
    },
    {
      "inputs": [],
      "name": "paused",
      "outputs": [
        {
          "internalType": "bool",
          "name": "",
          "type": "bool"
        }
      ],
      "stateMutability": "view",
      "type": "function"
    },
    {
      "inputs": [],
      "name": "polygonAMUSDC",
      "outputs": [
        {
          "internalType": "contract IERC20",
          "name": "",
          "type": "address"
        }
      ],
      "stateMutability": "view",
      "type": "function"
    },
    {
      "inputs": [],
      "name": "polygonLendingPool",
      "outputs": [
        {
          "internalType": "contract ILendingPool",
          "name": "",
          "type": "address"
        }
      ],
      "stateMutability": "view",
      "type": "function"
    },
    {
      "inputs": [],
      "name": "polygonUSDC",
      "outputs": [
        {
          "internalType": "contract IERC20",
          "name": "",
          "type": "address"
        }
      ],
      "stateMutability": "view",
      "type": "function"
    },
    {
      "inputs": [],
      "name": "renounceOwnership",
      "outputs": [],
      "stateMutability": "nonpayable",
      "type": "function"
    },
    {
      "inputs": [],
      "name": "showBaseFee",
      "outputs": [
        {
          "internalType": "uint256",
          "name": "",
          "type": "uint256"
        }
      ],
      "stateMutability": "view",
      "type": "function"
    },
    {
      "inputs": [],
      "name": "symbol",
      "outputs": [
        {
          "internalType": "string",
          "name": "",
          "type": "string"
        }
      ],
      "stateMutability": "view",
      "type": "function"
    },
    {
      "inputs": [],
      "name": "totalSupply",
      "outputs": [
        {
          "internalType": "uint256",
          "name": "",
          "type": "uint256"
        }
      ],
      "stateMutability": "view",
      "type": "function"
    },
    {
      "inputs": [
        {
          "internalType": "address",
          "name": "receiver",
          "type": "address"
        },
        {
          "internalType": "uint256",
          "name": "amountOfBNJIs",
          "type": "uint256"
        }
      ],
      "name": "transfer",
      "outputs": [
        {
          "internalType": "bool",
          "name": "",
          "type": "bool"
        }
      ],
      "stateMutability": "nonpayable",
      "type": "function"
    },
    {
      "inputs": [
        {
          "internalType": "address",
          "name": "payingAddress",
          "type": "address"
        },
        {
          "internalType": "address",
          "name": "receiver",
          "type": "address"
        },
        {
          "internalType": "uint256",
          "name": "amountOfBNJIs",
          "type": "uint256"
        }
      ],
      "name": "transferFrom",
      "outputs": [
        {
          "internalType": "bool",
          "name": "",
          "type": "bool"
        }
      ],
      "stateMutability": "nonpayable",
      "type": "function"
    },
    {
      "inputs": [
        {
          "internalType": "address",
          "name": "newOwner",
          "type": "address"
        }
      ],
      "name": "transferOwnership",
      "outputs": [],
      "stateMutability": "nonpayable",
      "type": "function"
    },
    {
      "inputs": [],
      "name": "unpause",
      "outputs": [],
      "stateMutability": "nonpayable",
      "type": "function"
    },
    {
      "inputs": [
        {
          "internalType": "address",
          "name": "newAddress",
          "type": "address"
        }
      ],
      "name": "updateAccumulatedReceiver",
      "outputs": [],
      "stateMutability": "nonpayable",
      "type": "function"
    },
    {
      "inputs": [
        {
          "internalType": "uint256",
          "name": "amountToApprove",
          "type": "uint256"
        }
      ],
      "name": "updateApproveLendingPool",
      "outputs": [],
      "stateMutability": "nonpayable",
      "type": "function"
    },
    {
      "inputs": [
        {
          "internalType": "uint256",
          "name": "newCurveFactor",
          "type": "uint256"
        }
      ],
      "name": "updateCurveFactor",
      "outputs": [],
      "stateMutability": "nonpayable",
      "type": "function"
    },
    {
      "inputs": [
        {
          "internalType": "address",
          "name": "newAddress",
          "type": "address"
        }
      ],
      "name": "updateFeeReceiver",
      "outputs": [],
      "stateMutability": "nonpayable",
      "type": "function"
    },
    {
      "inputs": [
        {
          "internalType": "uint256[]",
          "name": "newLevelAntes",
          "type": "uint256[]"
        }
      ],
      "name": "updateLevelAntes",
      "outputs": [],
      "stateMutability": "nonpayable",
      "type": "function"
    },
    {
      "inputs": [
        {
          "internalType": "uint256[]",
          "name": "newLevelDiscounts",
          "type": "uint256[]"
        }
      ],
      "name": "updateLevelDiscounts",
      "outputs": [],
      "stateMutability": "nonpayable",
      "type": "function"
    },
    {
      "inputs": [
        {
          "internalType": "uint256[]",
          "name": "newLevelHolds",
          "type": "uint256[]"
        }
      ],
      "name": "updateLevelHolds",
      "outputs": [],
      "stateMutability": "nonpayable",
      "type": "function"
    },
    {
      "inputs": [
        {
          "internalType": "address",
          "name": "newAddress",
          "type": "address"
        }
      ],
      "name": "updatePolygonAMUSDC",
      "outputs": [],
      "stateMutability": "nonpayable",
      "type": "function"
    },
    {
      "inputs": [
        {
          "internalType": "address",
          "name": "newAddress",
          "type": "address"
        }
      ],
      "name": "updatePolygonLendingPool",
      "outputs": [],
      "stateMutability": "nonpayable",
      "type": "function"
    },
    {
      "inputs": [
        {
          "internalType": "address",
          "name": "newAddress",
          "type": "address"
        }
      ],
      "name": "updatePolygonUSDC",
      "outputs": [],
      "stateMutability": "nonpayable",
      "type": "function"
    },
    {
      "inputs": [
        {
          "internalType": "address",
          "name": "userToModifyWL",
          "type": "address"
        },
        {
          "internalType": "bool",
          "name": "newStatus",
          "type": "bool"
        }
      ],
      "name": "updateWhitelisted",
      "outputs": [],
      "stateMutability": "nonpayable",
      "type": "function"
    },
    {
      "inputs": [
        {
          "internalType": "uint256",
          "name": "amount",
          "type": "uint256"
        }
      ],
      "name": "withdrawAccumulated",
      "outputs": [],
      "stateMutability": "nonpayable",
      "type": "function"
    },
    {
      "inputs": [
        {
          "internalType": "address",
          "name": "ERC20ContractAddress",
          "type": "address"
        },
        {
          "internalType": "uint256",
          "name": "amount",
          "type": "uint256"
        }
      ],
      "name": "withdrawERC20",
      "outputs": [],
      "stateMutability": "nonpayable",
      "type": "function"
    },
    {
      "stateMutability": "payable",
      "type": "receive"
    }
  ],
  "bytecode": "0x6080604052620f4240600655620c3500600755600a60115561a8c060125560026013553480156200002f57600080fd5b50604080518082018252600981526842656e6a616d696e7360b81b602080830191825283518085019094526004845263424e4a4960e01b9084015281519192916200007d9160039162000430565b5080516200009390600490602084019062000430565b5050506000620000a8620002c060201b60201c565b600580546001600160a01b0319166001600160a01b038316908117909155604051919250906000907f8be0079c531659141344cd1fd0a4f28419497f9722a3daafe3b4186f6b6457e0908290a3506005805460ff60a01b191690556001600855600980546001600160a01b03199081163017909155600a8054821673a9ece84e3139cba81f60f648002d38c635cd857d179055600b8054909116737c976677499803bbc72262784ec45088715c02211790556200017062000168620002c4565b6001620002d3565b600b805460ff60a01b19169055601580546001600160a01b0319908116732791bca1f2de4661ed88a30c99a7a9449aa8417417909155601680548216731a13f4ca1d028320a707d99520abfefca3998b7f17905560148054909116738dff5e27ea6b7ac08ebfdf9eb090f32ee9a30fcf1781556040805160c081018252600081526020810192909252603c90820152606460608201526101f460808201526107d060a08201526200022690600e906006620004bf565b506040805160c0810182526000815260026020820152600791810191909152601e6060820152605a608082015261016860a08201526200026b90600f906006620004bf565b506040805160c0810182526000815260056020820152600a918101919091526014606082015260286080820152604b60a0820152620002af90601090600662000503565b50620002ba6200034d565b6200060d565b3390565b6005546001600160a01b031690565b620002dd620002c0565b6001600160a01b0316620002f0620002c4565b6001600160a01b031614620003225760405162461bcd60e51b815260040162000319906200059b565b60405180910390fd5b6001600160a01b03919091166000908152600d60205260409020805460ff1916911515919091179055565b62000357620002c0565b6001600160a01b03166200036a620002c4565b6001600160a01b031614620003935760405162461bcd60e51b815260040162000319906200059b565b6200039d6200039f565b565b620003a962000420565b15620003c95760405162461bcd60e51b8152600401620003199062000571565b6005805460ff60a01b1916600160a01b1790557f62e78cea01bee320cd4e420270b5ea74000d11b0c9f74754ebdbfc544b05a25862000407620002c0565b6040516200041691906200055d565b60405180910390a1565b600554600160a01b900460ff1690565b8280546200043e90620005d0565b90600052602060002090601f016020900481019282620004625760008555620004ad565b82601f106200047d57805160ff1916838001178555620004ad565b82800160010185558215620004ad579182015b82811115620004ad57825182559160200191906001019062000490565b50620004bb92915062000546565b5090565b828054828255906000526020600020908101928215620004ad579160200282015b82811115620004ad578251829061ffff16905591602001919060010190620004e0565b828054828255906000526020600020908101928215620004ad579160200282015b82811115620004ad578251829060ff1690559160200191906001019062000524565b5b80821115620004bb576000815560010162000547565b6001600160a01b0391909116815260200190565b60208082526010908201526f14185d5cd8589b194e881c185d5cd95960821b604082015260600190565b6020808252818101527f4f776e61626c653a2063616c6c6572206973206e6f7420746865206f776e6572604082015260600190565b600281046001821680620005e557607f821691505b602082108114156200060757634e487b7160e01b600052602260045260246000fd5b50919050565b6133f4806200061d6000396000f3fe6080604052600436106102975760003560e01c8063a1db97821161015a578063c69bebe4116100c1578063e4bbe7eb1161007a578063e4bbe7eb14610795578063e8e6f9ad146107b5578063f167bfc3146107d5578063f2fde38b146107f5578063f98b242f14610815578063fe4261661461082a5761029e565b8063c69bebe4146106e0578063cd0d95e214610700578063ceec6b2a14610720578063cfad0eb614610740578063d948e10414610760578063dd62ed3e146107755761029e565b8063b0eb85ea11610113578063b0eb85ea14610620578063bb6d5e3b14610640578063c010014314610660578063c346e98014610680578063c5714744146106a0578063c62548a8146106c05761029e565b8063a1db97821461056b578063a457c2d71461058b578063a7b9c8ae146105ab578063a9059cbb146105cb578063aaa81984146105eb578063b0de3680146106005761029e565b80633f4ba83a116101fe578063715018a6116101b7578063715018a6146104e25780638456cb59146104f75780638da5cb5b1461050c5780638fb3301714610521578063926fcfc41461053657806395d89b41146105565761029e565b80633f4ba83a1461044357806358191963146104585780635c975abb146104785780635f03e6441461048d5780636c752974146104ad57806370a08231146104c25761029e565b806323b872dd1161025057806323b872dd14610381578063257a0050146103a15780632853c2f7146103c1578063313ce567146103e1578063383b16df1461040357806339509351146104235761029e565b806306fdde03146102a3578063095ea7b3146102ce57806310b4afb3146102fb578063160873151461031d57806318160ddd1461033f5780631adedf06146103615761029e565b3661029e57005b600080fd5b3480156102af57600080fd5b506102b861084a565b6040516102c5919061294f565b60405180910390f35b3480156102da57600080fd5b506102ee6102e93660046126a3565b6108dc565b6040516102c59190612944565b34801561030757600080fd5b506103106108fa565b6040516102c59190612860565b34801561032957600080fd5b5061033d6103383660046125e6565b610909565b005b34801561034b57600080fd5b50610354610999565b6040516102c59190613267565b34801561036d57600080fd5b5061035461037c3660046125e6565b61099f565b34801561038d57600080fd5b506102ee61039c366004612632565b6109f3565b3480156103ad57600080fd5b5061033d6103bc3660046125e6565b610a6a565b3480156103cd57600080fd5b5061033d6103dc3660046127a2565b610af1565b3480156103ed57600080fd5b506103f6610b35565b6040516102c59190613291565b34801561040f57600080fd5b5061033d61041e3660046126cc565b610b45565b34801561042f57600080fd5b506102ee61043e3660046126a3565b610b9b565b34801561044f57600080fd5b5061033d610bea565b34801561046457600080fd5b5061033d6104733660046127d2565b610c33565b34801561048457600080fd5b506102ee610c42565b34801561049957600080fd5b506103546104a83660046127a2565b610c52565b3480156104b957600080fd5b50610310610c8d565b3480156104ce57600080fd5b506103546104dd3660046125e6565b610c9c565b3480156104ee57600080fd5b5061033d610cb7565b34801561050357600080fd5b5061033d610d40565b34801561051857600080fd5b50610310610d87565b34801561052d57600080fd5b50610310610d96565b34801561054257600080fd5b5061033d6105513660046126cc565b610da5565b34801561056257600080fd5b506102b8610df7565b34801561057757600080fd5b5061033d6105863660046126a3565b610e06565b34801561059757600080fd5b506102ee6105a63660046126a3565b610ecd565b3480156105b757600080fd5b5061033d6105c63660046127a2565b610f48565b3480156105d757600080fd5b506102ee6105e63660046126a3565b61100f565b3480156105f757600080fd5b50610354611054565b34801561060c57600080fd5b5061033d61061b3660046127a2565b61105a565b34801561062c57600080fd5b5061033d61063b3660046126cc565b611146565b34801561064c57600080fd5b5061033d61065b3660046127a2565b611198565b34801561066c57600080fd5b5061033d61067b3660046125e6565b6111a2565b34801561068c57600080fd5b5061035461069b3660046127a2565b611229565b3480156106ac57600080fd5b5061033d6106bb3660046127a2565b611264565b3480156106cc57600080fd5b5061033d6106db36600461266d565b61126e565b3480156106ec57600080fd5b5061033d6106fb3660046125e6565b6112d8565b34801561070c57600080fd5b5061033d61071b3660046127a2565b61135f565b34801561072c57600080fd5b5061035461073b3660046125e6565b6113d4565b34801561074c57600080fd5b5061033d61075b3660046125e6565b611417565b34801561076c57600080fd5b5061031061149e565b34801561078157600080fd5b50610354610790366004612600565b6114ad565b3480156107a157600080fd5b506103546107b03660046127f4565b6114d8565b3480156107c157600080fd5b506103546107d03660046127f4565b61159a565b3480156107e157600080fd5b506103546107f03660046125e6565b6115f1565b34801561080157600080fd5b5061033d6108103660046125e6565b611664565b34801561082157600080fd5b50610354611725565b34801561083657600080fd5b5061033d6108453660046127d2565b61177e565b60606003805461085990613301565b80601f016020809104026020016040519081016040528092919081815260200182805461088590613301565b80156108d25780601f106108a7576101008083540402835291602001916108d2565b820191906000526020600020905b8154815290600101906020018083116108b557829003601f168201915b5050505050905090565b60006108f06108e9611788565b848461178c565b5060015b92915050565b6009546001600160a01b031681565b610911611788565b6001600160a01b0316610922610d87565b6001600160a01b0316146109515760405162461bcd60e51b815260040161094890612ed8565b60405180910390fd5b6001600160a01b0381166109775760405162461bcd60e51b815260040161094890612f6a565b601580546001600160a01b0319166001600160a01b0392909216919091179055565b60025490565b60006109aa82611840565b156109b7575060646109ee565b60106109c2836115f1565b815481106109e057634e487b7160e01b600052603260045260246000fd5b906000526020600020015490505b919050565b60006109fe8461185e565b15610a6357610a0e8484846118a1565b6000610a18611788565b90506000610a2686836114ad565b905083811015610a485760405162461bcd60e51b815260040161094890612e90565b610a5c8683610a5787856132ea565b61178c565b6001925050505b9392505050565b610a72611788565b6001600160a01b0316610a83610d87565b6001600160a01b031614610aa95760405162461bcd60e51b815260040161094890612ed8565b6001600160a01b038116610acf5760405162461bcd60e51b815260040161094890612c09565b601480546001600160a01b0319166001600160a01b0392909216919091179055565b610af9611788565b6001600160a01b0316610b0a610d87565b6001600160a01b031614610b305760405162461bcd60e51b815260040161094890612ed8565b600755565b600b54600160a01b900460ff1690565b610b4d611788565b6001600160a01b0316610b5e610d87565b6001600160a01b031614610b845760405162461bcd60e51b815260040161094890612ed8565b8051610b9790600e90602084019061256f565b5050565b60006108f0610ba8611788565b848460016000610bb6611788565b6001600160a01b03908116825260208083019390935260409182016000908120918b1681529252902054610a57919061329f565b610bf2611788565b6001600160a01b0316610c03610d87565b6001600160a01b031614610c295760405162461bcd60e51b815260040161094890612ed8565b610c316119c9565b565b610c3d8282611a3a565b505050565b600554600160a01b900460ff1690565b6000610c5f600183613357565b15610c7c5760405162461bcd60e51b815260040161094890612f0d565b6108f4610c87610999565b8361159a565b6015546001600160a01b031681565b6001600160a01b031660009081526020819052604090205490565b610cbf611788565b6001600160a01b0316610cd0610d87565b6001600160a01b031614610cf65760405162461bcd60e51b815260040161094890612ed8565b6005546040516000916001600160a01b0316907f8be0079c531659141344cd1fd0a4f28419497f9722a3daafe3b4186f6b6457e0908390a3600580546001600160a01b0319169055565b610d48611788565b6001600160a01b0316610d59610d87565b6001600160a01b031614610d7f5760405162461bcd60e51b815260040161094890612ed8565b610c31611f1b565b6005546001600160a01b031690565b6016546001600160a01b031681565b610dad611788565b6001600160a01b0316610dbe610d87565b6001600160a01b031614610de45760405162461bcd60e51b815260040161094890612ed8565b8051610b9790600f90602084019061256f565b60606004805461085990613301565b610e0e611788565b6001600160a01b0316610e1f610d87565b6001600160a01b031614610e455760405162461bcd60e51b815260040161094890612ed8565b60405163a9059cbb60e01b815282906001600160a01b0382169063a9059cbb90610e7590339086906004016128db565b602060405180830381600087803b158015610e8f57600080fd5b505af1158015610ea3573d6000803e3d6000fd5b505050506040513d601f19601f82011682018060405250810190610ec79190612786565b50505050565b60008060016000610edc611788565b6001600160a01b0390811682526020808301939093526040918201600090812091881681529252902054905082811015610f285760405162461bcd60e51b8152600401610948906131eb565b610f3e610f33611788565b85610a5786856132ea565b5060019392505050565b610f50611788565b6001600160a01b0316610f61610d87565b6001600160a01b031614610f875760405162461bcd60e51b815260040161094890612ed8565b601654600b5460405163a9059cbb60e01b81526001600160a01b039283169263a9059cbb92610fbd9291169085906004016128db565b602060405180830381600087803b158015610fd757600080fd5b505af1158015610feb573d6000803e3d6000fd5b505050506040513d601f19601f82011682018060405250810190610b979190612786565b600061101a3361185e565b156108f4576001600160a01b0383166000908152600c6020526040902043905561104c611045611788565b84846118a1565b5060016108f4565b60135490565b611062611788565b6001600160a01b0316611073610d87565b6001600160a01b0316146110995760405162461bcd60e51b815260040161094890612ed8565b60145460155460095460405163e8eda9df60e01b81526001600160a01b039384169363e8eda9df936110da9390821692879290911690600090600401612917565b600060405180830381600087803b1580156110f457600080fd5b505af1158015611108573d6000803e3d6000fd5b505050507fe4b07db4e98b8c4d7db7898ec0ca1004b8d388810ececa888262a4e5886027a98160405161113b9190613267565b60405180910390a150565b61114e611788565b6001600160a01b031661115f610d87565b6001600160a01b0316146111855760405162461bcd60e51b815260040161094890612ed8565b8051610b9790601090602084019061256f565b610b978133611a3a565b6111aa611788565b6001600160a01b03166111bb610d87565b6001600160a01b0316146111e15760405162461bcd60e51b815260040161094890612ed8565b6001600160a01b0381166112075760405162461bcd60e51b815260040161094890612d7f565b601680546001600160a01b0319166001600160a01b0392909216919091179055565b6000611236600183613357565b156112535760405162461bcd60e51b815260040161094890612f0d565b6108f461125e610999565b836114d8565b610b978133611f7c565b611276611788565b6001600160a01b0316611287610d87565b6001600160a01b0316146112ad5760405162461bcd60e51b815260040161094890612ed8565b6001600160a01b03919091166000908152600d60205260409020805460ff1916911515919091179055565b6112e0611788565b6001600160a01b03166112f1610d87565b6001600160a01b0316146113175760405162461bcd60e51b815260040161094890612ed8565b6001600160a01b03811661133d5760405162461bcd60e51b815260040161094890612a72565b600a80546001600160a01b0319166001600160a01b0392909216919091179055565b611367611788565b6001600160a01b0316611378610d87565b6001600160a01b03161461139e5760405162461bcd60e51b815260040161094890612ed8565b60155460145460405163095ea7b360e01b81526001600160a01b039283169263095ea7b392610fbd9291169085906004016128db565b6000601254600f6113e4846115f1565b8154811061140257634e487b7160e01b600052603260045260246000fd5b90600052602060002001546108f491906132cb565b61141f611788565b6001600160a01b0316611430610d87565b6001600160a01b0316146114565760405162461bcd60e51b815260040161094890612ed8565b6001600160a01b03811661147c5760405162461bcd60e51b815260040161094890612e25565b600b80546001600160a01b0319166001600160a01b0392909216919091179055565b6014546001600160a01b031681565b6001600160a01b03918216600090815260016020908152604080832093909416825291909152205490565b600080831180156114e95750600082115b80156114f55750818310155b6115115760405162461bcd60e51b815260040161094890613091565b600061151d83856132ea565b9050600061152b85806132cb565b9050600061153983806132cb565b9050600061154782846132ea565b905060006006548261155991906132cb565b905060006007548261156b91906132b7565b9050612710600061157c8284613357565b9050600061158a82856132ea565b9c9b505050505050505050505050565b60008082116115bb5760405162461bcd60e51b815260040161094890612bc2565b60006115c784806132cb565b905060006115d5848661329f565b905060006115e382806132cb565b9050600061154784836132ea565b6000806115fd83610c9c565b905060005b81600e61161083600161329f565b8154811061162e57634e487b7160e01b600052603260045260246000fd5b906000526020600020015411610a63576107d08210611652576005925050506109ee565b8061165c8161333c565b915050611602565b61166c611788565b6001600160a01b031661167d610d87565b6001600160a01b0316146116a35760405162461bcd60e51b815260040161094890612ed8565b6001600160a01b0381166116c95760405162461bcd60e51b815260040161094890612acf565b6005546040516001600160a01b038084169216907f8be0079c531659141344cd1fd0a4f28419497f9722a3daafe3b4186f6b6457e090600090a3600580546001600160a01b0319166001600160a01b0392909216919091179055565b600061172f611788565b6001600160a01b0316611740610d87565b6001600160a01b0316146117665760405162461bcd60e51b815260040161094890612ed8565b611779611771610999565b6107b0610999565b905090565b610c3d8282611f7c565b3390565b6001600160a01b0383166117b25760405162461bcd60e51b81526004016109489061304d565b6001600160a01b0382166117d85760405162461bcd60e51b815260040161094890612b15565b6001600160a01b0380841660008181526001602090815260408083209487168084529490915290819020849055517f8c5be1e5ebec7d5bd14f71427d1e84f3dd0314c0f7b2291e5b200ac8c7c3b92590611833908590613267565b60405180910390a3505050565b6001600160a01b03166000908152600d602052604090205460ff1690565b6001600160a01b0381166000908152600c6020526040812054819061188390436132ea565b905060115481118015610a63575061189a836113d4565b1092915050565b6001600160a01b0383166118c75760405162461bcd60e51b815260040161094890613008565b6001600160a01b0382166118ed5760405162461bcd60e51b815260040161094890612962565b6118f8838383610c3d565b6001600160a01b038316600090815260208190526040902054818110156119315760405162461bcd60e51b815260040161094890612c67565b61193b82826132ea565b6001600160a01b03808616600090815260208190526040808220939093559085168152908120805484929061197190849061329f565b92505081905550826001600160a01b0316846001600160a01b03167fddf252ad1be2c89b69c2b068fc378daa952ba7f163c4a11628f55a4df523b3ef846040516119bb9190613267565b60405180910390a350505050565b6119d1610c42565b6119ed5760405162461bcd60e51b815260040161094890612a02565b6005805460ff60a01b191690557f5db9ee0a495bf2e6ff9c91a7834c1ba4fdd244a5e8aa4e537bd38aeae4b073aa611a23611788565b604051611a309190612860565b60405180910390a1565b6000611a44610c42565b15611a615760405162461bcd60e51b815260040161094890612d55565b60026008541415611a845760405162461bcd60e51b8152600401610948906130de565b6002600855611a94600184613357565b15611ab15760405162461bcd60e51b815260040161094890612f0d565b6000611abc84610c52565b90506000611ac93361099f565b611ad49060646132ea565b905060006064806013548486611aea91906132cb565b611af491906132cb565b611afe91906132b7565b611b0891906132b7565b90506000611b1861271083613357565b90506000611b2682846132ea565b90506000611b34828761329f565b6015546040516370a0823160e01b81529192506000916001600160a01b03909116906370a0823190611b6a903390600401612860565b60206040518083038186803b158015611b8257600080fd5b505afa158015611b96573d6000803e3d6000fd5b505050506040513d601f19601f82011682018060405250810190611bba91906127ba565b601554600954604051636eb1769f60e11b81529293506000926001600160a01b039283169263dd62ed3e92611bf792339290911690600401612874565b60206040518083038186803b158015611c0f57600080fd5b505afa158015611c23573d6000803e3d6000fd5b505050506040513d601f19601f82011682018060405250810190611c4791906127ba565b905081831115611c695760405162461bcd60e51b815260040161094890612ddc565b80831115611c895760405162461bcd60e51b815260040161094890613183565b624c4b40881015611cac5760405162461bcd60e51b8152600401610948906129a5565b601554600a546040516323b872dd60e01b81526001600160a01b03928316926323b872dd92611ce592339290911690899060040161288e565b602060405180830381600087803b158015611cff57600080fd5b505af1158015611d13573d6000803e3d6000fd5b505050506040513d601f19601f82011682018060405250810190611d379190612786565b506015546009546040516323b872dd60e01b81526001600160a01b03928316926323b872dd92611d71923392909116908d9060040161288e565b602060405180830381600087803b158015611d8b57600080fd5b505af1158015611d9f573d6000803e3d6000fd5b505050506040513d601f19601f82011682018060405250810190611dc39190612786565b50611dcd8861139e565b601554600954601454604051636eb1769f60e11b81526000936001600160a01b039081169363dd62ed3e93611e0a93918316921690600401612874565b60206040518083038186803b158015611e2257600080fd5b505afa158015611e36573d6000803e3d6000fd5b505050506040513d601f19601f82011682018060405250810190611e5a91906127ba565b9050611e9b816040518060400160405280602081526020017f424e4a2c204c656e64696e67506f6f6c416c6c6f77616e6365696e366465632081525061227e565b611ea489611099565b6001600160a01b038b166000908152600c60205260409020439055611ec98b8d6122c3565b7f67a9bacfa3375d781ca8b93e2eb8420c9dfa491353b9f782c2a56fff7b9c7ff6338c8e8c604051611efe94939291906128b2565b60405180910390a150506001600855509498975050505050505050565b611f23610c42565b15611f405760405162461bcd60e51b815260040161094890612d55565b6005805460ff60a01b1916600160a01b1790557f62e78cea01bee320cd4e420270b5ea74000d11b0c9f74754ebdbfc544b05a258611a23611788565b6000611f86610c42565b15611fa35760405162461bcd60e51b815260040161094890612d55565b60026008541415611fc65760405162461bcd60e51b8152600401610948906130de565b6002600855611fd6600184613357565b15611ff35760405162461bcd60e51b815260040161094890612f0d565b611ffc3361185e565b6120185760405162461bcd60e51b815260040161094890613115565b600061202333610c9c565b9050600084116120455760405162461bcd60e51b815260040161094890612d0a565b838110156120655760405162461bcd60e51b815260040161094890612b57565b600061207085611229565b9050624c4b408110156120955760405162461bcd60e51b815260040161094890612cad565b60006120a03361099f565b6120ab9060646132ea565b9050600060648060135484866120c191906132cb565b6120cb91906132cb565b6120d591906132b7565b6120df91906132b7565b905060006120ef61271083613357565b905060006120fd82846132ea565b9050600061210b82876132ea565b9050612117338b612383565b7f7d5d31bdccaf1c82c15c6bc40fd7ba6435c5f91b48cbc62841bded9e222fcd75338a8c8960405161214c94939291906128b2565b60405180910390a161215d86612469565b601554600a5460405163a9059cbb60e01b81526001600160a01b039283169263a9059cbb926121939291169086906004016128db565b602060405180830381600087803b1580156121ad57600080fd5b505af11580156121c1573d6000803e3d6000fd5b505050506040513d601f19601f820116820180604052508101906121e59190612786565b5060155460405163a9059cbb60e01b81526001600160a01b039091169063a9059cbb90612218908c9085906004016128db565b602060405180830381600087803b15801561223257600080fd5b505af1158015612246573d6000803e3d6000fd5b505050506040513d601f19601f8201168201806040525081019061226a9190612786565b505060016008555092979650505050505050565b610b978282604051602401612294929190613270565b60408051601f198184030181529190526020810180516001600160e01b0316630fa3f34560e01b17905261254e565b6001600160a01b0382166122e95760405162461bcd60e51b815260040161094890613230565b6122f560008383610c3d565b8060026000828254612307919061329f565b90915550506001600160a01b0382166000908152602081905260408120805483929061233490849061329f565b90915550506040516001600160a01b038316906000907fddf252ad1be2c89b69c2b068fc378daa952ba7f163c4a11628f55a4df523b3ef90612377908590613267565b60405180910390a35050565b6001600160a01b0382166123a95760405162461bcd60e51b815260040161094890612fc7565b6123b582600083610c3d565b6001600160a01b038216600090815260208190526040902054818110156123ee5760405162461bcd60e51b815260040161094890612a30565b6123f882826132ea565b6001600160a01b038416600090815260208190526040812091909155600280548492906124269084906132ea565b90915550506040516000906001600160a01b038516907fddf252ad1be2c89b69c2b068fc378daa952ba7f163c4a11628f55a4df523b3ef90611833908690613267565b612471610c42565b1561248e5760405162461bcd60e51b815260040161094890612d55565b601454601554600954604051631a4ca37b60e21b81526001600160a01b03938416936369328dec936124cc93908216928792909116906004016128f4565b602060405180830381600087803b1580156124e657600080fd5b505af11580156124fa573d6000803e3d6000fd5b505050506040513d601f19601f8201168201806040525081019061251e91906127ba565b507fcf262399c7d7a6ef0283fba5e04858a528d91a896dc7bc72fa3e55fbfee77deb8160405161113b9190613267565b80516a636f6e736f6c652e6c6f67602083016000808483855afa5050505050565b8280548282559060005260206000209081019282156125aa579160200282015b828111156125aa57825182559160200191906001019061258f565b506125b69291506125ba565b5090565b5b808211156125b657600081556001016125bb565b80356001600160a01b03811681146109ee57600080fd5b6000602082840312156125f7578081fd5b610a63826125cf565b60008060408385031215612612578081fd5b61261b836125cf565b9150612629602084016125cf565b90509250929050565b600080600060608486031215612646578081fd5b61264f846125cf565b925061265d602085016125cf565b9150604084013590509250925092565b6000806040838503121561267f578182fd5b612688836125cf565b91506020830135612698816133ad565b809150509250929050565b600080604083850312156126b5578182fd5b6126be836125cf565b946020939093013593505050565b600060208083850312156126de578182fd5b823567ffffffffffffffff808211156126f5578384fd5b818501915085601f830112612708578384fd5b81358181111561271a5761271a613397565b8381026040518582820101818110858211171561273957612739613397565b604052828152858101935084860182860187018a1015612757578788fd5b8795505b8386101561277957803585526001959095019493860193860161275b565b5098975050505050505050565b600060208284031215612797578081fd5b8151610a63816133ad565b6000602082840312156127b3578081fd5b5035919050565b6000602082840312156127cb578081fd5b5051919050565b600080604083850312156127e4578182fd5b82359150612629602084016125cf565b60008060408385031215612806578182fd5b50508035926020909101359150565b60008151808452815b8181101561283a5760208185018101518683018201520161281e565b8181111561284b5782602083870101525b50601f01601f19169290920160200192915050565b6001600160a01b0391909116815260200190565b6001600160a01b0392831681529116602082015260400190565b6001600160a01b039384168152919092166020820152604081019190915260600190565b6001600160a01b0394851681529290931660208301526040820152606081019190915260800190565b6001600160a01b03929092168252602082015260400190565b6001600160a01b0393841681526020810192909252909116604082015260600190565b6001600160a01b03948516815260208101939093529216604082015261ffff909116606082015260800190565b901515815260200190565b600060208252610a636020830184612815565b60208082526023908201527f45524332303a207472616e7366657220746f20746865207a65726f206164647260408201526265737360e81b606082015260800190565b6020808252603a908201527f424e4a2c20737065636966696564416d6f756e744d696e743a204d696e696d7560408201527f6d206d696e74696e672076616c7565206f662024352055534443000000000000606082015260800190565b60208082526014908201527314185d5cd8589b194e881b9bdd081c185d5cd95960621b604082015260600190565b60208082526022908201527f45524332303a206275726e20616d6f756e7420657863656564732062616c616e604082015261636560f01b606082015260800190565b6020808252603d908201527f424e4a2c2075706461746546656552656365697665723a206e6577416464726560408201527f73732063616e6e6f7420626520746865207a65726f2061646472657373000000606082015260800190565b60208082526026908201527f4f776e61626c653a206e6577206f776e657220697320746865207a65726f206160408201526564647265737360d01b606082015260800190565b60208082526022908201527f45524332303a20617070726f766520746f20746865207a65726f206164647265604082015261737360f01b606082015260800190565b60208082526045908201527f424e4a2c20557365727320746f6b656e42616c616e6365206d7573742062652060408201527f657175616c20746f206f72206d6f7265207468616e20616d6f756e7420746f20606082015264313ab9371760d91b608082015260a00190565b60208082526027908201527f424e4a4943757276653a204d757374206d696e74206d6f7265207468616e203060408201526620746f6b656e7360c81b606082015260800190565b602080825260409082018190527f75706461746520506f6c79676f6e4c656e64696e67506f6f6c3a206e65774164908201527f64726573732063616e6e6f7420626520746865207a65726f2061646472657373606082015260800190565b60208082526026908201527f45524332303a207472616e7366657220616d6f756e7420657863656564732062604082015265616c616e636560d01b606082015260800190565b6020808252603a908201527f424e4a2c20737065636966696564416d6f756e744275726e3a204d696e696d7560408201527f6d206275726e696e672076616c75652069732024352055534443000000000000606082015260800190565b6020808252602b908201527f424e4a2c20416d6f756e7420746f206275726e206d757374206265206d6f726560408201526a103a3430b7103d32b9379760a91b606082015260800190565b60208082526010908201526f14185d5cd8589b194e881c185d5cd95960821b604082015260600190565b6020808252603f908201527f424e4a2c20757064617465506f6c79676f6e414d555344433a206e657741646460408201527f726573732063616e6e6f7420626520746865207a65726f206164647265737300606082015260800190565b60208082526029908201527f424e4a2c20737065636966696564416d6f756e744d696e743a204e6f7420656e6040820152686f756768205553444360b81b606082015260800190565b60208082526045908201527f424e4a2c20757064617465416363756d756c6174656452656365697665723a2060408201527f6e6577416464726573732063616e6e6f7420626520746865207a65726f206164606082015264647265737360d81b608082015260a00190565b60208082526028908201527f45524332303a207472616e7366657220616d6f756e74206578636565647320616040820152676c6c6f77616e636560c01b606082015260800190565b6020808252818101527f4f776e61626c653a2063616c6c6572206973206e6f7420746865206f776e6572604082015260600190565b6020808252603a908201527f424e4a3a20616d6f756e74206d75737420626520646976697369626c6520627960408201527f20312c20424e4a49732068617665203020646563696d616c732e000000000000606082015260800190565b6020808252603d908201527f424e4a2c20757064617465506f6c79676f6e555344433a206e6577416464726560408201527f73732063616e6e6f7420626520746865207a65726f2061646472657373000000606082015260800190565b60208082526021908201527f45524332303a206275726e2066726f6d20746865207a65726f206164647265736040820152607360f81b606082015260800190565b60208082526025908201527f45524332303a207472616e736665722066726f6d20746865207a65726f206164604082015264647265737360d81b606082015260800190565b60208082526024908201527f45524332303a20617070726f76652066726f6d20746865207a65726f206164646040820152637265737360e01b606082015260800190565b6020808252602d908201527f424e4a4943757276653a2053656e64696e672061726773206d7573742062652060408201526c06c6172676572207468616e203609c1b606082015260800190565b6020808252601f908201527f5265656e7472616e637947756172643a207265656e7472616e742063616c6c00604082015260600190565b60208082526048908201527f424e4a2c20737065636966696564416d6f756e744275726e3a206d73672e736560408201527f6e646572206973206e6f742079657420616c6c6f77656420746f2077697468646060820152673930bb97b13ab93760c11b608082015260a00190565b60208082526042908201527f424e4a2c20737065636966696564416d6f756e744d696e743a204e6f7420656e60408201527f6f75676820616c6c6f77616e636520696e205553444320666f72207061796d656060820152611b9d60f21b608082015260a00190565b60208082526025908201527f45524332303a2064656372656173656420616c6c6f77616e63652062656c6f77604082015264207a65726f60d81b606082015260800190565b6020808252601f908201527f45524332303a206d696e7420746f20746865207a65726f206164647265737300604082015260600190565b90815260200190565b6000838252604060208301526132896040830184612815565b949350505050565b60ff91909116815260200190565b600082198211156132b2576132b261336b565b500190565b6000826132c6576132c6613381565b500490565b60008160001904831182151516156132e5576132e561336b565b500290565b6000828210156132fc576132fc61336b565b500390565b60028104600182168061331557607f821691505b6020821081141561333657634e487b7160e01b600052602260045260246000fd5b50919050565b60006000198214156133505761335061336b565b5060010190565b60008261336657613366613381565b500690565b634e487b7160e01b600052601160045260246000fd5b634e487b7160e01b600052601260045260246000fd5b634e487b7160e01b600052604160045260246000fd5b80151581146133bb57600080fd5b5056fea2646970667358221220d7d5719847d811924b916d607be4d638527ddc8e2973873f2bb2735152adb66764736f6c63430008000033",
  "linkReferences": {},
  "deployedLinkReferences": {}
}