{
  "_format": "hh-sol-artifact-1",
  "contractName": "Benjamins",
  "sourceName": "contracts/Benjamins.sol",
  "abi": [
    {
      "inputs": [],
      "stateMutability": "nonpayable",
      "type": "constructor"
    },
    {
      "anonymous": false,
      "inputs": [
        {
          "indexed": true,
          "internalType": "address",
          "name": "owner",
          "type": "address"
        },
        {
          "indexed": true,
          "internalType": "address",
          "name": "spender",
          "type": "address"
        },
        {
          "indexed": false,
          "internalType": "uint256",
          "name": "value",
          "type": "uint256"
        }
      ],
      "name": "Approval",
      "type": "event"
    },
    {
      "anonymous": false,
      "inputs": [
        {
          "indexed": false,
          "internalType": "uint256",
          "name": "amountUSDCin6dec",
          "type": "uint256"
        },
        {
          "indexed": false,
          "internalType": "address",
          "name": "payer",
          "type": "address"
        }
      ],
      "name": "LendingPoolDeposit",
      "type": "event"
    },
    {
      "anonymous": false,
      "inputs": [
        {
          "indexed": false,
          "internalType": "uint256",
          "name": "amountUSDCBeforeFeein6dec",
          "type": "uint256"
        },
        {
          "indexed": false,
          "internalType": "address",
          "name": "payee",
          "type": "address"
        }
      ],
      "name": "LendingPoolWithdrawal",
      "type": "event"
    },
    {
      "anonymous": false,
      "inputs": [
        {
          "indexed": true,
          "internalType": "address",
          "name": "previousOwner",
          "type": "address"
        },
        {
          "indexed": true,
          "internalType": "address",
          "name": "newOwner",
          "type": "address"
        }
      ],
      "name": "OwnershipTransferred",
      "type": "event"
    },
    {
      "anonymous": false,
      "inputs": [
        {
          "indexed": false,
          "internalType": "address",
          "name": "account",
          "type": "address"
        }
      ],
      "name": "Paused",
      "type": "event"
    },
    {
      "anonymous": false,
      "inputs": [
        {
          "indexed": true,
          "internalType": "address",
          "name": "from",
          "type": "address"
        },
        {
          "indexed": true,
          "internalType": "address",
          "name": "to",
          "type": "address"
        },
        {
          "indexed": false,
          "internalType": "uint256",
          "name": "value",
          "type": "uint256"
        }
      ],
      "name": "Transfer",
      "type": "event"
    },
    {
      "anonymous": false,
      "inputs": [
        {
          "indexed": false,
          "internalType": "address",
          "name": "account",
          "type": "address"
        }
      ],
      "name": "Unpaused",
      "type": "event"
    },
    {
      "anonymous": false,
      "inputs": [
        {
          "indexed": false,
          "internalType": "address",
          "name": "fromAddress",
          "type": "address"
        },
        {
          "indexed": false,
          "internalType": "address",
          "name": "toAddress",
          "type": "address"
        },
        {
          "indexed": false,
          "internalType": "uint256",
          "name": "inTokens",
          "type": "uint256"
        },
        {
          "indexed": false,
          "internalType": "uint256",
          "name": "beforeFeeUSDCin6dec",
          "type": "uint256"
        },
        {
          "indexed": false,
          "internalType": "uint256",
          "name": "feeUSDCin6dec",
          "type": "uint256"
        }
      ],
      "name": "exchanged",
      "type": "event"
    },
    {
      "anonymous": false,
      "inputs": [
        {
          "indexed": false,
          "internalType": "address",
          "name": "account",
          "type": "address"
        }
      ],
      "name": "newDepositAccount",
      "type": "event"
    },
    {
      "anonymous": false,
      "inputs": [
        {
          "indexed": false,
          "internalType": "address",
          "name": "beneficiary",
          "type": "address"
        }
      ],
      "name": "newFeeReceiver",
      "type": "event"
    },
    {
      "anonymous": false,
      "inputs": [
        {
          "indexed": false,
          "internalType": "uint256",
          "name": "availableIn6dec",
          "type": "uint256"
        },
        {
          "indexed": false,
          "internalType": "uint256",
          "name": "amountUSDCin6dec",
          "type": "uint256"
        }
      ],
      "name": "profitTaken",
      "type": "event"
    },
    {
      "inputs": [
        {
          "internalType": "address",
          "name": "owner",
          "type": "address"
        },
        {
          "internalType": "address",
          "name": "spender",
          "type": "address"
        }
      ],
      "name": "allowance",
      "outputs": [
        {
          "internalType": "uint256",
          "name": "",
          "type": "uint256"
        }
      ],
      "stateMutability": "view",
      "type": "function"
    },
    {
      "inputs": [
        {
          "internalType": "address",
          "name": "spender",
          "type": "address"
        },
        {
          "internalType": "uint256",
          "name": "amount",
          "type": "uint256"
        }
      ],
      "name": "approve",
      "outputs": [
        {
          "internalType": "bool",
          "name": "",
          "type": "bool"
        }
      ],
      "stateMutability": "nonpayable",
      "type": "function"
    },
    {
      "inputs": [
        {
          "internalType": "address",
          "name": "account",
          "type": "address"
        }
      ],
      "name": "balanceOf",
      "outputs": [
        {
          "internalType": "uint256",
          "name": "",
          "type": "uint256"
        }
      ],
      "stateMutability": "view",
      "type": "function"
    },
    {
      "inputs": [
        {
          "internalType": "uint256",
          "name": "_amount",
          "type": "uint256"
        }
      ],
      "name": "burn",
      "outputs": [],
      "stateMutability": "nonpayable",
      "type": "function"
    },
    {
      "inputs": [
        {
          "internalType": "uint256",
          "name": "_amount",
          "type": "uint256"
        },
        {
          "internalType": "address",
          "name": "_toWhom",
          "type": "address"
        }
      ],
      "name": "burnTo",
      "outputs": [],
      "stateMutability": "nonpayable",
      "type": "function"
    },
    {
      "inputs": [],
      "name": "decimals",
      "outputs": [
        {
          "internalType": "uint8",
          "name": "",
          "type": "uint8"
        }
      ],
      "stateMutability": "view",
      "type": "function"
    },
    {
      "inputs": [
        {
          "internalType": "address",
          "name": "spender",
          "type": "address"
        },
        {
          "internalType": "uint256",
          "name": "subtractedValue",
          "type": "uint256"
        }
      ],
      "name": "decreaseAllowance",
      "outputs": [
        {
          "internalType": "bool",
          "name": "",
          "type": "bool"
        }
      ],
      "stateMutability": "nonpayable",
      "type": "function"
    },
    {
      "inputs": [
        {
          "internalType": "address",
          "name": "_whom",
          "type": "address"
        }
      ],
      "name": "discountLevel",
      "outputs": [
        {
          "internalType": "uint8",
          "name": "",
          "type": "uint8"
        }
      ],
      "stateMutability": "view",
      "type": "function"
    },
    {
      "inputs": [
        {
          "internalType": "address",
          "name": "spender",
          "type": "address"
        },
        {
          "internalType": "uint256",
          "name": "addedValue",
          "type": "uint256"
        }
      ],
      "name": "increaseAllowance",
      "outputs": [
        {
          "internalType": "bool",
          "name": "",
          "type": "bool"
        }
      ],
      "stateMutability": "nonpayable",
      "type": "function"
    },
    {
      "inputs": [
        {
          "internalType": "uint256",
          "name": "_amount",
          "type": "uint256"
        }
      ],
      "name": "mint",
      "outputs": [],
      "stateMutability": "nonpayable",
      "type": "function"
    },
    {
      "inputs": [
        {
          "internalType": "uint256",
          "name": "_amount",
          "type": "uint256"
        },
        {
          "internalType": "address",
          "name": "_toWhom",
          "type": "address"
        }
      ],
      "name": "mintTo",
      "outputs": [],
      "stateMutability": "nonpayable",
      "type": "function"
    },
    {
      "inputs": [],
      "name": "name",
      "outputs": [
        {
          "internalType": "string",
          "name": "",
          "type": "string"
        }
      ],
      "stateMutability": "view",
      "type": "function"
    },
    {
      "inputs": [],
      "name": "owner",
      "outputs": [
        {
          "internalType": "address",
          "name": "",
          "type": "address"
        }
      ],
      "stateMutability": "view",
      "type": "function"
    },
    {
      "inputs": [],
      "name": "pause",
      "outputs": [],
      "stateMutability": "nonpayable",
      "type": "function"
    },
    {
      "inputs": [],
      "name": "paused",
      "outputs": [
        {
          "internalType": "bool",
          "name": "",
          "type": "bool"
        }
      ],
      "stateMutability": "view",
      "type": "function"
    },
    {
      "inputs": [],
      "name": "polygonAMUSDC",
      "outputs": [
        {
          "internalType": "contract IERC20",
          "name": "",
          "type": "address"
        }
      ],
      "stateMutability": "view",
      "type": "function"
    },
    {
      "inputs": [],
      "name": "polygonLendingPool",
      "outputs": [
        {
          "internalType": "contract ILendingPool",
          "name": "",
          "type": "address"
        }
      ],
      "stateMutability": "view",
      "type": "function"
    },
    {
      "inputs": [],
      "name": "polygonUSDC",
      "outputs": [
        {
          "internalType": "contract IERC20",
          "name": "",
          "type": "address"
        }
      ],
      "stateMutability": "view",
      "type": "function"
    },
    {
      "inputs": [
        {
          "internalType": "address",
          "name": "forWhom",
          "type": "address"
        }
      ],
      "name": "quoteFeePercentage",
      "outputs": [
        {
          "internalType": "uint16",
          "name": "",
          "type": "uint16"
        }
      ],
      "stateMutability": "view",
      "type": "function"
    },
    {
      "inputs": [
        {
          "internalType": "uint256",
          "name": "_amount",
          "type": "uint256"
        },
        {
          "internalType": "bool",
          "name": "isMint",
          "type": "bool"
        }
      ],
      "name": "quoteUSDC",
      "outputs": [
        {
          "internalType": "uint256",
          "name": "",
          "type": "uint256"
        }
      ],
      "stateMutability": "view",
      "type": "function"
    },
    {
      "inputs": [],
      "name": "renounceOwnership",
      "outputs": [],
      "stateMutability": "nonpayable",
      "type": "function"
    },
    {
      "inputs": [
        {
          "internalType": "address",
          "name": "ERC20ContractAddress",
          "type": "address"
        }
      ],
      "name": "scavengeERC20Tip",
      "outputs": [],
      "stateMutability": "nonpayable",
      "type": "function"
    },
    {
      "inputs": [
        {
          "internalType": "address",
          "name": "beneficiary",
          "type": "address"
        }
      ],
      "name": "setFeeReceiver",
      "outputs": [],
      "stateMutability": "nonpayable",
      "type": "function"
    },
    {
      "inputs": [],
      "name": "showReserveIn6dec",
      "outputs": [
        {
          "internalType": "uint256",
          "name": "",
          "type": "uint256"
        }
      ],
      "stateMutability": "view",
      "type": "function"
    },
    {
      "inputs": [],
      "name": "symbol",
      "outputs": [
        {
          "internalType": "string",
          "name": "",
          "type": "string"
        }
      ],
      "stateMutability": "view",
      "type": "function"
    },
    {
      "inputs": [],
      "name": "totalSupply",
      "outputs": [
        {
          "internalType": "uint256",
          "name": "",
          "type": "uint256"
        }
      ],
      "stateMutability": "view",
      "type": "function"
    },
    {
      "inputs": [
        {
          "internalType": "address",
          "name": "recipient",
          "type": "address"
        },
        {
          "internalType": "uint256",
          "name": "amount",
          "type": "uint256"
        }
      ],
      "name": "transfer",
      "outputs": [
        {
          "internalType": "bool",
          "name": "",
          "type": "bool"
        }
      ],
      "stateMutability": "nonpayable",
      "type": "function"
    },
    {
      "inputs": [
        {
          "internalType": "address",
          "name": "sender",
          "type": "address"
        },
        {
          "internalType": "address",
          "name": "recipient",
          "type": "address"
        },
        {
          "internalType": "uint256",
          "name": "amountBNJIs",
          "type": "uint256"
        }
      ],
      "name": "transferFrom",
      "outputs": [
        {
          "internalType": "bool",
          "name": "",
          "type": "bool"
        }
      ],
      "stateMutability": "nonpayable",
      "type": "function"
    },
    {
      "inputs": [
        {
          "internalType": "address",
          "name": "newOwner",
          "type": "address"
        }
      ],
      "name": "transferOwnership",
      "outputs": [],
      "stateMutability": "nonpayable",
      "type": "function"
    },
    {
      "inputs": [],
      "name": "unpause",
      "outputs": [],
      "stateMutability": "nonpayable",
      "type": "function"
    },
    {
      "inputs": [
        {
          "internalType": "uint256",
          "name": "amountToApprove",
          "type": "uint256"
        }
      ],
      "name": "updateApproveLendingPool",
      "outputs": [],
      "stateMutability": "nonpayable",
      "type": "function"
    },
    {
      "inputs": [
        {
          "internalType": "uint256",
          "name": "newAmountOfBlocksPerDay",
          "type": "uint256"
        }
      ],
      "name": "updateBlocksPerDay",
      "outputs": [],
      "stateMutability": "nonpayable",
      "type": "function"
    },
    {
      "inputs": [
        {
          "internalType": "uint32[]",
          "name": "newLevelAntes",
          "type": "uint32[]"
        }
      ],
      "name": "updateLevelAntes",
      "outputs": [],
      "stateMutability": "nonpayable",
      "type": "function"
    },
    {
      "inputs": [
        {
          "internalType": "uint8[]",
          "name": "newLevelDiscounts",
          "type": "uint8[]"
        }
      ],
      "name": "updateLevelDiscounts",
      "outputs": [],
      "stateMutability": "nonpayable",
      "type": "function"
    },
    {
      "inputs": [
        {
          "internalType": "uint16[]",
          "name": "newLevelHolds",
          "type": "uint16[]"
        }
      ],
      "name": "updateLevelHolds",
      "outputs": [],
      "stateMutability": "nonpayable",
      "type": "function"
    },
    {
      "inputs": [
        {
          "internalType": "address",
          "name": "newAddress",
          "type": "address"
        }
      ],
      "name": "updatePolygonAMUSDC",
      "outputs": [],
      "stateMutability": "nonpayable",
      "type": "function"
    },
    {
      "inputs": [
        {
          "internalType": "address",
          "name": "newAddress",
          "type": "address"
        }
      ],
      "name": "updatePolygonLendingPool",
      "outputs": [],
      "stateMutability": "nonpayable",
      "type": "function"
    },
    {
      "inputs": [
        {
          "internalType": "address",
          "name": "newAddress",
          "type": "address"
        }
      ],
      "name": "updatePolygonUSDC",
      "outputs": [],
      "stateMutability": "nonpayable",
      "type": "function"
    },
    {
      "inputs": [
        {
          "internalType": "uint256",
          "name": "_amountIn6dec",
          "type": "uint256"
        }
      ],
      "name": "withdrawGains",
      "outputs": [],
      "stateMutability": "nonpayable",
      "type": "function"
    },
    {
      "stateMutability": "payable",
      "type": "receive"
    }
  ],
  "bytecode": "0x6080604052620f4240600d556013805460ff1916600a17905560026014819055620c35006015556016805461ffff191690911790553480156200004157600080fd5b506040518060400160405280600981526020016842656e6a616d696e7360b81b81525060405180604001604052806004815260200163424e4a4960e01b8152506000620000936200028760201b60201c565b600080546001600160a01b0319166001600160a01b0383169081178255604051929350917f8be0079c531659141344cd1fd0a4f28419497f9722a3daafe3b4186f6b6457e0908290a3508151620000f290600490602085019062000379565b5080516200010890600590602084019062000379565b50506006805460ff199081169091556001600755600e80549091169055506000600b55600c80546001600160a01b031990811673e51c8401fe1e70f78bbd3ac660692597d33dbaff17909155600980548216732791bca1f2de4661ed88a30c99a7a9449aa84174179055600a80548216731a13f4ca1d028320a707d99520abfefca3998b7f17905560088054909116738dff5e27ea6b7ac08ebfdf9eb090f32ee9a30fcf1790556040805160a08101825260148152603c60208201526064918101919091526101f460608201526107d06080820152620001ed90601090600562000408565b506040805160c0810182526000815260026020820152600791810191909152601e6060820152605a608082015261016860a082015262000232906011906006620004b7565b506040805160c0810182526000815260056020820152600a918101919091526014606082015260286080820152604b60a08201526200027690601290600662000553565b50620002816200028b565b620006b3565b3390565b6200029562000287565b6001600160a01b0316620002a8620002e6565b6001600160a01b031614620002da5760405162461bcd60e51b8152600401620002d19062000641565b60405180910390fd5b620002e4620002f5565b565b6000546001600160a01b031690565b620002ff62000370565b156200031f5760405162461bcd60e51b8152600401620002d19062000617565b6006805460ff191660011790557f62e78cea01bee320cd4e420270b5ea74000d11b0c9f74754ebdbfc544b05a2586200035762000287565b60405162000366919062000603565b60405180910390a1565b60065460ff1690565b828054620003879062000676565b90600052602060002090601f016020900481019282620003ab5760008555620003f6565b82601f10620003c657805160ff1916838001178555620003f6565b82800160010185558215620003f6579182015b82811115620003f6578251825591602001919060010190620003d9565b5062000404929150620005ec565b5090565b82805482825590600052602060002090600701600890048101928215620003f65791602002820160005b838211156200047657835183826101000a81548163ffffffff021916908361ffff160217905550926020019260040160208160030104928301926001030262000432565b8015620004a85782816101000a81549063ffffffff021916905560040160208160030104928301926001030262000476565b505062000404929150620005ec565b82805482825590600052602060002090600f01601090048101928215620003f65791602002820160005b838211156200052357835183826101000a81548161ffff021916908361ffff1602179055509260200192600201602081600101049283019260010302620004e1565b8015620004a85782816101000a81549061ffff021916905560020160208160010104928301926001030262000523565b82805482825590600052602060002090601f01602090048101928215620003f65791602002820160005b83821115620005bd57835183826101000a81548160ff021916908360ff16021790555092602001926001016020816000010492830192600103026200057d565b8015620004a85782816101000a81549060ff0219169055600101602081600001049283019260010302620005bd565b5b80821115620004045760008155600101620005ed565b6001600160a01b0391909116815260200190565b60208082526010908201526f14185d5cd8589b194e881c185d5cd95960821b604082015260600190565b6020808252818101527f4f776e61626c653a2063616c6c6572206973206e6f7420746865206f776e6572604082015260600190565b6002810460018216806200068b57607f821691505b60208210811415620006ad57634e487b7160e01b600052602260045260246000fd5b50919050565b6136cb80620006c36000396000f3fe6080604052600436106102345760003560e01c8063715018a61161012e578063b723b34e116100ab578063dd62ed3e1161006f578063dd62ed3e14610648578063ea89120b14610668578063efdcd97414610695578063f2fde38b146106b5578063f6e6d9d6146106d55761023b565b8063b723b34e146105b3578063c0100143146105d3578063c6a5d5da146105f3578063cd0d95e214610613578063d948e104146106335761023b565b806397b92942116100f257806397b9294214610513578063a0712d6814610533578063a457c2d714610553578063a9059cbb14610573578063b3faaf93146105935761023b565b8063715018a6146104aa5780638456cb59146104bf5780638da5cb5b146104d45780638fb33017146104e957806395d89b41146104fe5761023b565b806338d1692f116101bc57806355ab59501161018057806355ab595014610413578063571ff20d146104335780635c975abb146104535780636c7529741461046857806370a082311461048a5761023b565b806338d1692f1461037e578063395093511461039e5780633f4ba83a146103be57806342966c68146103d357806347f220ae146103f35761023b565b806318160ddd1161020357806318160ddd146102e7578063185cf4b51461030957806323b872dd14610329578063257a005014610349578063313ce567146103695761023b565b806306fdde0314610240578063093f59501461026b578063095ea7b31461029857806316087315146102c55761023b565b3661023b57005b600080fd5b34801561024c57600080fd5b506102556106ea565b6040516102629190612f17565b60405180910390f35b34801561027757600080fd5b5061028b610286366004612b1b565b61077c565b60405161026291906134cb565b3480156102a457600080fd5b506102b86102b3366004612ba9565b61086c565b6040516102629190612f0c565b3480156102d157600080fd5b506102e56102e0366004612b1b565b610889565b005b3480156102f357600080fd5b506102fc6108ea565b604051610262919061349d565b34801561031557600080fd5b506102e5610324366004612db9565b6108f0565b34801561033557600080fd5b506102b8610344366004612b6e565b610aa5565b34801561035557600080fd5b506102e5610364366004612b1b565b610d24565b34801561037557600080fd5b5061028b610fed565b34801561038a57600080fd5b506102fc610399366004612e0b565b610ff6565b3480156103aa57600080fd5b506102b86103b9366004612ba9565b611132565b3480156103ca57600080fd5b506102e5611181565b3480156103df57600080fd5b506102e56103ee366004612db9565b6111ca565b3480156103ff57600080fd5b506102e561040e366004612bd2565b6111d7565b34801561041f57600080fd5b506102e561042e366004612b1b565b61122d565b34801561043f57600080fd5b506102e561044e366004612de9565b61137d565b34801561045f57600080fd5b506102b86114e7565b34801561047457600080fd5b5061047d6114f0565b6040516102629190612e3a565b34801561049657600080fd5b506102fc6104a5366004612b1b565b6114ff565b3480156104b657600080fd5b506102e561151a565b3480156104cb57600080fd5b506102e56115a3565b3480156104e057600080fd5b5061047d6115ea565b3480156104f557600080fd5b5061047d6115f9565b34801561050a57600080fd5b50610255611608565b34801561051f57600080fd5b506102e561052e366004612d0b565b611617565b34801561053f57600080fd5b506102e561054e366004612db9565b611669565b34801561055f57600080fd5b506102b861056e366004612ba9565b611673565b34801561057f57600080fd5b506102b861058e366004612ba9565b6116ee565b34801561059f57600080fd5b506102e56105ae366004612c76565b611911565b3480156105bf57600080fd5b506102e56105ce366004612de9565b611963565b3480156105df57600080fd5b506102e56105ee366004612b1b565b6119f6565b3480156105ff57600080fd5b506102e561060e366004612db9565b611a57565b34801561061f57600080fd5b506102e561062e366004612db9565b611a9b565b34801561063f57600080fd5b5061047d611b62565b34801561065457600080fd5b506102fc610663366004612b3c565b611b71565b34801561067457600080fd5b50610688610683366004612b1b565b611b9c565b604051610262919061348e565b3480156106a157600080fd5b506102e56106b0366004612b1b565b611c6e565b3480156106c157600080fd5b506102e56106d0366004612b1b565b611d03565b3480156106e157600080fd5b506102fc611dc3565b6060600480546106f9906135d6565b80601f0160208091040260200160405190810160405280929190818152602001828054610725906135d6565b80156107725780601f1061074757610100808354040283529160200191610772565b820191906000526020600020905b81548152906001019060200180831161075557829003601f168201915b5050505050905090565b60006107866114e7565b15806107b157506107956115ea565b6001600160a01b03166107a6611dc9565b6001600160a01b0316145b6107d65760405162461bcd60e51b81526004016107cd90613235565b60405180910390fd5b60006107e1836114ff565b90506000805b60105460ff821610156108625760108160ff168154811061081857634e487b7160e01b600052603260045260246000fd5b6000918252602090912060088204015460079091166004026101000a900463ffffffff168310610850578161084c81613611565b9250505b8061085a81613611565b9150506107e7565b509150505b919050565b6000610880610879611dc9565b8484611dcd565b50600192915050565b610891611dc9565b6001600160a01b03166108a26115ea565b6001600160a01b0316146108c85760405162461bcd60e51b81526004016107cd90613263565b600980546001600160a01b0319166001600160a01b0392909216919091179055565b60035490565b6108f8611dc9565b6001600160a01b03166109096115ea565b6001600160a01b03161461092f5760405162461bcd60e51b81526004016107cd90613263565b600b54600a546040516370a0823160e01b8152600092916001600160a01b0316906370a0823190610964903090600401612e3a565b60206040518083038186803b15801561097c57600080fd5b505afa158015610990573d6000803e3d6000fd5b505050506040513d601f19601f820116820180604052508101906109b49190612dd1565b6109be919061359c565b90508181116109df5760405162461bcd60e51b81526004016107cd90613461565b600a54600c5460405163a9059cbb60e01b81526001600160a01b039283169263a9059cbb92610a15929116908690600401612ea3565b602060405180830381600087803b158015610a2f57600080fd5b505af1158015610a43573d6000803e3d6000fd5b505050506040513d601f19601f82011682018060405250810190610a679190612d9d565b507f8b9c4e1b9c860b263c59ac36417dfb6be15a01919b159407b1971058eee1e0298183604051610a999291906134bd565b60405180910390a15050565b600060026007541415610aca5760405162461bcd60e51b81526004016107cd90613362565b6002600755610ad76114e7565b1580610b025750610ae66115ea565b6001600160a01b0316610af7611dc9565b6001600160a01b0316145b610b1e5760405162461bcd60e51b81526004016107cd90613235565b6001600160a01b0384166000908152600f602052604081205485914391610b45908361359c565b60135490915060ff168111610b6c5760405162461bcd60e51b81526004016107cd9061318a565b6011610b778461077c565b60ff1681548110610b9857634e487b7160e01b600052603260045260246000fd5b90600052602060002090601091828204019190066002029054906101000a900461ffff1661ffff16601454610bcd919061357d565b8111610beb5760405162461bcd60e51b81526004016107cd90613072565b6000610bf68761077c565b90506000610c0387611e81565b600954600c546040516323b872dd60e01b81529293506001600160a01b03918216926323b872dd92610c3e928e929116908690600401612e4e565b602060405180830381600087803b158015610c5857600080fd5b505af1158015610c6c573d6000803e3d6000fd5b505050506040513d601f19601f82011682018060405250810190610c909190612d9d565b506000610c9f8a610663611dc9565b905087811015610cc15760405162461bcd60e51b81526004016107cd90613399565b610ccc8a8a8a611edb565b610ce78a610cd8611dc9565b610ce28b8561359c565b611dcd565b6000610cf28a61077c565b90508360ff168160ff161115610d0d57610d0b8a612003565b505b600197505050505050506001600755509392505050565b610d2c611dc9565b6001600160a01b0316610d3d6115ea565b6001600160a01b031614610d635760405162461bcd60e51b81526004016107cd90613263565b600854600954604051631a4ca37b60e21b81526001600160a01b03928316926369328dec92610d9d92911690600019903090600401612ebc565b602060405180830381600087803b158015610db757600080fd5b505af1158015610dcb573d6000803e3d6000fd5b505050506040513d601f19601f82011682018060405250810190610def9190612dd1565b50600880546001600160a01b0319166001600160a01b0383161790556040517f33481e616168e187acdc90fda3d0269454b31c195cc00e4db474ca44f8d43ae890610e3b908390612e3a565b60405180910390a16009546040516370a0823160e01b81526000916001600160a01b0316906370a0823190610e74903090600401612e3a565b60206040518083038186803b158015610e8c57600080fd5b505afa158015610ea0573d6000803e3d6000fd5b505050506040513d601f19601f82011682018060405250810190610ec49190612dd1565b60095460085460405163095ea7b360e01b81529293506001600160a01b039182169263095ea7b392610efc9216908590600401612ea3565b602060405180830381600087803b158015610f1657600080fd5b505af1158015610f2a573d6000803e3d6000fd5b505050506040513d601f19601f82011682018060405250810190610f4e9190612d9d565b5060085460095460405163e8eda9df60e01b81526001600160a01b039283169263e8eda9df92610f8a9291169085903090600090600401612edf565b600060405180830381600087803b158015610fa457600080fd5b505af1158015610fb8573d6000803e3d6000fd5b505050507f96a06dd751c9aee3cbe69bcfe31505e68da315871c459fd3467debfd76a901e98130604051610a999291906134a6565b600e5460ff1690565b60006110006114e7565b158061102b575061100f6115ea565b6001600160a01b0316611020611dc9565b6001600160a01b0316145b6110475760405162461bcd60e51b81526004016107cd90613235565b60006110516108ea565b9050600061105f828061357d565b905060008080600187151514156110995761107a8886613527565b9250611086838061357d565b9150611092848361359c565b90506110be565b6110a3888661359c565b92506110af838061357d565b91506110bb828561359c565b90505b6000600d54826110ce919061357d565b90506000601554826110e0919061353f565b905060006110f061271083613631565b905060006110fe828461359c565b9050624c4b408110156111235760405162461bcd60e51b81526004016107cd90612f6a565b9b9a5050505050505050505050565b600061088061113f611dc9565b84846002600061114d611dc9565b6001600160a01b03908116825260208083019390935260409182016000908120918b1681529252902054610ce29190613527565b611189611dc9565b6001600160a01b031661119a6115ea565b6001600160a01b0316146111c05760405162461bcd60e51b81526004016107cd90613263565b6111c8612073565b565b6111d4813361137d565b50565b6111df611dc9565b6001600160a01b03166111f06115ea565b6001600160a01b0316146112165760405162461bcd60e51b81526004016107cd90613263565b8051611229906011906020840190612915565b5050565b611235611dc9565b6001600160a01b03166112466115ea565b6001600160a01b03161461126c5760405162461bcd60e51b81526004016107cd90613263565b6040516370a0823160e01b815281906000906001600160a01b038316906370a082319061129d903090600401612e3a565b60206040518083038186803b1580156112b557600080fd5b505afa1580156112c9573d6000803e3d6000fd5b505050506040513d601f19601f820116820180604052508101906112ed9190612dd1565b600c546040516323b872dd60e01b81529192506001600160a01b03808516926323b872dd926113259230929116908690600401612e4e565b602060405180830381600087803b15801561133f57600080fd5b505af1158015611353573d6000803e3d6000fd5b505050506040513d601f19601f820116820180604052508101906113779190612d9d565b50505050565b6113856114e7565b15806113b057506113946115ea565b6001600160a01b03166113a5611dc9565b6001600160a01b0316145b6113cc5760405162461bcd60e51b81526004016107cd90613235565b81806113d7336114ff565b10156113f55760405162461bcd60e51b81526004016107cd906131d4565b82611401816000610ff6565b600b54101561140f57600080fd5b336000818152600f602052604081205443919061142c908361359c565b60135490915060ff1681116114535760405162461bcd60e51b81526004016107cd9061318a565b601161145e8461077c565b60ff168154811061147f57634e487b7160e01b600052603260045260246000fd5b90600052602060002090601091828204019190066002029054906101000a900461ffff1661ffff166014546114b4919061357d565b81116114d25760405162461bcd60e51b81526004016107cd90613072565b6114de868860006120e1565b50505050505050565b60065460ff1690565b6009546001600160a01b031681565b6001600160a01b031660009081526001602052604090205490565b611522611dc9565b6001600160a01b03166115336115ea565b6001600160a01b0316146115595760405162461bcd60e51b81526004016107cd90613263565b600080546040516001600160a01b03909116907f8be0079c531659141344cd1fd0a4f28419497f9722a3daafe3b4186f6b6457e0908390a3600080546001600160a01b0319169055565b6115ab611dc9565b6001600160a01b03166115bc6115ea565b6001600160a01b0316146115e25760405162461bcd60e51b81526004016107cd90613263565b6111c8612284565b6000546001600160a01b031690565b600a546001600160a01b031681565b6060600580546106f9906135d6565b61161f611dc9565b6001600160a01b03166116306115ea565b6001600160a01b0316146116565760405162461bcd60e51b81526004016107cd90613263565b80516112299060129060208401906129be565b6111d48133611963565b60008060026000611682611dc9565b6001600160a01b03908116825260208083019390935260409182016000908120918816815292529020549050828110156116ce5760405162461bcd60e51b81526004016107cd906133e5565b6116e46116d9611dc9565b85610ce2868561359c565b5060019392505050565b60006116f86114e7565b158061172357506117076115ea565b6001600160a01b0316611718611dc9565b6001600160a01b0316145b61173f5760405162461bcd60e51b81526004016107cd90613235565b611747611dc9565b6001600160a01b0381166000908152600f602052604081205443919061176d908361359c565b60135490915060ff1681116117945760405162461bcd60e51b81526004016107cd9061318a565b601161179f8461077c565b60ff16815481106117c057634e487b7160e01b600052603260045260246000fd5b90600052602060002090601091828204019190066002029054906101000a900461ffff1661ffff166014546117f5919061357d565b81116118135760405162461bcd60e51b81526004016107cd90613072565b600061181e8761077c565b9050600061182b87611e81565b6009549091506001600160a01b03166323b872dd611847611dc9565b600c546040516001600160e01b031960e085901b16815261187792916001600160a01b0316908690600401612e4e565b602060405180830381600087803b15801561189157600080fd5b505af11580156118a5573d6000803e3d6000fd5b505050506040513d601f19601f820116820180604052508101906118c99190612d9d565b506118dc6118d5611dc9565b8989611edb565b60006118e78961077c565b90508260ff168160ff1611156119025761190089612003565b505b50600198975050505050505050565b611919611dc9565b6001600160a01b031661192a6115ea565b6001600160a01b0316146119505760405162461bcd60e51b81526004016107cd90613263565b8051611229906010906020840190612a52565b61196b6114e7565b1580611996575061197a6115ea565b6001600160a01b031661198b611dc9565b6001600160a01b0316145b6119b25760405162461bcd60e51b81526004016107cd90613235565b60006119bd8261077c565b90506119cb828460016120e1565b60006119d68361077c565b90508160ff168160ff161115611377576119ef83612003565b5050505050565b6119fe611dc9565b6001600160a01b0316611a0f6115ea565b6001600160a01b031614611a355760405162461bcd60e51b81526004016107cd90613263565b600a80546001600160a01b0319166001600160a01b0392909216919091179055565b611a5f611dc9565b6001600160a01b0316611a706115ea565b6001600160a01b031614611a965760405162461bcd60e51b81526004016107cd90613263565b601455565b611aa3611dc9565b6001600160a01b0316611ab46115ea565b6001600160a01b031614611ada5760405162461bcd60e51b81526004016107cd90613263565b60095460085460405163095ea7b360e01b81526001600160a01b039283169263095ea7b392611b10929116908590600401612ea3565b602060405180830381600087803b158015611b2a57600080fd5b505af1158015611b3e573d6000803e3d6000fd5b505050506040513d601f19601f820116820180604052508101906112299190612d9d565b6008546001600160a01b031681565b6001600160a01b03918216600090815260026020908152604080832093909416825291909152205490565b6000611ba66114e7565b1580611bd15750611bb56115ea565b6001600160a01b0316611bc6611dc9565b6001600160a01b0316145b611bed5760405162461bcd60e51b81526004016107cd90613235565b6012611bf88361077c565b60ff1681548110611c1957634e487b7160e01b600052603260045260246000fd5b90600052602060002090602091828204019190069054906101000a900460ff166064611c4591906135b3565b60165460ff9190911690611c5e9061ffff166064613553565b611c689190613553565b92915050565b611c76611dc9565b6001600160a01b0316611c876115ea565b6001600160a01b031614611cad5760405162461bcd60e51b81526004016107cd90613263565b600c80546001600160a01b0319166001600160a01b0383161790556040517fa574362825e0eb8232ebe212b029c5b3a30ca54219bc287f49181e95bbb8608990611cf8908390612e3a565b60405180910390a150565b611d0b611dc9565b6001600160a01b0316611d1c6115ea565b6001600160a01b031614611d425760405162461bcd60e51b81526004016107cd90613263565b6001600160a01b038116611d685760405162461bcd60e51b81526004016107cd906130bc565b600080546040516001600160a01b03808516939216917f8be0079c531659141344cd1fd0a4f28419497f9722a3daafe3b4186f6b6457e091a3600080546001600160a01b0319166001600160a01b0392909216919091179055565b600b5490565b3390565b6001600160a01b038316611df35760405162461bcd60e51b81526004016107cd9061331e565b6001600160a01b038216611e195760405162461bcd60e51b81526004016107cd90613102565b6001600160a01b0380841660008181526002602090815260408083209487168084529490915290819020849055517f8c5be1e5ebec7d5bd14f71427d1e84f3dd0314c0f7b2291e5b200ac8c7c3b92590611e7490859061349d565b60405180910390a3505050565b600080611e8f836000610ff6565b90506000620f4240611ea033611b9c565b611eae9061ffff168461357d565b611eb8919061353f565b90506000611ec861271083613631565b611ed2908361359c565b95945050505050565b6001600160a01b038316611f015760405162461bcd60e51b81526004016107cd906132d9565b6001600160a01b038216611f275760405162461bcd60e51b81526004016107cd90612fbf565b611f328383836122df565b6001600160a01b03831660009081526001602052604090205481811015611f6b5760405162461bcd60e51b81526004016107cd90613144565b611f75828261359c565b6001600160a01b038086166000908152600160205260408082209390935590851681529081208054849290611fab908490613527565b92505081905550826001600160a01b0316846001600160a01b03167fddf252ad1be2c89b69c2b068fc378daa952ba7f163c4a11628f55a4df523b3ef84604051611ff5919061349d565b60405180910390a350505050565b600061200d6114e7565b1580612038575061201c6115ea565b6001600160a01b031661202d611dc9565b6001600160a01b0316145b6120545760405162461bcd60e51b81526004016107cd90613235565b6001600160a01b039091166000908152600f6020526040902043905590565b61207b6114e7565b6120975760405162461bcd60e51b81526004016107cd90613002565b6006805460ff191690557f5db9ee0a495bf2e6ff9c91a7834c1ba4fdd244a5e8aa4e537bd38aeae4b073aa6120ca611dc9565b6040516120d79190612e3a565b60405180910390a1565b600260075414156121045760405162461bcd60e51b81526004016107cd90613362565b60026007556121116114e7565b158061213c57506121206115ea565b6001600160a01b0316612131611dc9565b6001600160a01b0316145b6121585760405162461bcd60e51b81526004016107cd90613235565b60006001821515141561217757612170836001610ff6565b9050612185565b612182836000610ff6565b90505b6000620f424061219433611b9c565b6121a29061ffff168461357d565b6121ac919061353f565b905060006121bc61271083613631565b6121c6908361359c565b905060018415151415612208576121e13387858460016122e4565b6121eb868661276f565b82600b60008282546121fd9190613527565b909155506122389050565b612212338661282f565b6122203387858460006122e4565b82600b6000828254612232919061359c565b90915550505b7faa1840ad2b124c68a39cd301fc5f80ad593b05a52c5344a787f2762ace6dea34338787868560405161226f959493929190612e72565b60405180910390a15050600160075550505050565b61228c6114e7565b156122a95760405162461bcd60e51b81526004016107cd9061320b565b6006805460ff191660011790557f62e78cea01bee320cd4e420270b5ea74000d11b0c9f74754ebdbfc544b05a2586120ca611dc9565b505050565b6122ec6114e7565b158061231757506122fb6115ea565b6001600160a01b031661230c611dc9565b6001600160a01b0316145b6123335760405162461bcd60e51b81526004016107cd90613235565b6001811515141561259057600061234a8385613527565b6009546040516323b872dd60e01b81529192506001600160a01b0316906323b872dd9061237f90899030908690600401612e4e565b602060405180830381600087803b15801561239957600080fd5b505af11580156123ad573d6000803e3d6000fd5b505050506040513d601f19601f820116820180604052508101906123d19190612d9d565b50600954600c5460405163a9059cbb60e01b81526001600160a01b039283169263a9059cbb92612408929116908790600401612ea3565b602060405180830381600087803b15801561242257600080fd5b505af1158015612436573d6000803e3d6000fd5b505050506040513d601f19601f8201168201806040525081019061245a9190612d9d565b5060095460085460405163095ea7b360e01b81526001600160a01b039283169263095ea7b392612491929116908890600401612ea3565b602060405180830381600087803b1580156124ab57600080fd5b505af11580156124bf573d6000803e3d6000fd5b505050506040513d601f19601f820116820180604052508101906124e39190612d9d565b5060085460095460405163e8eda9df60e01b81526001600160a01b039283169263e8eda9df9261251f9291169088903090600090600401612edf565b600060405180830381600087803b15801561253957600080fd5b505af115801561254d573d6000803e3d6000fd5b505050507f96a06dd751c9aee3cbe69bcfe31505e68da315871c459fd3467debfd76a901e984876040516125829291906134a6565b60405180910390a1506119ef565b600061259c838561359c565b600854600954604051631a4ca37b60e21b81529293506001600160a01b03918216926369328dec926125d692169088903090600401612ebc565b602060405180830381600087803b1580156125f057600080fd5b505af1158015612604573d6000803e3d6000fd5b505050506040513d601f19601f820116820180604052508101906126289190612dd1565b507fa605ade827572a0d40ee9676d8a1bcdf38fdd902413c655c283bbbba576867ba848660405161265a9291906134a6565b60405180910390a1600954600c5460405163a9059cbb60e01b81526001600160a01b039283169263a9059cbb92612698929116908790600401612ea3565b602060405180830381600087803b1580156126b257600080fd5b505af11580156126c6573d6000803e3d6000fd5b505050506040513d601f19601f820116820180604052508101906126ea9190612d9d565b5060095460405163a9059cbb60e01b81526001600160a01b039091169063a9059cbb9061271d9088908590600401612ea3565b602060405180830381600087803b15801561273757600080fd5b505af115801561274b573d6000803e3d6000fd5b505050506040513d601f19601f820116820180604052508101906114de9190612d9d565b6001600160a01b0382166127955760405162461bcd60e51b81526004016107cd9061342a565b6127a1600083836122df565b80600360008282546127b39190613527565b90915550506001600160a01b038216600090815260016020526040812080548392906127e0908490613527565b90915550506040516001600160a01b038316906000907fddf252ad1be2c89b69c2b068fc378daa952ba7f163c4a11628f55a4df523b3ef9061282390859061349d565b60405180910390a35050565b6001600160a01b0382166128555760405162461bcd60e51b81526004016107cd90613298565b612861826000836122df565b6001600160a01b0382166000908152600160205260409020548181101561289a5760405162461bcd60e51b81526004016107cd90613030565b6128a4828261359c565b6001600160a01b038416600090815260016020526040812091909155600380548492906128d290849061359c565b90915550506040516000906001600160a01b038516907fddf252ad1be2c89b69c2b068fc378daa952ba7f163c4a11628f55a4df523b3ef90611e7490869061349d565b82805482825590600052602060002090600f016010900481019282156129ae5791602002820160005b8382111561297e57835183826101000a81548161ffff021916908361ffff160217905550926020019260020160208160010104928301926001030261293e565b80156129ac5782816101000a81549061ffff021916905560020160208160010104928301926001030261297e565b505b506129ba929150612aef565b5090565b82805482825590600052602060002090601f016020900481019282156129ae5791602002820160005b83821115612a2557835183826101000a81548160ff021916908360ff16021790555092602001926001016020816000010492830192600103026129e7565b80156129ac5782816101000a81549060ff0219169055600101602081600001049283019260010302612a25565b828054828255906000526020600020906007016008900481019282156129ae5791602002820160005b83821115612abf57835183826101000a81548163ffffffff021916908363ffffffff1602179055509260200192600401602081600301049283019260010302612a7b565b80156129ac5782816101000a81549063ffffffff0219169055600401602081600301049283019260010302612abf565b5b808211156129ba5760008155600101612af0565b80356001600160a01b038116811461086757600080fd5b600060208284031215612b2c578081fd5b612b3582612b04565b9392505050565b60008060408385031215612b4e578081fd5b612b5783612b04565b9150612b6560208401612b04565b90509250929050565b600080600060608486031215612b82578081fd5b612b8b84612b04565b9250612b9960208501612b04565b9150604084013590509250925092565b60008060408385031215612bbb578182fd5b612bc483612b04565b946020939093013593505050565b60006020808385031215612be4578182fd5b823567ffffffffffffffff811115612bfa578283fd5b8301601f81018513612c0a578283fd5b8035612c1d612c1882613503565b6134d9565b8181528381019083850185840285018601891015612c39578687fd5b8694505b83851015612c6a57803561ffff81168114612c56578788fd5b835260019490940193918501918501612c3d565b50979650505050505050565b60006020808385031215612c88578182fd5b823567ffffffffffffffff811115612c9e578283fd5b8301601f81018513612cae578283fd5b8035612cbc612c1882613503565b8181528381019083850185840285018601891015612cd8578687fd5b8694505b83851015612c6a57803563ffffffff81168114612cf7578788fd5b835260019490940193918501918501612cdc565b60006020808385031215612d1d578182fd5b823567ffffffffffffffff811115612d33578283fd5b8301601f81018513612d43578283fd5b8035612d51612c1882613503565b8181528381019083850185840285018601891015612d6d578687fd5b8694505b83851015612c6a57803560ff81168114612d89578788fd5b835260019490940193918501918501612d71565b600060208284031215612dae578081fd5b8151612b3581613687565b600060208284031215612dca578081fd5b5035919050565b600060208284031215612de2578081fd5b5051919050565b60008060408385031215612dfb578182fd5b82359150612b6560208401612b04565b60008060408385031215612e1d578182fd5b823591506020830135612e2f81613687565b809150509250929050565b6001600160a01b0391909116815260200190565b6001600160a01b039384168152919092166020820152604081019190915260600190565b6001600160a01b03958616815293909416602084015260408301919091526060820152608081019190915260a00190565b6001600160a01b03929092168252602082015260400190565b6001600160a01b0393841681526020810192909252909116604082015260600190565b6001600160a01b03948516815260208101939093529216604082015261ffff909116606082015260800190565b901515815260200190565b6000602080835283518082850152825b81811015612f4357858101830151858201604001528201612f27565b81811115612f545783604083870101525b50601f01601f1916929092016040019392505050565b60208082526035908201527f424e4a2c2071756f7465555344433a204d696e696d756d20424e4a492076616c604082015274756520746f206d6f7665206973202435205553444360581b606082015260800190565b60208082526023908201527f45524332303a207472616e7366657220746f20746865207a65726f206164647260408201526265737360e81b606082015260800190565b60208082526014908201527314185d5cd8589b194e881b9bdd081c185d5cd95960621b604082015260600190565b60208082526022908201527f45524332303a206275726e20616d6f756e7420657863656564732062616c616e604082015261636560f01b606082015260800190565b6020808252602a908201527f446973636f756e74206c6576656c2077697468647261772074696d656f75742060408201526934b71032b33332b1ba1760b11b606082015260800190565b60208082526026908201527f4f776e61626c653a206e6577206f776e657220697320746865207a65726f206160408201526564647265737360d01b606082015260800190565b60208082526022908201527f45524332303a20617070726f766520746f20746865207a65726f206164647265604082015261737360f01b606082015260800190565b60208082526026908201527f45524332303a207472616e7366657220616d6f756e7420657863656564732062604082015265616c616e636560d01b606082015260800190565b6020808252602a908201527f416e74692d666c6173686c6f616e2077697468647261772074696d656f75742060408201526934b71032b33332b1ba1760b11b606082015260800190565b60208082526017908201527f496e73756666696369656e742042656e6a616d696e732e000000000000000000604082015260600190565b60208082526010908201526f14185d5cd8589b194e881c185d5cd95960821b604082015260600190565b6020808252601490820152732132b73530b6b4b7399034b9903830bab9b2b21760611b604082015260600190565b6020808252818101527f4f776e61626c653a2063616c6c6572206973206e6f7420746865206f776e6572604082015260600190565b60208082526021908201527f45524332303a206275726e2066726f6d20746865207a65726f206164647265736040820152607360f81b606082015260800190565b60208082526025908201527f45524332303a207472616e736665722066726f6d20746865207a65726f206164604082015264647265737360d81b606082015260800190565b60208082526024908201527f45524332303a20617070726f76652066726f6d20746865207a65726f206164646040820152637265737360e01b606082015260800190565b6020808252601f908201527f5265656e7472616e637947756172643a207265656e7472616e742063616c6c00604082015260600190565b6020808252602c908201527f42656e6a616d696e733a207472616e7366657220616d6f756e7420657863656560408201526b647320616c6c6f77616e636560a01b606082015260800190565b60208082526025908201527f45524332303a2064656372656173656420616c6c6f77616e63652062656c6f77604082015264207a65726f60d81b606082015260800190565b6020808252601f908201527f45524332303a206d696e7420746f20746865207a65726f206164647265737300604082015260600190565b60208082526013908201527224b739bab33334b1b4b2b73a10333ab732399760691b604082015260600190565b61ffff91909116815260200190565b90815260200190565b9182526001600160a01b0316602082015260400190565b918252602082015260400190565b60ff91909116815260200190565b60405181810167ffffffffffffffff811182821017156134fb576134fb613671565b604052919050565b600067ffffffffffffffff82111561351d5761351d613671565b5060209081020190565b6000821982111561353a5761353a613645565b500190565b60008261354e5761354e61365b565b500490565b600061ffff8083168185168183048111821515161561357457613574613645565b02949350505050565b600081600019048311821515161561359757613597613645565b500290565b6000828210156135ae576135ae613645565b500390565b600060ff821660ff8416808210156135cd576135cd613645565b90039392505050565b6002810460018216806135ea57607f821691505b6020821081141561360b57634e487b7160e01b600052602260045260246000fd5b50919050565b600060ff821660ff81141561362857613628613645565b60010192915050565b6000826136405761364061365b565b500690565b634e487b7160e01b600052601160045260246000fd5b634e487b7160e01b600052601260045260246000fd5b634e487b7160e01b600052604160045260246000fd5b80151581146111d457600080fdfea26469706673582212208ef2b4a1b7198e64746a0742f4362457db24324b196d3534fc61a24a975fa02864736f6c63430008000033",
  "linkReferences": {},
  "deployedLinkReferences": {}
}