{
  "_format": "hh-sol-artifact-1",
  "contractName": "Benjamins",
  "sourceName": "contracts/Benjamins.sol",
  "abi": [
    {
      "inputs": [],
      "stateMutability": "nonpayable",
      "type": "constructor"
    },
    {
      "anonymous": false,
      "inputs": [
        {
          "indexed": true,
          "internalType": "address",
          "name": "owner",
          "type": "address"
        },
        {
          "indexed": true,
          "internalType": "address",
          "name": "spender",
          "type": "address"
        },
        {
          "indexed": false,
          "internalType": "uint256",
          "name": "value",
          "type": "uint256"
        }
      ],
      "name": "Approval",
      "type": "event"
    },
    {
      "anonymous": false,
      "inputs": [
        {
          "indexed": false,
          "internalType": "uint256",
          "name": "amount",
          "type": "uint256"
        }
      ],
      "name": "LendingPoolDeposit",
      "type": "event"
    },
    {
      "anonymous": false,
      "inputs": [
        {
          "indexed": false,
          "internalType": "uint256",
          "name": "amount",
          "type": "uint256"
        }
      ],
      "name": "LendingPoolWithdrawal",
      "type": "event"
    },
    {
      "anonymous": false,
      "inputs": [
        {
          "indexed": true,
          "internalType": "address",
          "name": "previousOwner",
          "type": "address"
        },
        {
          "indexed": true,
          "internalType": "address",
          "name": "newOwner",
          "type": "address"
        }
      ],
      "name": "OwnershipTransferred",
      "type": "event"
    },
    {
      "anonymous": false,
      "inputs": [
        {
          "indexed": false,
          "internalType": "address",
          "name": "account",
          "type": "address"
        }
      ],
      "name": "Paused",
      "type": "event"
    },
    {
      "anonymous": false,
      "inputs": [
        {
          "indexed": true,
          "internalType": "address",
          "name": "from",
          "type": "address"
        },
        {
          "indexed": true,
          "internalType": "address",
          "name": "to",
          "type": "address"
        },
        {
          "indexed": false,
          "internalType": "uint256",
          "name": "value",
          "type": "uint256"
        }
      ],
      "name": "Transfer",
      "type": "event"
    },
    {
      "anonymous": false,
      "inputs": [
        {
          "indexed": false,
          "internalType": "address",
          "name": "account",
          "type": "address"
        }
      ],
      "name": "Unpaused",
      "type": "event"
    },
    {
      "anonymous": false,
      "inputs": [
        {
          "indexed": false,
          "internalType": "address",
          "name": "fromAddress",
          "type": "address"
        },
        {
          "indexed": false,
          "internalType": "address",
          "name": "toAddress",
          "type": "address"
        },
        {
          "indexed": false,
          "internalType": "int256",
          "name": "inTokens",
          "type": "int256"
        },
        {
          "indexed": false,
          "internalType": "int256",
          "name": "inUSDC",
          "type": "int256"
        },
        {
          "indexed": false,
          "internalType": "uint256",
          "name": "fee",
          "type": "uint256"
        }
      ],
      "name": "exchanged",
      "type": "event"
    },
    {
      "anonymous": false,
      "inputs": [
        {
          "indexed": false,
          "internalType": "address",
          "name": "account",
          "type": "address"
        }
      ],
      "name": "newDepositAccount",
      "type": "event"
    },
    {
      "anonymous": false,
      "inputs": [
        {
          "indexed": false,
          "internalType": "address",
          "name": "beneficiary",
          "type": "address"
        }
      ],
      "name": "newFeeReceiver",
      "type": "event"
    },
    {
      "anonymous": false,
      "inputs": [
        {
          "indexed": false,
          "internalType": "uint256",
          "name": "available",
          "type": "uint256"
        },
        {
          "indexed": false,
          "internalType": "uint256",
          "name": "_amountUSDCin6dec",
          "type": "uint256"
        }
      ],
      "name": "profitTaken",
      "type": "event"
    },
    {
      "inputs": [
        {
          "internalType": "address",
          "name": "owner",
          "type": "address"
        },
        {
          "internalType": "address",
          "name": "spender",
          "type": "address"
        }
      ],
      "name": "allowance",
      "outputs": [
        {
          "internalType": "uint256",
          "name": "",
          "type": "uint256"
        }
      ],
      "stateMutability": "view",
      "type": "function"
    },
    {
      "inputs": [
        {
          "internalType": "address",
          "name": "spender",
          "type": "address"
        },
        {
          "internalType": "uint256",
          "name": "amount",
          "type": "uint256"
        }
      ],
      "name": "approve",
      "outputs": [
        {
          "internalType": "bool",
          "name": "",
          "type": "bool"
        }
      ],
      "stateMutability": "nonpayable",
      "type": "function"
    },
    {
      "inputs": [
        {
          "internalType": "address",
          "name": "account",
          "type": "address"
        }
      ],
      "name": "balanceOf",
      "outputs": [
        {
          "internalType": "uint256",
          "name": "",
          "type": "uint256"
        }
      ],
      "stateMutability": "view",
      "type": "function"
    },
    {
      "inputs": [
        {
          "internalType": "uint256",
          "name": "_amount",
          "type": "uint256"
        }
      ],
      "name": "burn",
      "outputs": [],
      "stateMutability": "nonpayable",
      "type": "function"
    },
    {
      "inputs": [
        {
          "internalType": "uint256",
          "name": "_amount",
          "type": "uint256"
        },
        {
          "internalType": "address",
          "name": "_toWhom",
          "type": "address"
        }
      ],
      "name": "burnTo",
      "outputs": [],
      "stateMutability": "nonpayable",
      "type": "function"
    },
    {
      "inputs": [],
      "name": "decimals",
      "outputs": [
        {
          "internalType": "uint8",
          "name": "",
          "type": "uint8"
        }
      ],
      "stateMutability": "view",
      "type": "function"
    },
    {
      "inputs": [
        {
          "internalType": "address",
          "name": "spender",
          "type": "address"
        },
        {
          "internalType": "uint256",
          "name": "subtractedValue",
          "type": "uint256"
        }
      ],
      "name": "decreaseAllowance",
      "outputs": [
        {
          "internalType": "bool",
          "name": "",
          "type": "bool"
        }
      ],
      "stateMutability": "nonpayable",
      "type": "function"
    },
    {
      "inputs": [
        {
          "internalType": "address",
          "name": "_whom",
          "type": "address"
        }
      ],
      "name": "discountLevel",
      "outputs": [
        {
          "internalType": "uint8",
          "name": "",
          "type": "uint8"
        }
      ],
      "stateMutability": "view",
      "type": "function"
    },
    {
      "inputs": [
        {
          "internalType": "address",
          "name": "spender",
          "type": "address"
        },
        {
          "internalType": "uint256",
          "name": "addedValue",
          "type": "uint256"
        }
      ],
      "name": "increaseAllowance",
      "outputs": [
        {
          "internalType": "bool",
          "name": "",
          "type": "bool"
        }
      ],
      "stateMutability": "nonpayable",
      "type": "function"
    },
    {
      "inputs": [
        {
          "internalType": "uint256",
          "name": "_amount",
          "type": "uint256"
        }
      ],
      "name": "mint",
      "outputs": [],
      "stateMutability": "nonpayable",
      "type": "function"
    },
    {
      "inputs": [
        {
          "internalType": "uint256",
          "name": "_amount",
          "type": "uint256"
        },
        {
          "internalType": "address",
          "name": "_toWhom",
          "type": "address"
        }
      ],
      "name": "mintTo",
      "outputs": [],
      "stateMutability": "nonpayable",
      "type": "function"
    },
    {
      "inputs": [],
      "name": "name",
      "outputs": [
        {
          "internalType": "string",
          "name": "",
          "type": "string"
        }
      ],
      "stateMutability": "view",
      "type": "function"
    },
    {
      "inputs": [],
      "name": "owner",
      "outputs": [
        {
          "internalType": "address",
          "name": "",
          "type": "address"
        }
      ],
      "stateMutability": "view",
      "type": "function"
    },
    {
      "inputs": [],
      "name": "pause",
      "outputs": [],
      "stateMutability": "nonpayable",
      "type": "function"
    },
    {
      "inputs": [],
      "name": "paused",
      "outputs": [
        {
          "internalType": "bool",
          "name": "",
          "type": "bool"
        }
      ],
      "stateMutability": "view",
      "type": "function"
    },
    {
      "inputs": [],
      "name": "polygonAMUSDC",
      "outputs": [
        {
          "internalType": "contract IERC20",
          "name": "",
          "type": "address"
        }
      ],
      "stateMutability": "view",
      "type": "function"
    },
    {
      "inputs": [],
      "name": "polygonLendingPool",
      "outputs": [
        {
          "internalType": "contract ILendingPool",
          "name": "",
          "type": "address"
        }
      ],
      "stateMutability": "view",
      "type": "function"
    },
    {
      "inputs": [],
      "name": "polygonUSDC",
      "outputs": [
        {
          "internalType": "contract IERC20",
          "name": "",
          "type": "address"
        }
      ],
      "stateMutability": "view",
      "type": "function"
    },
    {
      "inputs": [
        {
          "internalType": "address",
          "name": "forWhom",
          "type": "address"
        }
      ],
      "name": "quoteFeePercentage",
      "outputs": [
        {
          "internalType": "int16",
          "name": "",
          "type": "int16"
        }
      ],
      "stateMutability": "view",
      "type": "function"
    },
    {
      "inputs": [
        {
          "internalType": "int256",
          "name": "_amount",
          "type": "int256"
        }
      ],
      "name": "quoteUSDC",
      "outputs": [
        {
          "internalType": "int256",
          "name": "",
          "type": "int256"
        }
      ],
      "stateMutability": "view",
      "type": "function"
    },
    {
      "inputs": [],
      "name": "renounceOwnership",
      "outputs": [],
      "stateMutability": "nonpayable",
      "type": "function"
    },
    {
      "inputs": [
        {
          "internalType": "address",
          "name": "ERC20ContractAddress",
          "type": "address"
        }
      ],
      "name": "scavengeERC20Tip",
      "outputs": [],
      "stateMutability": "nonpayable",
      "type": "function"
    },
    {
      "inputs": [
        {
          "internalType": "address",
          "name": "beneficiary",
          "type": "address"
        }
      ],
      "name": "setFeeReceiver",
      "outputs": [],
      "stateMutability": "nonpayable",
      "type": "function"
    },
    {
      "inputs": [],
      "name": "symbol",
      "outputs": [
        {
          "internalType": "string",
          "name": "",
          "type": "string"
        }
      ],
      "stateMutability": "view",
      "type": "function"
    },
    {
      "inputs": [],
      "name": "totalSupply",
      "outputs": [
        {
          "internalType": "uint256",
          "name": "",
          "type": "uint256"
        }
      ],
      "stateMutability": "view",
      "type": "function"
    },
    {
      "inputs": [
        {
          "internalType": "address",
          "name": "recipiant",
          "type": "address"
        },
        {
          "internalType": "uint256",
          "name": "amount",
          "type": "uint256"
        }
      ],
      "name": "transfer",
      "outputs": [
        {
          "internalType": "bool",
          "name": "",
          "type": "bool"
        }
      ],
      "stateMutability": "nonpayable",
      "type": "function"
    },
    {
      "inputs": [
        {
          "internalType": "address",
          "name": "sender",
          "type": "address"
        },
        {
          "internalType": "address",
          "name": "recipiant",
          "type": "address"
        },
        {
          "internalType": "uint256",
          "name": "amount",
          "type": "uint256"
        }
      ],
      "name": "transferFrom",
      "outputs": [
        {
          "internalType": "bool",
          "name": "",
          "type": "bool"
        }
      ],
      "stateMutability": "nonpayable",
      "type": "function"
    },
    {
      "inputs": [
        {
          "internalType": "address",
          "name": "newOwner",
          "type": "address"
        }
      ],
      "name": "transferOwnership",
      "outputs": [],
      "stateMutability": "nonpayable",
      "type": "function"
    },
    {
      "inputs": [],
      "name": "unpause",
      "outputs": [],
      "stateMutability": "nonpayable",
      "type": "function"
    },
    {
      "inputs": [
        {
          "internalType": "uint256",
          "name": "amountToApprove",
          "type": "uint256"
        }
      ],
      "name": "updateApproveLendingPool",
      "outputs": [],
      "stateMutability": "nonpayable",
      "type": "function"
    },
    {
      "inputs": [
        {
          "internalType": "uint256",
          "name": "newAmountOfBlocksPerDay",
          "type": "uint256"
        }
      ],
      "name": "updateBlocksPerDay",
      "outputs": [],
      "stateMutability": "nonpayable",
      "type": "function"
    },
    {
      "inputs": [
        {
          "internalType": "uint32[]",
          "name": "newLevelAntes",
          "type": "uint32[]"
        }
      ],
      "name": "updateLevelAntes",
      "outputs": [],
      "stateMutability": "nonpayable",
      "type": "function"
    },
    {
      "inputs": [
        {
          "internalType": "int8[]",
          "name": "newLevelDiscounts",
          "type": "int8[]"
        }
      ],
      "name": "updateLevelDiscounts",
      "outputs": [],
      "stateMutability": "nonpayable",
      "type": "function"
    },
    {
      "inputs": [
        {
          "internalType": "int16[]",
          "name": "newLevelHolds",
          "type": "int16[]"
        }
      ],
      "name": "updateLevelHolds",
      "outputs": [],
      "stateMutability": "nonpayable",
      "type": "function"
    },
    {
      "inputs": [
        {
          "internalType": "address",
          "name": "newAddress",
          "type": "address"
        }
      ],
      "name": "updatePolygonAMUSDC",
      "outputs": [],
      "stateMutability": "nonpayable",
      "type": "function"
    },
    {
      "inputs": [
        {
          "internalType": "address",
          "name": "newAddress",
          "type": "address"
        }
      ],
      "name": "updatePolygonLendingPool",
      "outputs": [],
      "stateMutability": "nonpayable",
      "type": "function"
    },
    {
      "inputs": [
        {
          "internalType": "address",
          "name": "newAddress",
          "type": "address"
        }
      ],
      "name": "updatePolygonUSDC",
      "outputs": [],
      "stateMutability": "nonpayable",
      "type": "function"
    },
    {
      "inputs": [
        {
          "internalType": "uint256",
          "name": "_amountIn6dec",
          "type": "uint256"
        }
      ],
      "name": "withdrawGains",
      "outputs": [],
      "stateMutability": "nonpayable",
      "type": "function"
    },
    {
      "stateMutability": "payable",
      "type": "receive"
    }
  ],
  "bytecode": "0x6080604052620f4240600e556014805460ff19908116600a1790915560026015819055620c3500601655601780549092161790553480156200004057600080fd5b506040518060400160405280600981526020016842656e6a616d696e7360b81b81525060405180604001604052806004815260200163424e4a4960e01b8152506000620000926200028160201b60201c565b600080546001600160a01b0319166001600160a01b0383169081178255604051929350917f8be0079c531659141344cd1fd0a4f28419497f9722a3daafe3b4186f6b6457e0908290a3508151620000f190600490602085019062000373565b5080516200010790600590602084019062000373565b50506006805460ff191690555060016007556000600c556200012862000285565b600d80546001600160a01b03929092166001600160a01b0319928316179055600980548216732791bca1f2de4661ed88a30c99a7a9449aa84174179055600a80548216731a13f4ca1d028320a707d99520abfefca3998b7f17905560088054909116738dff5e27ea6b7ac08ebfdf9eb090f32ee9a30fcf1790556040805160c0810182526000815260146020820152603c91810191909152606460608201526101f460808201526107d060a0820152620001e790601190600662000402565b506040805160c0810182526000815260026020820152600791810191909152601e6060820152605a608082015261016860a08201526200022c906012906006620004b3565b506040805160c0810182526000815260056020820152600a918101919091526014606082015260286080820152604b60a08201526200027090601390600662000552565b506200027b62000294565b620006b5565b3390565b6000546001600160a01b031690565b6200029e62000281565b6001600160a01b0316620002b162000285565b6001600160a01b031614620002e35760405162461bcd60e51b8152600401620002da9062000643565b60405180910390fd5b620002ed620002ef565b565b620002f96200036a565b15620003195760405162461bcd60e51b8152600401620002da9062000619565b6006805460ff191660011790557f62e78cea01bee320cd4e420270b5ea74000d11b0c9f74754ebdbfc544b05a2586200035162000281565b60405162000360919062000605565b60405180910390a1565b60065460ff1690565b828054620003819062000678565b90600052602060002090601f016020900481019282620003a55760008555620003f0565b82601f10620003c057805160ff1916838001178555620003f0565b82800160010185558215620003f0579182015b82811115620003f0578251825591602001919060010190620003d3565b50620003fe929150620005ee565b5090565b82805482825590600052602060002090600701600890048101928215620003f05791602002820160005b838211156200047257835183826101000a81548163ffffffff021916908363ffffffff16021790555092602001926004016020816003010492830192600103026200042c565b8015620004a45782816101000a81549063ffffffff021916905560040160208160030104928301926001030262000472565b5050620003fe929150620005ee565b82805482825590600052602060002090600f01601090048101928215620003f05791602002820160005b838211156200052257835183826101000a81548161ffff021916908360010b61ffff1602179055509260200192600201602081600101049283019260010302620004dd565b8015620004a45782816101000a81549061ffff021916905560020160208160010104928301926001030262000522565b82805482825590600052602060002090601f01602090048101928215620003f05791602002820160005b83821115620005bf57835183826101000a81548160ff021916908360000b60ff16021790555092602001926001016020816000010492830192600103026200057c565b8015620004a45782816101000a81549060ff0219169055600101602081600001049283019260010302620005bf565b5b80821115620003fe5760008155600101620005ef565b6001600160a01b0391909116815260200190565b60208082526010908201526f14185d5cd8589b194e881c185d5cd95960821b604082015260600190565b6020808252818101527f4f776e61626c653a2063616c6c6572206973206e6f7420746865206f776e6572604082015260600190565b6002810460018216806200068d57607f821691505b60208210811415620006af57634e487b7160e01b600052602260045260246000fd5b50919050565b61319f80620006c56000396000f3fe6080604052600436106102295760003560e01c8063715018a611610123578063b3faaf93116100ab578063d948e1041161006f578063d948e10414610628578063dd62ed3e1461063d578063ea89120b1461065d578063efdcd9741461068a578063f2fde38b146106aa57610230565b8063b3faaf9314610588578063b723b34e146105a8578063c0100143146105c8578063c6a5d5da146105e8578063cd0d95e21461060857610230565b80638fb33017116100f25780638fb33017146104fe57806395d89b4114610513578063a0712d6814610528578063a457c2d714610548578063a9059cbb1461056857610230565b8063715018a61461049f5780638456cb59146104b45780638bdced6e146104c95780638da5cb5b146104e957610230565b806339509351116101b1578063571ff20d11610175578063571ff20d146104085780635ac33e35146104285780635c975abb146104485780636c7529741461045d57806370a082311461047f57610230565b806339509351146103735780633f4ba83a1461039357806342966c68146103a8578063487cb72c146103c857806355ab5950146103e857610230565b806318160ddd116101f857806318160ddd146102dc578063185cf4b5146102fe57806323b872dd1461031e578063257a00501461033e578063313ce5671461035e57610230565b806306fdde0314610235578063093f595014610260578063095ea7b31461028d57806316087315146102ba57610230565b3661023057005b600080fd5b34801561024157600080fd5b5061024a6106ca565b604051610257919061286d565b60405180910390f35b34801561026c57600080fd5b5061028061027b366004612443565b61075c565b6040516102579190612d33565b34801561029957600080fd5b506102ad6102a83660046124ca565b6107f2565b604051610257919061284b565b3480156102c657600080fd5b506102da6102d5366004612443565b61080f565b005b3480156102e857600080fd5b506102f1610879565b6040516102579190612864565b34801561030a57600080fd5b506102da6103193660046126dc565b61087f565b34801561032a57600080fd5b506102ad61033936600461248f565b610a34565b34801561034a57600080fd5b506102da610359366004612443565b610b77565b34801561036a57600080fd5b50610280610e3e565b34801561037f57600080fd5b506102ad61038e3660046124ca565b610e47565b34801561039f57600080fd5b506102da610e9b565b3480156103b457600080fd5b506102da6103c33660046126dc565b610ee4565b3480156103d457600080fd5b506102f16103e33660046126dc565b610ef1565b3480156103f457600080fd5b506102da610403366004612443565b610f82565b34801561041457600080fd5b506102da61042336600461270c565b6110d2565b34801561043457600080fd5b506102da6104433660046124f3565b61123b565b34801561045457600080fd5b506102ad611291565b34801561046957600080fd5b5061047261129a565b6040516102579190612779565b34801561048b57600080fd5b506102f161049a366004612443565b6112a9565b3480156104ab57600080fd5b506102da6112c4565b3480156104c057600080fd5b506102da61134d565b3480156104d557600080fd5b506102da6104e4366004612596565b611394565b3480156104f557600080fd5b506104726113e6565b34801561050a57600080fd5b506104726113f5565b34801561051f57600080fd5b5061024a611404565b34801561053457600080fd5b506102da6105433660046126dc565b611413565b34801561055457600080fd5b506102ad6105633660046124ca565b61141d565b34801561057457600080fd5b506102ad6105833660046124ca565b611498565b34801561059457600080fd5b506102da6105a3366004612627565b6114ac565b3480156105b457600080fd5b506102da6105c336600461270c565b6114fe565b3480156105d457600080fd5b506102da6105e3366004612443565b611588565b3480156105f457600080fd5b506102da6106033660046126dc565b6115e9565b34801561061457600080fd5b506102da6106233660046126dc565b61162d565b34801561063457600080fd5b506104726116f4565b34801561064957600080fd5b506102f161065836600461245d565b611703565b34801561066957600080fd5b5061067d610678366004612443565b61172e565b6040516102579190612856565b34801561069657600080fd5b506102da6106a5366004612443565b611821565b3480156106b657600080fd5b506102da6106c5366004612443565b6118b6565b6060600480546106d99061309e565b80601f01602080910402602001604051908101604052809291908181526020018280546107059061309e565b80156107525780601f1061072757610100808354040283529160200191610752565b820191906000526020600020905b81548152906001019060200180831161073557829003601f168201915b5050505050905090565b600080610768836112a9565b905060005b81601161077b836001612de8565b60ff168154811061079c57634e487b7160e01b600052603260045260246000fd5b6000918252602090912060088204015460079091166004026101000a900463ffffffff16116107e95760115460ff821614156107d7576107e9565b806107e1816130d9565b91505061076d565b9150505b919050565b60006108066107ff611976565b848461197a565b50600192915050565b610817611976565b6001600160a01b03166108286113e6565b6001600160a01b0316146108575760405162461bcd60e51b815260040161084e90612b46565b60405180910390fd5b600980546001600160a01b0319166001600160a01b0392909216919091179055565b60035490565b610887611976565b6001600160a01b03166108986113e6565b6001600160a01b0316146108be5760405162461bcd60e51b815260040161084e90612b46565b600c54600a546040516370a0823160e01b8152600092916001600160a01b0316906370a08231906108f3903090600401612779565b60206040518083038186803b15801561090b57600080fd5b505afa15801561091f573d6000803e3d6000fd5b505050506040513d601f19601f8201168201806040525081019061094391906126f4565b61094d9190613064565b905081811161096e5760405162461bcd60e51b815260040161084e90612cf8565b600a54600d5460405163a9059cbb60e01b81526001600160a01b039283169263a9059cbb926109a49291169086906004016127e2565b602060405180830381600087803b1580156109be57600080fd5b505af11580156109d2573d6000803e3d6000fd5b505050506040513d601f19601f820116820180604052508101906109f691906126bc565b507f8b9c4e1b9c860b263c59ac36417dfb6be15a01919b159407b1971058eee1e0298183604051610a28929190612d25565b60405180910390a15050565b600060026007541415610a595760405162461bcd60e51b815260040161084e90612c45565b60026007553360009081526010602052604081205485914391610a7c9083612fe4565b601454909150600090810b900b8113610aa75760405162461bcd60e51b815260040161084e90612a6d565b6012610ab23361075c565b60ff1681548110610ad357634e487b7160e01b600052603260045260246000fd5b90600052602060002090601091828204019190066002029054906101000a900460010b60010b601554610b069190612ec2565b8113610b245760405162461bcd60e51b815260040161084e90612955565b6000610b2f8761075c565b9050610b3c888888611a2e565b6000610b478861075c565b90508160ff168160ff161115610b6257610b6088611b56565b505b60019550505050506001600755509392505050565b610b7f611976565b6001600160a01b0316610b906113e6565b6001600160a01b031614610bb65760405162461bcd60e51b815260040161084e90612b46565b600854600954604051631a4ca37b60e21b81526001600160a01b03928316926369328dec92610bf0929116906000199030906004016127fb565b602060405180830381600087803b158015610c0a57600080fd5b505af1158015610c1e573d6000803e3d6000fd5b505050506040513d601f19601f82011682018060405250810190610c4291906126f4565b50600880546001600160a01b0319166001600160a01b0383161790556040517f33481e616168e187acdc90fda3d0269454b31c195cc00e4db474ca44f8d43ae890610c8e908390612779565b60405180910390a16009546040516370a0823160e01b81526000916001600160a01b0316906370a0823190610cc7903090600401612779565b60206040518083038186803b158015610cdf57600080fd5b505afa158015610cf3573d6000803e3d6000fd5b505050506040513d601f19601f82011682018060405250810190610d1791906126f4565b60095460085460405163095ea7b360e01b81529293506001600160a01b039182169263095ea7b392610d4f92169085906004016127e2565b602060405180830381600087803b158015610d6957600080fd5b505af1158015610d7d573d6000803e3d6000fd5b505050506040513d601f19601f82011682018060405250810190610da191906126bc565b5060085460095460405163e8eda9df60e01b81526001600160a01b039283169263e8eda9df92610ddd929116908590309060009060040161281e565b600060405180830381600087803b158015610df757600080fd5b505af1158015610e0b573d6000803e3d6000fd5b505050507fe4b07db4e98b8c4d7db7898ec0ca1004b8d388810ececa888262a4e5886027a981604051610a289190612864565b600f5460ff1690565b6000610806610e54611976565b848460026000610e62611976565b6001600160a01b03908116825260208083019390935260409182016000908120918b1681529252902054610e969190612dd0565b61197a565b610ea3611976565b6001600160a01b0316610eb46113e6565b6001600160a01b031614610eda5760405162461bcd60e51b815260040161084e90612b46565b610ee2611c15565b565b610eee81336110d2565b50565b600080610efc610879565b90506000610f0a8280612fc5565b90506000610f188584612d8f565b90506000610f268280612fc5565b90506000610f348483612fe4565b90506000600e5482610f469190612ec2565b9050600060165482610f589190612e0d565b90506000610f68612710836130f9565b9050610f748183612fe4565b9a9950505050505050505050565b610f8a611976565b6001600160a01b0316610f9b6113e6565b6001600160a01b031614610fc15760405162461bcd60e51b815260040161084e90612b46565b6040516370a0823160e01b815281906000906001600160a01b038316906370a0823190610ff2903090600401612779565b60206040518083038186803b15801561100a57600080fd5b505afa15801561101e573d6000803e3d6000fd5b505050506040513d601f19601f8201168201806040525081019061104291906126f4565b600d546040516323b872dd60e01b81529192506001600160a01b03808516926323b872dd9261107a92309291169086906004016127be565b602060405180830381600087803b15801561109457600080fd5b505af11580156110a8573d6000803e3d6000fd5b505050506040513d601f19601f820116820180604052508101906110cc91906126bc565b50505050565b6110da611291565b15806110fe57506110e96113e6565b6001600160a01b0316336001600160a01b0316145b61111a5760405162461bcd60e51b815260040161084e90612b18565b8180611125336112a9565b10156111435760405162461bcd60e51b815260040161084e90612ab7565b8261114d81610ef1565b600c54101561115b57600080fd5b336000818152601060205260408120544391906111789083612fe4565b601454909150600090810b900b81136111a35760405162461bcd60e51b815260040161084e90612a6d565b60126111ae3361075c565b60ff16815481106111cf57634e487b7160e01b600052603260045260246000fd5b90600052602060002090601091828204019190066002029054906101000a900460010b60010b6015546112029190612ec2565b81136112205760405162461bcd60e51b815260040161084e90612955565b6112328661122d8961310d565b611c83565b50505050505050565b611243611976565b6001600160a01b03166112546113e6565b6001600160a01b03161461127a5760405162461bcd60e51b815260040161084e90612b46565b805161128d90601290602084019061223b565b5050565b60065460ff1690565b6009546001600160a01b031681565b6001600160a01b031660009081526001602052604090205490565b6112cc611976565b6001600160a01b03166112dd6113e6565b6001600160a01b0316146113035760405162461bcd60e51b815260040161084e90612b46565b600080546040516001600160a01b03909116907f8be0079c531659141344cd1fd0a4f28419497f9722a3daafe3b4186f6b6457e0908390a3600080546001600160a01b0319169055565b611355611976565b6001600160a01b03166113666113e6565b6001600160a01b03161461138c5760405162461bcd60e51b815260040161084e90612b46565b610ee2611db1565b61139c611976565b6001600160a01b03166113ad6113e6565b6001600160a01b0316146113d35760405162461bcd60e51b815260040161084e90612b46565b805161128d9060139060208401906122e3565b6000546001600160a01b031690565b600a546001600160a01b031681565b6060600580546106d99061309e565b610eee81336114fe565b6000806002600061142c611976565b6001600160a01b03908116825260208083019390935260409182016000908120918816815292529020549050828110156114785760405162461bcd60e51b815260040161084e90612c7c565b61148e611483611976565b85610e968685613064565b5060019392505050565b60006114a5338484610a34565b9392505050565b6114b4611976565b6001600160a01b03166114c56113e6565b6001600160a01b0316146114eb5760405162461bcd60e51b815260040161084e90612b46565b805161128d90601190602084019061237a565b611506611291565b158061152a57506115156113e6565b6001600160a01b0316336001600160a01b0316145b6115465760405162461bcd60e51b815260040161084e90612b18565b60006115518261075c565b905061155d8284611c83565b60006115688361075c565b90508160ff168160ff1611156110cc5761158183611b56565b5050505050565b611590611976565b6001600160a01b03166115a16113e6565b6001600160a01b0316146115c75760405162461bcd60e51b815260040161084e90612b46565b600a80546001600160a01b0319166001600160a01b0392909216919091179055565b6115f1611976565b6001600160a01b03166116026113e6565b6001600160a01b0316146116285760405162461bcd60e51b815260040161084e90612b46565b601555565b611635611976565b6001600160a01b03166116466113e6565b6001600160a01b03161461166c5760405162461bcd60e51b815260040161084e90612b46565b60095460085460405163095ea7b360e01b81526001600160a01b039283169263095ea7b3926116a29291169085906004016127e2565b602060405180830381600087803b1580156116bc57600080fd5b505af11580156116d0573d6000803e3d6000fd5b505050506040513d601f19601f8201168201806040525081019061128d91906126bc565b6008546001600160a01b031681565b6001600160a01b03918216600090815260026020908152604080832093909416825291909152205490565b60006117a56040518060400160405280600e81526020016d3632bb32b620b73a32b9ad98ae9d60911b815250601160018154811061177c57634e487b7160e01b600052603260045260246000fd5b6000918252602090912060088204015460079091166004026101000a900463ffffffff16611e0c565b60136117b08361075c565b60ff16815481106117d157634e487b7160e01b600052603260045260246000fd5b6000918252602080832090820401546117f892601f9092166101000a9004900b6064613023565b601754600091820b9161180e91900b6064612f45565b60000b61181b9190612e3b565b92915050565b611829611976565b6001600160a01b031661183a6113e6565b6001600160a01b0316146118605760405162461bcd60e51b815260040161084e90612b46565b600d80546001600160a01b0319166001600160a01b0383161790556040517fa574362825e0eb8232ebe212b029c5b3a30ca54219bc287f49181e95bbb86089906118ab908390612779565b60405180910390a150565b6118be611976565b6001600160a01b03166118cf6113e6565b6001600160a01b0316146118f55760405162461bcd60e51b815260040161084e90612b46565b6001600160a01b03811661191b5760405162461bcd60e51b815260040161084e9061299f565b600080546040516001600160a01b03808516939216917f8be0079c531659141344cd1fd0a4f28419497f9722a3daafe3b4186f6b6457e091a3600080546001600160a01b0319166001600160a01b0392909216919091179055565b3390565b6001600160a01b0383166119a05760405162461bcd60e51b815260040161084e90612c01565b6001600160a01b0382166119c65760405162461bcd60e51b815260040161084e906129e5565b6001600160a01b0380841660008181526002602090815260408083209487168084529490915290819020849055517f8c5be1e5ebec7d5bd14f71427d1e84f3dd0314c0f7b2291e5b200ac8c7c3b92590611a21908590612864565b60405180910390a3505050565b6001600160a01b038316611a545760405162461bcd60e51b815260040161084e90612bbc565b6001600160a01b038216611a7a5760405162461bcd60e51b815260040161084e906128a2565b611a85838383611e51565b6001600160a01b03831660009081526001602052604090205481811015611abe5760405162461bcd60e51b815260040161084e90612a27565b611ac88282613064565b6001600160a01b038086166000908152600160205260408082209390935590851681529081208054849290611afe908490612dd0565b92505081905550826001600160a01b0316846001600160a01b03167fddf252ad1be2c89b69c2b068fc378daa952ba7f163c4a11628f55a4df523b3ef84604051611b489190612864565b60405180910390a350505050565b6001600160a01b03811660009081526010602052604081205443908290611b7d9083612fe4565b9050600060126001611b8e8761075c565b611b98919061307b565b60ff1681548110611bb957634e487b7160e01b600052603260045260246000fd5b60009182526020909120601082040154611be691600f166002026101000a9004600190810b900b83612fe4565b90506000811315611c0d576001600160a01b03851660009081526010602052604090208390555b505050919050565b611c1d611291565b611c395760405162461bcd60e51b815260040161084e906128e5565b6006805460ff191690557f5db9ee0a495bf2e6ff9c91a7834c1ba4fdd244a5e8aa4e537bd38aeae4b073aa611c6c611976565b604051611c799190612779565b60405180910390a1565b60026007541415611ca65760405162461bcd60e51b815260040161084e90612c45565b60026007556000611cb682610ef1565b90506000612710611cdb611cc93361172e565b611cd69060010b85612ec2565b611e56565b611ce59190612e0d565b90506000611cf38284612d8f565b90506000841315611d2557600b54611d169033906001600160a01b031683611e72565b611d208585612074565b611d46565b600b54611d3c906001600160a01b03168683611e72565b611d463385612134565b82600c6000828254611d589190612dd0565b909155507fe9ca761e98082e26fe7f4d718e4be22598bd25171542bfcfae1f932e13179cd49050338686611d8b8561310d565b86604051611d9d95949392919061278d565b60405180910390a150506001600755505050565b611db9611291565b15611dd65760405162461bcd60e51b815260040161084e90612aee565b6006805460ff191660011790557f62e78cea01bee320cd4e420270b5ea74000d11b0c9f74754ebdbfc544b05a258611c6c611976565b61128d8282604051602401611e22929190612880565b60408051601f198184030181529190526020810180516001600160e01b03166309710a9d60e41b17905261221a565b505050565b600080821215611e6e57611e698261310d565b61181b565b5090565b6000811315611fad5760095460085460405163095ea7b360e01b81526001600160a01b039283169263095ea7b392611eb19291169085906004016127e2565b602060405180830381600087803b158015611ecb57600080fd5b505af1158015611edf573d6000803e3d6000fd5b505050506040513d601f19601f82011682018060405250810190611f0391906126bc565b5060085460095460405163e8eda9df60e01b81526001600160a01b039283169263e8eda9df92611f3f929116908590309060009060040161281e565b600060405180830381600087803b158015611f5957600080fd5b505af1158015611f6d573d6000803e3d6000fd5b505050507fe4b07db4e98b8c4d7db7898ec0ca1004b8d388810ececa888262a4e5886027a981604051611fa09190612864565b60405180910390a1611e51565b600854600954604051631a4ca37b60e21b81526001600160a01b03928316926369328dec92611fe592911690859030906004016127fb565b602060405180830381600087803b158015611fff57600080fd5b505af1158015612013573d6000803e3d6000fd5b505050506040513d601f19601f8201168201806040525081019061203791906126f4565b507fcf262399c7d7a6ef0283fba5e04858a528d91a896dc7bc72fa3e55fbfee77deb816040516120679190612864565b60405180910390a1505050565b6001600160a01b03821661209a5760405162461bcd60e51b815260040161084e90612cc1565b6120a660008383611e51565b80600360008282546120b89190612dd0565b90915550506001600160a01b038216600090815260016020526040812080548392906120e5908490612dd0565b90915550506040516001600160a01b038316906000907fddf252ad1be2c89b69c2b068fc378daa952ba7f163c4a11628f55a4df523b3ef90612128908590612864565b60405180910390a35050565b6001600160a01b03821661215a5760405162461bcd60e51b815260040161084e90612b7b565b61216682600083611e51565b6001600160a01b0382166000908152600160205260409020548181101561219f5760405162461bcd60e51b815260040161084e90612913565b6121a98282613064565b6001600160a01b038416600090815260016020526040812091909155600380548492906121d7908490613064565b90915550506040516000906001600160a01b038516907fddf252ad1be2c89b69c2b068fc378daa952ba7f163c4a11628f55a4df523b3ef90611a21908690612864565b80516a636f6e736f6c652e6c6f67602083016000808483855afa5050505050565b82805482825590600052602060002090600f016010900481019282156122d75791602002820160005b838211156122a757835183826101000a81548161ffff021916908360010b61ffff1602179055509260200192600201602081600101049283019260010302612264565b80156122d55782816101000a81549061ffff02191690556002016020816001010492830192600103026122a7565b505b50611e6e929150612417565b82805482825590600052602060002090601f016020900481019282156122d75791602002820160005b8382111561234d57835183826101000a81548160ff021916908360000b60ff160217905550926020019260010160208160000104928301926001030261230c565b80156122d55782816101000a81549060ff021916905560010160208160000104928301926001030261234d565b828054828255906000526020600020906007016008900481019282156122d75791602002820160005b838211156123e757835183826101000a81548163ffffffff021916908363ffffffff16021790555092602001926004016020816003010492830192600103026123a3565b80156122d55782816101000a81549063ffffffff02191690556004016020816003010492830192600103026123e7565b5b80821115611e6e5760008155600101612418565b80356001600160a01b03811681146107ed57600080fd5b600060208284031215612454578081fd5b6114a58261242c565b6000806040838503121561246f578081fd5b6124788361242c565b91506124866020840161242c565b90509250929050565b6000806000606084860312156124a3578081fd5b6124ac8461242c565b92506124ba6020850161242c565b9150604084013590509250925092565b600080604083850312156124dc578182fd5b6124e58361242c565b946020939093013593505050565b60006020808385031215612505578182fd5b823567ffffffffffffffff81111561251b578283fd5b8301601f8101851361252b578283fd5b803561253e61253982612d6b565b612d41565b818152838101908385018584028501860189101561255a578687fd5b8694505b8385101561258a5780358060010b8114612576578788fd5b83526001949094019391850191850161255e565b50979650505050505050565b600060208083850312156125a8578182fd5b823567ffffffffffffffff8111156125be578283fd5b8301601f810185136125ce578283fd5b80356125dc61253982612d6b565b81815283810190838501858402850186018910156125f8578687fd5b8694505b8385101561258a57803580880b8114612613578788fd5b8352600194909401939185019185016125fc565b60006020808385031215612639578182fd5b823567ffffffffffffffff81111561264f578283fd5b8301601f8101851361265f578283fd5b803561266d61253982612d6b565b8181528381019083850185840285018601891015612689578687fd5b8694505b8385101561258a57803563ffffffff811681146126a8578788fd5b83526001949094019391850191850161268d565b6000602082840312156126cd578081fd5b815180151581146114a5578182fd5b6000602082840312156126ed578081fd5b5035919050565b600060208284031215612705578081fd5b5051919050565b6000806040838503121561271e578182fd5b823591506124866020840161242c565b60008151808452815b8181101561275357602081850181015186830182015201612737565b818111156127645782602083870101525b50601f01601f19169290920160200192915050565b6001600160a01b0391909116815260200190565b6001600160a01b03958616815293909416602084015260408301919091526060820152608081019190915260a00190565b6001600160a01b039384168152919092166020820152604081019190915260600190565b6001600160a01b03929092168252602082015260400190565b6001600160a01b0393841681526020810192909252909116604082015260600190565b6001600160a01b03948516815260208101939093529216604082015261ffff909116606082015260800190565b901515815260200190565b60019190910b815260200190565b90815260200190565b6000602082526114a5602083018461272e565b600060408252612893604083018561272e565b90508260208301529392505050565b60208082526023908201527f45524332303a207472616e7366657220746f20746865207a65726f206164647260408201526265737360e81b606082015260800190565b60208082526014908201527314185d5cd8589b194e881b9bdd081c185d5cd95960621b604082015260600190565b60208082526022908201527f45524332303a206275726e20616d6f756e7420657863656564732062616c616e604082015261636560f01b606082015260800190565b6020808252602a908201527f446973636f756e74206c6576656c2077697468647261772074696d656f75742060408201526934b71032b33332b1ba1760b11b606082015260800190565b60208082526026908201527f4f776e61626c653a206e6577206f776e657220697320746865207a65726f206160408201526564647265737360d01b606082015260800190565b60208082526022908201527f45524332303a20617070726f766520746f20746865207a65726f206164647265604082015261737360f01b606082015260800190565b60208082526026908201527f45524332303a207472616e7366657220616d6f756e7420657863656564732062604082015265616c616e636560d01b606082015260800190565b6020808252602a908201527f416e74692d666c6173686c6f616e2077697468647261772074696d656f75742060408201526934b71032b33332b1ba1760b11b606082015260800190565b60208082526017908201527f496e73756666696369656e742042656e6a616d696e732e000000000000000000604082015260600190565b60208082526010908201526f14185d5cd8589b194e881c185d5cd95960821b604082015260600190565b6020808252601490820152732132b73530b6b4b7399034b9903830bab9b2b21760611b604082015260600190565b6020808252818101527f4f776e61626c653a2063616c6c6572206973206e6f7420746865206f776e6572604082015260600190565b60208082526021908201527f45524332303a206275726e2066726f6d20746865207a65726f206164647265736040820152607360f81b606082015260800190565b60208082526025908201527f45524332303a207472616e736665722066726f6d20746865207a65726f206164604082015264647265737360d81b606082015260800190565b60208082526024908201527f45524332303a20617070726f76652066726f6d20746865207a65726f206164646040820152637265737360e01b606082015260800190565b6020808252601f908201527f5265656e7472616e637947756172643a207265656e7472616e742063616c6c00604082015260600190565b60208082526025908201527f45524332303a2064656372656173656420616c6c6f77616e63652062656c6f77604082015264207a65726f60d81b606082015260800190565b6020808252601f908201527f45524332303a206d696e7420746f20746865207a65726f206164647265737300604082015260600190565b60208082526013908201527224b739bab33334b1b4b2b73a10333ab732399760691b604082015260600190565b918252602082015260400190565b60ff91909116815260200190565b60405181810167ffffffffffffffff81118282101715612d6357612d63613153565b604052919050565b600067ffffffffffffffff821115612d8557612d85613153565b5060209081020190565b600080821280156001600160ff1b0384900385131615612db157612db1613127565b600160ff1b8390038412811615612dca57612dca613127565b50500190565b60008219821115612de357612de3613127565b500190565b600060ff821660ff84168060ff03821115612e0557612e05613127565b019392505050565b600082612e1c57612e1c61313d565b600160ff1b821460001984141615612e3657612e36613127565b500590565b60008160010b8360010b617fff83821384841383830485118282161615612e6457612e64613127565b617fff1986851282811687830587121615612e8157612e81613127565b878712925085820587128484161615612e9c57612e9c613127565b85850587128184161615612eb257612eb2613127565b5050509290910295945050505050565b60006001600160ff1b0381841382841380821686840486111615612ee857612ee8613127565b600160ff1b84871282811687830589121615612f0657612f06613127565b858712925087820587128484161615612f2157612f21613127565b87850587128184161615612f3757612f37613127565b505050929093029392505050565b600081810b83820b82811383831382607f0484118282161615612f6a57612f6a613127565b607f1985841282811686830586121615612f8657612f86613127565b868612925084820586128484161615612fa157612fa1613127565b84607f0586128184161615612fb857612fb8613127565b5050509102949350505050565b6000816000190483118215151615612fdf57612fdf613127565b500290565b60008083128015600160ff1b85018412161561300257613002613127565b6001600160ff1b038401831381161561301d5761301d613127565b50500390565b600081810b83820b8281128015607f1983018412161561304557613045613127565b81607f01831381161561305a5761305a613127565b5090039392505050565b60008282101561307657613076613127565b500390565b600060ff821660ff84168082101561309557613095613127565b90039392505050565b6002810460018216806130b257607f821691505b602082108114156130d357634e487b7160e01b600052602260045260246000fd5b50919050565b600060ff821660ff8114156130f0576130f0613127565b60010192915050565b6000826131085761310861313d565b500790565b6000600160ff1b82141561312357613123613127565b0390565b634e487b7160e01b600052601160045260246000fd5b634e487b7160e01b600052601260045260246000fd5b634e487b7160e01b600052604160045260246000fdfea2646970667358221220379216afca5fef59cab9c0f55275861c69d7c7e92a9e7d2e6919cd220ddbf2e764736f6c63430008000033",
  "linkReferences": {},
  "deployedLinkReferences": {}
}