{
  "_format": "hh-sol-artifact-1",
  "contractName": "Benjamins",
  "sourceName": "contracts/Benjamins.sol",
  "abi": [
    {
      "inputs": [],
      "stateMutability": "nonpayable",
      "type": "constructor"
    },
    {
      "anonymous": false,
      "inputs": [
        {
          "indexed": true,
          "internalType": "address",
          "name": "owner",
          "type": "address"
        },
        {
          "indexed": true,
          "internalType": "address",
          "name": "spender",
          "type": "address"
        },
        {
          "indexed": false,
          "internalType": "uint256",
          "name": "value",
          "type": "uint256"
        }
      ],
      "name": "Approval",
      "type": "event"
    },
    {
      "anonymous": false,
      "inputs": [
        {
          "indexed": false,
          "internalType": "uint256",
          "name": "amount",
          "type": "uint256"
        }
      ],
      "name": "LendingPoolDeposit",
      "type": "event"
    },
    {
      "anonymous": false,
      "inputs": [
        {
          "indexed": false,
          "internalType": "uint256",
          "name": "amount",
          "type": "uint256"
        }
      ],
      "name": "LendingPoolWithdrawal",
      "type": "event"
    },
    {
      "anonymous": false,
      "inputs": [
        {
          "indexed": true,
          "internalType": "address",
          "name": "previousOwner",
          "type": "address"
        },
        {
          "indexed": true,
          "internalType": "address",
          "name": "newOwner",
          "type": "address"
        }
      ],
      "name": "OwnershipTransferred",
      "type": "event"
    },
    {
      "anonymous": false,
      "inputs": [
        {
          "indexed": false,
          "internalType": "address",
          "name": "account",
          "type": "address"
        }
      ],
      "name": "Paused",
      "type": "event"
    },
    {
      "anonymous": false,
      "inputs": [
        {
          "indexed": false,
          "internalType": "address",
          "name": "sender",
          "type": "address"
        },
        {
          "indexed": false,
          "internalType": "address",
          "name": "receiverOfUSDC",
          "type": "address"
        },
        {
          "indexed": false,
          "internalType": "uint256",
          "name": "tokenAmount",
          "type": "uint256"
        },
        {
          "indexed": false,
          "internalType": "uint256",
          "name": "returnForBurningIn6dec",
          "type": "uint256"
        },
        {
          "indexed": false,
          "internalType": "uint256",
          "name": "feeRoundedDownIn6dec",
          "type": "uint256"
        }
      ],
      "name": "SpecifiedBurnEvent",
      "type": "event"
    },
    {
      "anonymous": false,
      "inputs": [
        {
          "indexed": false,
          "internalType": "address",
          "name": "sender",
          "type": "address"
        },
        {
          "indexed": false,
          "internalType": "address",
          "name": "receiverOfTokens",
          "type": "address"
        },
        {
          "indexed": false,
          "internalType": "uint256",
          "name": "tokenAmount",
          "type": "uint256"
        },
        {
          "indexed": false,
          "internalType": "uint256",
          "name": "priceForMintingIn6dec",
          "type": "uint256"
        },
        {
          "indexed": false,
          "internalType": "uint256",
          "name": "feeRoundedDownIn6dec",
          "type": "uint256"
        }
      ],
      "name": "SpecifiedMintEvent",
      "type": "event"
    },
    {
      "anonymous": false,
      "inputs": [
        {
          "indexed": true,
          "internalType": "address",
          "name": "from",
          "type": "address"
        },
        {
          "indexed": true,
          "internalType": "address",
          "name": "to",
          "type": "address"
        },
        {
          "indexed": false,
          "internalType": "uint256",
          "name": "value",
          "type": "uint256"
        }
      ],
      "name": "Transfer",
      "type": "event"
    },
    {
      "anonymous": false,
      "inputs": [
        {
          "indexed": false,
          "internalType": "address",
          "name": "account",
          "type": "address"
        }
      ],
      "name": "Unpaused",
      "type": "event"
    },
    {
      "inputs": [],
      "name": "addressOfThisContract",
      "outputs": [
        {
          "internalType": "address",
          "name": "",
          "type": "address"
        }
      ],
      "stateMutability": "view",
      "type": "function"
    },
    {
      "inputs": [
        {
          "internalType": "address",
          "name": "owner",
          "type": "address"
        },
        {
          "internalType": "address",
          "name": "spender",
          "type": "address"
        }
      ],
      "name": "allowance",
      "outputs": [
        {
          "internalType": "uint256",
          "name": "",
          "type": "uint256"
        }
      ],
      "stateMutability": "view",
      "type": "function"
    },
    {
      "inputs": [
        {
          "internalType": "address",
          "name": "userToCheck",
          "type": "address"
        }
      ],
      "name": "amountBlocksHoldingNeeded",
      "outputs": [
        {
          "internalType": "uint256",
          "name": "",
          "type": "uint256"
        }
      ],
      "stateMutability": "view",
      "type": "function"
    },
    {
      "inputs": [
        {
          "internalType": "address",
          "name": "spender",
          "type": "address"
        },
        {
          "internalType": "uint256",
          "name": "amount",
          "type": "uint256"
        }
      ],
      "name": "approve",
      "outputs": [
        {
          "internalType": "bool",
          "name": "",
          "type": "bool"
        }
      ],
      "stateMutability": "nonpayable",
      "type": "function"
    },
    {
      "inputs": [
        {
          "internalType": "address",
          "name": "account",
          "type": "address"
        }
      ],
      "name": "balanceOf",
      "outputs": [
        {
          "internalType": "uint256",
          "name": "",
          "type": "uint256"
        }
      ],
      "stateMutability": "view",
      "type": "function"
    },
    {
      "inputs": [
        {
          "internalType": "uint256",
          "name": "amountOfBNJIs",
          "type": "uint256"
        },
        {
          "internalType": "address",
          "name": "receiverOfUSDC",
          "type": "address"
        }
      ],
      "name": "burnForBeneficiary",
      "outputs": [],
      "stateMutability": "nonpayable",
      "type": "function"
    },
    {
      "inputs": [
        {
          "internalType": "uint256",
          "name": "amountOfBNJIs",
          "type": "uint256"
        }
      ],
      "name": "burnForSelf",
      "outputs": [],
      "stateMutability": "nonpayable",
      "type": "function"
    },
    {
      "inputs": [],
      "name": "calcAllTokensValue",
      "outputs": [
        {
          "internalType": "uint256",
          "name": "allTokensReturn",
          "type": "uint256"
        }
      ],
      "stateMutability": "view",
      "type": "function"
    },
    {
      "inputs": [
        {
          "internalType": "address",
          "name": "userToCheck",
          "type": "address"
        }
      ],
      "name": "calcCurrentLevel",
      "outputs": [
        {
          "internalType": "uint256",
          "name": "",
          "type": "uint256"
        }
      ],
      "stateMutability": "view",
      "type": "function"
    },
    {
      "inputs": [
        {
          "internalType": "address",
          "name": "userToCheck",
          "type": "address"
        }
      ],
      "name": "calcDiscount",
      "outputs": [
        {
          "internalType": "uint256",
          "name": "",
          "type": "uint256"
        }
      ],
      "stateMutability": "view",
      "type": "function"
    },
    {
      "inputs": [
        {
          "internalType": "uint256",
          "name": "supply",
          "type": "uint256"
        },
        {
          "internalType": "uint256",
          "name": "tokensToMint",
          "type": "uint256"
        }
      ],
      "name": "calcPriceForTokenMint",
      "outputs": [
        {
          "internalType": "uint256",
          "name": "",
          "type": "uint256"
        }
      ],
      "stateMutability": "view",
      "type": "function"
    },
    {
      "inputs": [
        {
          "internalType": "uint256",
          "name": "supply",
          "type": "uint256"
        },
        {
          "internalType": "uint256",
          "name": "tokensToBurn",
          "type": "uint256"
        }
      ],
      "name": "calcReturnForTokenBurn",
      "outputs": [
        {
          "internalType": "uint256",
          "name": "",
          "type": "uint256"
        }
      ],
      "stateMutability": "view",
      "type": "function"
    },
    {
      "inputs": [
        {
          "internalType": "uint256",
          "name": "amount",
          "type": "uint256"
        }
      ],
      "name": "calcSpecBurnReturn",
      "outputs": [
        {
          "internalType": "uint256",
          "name": "burnReturn",
          "type": "uint256"
        }
      ],
      "stateMutability": "view",
      "type": "function"
    },
    {
      "inputs": [
        {
          "internalType": "uint256",
          "name": "amount",
          "type": "uint256"
        }
      ],
      "name": "calcSpecMintReturn",
      "outputs": [
        {
          "internalType": "uint256",
          "name": "mintPrice",
          "type": "uint256"
        }
      ],
      "stateMutability": "view",
      "type": "function"
    },
    {
      "inputs": [],
      "name": "decimals",
      "outputs": [
        {
          "internalType": "uint8",
          "name": "",
          "type": "uint8"
        }
      ],
      "stateMutability": "view",
      "type": "function"
    },
    {
      "inputs": [
        {
          "internalType": "address",
          "name": "spender",
          "type": "address"
        },
        {
          "internalType": "uint256",
          "name": "subtractedValue",
          "type": "uint256"
        }
      ],
      "name": "decreaseAllowance",
      "outputs": [
        {
          "internalType": "bool",
          "name": "",
          "type": "bool"
        }
      ],
      "stateMutability": "nonpayable",
      "type": "function"
    },
    {
      "inputs": [
        {
          "internalType": "uint256",
          "name": "amount",
          "type": "uint256"
        }
      ],
      "name": "depositUSDCBuffer",
      "outputs": [],
      "stateMutability": "nonpayable",
      "type": "function"
    },
    {
      "inputs": [
        {
          "internalType": "address",
          "name": "userToCheck",
          "type": "address"
        }
      ],
      "name": "getBlockAmountStillToWait",
      "outputs": [
        {
          "internalType": "uint256",
          "name": "blocksHoldingSoFar",
          "type": "uint256"
        },
        {
          "internalType": "uint256",
          "name": "blocksNecessaryTotal",
          "type": "uint256"
        }
      ],
      "stateMutability": "view",
      "type": "function"
    },
    {
      "inputs": [
        {
          "internalType": "address",
          "name": "spender",
          "type": "address"
        },
        {
          "internalType": "uint256",
          "name": "addedValue",
          "type": "uint256"
        }
      ],
      "name": "increaseAllowance",
      "outputs": [
        {
          "internalType": "bool",
          "name": "",
          "type": "bool"
        }
      ],
      "stateMutability": "nonpayable",
      "type": "function"
    },
    {
      "inputs": [
        {
          "internalType": "uint256",
          "name": "amountOfBNJIs",
          "type": "uint256"
        },
        {
          "internalType": "address",
          "name": "receiverOfTokens",
          "type": "address"
        }
      ],
      "name": "mintToBeneficiary",
      "outputs": [],
      "stateMutability": "nonpayable",
      "type": "function"
    },
    {
      "inputs": [
        {
          "internalType": "uint256",
          "name": "amountOfBNJIs",
          "type": "uint256"
        }
      ],
      "name": "mintToSelf",
      "outputs": [],
      "stateMutability": "nonpayable",
      "type": "function"
    },
    {
      "inputs": [],
      "name": "name",
      "outputs": [
        {
          "internalType": "string",
          "name": "",
          "type": "string"
        }
      ],
      "stateMutability": "view",
      "type": "function"
    },
    {
      "inputs": [],
      "name": "owner",
      "outputs": [
        {
          "internalType": "address",
          "name": "",
          "type": "address"
        }
      ],
      "stateMutability": "view",
      "type": "function"
    },
    {
      "inputs": [],
      "name": "pause",
      "outputs": [],
      "stateMutability": "nonpayable",
      "type": "function"
    },
    {
      "inputs": [],
      "name": "paused",
      "outputs": [
        {
          "internalType": "bool",
          "name": "",
          "type": "bool"
        }
      ],
      "stateMutability": "view",
      "type": "function"
    },
    {
      "inputs": [],
      "name": "polygonAMUSDC",
      "outputs": [
        {
          "internalType": "contract IERC20",
          "name": "",
          "type": "address"
        }
      ],
      "stateMutability": "view",
      "type": "function"
    },
    {
      "inputs": [],
      "name": "polygonLendingPool",
      "outputs": [
        {
          "internalType": "contract ILendingPool",
          "name": "",
          "type": "address"
        }
      ],
      "stateMutability": "view",
      "type": "function"
    },
    {
      "inputs": [],
      "name": "polygonUSDC",
      "outputs": [
        {
          "internalType": "contract IERC20",
          "name": "",
          "type": "address"
        }
      ],
      "stateMutability": "view",
      "type": "function"
    },
    {
      "inputs": [],
      "name": "renounceOwnership",
      "outputs": [],
      "stateMutability": "nonpayable",
      "type": "function"
    },
    {
      "inputs": [],
      "name": "showBaseFee",
      "outputs": [
        {
          "internalType": "uint256",
          "name": "",
          "type": "uint256"
        }
      ],
      "stateMutability": "view",
      "type": "function"
    },
    {
      "inputs": [],
      "name": "symbol",
      "outputs": [
        {
          "internalType": "string",
          "name": "",
          "type": "string"
        }
      ],
      "stateMutability": "view",
      "type": "function"
    },
    {
      "inputs": [],
      "name": "totalSupply",
      "outputs": [
        {
          "internalType": "uint256",
          "name": "",
          "type": "uint256"
        }
      ],
      "stateMutability": "view",
      "type": "function"
    },
    {
      "inputs": [
        {
          "internalType": "address",
          "name": "receiver",
          "type": "address"
        },
        {
          "internalType": "uint256",
          "name": "amountOfBNJIs",
          "type": "uint256"
        }
      ],
      "name": "transfer",
      "outputs": [
        {
          "internalType": "bool",
          "name": "",
          "type": "bool"
        }
      ],
      "stateMutability": "nonpayable",
      "type": "function"
    },
    {
      "inputs": [
        {
          "internalType": "address",
          "name": "payingAddress",
          "type": "address"
        },
        {
          "internalType": "address",
          "name": "receiver",
          "type": "address"
        },
        {
          "internalType": "uint256",
          "name": "amountOfBNJIs",
          "type": "uint256"
        }
      ],
      "name": "transferFrom",
      "outputs": [
        {
          "internalType": "bool",
          "name": "",
          "type": "bool"
        }
      ],
      "stateMutability": "nonpayable",
      "type": "function"
    },
    {
      "inputs": [
        {
          "internalType": "address",
          "name": "newOwner",
          "type": "address"
        }
      ],
      "name": "transferOwnership",
      "outputs": [],
      "stateMutability": "nonpayable",
      "type": "function"
    },
    {
      "inputs": [],
      "name": "unpause",
      "outputs": [],
      "stateMutability": "nonpayable",
      "type": "function"
    },
    {
      "inputs": [
        {
          "internalType": "address",
          "name": "newAddress",
          "type": "address"
        }
      ],
      "name": "updateAccumulatedReceiver",
      "outputs": [],
      "stateMutability": "nonpayable",
      "type": "function"
    },
    {
      "inputs": [
        {
          "internalType": "uint256",
          "name": "amountToApprove",
          "type": "uint256"
        }
      ],
      "name": "updateApproveLendingPool",
      "outputs": [],
      "stateMutability": "nonpayable",
      "type": "function"
    },
    {
      "inputs": [
        {
          "internalType": "uint256",
          "name": "newAmountOfBlocksPerDay",
          "type": "uint256"
        }
      ],
      "name": "updateBlocksPerDay",
      "outputs": [],
      "stateMutability": "nonpayable",
      "type": "function"
    },
    {
      "inputs": [
        {
          "internalType": "uint256",
          "name": "newCurveFactor",
          "type": "uint256"
        }
      ],
      "name": "updateCurveFactor",
      "outputs": [],
      "stateMutability": "nonpayable",
      "type": "function"
    },
    {
      "inputs": [
        {
          "internalType": "address",
          "name": "newAddress",
          "type": "address"
        }
      ],
      "name": "updateFeeReceiver",
      "outputs": [],
      "stateMutability": "nonpayable",
      "type": "function"
    },
    {
      "inputs": [
        {
          "internalType": "uint256[]",
          "name": "newLevelAntes",
          "type": "uint256[]"
        }
      ],
      "name": "updateLevelAntes",
      "outputs": [],
      "stateMutability": "nonpayable",
      "type": "function"
    },
    {
      "inputs": [
        {
          "internalType": "uint256[]",
          "name": "newLevelDiscounts",
          "type": "uint256[]"
        }
      ],
      "name": "updateLevelDiscounts",
      "outputs": [],
      "stateMutability": "nonpayable",
      "type": "function"
    },
    {
      "inputs": [
        {
          "internalType": "uint256[]",
          "name": "newLevelHolds",
          "type": "uint256[]"
        }
      ],
      "name": "updateLevelHolds",
      "outputs": [],
      "stateMutability": "nonpayable",
      "type": "function"
    },
    {
      "inputs": [
        {
          "internalType": "address",
          "name": "newAddress",
          "type": "address"
        }
      ],
      "name": "updatePolygonAMUSDC",
      "outputs": [],
      "stateMutability": "nonpayable",
      "type": "function"
    },
    {
      "inputs": [
        {
          "internalType": "address",
          "name": "newAddress",
          "type": "address"
        }
      ],
      "name": "updatePolygonLendingPool",
      "outputs": [],
      "stateMutability": "nonpayable",
      "type": "function"
    },
    {
      "inputs": [
        {
          "internalType": "address",
          "name": "newAddress",
          "type": "address"
        }
      ],
      "name": "updatePolygonUSDC",
      "outputs": [],
      "stateMutability": "nonpayable",
      "type": "function"
    },
    {
      "inputs": [
        {
          "internalType": "address",
          "name": "userToModifyWL",
          "type": "address"
        },
        {
          "internalType": "bool",
          "name": "newStatus",
          "type": "bool"
        }
      ],
      "name": "updateWhitelisted",
      "outputs": [],
      "stateMutability": "nonpayable",
      "type": "function"
    },
    {
      "inputs": [
        {
          "internalType": "uint256",
          "name": "amount",
          "type": "uint256"
        }
      ],
      "name": "withdrawAccumulated",
      "outputs": [],
      "stateMutability": "nonpayable",
      "type": "function"
    },
    {
      "inputs": [
        {
          "internalType": "address",
          "name": "ERC20ContractAddress",
          "type": "address"
        },
        {
          "internalType": "uint256",
          "name": "amount",
          "type": "uint256"
        }
      ],
      "name": "withdrawERC20",
      "outputs": [],
      "stateMutability": "nonpayable",
      "type": "function"
    },
    {
      "stateMutability": "payable",
      "type": "receive"
    }
  ],
  "bytecode": "0x6080604052620f4240600655620c3500600755600a60115561a8c060125560026013553480156200002f57600080fd5b50604080518082018252600981526842656e6a616d696e7360b81b602080830191825283518085019094526004845263424e4a4960e01b9084015281519192916200007d9160039162000430565b5080516200009390600490602084019062000430565b5050506000620000a8620002c060201b60201c565b600580546001600160a01b0319166001600160a01b038316908117909155604051919250906000907f8be0079c531659141344cd1fd0a4f28419497f9722a3daafe3b4186f6b6457e0908290a3506005805460ff60a01b191690556001600855600980546001600160a01b03199081163017909155600a8054821673a9ece84e3139cba81f60f648002d38c635cd857d179055600b8054909116737c976677499803bbc72262784ec45088715c02211790556200017062000168620002c4565b6001620002d3565b600b805460ff60a01b19169055601580546001600160a01b0319908116732791bca1f2de4661ed88a30c99a7a9449aa8417417909155601680548216731a13f4ca1d028320a707d99520abfefca3998b7f17905560148054909116738dff5e27ea6b7ac08ebfdf9eb090f32ee9a30fcf1781556040805160c081018252600081526020810192909252603c90820152606460608201526101f460808201526107d060a08201526200022690600e906006620004bf565b506040805160c0810182526000815260026020820152600791810191909152601e6060820152605a608082015261016860a08201526200026b90600f906006620004bf565b506040805160c0810182526000815260056020820152600a918101919091526014606082015260286080820152604b60a0820152620002af90601090600662000503565b50620002ba6200034d565b6200060d565b3390565b6005546001600160a01b031690565b620002dd620002c0565b6001600160a01b0316620002f0620002c4565b6001600160a01b031614620003225760405162461bcd60e51b815260040162000319906200059b565b60405180910390fd5b6001600160a01b03919091166000908152600d60205260409020805460ff1916911515919091179055565b62000357620002c0565b6001600160a01b03166200036a620002c4565b6001600160a01b031614620003935760405162461bcd60e51b815260040162000319906200059b565b6200039d6200039f565b565b620003a962000420565b15620003c95760405162461bcd60e51b8152600401620003199062000571565b6005805460ff60a01b1916600160a01b1790557f62e78cea01bee320cd4e420270b5ea74000d11b0c9f74754ebdbfc544b05a25862000407620002c0565b6040516200041691906200055d565b60405180910390a1565b600554600160a01b900460ff1690565b8280546200043e90620005d0565b90600052602060002090601f016020900481019282620004625760008555620004ad565b82601f106200047d57805160ff1916838001178555620004ad565b82800160010185558215620004ad579182015b82811115620004ad57825182559160200191906001019062000490565b50620004bb92915062000546565b5090565b828054828255906000526020600020908101928215620004ad579160200282015b82811115620004ad578251829061ffff16905591602001919060010190620004e0565b828054828255906000526020600020908101928215620004ad579160200282015b82811115620004ad578251829060ff1690559160200191906001019062000524565b5b80821115620004bb576000815560010162000547565b6001600160a01b0391909116815260200190565b60208082526010908201526f14185d5cd8589b194e881c185d5cd95960821b604082015260600190565b6020808252818101527f4f776e61626c653a2063616c6c6572206973206e6f7420746865206f776e6572604082015260600190565b600281046001821680620005e557607f821691505b602082108114156200060757634e487b7160e01b600052602260045260246000fd5b50919050565b613609806200061d6000396000f3fe6080604052600436106102cd5760003560e01c8063a457c2d711610175578063c6a5d5da116100dc578063e4bbe7eb11610095578063f239dedf1161006f578063f239dedf1461084b578063f2fde38b14610879578063f98b242f14610899578063fe426166146108ae576102d4565b8063e4bbe7eb146107eb578063e8e6f9ad1461080b578063f167bfc31461082b576102d4565b8063c6a5d5da14610736578063cd0d95e214610756578063ceec6b2a14610776578063cfad0eb614610796578063d948e104146107b6578063dd62ed3e146107cb576102d4565b8063bb6d5e3b1161012e578063bb6d5e3b14610676578063c010014314610696578063c346e980146106b6578063c5714744146106d6578063c62548a8146106f6578063c69bebe414610716576102d4565b8063a457c2d7146105c1578063a7b9c8ae146105e1578063a9059cbb14610601578063aaa8198414610621578063b0de368014610636578063b0eb85ea14610656576102d4565b80633f4ba83a11610234578063715018a6116101ed5780638fb33017116101c75780638fb3301714610557578063926fcfc41461056c57806395d89b411461058c578063a1db9782146105a1576102d4565b8063715018a6146105185780638456cb591461052d5780638da5cb5b14610542576102d4565b80633f4ba83a14610479578063581919631461048e5780635c975abb146104ae5780635f03e644146104c35780636c752974146104e357806370a08231146104f8576102d4565b806323b872dd1161028657806323b872dd146103b7578063257a0050146103d75780632853c2f7146103f7578063313ce56714610417578063383b16df146104395780633950935114610459576102d4565b806306fdde03146102d9578063095ea7b31461030457806310b4afb314610331578063160873151461035357806318160ddd146103755780631adedf0614610397576102d4565b366102d457005b600080fd5b3480156102e557600080fd5b506102ee6108ce565b6040516102fb9190612a93565b60405180910390f35b34801561031057600080fd5b5061032461031f3660046127df565b610960565b6040516102fb9190612a88565b34801561033d57600080fd5b5061034661097d565b6040516102fb919061299c565b34801561035f57600080fd5b5061037361036e366004612722565b61098c565b005b34801561038157600080fd5b5061038a610a1c565b6040516102fb919061346e565b3480156103a357600080fd5b5061038a6103b2366004612722565b610a22565b3480156103c357600080fd5b506103246103d236600461276e565b610a76565b3480156103e357600080fd5b506103736103f2366004612722565b610b02565b34801561040357600080fd5b506103736104123660046128de565b610b89565b34801561042357600080fd5b5061042c610bcd565b6040516102fb91906134a6565b34801561044557600080fd5b50610373610454366004612808565b610bdd565b34801561046557600080fd5b506103246104743660046127df565b610c33565b34801561048557600080fd5b50610373610c82565b34801561049a57600080fd5b506103736104a936600461290e565b610ccb565b3480156104ba57600080fd5b50610324610cda565b3480156104cf57600080fd5b5061038a6104de3660046128de565b610cea565b3480156104ef57600080fd5b50610346610d2b565b34801561050457600080fd5b5061038a610513366004612722565b610d3a565b34801561052457600080fd5b50610373610d55565b34801561053957600080fd5b50610373610dde565b34801561054e57600080fd5b50610346610e25565b34801561056357600080fd5b50610346610e34565b34801561057857600080fd5b50610373610587366004612808565b610e43565b34801561059857600080fd5b506102ee610e95565b3480156105ad57600080fd5b506103736105bc3660046127df565b610ea4565b3480156105cd57600080fd5b506103246105dc3660046127df565b610f6b565b3480156105ed57600080fd5b506103736105fc3660046128de565b610fe6565b34801561060d57600080fd5b5061032461061c3660046127df565b6110ad565b34801561062d57600080fd5b5061038a611101565b34801561064257600080fd5b506103736106513660046128de565b611107565b34801561066257600080fd5b50610373610671366004612808565b6111f3565b34801561068257600080fd5b506103736106913660046128de565b611245565b3480156106a257600080fd5b506103736106b1366004612722565b61124f565b3480156106c257600080fd5b5061038a6106d13660046128de565b6112d6565b3480156106e257600080fd5b506103736106f13660046128de565b611311565b34801561070257600080fd5b506103736107113660046127a9565b61131b565b34801561072257600080fd5b50610373610731366004612722565b611385565b34801561074257600080fd5b506103736107513660046128de565b61140c565b34801561076257600080fd5b506103736107713660046128de565b611450565b34801561078257600080fd5b5061038a610791366004612722565b6114c5565b3480156107a257600080fd5b506103736107b1366004612722565b611508565b3480156107c257600080fd5b5061034661158f565b3480156107d757600080fd5b5061038a6107e636600461273c565b61159e565b3480156107f757600080fd5b5061038a610806366004612930565b6115c9565b34801561081757600080fd5b5061038a610826366004612930565b61168b565b34801561083757600080fd5b5061038a610846366004612722565b6116e2565b34801561085757600080fd5b5061086b610866366004612722565b61175c565b6040516102fb929190613498565b34801561088557600080fd5b50610373610894366004612722565b61179c565b3480156108a557600080fd5b5061038a61185d565b3480156108ba57600080fd5b506103736108c936600461290e565b6118b6565b6060600380546108dd90613516565b80601f016020809104026020016040519081016040528092919081815260200182805461090990613516565b80156109565780601f1061092b57610100808354040283529160200191610956565b820191906000526020600020905b81548152906001019060200180831161093957829003601f168201915b5050505050905090565b600061097461096d6118c0565b84846118c4565b50600192915050565b6009546001600160a01b031681565b6109946118c0565b6001600160a01b03166109a5610e25565b6001600160a01b0316146109d45760405162461bcd60e51b81526004016109cb9061314d565b60405180910390fd5b6001600160a01b0381166109fa5760405162461bcd60e51b81526004016109cb906131df565b601580546001600160a01b0319166001600160a01b0392909216919091179055565b60025490565b6000610a2d82611978565b15610a3a57506064610a71565b6010610a45836116e2565b81548110610a6357634e487b7160e01b600052603260045260246000fd5b906000526020600020015490505b919050565b6000610a8184611996565b610a9d5760405162461bcd60e51b81526004016109cb90612c13565b610aa88484846119d9565b6000610ab26118c0565b90506000610ac0868361159e565b905083811015610ae25760405162461bcd60e51b81526004016109cb90613105565b610af68683610af187856134ff565b6118c4565b50600195945050505050565b610b0a6118c0565b6001600160a01b0316610b1b610e25565b6001600160a01b031614610b415760405162461bcd60e51b81526004016109cb9061314d565b6001600160a01b038116610b675760405162461bcd60e51b81526004016109cb90612db7565b601480546001600160a01b0319166001600160a01b0392909216919091179055565b610b916118c0565b6001600160a01b0316610ba2610e25565b6001600160a01b031614610bc85760405162461bcd60e51b81526004016109cb9061314d565b600755565b600b54600160a01b900460ff1690565b610be56118c0565b6001600160a01b0316610bf6610e25565b6001600160a01b031614610c1c5760405162461bcd60e51b81526004016109cb9061314d565b8051610c2f90600e9060208401906126ab565b5050565b6000610974610c406118c0565b848460016000610c4e6118c0565b6001600160a01b03908116825260208083019390935260409182016000908120918b1681529252902054610af191906134b4565b610c8a6118c0565b6001600160a01b0316610c9b610e25565b6001600160a01b031614610cc15760405162461bcd60e51b81526004016109cb9061314d565b610cc9611b01565b565b610cd58282611b72565b505050565b600554600160a01b900460ff1690565b6000610cf760018361356c565b15610d145760405162461bcd60e51b81526004016109cb90613182565b610d25610d1f610a1c565b8361168b565b92915050565b6015546001600160a01b031681565b6001600160a01b031660009081526020819052604090205490565b610d5d6118c0565b6001600160a01b0316610d6e610e25565b6001600160a01b031614610d945760405162461bcd60e51b81526004016109cb9061314d565b6005546040516000916001600160a01b0316907f8be0079c531659141344cd1fd0a4f28419497f9722a3daafe3b4186f6b6457e0908390a3600580546001600160a01b0319169055565b610de66118c0565b6001600160a01b0316610df7610e25565b6001600160a01b031614610e1d5760405162461bcd60e51b81526004016109cb9061314d565b610cc9612055565b6005546001600160a01b031690565b6016546001600160a01b031681565b610e4b6118c0565b6001600160a01b0316610e5c610e25565b6001600160a01b031614610e825760405162461bcd60e51b81526004016109cb9061314d565b8051610c2f90600f9060208401906126ab565b6060600480546108dd90613516565b610eac6118c0565b6001600160a01b0316610ebd610e25565b6001600160a01b031614610ee35760405162461bcd60e51b81526004016109cb9061314d565b60405163a9059cbb60e01b815282906001600160a01b0382169063a9059cbb90610f139033908690600401612a1f565b602060405180830381600087803b158015610f2d57600080fd5b505af1158015610f41573d6000803e3d6000fd5b505050506040513d601f19601f82011682018060405250810190610f6591906128c2565b50505050565b60008060016000610f7a6118c0565b6001600160a01b0390811682526020808301939093526040918201600090812091881681529252902054905082811015610fc65760405162461bcd60e51b81526004016109cb906133f2565b610fdc610fd16118c0565b85610af186856134ff565b5060019392505050565b610fee6118c0565b6001600160a01b0316610fff610e25565b6001600160a01b0316146110255760405162461bcd60e51b81526004016109cb9061314d565b601654600b5460405163a9059cbb60e01b81526001600160a01b039283169263a9059cbb9261105b929116908590600401612a1f565b602060405180830381600087803b15801561107557600080fd5b505af1158015611089573d6000803e3d6000fd5b505050506040513d601f19601f82011682018060405250810190610c2f91906128c2565b60006110b833611996565b6110d45760405162461bcd60e51b81526004016109cb90612ff4565b6001600160a01b0383166000908152600c602052604090204390556109746110fa6118c0565b84846119d9565b60135490565b61110f6118c0565b6001600160a01b0316611120610e25565b6001600160a01b0316146111465760405162461bcd60e51b81526004016109cb9061314d565b60145460155460095460405163e8eda9df60e01b81526001600160a01b039384169363e8eda9df936111879390821692879290911690600090600401612a5b565b600060405180830381600087803b1580156111a157600080fd5b505af11580156111b5573d6000803e3d6000fd5b505050507fe4b07db4e98b8c4d7db7898ec0ca1004b8d388810ececa888262a4e5886027a9816040516111e8919061346e565b60405180910390a150565b6111fb6118c0565b6001600160a01b031661120c610e25565b6001600160a01b0316146112325760405162461bcd60e51b81526004016109cb9061314d565b8051610c2f9060109060208401906126ab565b610c2f8133611b72565b6112576118c0565b6001600160a01b0316611268610e25565b6001600160a01b03161461128e5760405162461bcd60e51b81526004016109cb9061314d565b6001600160a01b0381166112b45760405162461bcd60e51b81526004016109cb90612f97565b601680546001600160a01b0319166001600160a01b0392909216919091179055565b60006112e360018361356c565b156113005760405162461bcd60e51b81526004016109cb90613182565b610d2561130b610a1c565b836115c9565b610c2f81336120b6565b6113236118c0565b6001600160a01b0316611334610e25565b6001600160a01b03161461135a5760405162461bcd60e51b81526004016109cb9061314d565b6001600160a01b03919091166000908152600d60205260409020805460ff1916911515919091179055565b61138d6118c0565b6001600160a01b031661139e610e25565b6001600160a01b0316146113c45760405162461bcd60e51b81526004016109cb9061314d565b6001600160a01b0381166113ea5760405162461bcd60e51b81526004016109cb90612bb6565b600a80546001600160a01b0319166001600160a01b0392909216919091179055565b6114146118c0565b6001600160a01b0316611425610e25565b6001600160a01b03161461144b5760405162461bcd60e51b81526004016109cb9061314d565b601255565b6114586118c0565b6001600160a01b0316611469610e25565b6001600160a01b03161461148f5760405162461bcd60e51b81526004016109cb9061314d565b60155460145460405163095ea7b360e01b81526001600160a01b039283169263095ea7b39261105b929116908590600401612a1f565b6000601254600f6114d5846116e2565b815481106114f357634e487b7160e01b600052603260045260246000fd5b9060005260206000200154610d2591906134e0565b6115106118c0565b6001600160a01b0316611521610e25565b6001600160a01b0316146115475760405162461bcd60e51b81526004016109cb9061314d565b6001600160a01b03811661156d5760405162461bcd60e51b81526004016109cb9061309a565b600b80546001600160a01b0319166001600160a01b0392909216919091179055565b6014546001600160a01b031681565b6001600160a01b03918216600090815260016020908152604080832093909416825291909152205490565b600080831180156115da5750600082115b80156115e65750818310155b6116025760405162461bcd60e51b81526004016109cb90613306565b600061160e83856134ff565b9050600061161c85806134e0565b9050600061162a83806134e0565b9050600061163882846134ff565b905060006006548261164a91906134e0565b905060006007548261165c91906134cc565b9050612710600061166d828461356c565b9050600061167b82856134ff565b9c9b505050505050505050505050565b60008082116116ac5760405162461bcd60e51b81526004016109cb90612d70565b60006116b884806134e0565b905060006116c684866134b4565b905060006116d482806134e0565b9050600061163884836134ff565b6000806116ee83610d3a565b905060005b81600e6117018360016134b4565b8154811061171f57634e487b7160e01b600052603260045260246000fd5b906000526020600020015411611755576107d0821061174357600592505050610a71565b8061174d81613551565b9150506116f3565b9392505050565b6001600160a01b0381166000908152600c60205260408120548190819061178390436134ff565b90506000611790856114c5565b91935090915050915091565b6117a46118c0565b6001600160a01b03166117b5610e25565b6001600160a01b0316146117db5760405162461bcd60e51b81526004016109cb9061314d565b6001600160a01b0381166118015760405162461bcd60e51b81526004016109cb90612c7d565b6005546040516001600160a01b038084169216907f8be0079c531659141344cd1fd0a4f28419497f9722a3daafe3b4186f6b6457e090600090a3600580546001600160a01b0319166001600160a01b0392909216919091179055565b60006118676118c0565b6001600160a01b0316611878610e25565b6001600160a01b03161461189e5760405162461bcd60e51b81526004016109cb9061314d565b6118b16118a9610a1c565b610806610a1c565b905090565b610cd582826120b6565b3390565b6001600160a01b0383166118ea5760405162461bcd60e51b81526004016109cb906132c2565b6001600160a01b0382166119105760405162461bcd60e51b81526004016109cb90612cc3565b6001600160a01b0380841660008181526001602090815260408083209487168084529490915290819020849055517f8c5be1e5ebec7d5bd14f71427d1e84f3dd0314c0f7b2291e5b200ac8c7c3b9259061196b90859061346e565b60405180910390a3505050565b6001600160a01b03166000908152600d602052604090205460ff1690565b6001600160a01b0381166000908152600c602052604081205481906119bb90436134ff565b90506011548111801561175557506119d2836114c5565b1092915050565b6001600160a01b0383166119ff5760405162461bcd60e51b81526004016109cb9061327d565b6001600160a01b038216611a255760405162461bcd60e51b81526004016109cb90612aa6565b611a30838383610cd5565b6001600160a01b03831660009081526020819052604090205481811015611a695760405162461bcd60e51b81526004016109cb90612e15565b611a7382826134ff565b6001600160a01b038086166000908152602081905260408082209390935590851681529081208054849290611aa99084906134b4565b92505081905550826001600160a01b0316846001600160a01b03167fddf252ad1be2c89b69c2b068fc378daa952ba7f163c4a11628f55a4df523b3ef84604051611af3919061346e565b60405180910390a350505050565b611b09610cda565b611b255760405162461bcd60e51b81526004016109cb90612b46565b6005805460ff60a01b191690557f5db9ee0a495bf2e6ff9c91a7834c1ba4fdd244a5e8aa4e537bd38aeae4b073aa611b5b6118c0565b604051611b68919061299c565b60405180910390a1565b6000611b7c610cda565b15611b995760405162461bcd60e51b81526004016109cb90612f6d565b60026008541415611bbc5760405162461bcd60e51b81526004016109cb90613353565b6002600855611bcc60018461356c565b15611be95760405162461bcd60e51b81526004016109cb90613182565b6000611bf484610cea565b90506000611c0133610a22565b611c0c9060646134ff565b905060006064806013548486611c2291906134e0565b611c2c91906134e0565b611c3691906134cc565b611c4091906134cc565b90506000611c506127108361356c565b90506000611c5e82846134ff565b90506000611c6c82876134b4565b6015546040516370a0823160e01b81529192506000916001600160a01b03909116906370a0823190611ca290339060040161299c565b60206040518083038186803b158015611cba57600080fd5b505afa158015611cce573d6000803e3d6000fd5b505050506040513d601f19601f82011682018060405250810190611cf291906128f6565b601554600954604051636eb1769f60e11b81529293506000926001600160a01b039283169263dd62ed3e92611d2f923392909116906004016129b0565b60206040518083038186803b158015611d4757600080fd5b505afa158015611d5b573d6000803e3d6000fd5b505050506040513d601f19601f82011682018060405250810190611d7f91906128f6565b905081831115611da15760405162461bcd60e51b81526004016109cb90613051565b80831115611dc15760405162461bcd60e51b81526004016109cb9061338a565b624c4b40881015611de45760405162461bcd60e51b81526004016109cb90612ae9565b601554600a546040516323b872dd60e01b81526001600160a01b03928316926323b872dd92611e1d9233929091169089906004016129ca565b602060405180830381600087803b158015611e3757600080fd5b505af1158015611e4b573d6000803e3d6000fd5b505050506040513d601f19601f82011682018060405250810190611e6f91906128c2565b506015546009546040516323b872dd60e01b81526001600160a01b03928316926323b872dd92611ea9923392909116908d906004016129ca565b602060405180830381600087803b158015611ec357600080fd5b505af1158015611ed7573d6000803e3d6000fd5b505050506040513d601f19601f82011682018060405250810190611efb91906128c2565b50611f058861148f565b601554600954601454604051636eb1769f60e11b81526000936001600160a01b039081169363dd62ed3e93611f42939183169216906004016129b0565b60206040518083038186803b158015611f5a57600080fd5b505afa158015611f6e573d6000803e3d6000fd5b505050506040513d601f19601f82011682018060405250810190611f9291906128f6565b9050611fd3816040518060400160405280602081526020017f424e4a2c204c656e64696e67506f6f6c416c6c6f77616e6365696e36646563208152506123ba565b611fdc89611146565b6001600160a01b038b166000908152600c602052604090204390556120018b8d6123ff565b7f2a29d10d168703b19f822172b08b94bdc5193ee2506230339b28146638a7c5d5338c8e8c896040516120389594939291906129ee565b60405180910390a150506001600855509498975050505050505050565b61205d610cda565b1561207a5760405162461bcd60e51b81526004016109cb90612f6d565b6005805460ff60a01b1916600160a01b1790557f62e78cea01bee320cd4e420270b5ea74000d11b0c9f74754ebdbfc544b05a258611b5b6118c0565b60006120c0610cda565b156120dd5760405162461bcd60e51b81526004016109cb90612f6d565b600260085414156121005760405162461bcd60e51b81526004016109cb90613353565b600260085561211060018461356c565b1561212d5760405162461bcd60e51b81526004016109cb90613182565b61213633611996565b6121525760405162461bcd60e51b81526004016109cb90612eb8565b600061215d33610d3a565b90506000841161217f5760405162461bcd60e51b81526004016109cb90612f22565b8381101561219f5760405162461bcd60e51b81526004016109cb90612d05565b60006121aa856112d6565b9050624c4b408110156121cf5760405162461bcd60e51b81526004016109cb90612e5b565b60006121da33610a22565b6121e59060646134ff565b9050600060648060135484866121fb91906134e0565b61220591906134e0565b61220f91906134cc565b61221991906134cc565b905060006122296127108361356c565b9050600061223782846134ff565b9050600061224582876134ff565b9050612251338b6124bf565b7f8f3ef77da1b7bb3fb2726fcd8c9c15e0788c5e0ce3b5322441e4422879acbf5e338a8c89866040516122889594939291906129ee565b60405180910390a1612299866125a5565b601554600a5460405163a9059cbb60e01b81526001600160a01b039283169263a9059cbb926122cf929116908690600401612a1f565b602060405180830381600087803b1580156122e957600080fd5b505af11580156122fd573d6000803e3d6000fd5b505050506040513d601f19601f8201168201806040525081019061232191906128c2565b5060155460405163a9059cbb60e01b81526001600160a01b039091169063a9059cbb90612354908c908590600401612a1f565b602060405180830381600087803b15801561236e57600080fd5b505af1158015612382573d6000803e3d6000fd5b505050506040513d601f19601f820116820180604052508101906123a691906128c2565b505060016008555092979650505050505050565b610c2f82826040516024016123d0929190613477565b60408051601f198184030181529190526020810180516001600160e01b0316630fa3f34560e01b17905261268a565b6001600160a01b0382166124255760405162461bcd60e51b81526004016109cb90613437565b61243160008383610cd5565b806002600082825461244391906134b4565b90915550506001600160a01b038216600090815260208190526040812080548392906124709084906134b4565b90915550506040516001600160a01b038316906000907fddf252ad1be2c89b69c2b068fc378daa952ba7f163c4a11628f55a4df523b3ef906124b390859061346e565b60405180910390a35050565b6001600160a01b0382166124e55760405162461bcd60e51b81526004016109cb9061323c565b6124f182600083610cd5565b6001600160a01b0382166000908152602081905260409020548181101561252a5760405162461bcd60e51b81526004016109cb90612b74565b61253482826134ff565b6001600160a01b038416600090815260208190526040812091909155600280548492906125629084906134ff565b90915550506040516000906001600160a01b038516907fddf252ad1be2c89b69c2b068fc378daa952ba7f163c4a11628f55a4df523b3ef9061196b90869061346e565b6125ad610cda565b156125ca5760405162461bcd60e51b81526004016109cb90612f6d565b601454601554600954604051631a4ca37b60e21b81526001600160a01b03938416936369328dec936126089390821692879290911690600401612a38565b602060405180830381600087803b15801561262257600080fd5b505af1158015612636573d6000803e3d6000fd5b505050506040513d601f19601f8201168201806040525081019061265a91906128f6565b507fcf262399c7d7a6ef0283fba5e04858a528d91a896dc7bc72fa3e55fbfee77deb816040516111e8919061346e565b80516a636f6e736f6c652e6c6f67602083016000808483855afa5050505050565b8280548282559060005260206000209081019282156126e6579160200282015b828111156126e65782518255916020019190600101906126cb565b506126f29291506126f6565b5090565b5b808211156126f257600081556001016126f7565b80356001600160a01b0381168114610a7157600080fd5b600060208284031215612733578081fd5b6117558261270b565b6000806040838503121561274e578081fd5b6127578361270b565b91506127656020840161270b565b90509250929050565b600080600060608486031215612782578081fd5b61278b8461270b565b92506127996020850161270b565b9150604084013590509250925092565b600080604083850312156127bb578182fd5b6127c48361270b565b915060208301356127d4816135c2565b809150509250929050565b600080604083850312156127f1578182fd5b6127fa8361270b565b946020939093013593505050565b6000602080838503121561281a578182fd5b823567ffffffffffffffff80821115612831578384fd5b818501915085601f830112612844578384fd5b813581811115612856576128566135ac565b83810260405185828201018181108582111715612875576128756135ac565b604052828152858101935084860182860187018a1015612893578788fd5b8795505b838610156128b5578035855260019590950194938601938601612897565b5098975050505050505050565b6000602082840312156128d3578081fd5b8151611755816135c2565b6000602082840312156128ef578081fd5b5035919050565b600060208284031215612907578081fd5b5051919050565b60008060408385031215612920578182fd5b823591506127656020840161270b565b60008060408385031215612942578182fd5b50508035926020909101359150565b60008151808452815b818110156129765760208185018101518683018201520161295a565b818111156129875782602083870101525b50601f01601f19169290920160200192915050565b6001600160a01b0391909116815260200190565b6001600160a01b0392831681529116602082015260400190565b6001600160a01b039384168152919092166020820152604081019190915260600190565b6001600160a01b03958616815293909416602084015260408301919091526060820152608081019190915260a00190565b6001600160a01b03929092168252602082015260400190565b6001600160a01b0393841681526020810192909252909116604082015260600190565b6001600160a01b03948516815260208101939093529216604082015261ffff909116606082015260800190565b901515815260200190565b6000602082526117556020830184612951565b60208082526023908201527f45524332303a207472616e7366657220746f20746865207a65726f206164647260408201526265737360e81b606082015260800190565b6020808252603a908201527f424e4a2c20737065636966696564416d6f756e744d696e743a204d696e696d7560408201527f6d206d696e74696e672076616c7565206f662024352055534443000000000000606082015260800190565b60208082526014908201527314185d5cd8589b194e881b9bdd081c185d5cd95960621b604082015260600190565b60208082526022908201527f45524332303a206275726e20616d6f756e7420657863656564732062616c616e604082015261636560f01b606082015260800190565b6020808252603d908201527f424e4a2c2075706461746546656552656365697665723a206e6577416464726560408201527f73732063616e6e6f7420626520746865207a65726f2061646472657373000000606082015260800190565b60208082526044908201527f424e4a2c207472616e7366657246726f6d3a20706179696e674164647265737360408201527f206973206e6f742079657420616c6c6f77656420746f2077697468647261772f606082015263313ab93760e11b608082015260a00190565b60208082526026908201527f4f776e61626c653a206e6577206f776e657220697320746865207a65726f206160408201526564647265737360d01b606082015260800190565b60208082526022908201527f45524332303a20617070726f766520746f20746865207a65726f206164647265604082015261737360f01b606082015260800190565b60208082526045908201527f424e4a2c20557365727320746f6b656e42616c616e6365206d7573742062652060408201527f657175616c20746f206f72206d6f7265207468616e20616d6f756e7420746f20606082015264313ab9371760d91b608082015260a00190565b60208082526027908201527f424e4a4943757276653a204d757374206d696e74206d6f7265207468616e203060408201526620746f6b656e7360c81b606082015260800190565b602080825260409082018190527f75706461746520506f6c79676f6e4c656e64696e67506f6f6c3a206e65774164908201527f64726573732063616e6e6f7420626520746865207a65726f2061646472657373606082015260800190565b60208082526026908201527f45524332303a207472616e7366657220616d6f756e7420657863656564732062604082015265616c616e636560d01b606082015260800190565b6020808252603a908201527f424e4a2c20737065636966696564416d6f756e744275726e3a204d696e696d7560408201527f6d206275726e696e672076616c75652069732024352055534443000000000000606082015260800190565b60208082526044908201527f424e4a2c20737065636966696564416d6f756e744275726e3a2073656e64657260408201527f206973206e6f742079657420616c6c6f77656420746f2077697468647261772f606082015263313ab93760e11b608082015260a00190565b6020808252602b908201527f424e4a2c20416d6f756e7420746f206275726e206d757374206265206d6f726560408201526a103a3430b7103d32b9379760a91b606082015260800190565b60208082526010908201526f14185d5cd8589b194e881c185d5cd95960821b604082015260600190565b6020808252603f908201527f424e4a2c20757064617465506f6c79676f6e414d555344433a206e657741646460408201527f726573732063616e6e6f7420626520746865207a65726f206164647265737300606082015260800190565b60208082526039908201527f424e4a2c207472616e736665723a2073656e646572206973206e6f742079657460408201527f20616c6c6f77656420746f2077697468647261772f6275726e00000000000000606082015260800190565b60208082526029908201527f424e4a2c20737065636966696564416d6f756e744d696e743a204e6f7420656e6040820152686f756768205553444360b81b606082015260800190565b60208082526045908201527f424e4a2c20757064617465416363756d756c6174656452656365697665723a2060408201527f6e6577416464726573732063616e6e6f7420626520746865207a65726f206164606082015264647265737360d81b608082015260a00190565b60208082526028908201527f45524332303a207472616e7366657220616d6f756e74206578636565647320616040820152676c6c6f77616e636560c01b606082015260800190565b6020808252818101527f4f776e61626c653a2063616c6c6572206973206e6f7420746865206f776e6572604082015260600190565b6020808252603a908201527f424e4a3a20616d6f756e74206d75737420626520646976697369626c6520627960408201527f20312c20424e4a49732068617665203020646563696d616c732e000000000000606082015260800190565b6020808252603d908201527f424e4a2c20757064617465506f6c79676f6e555344433a206e6577416464726560408201527f73732063616e6e6f7420626520746865207a65726f2061646472657373000000606082015260800190565b60208082526021908201527f45524332303a206275726e2066726f6d20746865207a65726f206164647265736040820152607360f81b606082015260800190565b60208082526025908201527f45524332303a207472616e736665722066726f6d20746865207a65726f206164604082015264647265737360d81b606082015260800190565b60208082526024908201527f45524332303a20617070726f76652066726f6d20746865207a65726f206164646040820152637265737360e01b606082015260800190565b6020808252602d908201527f424e4a4943757276653a2053656e64696e672061726773206d7573742062652060408201526c06c6172676572207468616e203609c1b606082015260800190565b6020808252601f908201527f5265656e7472616e637947756172643a207265656e7472616e742063616c6c00604082015260600190565b60208082526042908201527f424e4a2c20737065636966696564416d6f756e744d696e743a204e6f7420656e60408201527f6f75676820616c6c6f77616e636520696e205553444320666f72207061796d656060820152611b9d60f21b608082015260a00190565b60208082526025908201527f45524332303a2064656372656173656420616c6c6f77616e63652062656c6f77604082015264207a65726f60d81b606082015260800190565b6020808252601f908201527f45524332303a206d696e7420746f20746865207a65726f206164647265737300604082015260600190565b90815260200190565b6000838252604060208301526134906040830184612951565b949350505050565b918252602082015260400190565b60ff91909116815260200190565b600082198211156134c7576134c7613580565b500190565b6000826134db576134db613596565b500490565b60008160001904831182151516156134fa576134fa613580565b500290565b60008282101561351157613511613580565b500390565b60028104600182168061352a57607f821691505b6020821081141561354b57634e487b7160e01b600052602260045260246000fd5b50919050565b600060001982141561356557613565613580565b5060010190565b60008261357b5761357b613596565b500690565b634e487b7160e01b600052601160045260246000fd5b634e487b7160e01b600052601260045260246000fd5b634e487b7160e01b600052604160045260246000fd5b80151581146135d057600080fd5b5056fea26469706673582212205a6e5b60a37454efe57cfa15fbd7af5d3da2bc1b51fbe8a84793f3a0133de97564736f6c63430008000033",
  "linkReferences": {},
  "deployedLinkReferences": {}
}