{
  "_format": "hh-sol-artifact-1",
  "contractName": "BNJICurve",
  "sourceName": "contracts/BNJICurve.sol",
  "abi": [
    {
      "anonymous": false,
      "inputs": [
        {
          "indexed": true,
          "internalType": "address",
          "name": "previousOwner",
          "type": "address"
        },
        {
          "indexed": true,
          "internalType": "address",
          "name": "newOwner",
          "type": "address"
        }
      ],
      "name": "OwnershipTransferred",
      "type": "event"
    },
    {
      "anonymous": false,
      "inputs": [
        {
          "indexed": false,
          "internalType": "address",
          "name": "account",
          "type": "address"
        }
      ],
      "name": "Paused",
      "type": "event"
    },
    {
      "anonymous": false,
      "inputs": [
        {
          "indexed": false,
          "internalType": "address",
          "name": "account",
          "type": "address"
        }
      ],
      "name": "Unpaused",
      "type": "event"
    },
    {
      "inputs": [
        {
          "internalType": "uint256",
          "name": "supply",
          "type": "uint256"
        },
        {
          "internalType": "uint256",
          "name": "tokensToMint",
          "type": "uint256"
        }
      ],
      "name": "calcPriceForTokenMint",
      "outputs": [
        {
          "internalType": "uint256",
          "name": "",
          "type": "uint256"
        }
      ],
      "stateMutability": "view",
      "type": "function"
    },
    {
      "inputs": [
        {
          "internalType": "uint256",
          "name": "supply",
          "type": "uint256"
        },
        {
          "internalType": "uint256",
          "name": "tokensToBurn",
          "type": "uint256"
        }
      ],
      "name": "calcReturnForTokenBurn",
      "outputs": [
        {
          "internalType": "uint256",
          "name": "",
          "type": "uint256"
        }
      ],
      "stateMutability": "view",
      "type": "function"
    },
    {
      "inputs": [],
      "name": "owner",
      "outputs": [
        {
          "internalType": "address",
          "name": "",
          "type": "address"
        }
      ],
      "stateMutability": "view",
      "type": "function"
    },
    {
      "inputs": [],
      "name": "pause",
      "outputs": [],
      "stateMutability": "nonpayable",
      "type": "function"
    },
    {
      "inputs": [],
      "name": "paused",
      "outputs": [
        {
          "internalType": "bool",
          "name": "",
          "type": "bool"
        }
      ],
      "stateMutability": "view",
      "type": "function"
    },
    {
      "inputs": [],
      "name": "renounceOwnership",
      "outputs": [],
      "stateMutability": "nonpayable",
      "type": "function"
    },
    {
      "inputs": [
        {
          "internalType": "address",
          "name": "newOwner",
          "type": "address"
        }
      ],
      "name": "transferOwnership",
      "outputs": [],
      "stateMutability": "nonpayable",
      "type": "function"
    },
    {
      "inputs": [],
      "name": "unpause",
      "outputs": [],
      "stateMutability": "nonpayable",
      "type": "function"
    },
    {
      "inputs": [
        {
          "internalType": "uint256",
          "name": "newCurveFactor",
          "type": "uint256"
        }
      ],
      "name": "updateCurveFactor",
      "outputs": [],
      "stateMutability": "nonpayable",
      "type": "function"
    },
    {
      "inputs": [
        {
          "internalType": "address",
          "name": "ERC20ContractAddress",
          "type": "address"
        },
        {
          "internalType": "uint256",
          "name": "amount",
          "type": "uint256"
        }
      ],
      "name": "withdrawERC20",
      "outputs": [],
      "stateMutability": "nonpayable",
      "type": "function"
    }
  ],
  "bytecode": "0x6080604052620f4240600155620c350060025534801561001e57600080fd5b506000610029610085565b600080546001600160a01b0319166001600160a01b0383169081178255604051929350917f8be0079c531659141344cd1fd0a4f28419497f9722a3daafe3b4186f6b6457e0908290a3506000805460ff60a01b19169055610089565b3390565b610996806100986000396000f3fe608060405234801561001057600080fd5b506004361061009e5760003560e01c80638da5cb5b116100665780638da5cb5b146100ee578063a1db978214610103578063e4bbe7eb14610116578063e8e6f9ad14610136578063f2fde38b146101495761009e565b80632853c2f7146100a35780633f4ba83a146100b85780635c975abb146100c0578063715018a6146100de5780638456cb59146100e6575b600080fd5b6100b66100b13660046106dd565b61015c565b005b6100b66101a9565b6100c86101f2565b6040516100d59190610743565b60405180910390f35b6100b6610202565b6100b661028b565b6100f66102d2565b6040516100d59190610716565b6100b6610111366004610694565b6102e1565b6101296101243660046106f5565b6103a8565b6040516100d591906108b5565b6101296101443660046106f5565b61046a565b6100b6610157366004610673565b6104c1565b610164610581565b6001600160a01b03166101756102d2565b6001600160a01b0316146101a45760405162461bcd60e51b815260040161019b90610833565b60405180910390fd5b600255565b6101b1610581565b6001600160a01b03166101c26102d2565b6001600160a01b0316146101e85760405162461bcd60e51b815260040161019b90610833565b6101f0610585565b565b600054600160a01b900460ff1690565b61020a610581565b6001600160a01b031661021b6102d2565b6001600160a01b0316146102415760405162461bcd60e51b815260040161019b90610833565b600080546040516001600160a01b03909116907f8be0079c531659141344cd1fd0a4f28419497f9722a3daafe3b4186f6b6457e0908390a3600080546001600160a01b0319169055565b610293610581565b6001600160a01b03166102a46102d2565b6001600160a01b0316146102ca5760405162461bcd60e51b815260040161019b90610833565b6101f06105f6565b6000546001600160a01b031690565b6102e9610581565b6001600160a01b03166102fa6102d2565b6001600160a01b0316146103205760405162461bcd60e51b815260040161019b90610833565b60405163a9059cbb60e01b815282906001600160a01b0382169063a9059cbb90610350903390869060040161072a565b602060405180830381600087803b15801561036a57600080fd5b505af115801561037e573d6000803e3d6000fd5b505050506040513d601f19601f820116820180604052508101906103a291906106bd565b50505050565b600080831180156103b95750600082115b80156103c55750818310155b6103e15760405162461bcd60e51b815260040161019b90610868565b60006103ed8385610909565b905060006103fb85806108ea565b9050600061040983806108ea565b905060006104178284610909565b905060006001548261042991906108ea565b905060006002548261043b91906108d6565b9050612710600061044c8284610920565b9050600061045a8285610909565b9c9b505050505050505050505050565b600080821161048b5760405162461bcd60e51b815260040161019b906107c2565b600061049784806108ea565b905060006104a584866108be565b905060006104b382806108ea565b905060006104178483610909565b6104c9610581565b6001600160a01b03166104da6102d2565b6001600160a01b0316146105005760405162461bcd60e51b815260040161019b90610833565b6001600160a01b0381166105265760405162461bcd60e51b815260040161019b9061077c565b600080546040516001600160a01b03808516939216917f8be0079c531659141344cd1fd0a4f28419497f9722a3daafe3b4186f6b6457e091a3600080546001600160a01b0319166001600160a01b0392909216919091179055565b3390565b61058d6101f2565b6105a95760405162461bcd60e51b815260040161019b9061074e565b6000805460ff60a01b191690557f5db9ee0a495bf2e6ff9c91a7834c1ba4fdd244a5e8aa4e537bd38aeae4b073aa6105df610581565b6040516105ec9190610716565b60405180910390a1565b6105fe6101f2565b1561061b5760405162461bcd60e51b815260040161019b90610809565b6000805460ff60a01b1916600160a01b1790557f62e78cea01bee320cd4e420270b5ea74000d11b0c9f74754ebdbfc544b05a2586105df610581565b80356001600160a01b038116811461066e57600080fd5b919050565b600060208284031215610684578081fd5b61068d82610657565b9392505050565b600080604083850312156106a6578081fd5b6106af83610657565b946020939093013593505050565b6000602082840312156106ce578081fd5b8151801515811461068d578182fd5b6000602082840312156106ee578081fd5b5035919050565b60008060408385031215610707578182fd5b50508035926020909101359150565b6001600160a01b0391909116815260200190565b6001600160a01b03929092168252602082015260400190565b901515815260200190565b60208082526014908201527314185d5cd8589b194e881b9bdd081c185d5cd95960621b604082015260600190565b60208082526026908201527f4f776e61626c653a206e6577206f776e657220697320746865207a65726f206160408201526564647265737360d01b606082015260800190565b60208082526027908201527f424e4a4943757276653a204d757374206d696e74206d6f7265207468616e203060408201526620746f6b656e7360c81b606082015260800190565b60208082526010908201526f14185d5cd8589b194e881c185d5cd95960821b604082015260600190565b6020808252818101527f4f776e61626c653a2063616c6c6572206973206e6f7420746865206f776e6572604082015260600190565b6020808252602d908201527f424e4a4943757276653a2053656e64696e672061726773206d7573742062652060408201526c06c6172676572207468616e203609c1b606082015260800190565b90815260200190565b600082198211156108d1576108d1610934565b500190565b6000826108e5576108e561094a565b500490565b600081600019048311821515161561090457610904610934565b500290565b60008282101561091b5761091b610934565b500390565b60008261092f5761092f61094a565b500690565b634e487b7160e01b600052601160045260246000fd5b634e487b7160e01b600052601260045260246000fdfea26469706673582212207cca3f0f2e5b3096db6bd81a8f796a787032d50109ae039fb1458c4382407ab864736f6c63430008000033",
  "linkReferences": {},
  "deployedLinkReferences": {}
}