{
  "_format": "hh-sol-artifact-1",
  "contractName": "PolygonSimContract",
  "sourceName": "contracts/PolygonSimContract.sol",
  "abi": [
    {
      "inputs": [],
      "stateMutability": "nonpayable",
      "type": "constructor"
    },
    {
      "anonymous": false,
      "inputs": [
        {
          "indexed": true,
          "internalType": "address",
          "name": "owner",
          "type": "address"
        },
        {
          "indexed": true,
          "internalType": "address",
          "name": "spender",
          "type": "address"
        },
        {
          "indexed": false,
          "internalType": "uint256",
          "name": "value",
          "type": "uint256"
        }
      ],
      "name": "Approval",
      "type": "event"
    },
    {
      "anonymous": false,
      "inputs": [
        {
          "indexed": true,
          "internalType": "address",
          "name": "from",
          "type": "address"
        },
        {
          "indexed": true,
          "internalType": "address",
          "name": "to",
          "type": "address"
        },
        {
          "indexed": false,
          "internalType": "uint256",
          "name": "value",
          "type": "uint256"
        }
      ],
      "name": "Transfer",
      "type": "event"
    },
    {
      "inputs": [
        {
          "internalType": "address",
          "name": "owner",
          "type": "address"
        },
        {
          "internalType": "address",
          "name": "spender",
          "type": "address"
        }
      ],
      "name": "allowance",
      "outputs": [
        {
          "internalType": "uint256",
          "name": "",
          "type": "uint256"
        }
      ],
      "stateMutability": "view",
      "type": "function"
    },
    {
      "inputs": [
        {
          "internalType": "address",
          "name": "spender",
          "type": "address"
        },
        {
          "internalType": "uint256",
          "name": "amount",
          "type": "uint256"
        }
      ],
      "name": "approve",
      "outputs": [
        {
          "internalType": "bool",
          "name": "",
          "type": "bool"
        }
      ],
      "stateMutability": "nonpayable",
      "type": "function"
    },
    {
      "inputs": [
        {
          "internalType": "address",
          "name": "account",
          "type": "address"
        }
      ],
      "name": "balanceOf",
      "outputs": [
        {
          "internalType": "uint256",
          "name": "",
          "type": "uint256"
        }
      ],
      "stateMutability": "view",
      "type": "function"
    },
    {
      "inputs": [
        {
          "internalType": "uint256",
          "name": "amountOfLevels",
          "type": "uint256"
        }
      ],
      "name": "buyLevels",
      "outputs": [],
      "stateMutability": "nonpayable",
      "type": "function"
    },
    {
      "inputs": [
        {
          "internalType": "address",
          "name": "userToCheck",
          "type": "address"
        }
      ],
      "name": "checkAccountsBalance",
      "outputs": [
        {
          "internalType": "uint256",
          "name": "balance",
          "type": "uint256"
        }
      ],
      "stateMutability": "view",
      "type": "function"
    },
    {
      "inputs": [
        {
          "internalType": "address",
          "name": "userToCheck",
          "type": "address"
        }
      ],
      "name": "checkAccountsFeeModifier",
      "outputs": [
        {
          "internalType": "uint256",
          "name": "feeModifier",
          "type": "uint256"
        }
      ],
      "stateMutability": "view",
      "type": "function"
    },
    {
      "inputs": [],
      "name": "decimals",
      "outputs": [
        {
          "internalType": "uint8",
          "name": "",
          "type": "uint8"
        }
      ],
      "stateMutability": "view",
      "type": "function"
    },
    {
      "inputs": [
        {
          "internalType": "address",
          "name": "spender",
          "type": "address"
        },
        {
          "internalType": "uint256",
          "name": "subtractedValue",
          "type": "uint256"
        }
      ],
      "name": "decreaseAllowance",
      "outputs": [
        {
          "internalType": "bool",
          "name": "",
          "type": "bool"
        }
      ],
      "stateMutability": "nonpayable",
      "type": "function"
    },
    {
      "inputs": [
        {
          "internalType": "address",
          "name": "spender",
          "type": "address"
        },
        {
          "internalType": "uint256",
          "name": "addedValue",
          "type": "uint256"
        }
      ],
      "name": "increaseAllowance",
      "outputs": [
        {
          "internalType": "bool",
          "name": "",
          "type": "bool"
        }
      ],
      "stateMutability": "nonpayable",
      "type": "function"
    },
    {
      "inputs": [],
      "name": "name",
      "outputs": [
        {
          "internalType": "string",
          "name": "",
          "type": "string"
        }
      ],
      "stateMutability": "view",
      "type": "function"
    },
    {
      "inputs": [
        {
          "internalType": "uint256",
          "name": "amountOfLevels",
          "type": "uint256"
        }
      ],
      "name": "sellLevels",
      "outputs": [],
      "stateMutability": "nonpayable",
      "type": "function"
    },
    {
      "inputs": [],
      "name": "symbol",
      "outputs": [
        {
          "internalType": "string",
          "name": "",
          "type": "string"
        }
      ],
      "stateMutability": "view",
      "type": "function"
    },
    {
      "inputs": [],
      "name": "totalSupply",
      "outputs": [
        {
          "internalType": "uint256",
          "name": "",
          "type": "uint256"
        }
      ],
      "stateMutability": "view",
      "type": "function"
    },
    {
      "inputs": [
        {
          "internalType": "address",
          "name": "recipient",
          "type": "address"
        },
        {
          "internalType": "uint256",
          "name": "amount",
          "type": "uint256"
        }
      ],
      "name": "transfer",
      "outputs": [
        {
          "internalType": "bool",
          "name": "",
          "type": "bool"
        }
      ],
      "stateMutability": "nonpayable",
      "type": "function"
    },
    {
      "inputs": [
        {
          "internalType": "address",
          "name": "sender",
          "type": "address"
        },
        {
          "internalType": "address",
          "name": "recipient",
          "type": "address"
        },
        {
          "internalType": "uint256",
          "name": "amount",
          "type": "uint256"
        }
      ],
      "name": "transferFrom",
      "outputs": [
        {
          "internalType": "bool",
          "name": "",
          "type": "bool"
        }
      ],
      "stateMutability": "nonpayable",
      "type": "function"
    }
  ],
  "bytecode": "0x60806040523480156200001157600080fd5b50604080518082018252600981526853696d546f6b656e7360b81b60208083019182528351808501909452600484526314d2535560e21b9084015281519192916200005f916003916200007e565b508051620000759060049060208401906200007e565b50505062000161565b8280546200008c9062000124565b90600052602060002090601f016020900481019282620000b05760008555620000fb565b82601f10620000cb57805160ff1916838001178555620000fb565b82800160010185558215620000fb579182015b82811115620000fb578251825591602001919060010190620000de565b50620001099291506200010d565b5090565b5b808211156200010957600081556001016200010e565b6002810460018216806200013957607f821691505b602082108114156200015b57634e487b7160e01b600052602260045260246000fd5b50919050565b610ea880620001716000396000f3fe608060405234801561001057600080fd5b50600436106100f55760003560e01c80636d47c62a11610097578063a457c2d711610066578063a457c2d7146101de578063a9059cbb146101f1578063bc04071a14610204578063dd62ed3e14610217576100f5565b80636d47c62a1461019d57806370a08231146101b0578063851955d0146101c357806395d89b41146101d6576100f5565b806323b872dd116100d357806323b872dd1461014d578063313ce5671461016057806339509351146101755780634137129414610188576100f5565b806306fdde03146100fa578063095ea7b31461011857806318160ddd14610138575b600080fd5b61010261022a565b60405161010f9190610ad4565b60405180910390f35b61012b610126366004610a88565b6102bc565b60405161010f9190610ac9565b6101406102d9565b60405161010f9190610dc2565b61012b61015b366004610a4d565b6102df565b61016861037f565b60405161010f9190610dcb565b61012b610183366004610a88565b610384565b61019b610196366004610ab1565b6103d3565b005b6101406101ab3660046109fa565b610438565b6101406101be3660046109fa565b6104fd565b61019b6101d1366004610ab1565b610518565b610102610574565b61012b6101ec366004610a88565b610583565b61012b6101ff366004610a88565b6105fe565b6101406102123660046109fa565b610612565b610140610225366004610a1b565b61062d565b60606003805461023990610e27565b80601f016020809104026020016040519081016040528092919081815260200182805461026590610e27565b80156102b25780601f10610287576101008083540402835291602001916102b2565b820191906000526020600020905b81548152906001019060200180831161029557829003601f168201915b5050505050905090565b60006102d06102c9610658565b848461065c565b50600192915050565b60025490565b60006102ec848484610710565b6001600160a01b03841660009081526001602052604081208161030d610658565b6001600160a01b03166001600160a01b03168152602001908152602001600020549050828110156103595760405162461bcd60e51b815260040161035090610c34565b60405180910390fd5b61037485610365610658565b61036f8685610e10565b61065c565b506001949350505050565b601290565b60006102d0610391610658565b84846001600061039f610658565b6001600160a01b03908116825260208083019390935260409182016000908120918b168152925290205461036f9190610dd9565b60006103e0826014610df1565b90506103ec3082610838565b336000908152600660205260408120805483929061040b908490610dd9565b9091555050336000908152600560205260408120805484929061042f908490610dd9565b90915550505050565b6001600160a01b03811660009081526006602052604081205460148110156104645760649150506104f8565b601481101580156104755750602881105b1561048457605f9150506104f8565b602881101580156104955750603c81105b156104a45760559150506104f8565b603c81101580156104b55750605081105b156104c45760469150506104f8565b605081101580156104d55750606481105b156104e45760329150506104f8565b606481106104f65760199150506104f8565b505b919050565b6001600160a01b031660009081526020819052604090205490565b6000610525826014610df1565b905061053130826108f8565b3360009081526006602052604081208054839290610550908490610e10565b9091555050336000908152600560205260408120805484929061042f908490610e10565b60606004805461023990610e27565b60008060016000610592610658565b6001600160a01b03908116825260208083019390935260409182016000908120918816815292529020549050828110156105de5760405162461bcd60e51b815260040161035090610d46565b6105f46105e9610658565b8561036f8685610e10565b5060019392505050565b60006102d061060b610658565b8484610710565b6001600160a01b031660009081526006602052604090205490565b6001600160a01b03918216600090815260016020908152604080832093909416825291909152205490565b3390565b6001600160a01b0383166106825760405162461bcd60e51b815260040161035090610d02565b6001600160a01b0382166106a85760405162461bcd60e51b815260040161035090610bac565b6001600160a01b0380841660008181526001602090815260408083209487168084529490915290819020849055517f8c5be1e5ebec7d5bd14f71427d1e84f3dd0314c0f7b2291e5b200ac8c7c3b92590610703908590610dc2565b60405180910390a3505050565b6001600160a01b0383166107365760405162461bcd60e51b815260040161035090610cbd565b6001600160a01b03821661075c5760405162461bcd60e51b815260040161035090610b27565b6107678383836109de565b6001600160a01b038316600090815260208190526040902054818110156107a05760405162461bcd60e51b815260040161035090610bee565b6107aa8282610e10565b6001600160a01b0380861660009081526020819052604080822093909355908516815290812080548492906107e0908490610dd9565b92505081905550826001600160a01b0316846001600160a01b03167fddf252ad1be2c89b69c2b068fc378daa952ba7f163c4a11628f55a4df523b3ef8460405161082a9190610dc2565b60405180910390a350505050565b6001600160a01b03821661085e5760405162461bcd60e51b815260040161035090610d8b565b61086a600083836109de565b806002600082825461087c9190610dd9565b90915550506001600160a01b038216600090815260208190526040812080548392906108a9908490610dd9565b90915550506040516001600160a01b038316906000907fddf252ad1be2c89b69c2b068fc378daa952ba7f163c4a11628f55a4df523b3ef906108ec908590610dc2565b60405180910390a35050565b6001600160a01b03821661091e5760405162461bcd60e51b815260040161035090610c7c565b61092a826000836109de565b6001600160a01b038216600090815260208190526040902054818110156109635760405162461bcd60e51b815260040161035090610b6a565b61096d8282610e10565b6001600160a01b0384166000908152602081905260408120919091556002805484929061099b908490610e10565b90915550506040516000906001600160a01b038516907fddf252ad1be2c89b69c2b068fc378daa952ba7f163c4a11628f55a4df523b3ef90610703908690610dc2565b505050565b80356001600160a01b03811681146104f857600080fd5b600060208284031215610a0b578081fd5b610a14826109e3565b9392505050565b60008060408385031215610a2d578081fd5b610a36836109e3565b9150610a44602084016109e3565b90509250929050565b600080600060608486031215610a61578081fd5b610a6a846109e3565b9250610a78602085016109e3565b9150604084013590509250925092565b60008060408385031215610a9a578182fd5b610aa3836109e3565b946020939093013593505050565b600060208284031215610ac2578081fd5b5035919050565b901515815260200190565b6000602080835283518082850152825b81811015610b0057858101830151858201604001528201610ae4565b81811115610b115783604083870101525b50601f01601f1916929092016040019392505050565b60208082526023908201527f45524332303a207472616e7366657220746f20746865207a65726f206164647260408201526265737360e81b606082015260800190565b60208082526022908201527f45524332303a206275726e20616d6f756e7420657863656564732062616c616e604082015261636560f01b606082015260800190565b60208082526022908201527f45524332303a20617070726f766520746f20746865207a65726f206164647265604082015261737360f01b606082015260800190565b60208082526026908201527f45524332303a207472616e7366657220616d6f756e7420657863656564732062604082015265616c616e636560d01b606082015260800190565b60208082526028908201527f45524332303a207472616e7366657220616d6f756e74206578636565647320616040820152676c6c6f77616e636560c01b606082015260800190565b60208082526021908201527f45524332303a206275726e2066726f6d20746865207a65726f206164647265736040820152607360f81b606082015260800190565b60208082526025908201527f45524332303a207472616e736665722066726f6d20746865207a65726f206164604082015264647265737360d81b606082015260800190565b60208082526024908201527f45524332303a20617070726f76652066726f6d20746865207a65726f206164646040820152637265737360e01b606082015260800190565b60208082526025908201527f45524332303a2064656372656173656420616c6c6f77616e63652062656c6f77604082015264207a65726f60d81b606082015260800190565b6020808252601f908201527f45524332303a206d696e7420746f20746865207a65726f206164647265737300604082015260600190565b90815260200190565b60ff91909116815260200190565b60008219821115610dec57610dec610e5c565b500190565b6000816000190483118215151615610e0b57610e0b610e5c565b500290565b600082821015610e2257610e22610e5c565b500390565b600281046001821680610e3b57607f821691505b602082108114156104f657634e487b7160e01b600052602260045260246000fd5b634e487b7160e01b600052601160045260246000fdfea2646970667358221220b1994106c50ec941807c68a79438a35f4976752974c4926ef31cf861a6bd685864736f6c63430008000033",
  "linkReferences": {},
  "deployedLinkReferences": {}
}