{
  "address": "0xF21b17AF6121E9c2A94691737BB6982882A144B6",
  "abi": [
    {
      "inputs": [
        {
          "internalType": "address",
          "name": "feeReceiverAddress",
          "type": "address"
        }
      ],
      "stateMutability": "nonpayable",
      "type": "constructor"
    },
    {
      "anonymous": false,
      "inputs": [
        {
          "indexed": true,
          "internalType": "address",
          "name": "owner",
          "type": "address"
        },
        {
          "indexed": true,
          "internalType": "address",
          "name": "spender",
          "type": "address"
        },
        {
          "indexed": false,
          "internalType": "uint256",
          "name": "value",
          "type": "uint256"
        }
      ],
      "name": "Approval",
      "type": "event"
    },
    {
      "anonymous": false,
      "inputs": [
        {
          "indexed": false,
          "internalType": "uint256",
          "name": "amount",
          "type": "uint256"
        }
      ],
      "name": "LendingPoolDeposit",
      "type": "event"
    },
    {
      "anonymous": false,
      "inputs": [
        {
          "indexed": false,
          "internalType": "uint256",
          "name": "amount",
          "type": "uint256"
        }
      ],
      "name": "LendingPoolWithdrawal",
      "type": "event"
    },
    {
      "anonymous": false,
      "inputs": [
        {
          "indexed": true,
          "internalType": "address",
          "name": "previousOwner",
          "type": "address"
        },
        {
          "indexed": true,
          "internalType": "address",
          "name": "newOwner",
          "type": "address"
        }
      ],
      "name": "OwnershipTransferred",
      "type": "event"
    },
    {
      "anonymous": false,
      "inputs": [
        {
          "indexed": false,
          "internalType": "address",
          "name": "account",
          "type": "address"
        }
      ],
      "name": "Paused",
      "type": "event"
    },
    {
      "anonymous": false,
      "inputs": [
        {
          "indexed": false,
          "internalType": "address",
          "name": "sender",
          "type": "address"
        },
        {
          "indexed": false,
          "internalType": "uint256",
          "name": "tokenAmount",
          "type": "uint256"
        },
        {
          "indexed": false,
          "internalType": "uint256",
          "name": "returnForBurning",
          "type": "uint256"
        }
      ],
      "name": "SpecifiedBurnEvent",
      "type": "event"
    },
    {
      "anonymous": false,
      "inputs": [
        {
          "indexed": false,
          "internalType": "address",
          "name": "sender",
          "type": "address"
        },
        {
          "indexed": false,
          "internalType": "uint256",
          "name": "tokenAmount",
          "type": "uint256"
        },
        {
          "indexed": false,
          "internalType": "uint256",
          "name": "priceForMintingIn6dec",
          "type": "uint256"
        }
      ],
      "name": "SpecifiedMintEvent",
      "type": "event"
    },
    {
      "anonymous": false,
      "inputs": [
        {
          "indexed": true,
          "internalType": "address",
          "name": "from",
          "type": "address"
        },
        {
          "indexed": true,
          "internalType": "address",
          "name": "to",
          "type": "address"
        },
        {
          "indexed": false,
          "internalType": "uint256",
          "name": "value",
          "type": "uint256"
        }
      ],
      "name": "Transfer",
      "type": "event"
    },
    {
      "anonymous": false,
      "inputs": [
        {
          "indexed": false,
          "internalType": "address",
          "name": "account",
          "type": "address"
        }
      ],
      "name": "Unpaused",
      "type": "event"
    },
    {
      "inputs": [],
      "name": "addressOfThisContract",
      "outputs": [
        {
          "internalType": "address",
          "name": "",
          "type": "address"
        }
      ],
      "stateMutability": "view",
      "type": "function"
    },
    {
      "inputs": [
        {
          "internalType": "address",
          "name": "owner",
          "type": "address"
        },
        {
          "internalType": "address",
          "name": "spender",
          "type": "address"
        }
      ],
      "name": "allowance",
      "outputs": [
        {
          "internalType": "uint256",
          "name": "",
          "type": "uint256"
        }
      ],
      "stateMutability": "view",
      "type": "function"
    },
    {
      "inputs": [
        {
          "internalType": "address",
          "name": "spender",
          "type": "address"
        },
        {
          "internalType": "uint256",
          "name": "amount",
          "type": "uint256"
        }
      ],
      "name": "approve",
      "outputs": [
        {
          "internalType": "bool",
          "name": "",
          "type": "bool"
        }
      ],
      "stateMutability": "nonpayable",
      "type": "function"
    },
    {
      "inputs": [
        {
          "internalType": "uint256",
          "name": "amountToApprove",
          "type": "uint256"
        }
      ],
      "name": "approveLendingPool",
      "outputs": [],
      "stateMutability": "nonpayable",
      "type": "function"
    },
    {
      "inputs": [
        {
          "internalType": "address",
          "name": "account",
          "type": "address"
        }
      ],
      "name": "balanceOf",
      "outputs": [
        {
          "internalType": "uint256",
          "name": "",
          "type": "uint256"
        }
      ],
      "stateMutability": "view",
      "type": "function"
    },
    {
      "inputs": [
        {
          "internalType": "uint256",
          "name": "amountOfLevels",
          "type": "uint256"
        }
      ],
      "name": "buyLevels",
      "outputs": [],
      "stateMutability": "nonpayable",
      "type": "function"
    },
    {
      "inputs": [],
      "name": "calcAccumulated",
      "outputs": [
        {
          "internalType": "uint256",
          "name": "accumulatedAmount",
          "type": "uint256"
        }
      ],
      "stateMutability": "view",
      "type": "function"
    },
    {
      "inputs": [],
      "name": "calcAllTokensValue",
      "outputs": [
        {
          "internalType": "uint256",
          "name": "allTokensReturn",
          "type": "uint256"
        }
      ],
      "stateMutability": "view",
      "type": "function"
    },
    {
      "inputs": [
        {
          "internalType": "uint256",
          "name": "supply",
          "type": "uint256"
        },
        {
          "internalType": "uint256",
          "name": "tokensToMint",
          "type": "uint256"
        }
      ],
      "name": "calcPriceForTokenMint",
      "outputs": [
        {
          "internalType": "uint256",
          "name": "",
          "type": "uint256"
        }
      ],
      "stateMutability": "view",
      "type": "function"
    },
    {
      "inputs": [
        {
          "internalType": "uint256",
          "name": "supply",
          "type": "uint256"
        },
        {
          "internalType": "uint256",
          "name": "tokensToBurn",
          "type": "uint256"
        }
      ],
      "name": "calcReturnForTokenBurn",
      "outputs": [
        {
          "internalType": "uint256",
          "name": "",
          "type": "uint256"
        }
      ],
      "stateMutability": "view",
      "type": "function"
    },
    {
      "inputs": [
        {
          "internalType": "uint256",
          "name": "amount",
          "type": "uint256"
        }
      ],
      "name": "calcSpecBurnReturn",
      "outputs": [
        {
          "internalType": "uint256",
          "name": "burnReturn",
          "type": "uint256"
        }
      ],
      "stateMutability": "view",
      "type": "function"
    },
    {
      "inputs": [
        {
          "internalType": "uint256",
          "name": "amount",
          "type": "uint256"
        }
      ],
      "name": "calcSpecMintReturn",
      "outputs": [
        {
          "internalType": "uint256",
          "name": "mintPrice",
          "type": "uint256"
        }
      ],
      "stateMutability": "view",
      "type": "function"
    },
    {
      "inputs": [
        {
          "internalType": "address",
          "name": "userToCheck",
          "type": "address"
        }
      ],
      "name": "checkStakedBenjamins",
      "outputs": [
        {
          "internalType": "uint256",
          "name": "usersStakedBNJIs",
          "type": "uint256"
        }
      ],
      "stateMutability": "view",
      "type": "function"
    },
    {
      "inputs": [],
      "name": "decimals",
      "outputs": [
        {
          "internalType": "uint8",
          "name": "",
          "type": "uint8"
        }
      ],
      "stateMutability": "view",
      "type": "function"
    },
    {
      "inputs": [
        {
          "internalType": "address",
          "name": "spender",
          "type": "address"
        },
        {
          "internalType": "uint256",
          "name": "subtractedValue",
          "type": "uint256"
        }
      ],
      "name": "decreaseAllowance",
      "outputs": [
        {
          "internalType": "bool",
          "name": "",
          "type": "bool"
        }
      ],
      "stateMutability": "nonpayable",
      "type": "function"
    },
    {
      "inputs": [
        {
          "internalType": "uint256",
          "name": "amount",
          "type": "uint256"
        }
      ],
      "name": "depositUSDCBuffer",
      "outputs": [],
      "stateMutability": "nonpayable",
      "type": "function"
    },
    {
      "inputs": [
        {
          "internalType": "address",
          "name": "userToCheck",
          "type": "address"
        }
      ],
      "name": "getInternalActiveStakes",
      "outputs": [
        {
          "components": [
            {
              "internalType": "address",
              "name": "stakingAddress",
              "type": "address"
            },
            {
              "internalType": "uint256",
              "name": "stakeID",
              "type": "uint256"
            },
            {
              "internalType": "uint256",
              "name": "tokenAmount",
              "type": "uint256"
            },
            {
              "internalType": "uint256",
              "name": "stakeCreatedTimestamp",
              "type": "uint256"
            },
            {
              "internalType": "bool",
              "name": "unstaked",
              "type": "bool"
            }
          ],
          "internalType": "struct MumbaiBenjamins.Stake[]",
          "name": "stakeArray",
          "type": "tuple[]"
        }
      ],
      "stateMutability": "view",
      "type": "function"
    },
    {
      "inputs": [
        {
          "internalType": "address",
          "name": "userToCheck",
          "type": "address"
        }
      ],
      "name": "getUsersActiveAndBurnableStakes",
      "outputs": [
        {
          "components": [
            {
              "internalType": "address",
              "name": "stakingAddress",
              "type": "address"
            },
            {
              "internalType": "uint256",
              "name": "stakeID",
              "type": "uint256"
            },
            {
              "internalType": "uint256",
              "name": "tokenAmount",
              "type": "uint256"
            },
            {
              "internalType": "uint256",
              "name": "stakeCreatedTimestamp",
              "type": "uint256"
            },
            {
              "internalType": "bool",
              "name": "unstaked",
              "type": "bool"
            }
          ],
          "internalType": "struct MumbaiBenjamins.Stake[]",
          "name": "stakeArray",
          "type": "tuple[]"
        }
      ],
      "stateMutability": "view",
      "type": "function"
    },
    {
      "inputs": [
        {
          "internalType": "address",
          "name": "spender",
          "type": "address"
        },
        {
          "internalType": "uint256",
          "name": "addedValue",
          "type": "uint256"
        }
      ],
      "name": "increaseAllowance",
      "outputs": [
        {
          "internalType": "bool",
          "name": "",
          "type": "bool"
        }
      ],
      "stateMutability": "nonpayable",
      "type": "function"
    },
    {
      "inputs": [
        {
          "internalType": "uint256",
          "name": "amount",
          "type": "uint256"
        }
      ],
      "name": "internalBurn",
      "outputs": [
        {
          "internalType": "uint256",
          "name": "",
          "type": "uint256"
        }
      ],
      "stateMutability": "nonpayable",
      "type": "function"
    },
    {
      "inputs": [
        {
          "internalType": "uint256",
          "name": "amount",
          "type": "uint256"
        },
        {
          "internalType": "address",
          "name": "holderOfInternalMint",
          "type": "address"
        }
      ],
      "name": "internalMint",
      "outputs": [
        {
          "internalType": "uint256",
          "name": "",
          "type": "uint256"
        }
      ],
      "stateMutability": "nonpayable",
      "type": "function"
    },
    {
      "inputs": [],
      "name": "name",
      "outputs": [
        {
          "internalType": "string",
          "name": "",
          "type": "string"
        }
      ],
      "stateMutability": "view",
      "type": "function"
    },
    {
      "inputs": [],
      "name": "owner",
      "outputs": [
        {
          "internalType": "address",
          "name": "",
          "type": "address"
        }
      ],
      "stateMutability": "view",
      "type": "function"
    },
    {
      "inputs": [],
      "name": "pause",
      "outputs": [],
      "stateMutability": "nonpayable",
      "type": "function"
    },
    {
      "inputs": [],
      "name": "paused",
      "outputs": [
        {
          "internalType": "bool",
          "name": "",
          "type": "bool"
        }
      ],
      "stateMutability": "view",
      "type": "function"
    },
    {
      "inputs": [],
      "name": "polygonAMUSDC",
      "outputs": [
        {
          "internalType": "contract IERC20",
          "name": "",
          "type": "address"
        }
      ],
      "stateMutability": "view",
      "type": "function"
    },
    {
      "inputs": [],
      "name": "polygonLendingPool",
      "outputs": [
        {
          "internalType": "contract ILendingPool",
          "name": "",
          "type": "address"
        }
      ],
      "stateMutability": "view",
      "type": "function"
    },
    {
      "inputs": [],
      "name": "polygonUSDC",
      "outputs": [
        {
          "internalType": "contract IERC20",
          "name": "",
          "type": "address"
        }
      ],
      "stateMutability": "view",
      "type": "function"
    },
    {
      "inputs": [],
      "name": "renounceOwnership",
      "outputs": [],
      "stateMutability": "nonpayable",
      "type": "function"
    },
    {
      "inputs": [
        {
          "internalType": "uint256",
          "name": "amountOfLevels",
          "type": "uint256"
        }
      ],
      "name": "sellLevels",
      "outputs": [],
      "stateMutability": "nonpayable",
      "type": "function"
    },
    {
      "inputs": [
        {
          "internalType": "address",
          "name": "userToCheck",
          "type": "address"
        }
      ],
      "name": "showAllUsersStakes",
      "outputs": [
        {
          "components": [
            {
              "internalType": "address",
              "name": "stakingAddress",
              "type": "address"
            },
            {
              "internalType": "uint256",
              "name": "stakeID",
              "type": "uint256"
            },
            {
              "internalType": "uint256",
              "name": "tokenAmount",
              "type": "uint256"
            },
            {
              "internalType": "uint256",
              "name": "stakeCreatedTimestamp",
              "type": "uint256"
            },
            {
              "internalType": "bool",
              "name": "unstaked",
              "type": "bool"
            }
          ],
          "internalType": "struct MumbaiBenjamins.Stake[]",
          "name": "stakeArray",
          "type": "tuple[]"
        }
      ],
      "stateMutability": "view",
      "type": "function"
    },
    {
      "inputs": [],
      "name": "showInternalAddresses",
      "outputs": [
        {
          "internalType": "address[]",
          "name": "",
          "type": "address[]"
        }
      ],
      "stateMutability": "view",
      "type": "function"
    },
    {
      "inputs": [
        {
          "internalType": "address",
          "name": "userToCheck",
          "type": "address"
        }
      ],
      "name": "showInternalBenjamins",
      "outputs": [
        {
          "internalType": "uint256",
          "name": "",
          "type": "uint256"
        }
      ],
      "stateMutability": "view",
      "type": "function"
    },
    {
      "inputs": [],
      "name": "showStakersAddresses",
      "outputs": [
        {
          "internalType": "address[]",
          "name": "",
          "type": "address[]"
        }
      ],
      "stateMutability": "view",
      "type": "function"
    },
    {
      "inputs": [],
      "name": "symbol",
      "outputs": [
        {
          "internalType": "string",
          "name": "",
          "type": "string"
        }
      ],
      "stateMutability": "view",
      "type": "function"
    },
    {
      "inputs": [],
      "name": "totalSupply",
      "outputs": [
        {
          "internalType": "uint256",
          "name": "",
          "type": "uint256"
        }
      ],
      "stateMutability": "view",
      "type": "function"
    },
    {
      "inputs": [
        {
          "internalType": "address",
          "name": "recipient",
          "type": "address"
        },
        {
          "internalType": "uint256",
          "name": "amount",
          "type": "uint256"
        }
      ],
      "name": "transfer",
      "outputs": [
        {
          "internalType": "bool",
          "name": "",
          "type": "bool"
        }
      ],
      "stateMutability": "nonpayable",
      "type": "function"
    },
    {
      "inputs": [
        {
          "internalType": "address",
          "name": "sender",
          "type": "address"
        },
        {
          "internalType": "address",
          "name": "recipient",
          "type": "address"
        },
        {
          "internalType": "uint256",
          "name": "amount",
          "type": "uint256"
        }
      ],
      "name": "transferFrom",
      "outputs": [
        {
          "internalType": "bool",
          "name": "",
          "type": "bool"
        }
      ],
      "stateMutability": "nonpayable",
      "type": "function"
    },
    {
      "inputs": [
        {
          "internalType": "address",
          "name": "newOwner",
          "type": "address"
        }
      ],
      "name": "transferOwnership",
      "outputs": [],
      "stateMutability": "nonpayable",
      "type": "function"
    },
    {
      "inputs": [],
      "name": "unpause",
      "outputs": [],
      "stateMutability": "nonpayable",
      "type": "function"
    },
    {
      "inputs": [
        {
          "internalType": "address",
          "name": "newAddress",
          "type": "address"
        }
      ],
      "name": "updateAccumulatedReceiver",
      "outputs": [],
      "stateMutability": "nonpayable",
      "type": "function"
    },
    {
      "inputs": [
        {
          "internalType": "uint256",
          "name": "newCurveFactor",
          "type": "uint256"
        }
      ],
      "name": "updateCurveFactor",
      "outputs": [],
      "stateMutability": "nonpayable",
      "type": "function"
    },
    {
      "inputs": [
        {
          "internalType": "address",
          "name": "newAddress",
          "type": "address"
        }
      ],
      "name": "updateFeeReceiver",
      "outputs": [],
      "stateMutability": "nonpayable",
      "type": "function"
    },
    {
      "inputs": [
        {
          "internalType": "address",
          "name": "newAddress",
          "type": "address"
        }
      ],
      "name": "updatePolygonAMUSDCC",
      "outputs": [],
      "stateMutability": "nonpayable",
      "type": "function"
    },
    {
      "inputs": [
        {
          "internalType": "address",
          "name": "newAddress",
          "type": "address"
        }
      ],
      "name": "updatePolygonLendingPool",
      "outputs": [],
      "stateMutability": "nonpayable",
      "type": "function"
    },
    {
      "inputs": [
        {
          "internalType": "address",
          "name": "newAddress",
          "type": "address"
        }
      ],
      "name": "updatePolygonUSDC",
      "outputs": [],
      "stateMutability": "nonpayable",
      "type": "function"
    },
    {
      "inputs": [
        {
          "internalType": "uint256",
          "name": "newstakingPeriodInSeconds",
          "type": "uint256"
        }
      ],
      "name": "updateStakingPeriodInSeconds",
      "outputs": [],
      "stateMutability": "nonpayable",
      "type": "function"
    },
    {
      "inputs": [
        {
          "internalType": "uint256",
          "name": "newtier0feeMod",
          "type": "uint256"
        }
      ],
      "name": "updateTier0feeMod",
      "outputs": [],
      "stateMutability": "nonpayable",
      "type": "function"
    },
    {
      "inputs": [
        {
          "internalType": "uint256",
          "name": "newtier1feeMod",
          "type": "uint256"
        }
      ],
      "name": "updateTier1feeMod",
      "outputs": [],
      "stateMutability": "nonpayable",
      "type": "function"
    },
    {
      "inputs": [
        {
          "internalType": "uint256",
          "name": "newtier2feeMod",
          "type": "uint256"
        }
      ],
      "name": "updateTier2feeMod",
      "outputs": [],
      "stateMutability": "nonpayable",
      "type": "function"
    },
    {
      "inputs": [
        {
          "internalType": "uint256",
          "name": "newtier3feeMod",
          "type": "uint256"
        }
      ],
      "name": "updateTier3feeMod",
      "outputs": [],
      "stateMutability": "nonpayable",
      "type": "function"
    },
    {
      "inputs": [
        {
          "internalType": "uint256",
          "name": "newtier4feeMod",
          "type": "uint256"
        }
      ],
      "name": "updateTier4feeMod",
      "outputs": [],
      "stateMutability": "nonpayable",
      "type": "function"
    },
    {
      "inputs": [
        {
          "internalType": "uint256",
          "name": "newtier4feeMod",
          "type": "uint256"
        }
      ],
      "name": "updateTier5feeMod",
      "outputs": [],
      "stateMutability": "nonpayable",
      "type": "function"
    },
    {
      "inputs": [
        {
          "internalType": "uint256",
          "name": "amount",
          "type": "uint256"
        }
      ],
      "name": "withdrawAccumulated",
      "outputs": [],
      "stateMutability": "nonpayable",
      "type": "function"
    },
    {
      "inputs": [
        {
          "internalType": "address",
          "name": "ERC20ContractAddress",
          "type": "address"
        },
        {
          "internalType": "uint256",
          "name": "amount",
          "type": "uint256"
        }
      ],
      "name": "withdrawERC20",
      "outputs": [],
      "stateMutability": "nonpayable",
      "type": "function"
    },
    {
      "stateMutability": "payable",
      "type": "receive"
    }
  ],
  "transactionHash": "0x50356a2c16093963d11599d20ad94d42a15a701c057979b6e11857036db0da33",
  "args": [
    "0xE51c8401fe1E70f78BBD3AC660692597D33dbaFF"
  ],
  "solcInputHash": "d72730316dfde7752ecc55663e6f2d28",
  "bytecode": "0x6080604052620f4240600655620c3500600755600019601655612710601755620f424060185560016019556064601a55605f601b556055601c556046601d556032601e556019601f553480156200005557600080fd5b506040516200514d3803806200514d833981016040819052620000789162000483565b604080518082018252600f81526e4d756d62616942656e6a616d696e7360881b60208083019182528351808501909452600784526626bab6a132b73560c91b908401528151919291620000ce91600391620003dd565b508051620000e4906004906020840190620003dd565b5050506000620000f96200020660201b60201c565b600580546001600160a01b0319166001600160a01b038316908117909155604051919250906000907f8be0079c531659141344cd1fd0a4f28419497f9722a3daafe3b4186f6b6457e0908290a3506005805460ff60a01b191690556001600855600980546001600160a01b03199081163017909155600a80546001600160a01b0384169083161790556015805460ff19169055602180548216732058a9d7613eee744279e3856ef0eada5fcbaa7e179055602280548216732271e3fef9e15046d09e1d78a8ff038c691e9cf917905560208054909116739198f13b08e299d85e096929fa9781a1e3d5d827179055601654620001f5906200020a565b620001ff620002eb565b506200059e565b3390565b6200021462000206565b6001600160a01b0316620002276200033d565b6001600160a01b031614620002595760405162461bcd60e51b815260040162000250906200052c565b60405180910390fd5b60215460205460405163095ea7b360e01b81526001600160a01b039283169263095ea7b39262000291929116908590600401620004e9565b602060405180830381600087803b158015620002ac57600080fd5b505af1158015620002c1573d6000803e3d6000fd5b505050506040513d601f19601f82011682018060405250810190620002e79190620004b3565b5050565b620002f562000206565b6001600160a01b0316620003086200033d565b6001600160a01b031614620003315760405162461bcd60e51b815260040162000250906200052c565b6200033b6200034c565b565b6005546001600160a01b031690565b62000356620003cd565b15620003765760405162461bcd60e51b8152600401620002509062000502565b6005805460ff60a01b1916600160a01b1790557f62e78cea01bee320cd4e420270b5ea74000d11b0c9f74754ebdbfc544b05a258620003b462000206565b604051620003c39190620004d5565b60405180910390a1565b600554600160a01b900460ff1690565b828054620003eb9062000561565b90600052602060002090601f0160209004810192826200040f57600085556200045a565b82601f106200042a57805160ff19168380011785556200045a565b828001600101855582156200045a579182015b828111156200045a5782518255916020019190600101906200043d565b50620004689291506200046c565b5090565b5b808211156200046857600081556001016200046d565b60006020828403121562000495578081fd5b81516001600160a01b0381168114620004ac578182fd5b9392505050565b600060208284031215620004c5578081fd5b81518015158114620004ac578182fd5b6001600160a01b0391909116815260200190565b6001600160a01b03929092168252602082015260400190565b60208082526010908201526f14185d5cd8589b194e881c185d5cd95960821b604082015260600190565b6020808252818101527f4f776e61626c653a2063616c6c6572206973206e6f7420746865206f776e6572604082015260600190565b6002810460018216806200057657607f821691505b602082108114156200059857634e487b7160e01b600052602260045260246000fd5b50919050565b614b9f80620005ae6000396000f3fe6080604052600436106103545760003560e01c8063851955d0116101c6578063bcde5a1a116100f7578063dd62ed3e11610095578063e4bbe7eb1161006f578063e4bbe7eb14610976578063e8e6f9ad14610996578063f2fde38b146109b6578063f98b242f146109d65761035b565b8063dd62ed3e14610916578063e32cb6d814610936578063e47bb97b146109565761035b565b8063c346e980116100d1578063c346e980146108a1578063c69bebe4146108c1578063cfad0eb6146108e1578063d948e104146109015761035b565b8063bcde5a1a14610841578063bdb21b5814610861578063bfb8ec30146108815761035b565b8063a457c2d711610164578063a9059cbb1161013e578063a9059cbb146107cc578063ab5b8431146107ec578063ad8e763314610801578063b0de3680146108215761035b565b8063a457c2d71461076a578063a6ecdb291461078a578063a7b9c8ae146107ac5761035b565b80638da5cb5b116101a05780638da5cb5b1461070b5780638fb330171461072057806395d89b4114610735578063a1db97821461074a5761035b565b8063851955d0146106ab5780638922bd35146106cb5780638ac69e97146106eb5761035b565b806339509351116102a05780635c975abb1161023e5780636c752974116102185780636c7529741461064c57806370a0823114610661578063715018a6146106815780638456cb59146106965761035b565b80635c975abb146105ea5780635f03e644146105ff57806360bd13291461061f5761035b565b806346c105251161027a57806346c105251461056a5780634cd6dc281461058a5780634f12192c146105aa57806356d2ec1b146105ca5761035b565b806339509351146105155780633f4ba83a14610535578063413712941461054a5761035b565b8063160873151161030d578063257a0050116102e7578063257a00501461049357806326b9dfa4146104b35780632853c2f7146104d3578063313ce567146104f35761035b565b8063160873151461043e57806318160ddd1461045e57806323b872dd146104735761035b565b8063030942321461036057806306fdde031461038257806307b76354146103ad578063095ea7b3146103cf57806310b4afb3146103fc578063126d8c2a1461041e5761035b565b3661035b57005b600080fd5b34801561036c57600080fd5b5061038061037b366004613c45565b6109eb565b005b34801561038e57600080fd5b50610397610a38565b6040516103a49190613e65565b60405180910390f35b3480156103b957600080fd5b506103c2610aca565b6040516103a49190614a60565b3480156103db57600080fd5b506103ef6103ea366004613bfc565b610bd1565b6040516103a49190613e5a565b34801561040857600080fd5b50610411610bee565b6040516103a49190613cb8565b34801561042a57600080fd5b506103c2610439366004613b6e565b610bfd565b34801561044a57600080fd5b50610380610459366004613b6e565b610c5e565b34801561046a57600080fd5b506103c2610ce5565b34801561047f57600080fd5b506103ef61048e366004613bc1565b610ceb565b34801561049f57600080fd5b506103806104ae366004613b6e565b610d82565b3480156104bf57600080fd5b506103806104ce366004613c45565b610e09565b3480156104df57600080fd5b506103806104ee366004613c45565b610e4d565b3480156104ff57600080fd5b50610508610e91565b6040516103a49190614a69565b34801561052157600080fd5b506103ef610530366004613bfc565b610e9a565b34801561054157600080fd5b50610380610ee9565b34801561055657600080fd5b50610380610565366004613c45565b610f32565b34801561057657600080fd5b50610380610585366004613c45565b610f6e565b34801561059657600080fd5b506103c26105a5366004613b6e565b610fb2565b3480156105b657600080fd5b506103806105c5366004613c45565b610fcd565b3480156105d657600080fd5b506103c26105e5366004613c45565b611011565b3480156105f657600080fd5b506103ef611214565b34801561060b57600080fd5b506103c261061a366004613c45565b611224565b34801561062b57600080fd5b5061063f61063a366004613b6e565b61123d565b6040516103a49190613de1565b34801561065857600080fd5b50610411611328565b34801561066d57600080fd5b506103c261067c366004613b6e565b611337565b34801561068d57600080fd5b50610380611352565b3480156106a257600080fd5b506103806113db565b3480156106b757600080fd5b506103806106c6366004613c45565b611422565b3480156106d757600080fd5b506103806106e6366004613c45565b61145a565b3480156106f757600080fd5b50610380610706366004613c45565b611521565b34801561071757600080fd5b50610411611565565b34801561072c57600080fd5b50610411611574565b34801561074157600080fd5b50610397611583565b34801561075657600080fd5b50610380610765366004613bfc565b611592565b34801561077657600080fd5b506103ef610785366004613bfc565b611659565b34801561079657600080fd5b5061079f6116d4565b6040516103a49190613d94565b3480156107b857600080fd5b506103806107c7366004613c45565b611774565b3480156107d857600080fd5b506103ef6107e7366004613bfc565b6117e9565b3480156107f857600080fd5b5061079f6117fd565b34801561080d57600080fd5b5061038061081c366004613b6e565b61189c565b34801561082d57600080fd5b5061038061083c366004613c45565b611923565b34801561084d57600080fd5b5061063f61085c366004613b6e565b611a0f565b34801561086d57600080fd5b5061038061087c366004613c45565b611e59565b34801561088d57600080fd5b5061063f61089c366004613b6e565b611e9d565b3480156108ad57600080fd5b506103c26108bc366004613c45565b6122cf565b3480156108cd57600080fd5b506103806108dc366004613b6e565b6122e2565b3480156108ed57600080fd5b506103806108fc366004613b6e565b612369565b34801561090d57600080fd5b506104116123f0565b34801561092257600080fd5b506103c2610931366004613b8f565b6123ff565b34801561094257600080fd5b506103c2610951366004613c75565b61242a565b34801561096257600080fd5b50610380610971366004613c45565b6127d7565b34801561098257600080fd5b506103c2610991366004613c97565b61281b565b3480156109a257600080fd5b506103c26109b1366004613c97565b6128dc565b3480156109c257600080fd5b506103806109d1366004613b6e565b612957565b3480156109e257600080fd5b506103c2612a18565b6109f3612a71565b6001600160a01b0316610a04611565565b6001600160a01b031614610a335760405162461bcd60e51b8152600401610a2a9061456e565b60405180910390fd5b601b55565b606060038054610a4790614ad9565b80601f0160208091040260200160405190810160405280929190818152602001828054610a7390614ad9565b8015610ac05780601f10610a9557610100808354040283529160200191610ac0565b820191906000526020600020905b815481529060010190602001808311610aa357829003601f168201915b5050505050905090565b6000610ad4612a71565b6001600160a01b0316610ae5611565565b6001600160a01b031614610b0b5760405162461bcd60e51b8152600401610a2a9061456e565b6000610b15612a18565b905060006064610b26836061614aa3565b610b309190614a8f565b6022546009546040516370a0823160e01b81529293506000926001600160a01b03928316926370a0823192610b6a92911690600401613cb8565b60206040518083038186803b158015610b8257600080fd5b505afa158015610b96573d6000803e3d6000fd5b505050506040513d601f19601f82011682018060405250810190610bba9190613c5d565b90506000610bc88284614ac2565b94505050505090565b6000610be5610bde612a71565b8484612a75565b50600192915050565b6009546001600160a01b031681565b6000610c07612a71565b6001600160a01b0316610c18611565565b6001600160a01b031614610c3e5760405162461bcd60e51b8152600401610a2a9061456e565b506001600160a01b0381166000908152600f60205260409020545b919050565b610c66612a71565b6001600160a01b0316610c77611565565b6001600160a01b031614610c9d5760405162461bcd60e51b8152600401610a2a9061456e565b6001600160a01b038116610cc35760405162461bcd60e51b8152600401610a2a906147b9565b602180546001600160a01b0319166001600160a01b0392909216919091179055565b60025490565b6000610cf8848484612b29565b6001600160a01b038416600090815260016020526040812081610d19612a71565b6001600160a01b03166001600160a01b0316815260200190815260200160002054905082811015610d5c5760405162461bcd60e51b8152600401610a2a90614526565b610d7785610d68612a71565b610d728685614ac2565b612a75565b506001949350505050565b610d8a612a71565b6001600160a01b0316610d9b611565565b6001600160a01b031614610dc15760405162461bcd60e51b8152600401610a2a9061456e565b6001600160a01b038116610de75760405162461bcd60e51b8152600401610a2a906143eb565b602080546001600160a01b0319166001600160a01b0392909216919091179055565b610e11612a71565b6001600160a01b0316610e22611565565b6001600160a01b031614610e485760405162461bcd60e51b8152600401610a2a9061456e565b601c55565b610e55612a71565b6001600160a01b0316610e66611565565b6001600160a01b031614610e8c5760405162461bcd60e51b8152600401610a2a9061456e565b600755565b60155460ff1690565b6000610be5610ea7612a71565b848460016000610eb5612a71565b6001600160a01b03908116825260208083019390935260409182016000908120918b1681529252902054610d729190614a77565b610ef1612a71565b6001600160a01b0316610f02611565565b6001600160a01b031614610f285760405162461bcd60e51b8152600401610a2a9061456e565b610f30612c51565b565b610f3a611214565b15610f575760405162461bcd60e51b8152600401610a2a906143c1565b610f6a610f65826014614aa3565b612cc2565b5050565b610f76612a71565b6001600160a01b0316610f87611565565b6001600160a01b031614610fad5760405162461bcd60e51b8152600401610a2a9061456e565b601e55565b6001600160a01b031660009081526010602052604090205490565b610fd5612a71565b6001600160a01b0316610fe6611565565b6001600160a01b03161461100c5760405162461bcd60e51b8152600401610a2a9061456e565b601f55565b600061101b611214565b156110385760405162461bcd60e51b8152600401610a2a906143c1565b6002600854141561105b5760405162461bcd60e51b8152600401610a2a90614811565b600260085561106b601483614b29565b156110885760405162461bcd60e51b8152600401610a2a906145a3565b336000908152600f6020526040902054826110b55760405162461bcd60e51b8152600401610a2a90614a1a565b828110156110d55760405162461bcd60e51b8152600401610a2a90614363565b60006110e0846122cf565b9050624c4b408110156111055760405162461bcd60e51b8152600401610a2a90614448565b336000908152600f602052604081208054869290611124908490614ac2565b909155505060095461113f906001600160a01b0316856130fd565b7fdbba09fffb965fc22fc44dbcfae24c5fa3c095c5e59ad4934a8d71c2980eeda733858360405161117293929190613d73565b60405180910390a1611183816131e3565b60215460405163a9059cbb60e01b81526001600160a01b039091169063a9059cbb906111b59033908590600401613d0a565b602060405180830381600087803b1580156111cf57600080fd5b505af11580156111e3573d6000803e3d6000fd5b505050506040513d601f19601f820116820180604052508101906112079190613c25565b5060016008559392505050565b600554600160a01b900460ff1690565b6000611237611231610ce5565b836128dc565b92915050565b6060611247612a71565b6001600160a01b0316611258611565565b6001600160a01b03161461127e5760405162461bcd60e51b8152600401610a2a9061456e565b6001600160a01b038216600090815260136020908152604080832080548251818502810185019093528083529193909284015b8282101561131d5760008481526020908190206040805160a0810182526005860290920180546001600160a01b0316835260018082015484860152600282015492840192909252600381015460608401526004015460ff161515608083015290835290920191016112b1565b505050509050919050565b6021546001600160a01b031681565b6001600160a01b031660009081526020819052604090205490565b61135a612a71565b6001600160a01b031661136b611565565b6001600160a01b0316146113915760405162461bcd60e51b8152600401610a2a9061456e565b6005546040516000916001600160a01b0316907f8be0079c531659141344cd1fd0a4f28419497f9722a3daafe3b4186f6b6457e0908390a3600580546001600160a01b0319169055565b6113e3612a71565b6001600160a01b03166113f4611565565b6001600160a01b03161461141a5760405162461bcd60e51b8152600401610a2a9061456e565b610f306132c8565b61142a611214565b156114475760405162461bcd60e51b8152600401610a2a906143c1565b610f6a611455826014614aa3565b613329565b611462612a71565b6001600160a01b0316611473611565565b6001600160a01b0316146114995760405162461bcd60e51b8152600401610a2a9061456e565b60215460205460405163095ea7b360e01b81526001600160a01b039283169263095ea7b3926114cf929116908590600401613d0a565b602060405180830381600087803b1580156114e957600080fd5b505af11580156114fd573d6000803e3d6000fd5b505050506040513d601f19601f82011682018060405250810190610f6a9190613c25565b611529612a71565b6001600160a01b031661153a611565565b6001600160a01b0316146115605760405162461bcd60e51b8152600401610a2a9061456e565b601d55565b6005546001600160a01b031690565b6022546001600160a01b031681565b606060048054610a4790614ad9565b61159a612a71565b6001600160a01b03166115ab611565565b6001600160a01b0316146115d15760405162461bcd60e51b8152600401610a2a9061456e565b60405163a9059cbb60e01b815282906001600160a01b0382169063a9059cbb906116019033908690600401613d0a565b602060405180830381600087803b15801561161b57600080fd5b505af115801561162f573d6000803e3d6000fd5b505050506040513d601f19601f820116820180604052508101906116539190613c25565b50505050565b60008060016000611668612a71565b6001600160a01b03908116825260208083019390935260409182016000908120918816815292529020549050828110156116b45760405162461bcd60e51b8152600401610a2a9061499e565b6116ca6116bf612a71565b85610d728685614ac2565b5060019392505050565b60606116de612a71565b6001600160a01b03166116ef611565565b6001600160a01b0316146117155760405162461bcd60e51b8152600401610a2a9061456e565b600c805480602002602001604051908101604052809291908181526020018280548015610ac057602002820191906000526020600020905b81546001600160a01b0316815260019091019060200180831161174d575050505050905090565b61177c612a71565b6001600160a01b031661178d611565565b6001600160a01b0316146117b35760405162461bcd60e51b8152600401610a2a9061456e565b602254600b5460405163a9059cbb60e01b81526001600160a01b039283169263a9059cbb926114cf929116908590600401613d0a565b6000610be56117f6612a71565b8484612b29565b6060611807612a71565b6001600160a01b0316611818611565565b6001600160a01b03161461183e5760405162461bcd60e51b8152600401610a2a9061456e565b600d805480602002602001604051908101604052809291908181526020018280548015610ac0576020028201919060005260206000209081546001600160a01b0316815260019091019060200180831161174d575050505050905090565b6118a4612a71565b6001600160a01b03166118b5611565565b6001600160a01b0316146118db5760405162461bcd60e51b8152600401610a2a9061456e565b6001600160a01b0381166119015760405162461bcd60e51b8152600401610a2a90613f86565b602280546001600160a01b0319166001600160a01b0392909216919091179055565b61192b612a71565b6001600160a01b031661193c611565565b6001600160a01b0316146119625760405162461bcd60e51b8152600401610a2a9061456e565b60205460215460095460405163e8eda9df60e01b81526001600160a01b039384169363e8eda9df936119a39390821692879290911690600090600401613d46565b600060405180830381600087803b1580156119bd57600080fd5b505af11580156119d1573d6000803e3d6000fd5b505050507fe4b07db4e98b8c4d7db7898ec0ca1004b8d388810ececa888262a4e5886027a981604051611a049190614a60565b60405180910390a150565b6001600160a01b0381166000908152601360209081526040808320805482518185028101850190935280835260609442949093849390929091849084015b82821015611ab95760008481526020908190206040805160a0810182526005860290920180546001600160a01b0316835260018082015484860152600282015492840192909252600381015460608401526004015460ff16151560808301529083529092019101611a4d565b50505050905060005b8151811015611b6a576000601954838381518110611af057634e487b7160e01b600052603260045260246000fd5b602002602001015160600151611b069190614a77565b9050828281518110611b2857634e487b7160e01b600052603260045260246000fd5b602090810291909101015160800151158015611b445750848111155b15611b575783611b5381614b0e565b9450505b5080611b6281614b0e565b915050611ac2565b5081611bac576040805160008082526020820190925290611ba1565b611b8e613b1d565b815260200190600190039081611b865790505b509350505050610c59565b60008267ffffffffffffffff811115611bd557634e487b7160e01b600052604160045260246000fd5b604051908082528060200260200182016040528015611c0e57816020015b611bfb613b1d565b815260200190600190039081611bf35790505b5090506000805b8251811015611e4b57838181518110611c3e57634e487b7160e01b600052603260045260246000fd5b602090810291909101015160800151611e3957838281518110611c7157634e487b7160e01b600052603260045260246000fd5b602002602001015160000151838381518110611c9d57634e487b7160e01b600052603260045260246000fd5b60209081029190910101516001600160a01b0390911690528351849083908110611cd757634e487b7160e01b600052603260045260246000fd5b602002602001015160200151838381518110611d0357634e487b7160e01b600052603260045260246000fd5b60200260200101516020018181525050838281518110611d3357634e487b7160e01b600052603260045260246000fd5b602002602001015160400151838381518110611d5f57634e487b7160e01b600052603260045260246000fd5b60200260200101516040018181525050838281518110611d8f57634e487b7160e01b600052603260045260246000fd5b602002602001015160600151838381518110611dbb57634e487b7160e01b600052603260045260246000fd5b60200260200101516060018181525050838281518110611deb57634e487b7160e01b600052603260045260246000fd5b602002602001015160800151838381518110611e1757634e487b7160e01b600052603260045260246000fd5b602090810291909101015190151560809091015281611e3581614b0e565b9250505b80611e4381614b0e565b915050611c15565b508195505050505050610c59565b611e61612a71565b6001600160a01b0316611e72611565565b6001600160a01b031614611e985760405162461bcd60e51b8152600401610a2a9061456e565b601955565b6060611ea7612a71565b6001600160a01b0316611eb8611565565b6001600160a01b031614611ede5760405162461bcd60e51b8152600401610a2a9061456e565b6001600160a01b038216600090815260146020908152604080832080548251818502810185019093528083528493849084015b82821015611f7d5760008481526020908190206040805160a0810182526005860290920180546001600160a01b0316835260018082015484860152600282015492840192909252600381015460608401526004015460ff16151560808301529083529092019101611f11565b50505050905060005b8151811015611fe257818181518110611faf57634e487b7160e01b600052603260045260246000fd5b602090810291909101015160800151611fd05782611fcc81614b0e565b9350505b80611fda81614b0e565b915050611f86565b5081612023576040805160008082526020820190925290612019565b612006613b1d565b815260200190600190039081611ffe5790505b5092505050610c59565b60008267ffffffffffffffff81111561204c57634e487b7160e01b600052604160045260246000fd5b60405190808252806020026020018201604052801561208557816020015b612072613b1d565b81526020019060019003908161206a5790505b5090506000805b82518110156122c2578381815181106120b557634e487b7160e01b600052603260045260246000fd5b6020908102919091010151608001516122b0578382815181106120e857634e487b7160e01b600052603260045260246000fd5b60200260200101516000015183838151811061211457634e487b7160e01b600052603260045260246000fd5b60209081029190910101516001600160a01b039091169052835184908390811061214e57634e487b7160e01b600052603260045260246000fd5b60200260200101516020015183838151811061217a57634e487b7160e01b600052603260045260246000fd5b602002602001015160200181815250508382815181106121aa57634e487b7160e01b600052603260045260246000fd5b6020026020010151604001518383815181106121d657634e487b7160e01b600052603260045260246000fd5b6020026020010151604001818152505083828151811061220657634e487b7160e01b600052603260045260246000fd5b60200260200101516060015183838151811061223257634e487b7160e01b600052603260045260246000fd5b6020026020010151606001818152505083828151811061226257634e487b7160e01b600052603260045260246000fd5b60200260200101516080015183838151811061228e57634e487b7160e01b600052603260045260246000fd5b6020908102919091010151901515608090910152816122ac81614b0e565b9250505b806122ba81614b0e565b91505061208c565b5081945050505050610c59565b60006112376122dc610ce5565b8361281b565b6122ea612a71565b6001600160a01b03166122fb611565565b6001600160a01b0316146123215760405162461bcd60e51b8152600401610a2a9061456e565b6001600160a01b0381166123475760405162461bcd60e51b8152600401610a2a9061489b565b600a80546001600160a01b0319166001600160a01b0392909216919091179055565b612371612a71565b6001600160a01b0316612382611565565b6001600160a01b0316146123a85760405162461bcd60e51b8152600401610a2a9061456e565b6001600160a01b0381166123ce5760405162461bcd60e51b8152600401610a2a906142a8565b600b80546001600160a01b0319166001600160a01b0392909216919091179055565b6020546001600160a01b031681565b6001600160a01b03918216600090815260016020908152604080832093909416825291909152205490565b6000612434612a71565b6001600160a01b0316612445611565565b6001600160a01b03161461246b5760405162461bcd60e51b8152600401610a2a9061456e565b6001600160a01b03821660009081526012602052604090205460ff166124ef57600d805460018082019092557fd7b6990105719101dabeb77144f2a3385c8033acd3af97e9423a695e81ad1eb50180546001600160a01b0319166001600160a01b0385169081179091556000908152601260205260409020805460ff191690911790555b6000831161250f5760405162461bcd60e51b8152600401610a2a906145f4565b61251a601484614b29565b156125375760405162461bcd60e51b8152600401610a2a906141b4565b600061254284611224565b6021546040516370a0823160e01b81529192506000916001600160a01b03909116906370a0823190612578903390600401613cb8565b60206040518083038186803b15801561259057600080fd5b505afa1580156125a4573d6000803e3d6000fd5b505050506040513d601f19601f820116820180604052508101906125c89190613c5d565b602154600954604051636eb1769f60e11b81529293506000926001600160a01b039283169263dd62ed3e9261260592339290911690600401613ccc565b60206040518083038186803b15801561261d57600080fd5b505afa158015612631573d6000803e3d6000fd5b505050506040513d601f19601f820116820180604052508101906126559190613c5d565b9050818311156126775760405162461bcd60e51b8152600401610a2a906144e4565b808311156126975760405162461bcd60e51b8152600401610a2a9061424b565b624c4b408310156126ba5760405162461bcd60e51b8152600401610a2a90614848565b6021546009546040516323b872dd60e01b81526001600160a01b03928316926323b872dd926126f3923392909116908890600401613ce6565b602060405180830381600087803b15801561270d57600080fd5b505af1158015612721573d6000803e3d6000fd5b505050506040513d601f19601f820116820180604052508101906127459190613c25565b5061274f83611962565b600954612765906001600160a01b031687613652565b7f540b5e46f5323b77eef3b40f9b1bdf436e1b79c3984d271ad7a9b1019c295a8f33878560405161279893929190613d73565b60405180910390a16001600160a01b0385166000908152600f6020526040812080548892906127c8908490614a77565b90915550929695505050505050565b6127df612a71565b6001600160a01b03166127f0611565565b6001600160a01b0316146128165760405162461bcd60e51b8152600401610a2a9061456e565b601a55565b6000808311801561282c5750600082115b80156128385750818310155b6128545760405162461bcd60e51b8152600401610a2a9061476c565b60006128608385614ac2565b9050600061286e8580614aa3565b9050600061287c8380614aa3565b9050600061288a8284614ac2565b905060006006548261289c9190614aa3565b905060006128ad620c350083614a8f565b905061271060006128be8284614b29565b905060006128cc8285614ac2565b9c9b505050505050505050505050565b60008082116128fd5760405162461bcd60e51b8152600401610a2a9061416d565b60006129098480614aa3565b905060006129178486614a77565b905060006129258280614aa3565b905060006129338483614ac2565b90506000600654826129459190614aa3565b90506000600754826128ad9190614a8f565b61295f612a71565b6001600160a01b0316612970611565565b6001600160a01b0316146129965760405162461bcd60e51b8152600401610a2a9061456e565b6001600160a01b0381166129bc5760405162461bcd60e51b8152600401610a2a906140a0565b6005546040516001600160a01b038084169216907f8be0079c531659141344cd1fd0a4f28419497f9722a3daafe3b4186f6b6457e090600090a3600580546001600160a01b0319166001600160a01b0392909216919091179055565b6000612a22612a71565b6001600160a01b0316612a33611565565b6001600160a01b031614612a595760405162461bcd60e51b8152600401610a2a9061456e565b612a6c612a64610ce5565b610991610ce5565b905090565b3390565b6001600160a01b038316612a9b5760405162461bcd60e51b8152600401610a2a906146cb565b6001600160a01b038216612ac15760405162461bcd60e51b8152600401610a2a906140e6565b6001600160a01b0380841660008181526001602090815260408083209487168084529490915290819020849055517f8c5be1e5ebec7d5bd14f71427d1e84f3dd0314c0f7b2291e5b200ac8c7c3b92590612b1c908590614a60565b60405180910390a3505050565b6001600160a01b038316612b4f5760405162461bcd60e51b8152600401610a2a90614686565b6001600160a01b038216612b755760405162461bcd60e51b8152600401610a2a90613eb8565b612b80838383613712565b6001600160a01b03831660009081526020819052604090205481811015612bb95760405162461bcd60e51b8152600401610a2a90614205565b612bc38282614ac2565b6001600160a01b038086166000908152602081905260408082209390935590851681529081208054849290612bf9908490614a77565b92505081905550826001600160a01b0316846001600160a01b03167fddf252ad1be2c89b69c2b068fc378daa952ba7f163c4a11628f55a4df523b3ef84604051612c439190614a60565b60405180910390a350505050565b612c59611214565b612c755760405162461bcd60e51b8152600401610a2a90613f58565b6005805460ff60a01b191690557f5db9ee0a495bf2e6ff9c91a7834c1ba4fdd244a5e8aa4e537bd38aeae4b073aa612cab612a71565b604051612cb89190613cb8565b60405180910390a1565b6000612ccc611214565b15612ce95760405162461bcd60e51b8152600401610a2a906143c1565b60026008541415612d0c5760405162461bcd60e51b8152600401610a2a90614811565b6002600855612d1c601483614b29565b15612d395760405162461bcd60e51b8152600401610a2a9061470f565b6000612d4483611224565b90506000612d5133613717565b90506000606480612d628486614aa3565b612d6c9190614a8f565b612d769190614a8f565b90506000612d8661271083614b29565b90506000612d948284614ac2565b90506000612da28287614a77565b6021546040516370a0823160e01b81529192506000916001600160a01b03909116906370a0823190612dd8903390600401613cb8565b60206040518083038186803b158015612df057600080fd5b505afa158015612e04573d6000803e3d6000fd5b505050506040513d601f19601f82011682018060405250810190612e289190613c5d565b602154600954604051636eb1769f60e11b81529293506000926001600160a01b039283169263dd62ed3e92612e6592339290911690600401613ccc565b60206040518083038186803b158015612e7d57600080fd5b505afa158015612e91573d6000803e3d6000fd5b505050506040513d601f19601f82011682018060405250810190612eb59190613c5d565b905081831115612ed75760405162461bcd60e51b8152600401610a2a9061449b565b80831115612ef75760405162461bcd60e51b8152600401610a2a90614936565b624c4b40881015612f1a5760405162461bcd60e51b8152600401610a2a90613efb565b602154600a546040516323b872dd60e01b81526001600160a01b03928316926323b872dd92612f53923392909116908990600401613ce6565b602060405180830381600087803b158015612f6d57600080fd5b505af1158015612f81573d6000803e3d6000fd5b505050506040513d601f19601f82011682018060405250810190612fa59190613c25565b506021546009546040516323b872dd60e01b81526001600160a01b03928316926323b872dd92612fdf923392909116908d90600401613ce6565b602060405180830381600087803b158015612ff957600080fd5b505af115801561300d573d6000803e3d6000fd5b505050506040513d601f19601f820116820180604052508101906130319190613c25565b5061303b88611962565b600954613051906001600160a01b03168b613652565b7f540b5e46f5323b77eef3b40f9b1bdf436e1b79c3984d271ad7a9b1019c295a8f338b8a60405161308493929190613d73565b60405180910390a1336000908152600e6020526040812080548c92906130ab908490614a77565b90915550600090506130be60148c614a8f565b905060005b818110156130e8576130d63360146137d0565b806130e081614b0e565b9150506130c3565b50506001600855509598975050505050505050565b6001600160a01b0382166131235760405162461bcd60e51b8152600401610a2a90614645565b61312f82600083613712565b6001600160a01b038216600090815260208190526040902054818110156131685760405162461bcd60e51b8152600401610a2a90613fe3565b6131728282614ac2565b6001600160a01b038416600090815260208190526040812091909155600280548492906131a0908490614ac2565b90915550506040516000906001600160a01b038516907fddf252ad1be2c89b69c2b068fc378daa952ba7f163c4a11628f55a4df523b3ef90612b1c908690614a60565b6131eb611214565b156132085760405162461bcd60e51b8152600401610a2a906143c1565b602054602154600954604051631a4ca37b60e21b81526001600160a01b03938416936369328dec936132469390821692879290911690600401613d23565b602060405180830381600087803b15801561326057600080fd5b505af1158015613274573d6000803e3d6000fd5b505050506040513d601f19601f820116820180604052508101906132989190613c5d565b507fcf262399c7d7a6ef0283fba5e04858a528d91a896dc7bc72fa3e55fbfee77deb81604051611a049190614a60565b6132d0611214565b156132ed5760405162461bcd60e51b8152600401610a2a906143c1565b6005805460ff60a01b1916600160a01b1790557f62e78cea01bee320cd4e420270b5ea74000d11b0c9f74754ebdbfc544b05a258612cab612a71565b6000613333611214565b156133505760405162461bcd60e51b8152600401610a2a906143c1565b600260085414156133735760405162461bcd60e51b8152600401610a2a90614811565b6002600855613383601483614b29565b156133a05760405162461bcd60e51b8152600401610a2a9061470f565b60006133ab33610fb2565b9050600083116133cd5760405162461bcd60e51b8152600401610a2a90614a1a565b828110156133ed5760405162461bcd60e51b8152600401610a2a90614363565b60006133f8846122cf565b9050624c4b4081101561341d5760405162461bcd60e51b8152600401610a2a90614306565b600061342833613717565b905060006064806134398486614aa3565b6134439190614a8f565b61344d9190614a8f565b9050600061345d61271083614b29565b9050600061346b8284614ac2565b905060006134798287614ac2565b9050600061348860148b614a8f565b905060005b818110156134b2576134a0336014613948565b806134aa81614b0e565b91505061348d565b50336000908152600e6020526040812080548c92906134d2908490614ac2565b90915550506009546134ed906001600160a01b03168b6130fd565b7fdbba09fffb965fc22fc44dbcfae24c5fa3c095c5e59ad4934a8d71c2980eeda7338b8960405161352093929190613d73565b60405180910390a1613531876131e3565b602154600a5460405163a9059cbb60e01b81526001600160a01b039283169263a9059cbb92613567929116908790600401613d0a565b602060405180830381600087803b15801561358157600080fd5b505af1158015613595573d6000803e3d6000fd5b505050506040513d601f19601f820116820180604052508101906135b99190613c25565b5060215460405163a9059cbb60e01b81526001600160a01b039091169063a9059cbb906135ec9033908690600401613d0a565b602060405180830381600087803b15801561360657600080fd5b505af115801561361a573d6000803e3d6000fd5b505050506040513d601f19601f8201168201806040525081019061363e9190613c25565b505060016008555093979650505050505050565b6001600160a01b0382166136785760405162461bcd60e51b8152600401610a2a906149e3565b61368460008383613712565b80600260008282546136969190614a77565b90915550506001600160a01b038216600090815260208190526040812080548392906136c3908490614a77565b90915550506040516001600160a01b038316906000907fddf252ad1be2c89b69c2b068fc378daa952ba7f163c4a11628f55a4df523b3ef90613706908590614a60565b60405180910390a35050565b505050565b60008061372383610fb2565b90506014811015613738575050601a54610c59565b601481101580156137495750602881105b15613758575050601b54610c59565b602881101580156137695750603c81105b15613778575050601c54610c59565b603c81101580156137895750605081105b15613798575050601d54610c59565b605081101580156137a95750606481105b156137b8575050601e54610c59565b606481106137ca575050601f54610c59565b50919050565b60006137db83613b02565b9050808211156137fd5760405162461bcd60e51b8152600401610a2a906148f3565b6001600160a01b03831660009081526011602052604090205460ff1661388157600c805460018082019092557fdf6966c971051c3d54ec59162606531493a51404a002842f56009d7e5cf4a8c70180546001600160a01b0319166001600160a01b0386169081179091556000908152601160205260409020805460ff191690911790555b6001600160a01b0383811660008181526013602081815260408084208054825160a0810184528781528085018281528185018c81524260608401908152608084018a815298885260018086018755958a52878a2084516005870290910180546001600160a01b03191691909d16178c559151948b0194909455925160028a01559151600389015593516004909701805460ff19169715159790971790965593835260109052918120805492939286929061393c908490614a77565b90915550505050505050565b600061395383610fb2565b9050808211156139755760405162461bcd60e51b8152600401610a2a90614128565b600061398084611a0f565b905060008151116139a35760405162461bcd60e51b8152600401610a2a90614025565b6000600182516139b39190614ac2565b905060008282815181106139d757634e487b7160e01b600052603260045260246000fd5b602002602001015160200151905060005b6001600160a01b038716600090815260136020526040902054811015613acc576001600160a01b0387166000908152601360205260409020805483919083908110613a4357634e487b7160e01b600052603260045260246000fd5b9060005260206000209060050201600101541415613aba576001600160a01b038716600090815260136020526040902080546001919083908110613a9757634e487b7160e01b600052603260045260246000fd5b60009182526020909120600590910201600401805460ff19169115159190911790555b80613ac481614b0e565b9150506139e8565b506001600160a01b03861660009081526010602052604081208054879290613af5908490614ac2565b9091555050505050505050565b6001600160a01b03166000908152600e602052604090205490565b6040518060a0016040528060006001600160a01b031681526020016000815260200160008152602001600081526020016000151581525090565b80356001600160a01b0381168114610c5957600080fd5b600060208284031215613b7f578081fd5b613b8882613b57565b9392505050565b60008060408385031215613ba1578081fd5b613baa83613b57565b9150613bb860208401613b57565b90509250929050565b600080600060608486031215613bd5578081fd5b613bde84613b57565b9250613bec60208501613b57565b9150604084013590509250925092565b60008060408385031215613c0e578182fd5b613c1783613b57565b946020939093013593505050565b600060208284031215613c36578081fd5b81518015158114613b88578182fd5b600060208284031215613c56578081fd5b5035919050565b600060208284031215613c6e578081fd5b5051919050565b60008060408385031215613c87578182fd5b82359150613bb860208401613b57565b60008060408385031215613ca9578182fd5b50508035926020909101359150565b6001600160a01b0391909116815260200190565b6001600160a01b0392831681529116602082015260400190565b6001600160a01b039384168152919092166020820152604081019190915260600190565b6001600160a01b03929092168252602082015260400190565b6001600160a01b0393841681526020810192909252909116604082015260600190565b6001600160a01b03948516815260208101939093529216604082015261ffff909116606082015260800190565b6001600160a01b039390931683526020830191909152604082015260600190565b6020808252825182820181905260009190848201906040850190845b81811015613dd55783516001600160a01b031683529284019291840191600101613db0565b50909695505050505050565b602080825282518282018190526000919060409081850190868401855b82811015613e4d57815180516001600160a01b03168552868101518786015285810151868601526060808201519086015260809081015115159085015260a09093019290850190600101613dfe565b5091979650505050505050565b901515815260200190565b6000602080835283518082850152825b81811015613e9157858101830151858201604001528201613e75565b81811115613ea25783604083870101525b50601f01601f1916929092016040019392505050565b60208082526023908201527f45524332303a207472616e7366657220746f20746865207a65726f206164647260408201526265737360e81b606082015260800190565b6020808252603a908201527f424e4a2c20737065636966696564416d6f756e744d696e743a204d696e696d7560408201527f6d206d696e74696e672076616c7565206f662024352055534443000000000000606082015260800190565b60208082526014908201527314185d5cd8589b194e881b9bdd081c185d5cd95960621b604082015260600190565b6020808252603b908201527f757064617465506f6c79676f6e414d55534443433a206e65774164647265737360408201527f2063616e6e6f7420626520746865207a65726f20616464726573730000000000606082015260800190565b60208082526022908201527f45524332303a206275726e20616d6f756e7420657863656564732062616c616e604082015261636560f01b606082015260800190565b60208082526055908201527f424e4a2c20756e7374616b65546f6b656e733a204e6f206275726e61626c652060408201527f7374616b696e6720706f736974696f6e7320666f756e642e20436f6e7369646560608201527439103a34b6b29039b4b731b29039ba30b5b4b7339760591b608082015260a00190565b60208082526026908201527f4f776e61626c653a206e6577206f776e657220697320746865207a65726f206160408201526564647265737360d01b606082015260800190565b60208082526022908201527f45524332303a20617070726f766520746f20746865207a65726f206164647265604082015261737360f01b606082015260800190565b60208082526025908201527f424e4a2c20756e7374616b65546f6b656e733a204e6f7420656e6f75676820746040820152646f6b656e7360d81b606082015260800190565b60208082526027908201527f424e4a4943757276653a204d757374206d696e74206d6f7265207468616e203060408201526620746f6b656e7360c81b606082015260800190565b60208082526031908201527f424e4a2c20696e7465726e616c4d696e743a20416d6f756e74206d757374206260408201527006520646976697369626c6520627920323607c1b606082015260800190565b60208082526026908201527f45524332303a207472616e7366657220616d6f756e7420657863656564732062604082015265616c616e636560d01b606082015260800190565b6020808252603b908201527f424e4a2c20696e7465726e616c4d696e743a204e6f7420656e6f75676820616c60408201527f6c6f77616e636520696e205553444320666f72207061796d656e740000000000606082015260800190565b602080825260409082018190527f757064617465416363756d756c6174656452656365697665723a206e65774164908201527f64726573732063616e6e6f7420626520746865207a65726f2061646472657373606082015260800190565b6020808252603a908201527f424e4a2c20737065636966696564416d6f756e744275726e3a204d696e696d7560408201527f6d206275726e696e672076616c75652069732024352055534443000000000000606082015260800190565b602080825260409082018190527f557365727320746f6b656e42616c616e6365206d75737420626520657175616c908201527f20746f206f72206d6f7265207468616e20616d6f756e7420746f206275726e2e606082015260800190565b60208082526010908201526f14185d5cd8589b194e881c185d5cd95960821b604082015260600190565b6020808252603f908201527f757064617465506f6c79676f6e4c656e64696e67506f6f6c3a206e657741646460408201527f726573732063616e6e6f7420626520746865207a65726f206164647265737300606082015260800190565b60208082526033908201527f424e4a2c20696e7465726e616c4275726e3a204d696e696d756d206275726e696040820152726e672076616c7565206973202435205553444360681b606082015260800190565b60208082526029908201527f424e4a2c20737065636966696564416d6f756e744d696e743a204e6f7420656e6040820152686f756768205553444360b81b606082015260800190565b60208082526022908201527f424e4a2c20696e7465726e616c4d696e743a204e6f7420656e6f756768205553604082015261444360f01b606082015260800190565b60208082526028908201527f45524332303a207472616e7366657220616d6f756e74206578636565647320616040820152676c6c6f77616e636560c01b606082015260800190565b6020808252818101527f4f776e61626c653a2063616c6c6572206973206e6f7420746865206f776e6572604082015260600190565b60208082526031908201527f424e4a2c20696e7465726e616c4275726e3a20416d6f756e74206d757374206260408201527006520646976697369626c6520627920323607c1b606082015260800190565b60208082526031908201527f424e4a2c20696e7465726e616c4d696e743a20416d6f756e74206d7573742062604082015270329036b7b932903a3430b7103d32b9379760791b606082015260800190565b60208082526021908201527f45524332303a206275726e2066726f6d20746865207a65726f206164647265736040820152607360f81b606082015260800190565b60208082526025908201527f45524332303a207472616e736665722066726f6d20746865207a65726f206164604082015264647265737360d81b606082015260800190565b60208082526024908201527f45524332303a20617070726f76652066726f6d20746865207a65726f206164646040820152637265737360e01b606082015260800190565b60208082526038908201527f424e4a2c20737065636966696564416d6f756e744d696e743a20416d6f756e7460408201527f206d75737420626520646976697369626c652062792032300000000000000000606082015260800190565b6020808252602d908201527f424e4a4943757276653a2053656e64696e672061726773206d7573742062652060408201526c06c6172676572207468616e203609c1b606082015260800190565b60208082526038908201527f757064617465506f6c79676f6e555344433a206e6577416464726573732063616040820152776e6e6f7420626520746865207a65726f206164647265737360401b606082015260800190565b6020808252601f908201527f5265656e7472616e637947756172643a207265656e7472616e742063616c6c00604082015260600190565b60208082526033908201527f424e4a2c20696e7465726e616c4d696e743a204d696e696d756d206d696e74696040820152726e672076616c7565206f66202435205553444360681b606082015260800190565b60208082526038908201527f75706461746546656552656365697665723a206e6577416464726573732063616040820152776e6e6f7420626520746865207a65726f206164647265737360401b606082015260800190565b60208082526023908201527f424e4a2c207374616b65546f6b656e733a204e6f7420656e6f75676820746f6b604082015262656e7360e81b606082015260800190565b60208082526042908201527f424e4a2c20737065636966696564416d6f756e744d696e743a204e6f7420656e60408201527f6f75676820616c6c6f77616e636520696e205553444320666f72207061796d656060820152611b9d60f21b608082015260a00190565b60208082526025908201527f45524332303a2064656372656173656420616c6c6f77616e63652062656c6f77604082015264207a65726f60d81b606082015260800190565b6020808252601f908201527f45524332303a206d696e7420746f20746865207a65726f206164647265737300604082015260600190565b60208082526026908201527f416d6f756e7420746f206275726e206d757374206265206d6f7265207468616e604082015265103d32b9379760d11b606082015260800190565b90815260200190565b60ff91909116815260200190565b60008219821115614a8a57614a8a614b3d565b500190565b600082614a9e57614a9e614b53565b500490565b6000816000190483118215151615614abd57614abd614b3d565b500290565b600082821015614ad457614ad4614b3d565b500390565b600281046001821680614aed57607f821691505b602082108114156137ca57634e487b7160e01b600052602260045260246000fd5b6000600019821415614b2257614b22614b3d565b5060010190565b600082614b3857614b38614b53565b500690565b634e487b7160e01b600052601160045260246000fd5b634e487b7160e01b600052601260045260246000fdfea2646970667358221220d00b23f654578f18c40d77eafe7fea8903d17452d000f057642c13914f95254564736f6c63430008000033",
  "devdoc": {
    "kind": "dev",
    "methods": {
      "allowance(address,address)": {
        "details": "See {IERC20-allowance}."
      },
      "approve(address,uint256)": {
        "details": "See {IERC20-approve}. Requirements: - `spender` cannot be the zero address."
      },
      "balanceOf(address)": {
        "details": "See {IERC20-balanceOf}."
      },
      "decimals()": {
        "details": "Returns the number of decimals used to get its user representation. For example, if `decimals` equals `2`, a balance of `505` tokens should be displayed to a user as `5,05` (`505 / 10 ** 2`). Tokens usually opt for a value of 18, imitating the relationship between Ether and Wei. This is the value {ERC20} uses, unless this function is overridden; NOTE: This information is only used for _display_ purposes: it in no way affects any of the arithmetic of the contract, including {IERC20-balanceOf} and {IERC20-transfer}."
      },
      "decreaseAllowance(address,uint256)": {
        "details": "Atomically decreases the allowance granted to `spender` by the caller. This is an alternative to {approve} that can be used as a mitigation for problems described in {IERC20-approve}. Emits an {Approval} event indicating the updated allowance. Requirements: - `spender` cannot be the zero address. - `spender` must have allowance for the caller of at least `subtractedValue`."
      },
      "increaseAllowance(address,uint256)": {
        "details": "Atomically increases the allowance granted to `spender` by the caller. This is an alternative to {approve} that can be used as a mitigation for problems described in {IERC20-approve}. Emits an {Approval} event indicating the updated allowance. Requirements: - `spender` cannot be the zero address."
      },
      "name()": {
        "details": "Returns the name of the token."
      },
      "owner()": {
        "details": "Returns the address of the current owner."
      },
      "paused()": {
        "details": "Returns true if the contract is paused, and false otherwise."
      },
      "renounceOwnership()": {
        "details": "Leaves the contract without owner. It will not be possible to call `onlyOwner` functions anymore. Can only be called by the current owner. NOTE: Renouncing ownership will leave the contract without an owner, thereby removing any functionality that is only available to the owner."
      },
      "symbol()": {
        "details": "Returns the symbol of the token, usually a shorter version of the name."
      },
      "totalSupply()": {
        "details": "See {IERC20-totalSupply}."
      },
      "transfer(address,uint256)": {
        "details": "See {IERC20-transfer}. Requirements: - `recipient` cannot be the zero address. - the caller must have a balance of at least `amount`."
      },
      "transferFrom(address,address,uint256)": {
        "details": "See {IERC20-transferFrom}. Emits an {Approval} event indicating the updated allowance. This is not required by the EIP. See the note at the beginning of {ERC20}. Requirements: - `sender` and `recipient` cannot be the zero address. - `sender` must have a balance of at least `amount`. - the caller must have allowance for ``sender``'s tokens of at least `amount`."
      },
      "transferOwnership(address)": {
        "details": "Transfers ownership of the contract to a new account (`newOwner`). Can only be called by the current owner."
      }
    },
    "version": 1
  },
  "userdoc": {
    "kind": "user",
    "methods": {},
    "version": 1
  },
  "storageLayout": {
    "storage": [
      {
        "astId": 257,
        "contract": "contracts/MumbaiBenjamins.sol:MumbaiBenjamins",
        "label": "_balances",
        "offset": 0,
        "slot": "0",
        "type": "t_mapping(t_address,t_uint256)"
      },
      {
        "astId": 263,
        "contract": "contracts/MumbaiBenjamins.sol:MumbaiBenjamins",
        "label": "_allowances",
        "offset": 0,
        "slot": "1",
        "type": "t_mapping(t_address,t_mapping(t_address,t_uint256))"
      },
      {
        "astId": 265,
        "contract": "contracts/MumbaiBenjamins.sol:MumbaiBenjamins",
        "label": "_totalSupply",
        "offset": 0,
        "slot": "2",
        "type": "t_uint256"
      },
      {
        "astId": 267,
        "contract": "contracts/MumbaiBenjamins.sol:MumbaiBenjamins",
        "label": "_name",
        "offset": 0,
        "slot": "3",
        "type": "t_string_storage"
      },
      {
        "astId": 269,
        "contract": "contracts/MumbaiBenjamins.sol:MumbaiBenjamins",
        "label": "_symbol",
        "offset": 0,
        "slot": "4",
        "type": "t_string_storage"
      },
      {
        "astId": 7,
        "contract": "contracts/MumbaiBenjamins.sol:MumbaiBenjamins",
        "label": "_owner",
        "offset": 0,
        "slot": "5",
        "type": "t_address"
      },
      {
        "astId": 127,
        "contract": "contracts/MumbaiBenjamins.sol:MumbaiBenjamins",
        "label": "_paused",
        "offset": 20,
        "slot": "5",
        "type": "t_bool"
      },
      {
        "astId": 1200,
        "contract": "contracts/MumbaiBenjamins.sol:MumbaiBenjamins",
        "label": "USDCscale",
        "offset": 0,
        "slot": "6",
        "type": "t_uint256"
      },
      {
        "astId": 1203,
        "contract": "contracts/MumbaiBenjamins.sol:MumbaiBenjamins",
        "label": "curveFactor",
        "offset": 0,
        "slot": "7",
        "type": "t_uint256"
      },
      {
        "astId": 212,
        "contract": "contracts/MumbaiBenjamins.sol:MumbaiBenjamins",
        "label": "_status",
        "offset": 0,
        "slot": "8",
        "type": "t_uint256"
      },
      {
        "astId": 1992,
        "contract": "contracts/MumbaiBenjamins.sol:MumbaiBenjamins",
        "label": "addressOfThisContract",
        "offset": 0,
        "slot": "9",
        "type": "t_address"
      },
      {
        "astId": 1994,
        "contract": "contracts/MumbaiBenjamins.sol:MumbaiBenjamins",
        "label": "feeReceiver",
        "offset": 0,
        "slot": "10",
        "type": "t_address"
      },
      {
        "astId": 1996,
        "contract": "contracts/MumbaiBenjamins.sol:MumbaiBenjamins",
        "label": "accumulatedReceiver",
        "offset": 0,
        "slot": "11",
        "type": "t_address"
      },
      {
        "astId": 1999,
        "contract": "contracts/MumbaiBenjamins.sol:MumbaiBenjamins",
        "label": "stakers",
        "offset": 0,
        "slot": "12",
        "type": "t_array(t_address)dyn_storage"
      },
      {
        "astId": 2002,
        "contract": "contracts/MumbaiBenjamins.sol:MumbaiBenjamins",
        "label": "internalAddresses",
        "offset": 0,
        "slot": "13",
        "type": "t_array(t_address)dyn_storage"
      },
      {
        "astId": 2006,
        "contract": "contracts/MumbaiBenjamins.sol:MumbaiBenjamins",
        "label": "ownedBenjamins",
        "offset": 0,
        "slot": "14",
        "type": "t_mapping(t_address,t_uint256)"
      },
      {
        "astId": 2010,
        "contract": "contracts/MumbaiBenjamins.sol:MumbaiBenjamins",
        "label": "internalBenjamins",
        "offset": 0,
        "slot": "15",
        "type": "t_mapping(t_address,t_uint256)"
      },
      {
        "astId": 2014,
        "contract": "contracts/MumbaiBenjamins.sol:MumbaiBenjamins",
        "label": "totalStakedByUser",
        "offset": 0,
        "slot": "16",
        "type": "t_mapping(t_address,t_uint256)"
      },
      {
        "astId": 2018,
        "contract": "contracts/MumbaiBenjamins.sol:MumbaiBenjamins",
        "label": "isOnStakingList",
        "offset": 0,
        "slot": "17",
        "type": "t_mapping(t_address,t_bool)"
      },
      {
        "astId": 2022,
        "contract": "contracts/MumbaiBenjamins.sol:MumbaiBenjamins",
        "label": "isOnInternalList",
        "offset": 0,
        "slot": "18",
        "type": "t_mapping(t_address,t_bool)"
      },
      {
        "astId": 2028,
        "contract": "contracts/MumbaiBenjamins.sol:MumbaiBenjamins",
        "label": "usersStakingPositions",
        "offset": 0,
        "slot": "19",
        "type": "t_mapping(t_address,t_array(t_struct(Stake)2045_storage)dyn_storage)"
      },
      {
        "astId": 2034,
        "contract": "contracts/MumbaiBenjamins.sol:MumbaiBenjamins",
        "label": "internalStakingPositions",
        "offset": 0,
        "slot": "20",
        "type": "t_mapping(t_address,t_array(t_struct(Stake)2045_storage)dyn_storage)"
      },
      {
        "astId": 2047,
        "contract": "contracts/MumbaiBenjamins.sol:MumbaiBenjamins",
        "label": "amountDecimals",
        "offset": 0,
        "slot": "21",
        "type": "t_uint8"
      },
      {
        "astId": 2054,
        "contract": "contracts/MumbaiBenjamins.sol:MumbaiBenjamins",
        "label": "largestUint",
        "offset": 0,
        "slot": "22",
        "type": "t_uint256"
      },
      {
        "astId": 2057,
        "contract": "contracts/MumbaiBenjamins.sol:MumbaiBenjamins",
        "label": "centsScale4digits",
        "offset": 0,
        "slot": "23",
        "type": "t_uint256"
      },
      {
        "astId": 2060,
        "contract": "contracts/MumbaiBenjamins.sol:MumbaiBenjamins",
        "label": "dollarScale6dec",
        "offset": 0,
        "slot": "24",
        "type": "t_uint256"
      },
      {
        "astId": 2063,
        "contract": "contracts/MumbaiBenjamins.sol:MumbaiBenjamins",
        "label": "stakingPeriodInSeconds",
        "offset": 0,
        "slot": "25",
        "type": "t_uint256"
      },
      {
        "astId": 2066,
        "contract": "contracts/MumbaiBenjamins.sol:MumbaiBenjamins",
        "label": "tier_0_feeMod",
        "offset": 0,
        "slot": "26",
        "type": "t_uint256"
      },
      {
        "astId": 2069,
        "contract": "contracts/MumbaiBenjamins.sol:MumbaiBenjamins",
        "label": "tier_1_feeMod",
        "offset": 0,
        "slot": "27",
        "type": "t_uint256"
      },
      {
        "astId": 2072,
        "contract": "contracts/MumbaiBenjamins.sol:MumbaiBenjamins",
        "label": "tier_2_feeMod",
        "offset": 0,
        "slot": "28",
        "type": "t_uint256"
      },
      {
        "astId": 2075,
        "contract": "contracts/MumbaiBenjamins.sol:MumbaiBenjamins",
        "label": "tier_3_feeMod",
        "offset": 0,
        "slot": "29",
        "type": "t_uint256"
      },
      {
        "astId": 2078,
        "contract": "contracts/MumbaiBenjamins.sol:MumbaiBenjamins",
        "label": "tier_4_feeMod",
        "offset": 0,
        "slot": "30",
        "type": "t_uint256"
      },
      {
        "astId": 2081,
        "contract": "contracts/MumbaiBenjamins.sol:MumbaiBenjamins",
        "label": "tier_5_feeMod",
        "offset": 0,
        "slot": "31",
        "type": "t_uint256"
      },
      {
        "astId": 2084,
        "contract": "contracts/MumbaiBenjamins.sol:MumbaiBenjamins",
        "label": "polygonLendingPool",
        "offset": 0,
        "slot": "32",
        "type": "t_contract(ILendingPool)1824"
      },
      {
        "astId": 2087,
        "contract": "contracts/MumbaiBenjamins.sol:MumbaiBenjamins",
        "label": "polygonUSDC",
        "offset": 0,
        "slot": "33",
        "type": "t_contract(IERC20)826"
      },
      {
        "astId": 2090,
        "contract": "contracts/MumbaiBenjamins.sol:MumbaiBenjamins",
        "label": "polygonAMUSDC",
        "offset": 0,
        "slot": "34",
        "type": "t_contract(IERC20)826"
      }
    ],
    "types": {
      "t_address": {
        "encoding": "inplace",
        "label": "address",
        "numberOfBytes": "20"
      },
      "t_array(t_address)dyn_storage": {
        "base": "t_address",
        "encoding": "dynamic_array",
        "label": "address[]",
        "numberOfBytes": "32"
      },
      "t_array(t_struct(Stake)2045_storage)dyn_storage": {
        "base": "t_struct(Stake)2045_storage",
        "encoding": "dynamic_array",
        "label": "struct MumbaiBenjamins.Stake[]",
        "numberOfBytes": "32"
      },
      "t_bool": {
        "encoding": "inplace",
        "label": "bool",
        "numberOfBytes": "1"
      },
      "t_contract(IERC20)826": {
        "encoding": "inplace",
        "label": "contract IERC20",
        "numberOfBytes": "20"
      },
      "t_contract(ILendingPool)1824": {
        "encoding": "inplace",
        "label": "contract ILendingPool",
        "numberOfBytes": "20"
      },
      "t_mapping(t_address,t_array(t_struct(Stake)2045_storage)dyn_storage)": {
        "encoding": "mapping",
        "key": "t_address",
        "label": "mapping(address => struct MumbaiBenjamins.Stake[])",
        "numberOfBytes": "32",
        "value": "t_array(t_struct(Stake)2045_storage)dyn_storage"
      },
      "t_mapping(t_address,t_bool)": {
        "encoding": "mapping",
        "key": "t_address",
        "label": "mapping(address => bool)",
        "numberOfBytes": "32",
        "value": "t_bool"
      },
      "t_mapping(t_address,t_mapping(t_address,t_uint256))": {
        "encoding": "mapping",
        "key": "t_address",
        "label": "mapping(address => mapping(address => uint256))",
        "numberOfBytes": "32",
        "value": "t_mapping(t_address,t_uint256)"
      },
      "t_mapping(t_address,t_uint256)": {
        "encoding": "mapping",
        "key": "t_address",
        "label": "mapping(address => uint256)",
        "numberOfBytes": "32",
        "value": "t_uint256"
      },
      "t_string_storage": {
        "encoding": "bytes",
        "label": "string",
        "numberOfBytes": "32"
      },
      "t_struct(Stake)2045_storage": {
        "encoding": "inplace",
        "label": "struct MumbaiBenjamins.Stake",
        "members": [
          {
            "astId": 2036,
            "contract": "contracts/MumbaiBenjamins.sol:MumbaiBenjamins",
            "label": "stakingAddress",
            "offset": 0,
            "slot": "0",
            "type": "t_address"
          },
          {
            "astId": 2038,
            "contract": "contracts/MumbaiBenjamins.sol:MumbaiBenjamins",
            "label": "stakeID",
            "offset": 0,
            "slot": "1",
            "type": "t_uint256"
          },
          {
            "astId": 2040,
            "contract": "contracts/MumbaiBenjamins.sol:MumbaiBenjamins",
            "label": "tokenAmount",
            "offset": 0,
            "slot": "2",
            "type": "t_uint256"
          },
          {
            "astId": 2042,
            "contract": "contracts/MumbaiBenjamins.sol:MumbaiBenjamins",
            "label": "stakeCreatedTimestamp",
            "offset": 0,
            "slot": "3",
            "type": "t_uint256"
          },
          {
            "astId": 2044,
            "contract": "contracts/MumbaiBenjamins.sol:MumbaiBenjamins",
            "label": "unstaked",
            "offset": 0,
            "slot": "4",
            "type": "t_bool"
          }
        ],
        "numberOfBytes": "160"
      },
      "t_uint256": {
        "encoding": "inplace",
        "label": "uint256",
        "numberOfBytes": "32"
      },
      "t_uint8": {
        "encoding": "inplace",
        "label": "uint8",
        "numberOfBytes": "1"
      }
    }
  }
}